{
	"DISNEY/disney.sol": {
		"Disney": {
			"abi": [
				{
					"inputs": [],
					"stateMutability": "nonpayable",
					"type": "constructor"
				},
				{
					"anonymous": false,
					"inputs": [
						{
							"indexed": false,
							"internalType": "string",
							"name": "",
							"type": "string"
						}
					],
					"name": "alta_atraccion",
					"type": "event"
				},
				{
					"anonymous": false,
					"inputs": [
						{
							"indexed": false,
							"internalType": "string",
							"name": "",
							"type": "string"
						}
					],
					"name": "baja_atraccion",
					"type": "event"
				},
				{
					"anonymous": false,
					"inputs": [
						{
							"indexed": false,
							"internalType": "string",
							"name": "",
							"type": "string"
						}
					],
					"name": "disfruta_atraccion",
					"type": "event"
				},
				{
					"inputs": [
						{
							"internalType": "address",
							"name": "",
							"type": "address"
						}
					],
					"name": "Clientes",
					"outputs": [
						{
							"internalType": "uint256",
							"name": "tokens_comprados",
							"type": "uint256"
						}
					],
					"stateMutability": "view",
					"type": "function"
				},
				{
					"inputs": [
						{
							"internalType": "uint256",
							"name": "_numTokens",
							"type": "uint256"
						}
					],
					"name": "CompraTokens",
					"outputs": [],
					"stateMutability": "payable",
					"type": "function"
				},
				{
					"inputs": [
						{
							"internalType": "uint256",
							"name": "_numTokens",
							"type": "uint256"
						}
					],
					"name": "GeneraTokens",
					"outputs": [],
					"stateMutability": "nonpayable",
					"type": "function"
				},
				{
					"inputs": [
						{
							"internalType": "string",
							"name": "",
							"type": "string"
						}
					],
					"name": "MappingAtracciones",
					"outputs": [
						{
							"internalType": "string",
							"name": "nombre_atraccion",
							"type": "string"
						},
						{
							"internalType": "uint256",
							"name": "precio_atraccion",
							"type": "uint256"
						},
						{
							"internalType": "bool",
							"name": "estado_atraccion",
							"type": "bool"
						}
					],
					"stateMutability": "view",
					"type": "function"
				},
				{
					"inputs": [],
					"name": "MisTokens",
					"outputs": [
						{
							"internalType": "uint256",
							"name": "",
							"type": "uint256"
						}
					],
					"stateMutability": "view",
					"type": "function"
				},
				{
					"inputs": [],
					"name": "balanceOf",
					"outputs": [
						{
							"internalType": "uint256",
							"name": "",
							"type": "uint256"
						}
					],
					"stateMutability": "view",
					"type": "function"
				},
				{
					"inputs": [],
					"name": "owner",
					"outputs": [
						{
							"internalType": "address payable",
							"name": "",
							"type": "address"
						}
					],
					"stateMutability": "view",
					"type": "function"
				}
			],
			"devdoc": {
				"methods": {}
			},
			"evm": {
				"assembly": "    /* \"DISNEY/disney.sol\":89:3629  contract Disney {... */\n  mstore(0x40, 0x80)\n    /* \"DISNEY/disney.sol\":366:568  constructor () public {... */\n  callvalue\n    /* \"--CODEGEN--\":5:14   */\n  dup1\n    /* \"--CODEGEN--\":2:4   */\n  iszero\n  tag_1\n  jumpi\n    /* \"--CODEGEN--\":27:28   */\n  0x00\n    /* \"--CODEGEN--\":24:25   */\n  dup1\n    /* \"--CODEGEN--\":17:29   */\n  revert\n    /* \"--CODEGEN--\":2:4   */\ntag_1:\n    /* \"DISNEY/disney.sol\":366:568  constructor () public {... */\n  pop\n    /* \"DISNEY/disney.sol\":421:426  10000 */\n  0x2710\n    /* \"DISNEY/disney.sol\":406:427  new ERC20Basic(10000) */\n  mload(0x40)\n  tag_4\n  swap1\n  tag_5\n  jump\t// in\ntag_4:\n  tag_6\n  swap2\n  swap1\n  jump(tag_7)\ntag_6:\n  mload(0x40)\n  dup1\n  swap2\n  sub\n  swap1\n  0x00\n  create\n  dup1\n  iszero\n    /* \"--CODEGEN--\":8:17   */\n  dup1\n    /* \"--CODEGEN--\":5:7   */\n  iszero\n  tag_8\n  jumpi\n    /* \"--CODEGEN--\":45:61   */\n  returndatasize\n    /* \"--CODEGEN--\":42:43   */\n  0x00\n    /* \"--CODEGEN--\":39:40   */\n  dup1\n    /* \"--CODEGEN--\":24:62   */\n  returndatacopy\n    /* \"--CODEGEN--\":77:93   */\n  returndatasize\n    /* \"--CODEGEN--\":74:75   */\n  0x00\n    /* \"--CODEGEN--\":67:94   */\n  revert\n    /* \"--CODEGEN--\":5:7   */\ntag_8:\n    /* \"DISNEY/disney.sol\":406:427  new ERC20Basic(10000) */\n  pop\n    /* \"DISNEY/disney.sol\":398:403  token */\n  0x00\n  dup1\n    /* \"DISNEY/disney.sol\":398:427  token = new ERC20Basic(10000) */\n  0x0100\n  exp\n  dup2\n  sload\n  dup2\n  0xffffffffffffffffffffffffffffffffffffffff\n  mul\n  not\n  and\n  swap1\n  dup4\n  0xffffffffffffffffffffffffffffffffffffffff\n  and\n  mul\n  or\n  swap1\n  sstore\n  pop\n    /* \"DISNEY/disney.sol\":494:504  msg.sender */\n  caller\n    /* \"DISNEY/disney.sol\":486:491  owner */\n  0x01\n  0x00\n    /* \"DISNEY/disney.sol\":486:504  owner = msg.sender */\n  0x0100\n  exp\n  dup2\n  sload\n  dup2\n  0xffffffffffffffffffffffffffffffffffffffff\n  mul\n  not\n  and\n  swap1\n  dup4\n  0xffffffffffffffffffffffffffffffffffffffff\n  and\n  mul\n  or\n  swap1\n  sstore\n  pop\n    /* \"DISNEY/disney.sol\":89:3629  contract Disney {... */\n  jump(tag_9)\ntag_5:\n  dataSize(sub_1)\n  dup1\n  dataOffset(sub_1)\n  dup4\n  codecopy\n  add\n  swap1\n  jump\t// out\n    /* \"--CODEGEN--\":5:155   */\ntag_11:\n    /* \"--CODEGEN--\":100:149   */\n  tag_13\n    /* \"--CODEGEN--\":143:148   */\n  dup2\n    /* \"--CODEGEN--\":100:149   */\n  jump(tag_14)\ntag_13:\n    /* \"--CODEGEN--\":95:98   */\n  dup3\n    /* \"--CODEGEN--\":88:150   */\n  mstore\n    /* \"--CODEGEN--\":82:155   */\n  pop\n  pop\n  jump\n    /* \"--CODEGEN--\":162:399   */\ntag_7:\n  0x00\n    /* \"--CODEGEN--\":292:294   */\n  0x20\n    /* \"--CODEGEN--\":281:290   */\n  dup3\n    /* \"--CODEGEN--\":277:295   */\n  add\n    /* \"--CODEGEN--\":269:295   */\n  swap1\n  pop\n    /* \"--CODEGEN--\":306:389   */\n  tag_16\n    /* \"--CODEGEN--\":386:387   */\n  0x00\n    /* \"--CODEGEN--\":375:384   */\n  dup4\n    /* \"--CODEGEN--\":371:388   */\n  add\n    /* \"--CODEGEN--\":362:368   */\n  dup5\n    /* \"--CODEGEN--\":306:389   */\n  jump(tag_11)\ntag_16:\n    /* \"--CODEGEN--\":263:399   */\n  swap3\n  swap2\n  pop\n  pop\n  jump\n    /* \"--CODEGEN--\":406:478   */\ntag_17:\n  0x00\n    /* \"--CODEGEN--\":468:473   */\n  dup2\n    /* \"--CODEGEN--\":457:473   */\n  swap1\n  pop\n    /* \"--CODEGEN--\":451:478   */\n  swap2\n  swap1\n  pop\n  jump\n    /* \"--CODEGEN--\":485:605   */\ntag_14:\n  0x00\n    /* \"--CODEGEN--\":576:600   */\n  tag_20\n    /* \"--CODEGEN--\":594:599   */\n  dup3\n    /* \"--CODEGEN--\":576:600   */\n  jump(tag_17)\ntag_20:\n    /* \"--CODEGEN--\":563:600   */\n  swap1\n  pop\n    /* \"--CODEGEN--\":557:605   */\n  swap2\n  swap1\n  pop\n  jump\n    /* \"DISNEY/disney.sol\":89:3629  contract Disney {... */\ntag_9:\n  dataSize(sub_0)\n  dup1\n  dataOffset(sub_0)\n  0x00\n  codecopy\n  0x00\n  return\nstop\n\nsub_0: assembly {\n        /* \"DISNEY/disney.sol\":89:3629  contract Disney {... */\n      mstore(0x40, 0x80)\n      jumpi(tag_1, lt(calldatasize, 0x04))\n      shr(0xe0, calldataload(0x00))\n      dup1\n      0xce8f2f38\n      gt\n      tag_9\n      jumpi\n      dup1\n      0xce8f2f38\n      eq\n      tag_5\n      jumpi\n      dup1\n      0xd00df296\n      eq\n      tag_6\n      jumpi\n      dup1\n      0xe33f34a0\n      eq\n      tag_7\n      jumpi\n      dup1\n      0xf7774091\n      eq\n      tag_8\n      jumpi\n      jump(tag_1)\n    tag_9:\n      dup1\n      0x1246f6e2\n      eq\n      tag_2\n      jumpi\n      dup1\n      0x722713f7\n      eq\n      tag_3\n      jumpi\n      dup1\n      0x8da5cb5b\n      eq\n      tag_4\n      jumpi\n    tag_1:\n        /* \"--CODEGEN--\":12:13   */\n      0x00\n        /* \"--CODEGEN--\":9:10   */\n      dup1\n        /* \"--CODEGEN--\":2:14   */\n      revert\n        /* \"DISNEY/disney.sol\":2463:2592  function GeneraTokens(uint _numTokens) public Unicamente(msg.sender){... */\n    tag_2:\n      callvalue\n        /* \"--CODEGEN--\":5:14   */\n      dup1\n        /* \"--CODEGEN--\":2:4   */\n      iszero\n      tag_10\n      jumpi\n        /* \"--CODEGEN--\":27:28   */\n      0x00\n        /* \"--CODEGEN--\":24:25   */\n      dup1\n        /* \"--CODEGEN--\":17:29   */\n      revert\n        /* \"--CODEGEN--\":2:4   */\n    tag_10:\n        /* \"DISNEY/disney.sol\":2463:2592  function GeneraTokens(uint _numTokens) public Unicamente(msg.sender){... */\n      pop\n      tag_11\n      0x04\n      dup1\n      calldatasize\n      sub\n      dup2\n      add\n      swap1\n      tag_12\n      swap2\n      swap1\n      jump(tag_13)\n    tag_12:\n      tag_14\n      jump\t// in\n    tag_11:\n      stop\n        /* \"DISNEY/disney.sol\":2148:2250  function balanceOf() public view returns (uint) {... */\n    tag_3:\n      callvalue\n        /* \"--CODEGEN--\":5:14   */\n      dup1\n        /* \"--CODEGEN--\":2:4   */\n      iszero\n      tag_15\n      jumpi\n        /* \"--CODEGEN--\":27:28   */\n      0x00\n        /* \"--CODEGEN--\":24:25   */\n      dup1\n        /* \"--CODEGEN--\":17:29   */\n      revert\n        /* \"--CODEGEN--\":2:4   */\n    tag_15:\n        /* \"DISNEY/disney.sol\":2148:2250  function balanceOf() public view returns (uint) {... */\n      pop\n      tag_16\n      tag_17\n      jump\t// in\n    tag_16:\n      mload(0x40)\n      tag_18\n      swap2\n      swap1\n      jump(tag_19)\n    tag_18:\n      mload(0x40)\n      dup1\n      swap2\n      sub\n      swap1\n      return\n        /* \"DISNEY/disney.sol\":311:339  address payable public owner */\n    tag_4:\n      callvalue\n        /* \"--CODEGEN--\":5:14   */\n      dup1\n        /* \"--CODEGEN--\":2:4   */\n      iszero\n      tag_20\n      jumpi\n        /* \"--CODEGEN--\":27:28   */\n      0x00\n        /* \"--CODEGEN--\":24:25   */\n      dup1\n        /* \"--CODEGEN--\":17:29   */\n      revert\n        /* \"--CODEGEN--\":2:4   */\n    tag_20:\n        /* \"DISNEY/disney.sol\":311:339  address payable public owner */\n      pop\n      tag_21\n      tag_22\n      jump\t// in\n    tag_21:\n      mload(0x40)\n      tag_23\n      swap2\n      swap1\n      jump(tag_24)\n    tag_23:\n      mload(0x40)\n      dup1\n      swap2\n      sub\n      swap1\n      return\n        /* \"DISNEY/disney.sol\":784:828  mapping (address => cliente) public Clientes */\n    tag_5:\n      callvalue\n        /* \"--CODEGEN--\":5:14   */\n      dup1\n        /* \"--CODEGEN--\":2:4   */\n      iszero\n      tag_25\n      jumpi\n        /* \"--CODEGEN--\":27:28   */\n      0x00\n        /* \"--CODEGEN--\":24:25   */\n      dup1\n        /* \"--CODEGEN--\":17:29   */\n      revert\n        /* \"--CODEGEN--\":2:4   */\n    tag_25:\n        /* \"DISNEY/disney.sol\":784:828  mapping (address => cliente) public Clientes */\n      pop\n      tag_26\n      0x04\n      dup1\n      calldatasize\n      sub\n      dup2\n      add\n      swap1\n      tag_27\n      swap2\n      swap1\n      jump(tag_28)\n    tag_27:\n      tag_29\n      jump\t// in\n    tag_26:\n      mload(0x40)\n      tag_30\n      swap2\n      swap1\n      jump(tag_19)\n    tag_30:\n      mload(0x40)\n      dup1\n      swap2\n      sub\n      swap1\n      return\n        /* \"DISNEY/disney.sol\":3357:3412  mapping (string => atraccion) public MappingAtracciones */\n    tag_6:\n      callvalue\n        /* \"--CODEGEN--\":5:14   */\n      dup1\n        /* \"--CODEGEN--\":2:4   */\n      iszero\n      tag_31\n      jumpi\n        /* \"--CODEGEN--\":27:28   */\n      0x00\n        /* \"--CODEGEN--\":24:25   */\n      dup1\n        /* \"--CODEGEN--\":17:29   */\n      revert\n        /* \"--CODEGEN--\":2:4   */\n    tag_31:\n        /* \"DISNEY/disney.sol\":3357:3412  mapping (string => atraccion) public MappingAtracciones */\n      pop\n      tag_32\n      0x04\n      dup1\n      calldatasize\n      sub\n      dup2\n      add\n      swap1\n      tag_33\n      swap2\n      swap1\n      jump(tag_34)\n    tag_33:\n      tag_35\n      jump\t// in\n    tag_32:\n      mload(0x40)\n      tag_36\n      swap4\n      swap3\n      swap2\n      swap1\n      jump(tag_37)\n    tag_36:\n      mload(0x40)\n      dup1\n      swap2\n      sub\n      swap1\n      return\n        /* \"DISNEY/disney.sol\":2318:2417  function MisTokens() public view returns (uint) {... */\n    tag_7:\n      callvalue\n        /* \"--CODEGEN--\":5:14   */\n      dup1\n        /* \"--CODEGEN--\":2:4   */\n      iszero\n      tag_38\n      jumpi\n        /* \"--CODEGEN--\":27:28   */\n      0x00\n        /* \"--CODEGEN--\":24:25   */\n      dup1\n        /* \"--CODEGEN--\":17:29   */\n      revert\n        /* \"--CODEGEN--\":2:4   */\n    tag_38:\n        /* \"DISNEY/disney.sol\":2318:2417  function MisTokens() public view returns (uint) {... */\n      pop\n      tag_39\n      tag_40\n      jump\t// in\n    tag_39:\n      mload(0x40)\n      tag_41\n      swap2\n      swap1\n      jump(tag_19)\n    tag_41:\n      mload(0x40)\n      dup1\n      swap2\n      sub\n      swap1\n      return\n        /* \"DISNEY/disney.sol\":1214:2097  function CompraTokens(uint _numTokens) public payable {... */\n    tag_8:\n      tag_42\n      0x04\n      dup1\n      calldatasize\n      sub\n      dup2\n      add\n      swap1\n      tag_43\n      swap2\n      swap1\n      jump(tag_13)\n    tag_43:\n      tag_44\n      jump\t// in\n    tag_42:\n      stop\n        /* \"DISNEY/disney.sol\":2463:2592  function GeneraTokens(uint _numTokens) public Unicamente(msg.sender){... */\n    tag_14:\n        /* \"DISNEY/disney.sol\":2520:2530  msg.sender */\n      caller\n        /* \"DISNEY/disney.sol\":2741:2746  owner */\n      0x01\n      0x00\n      swap1\n      sload\n      swap1\n      0x0100\n      exp\n      swap1\n      div\n      0xffffffffffffffffffffffffffffffffffffffff\n      and\n        /* \"DISNEY/disney.sol\":2727:2746  _direccion == owner */\n      0xffffffffffffffffffffffffffffffffffffffff\n      and\n        /* \"DISNEY/disney.sol\":2727:2737  _direccion */\n      dup2\n        /* \"DISNEY/disney.sol\":2727:2746  _direccion == owner */\n      0xffffffffffffffffffffffffffffffffffffffff\n      and\n      eq\n        /* \"DISNEY/disney.sol\":2719:2797  require(_direccion == owner, \"No tienes permisos para ejecutar esta funcion.\") */\n      tag_46\n      jumpi\n      mload(0x40)\n      0x08c379a000000000000000000000000000000000000000000000000000000000\n      dup2\n      mstore\n      0x04\n      add\n      tag_47\n      swap1\n      jump(tag_48)\n    tag_47:\n      mload(0x40)\n      dup1\n      swap2\n      sub\n      swap1\n      revert\n    tag_46:\n        /* \"DISNEY/disney.sol\":2548:2553  token */\n      0x00\n      dup1\n      swap1\n      sload\n      swap1\n      0x0100\n      exp\n      swap1\n      div\n      0xffffffffffffffffffffffffffffffffffffffff\n      and\n        /* \"DISNEY/disney.sol\":2548:2573  token.increaseTotalSupply */\n      0xffffffffffffffffffffffffffffffffffffffff\n      and\n      0x1d43cc98\n        /* \"DISNEY/disney.sol\":2574:2584  _numTokens */\n      dup4\n        /* \"DISNEY/disney.sol\":2548:2585  token.increaseTotalSupply(_numTokens) */\n      mload(0x40)\n      dup3\n      0xffffffff\n      and\n      0xe0\n      shl\n      dup2\n      mstore\n      0x04\n      add\n      tag_50\n      swap2\n      swap1\n      jump(tag_19)\n    tag_50:\n      0x00\n      mload(0x40)\n      dup1\n      dup4\n      sub\n      dup2\n      0x00\n      dup8\n      dup1\n      extcodesize\n      iszero\n        /* \"--CODEGEN--\":5:14   */\n      dup1\n        /* \"--CODEGEN--\":2:4   */\n      iszero\n      tag_51\n      jumpi\n        /* \"--CODEGEN--\":27:28   */\n      0x00\n        /* \"--CODEGEN--\":24:25   */\n      dup1\n        /* \"--CODEGEN--\":17:29   */\n      revert\n        /* \"--CODEGEN--\":2:4   */\n    tag_51:\n        /* \"DISNEY/disney.sol\":2548:2585  token.increaseTotalSupply(_numTokens) */\n      pop\n      gas\n      call\n      iszero\n        /* \"--CODEGEN--\":8:17   */\n      dup1\n        /* \"--CODEGEN--\":5:7   */\n      iszero\n      tag_53\n      jumpi\n        /* \"--CODEGEN--\":45:61   */\n      returndatasize\n        /* \"--CODEGEN--\":42:43   */\n      0x00\n        /* \"--CODEGEN--\":39:40   */\n      dup1\n        /* \"--CODEGEN--\":24:62   */\n      returndatacopy\n        /* \"--CODEGEN--\":77:93   */\n      returndatasize\n        /* \"--CODEGEN--\":74:75   */\n      0x00\n        /* \"--CODEGEN--\":67:94   */\n      revert\n        /* \"--CODEGEN--\":5:7   */\n    tag_53:\n        /* \"DISNEY/disney.sol\":2548:2585  token.increaseTotalSupply(_numTokens) */\n      pop\n      pop\n      pop\n      pop\n        /* \"DISNEY/disney.sol\":2463:2592  function GeneraTokens(uint _numTokens) public Unicamente(msg.sender){... */\n      pop\n      pop\n      jump\t// out\n        /* \"DISNEY/disney.sol\":2148:2250  function balanceOf() public view returns (uint) {... */\n    tag_17:\n        /* \"DISNEY/disney.sol\":2190:2194  uint */\n      0x00\n        /* \"DISNEY/disney.sol\":2213:2218  token */\n      dup1\n      0x00\n      swap1\n      sload\n      swap1\n      0x0100\n      exp\n      swap1\n      div\n      0xffffffffffffffffffffffffffffffffffffffff\n      and\n        /* \"DISNEY/disney.sol\":2213:2228  token.balanceOf */\n      0xffffffffffffffffffffffffffffffffffffffff\n      and\n      0x70a08231\n        /* \"DISNEY/disney.sol\":2237:2241  this */\n      address\n        /* \"DISNEY/disney.sol\":2213:2243  token.balanceOf(address(this)) */\n      mload(0x40)\n      dup3\n      0xffffffff\n      and\n      0xe0\n      shl\n      dup2\n      mstore\n      0x04\n      add\n      tag_55\n      swap2\n      swap1\n      jump(tag_56)\n    tag_55:\n      0x20\n      mload(0x40)\n      dup1\n      dup4\n      sub\n      dup2\n      dup7\n      dup1\n      extcodesize\n      iszero\n        /* \"--CODEGEN--\":5:14   */\n      dup1\n        /* \"--CODEGEN--\":2:4   */\n      iszero\n      tag_57\n      jumpi\n        /* \"--CODEGEN--\":27:28   */\n      0x00\n        /* \"--CODEGEN--\":24:25   */\n      dup1\n        /* \"--CODEGEN--\":17:29   */\n      revert\n        /* \"--CODEGEN--\":2:4   */\n    tag_57:\n        /* \"DISNEY/disney.sol\":2213:2243  token.balanceOf(address(this)) */\n      pop\n      gas\n      staticcall\n      iszero\n        /* \"--CODEGEN--\":8:17   */\n      dup1\n        /* \"--CODEGEN--\":5:7   */\n      iszero\n      tag_59\n      jumpi\n        /* \"--CODEGEN--\":45:61   */\n      returndatasize\n        /* \"--CODEGEN--\":42:43   */\n      0x00\n        /* \"--CODEGEN--\":39:40   */\n      dup1\n        /* \"--CODEGEN--\":24:62   */\n      returndatacopy\n        /* \"--CODEGEN--\":77:93   */\n      returndatasize\n        /* \"--CODEGEN--\":74:75   */\n      0x00\n        /* \"--CODEGEN--\":67:94   */\n      revert\n        /* \"--CODEGEN--\":5:7   */\n    tag_59:\n        /* \"DISNEY/disney.sol\":2213:2243  token.balanceOf(address(this)) */\n      pop\n      pop\n      pop\n      pop\n      mload(0x40)\n      returndatasize\n        /* \"--CODEGEN--\":101:105   */\n      0x1f\n        /* \"--CODEGEN--\":97:106   */\n      not\n        /* \"--CODEGEN--\":90:94   */\n      0x1f\n        /* \"--CODEGEN--\":84:88   */\n      dup3\n        /* \"--CODEGEN--\":80:95   */\n      add\n        /* \"--CODEGEN--\":76:107   */\n      and\n        /* \"--CODEGEN--\":69:74   */\n      dup3\n        /* \"--CODEGEN--\":65:108   */\n      add\n        /* \"--CODEGEN--\":126:132   */\n      dup1\n        /* \"--CODEGEN--\":120:124   */\n      0x40\n        /* \"--CODEGEN--\":113:133   */\n      mstore\n        /* \"--CODEGEN--\":0:138   */\n      pop\n        /* \"DISNEY/disney.sol\":2213:2243  token.balanceOf(address(this)) */\n      dup2\n      add\n      swap1\n      tag_60\n      swap2\n      swap1\n      jump(tag_61)\n    tag_60:\n        /* \"DISNEY/disney.sol\":2206:2243  return token.balanceOf(address(this)) */\n      swap1\n      pop\n        /* \"DISNEY/disney.sol\":2148:2250  function balanceOf() public view returns (uint) {... */\n      swap1\n      jump\t// out\n        /* \"DISNEY/disney.sol\":311:339  address payable public owner */\n    tag_22:\n      0x01\n      0x00\n      swap1\n      sload\n      swap1\n      0x0100\n      exp\n      swap1\n      div\n      0xffffffffffffffffffffffffffffffffffffffff\n      and\n      dup2\n      jump\t// out\n        /* \"DISNEY/disney.sol\":784:828  mapping (address => cliente) public Clientes */\n    tag_29:\n      mstore(0x20, 0x02)\n      dup1\n      0x00\n      mstore\n      keccak256(0x00, 0x40)\n      0x00\n      swap2\n      pop\n      swap1\n      pop\n      dup1\n      0x00\n      add\n      sload\n      swap1\n      pop\n      dup2\n      jump\t// out\n        /* \"DISNEY/disney.sol\":3357:3412  mapping (string => atraccion) public MappingAtracciones */\n    tag_35:\n      0x03\n      dup2\n        /* \"--CODEGEN--\":28:35   */\n      dup1\n        /* \"--CODEGEN--\":22:36   */\n      mload\n        /* \"--CODEGEN--\":169:173   */\n      0x20\n        /* \"--CODEGEN--\":160:167   */\n      dup2\n        /* \"--CODEGEN--\":156:174   */\n      add\n        /* \"--CODEGEN--\":147:154   */\n      dup3\n        /* \"--CODEGEN--\":143:175   */\n      add\n        /* \"--CODEGEN--\":204:217   */\n      dup1\n        /* \"--CODEGEN--\":198:218   */\n      mload\n        /* \"--CODEGEN--\":246:254   */\n      dup5\n        /* \"--CODEGEN--\":231:244   */\n      dup3\n        /* \"--CODEGEN--\":224:255   */\n      mstore\n        /* \"--CODEGEN--\":316:320   */\n      0x20\n        /* \"--CODEGEN--\":307:314   */\n      dup4\n        /* \"--CODEGEN--\":303:321   */\n      add\n        /* \"--CODEGEN--\":296:300   */\n      0x20\n        /* \"--CODEGEN--\":287:294   */\n      dup6\n        /* \"--CODEGEN--\":283:301   */\n      add\n        /* \"--CODEGEN--\":273:322   */\n      keccak256\n        /* \"--CODEGEN--\":350:359   */\n      dup2\n        /* \"--CODEGEN--\":335:348   */\n      dup4\n        /* \"--CODEGEN--\":328:360   */\n      mstore\n        /* \"--CODEGEN--\":378:382   */\n      dup1\n        /* \"--CODEGEN--\":366:382   */\n      swap6\n      pop\n        /* \"--CODEGEN--\":0:388   */\n      pop\n      pop\n      pop\n      pop\n        /* \"DISNEY/disney.sol\":3357:3412  mapping (string => atraccion) public MappingAtracciones */\n      pop\n      0x00\n      swap2\n      pop\n      swap1\n      pop\n      dup1\n      0x00\n      add\n      dup1\n      sload\n      0x01\n      dup2\n      0x01\n      and\n      iszero\n      0x0100\n      mul\n      sub\n      and\n      0x02\n      swap1\n      div\n      dup1\n      0x1f\n      add\n      0x20\n      dup1\n      swap2\n      div\n      mul\n      0x20\n      add\n      mload(0x40)\n      swap1\n      dup2\n      add\n      0x40\n      mstore\n      dup1\n      swap3\n      swap2\n      swap1\n      dup2\n      dup2\n      mstore\n      0x20\n      add\n      dup3\n      dup1\n      sload\n      0x01\n      dup2\n      0x01\n      and\n      iszero\n      0x0100\n      mul\n      sub\n      and\n      0x02\n      swap1\n      div\n      dup1\n      iszero\n      tag_62\n      jumpi\n      dup1\n      0x1f\n      lt\n      tag_63\n      jumpi\n      0x0100\n      dup1\n      dup4\n      sload\n      div\n      mul\n      dup4\n      mstore\n      swap2\n      0x20\n      add\n      swap2\n      jump(tag_62)\n    tag_63:\n      dup3\n      add\n      swap2\n      swap1\n      0x00\n      mstore\n      keccak256(0x00, 0x20)\n      swap1\n    tag_64:\n      dup2\n      sload\n      dup2\n      mstore\n      swap1\n      0x01\n      add\n      swap1\n      0x20\n      add\n      dup1\n      dup4\n      gt\n      tag_64\n      jumpi\n      dup3\n      swap1\n      sub\n      0x1f\n      and\n      dup3\n      add\n      swap2\n    tag_62:\n      pop\n      pop\n      pop\n      pop\n      pop\n      swap1\n      dup1\n      0x01\n      add\n      sload\n      swap1\n      dup1\n      0x02\n      add\n      0x00\n      swap1\n      sload\n      swap1\n      0x0100\n      exp\n      swap1\n      div\n      0xff\n      and\n      swap1\n      pop\n      dup4\n      jump\t// out\n        /* \"DISNEY/disney.sol\":2318:2417  function MisTokens() public view returns (uint) {... */\n    tag_40:\n        /* \"DISNEY/disney.sol\":2360:2364  uint */\n      0x00\n        /* \"DISNEY/disney.sol\":2383:2388  token */\n      dup1\n      0x00\n      swap1\n      sload\n      swap1\n      0x0100\n      exp\n      swap1\n      div\n      0xffffffffffffffffffffffffffffffffffffffff\n      and\n        /* \"DISNEY/disney.sol\":2383:2398  token.balanceOf */\n      0xffffffffffffffffffffffffffffffffffffffff\n      and\n      0x70a08231\n        /* \"DISNEY/disney.sol\":2399:2409  msg.sender */\n      caller\n        /* \"DISNEY/disney.sol\":2383:2410  token.balanceOf(msg.sender) */\n      mload(0x40)\n      dup3\n      0xffffffff\n      and\n      0xe0\n      shl\n      dup2\n      mstore\n      0x04\n      add\n      tag_66\n      swap2\n      swap1\n      jump(tag_67)\n    tag_66:\n      0x20\n      mload(0x40)\n      dup1\n      dup4\n      sub\n      dup2\n      dup7\n      dup1\n      extcodesize\n      iszero\n        /* \"--CODEGEN--\":5:14   */\n      dup1\n        /* \"--CODEGEN--\":2:4   */\n      iszero\n      tag_68\n      jumpi\n        /* \"--CODEGEN--\":27:28   */\n      0x00\n        /* \"--CODEGEN--\":24:25   */\n      dup1\n        /* \"--CODEGEN--\":17:29   */\n      revert\n        /* \"--CODEGEN--\":2:4   */\n    tag_68:\n        /* \"DISNEY/disney.sol\":2383:2410  token.balanceOf(msg.sender) */\n      pop\n      gas\n      staticcall\n      iszero\n        /* \"--CODEGEN--\":8:17   */\n      dup1\n        /* \"--CODEGEN--\":5:7   */\n      iszero\n      tag_70\n      jumpi\n        /* \"--CODEGEN--\":45:61   */\n      returndatasize\n        /* \"--CODEGEN--\":42:43   */\n      0x00\n        /* \"--CODEGEN--\":39:40   */\n      dup1\n        /* \"--CODEGEN--\":24:62   */\n      returndatacopy\n        /* \"--CODEGEN--\":77:93   */\n      returndatasize\n        /* \"--CODEGEN--\":74:75   */\n      0x00\n        /* \"--CODEGEN--\":67:94   */\n      revert\n        /* \"--CODEGEN--\":5:7   */\n    tag_70:\n        /* \"DISNEY/disney.sol\":2383:2410  token.balanceOf(msg.sender) */\n      pop\n      pop\n      pop\n      pop\n      mload(0x40)\n      returndatasize\n        /* \"--CODEGEN--\":101:105   */\n      0x1f\n        /* \"--CODEGEN--\":97:106   */\n      not\n        /* \"--CODEGEN--\":90:94   */\n      0x1f\n        /* \"--CODEGEN--\":84:88   */\n      dup3\n        /* \"--CODEGEN--\":80:95   */\n      add\n        /* \"--CODEGEN--\":76:107   */\n      and\n        /* \"--CODEGEN--\":69:74   */\n      dup3\n        /* \"--CODEGEN--\":65:108   */\n      add\n        /* \"--CODEGEN--\":126:132   */\n      dup1\n        /* \"--CODEGEN--\":120:124   */\n      0x40\n        /* \"--CODEGEN--\":113:133   */\n      mstore\n        /* \"--CODEGEN--\":0:138   */\n      pop\n        /* \"DISNEY/disney.sol\":2383:2410  token.balanceOf(msg.sender) */\n      dup2\n      add\n      swap1\n      tag_71\n      swap2\n      swap1\n      jump(tag_61)\n    tag_71:\n        /* \"DISNEY/disney.sol\":2376:2410  return token.balanceOf(msg.sender) */\n      swap1\n      pop\n        /* \"DISNEY/disney.sol\":2318:2417  function MisTokens() public view returns (uint) {... */\n      swap1\n      jump\t// out\n        /* \"DISNEY/disney.sol\":1214:2097  function CompraTokens(uint _numTokens) public payable {... */\n    tag_44:\n        /* \"DISNEY/disney.sol\":1324:1334  uint coste */\n      0x00\n        /* \"DISNEY/disney.sol\":1337:1361  PrecioTokens(_numTokens) */\n      tag_73\n        /* \"DISNEY/disney.sol\":1350:1360  _numTokens */\n      dup3\n        /* \"DISNEY/disney.sol\":1337:1349  PrecioTokens */\n      tag_74\n        /* \"DISNEY/disney.sol\":1337:1361  PrecioTokens(_numTokens) */\n      jump\t// in\n    tag_73:\n        /* \"DISNEY/disney.sol\":1324:1361  uint coste = PrecioTokens(_numTokens) */\n      swap1\n      pop\n        /* \"DISNEY/disney.sol\":1464:1469  coste */\n      dup1\n        /* \"DISNEY/disney.sol\":1451:1460  msg.value */\n      callvalue\n        /* \"DISNEY/disney.sol\":1451:1469  msg.value >= coste */\n      lt\n      iszero\n        /* \"DISNEY/disney.sol\":1442:1516  require (msg.value >= coste, \"Compra menos Tokens o paga con mas ethers.\") */\n      tag_75\n      jumpi\n      mload(0x40)\n      0x08c379a000000000000000000000000000000000000000000000000000000000\n      dup2\n      mstore\n      0x04\n      add\n      tag_76\n      swap1\n      jump(tag_77)\n    tag_76:\n      mload(0x40)\n      dup1\n      swap2\n      sub\n      swap1\n      revert\n    tag_75:\n        /* \"DISNEY/disney.sol\":1583:1599  uint returnValue */\n      0x00\n        /* \"DISNEY/disney.sol\":1614:1619  coste */\n      dup2\n        /* \"DISNEY/disney.sol\":1602:1611  msg.value */\n      callvalue\n        /* \"DISNEY/disney.sol\":1602:1619  msg.value - coste */\n      sub\n        /* \"DISNEY/disney.sol\":1583:1619  uint returnValue = msg.value - coste */\n      swap1\n      pop\n        /* \"DISNEY/disney.sol\":1688:1698  msg.sender */\n      caller\n        /* \"DISNEY/disney.sol\":1688:1707  msg.sender.transfer */\n      0xffffffffffffffffffffffffffffffffffffffff\n      and\n        /* \"DISNEY/disney.sol\":1688:1720  msg.sender.transfer(returnValue) */\n      0x08fc\n        /* \"DISNEY/disney.sol\":1708:1719  returnValue */\n      dup3\n        /* \"DISNEY/disney.sol\":1688:1720  msg.sender.transfer(returnValue) */\n      swap1\n      dup2\n      iszero\n      mul\n      swap1\n      mload(0x40)\n      0x00\n      mload(0x40)\n      dup1\n      dup4\n      sub\n      dup2\n      dup6\n      dup9\n      dup9\n      call\n      swap4\n      pop\n      pop\n      pop\n      pop\n      iszero\n        /* \"--CODEGEN--\":8:17   */\n      dup1\n        /* \"--CODEGEN--\":5:7   */\n      iszero\n      tag_79\n      jumpi\n        /* \"--CODEGEN--\":45:61   */\n      returndatasize\n        /* \"--CODEGEN--\":42:43   */\n      0x00\n        /* \"--CODEGEN--\":39:40   */\n      dup1\n        /* \"--CODEGEN--\":24:62   */\n      returndatacopy\n        /* \"--CODEGEN--\":77:93   */\n      returndatasize\n        /* \"--CODEGEN--\":74:75   */\n      0x00\n        /* \"--CODEGEN--\":67:94   */\n      revert\n        /* \"--CODEGEN--\":5:7   */\n    tag_79:\n        /* \"DISNEY/disney.sol\":1688:1720  msg.sender.transfer(returnValue) */\n      pop\n        /* \"DISNEY/disney.sol\":1784:1796  uint Balance */\n      0x00\n        /* \"DISNEY/disney.sol\":1799:1810  balanceOf() */\n      tag_80\n        /* \"DISNEY/disney.sol\":1799:1808  balanceOf */\n      tag_17\n        /* \"DISNEY/disney.sol\":1799:1810  balanceOf() */\n      jump\t// in\n    tag_80:\n        /* \"DISNEY/disney.sol\":1784:1810  uint Balance = balanceOf() */\n      swap1\n      pop\n        /* \"DISNEY/disney.sol\":1842:1849  Balance */\n      dup1\n        /* \"DISNEY/disney.sol\":1828:1838  _numTokens */\n      dup5\n        /* \"DISNEY/disney.sol\":1828:1849  _numTokens <= Balance */\n      gt\n      iszero\n        /* \"DISNEY/disney.sol\":1820:1886  require(_numTokens <= Balance, \"Compra un numero menor de Tokens\") */\n      tag_81\n      jumpi\n      mload(0x40)\n      0x08c379a000000000000000000000000000000000000000000000000000000000\n      dup2\n      mstore\n      0x04\n      add\n      tag_82\n      swap1\n      jump(tag_83)\n    tag_82:\n      mload(0x40)\n      dup1\n      swap2\n      sub\n      swap1\n      revert\n    tag_81:\n        /* \"DISNEY/disney.sol\":1951:1956  token */\n      0x00\n      dup1\n      swap1\n      sload\n      swap1\n      0x0100\n      exp\n      swap1\n      div\n      0xffffffffffffffffffffffffffffffffffffffff\n      and\n        /* \"DISNEY/disney.sol\":1951:1965  token.transfer */\n      0xffffffffffffffffffffffffffffffffffffffff\n      and\n      0xa9059cbb\n        /* \"DISNEY/disney.sol\":1966:1976  msg.sender */\n      caller\n        /* \"DISNEY/disney.sol\":1978:1988  _numTokens */\n      dup7\n        /* \"DISNEY/disney.sol\":1951:1989  token.transfer(msg.sender, _numTokens) */\n      mload(0x40)\n      dup4\n      0xffffffff\n      and\n      0xe0\n      shl\n      dup2\n      mstore\n      0x04\n      add\n      tag_84\n      swap3\n      swap2\n      swap1\n      jump(tag_85)\n    tag_84:\n      0x20\n      mload(0x40)\n      dup1\n      dup4\n      sub\n      dup2\n      0x00\n      dup8\n      dup1\n      extcodesize\n      iszero\n        /* \"--CODEGEN--\":5:14   */\n      dup1\n        /* \"--CODEGEN--\":2:4   */\n      iszero\n      tag_86\n      jumpi\n        /* \"--CODEGEN--\":27:28   */\n      0x00\n        /* \"--CODEGEN--\":24:25   */\n      dup1\n        /* \"--CODEGEN--\":17:29   */\n      revert\n        /* \"--CODEGEN--\":2:4   */\n    tag_86:\n        /* \"DISNEY/disney.sol\":1951:1989  token.transfer(msg.sender, _numTokens) */\n      pop\n      gas\n      call\n      iszero\n        /* \"--CODEGEN--\":8:17   */\n      dup1\n        /* \"--CODEGEN--\":5:7   */\n      iszero\n      tag_88\n      jumpi\n        /* \"--CODEGEN--\":45:61   */\n      returndatasize\n        /* \"--CODEGEN--\":42:43   */\n      0x00\n        /* \"--CODEGEN--\":39:40   */\n      dup1\n        /* \"--CODEGEN--\":24:62   */\n      returndatacopy\n        /* \"--CODEGEN--\":77:93   */\n      returndatasize\n        /* \"--CODEGEN--\":74:75   */\n      0x00\n        /* \"--CODEGEN--\":67:94   */\n      revert\n        /* \"--CODEGEN--\":5:7   */\n    tag_88:\n        /* \"DISNEY/disney.sol\":1951:1989  token.transfer(msg.sender, _numTokens) */\n      pop\n      pop\n      pop\n      pop\n      mload(0x40)\n      returndatasize\n        /* \"--CODEGEN--\":101:105   */\n      0x1f\n        /* \"--CODEGEN--\":97:106   */\n      not\n        /* \"--CODEGEN--\":90:94   */\n      0x1f\n        /* \"--CODEGEN--\":84:88   */\n      dup3\n        /* \"--CODEGEN--\":80:95   */\n      add\n        /* \"--CODEGEN--\":76:107   */\n      and\n        /* \"--CODEGEN--\":69:74   */\n      dup3\n        /* \"--CODEGEN--\":65:108   */\n      add\n        /* \"--CODEGEN--\":126:132   */\n      dup1\n        /* \"--CODEGEN--\":120:124   */\n      0x40\n        /* \"--CODEGEN--\":113:133   */\n      mstore\n        /* \"--CODEGEN--\":0:138   */\n      pop\n        /* \"DISNEY/disney.sol\":1951:1989  token.transfer(msg.sender, _numTokens) */\n      dup2\n      add\n      swap1\n      tag_89\n      swap2\n      swap1\n      jump(tag_90)\n    tag_89:\n      pop\n        /* \"DISNEY/disney.sol\":2080:2090  _numTokens */\n      dup4\n        /* \"DISNEY/disney.sol\":2039:2047  Clientes */\n      0x02\n        /* \"DISNEY/disney.sol\":2039:2059  Clientes[msg.sender] */\n      0x00\n        /* \"DISNEY/disney.sol\":2048:2058  msg.sender */\n      caller\n        /* \"DISNEY/disney.sol\":2039:2059  Clientes[msg.sender] */\n      0xffffffffffffffffffffffffffffffffffffffff\n      and\n      0xffffffffffffffffffffffffffffffffffffffff\n      and\n      dup2\n      mstore\n      0x20\n      add\n      swap1\n      dup2\n      mstore\n      0x20\n      add\n      0x00\n      keccak256\n        /* \"DISNEY/disney.sol\":2039:2076  Clientes[msg.sender].tokens_comprados */\n      0x00\n      add\n      0x00\n        /* \"DISNEY/disney.sol\":2039:2090  Clientes[msg.sender].tokens_comprados += _numTokens */\n      dup3\n      dup3\n      sload\n      add\n      swap3\n      pop\n      pop\n      dup2\n      swap1\n      sstore\n      pop\n        /* \"DISNEY/disney.sol\":1214:2097  function CompraTokens(uint _numTokens) public payable {... */\n      pop\n      pop\n      pop\n      pop\n      jump\t// out\n        /* \"DISNEY/disney.sol\":979:1155  function PrecioTokens(uint _numTokens) internal pure returns (uint) {... */\n    tag_74:\n        /* \"DISNEY/disney.sol\":1041:1045  uint */\n      0x00\n        /* \"DISNEY/disney.sol\":1138:1147  0.1 ether */\n      0x016345785d8a0000\n        /* \"DISNEY/disney.sol\":1126:1136  _numTokens */\n      dup3\n        /* \"DISNEY/disney.sol\":1126:1148  _numTokens*(0.1 ether) */\n      mul\n        /* \"DISNEY/disney.sol\":1119:1148  return _numTokens*(0.1 ether) */\n      swap1\n      pop\n        /* \"DISNEY/disney.sol\":979:1155  function PrecioTokens(uint _numTokens) internal pure returns (uint) {... */\n      swap2\n      swap1\n      pop\n      jump\t// out\n        /* \"--CODEGEN--\":5:135   */\n    tag_93:\n      0x00\n        /* \"--CODEGEN--\":85:91   */\n      dup2\n        /* \"--CODEGEN--\":72:92   */\n      calldataload\n        /* \"--CODEGEN--\":63:92   */\n      swap1\n      pop\n        /* \"--CODEGEN--\":97:130   */\n      tag_95\n        /* \"--CODEGEN--\":124:129   */\n      dup2\n        /* \"--CODEGEN--\":97:130   */\n      jump(tag_96)\n    tag_95:\n        /* \"--CODEGEN--\":57:135   */\n      swap3\n      swap2\n      pop\n      pop\n      jump\n        /* \"--CODEGEN--\":142:270   */\n    tag_97:\n      0x00\n        /* \"--CODEGEN--\":223:229   */\n      dup2\n        /* \"--CODEGEN--\":217:230   */\n      mload\n        /* \"--CODEGEN--\":208:230   */\n      swap1\n      pop\n        /* \"--CODEGEN--\":235:265   */\n      tag_99\n        /* \"--CODEGEN--\":259:264   */\n      dup2\n        /* \"--CODEGEN--\":235:265   */\n      jump(tag_100)\n    tag_99:\n        /* \"--CODEGEN--\":202:270   */\n      swap3\n      swap2\n      pop\n      pop\n      jump\n        /* \"--CODEGEN--\":278:720   */\n    tag_101:\n      0x00\n        /* \"--CODEGEN--\":380:383   */\n      dup3\n        /* \"--CODEGEN--\":373:377   */\n      0x1f\n        /* \"--CODEGEN--\":365:371   */\n      dup4\n        /* \"--CODEGEN--\":361:378   */\n      add\n        /* \"--CODEGEN--\":357:384   */\n      slt\n        /* \"--CODEGEN--\":347:349   */\n      tag_103\n      jumpi\n        /* \"--CODEGEN--\":398:399   */\n      0x00\n        /* \"--CODEGEN--\":395:396   */\n      dup1\n        /* \"--CODEGEN--\":388:400   */\n      revert\n        /* \"--CODEGEN--\":347:349   */\n    tag_103:\n        /* \"--CODEGEN--\":435:441   */\n      dup2\n        /* \"--CODEGEN--\":422:442   */\n      calldataload\n        /* \"--CODEGEN--\":457:522   */\n      tag_104\n        /* \"--CODEGEN--\":472:521   */\n      tag_105\n        /* \"--CODEGEN--\":514:520   */\n      dup3\n        /* \"--CODEGEN--\":472:521   */\n      jump(tag_106)\n    tag_105:\n        /* \"--CODEGEN--\":457:522   */\n      jump(tag_107)\n    tag_104:\n        /* \"--CODEGEN--\":448:522   */\n      swap2\n      pop\n        /* \"--CODEGEN--\":542:548   */\n      dup1\n        /* \"--CODEGEN--\":535:540   */\n      dup3\n        /* \"--CODEGEN--\":528:549   */\n      mstore\n        /* \"--CODEGEN--\":578:582   */\n      0x20\n        /* \"--CODEGEN--\":570:576   */\n      dup4\n        /* \"--CODEGEN--\":566:583   */\n      add\n        /* \"--CODEGEN--\":611:615   */\n      0x20\n        /* \"--CODEGEN--\":604:609   */\n      dup4\n        /* \"--CODEGEN--\":600:616   */\n      add\n        /* \"--CODEGEN--\":646:649   */\n      dup6\n        /* \"--CODEGEN--\":637:643   */\n      dup4\n        /* \"--CODEGEN--\":632:635   */\n      dup4\n        /* \"--CODEGEN--\":628:644   */\n      add\n        /* \"--CODEGEN--\":625:650   */\n      gt\n        /* \"--CODEGEN--\":622:624   */\n      iszero\n      tag_108\n      jumpi\n        /* \"--CODEGEN--\":663:664   */\n      0x00\n        /* \"--CODEGEN--\":660:661   */\n      dup1\n        /* \"--CODEGEN--\":653:665   */\n      revert\n        /* \"--CODEGEN--\":622:624   */\n    tag_108:\n        /* \"--CODEGEN--\":673:714   */\n      tag_109\n        /* \"--CODEGEN--\":707:713   */\n      dup4\n        /* \"--CODEGEN--\":702:705   */\n      dup3\n        /* \"--CODEGEN--\":697:700   */\n      dup5\n        /* \"--CODEGEN--\":673:714   */\n      jump(tag_110)\n    tag_109:\n        /* \"--CODEGEN--\":340:720   */\n      pop\n      pop\n      pop\n      swap3\n      swap2\n      pop\n      pop\n      jump\n        /* \"--CODEGEN--\":728:858   */\n    tag_111:\n      0x00\n        /* \"--CODEGEN--\":808:814   */\n      dup2\n        /* \"--CODEGEN--\":795:815   */\n      calldataload\n        /* \"--CODEGEN--\":786:815   */\n      swap1\n      pop\n        /* \"--CODEGEN--\":820:853   */\n      tag_113\n        /* \"--CODEGEN--\":847:852   */\n      dup2\n        /* \"--CODEGEN--\":820:853   */\n      jump(tag_114)\n    tag_113:\n        /* \"--CODEGEN--\":780:858   */\n      swap3\n      swap2\n      pop\n      pop\n      jump\n        /* \"--CODEGEN--\":865:999   */\n    tag_115:\n      0x00\n        /* \"--CODEGEN--\":949:955   */\n      dup2\n        /* \"--CODEGEN--\":943:956   */\n      mload\n        /* \"--CODEGEN--\":934:956   */\n      swap1\n      pop\n        /* \"--CODEGEN--\":961:994   */\n      tag_117\n        /* \"--CODEGEN--\":988:993   */\n      dup2\n        /* \"--CODEGEN--\":961:994   */\n      jump(tag_114)\n    tag_117:\n        /* \"--CODEGEN--\":928:999   */\n      swap3\n      swap2\n      pop\n      pop\n      jump\n        /* \"--CODEGEN--\":1006:1247   */\n    tag_28:\n      0x00\n        /* \"--CODEGEN--\":1110:1112   */\n      0x20\n        /* \"--CODEGEN--\":1098:1107   */\n      dup3\n        /* \"--CODEGEN--\":1089:1096   */\n      dup5\n        /* \"--CODEGEN--\":1085:1108   */\n      sub\n        /* \"--CODEGEN--\":1081:1113   */\n      slt\n        /* \"--CODEGEN--\":1078:1080   */\n      iszero\n      tag_119\n      jumpi\n        /* \"--CODEGEN--\":1126:1127   */\n      0x00\n        /* \"--CODEGEN--\":1123:1124   */\n      dup1\n        /* \"--CODEGEN--\":1116:1128   */\n      revert\n        /* \"--CODEGEN--\":1078:1080   */\n    tag_119:\n        /* \"--CODEGEN--\":1161:1162   */\n      0x00\n        /* \"--CODEGEN--\":1178:1231   */\n      tag_120\n        /* \"--CODEGEN--\":1223:1230   */\n      dup5\n        /* \"--CODEGEN--\":1214:1220   */\n      dup3\n        /* \"--CODEGEN--\":1203:1212   */\n      dup6\n        /* \"--CODEGEN--\":1199:1221   */\n      add\n        /* \"--CODEGEN--\":1178:1231   */\n      jump(tag_93)\n    tag_120:\n        /* \"--CODEGEN--\":1168:1231   */\n      swap2\n      pop\n        /* \"--CODEGEN--\":1140:1237   */\n      pop\n        /* \"--CODEGEN--\":1072:1247   */\n      swap3\n      swap2\n      pop\n      pop\n      jump\n        /* \"--CODEGEN--\":1254:1511   */\n    tag_90:\n      0x00\n        /* \"--CODEGEN--\":1366:1368   */\n      0x20\n        /* \"--CODEGEN--\":1354:1363   */\n      dup3\n        /* \"--CODEGEN--\":1345:1352   */\n      dup5\n        /* \"--CODEGEN--\":1341:1364   */\n      sub\n        /* \"--CODEGEN--\":1337:1369   */\n      slt\n        /* \"--CODEGEN--\":1334:1336   */\n      iszero\n      tag_122\n      jumpi\n        /* \"--CODEGEN--\":1382:1383   */\n      0x00\n        /* \"--CODEGEN--\":1379:1380   */\n      dup1\n        /* \"--CODEGEN--\":1372:1384   */\n      revert\n        /* \"--CODEGEN--\":1334:1336   */\n    tag_122:\n        /* \"--CODEGEN--\":1417:1418   */\n      0x00\n        /* \"--CODEGEN--\":1434:1495   */\n      tag_123\n        /* \"--CODEGEN--\":1487:1494   */\n      dup5\n        /* \"--CODEGEN--\":1478:1484   */\n      dup3\n        /* \"--CODEGEN--\":1467:1476   */\n      dup6\n        /* \"--CODEGEN--\":1463:1485   */\n      add\n        /* \"--CODEGEN--\":1434:1495   */\n      jump(tag_97)\n    tag_123:\n        /* \"--CODEGEN--\":1424:1495   */\n      swap2\n      pop\n        /* \"--CODEGEN--\":1396:1501   */\n      pop\n        /* \"--CODEGEN--\":1328:1511   */\n      swap3\n      swap2\n      pop\n      pop\n      jump\n        /* \"--CODEGEN--\":1518:1865   */\n    tag_34:\n      0x00\n        /* \"--CODEGEN--\":1632:1634   */\n      0x20\n        /* \"--CODEGEN--\":1620:1629   */\n      dup3\n        /* \"--CODEGEN--\":1611:1618   */\n      dup5\n        /* \"--CODEGEN--\":1607:1630   */\n      sub\n        /* \"--CODEGEN--\":1603:1635   */\n      slt\n        /* \"--CODEGEN--\":1600:1602   */\n      iszero\n      tag_125\n      jumpi\n        /* \"--CODEGEN--\":1648:1649   */\n      0x00\n        /* \"--CODEGEN--\":1645:1646   */\n      dup1\n        /* \"--CODEGEN--\":1638:1650   */\n      revert\n        /* \"--CODEGEN--\":1600:1602   */\n    tag_125:\n        /* \"--CODEGEN--\":1711:1712   */\n      0x00\n        /* \"--CODEGEN--\":1700:1709   */\n      dup3\n        /* \"--CODEGEN--\":1696:1713   */\n      add\n        /* \"--CODEGEN--\":1683:1714   */\n      calldataload\n        /* \"--CODEGEN--\":1734:1752   */\n      0xffffffffffffffff\n        /* \"--CODEGEN--\":1726:1732   */\n      dup2\n        /* \"--CODEGEN--\":1723:1753   */\n      gt\n        /* \"--CODEGEN--\":1720:1722   */\n      iszero\n      tag_126\n      jumpi\n        /* \"--CODEGEN--\":1766:1767   */\n      0x00\n        /* \"--CODEGEN--\":1763:1764   */\n      dup1\n        /* \"--CODEGEN--\":1756:1768   */\n      revert\n        /* \"--CODEGEN--\":1720:1722   */\n    tag_126:\n        /* \"--CODEGEN--\":1786:1849   */\n      tag_127\n        /* \"--CODEGEN--\":1841:1848   */\n      dup5\n        /* \"--CODEGEN--\":1832:1838   */\n      dup3\n        /* \"--CODEGEN--\":1821:1830   */\n      dup6\n        /* \"--CODEGEN--\":1817:1839   */\n      add\n        /* \"--CODEGEN--\":1786:1849   */\n      jump(tag_101)\n    tag_127:\n        /* \"--CODEGEN--\":1776:1849   */\n      swap2\n      pop\n        /* \"--CODEGEN--\":1662:1855   */\n      pop\n        /* \"--CODEGEN--\":1594:1865   */\n      swap3\n      swap2\n      pop\n      pop\n      jump\n        /* \"--CODEGEN--\":1872:2113   */\n    tag_13:\n      0x00\n        /* \"--CODEGEN--\":1976:1978   */\n      0x20\n        /* \"--CODEGEN--\":1964:1973   */\n      dup3\n        /* \"--CODEGEN--\":1955:1962   */\n      dup5\n        /* \"--CODEGEN--\":1951:1974   */\n      sub\n        /* \"--CODEGEN--\":1947:1979   */\n      slt\n        /* \"--CODEGEN--\":1944:1946   */\n      iszero\n      tag_129\n      jumpi\n        /* \"--CODEGEN--\":1992:1993   */\n      0x00\n        /* \"--CODEGEN--\":1989:1990   */\n      dup1\n        /* \"--CODEGEN--\":1982:1994   */\n      revert\n        /* \"--CODEGEN--\":1944:1946   */\n    tag_129:\n        /* \"--CODEGEN--\":2027:2028   */\n      0x00\n        /* \"--CODEGEN--\":2044:2097   */\n      tag_130\n        /* \"--CODEGEN--\":2089:2096   */\n      dup5\n        /* \"--CODEGEN--\":2080:2086   */\n      dup3\n        /* \"--CODEGEN--\":2069:2078   */\n      dup6\n        /* \"--CODEGEN--\":2065:2087   */\n      add\n        /* \"--CODEGEN--\":2044:2097   */\n      jump(tag_111)\n    tag_130:\n        /* \"--CODEGEN--\":2034:2097   */\n      swap2\n      pop\n        /* \"--CODEGEN--\":2006:2103   */\n      pop\n        /* \"--CODEGEN--\":1938:2113   */\n      swap3\n      swap2\n      pop\n      pop\n      jump\n        /* \"--CODEGEN--\":2120:2383   */\n    tag_61:\n      0x00\n        /* \"--CODEGEN--\":2235:2237   */\n      0x20\n        /* \"--CODEGEN--\":2223:2232   */\n      dup3\n        /* \"--CODEGEN--\":2214:2221   */\n      dup5\n        /* \"--CODEGEN--\":2210:2233   */\n      sub\n        /* \"--CODEGEN--\":2206:2238   */\n      slt\n        /* \"--CODEGEN--\":2203:2205   */\n      iszero\n      tag_132\n      jumpi\n        /* \"--CODEGEN--\":2251:2252   */\n      0x00\n        /* \"--CODEGEN--\":2248:2249   */\n      dup1\n        /* \"--CODEGEN--\":2241:2253   */\n      revert\n        /* \"--CODEGEN--\":2203:2205   */\n    tag_132:\n        /* \"--CODEGEN--\":2286:2287   */\n      0x00\n        /* \"--CODEGEN--\":2303:2367   */\n      tag_133\n        /* \"--CODEGEN--\":2359:2366   */\n      dup5\n        /* \"--CODEGEN--\":2350:2356   */\n      dup3\n        /* \"--CODEGEN--\":2339:2348   */\n      dup6\n        /* \"--CODEGEN--\":2335:2357   */\n      add\n        /* \"--CODEGEN--\":2303:2367   */\n      jump(tag_115)\n    tag_133:\n        /* \"--CODEGEN--\":2293:2367   */\n      swap2\n      pop\n        /* \"--CODEGEN--\":2265:2373   */\n      pop\n        /* \"--CODEGEN--\":2197:2383   */\n      swap3\n      swap2\n      pop\n      pop\n      jump\n        /* \"--CODEGEN--\":2390:2532   */\n    tag_134:\n        /* \"--CODEGEN--\":2481:2526   */\n      tag_136\n        /* \"--CODEGEN--\":2520:2525   */\n      dup2\n        /* \"--CODEGEN--\":2481:2526   */\n      jump(tag_137)\n    tag_136:\n        /* \"--CODEGEN--\":2476:2479   */\n      dup3\n        /* \"--CODEGEN--\":2469:2527   */\n      mstore\n        /* \"--CODEGEN--\":2463:2532   */\n      pop\n      pop\n      jump\n        /* \"--CODEGEN--\":2539:2676   */\n    tag_138:\n        /* \"--CODEGEN--\":2638:2670   */\n      tag_140\n        /* \"--CODEGEN--\":2664:2669   */\n      dup2\n        /* \"--CODEGEN--\":2638:2670   */\n      jump(tag_141)\n    tag_140:\n        /* \"--CODEGEN--\":2633:2636   */\n      dup3\n        /* \"--CODEGEN--\":2626:2671   */\n      mstore\n        /* \"--CODEGEN--\":2620:2676   */\n      pop\n      pop\n      jump\n        /* \"--CODEGEN--\":2683:2796   */\n    tag_142:\n        /* \"--CODEGEN--\":2766:2790   */\n      tag_144\n        /* \"--CODEGEN--\":2784:2789   */\n      dup2\n        /* \"--CODEGEN--\":2766:2790   */\n      jump(tag_145)\n    tag_144:\n        /* \"--CODEGEN--\":2761:2764   */\n      dup3\n        /* \"--CODEGEN--\":2754:2791   */\n      mstore\n        /* \"--CODEGEN--\":2748:2796   */\n      pop\n      pop\n      jump\n        /* \"--CODEGEN--\":2803:2907   */\n    tag_146:\n        /* \"--CODEGEN--\":2880:2901   */\n      tag_148\n        /* \"--CODEGEN--\":2895:2900   */\n      dup2\n        /* \"--CODEGEN--\":2880:2901   */\n      jump(tag_149)\n    tag_148:\n        /* \"--CODEGEN--\":2875:2878   */\n      dup3\n        /* \"--CODEGEN--\":2868:2902   */\n      mstore\n        /* \"--CODEGEN--\":2862:2907   */\n      pop\n      pop\n      jump\n        /* \"--CODEGEN--\":2914:3261   */\n    tag_150:\n      0x00\n        /* \"--CODEGEN--\":3026:3065   */\n      tag_152\n        /* \"--CODEGEN--\":3059:3064   */\n      dup3\n        /* \"--CODEGEN--\":3026:3065   */\n      jump(tag_153)\n    tag_152:\n        /* \"--CODEGEN--\":3077:3148   */\n      tag_154\n        /* \"--CODEGEN--\":3141:3147   */\n      dup2\n        /* \"--CODEGEN--\":3136:3139   */\n      dup6\n        /* \"--CODEGEN--\":3077:3148   */\n      jump(tag_155)\n    tag_154:\n        /* \"--CODEGEN--\":3070:3148   */\n      swap4\n      pop\n        /* \"--CODEGEN--\":3153:3205   */\n      tag_156\n        /* \"--CODEGEN--\":3198:3204   */\n      dup2\n        /* \"--CODEGEN--\":3193:3196   */\n      dup6\n        /* \"--CODEGEN--\":3186:3190   */\n      0x20\n        /* \"--CODEGEN--\":3179:3184   */\n      dup7\n        /* \"--CODEGEN--\":3175:3191   */\n      add\n        /* \"--CODEGEN--\":3153:3205   */\n      jump(tag_157)\n    tag_156:\n        /* \"--CODEGEN--\":3226:3255   */\n      tag_158\n        /* \"--CODEGEN--\":3248:3254   */\n      dup2\n        /* \"--CODEGEN--\":3226:3255   */\n      jump(tag_159)\n    tag_158:\n        /* \"--CODEGEN--\":3221:3224   */\n      dup5\n        /* \"--CODEGEN--\":3217:3256   */\n      add\n        /* \"--CODEGEN--\":3210:3256   */\n      swap2\n      pop\n        /* \"--CODEGEN--\":3006:3261   */\n      pop\n      swap3\n      swap2\n      pop\n      pop\n      jump\n        /* \"--CODEGEN--\":3269:3652   */\n    tag_160:\n      0x00\n        /* \"--CODEGEN--\":3429:3496   */\n      tag_162\n        /* \"--CODEGEN--\":3493:3495   */\n      0x2e\n        /* \"--CODEGEN--\":3488:3491   */\n      dup4\n        /* \"--CODEGEN--\":3429:3496   */\n      jump(tag_155)\n    tag_162:\n        /* \"--CODEGEN--\":3422:3496   */\n      swap2\n      pop\n        /* \"--CODEGEN--\":3529:3563   */\n      0x4e6f207469656e6573207065726d69736f73207061726120656a656375746172\n        /* \"--CODEGEN--\":3525:3526   */\n      0x00\n        /* \"--CODEGEN--\":3520:3523   */\n      dup4\n        /* \"--CODEGEN--\":3516:3527   */\n      add\n        /* \"--CODEGEN--\":3509:3564   */\n      mstore\n        /* \"--CODEGEN--\":3598:3614   */\n      0x20657374612066756e63696f6e2e000000000000000000000000000000000000\n        /* \"--CODEGEN--\":3593:3595   */\n      0x20\n        /* \"--CODEGEN--\":3588:3591   */\n      dup4\n        /* \"--CODEGEN--\":3584:3596   */\n      add\n        /* \"--CODEGEN--\":3577:3615   */\n      mstore\n        /* \"--CODEGEN--\":3643:3645   */\n      0x40\n        /* \"--CODEGEN--\":3638:3641   */\n      dup3\n        /* \"--CODEGEN--\":3634:3646   */\n      add\n        /* \"--CODEGEN--\":3627:3646   */\n      swap1\n      pop\n        /* \"--CODEGEN--\":3415:3652   */\n      swap2\n      swap1\n      pop\n      jump\n        /* \"--CODEGEN--\":3661:4040   */\n    tag_163:\n      0x00\n        /* \"--CODEGEN--\":3821:3888   */\n      tag_165\n        /* \"--CODEGEN--\":3885:3887   */\n      0x2a\n        /* \"--CODEGEN--\":3880:3883   */\n      dup4\n        /* \"--CODEGEN--\":3821:3888   */\n      jump(tag_155)\n    tag_165:\n        /* \"--CODEGEN--\":3814:3888   */\n      swap2\n      pop\n        /* \"--CODEGEN--\":3921:3955   */\n      0x436f6d707261206d656e6f7320546f6b656e73206f207061676120636f6e206d\n        /* \"--CODEGEN--\":3917:3918   */\n      0x00\n        /* \"--CODEGEN--\":3912:3915   */\n      dup4\n        /* \"--CODEGEN--\":3908:3919   */\n      add\n        /* \"--CODEGEN--\":3901:3956   */\n      mstore\n        /* \"--CODEGEN--\":3990:4002   */\n      0x6173206574686572732e00000000000000000000000000000000000000000000\n        /* \"--CODEGEN--\":3985:3987   */\n      0x20\n        /* \"--CODEGEN--\":3980:3983   */\n      dup4\n        /* \"--CODEGEN--\":3976:3988   */\n      add\n        /* \"--CODEGEN--\":3969:4003   */\n      mstore\n        /* \"--CODEGEN--\":4031:4033   */\n      0x40\n        /* \"--CODEGEN--\":4026:4029   */\n      dup3\n        /* \"--CODEGEN--\":4022:4034   */\n      add\n        /* \"--CODEGEN--\":4015:4034   */\n      swap1\n      pop\n        /* \"--CODEGEN--\":3807:4040   */\n      swap2\n      swap1\n      pop\n      jump\n        /* \"--CODEGEN--\":4049:4381   */\n    tag_166:\n      0x00\n        /* \"--CODEGEN--\":4209:4276   */\n      tag_168\n        /* \"--CODEGEN--\":4273:4275   */\n      0x20\n        /* \"--CODEGEN--\":4268:4271   */\n      dup4\n        /* \"--CODEGEN--\":4209:4276   */\n      jump(tag_155)\n    tag_168:\n        /* \"--CODEGEN--\":4202:4276   */\n      swap2\n      pop\n        /* \"--CODEGEN--\":4309:4343   */\n      0x436f6d70726120756e206e756d65726f206d656e6f7220646520546f6b656e73\n        /* \"--CODEGEN--\":4305:4306   */\n      0x00\n        /* \"--CODEGEN--\":4300:4303   */\n      dup4\n        /* \"--CODEGEN--\":4296:4307   */\n      add\n        /* \"--CODEGEN--\":4289:4344   */\n      mstore\n        /* \"--CODEGEN--\":4372:4374   */\n      0x20\n        /* \"--CODEGEN--\":4367:4370   */\n      dup3\n        /* \"--CODEGEN--\":4363:4375   */\n      add\n        /* \"--CODEGEN--\":4356:4375   */\n      swap1\n      pop\n        /* \"--CODEGEN--\":4195:4381   */\n      swap2\n      swap1\n      pop\n      jump\n        /* \"--CODEGEN--\":4389:4502   */\n    tag_169:\n        /* \"--CODEGEN--\":4472:4496   */\n      tag_171\n        /* \"--CODEGEN--\":4490:4495   */\n      dup2\n        /* \"--CODEGEN--\":4472:4496   */\n      jump(tag_172)\n    tag_171:\n        /* \"--CODEGEN--\":4467:4470   */\n      dup3\n        /* \"--CODEGEN--\":4460:4497   */\n      mstore\n        /* \"--CODEGEN--\":4454:4502   */\n      pop\n      pop\n      jump\n        /* \"--CODEGEN--\":4509:4722   */\n    tag_56:\n      0x00\n        /* \"--CODEGEN--\":4627:4629   */\n      0x20\n        /* \"--CODEGEN--\":4616:4625   */\n      dup3\n        /* \"--CODEGEN--\":4612:4630   */\n      add\n        /* \"--CODEGEN--\":4604:4630   */\n      swap1\n      pop\n        /* \"--CODEGEN--\":4641:4712   */\n      tag_174\n        /* \"--CODEGEN--\":4709:4710   */\n      0x00\n        /* \"--CODEGEN--\":4698:4707   */\n      dup4\n        /* \"--CODEGEN--\":4694:4711   */\n      add\n        /* \"--CODEGEN--\":4685:4691   */\n      dup5\n        /* \"--CODEGEN--\":4641:4712   */\n      jump(tag_142)\n    tag_174:\n        /* \"--CODEGEN--\":4598:4722   */\n      swap3\n      swap2\n      pop\n      pop\n      jump\n        /* \"--CODEGEN--\":4729:4958   */\n    tag_67:\n      0x00\n        /* \"--CODEGEN--\":4855:4857   */\n      0x20\n        /* \"--CODEGEN--\":4844:4853   */\n      dup3\n        /* \"--CODEGEN--\":4840:4858   */\n      add\n        /* \"--CODEGEN--\":4832:4858   */\n      swap1\n      pop\n        /* \"--CODEGEN--\":4869:4948   */\n      tag_176\n        /* \"--CODEGEN--\":4945:4946   */\n      0x00\n        /* \"--CODEGEN--\":4934:4943   */\n      dup4\n        /* \"--CODEGEN--\":4930:4947   */\n      add\n        /* \"--CODEGEN--\":4921:4927   */\n      dup5\n        /* \"--CODEGEN--\":4869:4948   */\n      jump(tag_134)\n    tag_176:\n        /* \"--CODEGEN--\":4826:4958   */\n      swap3\n      swap2\n      pop\n      pop\n      jump\n        /* \"--CODEGEN--\":4965:5210   */\n    tag_24:\n      0x00\n        /* \"--CODEGEN--\":5099:5101   */\n      0x20\n        /* \"--CODEGEN--\":5088:5097   */\n      dup3\n        /* \"--CODEGEN--\":5084:5102   */\n      add\n        /* \"--CODEGEN--\":5076:5102   */\n      swap1\n      pop\n        /* \"--CODEGEN--\":5113:5200   */\n      tag_178\n        /* \"--CODEGEN--\":5197:5198   */\n      0x00\n        /* \"--CODEGEN--\":5186:5195   */\n      dup4\n        /* \"--CODEGEN--\":5182:5199   */\n      add\n        /* \"--CODEGEN--\":5173:5179   */\n      dup5\n        /* \"--CODEGEN--\":5113:5200   */\n      jump(tag_138)\n    tag_178:\n        /* \"--CODEGEN--\":5070:5210   */\n      swap3\n      swap2\n      pop\n      pop\n      jump\n        /* \"--CODEGEN--\":5217:5557   */\n    tag_85:\n      0x00\n        /* \"--CODEGEN--\":5371:5373   */\n      0x40\n        /* \"--CODEGEN--\":5360:5369   */\n      dup3\n        /* \"--CODEGEN--\":5356:5374   */\n      add\n        /* \"--CODEGEN--\":5348:5374   */\n      swap1\n      pop\n        /* \"--CODEGEN--\":5385:5464   */\n      tag_180\n        /* \"--CODEGEN--\":5461:5462   */\n      0x00\n        /* \"--CODEGEN--\":5450:5459   */\n      dup4\n        /* \"--CODEGEN--\":5446:5463   */\n      add\n        /* \"--CODEGEN--\":5437:5443   */\n      dup6\n        /* \"--CODEGEN--\":5385:5464   */\n      jump(tag_134)\n    tag_180:\n        /* \"--CODEGEN--\":5475:5547   */\n      tag_181\n        /* \"--CODEGEN--\":5543:5545   */\n      0x20\n        /* \"--CODEGEN--\":5532:5541   */\n      dup4\n        /* \"--CODEGEN--\":5528:5546   */\n      add\n        /* \"--CODEGEN--\":5519:5525   */\n      dup5\n        /* \"--CODEGEN--\":5475:5547   */\n      jump(tag_169)\n    tag_181:\n        /* \"--CODEGEN--\":5342:5557   */\n      swap4\n      swap3\n      pop\n      pop\n      pop\n      jump\n        /* \"--CODEGEN--\":5564:6075   */\n    tag_37:\n      0x00\n        /* \"--CODEGEN--\":5752:5754   */\n      0x60\n        /* \"--CODEGEN--\":5741:5750   */\n      dup3\n        /* \"--CODEGEN--\":5737:5755   */\n      add\n        /* \"--CODEGEN--\":5729:5755   */\n      swap1\n      pop\n        /* \"--CODEGEN--\":5802:5811   */\n      dup2\n        /* \"--CODEGEN--\":5796:5800   */\n      dup2\n        /* \"--CODEGEN--\":5792:5812   */\n      sub\n        /* \"--CODEGEN--\":5788:5789   */\n      0x00\n        /* \"--CODEGEN--\":5777:5786   */\n      dup4\n        /* \"--CODEGEN--\":5773:5790   */\n      add\n        /* \"--CODEGEN--\":5766:5813   */\n      mstore\n        /* \"--CODEGEN--\":5827:5905   */\n      tag_183\n        /* \"--CODEGEN--\":5900:5904   */\n      dup2\n        /* \"--CODEGEN--\":5891:5897   */\n      dup7\n        /* \"--CODEGEN--\":5827:5905   */\n      jump(tag_150)\n    tag_183:\n        /* \"--CODEGEN--\":5819:5905   */\n      swap1\n      pop\n        /* \"--CODEGEN--\":5916:5988   */\n      tag_184\n        /* \"--CODEGEN--\":5984:5986   */\n      0x20\n        /* \"--CODEGEN--\":5973:5982   */\n      dup4\n        /* \"--CODEGEN--\":5969:5987   */\n      add\n        /* \"--CODEGEN--\":5960:5966   */\n      dup6\n        /* \"--CODEGEN--\":5916:5988   */\n      jump(tag_169)\n    tag_184:\n        /* \"--CODEGEN--\":5999:6065   */\n      tag_185\n        /* \"--CODEGEN--\":6061:6063   */\n      0x40\n        /* \"--CODEGEN--\":6050:6059   */\n      dup4\n        /* \"--CODEGEN--\":6046:6064   */\n      add\n        /* \"--CODEGEN--\":6037:6043   */\n      dup5\n        /* \"--CODEGEN--\":5999:6065   */\n      jump(tag_146)\n    tag_185:\n        /* \"--CODEGEN--\":5723:6075   */\n      swap5\n      swap4\n      pop\n      pop\n      pop\n      pop\n      jump\n        /* \"--CODEGEN--\":6082:6489   */\n    tag_48:\n      0x00\n        /* \"--CODEGEN--\":6273:6275   */\n      0x20\n        /* \"--CODEGEN--\":6262:6271   */\n      dup3\n        /* \"--CODEGEN--\":6258:6276   */\n      add\n        /* \"--CODEGEN--\":6250:6276   */\n      swap1\n      pop\n        /* \"--CODEGEN--\":6323:6332   */\n      dup2\n        /* \"--CODEGEN--\":6317:6321   */\n      dup2\n        /* \"--CODEGEN--\":6313:6333   */\n      sub\n        /* \"--CODEGEN--\":6309:6310   */\n      0x00\n        /* \"--CODEGEN--\":6298:6307   */\n      dup4\n        /* \"--CODEGEN--\":6294:6311   */\n      add\n        /* \"--CODEGEN--\":6287:6334   */\n      mstore\n        /* \"--CODEGEN--\":6348:6479   */\n      tag_187\n        /* \"--CODEGEN--\":6474:6478   */\n      dup2\n        /* \"--CODEGEN--\":6348:6479   */\n      jump(tag_160)\n    tag_187:\n        /* \"--CODEGEN--\":6340:6479   */\n      swap1\n      pop\n        /* \"--CODEGEN--\":6244:6489   */\n      swap2\n      swap1\n      pop\n      jump\n        /* \"--CODEGEN--\":6496:6903   */\n    tag_77:\n      0x00\n        /* \"--CODEGEN--\":6687:6689   */\n      0x20\n        /* \"--CODEGEN--\":6676:6685   */\n      dup3\n        /* \"--CODEGEN--\":6672:6690   */\n      add\n        /* \"--CODEGEN--\":6664:6690   */\n      swap1\n      pop\n        /* \"--CODEGEN--\":6737:6746   */\n      dup2\n        /* \"--CODEGEN--\":6731:6735   */\n      dup2\n        /* \"--CODEGEN--\":6727:6747   */\n      sub\n        /* \"--CODEGEN--\":6723:6724   */\n      0x00\n        /* \"--CODEGEN--\":6712:6721   */\n      dup4\n        /* \"--CODEGEN--\":6708:6725   */\n      add\n        /* \"--CODEGEN--\":6701:6748   */\n      mstore\n        /* \"--CODEGEN--\":6762:6893   */\n      tag_189\n        /* \"--CODEGEN--\":6888:6892   */\n      dup2\n        /* \"--CODEGEN--\":6762:6893   */\n      jump(tag_163)\n    tag_189:\n        /* \"--CODEGEN--\":6754:6893   */\n      swap1\n      pop\n        /* \"--CODEGEN--\":6658:6903   */\n      swap2\n      swap1\n      pop\n      jump\n        /* \"--CODEGEN--\":6910:7317   */\n    tag_83:\n      0x00\n        /* \"--CODEGEN--\":7101:7103   */\n      0x20\n        /* \"--CODEGEN--\":7090:7099   */\n      dup3\n        /* \"--CODEGEN--\":7086:7104   */\n      add\n        /* \"--CODEGEN--\":7078:7104   */\n      swap1\n      pop\n        /* \"--CODEGEN--\":7151:7160   */\n      dup2\n        /* \"--CODEGEN--\":7145:7149   */\n      dup2\n        /* \"--CODEGEN--\":7141:7161   */\n      sub\n        /* \"--CODEGEN--\":7137:7138   */\n      0x00\n        /* \"--CODEGEN--\":7126:7135   */\n      dup4\n        /* \"--CODEGEN--\":7122:7139   */\n      add\n        /* \"--CODEGEN--\":7115:7162   */\n      mstore\n        /* \"--CODEGEN--\":7176:7307   */\n      tag_191\n        /* \"--CODEGEN--\":7302:7306   */\n      dup2\n        /* \"--CODEGEN--\":7176:7307   */\n      jump(tag_166)\n    tag_191:\n        /* \"--CODEGEN--\":7168:7307   */\n      swap1\n      pop\n        /* \"--CODEGEN--\":7072:7317   */\n      swap2\n      swap1\n      pop\n      jump\n        /* \"--CODEGEN--\":7324:7537   */\n    tag_19:\n      0x00\n        /* \"--CODEGEN--\":7442:7444   */\n      0x20\n        /* \"--CODEGEN--\":7431:7440   */\n      dup3\n        /* \"--CODEGEN--\":7427:7445   */\n      add\n        /* \"--CODEGEN--\":7419:7445   */\n      swap1\n      pop\n        /* \"--CODEGEN--\":7456:7527   */\n      tag_193\n        /* \"--CODEGEN--\":7524:7525   */\n      0x00\n        /* \"--CODEGEN--\":7513:7522   */\n      dup4\n        /* \"--CODEGEN--\":7509:7526   */\n      add\n        /* \"--CODEGEN--\":7500:7506   */\n      dup5\n        /* \"--CODEGEN--\":7456:7527   */\n      jump(tag_169)\n    tag_193:\n        /* \"--CODEGEN--\":7413:7537   */\n      swap3\n      swap2\n      pop\n      pop\n      jump\n        /* \"--CODEGEN--\":7544:7800   */\n    tag_107:\n      0x00\n        /* \"--CODEGEN--\":7606:7608   */\n      0x40\n        /* \"--CODEGEN--\":7600:7609   */\n      mload\n        /* \"--CODEGEN--\":7590:7609   */\n      swap1\n      pop\n        /* \"--CODEGEN--\":7644:7648   */\n      dup2\n        /* \"--CODEGEN--\":7636:7642   */\n      dup2\n        /* \"--CODEGEN--\":7632:7649   */\n      add\n        /* \"--CODEGEN--\":7743:7749   */\n      dup2\n        /* \"--CODEGEN--\":7731:7741   */\n      dup2\n        /* \"--CODEGEN--\":7728:7750   */\n      lt\n        /* \"--CODEGEN--\":7707:7725   */\n      0xffffffffffffffff\n        /* \"--CODEGEN--\":7695:7705   */\n      dup3\n        /* \"--CODEGEN--\":7692:7726   */\n      gt\n        /* \"--CODEGEN--\":7689:7751   */\n      or\n        /* \"--CODEGEN--\":7686:7688   */\n      iszero\n      tag_195\n      jumpi\n        /* \"--CODEGEN--\":7764:7765   */\n      0x00\n        /* \"--CODEGEN--\":7761:7762   */\n      dup1\n        /* \"--CODEGEN--\":7754:7766   */\n      revert\n        /* \"--CODEGEN--\":7686:7688   */\n    tag_195:\n        /* \"--CODEGEN--\":7784:7794   */\n      dup1\n        /* \"--CODEGEN--\":7780:7782   */\n      0x40\n        /* \"--CODEGEN--\":7773:7795   */\n      mstore\n        /* \"--CODEGEN--\":7584:7800   */\n      pop\n      swap2\n      swap1\n      pop\n      jump\n        /* \"--CODEGEN--\":7807:8129   */\n    tag_106:\n      0x00\n        /* \"--CODEGEN--\":7951:7969   */\n      0xffffffffffffffff\n        /* \"--CODEGEN--\":7943:7949   */\n      dup3\n        /* \"--CODEGEN--\":7940:7970   */\n      gt\n        /* \"--CODEGEN--\":7937:7939   */\n      iszero\n      tag_197\n      jumpi\n        /* \"--CODEGEN--\":7983:7984   */\n      0x00\n        /* \"--CODEGEN--\":7980:7981   */\n      dup1\n        /* \"--CODEGEN--\":7973:7985   */\n      revert\n        /* \"--CODEGEN--\":7937:7939   */\n    tag_197:\n        /* \"--CODEGEN--\":8050:8054   */\n      0x1f\n        /* \"--CODEGEN--\":8046:8055   */\n      not\n        /* \"--CODEGEN--\":8039:8043   */\n      0x1f\n        /* \"--CODEGEN--\":8031:8037   */\n      dup4\n        /* \"--CODEGEN--\":8027:8044   */\n      add\n        /* \"--CODEGEN--\":8023:8056   */\n      and\n        /* \"--CODEGEN--\":8015:8056   */\n      swap1\n      pop\n        /* \"--CODEGEN--\":8114:8118   */\n      0x20\n        /* \"--CODEGEN--\":8108:8112   */\n      dup2\n        /* \"--CODEGEN--\":8104:8119   */\n      add\n        /* \"--CODEGEN--\":8096:8119   */\n      swap1\n      pop\n        /* \"--CODEGEN--\":7874:8129   */\n      swap2\n      swap1\n      pop\n      jump\n        /* \"--CODEGEN--\":8136:8258   */\n    tag_153:\n      0x00\n        /* \"--CODEGEN--\":8230:8235   */\n      dup2\n        /* \"--CODEGEN--\":8224:8236   */\n      mload\n        /* \"--CODEGEN--\":8214:8236   */\n      swap1\n      pop\n        /* \"--CODEGEN--\":8195:8258   */\n      swap2\n      swap1\n      pop\n      jump\n        /* \"--CODEGEN--\":8266:8429   */\n    tag_155:\n      0x00\n        /* \"--CODEGEN--\":8381:8387   */\n      dup3\n        /* \"--CODEGEN--\":8376:8379   */\n      dup3\n        /* \"--CODEGEN--\":8369:8388   */\n      mstore\n        /* \"--CODEGEN--\":8418:8422   */\n      0x20\n        /* \"--CODEGEN--\":8413:8416   */\n      dup3\n        /* \"--CODEGEN--\":8409:8423   */\n      add\n        /* \"--CODEGEN--\":8394:8423   */\n      swap1\n      pop\n        /* \"--CODEGEN--\":8362:8429   */\n      swap3\n      swap2\n      pop\n      pop\n      jump\n        /* \"--CODEGEN--\":8437:8528   */\n    tag_145:\n      0x00\n        /* \"--CODEGEN--\":8499:8523   */\n      tag_201\n        /* \"--CODEGEN--\":8517:8522   */\n      dup3\n        /* \"--CODEGEN--\":8499:8523   */\n      jump(tag_202)\n    tag_201:\n        /* \"--CODEGEN--\":8488:8523   */\n      swap1\n      pop\n        /* \"--CODEGEN--\":8482:8528   */\n      swap2\n      swap1\n      pop\n      jump\n        /* \"--CODEGEN--\":8535:8634   */\n    tag_141:\n      0x00\n        /* \"--CODEGEN--\":8605:8629   */\n      tag_204\n        /* \"--CODEGEN--\":8623:8628   */\n      dup3\n        /* \"--CODEGEN--\":8605:8629   */\n      jump(tag_202)\n    tag_204:\n        /* \"--CODEGEN--\":8594:8629   */\n      swap1\n      pop\n        /* \"--CODEGEN--\":8588:8634   */\n      swap2\n      swap1\n      pop\n      jump\n        /* \"--CODEGEN--\":8641:8726   */\n    tag_149:\n      0x00\n        /* \"--CODEGEN--\":8714:8719   */\n      dup2\n        /* \"--CODEGEN--\":8707:8720   */\n      iszero\n        /* \"--CODEGEN--\":8700:8721   */\n      iszero\n        /* \"--CODEGEN--\":8689:8721   */\n      swap1\n      pop\n        /* \"--CODEGEN--\":8683:8726   */\n      swap2\n      swap1\n      pop\n      jump\n        /* \"--CODEGEN--\":8733:8854   */\n    tag_202:\n      0x00\n        /* \"--CODEGEN--\":8806:8848   */\n      0xffffffffffffffffffffffffffffffffffffffff\n        /* \"--CODEGEN--\":8799:8804   */\n      dup3\n        /* \"--CODEGEN--\":8795:8849   */\n      and\n        /* \"--CODEGEN--\":8784:8849   */\n      swap1\n      pop\n        /* \"--CODEGEN--\":8778:8854   */\n      swap2\n      swap1\n      pop\n      jump\n        /* \"--CODEGEN--\":8861:8933   */\n    tag_172:\n      0x00\n        /* \"--CODEGEN--\":8923:8928   */\n      dup2\n        /* \"--CODEGEN--\":8912:8928   */\n      swap1\n      pop\n        /* \"--CODEGEN--\":8906:8933   */\n      swap2\n      swap1\n      pop\n      jump\n        /* \"--CODEGEN--\":8940:9069   */\n    tag_137:\n      0x00\n        /* \"--CODEGEN--\":9027:9064   */\n      tag_209\n        /* \"--CODEGEN--\":9058:9063   */\n      dup3\n        /* \"--CODEGEN--\":9027:9064   */\n      jump(tag_210)\n    tag_209:\n        /* \"--CODEGEN--\":9014:9064   */\n      swap1\n      pop\n        /* \"--CODEGEN--\":9008:9069   */\n      swap2\n      swap1\n      pop\n      jump\n        /* \"--CODEGEN--\":9076:9197   */\n    tag_210:\n      0x00\n        /* \"--CODEGEN--\":9155:9192   */\n      tag_212\n        /* \"--CODEGEN--\":9186:9191   */\n      dup3\n        /* \"--CODEGEN--\":9155:9192   */\n      jump(tag_213)\n    tag_212:\n        /* \"--CODEGEN--\":9142:9192   */\n      swap1\n      pop\n        /* \"--CODEGEN--\":9136:9197   */\n      swap2\n      swap1\n      pop\n      jump\n        /* \"--CODEGEN--\":9204:9312   */\n    tag_213:\n      0x00\n        /* \"--CODEGEN--\":9283:9307   */\n      tag_215\n        /* \"--CODEGEN--\":9301:9306   */\n      dup3\n        /* \"--CODEGEN--\":9283:9307   */\n      jump(tag_202)\n    tag_215:\n        /* \"--CODEGEN--\":9270:9307   */\n      swap1\n      pop\n        /* \"--CODEGEN--\":9264:9312   */\n      swap2\n      swap1\n      pop\n      jump\n        /* \"--CODEGEN--\":9320:9465   */\n    tag_110:\n        /* \"--CODEGEN--\":9401:9407   */\n      dup3\n        /* \"--CODEGEN--\":9396:9399   */\n      dup2\n        /* \"--CODEGEN--\":9391:9394   */\n      dup4\n        /* \"--CODEGEN--\":9378:9408   */\n      calldatacopy\n        /* \"--CODEGEN--\":9457:9458   */\n      0x00\n        /* \"--CODEGEN--\":9448:9454   */\n      dup4\n        /* \"--CODEGEN--\":9443:9446   */\n      dup4\n        /* \"--CODEGEN--\":9439:9455   */\n      add\n        /* \"--CODEGEN--\":9432:9459   */\n      mstore\n        /* \"--CODEGEN--\":9371:9465   */\n      pop\n      pop\n      pop\n      jump\n        /* \"--CODEGEN--\":9474:9742   */\n    tag_157:\n        /* \"--CODEGEN--\":9539:9540   */\n      0x00\n        /* \"--CODEGEN--\":9546:9647   */\n    tag_218:\n        /* \"--CODEGEN--\":9560:9566   */\n      dup4\n        /* \"--CODEGEN--\":9557:9558   */\n      dup2\n        /* \"--CODEGEN--\":9554:9567   */\n      lt\n        /* \"--CODEGEN--\":9546:9647   */\n      iszero\n      tag_220\n      jumpi\n        /* \"--CODEGEN--\":9636:9637   */\n      dup1\n        /* \"--CODEGEN--\":9631:9634   */\n      dup3\n        /* \"--CODEGEN--\":9627:9638   */\n      add\n        /* \"--CODEGEN--\":9621:9639   */\n      mload\n        /* \"--CODEGEN--\":9617:9618   */\n      dup2\n        /* \"--CODEGEN--\":9612:9615   */\n      dup5\n        /* \"--CODEGEN--\":9608:9619   */\n      add\n        /* \"--CODEGEN--\":9601:9640   */\n      mstore\n        /* \"--CODEGEN--\":9582:9584   */\n      0x20\n        /* \"--CODEGEN--\":9579:9580   */\n      dup2\n        /* \"--CODEGEN--\":9575:9585   */\n      add\n        /* \"--CODEGEN--\":9570:9585   */\n      swap1\n      pop\n        /* \"--CODEGEN--\":9546:9647   */\n      jump(tag_218)\n    tag_220:\n        /* \"--CODEGEN--\":9662:9668   */\n      dup4\n        /* \"--CODEGEN--\":9659:9660   */\n      dup2\n        /* \"--CODEGEN--\":9656:9669   */\n      gt\n        /* \"--CODEGEN--\":9653:9655   */\n      iszero\n      tag_221\n      jumpi\n        /* \"--CODEGEN--\":9727:9728   */\n      0x00\n        /* \"--CODEGEN--\":9718:9724   */\n      dup5\n        /* \"--CODEGEN--\":9713:9716   */\n      dup5\n        /* \"--CODEGEN--\":9709:9725   */\n      add\n        /* \"--CODEGEN--\":9702:9729   */\n      mstore\n        /* \"--CODEGEN--\":9653:9655   */\n    tag_221:\n        /* \"--CODEGEN--\":9523:9742   */\n      pop\n      pop\n      pop\n      pop\n      jump\n        /* \"--CODEGEN--\":9750:9847   */\n    tag_159:\n      0x00\n        /* \"--CODEGEN--\":9838:9840   */\n      0x1f\n        /* \"--CODEGEN--\":9834:9841   */\n      not\n        /* \"--CODEGEN--\":9829:9831   */\n      0x1f\n        /* \"--CODEGEN--\":9822:9827   */\n      dup4\n        /* \"--CODEGEN--\":9818:9832   */\n      add\n        /* \"--CODEGEN--\":9814:9842   */\n      and\n        /* \"--CODEGEN--\":9804:9842   */\n      swap1\n      pop\n        /* \"--CODEGEN--\":9798:9847   */\n      swap2\n      swap1\n      pop\n      jump\n        /* \"--CODEGEN--\":9855:9972   */\n    tag_96:\n        /* \"--CODEGEN--\":9924:9948   */\n      tag_224\n        /* \"--CODEGEN--\":9942:9947   */\n      dup2\n        /* \"--CODEGEN--\":9924:9948   */\n      jump(tag_145)\n    tag_224:\n        /* \"--CODEGEN--\":9917:9922   */\n      dup2\n        /* \"--CODEGEN--\":9914:9949   */\n      eq\n        /* \"--CODEGEN--\":9904:9906   */\n      tag_225\n      jumpi\n        /* \"--CODEGEN--\":9963:9964   */\n      0x00\n        /* \"--CODEGEN--\":9960:9961   */\n      dup1\n        /* \"--CODEGEN--\":9953:9965   */\n      revert\n        /* \"--CODEGEN--\":9904:9906   */\n    tag_225:\n        /* \"--CODEGEN--\":9898:9972   */\n      pop\n      jump\n        /* \"--CODEGEN--\":9979:10090   */\n    tag_100:\n        /* \"--CODEGEN--\":10045:10066   */\n      tag_227\n        /* \"--CODEGEN--\":10060:10065   */\n      dup2\n        /* \"--CODEGEN--\":10045:10066   */\n      jump(tag_149)\n    tag_227:\n        /* \"--CODEGEN--\":10038:10043   */\n      dup2\n        /* \"--CODEGEN--\":10035:10067   */\n      eq\n        /* \"--CODEGEN--\":10025:10027   */\n      tag_228\n      jumpi\n        /* \"--CODEGEN--\":10081:10082   */\n      0x00\n        /* \"--CODEGEN--\":10078:10079   */\n      dup1\n        /* \"--CODEGEN--\":10071:10083   */\n      revert\n        /* \"--CODEGEN--\":10025:10027   */\n    tag_228:\n        /* \"--CODEGEN--\":10019:10090   */\n      pop\n      jump\n        /* \"--CODEGEN--\":10097:10214   */\n    tag_114:\n        /* \"--CODEGEN--\":10166:10190   */\n      tag_230\n        /* \"--CODEGEN--\":10184:10189   */\n      dup2\n        /* \"--CODEGEN--\":10166:10190   */\n      jump(tag_172)\n    tag_230:\n        /* \"--CODEGEN--\":10159:10164   */\n      dup2\n        /* \"--CODEGEN--\":10156:10191   */\n      eq\n        /* \"--CODEGEN--\":10146:10148   */\n      tag_231\n      jumpi\n        /* \"--CODEGEN--\":10205:10206   */\n      0x00\n        /* \"--CODEGEN--\":10202:10203   */\n      dup1\n        /* \"--CODEGEN--\":10195:10207   */\n      revert\n        /* \"--CODEGEN--\":10146:10148   */\n    tag_231:\n        /* \"--CODEGEN--\":10140:10214   */\n      pop\n      jump\n\n    auxdata: 0xa2646970667358221220a50e27ffd09e386b9784d751c684e0195ecfe43f68524c31f36a2890ebebf39664736f6c63430006060033\n}\n\nsub_1: assembly {\n        /* \"DISNEY/ERC20.sol\":1773:4016  contract ERC20Basic is IERC20{... */\n      mstore(0x40, 0x80)\n        /* \"DISNEY/ERC20.sol\":2273:2405  constructor (uint256 initialSupply) public{... */\n      callvalue\n        /* \"--CODEGEN--\":5:14   */\n      dup1\n        /* \"--CODEGEN--\":2:4   */\n      iszero\n      tag_1\n      jumpi\n        /* \"--CODEGEN--\":27:28   */\n      0x00\n        /* \"--CODEGEN--\":24:25   */\n      dup1\n        /* \"--CODEGEN--\":17:29   */\n      revert\n        /* \"--CODEGEN--\":2:4   */\n    tag_1:\n        /* \"DISNEY/ERC20.sol\":2273:2405  constructor (uint256 initialSupply) public{... */\n      pop\n      mload(0x40)\n      sub(codesize, bytecodeSize)\n      dup1\n      bytecodeSize\n      dup4\n      codecopy\n      dup2\n      dup2\n      add\n      0x40\n      mstore\n      dup2\n      add\n      swap1\n      tag_2\n      swap2\n      swap1\n      jump(tag_3)\n    tag_2:\n        /* \"DISNEY/ERC20.sol\":2340:2353  initialSupply */\n      dup1\n        /* \"DISNEY/ERC20.sol\":2325:2337  totalSupply_ */\n      0x02\n        /* \"DISNEY/ERC20.sol\":2325:2353  totalSupply_ = initialSupply */\n      dup2\n      swap1\n      sstore\n      pop\n        /* \"DISNEY/ERC20.sol\":2386:2398  totalSupply_ */\n      sload(0x02)\n        /* \"DISNEY/ERC20.sol\":2363:2371  balances */\n      0x00\n        /* \"DISNEY/ERC20.sol\":2363:2383  balances[msg.sender] */\n      dup1\n        /* \"DISNEY/ERC20.sol\":2372:2382  msg.sender */\n      caller\n        /* \"DISNEY/ERC20.sol\":2363:2383  balances[msg.sender] */\n      0xffffffffffffffffffffffffffffffffffffffff\n      and\n      0xffffffffffffffffffffffffffffffffffffffff\n      and\n      dup2\n      mstore\n      0x20\n      add\n      swap1\n      dup2\n      mstore\n      0x20\n      add\n      0x00\n      keccak256\n        /* \"DISNEY/ERC20.sol\":2363:2398  balances[msg.sender] = totalSupply_ */\n      dup2\n      swap1\n      sstore\n      pop\n        /* \"DISNEY/ERC20.sol\":2273:2405  constructor (uint256 initialSupply) public{... */\n      pop\n        /* \"DISNEY/ERC20.sol\":1773:4016  contract ERC20Basic is IERC20{... */\n      jump(tag_6)\n        /* \"--CODEGEN--\":5:139   */\n    tag_8:\n      0x00\n        /* \"--CODEGEN--\":89:95   */\n      dup2\n        /* \"--CODEGEN--\":83:96   */\n      mload\n        /* \"--CODEGEN--\":74:96   */\n      swap1\n      pop\n        /* \"--CODEGEN--\":101:134   */\n      tag_10\n        /* \"--CODEGEN--\":128:133   */\n      dup2\n        /* \"--CODEGEN--\":101:134   */\n      jump(tag_11)\n    tag_10:\n        /* \"--CODEGEN--\":68:139   */\n      swap3\n      swap2\n      pop\n      pop\n      jump\n        /* \"--CODEGEN--\":146:409   */\n    tag_3:\n      0x00\n        /* \"--CODEGEN--\":261:263   */\n      0x20\n        /* \"--CODEGEN--\":249:258   */\n      dup3\n        /* \"--CODEGEN--\":240:247   */\n      dup5\n        /* \"--CODEGEN--\":236:259   */\n      sub\n        /* \"--CODEGEN--\":232:264   */\n      slt\n        /* \"--CODEGEN--\":229:231   */\n      iszero\n      tag_13\n      jumpi\n        /* \"--CODEGEN--\":277:278   */\n      0x00\n        /* \"--CODEGEN--\":274:275   */\n      dup1\n        /* \"--CODEGEN--\":267:279   */\n      revert\n        /* \"--CODEGEN--\":229:231   */\n    tag_13:\n        /* \"--CODEGEN--\":312:313   */\n      0x00\n        /* \"--CODEGEN--\":329:393   */\n      tag_14\n        /* \"--CODEGEN--\":385:392   */\n      dup5\n        /* \"--CODEGEN--\":376:382   */\n      dup3\n        /* \"--CODEGEN--\":365:374   */\n      dup6\n        /* \"--CODEGEN--\":361:383   */\n      add\n        /* \"--CODEGEN--\":329:393   */\n      jump(tag_8)\n    tag_14:\n        /* \"--CODEGEN--\":319:393   */\n      swap2\n      pop\n        /* \"--CODEGEN--\":291:399   */\n      pop\n        /* \"--CODEGEN--\":223:409   */\n      swap3\n      swap2\n      pop\n      pop\n      jump\n        /* \"--CODEGEN--\":416:488   */\n    tag_15:\n      0x00\n        /* \"--CODEGEN--\":478:483   */\n      dup2\n        /* \"--CODEGEN--\":467:483   */\n      swap1\n      pop\n        /* \"--CODEGEN--\":461:488   */\n      swap2\n      swap1\n      pop\n      jump\n        /* \"--CODEGEN--\":495:612   */\n    tag_11:\n        /* \"--CODEGEN--\":564:588   */\n      tag_18\n        /* \"--CODEGEN--\":582:587   */\n      dup2\n        /* \"--CODEGEN--\":564:588   */\n      jump(tag_15)\n    tag_18:\n        /* \"--CODEGEN--\":557:562   */\n      dup2\n        /* \"--CODEGEN--\":554:589   */\n      eq\n        /* \"--CODEGEN--\":544:546   */\n      tag_19\n      jumpi\n        /* \"--CODEGEN--\":603:604   */\n      0x00\n        /* \"--CODEGEN--\":600:601   */\n      dup1\n        /* \"--CODEGEN--\":593:605   */\n      revert\n        /* \"--CODEGEN--\":544:546   */\n    tag_19:\n        /* \"--CODEGEN--\":538:612   */\n      pop\n      jump\n        /* \"DISNEY/ERC20.sol\":1773:4016  contract ERC20Basic is IERC20{... */\n    tag_6:\n      dataSize(sub_0)\n      dup1\n      dataOffset(sub_0)\n      0x00\n      codecopy\n      0x00\n      return\n    stop\n\n    sub_0: assembly {\n            /* \"DISNEY/ERC20.sol\":1773:4016  contract ERC20Basic is IERC20{... */\n          mstore(0x40, 0x80)\n          callvalue\n            /* \"--CODEGEN--\":5:14   */\n          dup1\n            /* \"--CODEGEN--\":2:4   */\n          iszero\n          tag_1\n          jumpi\n            /* \"--CODEGEN--\":27:28   */\n          0x00\n            /* \"--CODEGEN--\":24:25   */\n          dup1\n            /* \"--CODEGEN--\":17:29   */\n          revert\n            /* \"--CODEGEN--\":2:4   */\n        tag_1:\n            /* \"DISNEY/ERC20.sol\":1773:4016  contract ERC20Basic is IERC20{... */\n          pop\n          jumpi(tag_2, lt(calldatasize, 0x04))\n          shr(0xe0, calldataload(0x00))\n          dup1\n          0x313ce567\n          gt\n          tag_13\n          jumpi\n          dup1\n          0x313ce567\n          eq\n          tag_8\n          jumpi\n          dup1\n          0x70a08231\n          eq\n          tag_9\n          jumpi\n          dup1\n          0x95d89b41\n          eq\n          tag_10\n          jumpi\n          dup1\n          0xa9059cbb\n          eq\n          tag_11\n          jumpi\n          dup1\n          0xdd62ed3e\n          eq\n          tag_12\n          jumpi\n          jump(tag_2)\n        tag_13:\n          dup1\n          0x06fdde03\n          eq\n          tag_3\n          jumpi\n          dup1\n          0x095ea7b3\n          eq\n          tag_4\n          jumpi\n          dup1\n          0x18160ddd\n          eq\n          tag_5\n          jumpi\n          dup1\n          0x1d43cc98\n          eq\n          tag_6\n          jumpi\n          dup1\n          0x23b872dd\n          eq\n          tag_7\n          jumpi\n        tag_2:\n            /* \"--CODEGEN--\":12:13   */\n          0x00\n            /* \"--CODEGEN--\":9:10   */\n          dup1\n            /* \"--CODEGEN--\":2:14   */\n          revert\n            /* \"DISNEY/ERC20.sol\":1809:1858  string public constant name = \"ERC20BlockchainAZ\" */\n        tag_3:\n          tag_14\n          tag_15\n          jump\t// in\n        tag_14:\n          mload(0x40)\n          tag_16\n          swap2\n          swap1\n          jump(tag_17)\n        tag_16:\n          mload(0x40)\n          dup1\n          swap2\n          sub\n          swap1\n          return\n            /* \"DISNEY/ERC20.sol\":3310:3529  function approve(address delegate, uint256 numTokens) public override returns (bool){... */\n        tag_4:\n          tag_18\n          0x04\n          dup1\n          calldatasize\n          sub\n          dup2\n          add\n          swap1\n          tag_19\n          swap2\n          swap1\n          jump(tag_20)\n        tag_19:\n          tag_21\n          jump\t// in\n        tag_18:\n          mload(0x40)\n          tag_22\n          swap2\n          swap1\n          jump(tag_23)\n        tag_22:\n          mload(0x40)\n          dup1\n          swap2\n          sub\n          swap1\n          return\n            /* \"DISNEY/ERC20.sol\":2412:2509  function totalSupply() public override view returns (uint256){... */\n        tag_5:\n          tag_24\n          tag_25\n          jump\t// in\n        tag_24:\n          mload(0x40)\n          tag_26\n          swap2\n          swap1\n          jump(tag_27)\n        tag_26:\n          mload(0x40)\n          dup1\n          swap2\n          sub\n          swap1\n          return\n            /* \"DISNEY/ERC20.sol\":2515:2670  function increaseTotalSupply(uint newTokensAmount) public {... */\n        tag_6:\n          tag_28\n          0x04\n          dup1\n          calldatasize\n          sub\n          dup2\n          add\n          swap1\n          tag_29\n          swap2\n          swap1\n          jump(tag_30)\n        tag_29:\n          tag_31\n          jump\t// in\n        tag_28:\n          stop\n            /* \"DISNEY/ERC20.sol\":3535:4014  function transferFrom(address owner, address buyer, uint256 numTokens) public override returns (bool){... */\n        tag_7:\n          tag_32\n          0x04\n          dup1\n          calldatasize\n          sub\n          dup2\n          add\n          swap1\n          tag_33\n          swap2\n          swap1\n          jump(tag_34)\n        tag_33:\n          tag_35\n          jump\t// in\n        tag_32:\n          mload(0x40)\n          tag_36\n          swap2\n          swap1\n          jump(tag_23)\n        tag_36:\n          mload(0x40)\n          dup1\n          swap2\n          sub\n          swap1\n          return\n            /* \"DISNEY/ERC20.sol\":1907:1942  uint8 public constant decimals = 18 */\n        tag_8:\n          tag_37\n          tag_38\n          jump\t// in\n        tag_37:\n          mload(0x40)\n          tag_39\n          swap2\n          swap1\n          jump(tag_40)\n        tag_39:\n          mload(0x40)\n          dup1\n          swap2\n          sub\n          swap1\n          return\n            /* \"DISNEY/ERC20.sol\":2676:2797  function balanceOf(address tokenOwner) public override view returns (uint256){... */\n        tag_9:\n          tag_41\n          0x04\n          dup1\n          calldatasize\n          sub\n          dup2\n          add\n          swap1\n          tag_42\n          swap2\n          swap1\n          jump(tag_43)\n        tag_42:\n          tag_44\n          jump\t// in\n        tag_41:\n          mload(0x40)\n          tag_45\n          swap2\n          swap1\n          jump(tag_27)\n        tag_45:\n          mload(0x40)\n          dup1\n          swap2\n          sub\n          swap1\n          return\n            /* \"DISNEY/ERC20.sol\":1864:1901  string public constant symbol = \"ERC\" */\n        tag_10:\n          tag_46\n          tag_47\n          jump\t// in\n        tag_46:\n          mload(0x40)\n          tag_48\n          swap2\n          swap1\n          jump(tag_17)\n        tag_48:\n          mload(0x40)\n          dup1\n          swap2\n          sub\n          swap1\n          return\n            /* \"DISNEY/ERC20.sol\":2947:3304  function transfer(address recipient, uint256 numTokens) public override returns (bool){... */\n        tag_11:\n          tag_49\n          0x04\n          dup1\n          calldatasize\n          sub\n          dup2\n          add\n          swap1\n          tag_50\n          swap2\n          swap1\n          jump(tag_20)\n        tag_50:\n          tag_51\n          jump\t// in\n        tag_49:\n          mload(0x40)\n          tag_52\n          swap2\n          swap1\n          jump(tag_23)\n        tag_52:\n          mload(0x40)\n          dup1\n          swap2\n          sub\n          swap1\n          return\n            /* \"DISNEY/ERC20.sol\":2803:2941  function allowance(address owner, address delegate) public override view returns (uint256){... */\n        tag_12:\n          tag_53\n          0x04\n          dup1\n          calldatasize\n          sub\n          dup2\n          add\n          swap1\n          tag_54\n          swap2\n          swap1\n          jump(tag_55)\n        tag_54:\n          tag_56\n          jump\t// in\n        tag_53:\n          mload(0x40)\n          tag_57\n          swap2\n          swap1\n          jump(tag_27)\n        tag_57:\n          mload(0x40)\n          dup1\n          swap2\n          sub\n          swap1\n          return\n            /* \"DISNEY/ERC20.sol\":1809:1858  string public constant name = \"ERC20BlockchainAZ\" */\n        tag_15:\n          mload(0x40)\n          dup1\n          0x40\n          add\n          0x40\n          mstore\n          dup1\n          0x11\n          dup2\n          mstore\n          0x20\n          add\n          0x4552433230426c6f636b636861696e415a000000000000000000000000000000\n          dup2\n          mstore\n          pop\n          dup2\n          jump\t// out\n            /* \"DISNEY/ERC20.sol\":3310:3529  function approve(address delegate, uint256 numTokens) public override returns (bool){... */\n        tag_21:\n            /* \"DISNEY/ERC20.sol\":3389:3393  bool */\n          0x00\n            /* \"DISNEY/ERC20.sol\":3436:3445  numTokens */\n          dup2\n            /* \"DISNEY/ERC20.sol\":3404:3411  allowed */\n          0x01\n            /* \"DISNEY/ERC20.sol\":3404:3423  allowed[msg.sender] */\n          0x00\n            /* \"DISNEY/ERC20.sol\":3412:3422  msg.sender */\n          caller\n            /* \"DISNEY/ERC20.sol\":3404:3423  allowed[msg.sender] */\n          0xffffffffffffffffffffffffffffffffffffffff\n          and\n          0xffffffffffffffffffffffffffffffffffffffff\n          and\n          dup2\n          mstore\n          0x20\n          add\n          swap1\n          dup2\n          mstore\n          0x20\n          add\n          0x00\n          keccak256\n            /* \"DISNEY/ERC20.sol\":3404:3433  allowed[msg.sender][delegate] */\n          0x00\n            /* \"DISNEY/ERC20.sol\":3424:3432  delegate */\n          dup6\n            /* \"DISNEY/ERC20.sol\":3404:3433  allowed[msg.sender][delegate] */\n          0xffffffffffffffffffffffffffffffffffffffff\n          and\n          0xffffffffffffffffffffffffffffffffffffffff\n          and\n          dup2\n          mstore\n          0x20\n          add\n          swap1\n          dup2\n          mstore\n          0x20\n          add\n          0x00\n          keccak256\n            /* \"DISNEY/ERC20.sol\":3404:3445  allowed[msg.sender][delegate] = numTokens */\n          dup2\n          swap1\n          sstore\n          pop\n            /* \"DISNEY/ERC20.sol\":3481:3489  delegate */\n          dup3\n            /* \"DISNEY/ERC20.sol\":3460:3501  Approval(msg.sender, delegate, numTokens) */\n          0xffffffffffffffffffffffffffffffffffffffff\n          and\n            /* \"DISNEY/ERC20.sol\":3469:3479  msg.sender */\n          caller\n            /* \"DISNEY/ERC20.sol\":3460:3501  Approval(msg.sender, delegate, numTokens) */\n          0xffffffffffffffffffffffffffffffffffffffff\n          and\n          0x8c5be1e5ebec7d5bd14f71427d1e84f3dd0314c0f7b2291e5b200ac8c7c3b925\n            /* \"DISNEY/ERC20.sol\":3491:3500  numTokens */\n          dup5\n            /* \"DISNEY/ERC20.sol\":3460:3501  Approval(msg.sender, delegate, numTokens) */\n          mload(0x40)\n          tag_59\n          swap2\n          swap1\n          jump(tag_27)\n        tag_59:\n          mload(0x40)\n          dup1\n          swap2\n          sub\n          swap1\n          log3\n            /* \"DISNEY/ERC20.sol\":3518:3522  true */\n          0x01\n            /* \"DISNEY/ERC20.sol\":3511:3522  return true */\n          swap1\n          pop\n            /* \"DISNEY/ERC20.sol\":3310:3529  function approve(address delegate, uint256 numTokens) public override returns (bool){... */\n          swap3\n          swap2\n          pop\n          pop\n          jump\t// out\n            /* \"DISNEY/ERC20.sol\":2412:2509  function totalSupply() public override view returns (uint256){... */\n        tag_25:\n            /* \"DISNEY/ERC20.sol\":2465:2472  uint256 */\n          0x00\n            /* \"DISNEY/ERC20.sol\":2490:2502  totalSupply_ */\n          sload(0x02)\n            /* \"DISNEY/ERC20.sol\":2483:2502  return totalSupply_ */\n          swap1\n          pop\n            /* \"DISNEY/ERC20.sol\":2412:2509  function totalSupply() public override view returns (uint256){... */\n          swap1\n          jump\t// out\n            /* \"DISNEY/ERC20.sol\":2515:2670  function increaseTotalSupply(uint newTokensAmount) public {... */\n        tag_31:\n            /* \"DISNEY/ERC20.sol\":2599:2614  newTokensAmount */\n          dup1\n            /* \"DISNEY/ERC20.sol\":2583:2595  totalSupply_ */\n          0x02\n          0x00\n            /* \"DISNEY/ERC20.sol\":2583:2614  totalSupply_ += newTokensAmount */\n          dup3\n          dup3\n          sload\n          add\n          swap3\n          pop\n          pop\n          dup2\n          swap1\n          sstore\n          pop\n            /* \"DISNEY/ERC20.sol\":2648:2663  newTokensAmount */\n          dup1\n            /* \"DISNEY/ERC20.sol\":2624:2632  balances */\n          0x00\n            /* \"DISNEY/ERC20.sol\":2624:2644  balances[msg.sender] */\n          dup1\n            /* \"DISNEY/ERC20.sol\":2633:2643  msg.sender */\n          caller\n            /* \"DISNEY/ERC20.sol\":2624:2644  balances[msg.sender] */\n          0xffffffffffffffffffffffffffffffffffffffff\n          and\n          0xffffffffffffffffffffffffffffffffffffffff\n          and\n          dup2\n          mstore\n          0x20\n          add\n          swap1\n          dup2\n          mstore\n          0x20\n          add\n          0x00\n          keccak256\n          0x00\n            /* \"DISNEY/ERC20.sol\":2624:2663  balances[msg.sender] += newTokensAmount */\n          dup3\n          dup3\n          sload\n          add\n          swap3\n          pop\n          pop\n          dup2\n          swap1\n          sstore\n          pop\n            /* \"DISNEY/ERC20.sol\":2515:2670  function increaseTotalSupply(uint newTokensAmount) public {... */\n          pop\n          jump\t// out\n            /* \"DISNEY/ERC20.sol\":3535:4014  function transferFrom(address owner, address buyer, uint256 numTokens) public override returns (bool){... */\n        tag_35:\n            /* \"DISNEY/ERC20.sol\":3631:3635  bool */\n          0x00\n            /* \"DISNEY/ERC20.sol\":3667:3675  balances */\n          dup1\n            /* \"DISNEY/ERC20.sol\":3667:3682  balances[owner] */\n          0x00\n            /* \"DISNEY/ERC20.sol\":3676:3681  owner */\n          dup6\n            /* \"DISNEY/ERC20.sol\":3667:3682  balances[owner] */\n          0xffffffffffffffffffffffffffffffffffffffff\n          and\n          0xffffffffffffffffffffffffffffffffffffffff\n          and\n          dup2\n          mstore\n          0x20\n          add\n          swap1\n          dup2\n          mstore\n          0x20\n          add\n          0x00\n          keccak256\n          sload\n            /* \"DISNEY/ERC20.sol\":3654:3663  numTokens */\n          dup3\n            /* \"DISNEY/ERC20.sol\":3654:3682  numTokens <= balances[owner] */\n          gt\n          iszero\n            /* \"DISNEY/ERC20.sol\":3646:3683  require(numTokens <= balances[owner]) */\n          tag_63\n          jumpi\n            /* \"--CODEGEN--\":12:13   */\n          0x00\n            /* \"--CODEGEN--\":9:10   */\n          dup1\n            /* \"--CODEGEN--\":2:14   */\n          revert\n            /* \"DISNEY/ERC20.sol\":3646:3683  require(numTokens <= balances[owner]) */\n        tag_63:\n            /* \"DISNEY/ERC20.sol\":3714:3721  allowed */\n          0x01\n            /* \"DISNEY/ERC20.sol\":3714:3728  allowed[owner] */\n          0x00\n            /* \"DISNEY/ERC20.sol\":3722:3727  owner */\n          dup6\n            /* \"DISNEY/ERC20.sol\":3714:3728  allowed[owner] */\n          0xffffffffffffffffffffffffffffffffffffffff\n          and\n          0xffffffffffffffffffffffffffffffffffffffff\n          and\n          dup2\n          mstore\n          0x20\n          add\n          swap1\n          dup2\n          mstore\n          0x20\n          add\n          0x00\n          keccak256\n            /* \"DISNEY/ERC20.sol\":3714:3740  allowed[owner][msg.sender] */\n          0x00\n            /* \"DISNEY/ERC20.sol\":3729:3739  msg.sender */\n          caller\n            /* \"DISNEY/ERC20.sol\":3714:3740  allowed[owner][msg.sender] */\n          0xffffffffffffffffffffffffffffffffffffffff\n          and\n          0xffffffffffffffffffffffffffffffffffffffff\n          and\n          dup2\n          mstore\n          0x20\n          add\n          swap1\n          dup2\n          mstore\n          0x20\n          add\n          0x00\n          keccak256\n          sload\n            /* \"DISNEY/ERC20.sol\":3701:3710  numTokens */\n          dup3\n            /* \"DISNEY/ERC20.sol\":3701:3740  numTokens <= allowed[owner][msg.sender] */\n          gt\n          iszero\n            /* \"DISNEY/ERC20.sol\":3693:3741  require(numTokens <= allowed[owner][msg.sender]) */\n          tag_64\n          jumpi\n            /* \"--CODEGEN--\":12:13   */\n          0x00\n            /* \"--CODEGEN--\":9:10   */\n          dup1\n            /* \"--CODEGEN--\":2:14   */\n          revert\n            /* \"DISNEY/ERC20.sol\":3693:3741  require(numTokens <= allowed[owner][msg.sender]) */\n        tag_64:\n            /* \"DISNEY/ERC20.sol\":3770:3800  balances[owner].sub(numTokens) */\n          tag_65\n            /* \"DISNEY/ERC20.sol\":3790:3799  numTokens */\n          dup3\n            /* \"DISNEY/ERC20.sol\":3770:3778  balances */\n          0x00\n            /* \"DISNEY/ERC20.sol\":3770:3785  balances[owner] */\n          dup1\n            /* \"DISNEY/ERC20.sol\":3779:3784  owner */\n          dup8\n            /* \"DISNEY/ERC20.sol\":3770:3785  balances[owner] */\n          0xffffffffffffffffffffffffffffffffffffffff\n          and\n          0xffffffffffffffffffffffffffffffffffffffff\n          and\n          dup2\n          mstore\n          0x20\n          add\n          swap1\n          dup2\n          mstore\n          0x20\n          add\n          0x00\n          keccak256\n          sload\n            /* \"DISNEY/ERC20.sol\":3770:3789  balances[owner].sub */\n          tag_66\n          swap1\n            /* \"DISNEY/ERC20.sol\":3770:3800  balances[owner].sub(numTokens) */\n          swap2\n          swap1\n          0xffffffff\n          and\n          jump\t// in\n        tag_65:\n            /* \"DISNEY/ERC20.sol\":3752:3760  balances */\n          0x00\n            /* \"DISNEY/ERC20.sol\":3752:3767  balances[owner] */\n          dup1\n            /* \"DISNEY/ERC20.sol\":3761:3766  owner */\n          dup7\n            /* \"DISNEY/ERC20.sol\":3752:3767  balances[owner] */\n          0xffffffffffffffffffffffffffffffffffffffff\n          and\n          0xffffffffffffffffffffffffffffffffffffffff\n          and\n          dup2\n          mstore\n          0x20\n          add\n          swap1\n          dup2\n          mstore\n          0x20\n          add\n          0x00\n          keccak256\n            /* \"DISNEY/ERC20.sol\":3752:3800  balances[owner] = balances[owner].sub(numTokens) */\n          dup2\n          swap1\n          sstore\n          pop\n            /* \"DISNEY/ERC20.sol\":3839:3880  allowed[owner][msg.sender].sub(numTokens) */\n          tag_67\n            /* \"DISNEY/ERC20.sol\":3870:3879  numTokens */\n          dup3\n            /* \"DISNEY/ERC20.sol\":3839:3846  allowed */\n          0x01\n            /* \"DISNEY/ERC20.sol\":3839:3853  allowed[owner] */\n          0x00\n            /* \"DISNEY/ERC20.sol\":3847:3852  owner */\n          dup8\n            /* \"DISNEY/ERC20.sol\":3839:3853  allowed[owner] */\n          0xffffffffffffffffffffffffffffffffffffffff\n          and\n          0xffffffffffffffffffffffffffffffffffffffff\n          and\n          dup2\n          mstore\n          0x20\n          add\n          swap1\n          dup2\n          mstore\n          0x20\n          add\n          0x00\n          keccak256\n            /* \"DISNEY/ERC20.sol\":3839:3865  allowed[owner][msg.sender] */\n          0x00\n            /* \"DISNEY/ERC20.sol\":3854:3864  msg.sender */\n          caller\n            /* \"DISNEY/ERC20.sol\":3839:3865  allowed[owner][msg.sender] */\n          0xffffffffffffffffffffffffffffffffffffffff\n          and\n          0xffffffffffffffffffffffffffffffffffffffff\n          and\n          dup2\n          mstore\n          0x20\n          add\n          swap1\n          dup2\n          mstore\n          0x20\n          add\n          0x00\n          keccak256\n          sload\n            /* \"DISNEY/ERC20.sol\":3839:3869  allowed[owner][msg.sender].sub */\n          tag_66\n          swap1\n            /* \"DISNEY/ERC20.sol\":3839:3880  allowed[owner][msg.sender].sub(numTokens) */\n          swap2\n          swap1\n          0xffffffff\n          and\n          jump\t// in\n        tag_67:\n            /* \"DISNEY/ERC20.sol\":3810:3817  allowed */\n          0x01\n            /* \"DISNEY/ERC20.sol\":3810:3824  allowed[owner] */\n          0x00\n            /* \"DISNEY/ERC20.sol\":3818:3823  owner */\n          dup7\n            /* \"DISNEY/ERC20.sol\":3810:3824  allowed[owner] */\n          0xffffffffffffffffffffffffffffffffffffffff\n          and\n          0xffffffffffffffffffffffffffffffffffffffff\n          and\n          dup2\n          mstore\n          0x20\n          add\n          swap1\n          dup2\n          mstore\n          0x20\n          add\n          0x00\n          keccak256\n            /* \"DISNEY/ERC20.sol\":3810:3836  allowed[owner][msg.sender] */\n          0x00\n            /* \"DISNEY/ERC20.sol\":3825:3835  msg.sender */\n          caller\n            /* \"DISNEY/ERC20.sol\":3810:3836  allowed[owner][msg.sender] */\n          0xffffffffffffffffffffffffffffffffffffffff\n          and\n          0xffffffffffffffffffffffffffffffffffffffff\n          and\n          dup2\n          mstore\n          0x20\n          add\n          swap1\n          dup2\n          mstore\n          0x20\n          add\n          0x00\n          keccak256\n            /* \"DISNEY/ERC20.sol\":3810:3880  allowed[owner][msg.sender] = allowed[owner][msg.sender].sub(numTokens) */\n          dup2\n          swap1\n          sstore\n          pop\n            /* \"DISNEY/ERC20.sol\":3908:3938  balances[buyer].add(numTokens) */\n          tag_68\n            /* \"DISNEY/ERC20.sol\":3928:3937  numTokens */\n          dup3\n            /* \"DISNEY/ERC20.sol\":3908:3916  balances */\n          0x00\n            /* \"DISNEY/ERC20.sol\":3908:3923  balances[buyer] */\n          dup1\n            /* \"DISNEY/ERC20.sol\":3917:3922  buyer */\n          dup7\n            /* \"DISNEY/ERC20.sol\":3908:3923  balances[buyer] */\n          0xffffffffffffffffffffffffffffffffffffffff\n          and\n          0xffffffffffffffffffffffffffffffffffffffff\n          and\n          dup2\n          mstore\n          0x20\n          add\n          swap1\n          dup2\n          mstore\n          0x20\n          add\n          0x00\n          keccak256\n          sload\n            /* \"DISNEY/ERC20.sol\":3908:3927  balances[buyer].add */\n          tag_69\n          swap1\n            /* \"DISNEY/ERC20.sol\":3908:3938  balances[buyer].add(numTokens) */\n          swap2\n          swap1\n          0xffffffff\n          and\n          jump\t// in\n        tag_68:\n            /* \"DISNEY/ERC20.sol\":3890:3898  balances */\n          0x00\n            /* \"DISNEY/ERC20.sol\":3890:3905  balances[buyer] */\n          dup1\n            /* \"DISNEY/ERC20.sol\":3899:3904  buyer */\n          dup6\n            /* \"DISNEY/ERC20.sol\":3890:3905  balances[buyer] */\n          0xffffffffffffffffffffffffffffffffffffffff\n          and\n          0xffffffffffffffffffffffffffffffffffffffff\n          and\n          dup2\n          mstore\n          0x20\n          add\n          swap1\n          dup2\n          mstore\n          0x20\n          add\n          0x00\n          keccak256\n            /* \"DISNEY/ERC20.sol\":3890:3938  balances[buyer] = balances[buyer].add(numTokens) */\n          dup2\n          swap1\n          sstore\n          pop\n            /* \"DISNEY/ERC20.sol\":3969:3974  buyer */\n          dup3\n            /* \"DISNEY/ERC20.sol\":3953:3986  Transfer(owner, buyer, numTokens) */\n          0xffffffffffffffffffffffffffffffffffffffff\n          and\n            /* \"DISNEY/ERC20.sol\":3962:3967  owner */\n          dup5\n            /* \"DISNEY/ERC20.sol\":3953:3986  Transfer(owner, buyer, numTokens) */\n          0xffffffffffffffffffffffffffffffffffffffff\n          and\n          0xddf252ad1be2c89b69c2b068fc378daa952ba7f163c4a11628f55a4df523b3ef\n            /* \"DISNEY/ERC20.sol\":3976:3985  numTokens */\n          dup5\n            /* \"DISNEY/ERC20.sol\":3953:3986  Transfer(owner, buyer, numTokens) */\n          mload(0x40)\n          tag_70\n          swap2\n          swap1\n          jump(tag_27)\n        tag_70:\n          mload(0x40)\n          dup1\n          swap2\n          sub\n          swap1\n          log3\n            /* \"DISNEY/ERC20.sol\":4003:4007  true */\n          0x01\n            /* \"DISNEY/ERC20.sol\":3996:4007  return true */\n          swap1\n          pop\n            /* \"DISNEY/ERC20.sol\":3535:4014  function transferFrom(address owner, address buyer, uint256 numTokens) public override returns (bool){... */\n          swap4\n          swap3\n          pop\n          pop\n          pop\n          jump\t// out\n            /* \"DISNEY/ERC20.sol\":1907:1942  uint8 public constant decimals = 18 */\n        tag_38:\n            /* \"DISNEY/ERC20.sol\":1940:1942  18 */\n          0x12\n            /* \"DISNEY/ERC20.sol\":1907:1942  uint8 public constant decimals = 18 */\n          dup2\n          jump\t// out\n            /* \"DISNEY/ERC20.sol\":2676:2797  function balanceOf(address tokenOwner) public override view returns (uint256){... */\n        tag_44:\n            /* \"DISNEY/ERC20.sol\":2745:2752  uint256 */\n          0x00\n            /* \"DISNEY/ERC20.sol\":2770:2778  balances */\n          dup1\n            /* \"DISNEY/ERC20.sol\":2770:2790  balances[tokenOwner] */\n          0x00\n            /* \"DISNEY/ERC20.sol\":2779:2789  tokenOwner */\n          dup4\n            /* \"DISNEY/ERC20.sol\":2770:2790  balances[tokenOwner] */\n          0xffffffffffffffffffffffffffffffffffffffff\n          and\n          0xffffffffffffffffffffffffffffffffffffffff\n          and\n          dup2\n          mstore\n          0x20\n          add\n          swap1\n          dup2\n          mstore\n          0x20\n          add\n          0x00\n          keccak256\n          sload\n            /* \"DISNEY/ERC20.sol\":2763:2790  return balances[tokenOwner] */\n          swap1\n          pop\n            /* \"DISNEY/ERC20.sol\":2676:2797  function balanceOf(address tokenOwner) public override view returns (uint256){... */\n          swap2\n          swap1\n          pop\n          jump\t// out\n            /* \"DISNEY/ERC20.sol\":1864:1901  string public constant symbol = \"ERC\" */\n        tag_47:\n          mload(0x40)\n          dup1\n          0x40\n          add\n          0x40\n          mstore\n          dup1\n          0x03\n          dup2\n          mstore\n          0x20\n          add\n          0x4552430000000000000000000000000000000000000000000000000000000000\n          dup2\n          mstore\n          pop\n          dup2\n          jump\t// out\n            /* \"DISNEY/ERC20.sol\":2947:3304  function transfer(address recipient, uint256 numTokens) public override returns (bool){... */\n        tag_51:\n            /* \"DISNEY/ERC20.sol\":3028:3032  bool */\n          0x00\n            /* \"DISNEY/ERC20.sol\":3064:3072  balances */\n          dup1\n            /* \"DISNEY/ERC20.sol\":3064:3084  balances[msg.sender] */\n          0x00\n            /* \"DISNEY/ERC20.sol\":3073:3083  msg.sender */\n          caller\n            /* \"DISNEY/ERC20.sol\":3064:3084  balances[msg.sender] */\n          0xffffffffffffffffffffffffffffffffffffffff\n          and\n          0xffffffffffffffffffffffffffffffffffffffff\n          and\n          dup2\n          mstore\n          0x20\n          add\n          swap1\n          dup2\n          mstore\n          0x20\n          add\n          0x00\n          keccak256\n          sload\n            /* \"DISNEY/ERC20.sol\":3051:3060  numTokens */\n          dup3\n            /* \"DISNEY/ERC20.sol\":3051:3084  numTokens <= balances[msg.sender] */\n          gt\n          iszero\n            /* \"DISNEY/ERC20.sol\":3043:3085  require(numTokens <= balances[msg.sender]) */\n          tag_73\n          jumpi\n            /* \"--CODEGEN--\":12:13   */\n          0x00\n            /* \"--CODEGEN--\":9:10   */\n          dup1\n            /* \"--CODEGEN--\":2:14   */\n          revert\n            /* \"DISNEY/ERC20.sol\":3043:3085  require(numTokens <= balances[msg.sender]) */\n        tag_73:\n            /* \"DISNEY/ERC20.sol\":3118:3153  balances[msg.sender].sub(numTokens) */\n          tag_74\n            /* \"DISNEY/ERC20.sol\":3143:3152  numTokens */\n          dup3\n            /* \"DISNEY/ERC20.sol\":3118:3126  balances */\n          0x00\n            /* \"DISNEY/ERC20.sol\":3118:3138  balances[msg.sender] */\n          dup1\n            /* \"DISNEY/ERC20.sol\":3127:3137  msg.sender */\n          caller\n            /* \"DISNEY/ERC20.sol\":3118:3138  balances[msg.sender] */\n          0xffffffffffffffffffffffffffffffffffffffff\n          and\n          0xffffffffffffffffffffffffffffffffffffffff\n          and\n          dup2\n          mstore\n          0x20\n          add\n          swap1\n          dup2\n          mstore\n          0x20\n          add\n          0x00\n          keccak256\n          sload\n            /* \"DISNEY/ERC20.sol\":3118:3142  balances[msg.sender].sub */\n          tag_66\n          swap1\n            /* \"DISNEY/ERC20.sol\":3118:3153  balances[msg.sender].sub(numTokens) */\n          swap2\n          swap1\n          0xffffffff\n          and\n          jump\t// in\n        tag_74:\n            /* \"DISNEY/ERC20.sol\":3095:3103  balances */\n          0x00\n            /* \"DISNEY/ERC20.sol\":3095:3115  balances[msg.sender] */\n          dup1\n            /* \"DISNEY/ERC20.sol\":3104:3114  msg.sender */\n          caller\n            /* \"DISNEY/ERC20.sol\":3095:3115  balances[msg.sender] */\n          0xffffffffffffffffffffffffffffffffffffffff\n          and\n          0xffffffffffffffffffffffffffffffffffffffff\n          and\n          dup2\n          mstore\n          0x20\n          add\n          swap1\n          dup2\n          mstore\n          0x20\n          add\n          0x00\n          keccak256\n            /* \"DISNEY/ERC20.sol\":3095:3153  balances[msg.sender] = balances[msg.sender].sub(numTokens) */\n          dup2\n          swap1\n          sstore\n          pop\n            /* \"DISNEY/ERC20.sol\":3185:3219  balances[recipient].add(numTokens) */\n          tag_75\n            /* \"DISNEY/ERC20.sol\":3209:3218  numTokens */\n          dup3\n            /* \"DISNEY/ERC20.sol\":3185:3193  balances */\n          0x00\n            /* \"DISNEY/ERC20.sol\":3185:3204  balances[recipient] */\n          dup1\n            /* \"DISNEY/ERC20.sol\":3194:3203  recipient */\n          dup7\n            /* \"DISNEY/ERC20.sol\":3185:3204  balances[recipient] */\n          0xffffffffffffffffffffffffffffffffffffffff\n          and\n          0xffffffffffffffffffffffffffffffffffffffff\n          and\n          dup2\n          mstore\n          0x20\n          add\n          swap1\n          dup2\n          mstore\n          0x20\n          add\n          0x00\n          keccak256\n          sload\n            /* \"DISNEY/ERC20.sol\":3185:3208  balances[recipient].add */\n          tag_69\n          swap1\n            /* \"DISNEY/ERC20.sol\":3185:3219  balances[recipient].add(numTokens) */\n          swap2\n          swap1\n          0xffffffff\n          and\n          jump\t// in\n        tag_75:\n            /* \"DISNEY/ERC20.sol\":3163:3171  balances */\n          0x00\n            /* \"DISNEY/ERC20.sol\":3163:3182  balances[recipient] */\n          dup1\n            /* \"DISNEY/ERC20.sol\":3172:3181  recipient */\n          dup6\n            /* \"DISNEY/ERC20.sol\":3163:3182  balances[recipient] */\n          0xffffffffffffffffffffffffffffffffffffffff\n          and\n          0xffffffffffffffffffffffffffffffffffffffff\n          and\n          dup2\n          mstore\n          0x20\n          add\n          swap1\n          dup2\n          mstore\n          0x20\n          add\n          0x00\n          keccak256\n            /* \"DISNEY/ERC20.sol\":3163:3219  balances[recipient] = balances[recipient].add(numTokens) */\n          dup2\n          swap1\n          sstore\n          pop\n            /* \"DISNEY/ERC20.sol\":3255:3264  recipient */\n          dup3\n            /* \"DISNEY/ERC20.sol\":3234:3276  Transfer(msg.sender, recipient, numTokens) */\n          0xffffffffffffffffffffffffffffffffffffffff\n          and\n            /* \"DISNEY/ERC20.sol\":3243:3253  msg.sender */\n          caller\n            /* \"DISNEY/ERC20.sol\":3234:3276  Transfer(msg.sender, recipient, numTokens) */\n          0xffffffffffffffffffffffffffffffffffffffff\n          and\n          0xddf252ad1be2c89b69c2b068fc378daa952ba7f163c4a11628f55a4df523b3ef\n            /* \"DISNEY/ERC20.sol\":3266:3275  numTokens */\n          dup5\n            /* \"DISNEY/ERC20.sol\":3234:3276  Transfer(msg.sender, recipient, numTokens) */\n          mload(0x40)\n          tag_76\n          swap2\n          swap1\n          jump(tag_27)\n        tag_76:\n          mload(0x40)\n          dup1\n          swap2\n          sub\n          swap1\n          log3\n            /* \"DISNEY/ERC20.sol\":3293:3297  true */\n          0x01\n            /* \"DISNEY/ERC20.sol\":3286:3297  return true */\n          swap1\n          pop\n            /* \"DISNEY/ERC20.sol\":2947:3304  function transfer(address recipient, uint256 numTokens) public override returns (bool){... */\n          swap3\n          swap2\n          pop\n          pop\n          jump\t// out\n            /* \"DISNEY/ERC20.sol\":2803:2941  function allowance(address owner, address delegate) public override view returns (uint256){... */\n        tag_56:\n            /* \"DISNEY/ERC20.sol\":2885:2892  uint256 */\n          0x00\n            /* \"DISNEY/ERC20.sol\":2910:2917  allowed */\n          0x01\n            /* \"DISNEY/ERC20.sol\":2910:2924  allowed[owner] */\n          0x00\n            /* \"DISNEY/ERC20.sol\":2918:2923  owner */\n          dup5\n            /* \"DISNEY/ERC20.sol\":2910:2924  allowed[owner] */\n          0xffffffffffffffffffffffffffffffffffffffff\n          and\n          0xffffffffffffffffffffffffffffffffffffffff\n          and\n          dup2\n          mstore\n          0x20\n          add\n          swap1\n          dup2\n          mstore\n          0x20\n          add\n          0x00\n          keccak256\n            /* \"DISNEY/ERC20.sol\":2910:2934  allowed[owner][delegate] */\n          0x00\n            /* \"DISNEY/ERC20.sol\":2925:2933  delegate */\n          dup4\n            /* \"DISNEY/ERC20.sol\":2910:2934  allowed[owner][delegate] */\n          0xffffffffffffffffffffffffffffffffffffffff\n          and\n          0xffffffffffffffffffffffffffffffffffffffff\n          and\n          dup2\n          mstore\n          0x20\n          add\n          swap1\n          dup2\n          mstore\n          0x20\n          add\n          0x00\n          keccak256\n          sload\n            /* \"DISNEY/ERC20.sol\":2903:2934  return allowed[owner][delegate] */\n          swap1\n          pop\n            /* \"DISNEY/ERC20.sol\":2803:2941  function allowance(address owner, address delegate) public override view returns (uint256){... */\n          swap3\n          swap2\n          pop\n          pop\n          jump\t// out\n            /* \"DISNEY/SafeMath.sol\":308:424  function sub(uint256 a, uint256 b) internal pure returns (uint256) {... */\n        tag_66:\n            /* \"DISNEY/SafeMath.sol\":366:373  uint256 */\n          0x00\n            /* \"DISNEY/SafeMath.sol\":395:396  a */\n          dup3\n            /* \"DISNEY/SafeMath.sol\":390:391  b */\n          dup3\n            /* \"DISNEY/SafeMath.sol\":390:396  b <= a */\n          gt\n          iszero\n            /* \"DISNEY/SafeMath.sol\":383:397  assert(b <= a) */\n          tag_79\n          jumpi\n          invalid\n        tag_79:\n            /* \"DISNEY/SafeMath.sol\":416:417  b */\n          dup2\n            /* \"DISNEY/SafeMath.sol\":412:413  a */\n          dup4\n            /* \"DISNEY/SafeMath.sol\":412:417  a - b */\n          sub\n            /* \"DISNEY/SafeMath.sol\":405:417  return a - b */\n          swap1\n          pop\n            /* \"DISNEY/SafeMath.sol\":308:424  function sub(uint256 a, uint256 b) internal pure returns (uint256) {... */\n          swap3\n          swap2\n          pop\n          pop\n          jump\t// out\n            /* \"DISNEY/SafeMath.sol\":447:584  function add(uint256 a, uint256 b) internal pure returns (uint256) {... */\n        tag_69:\n            /* \"DISNEY/SafeMath.sol\":505:512  uint256 */\n          0x00\n            /* \"DISNEY/SafeMath.sol\":522:531  uint256 c */\n          dup1\n            /* \"DISNEY/SafeMath.sol\":538:539  b */\n          dup3\n            /* \"DISNEY/SafeMath.sol\":534:535  a */\n          dup5\n            /* \"DISNEY/SafeMath.sol\":534:539  a + b */\n          add\n            /* \"DISNEY/SafeMath.sol\":522:539  uint256 c = a + b */\n          swap1\n          pop\n            /* \"DISNEY/SafeMath.sol\":559:560  a */\n          dup4\n            /* \"DISNEY/SafeMath.sol\":554:555  c */\n          dup2\n            /* \"DISNEY/SafeMath.sol\":554:560  c >= a */\n          lt\n          iszero\n            /* \"DISNEY/SafeMath.sol\":547:561  assert(c >= a) */\n          tag_81\n          jumpi\n          invalid\n        tag_81:\n            /* \"DISNEY/SafeMath.sol\":576:577  c */\n          dup1\n            /* \"DISNEY/SafeMath.sol\":569:577  return c */\n          swap2\n          pop\n          pop\n            /* \"DISNEY/SafeMath.sol\":447:584  function add(uint256 a, uint256 b) internal pure returns (uint256) {... */\n          swap3\n          swap2\n          pop\n          pop\n          jump\t// out\n            /* \"--CODEGEN--\":5:135   */\n        tag_83:\n          0x00\n            /* \"--CODEGEN--\":85:91   */\n          dup2\n            /* \"--CODEGEN--\":72:92   */\n          calldataload\n            /* \"--CODEGEN--\":63:92   */\n          swap1\n          pop\n            /* \"--CODEGEN--\":97:130   */\n          tag_85\n            /* \"--CODEGEN--\":124:129   */\n          dup2\n            /* \"--CODEGEN--\":97:130   */\n          jump(tag_86)\n        tag_85:\n            /* \"--CODEGEN--\":57:135   */\n          swap3\n          swap2\n          pop\n          pop\n          jump\n            /* \"--CODEGEN--\":142:272   */\n        tag_87:\n          0x00\n            /* \"--CODEGEN--\":222:228   */\n          dup2\n            /* \"--CODEGEN--\":209:229   */\n          calldataload\n            /* \"--CODEGEN--\":200:229   */\n          swap1\n          pop\n            /* \"--CODEGEN--\":234:267   */\n          tag_89\n            /* \"--CODEGEN--\":261:266   */\n          dup2\n            /* \"--CODEGEN--\":234:267   */\n          jump(tag_90)\n        tag_89:\n            /* \"--CODEGEN--\":194:272   */\n          swap3\n          swap2\n          pop\n          pop\n          jump\n            /* \"--CODEGEN--\":279:520   */\n        tag_43:\n          0x00\n            /* \"--CODEGEN--\":383:385   */\n          0x20\n            /* \"--CODEGEN--\":371:380   */\n          dup3\n            /* \"--CODEGEN--\":362:369   */\n          dup5\n            /* \"--CODEGEN--\":358:381   */\n          sub\n            /* \"--CODEGEN--\":354:386   */\n          slt\n            /* \"--CODEGEN--\":351:353   */\n          iszero\n          tag_92\n          jumpi\n            /* \"--CODEGEN--\":399:400   */\n          0x00\n            /* \"--CODEGEN--\":396:397   */\n          dup1\n            /* \"--CODEGEN--\":389:401   */\n          revert\n            /* \"--CODEGEN--\":351:353   */\n        tag_92:\n            /* \"--CODEGEN--\":434:435   */\n          0x00\n            /* \"--CODEGEN--\":451:504   */\n          tag_93\n            /* \"--CODEGEN--\":496:503   */\n          dup5\n            /* \"--CODEGEN--\":487:493   */\n          dup3\n            /* \"--CODEGEN--\":476:485   */\n          dup6\n            /* \"--CODEGEN--\":472:494   */\n          add\n            /* \"--CODEGEN--\":451:504   */\n          jump(tag_83)\n        tag_93:\n            /* \"--CODEGEN--\":441:504   */\n          swap2\n          pop\n            /* \"--CODEGEN--\":413:510   */\n          pop\n            /* \"--CODEGEN--\":345:520   */\n          swap3\n          swap2\n          pop\n          pop\n          jump\n            /* \"--CODEGEN--\":527:893   */\n        tag_55:\n          0x00\n          dup1\n            /* \"--CODEGEN--\":648:650   */\n          0x40\n            /* \"--CODEGEN--\":636:645   */\n          dup4\n            /* \"--CODEGEN--\":627:634   */\n          dup6\n            /* \"--CODEGEN--\":623:646   */\n          sub\n            /* \"--CODEGEN--\":619:651   */\n          slt\n            /* \"--CODEGEN--\":616:618   */\n          iszero\n          tag_95\n          jumpi\n            /* \"--CODEGEN--\":664:665   */\n          0x00\n            /* \"--CODEGEN--\":661:662   */\n          dup1\n            /* \"--CODEGEN--\":654:666   */\n          revert\n            /* \"--CODEGEN--\":616:618   */\n        tag_95:\n            /* \"--CODEGEN--\":699:700   */\n          0x00\n            /* \"--CODEGEN--\":716:769   */\n          tag_96\n            /* \"--CODEGEN--\":761:768   */\n          dup6\n            /* \"--CODEGEN--\":752:758   */\n          dup3\n            /* \"--CODEGEN--\":741:750   */\n          dup7\n            /* \"--CODEGEN--\":737:759   */\n          add\n            /* \"--CODEGEN--\":716:769   */\n          jump(tag_83)\n        tag_96:\n            /* \"--CODEGEN--\":706:769   */\n          swap3\n          pop\n            /* \"--CODEGEN--\":678:775   */\n          pop\n            /* \"--CODEGEN--\":806:808   */\n          0x20\n            /* \"--CODEGEN--\":824:877   */\n          tag_97\n            /* \"--CODEGEN--\":869:876   */\n          dup6\n            /* \"--CODEGEN--\":860:866   */\n          dup3\n            /* \"--CODEGEN--\":849:858   */\n          dup7\n            /* \"--CODEGEN--\":845:867   */\n          add\n            /* \"--CODEGEN--\":824:877   */\n          jump(tag_83)\n        tag_97:\n            /* \"--CODEGEN--\":814:877   */\n          swap2\n          pop\n            /* \"--CODEGEN--\":785:883   */\n          pop\n            /* \"--CODEGEN--\":610:893   */\n          swap3\n          pop\n          swap3\n          swap1\n          pop\n          jump\n            /* \"--CODEGEN--\":900:1391   */\n        tag_34:\n          0x00\n          dup1\n          0x00\n            /* \"--CODEGEN--\":1038:1040   */\n          0x60\n            /* \"--CODEGEN--\":1026:1035   */\n          dup5\n            /* \"--CODEGEN--\":1017:1024   */\n          dup7\n            /* \"--CODEGEN--\":1013:1036   */\n          sub\n            /* \"--CODEGEN--\":1009:1041   */\n          slt\n            /* \"--CODEGEN--\":1006:1008   */\n          iszero\n          tag_99\n          jumpi\n            /* \"--CODEGEN--\":1054:1055   */\n          0x00\n            /* \"--CODEGEN--\":1051:1052   */\n          dup1\n            /* \"--CODEGEN--\":1044:1056   */\n          revert\n            /* \"--CODEGEN--\":1006:1008   */\n        tag_99:\n            /* \"--CODEGEN--\":1089:1090   */\n          0x00\n            /* \"--CODEGEN--\":1106:1159   */\n          tag_100\n            /* \"--CODEGEN--\":1151:1158   */\n          dup7\n            /* \"--CODEGEN--\":1142:1148   */\n          dup3\n            /* \"--CODEGEN--\":1131:1140   */\n          dup8\n            /* \"--CODEGEN--\":1127:1149   */\n          add\n            /* \"--CODEGEN--\":1106:1159   */\n          jump(tag_83)\n        tag_100:\n            /* \"--CODEGEN--\":1096:1159   */\n          swap4\n          pop\n            /* \"--CODEGEN--\":1068:1165   */\n          pop\n            /* \"--CODEGEN--\":1196:1198   */\n          0x20\n            /* \"--CODEGEN--\":1214:1267   */\n          tag_101\n            /* \"--CODEGEN--\":1259:1266   */\n          dup7\n            /* \"--CODEGEN--\":1250:1256   */\n          dup3\n            /* \"--CODEGEN--\":1239:1248   */\n          dup8\n            /* \"--CODEGEN--\":1235:1257   */\n          add\n            /* \"--CODEGEN--\":1214:1267   */\n          jump(tag_83)\n        tag_101:\n            /* \"--CODEGEN--\":1204:1267   */\n          swap3\n          pop\n            /* \"--CODEGEN--\":1175:1273   */\n          pop\n            /* \"--CODEGEN--\":1304:1306   */\n          0x40\n            /* \"--CODEGEN--\":1322:1375   */\n          tag_102\n            /* \"--CODEGEN--\":1367:1374   */\n          dup7\n            /* \"--CODEGEN--\":1358:1364   */\n          dup3\n            /* \"--CODEGEN--\":1347:1356   */\n          dup8\n            /* \"--CODEGEN--\":1343:1365   */\n          add\n            /* \"--CODEGEN--\":1322:1375   */\n          jump(tag_87)\n        tag_102:\n            /* \"--CODEGEN--\":1312:1375   */\n          swap2\n          pop\n            /* \"--CODEGEN--\":1283:1381   */\n          pop\n            /* \"--CODEGEN--\":1000:1391   */\n          swap3\n          pop\n          swap3\n          pop\n          swap3\n          jump\n            /* \"--CODEGEN--\":1398:1764   */\n        tag_20:\n          0x00\n          dup1\n            /* \"--CODEGEN--\":1519:1521   */\n          0x40\n            /* \"--CODEGEN--\":1507:1516   */\n          dup4\n            /* \"--CODEGEN--\":1498:1505   */\n          dup6\n            /* \"--CODEGEN--\":1494:1517   */\n          sub\n            /* \"--CODEGEN--\":1490:1522   */\n          slt\n            /* \"--CODEGEN--\":1487:1489   */\n          iszero\n          tag_104\n          jumpi\n            /* \"--CODEGEN--\":1535:1536   */\n          0x00\n            /* \"--CODEGEN--\":1532:1533   */\n          dup1\n            /* \"--CODEGEN--\":1525:1537   */\n          revert\n            /* \"--CODEGEN--\":1487:1489   */\n        tag_104:\n            /* \"--CODEGEN--\":1570:1571   */\n          0x00\n            /* \"--CODEGEN--\":1587:1640   */\n          tag_105\n            /* \"--CODEGEN--\":1632:1639   */\n          dup6\n            /* \"--CODEGEN--\":1623:1629   */\n          dup3\n            /* \"--CODEGEN--\":1612:1621   */\n          dup7\n            /* \"--CODEGEN--\":1608:1630   */\n          add\n            /* \"--CODEGEN--\":1587:1640   */\n          jump(tag_83)\n        tag_105:\n            /* \"--CODEGEN--\":1577:1640   */\n          swap3\n          pop\n            /* \"--CODEGEN--\":1549:1646   */\n          pop\n            /* \"--CODEGEN--\":1677:1679   */\n          0x20\n            /* \"--CODEGEN--\":1695:1748   */\n          tag_106\n            /* \"--CODEGEN--\":1740:1747   */\n          dup6\n            /* \"--CODEGEN--\":1731:1737   */\n          dup3\n            /* \"--CODEGEN--\":1720:1729   */\n          dup7\n            /* \"--CODEGEN--\":1716:1738   */\n          add\n            /* \"--CODEGEN--\":1695:1748   */\n          jump(tag_87)\n        tag_106:\n            /* \"--CODEGEN--\":1685:1748   */\n          swap2\n          pop\n            /* \"--CODEGEN--\":1656:1754   */\n          pop\n            /* \"--CODEGEN--\":1481:1764   */\n          swap3\n          pop\n          swap3\n          swap1\n          pop\n          jump\n            /* \"--CODEGEN--\":1771:2012   */\n        tag_30:\n          0x00\n            /* \"--CODEGEN--\":1875:1877   */\n          0x20\n            /* \"--CODEGEN--\":1863:1872   */\n          dup3\n            /* \"--CODEGEN--\":1854:1861   */\n          dup5\n            /* \"--CODEGEN--\":1850:1873   */\n          sub\n            /* \"--CODEGEN--\":1846:1878   */\n          slt\n            /* \"--CODEGEN--\":1843:1845   */\n          iszero\n          tag_108\n          jumpi\n            /* \"--CODEGEN--\":1891:1892   */\n          0x00\n            /* \"--CODEGEN--\":1888:1889   */\n          dup1\n            /* \"--CODEGEN--\":1881:1893   */\n          revert\n            /* \"--CODEGEN--\":1843:1845   */\n        tag_108:\n            /* \"--CODEGEN--\":1926:1927   */\n          0x00\n            /* \"--CODEGEN--\":1943:1996   */\n          tag_109\n            /* \"--CODEGEN--\":1988:1995   */\n          dup5\n            /* \"--CODEGEN--\":1979:1985   */\n          dup3\n            /* \"--CODEGEN--\":1968:1977   */\n          dup6\n            /* \"--CODEGEN--\":1964:1986   */\n          add\n            /* \"--CODEGEN--\":1943:1996   */\n          jump(tag_87)\n        tag_109:\n            /* \"--CODEGEN--\":1933:1996   */\n          swap2\n          pop\n            /* \"--CODEGEN--\":1905:2002   */\n          pop\n            /* \"--CODEGEN--\":1837:2012   */\n          swap3\n          swap2\n          pop\n          pop\n          jump\n            /* \"--CODEGEN--\":2019:2123   */\n        tag_110:\n            /* \"--CODEGEN--\":2096:2117   */\n          tag_112\n            /* \"--CODEGEN--\":2111:2116   */\n          dup2\n            /* \"--CODEGEN--\":2096:2117   */\n          jump(tag_113)\n        tag_112:\n            /* \"--CODEGEN--\":2091:2094   */\n          dup3\n            /* \"--CODEGEN--\":2084:2118   */\n          mstore\n            /* \"--CODEGEN--\":2078:2123   */\n          pop\n          pop\n          jump\n            /* \"--CODEGEN--\":2130:2477   */\n        tag_114:\n          0x00\n            /* \"--CODEGEN--\":2242:2281   */\n          tag_116\n            /* \"--CODEGEN--\":2275:2280   */\n          dup3\n            /* \"--CODEGEN--\":2242:2281   */\n          jump(tag_117)\n        tag_116:\n            /* \"--CODEGEN--\":2293:2364   */\n          tag_118\n            /* \"--CODEGEN--\":2357:2363   */\n          dup2\n            /* \"--CODEGEN--\":2352:2355   */\n          dup6\n            /* \"--CODEGEN--\":2293:2364   */\n          jump(tag_119)\n        tag_118:\n            /* \"--CODEGEN--\":2286:2364   */\n          swap4\n          pop\n            /* \"--CODEGEN--\":2369:2421   */\n          tag_120\n            /* \"--CODEGEN--\":2414:2420   */\n          dup2\n            /* \"--CODEGEN--\":2409:2412   */\n          dup6\n            /* \"--CODEGEN--\":2402:2406   */\n          0x20\n            /* \"--CODEGEN--\":2395:2400   */\n          dup7\n            /* \"--CODEGEN--\":2391:2407   */\n          add\n            /* \"--CODEGEN--\":2369:2421   */\n          jump(tag_121)\n        tag_120:\n            /* \"--CODEGEN--\":2442:2471   */\n          tag_122\n            /* \"--CODEGEN--\":2464:2470   */\n          dup2\n            /* \"--CODEGEN--\":2442:2471   */\n          jump(tag_123)\n        tag_122:\n            /* \"--CODEGEN--\":2437:2440   */\n          dup5\n            /* \"--CODEGEN--\":2433:2472   */\n          add\n            /* \"--CODEGEN--\":2426:2472   */\n          swap2\n          pop\n            /* \"--CODEGEN--\":2222:2477   */\n          pop\n          swap3\n          swap2\n          pop\n          pop\n          jump\n            /* \"--CODEGEN--\":2484:2597   */\n        tag_124:\n            /* \"--CODEGEN--\":2567:2591   */\n          tag_126\n            /* \"--CODEGEN--\":2585:2590   */\n          dup2\n            /* \"--CODEGEN--\":2567:2591   */\n          jump(tag_127)\n        tag_126:\n            /* \"--CODEGEN--\":2562:2565   */\n          dup3\n            /* \"--CODEGEN--\":2555:2592   */\n          mstore\n            /* \"--CODEGEN--\":2549:2597   */\n          pop\n          pop\n          jump\n            /* \"--CODEGEN--\":2604:2711   */\n        tag_128:\n            /* \"--CODEGEN--\":2683:2705   */\n          tag_130\n            /* \"--CODEGEN--\":2699:2704   */\n          dup2\n            /* \"--CODEGEN--\":2683:2705   */\n          jump(tag_131)\n        tag_130:\n            /* \"--CODEGEN--\":2678:2681   */\n          dup3\n            /* \"--CODEGEN--\":2671:2706   */\n          mstore\n            /* \"--CODEGEN--\":2665:2711   */\n          pop\n          pop\n          jump\n            /* \"--CODEGEN--\":2718:2919   */\n        tag_23:\n          0x00\n            /* \"--CODEGEN--\":2830:2832   */\n          0x20\n            /* \"--CODEGEN--\":2819:2828   */\n          dup3\n            /* \"--CODEGEN--\":2815:2833   */\n          add\n            /* \"--CODEGEN--\":2807:2833   */\n          swap1\n          pop\n            /* \"--CODEGEN--\":2844:2909   */\n          tag_133\n            /* \"--CODEGEN--\":2906:2907   */\n          0x00\n            /* \"--CODEGEN--\":2895:2904   */\n          dup4\n            /* \"--CODEGEN--\":2891:2908   */\n          add\n            /* \"--CODEGEN--\":2882:2888   */\n          dup5\n            /* \"--CODEGEN--\":2844:2909   */\n          jump(tag_110)\n        tag_133:\n            /* \"--CODEGEN--\":2801:2919   */\n          swap3\n          swap2\n          pop\n          pop\n          jump\n            /* \"--CODEGEN--\":2926:3227   */\n        tag_17:\n          0x00\n            /* \"--CODEGEN--\":3064:3066   */\n          0x20\n            /* \"--CODEGEN--\":3053:3062   */\n          dup3\n            /* \"--CODEGEN--\":3049:3067   */\n          add\n            /* \"--CODEGEN--\":3041:3067   */\n          swap1\n          pop\n            /* \"--CODEGEN--\":3114:3123   */\n          dup2\n            /* \"--CODEGEN--\":3108:3112   */\n          dup2\n            /* \"--CODEGEN--\":3104:3124   */\n          sub\n            /* \"--CODEGEN--\":3100:3101   */\n          0x00\n            /* \"--CODEGEN--\":3089:3098   */\n          dup4\n            /* \"--CODEGEN--\":3085:3102   */\n          add\n            /* \"--CODEGEN--\":3078:3125   */\n          mstore\n            /* \"--CODEGEN--\":3139:3217   */\n          tag_135\n            /* \"--CODEGEN--\":3212:3216   */\n          dup2\n            /* \"--CODEGEN--\":3203:3209   */\n          dup5\n            /* \"--CODEGEN--\":3139:3217   */\n          jump(tag_114)\n        tag_135:\n            /* \"--CODEGEN--\":3131:3217   */\n          swap1\n          pop\n            /* \"--CODEGEN--\":3035:3227   */\n          swap3\n          swap2\n          pop\n          pop\n          jump\n            /* \"--CODEGEN--\":3234:3447   */\n        tag_27:\n          0x00\n            /* \"--CODEGEN--\":3352:3354   */\n          0x20\n            /* \"--CODEGEN--\":3341:3350   */\n          dup3\n            /* \"--CODEGEN--\":3337:3355   */\n          add\n            /* \"--CODEGEN--\":3329:3355   */\n          swap1\n          pop\n            /* \"--CODEGEN--\":3366:3437   */\n          tag_137\n            /* \"--CODEGEN--\":3434:3435   */\n          0x00\n            /* \"--CODEGEN--\":3423:3432   */\n          dup4\n            /* \"--CODEGEN--\":3419:3436   */\n          add\n            /* \"--CODEGEN--\":3410:3416   */\n          dup5\n            /* \"--CODEGEN--\":3366:3437   */\n          jump(tag_124)\n        tag_137:\n            /* \"--CODEGEN--\":3323:3447   */\n          swap3\n          swap2\n          pop\n          pop\n          jump\n            /* \"--CODEGEN--\":3454:3659   */\n        tag_40:\n          0x00\n            /* \"--CODEGEN--\":3568:3570   */\n          0x20\n            /* \"--CODEGEN--\":3557:3566   */\n          dup3\n            /* \"--CODEGEN--\":3553:3571   */\n          add\n            /* \"--CODEGEN--\":3545:3571   */\n          swap1\n          pop\n            /* \"--CODEGEN--\":3582:3649   */\n          tag_139\n            /* \"--CODEGEN--\":3646:3647   */\n          0x00\n            /* \"--CODEGEN--\":3635:3644   */\n          dup4\n            /* \"--CODEGEN--\":3631:3648   */\n          add\n            /* \"--CODEGEN--\":3622:3628   */\n          dup5\n            /* \"--CODEGEN--\":3582:3649   */\n          jump(tag_128)\n        tag_139:\n            /* \"--CODEGEN--\":3539:3659   */\n          swap3\n          swap2\n          pop\n          pop\n          jump\n            /* \"--CODEGEN--\":3666:3788   */\n        tag_117:\n          0x00\n            /* \"--CODEGEN--\":3760:3765   */\n          dup2\n            /* \"--CODEGEN--\":3754:3766   */\n          mload\n            /* \"--CODEGEN--\":3744:3766   */\n          swap1\n          pop\n            /* \"--CODEGEN--\":3725:3788   */\n          swap2\n          swap1\n          pop\n          jump\n            /* \"--CODEGEN--\":3796:3959   */\n        tag_119:\n          0x00\n            /* \"--CODEGEN--\":3911:3917   */\n          dup3\n            /* \"--CODEGEN--\":3906:3909   */\n          dup3\n            /* \"--CODEGEN--\":3899:3918   */\n          mstore\n            /* \"--CODEGEN--\":3948:3952   */\n          0x20\n            /* \"--CODEGEN--\":3943:3946   */\n          dup3\n            /* \"--CODEGEN--\":3939:3953   */\n          add\n            /* \"--CODEGEN--\":3924:3953   */\n          swap1\n          pop\n            /* \"--CODEGEN--\":3892:3959   */\n          swap3\n          swap2\n          pop\n          pop\n          jump\n            /* \"--CODEGEN--\":3967:4058   */\n        tag_142:\n          0x00\n            /* \"--CODEGEN--\":4029:4053   */\n          tag_144\n            /* \"--CODEGEN--\":4047:4052   */\n          dup3\n            /* \"--CODEGEN--\":4029:4053   */\n          jump(tag_145)\n        tag_144:\n            /* \"--CODEGEN--\":4018:4053   */\n          swap1\n          pop\n            /* \"--CODEGEN--\":4012:4058   */\n          swap2\n          swap1\n          pop\n          jump\n            /* \"--CODEGEN--\":4065:4150   */\n        tag_113:\n          0x00\n            /* \"--CODEGEN--\":4138:4143   */\n          dup2\n            /* \"--CODEGEN--\":4131:4144   */\n          iszero\n            /* \"--CODEGEN--\":4124:4145   */\n          iszero\n            /* \"--CODEGEN--\":4113:4145   */\n          swap1\n          pop\n            /* \"--CODEGEN--\":4107:4150   */\n          swap2\n          swap1\n          pop\n          jump\n            /* \"--CODEGEN--\":4157:4278   */\n        tag_145:\n          0x00\n            /* \"--CODEGEN--\":4230:4272   */\n          0xffffffffffffffffffffffffffffffffffffffff\n            /* \"--CODEGEN--\":4223:4228   */\n          dup3\n            /* \"--CODEGEN--\":4219:4273   */\n          and\n            /* \"--CODEGEN--\":4208:4273   */\n          swap1\n          pop\n            /* \"--CODEGEN--\":4202:4278   */\n          swap2\n          swap1\n          pop\n          jump\n            /* \"--CODEGEN--\":4285:4357   */\n        tag_127:\n          0x00\n            /* \"--CODEGEN--\":4347:4352   */\n          dup2\n            /* \"--CODEGEN--\":4336:4352   */\n          swap1\n          pop\n            /* \"--CODEGEN--\":4330:4357   */\n          swap2\n          swap1\n          pop\n          jump\n            /* \"--CODEGEN--\":4364:4445   */\n        tag_131:\n          0x00\n            /* \"--CODEGEN--\":4435:4439   */\n          0xff\n            /* \"--CODEGEN--\":4428:4433   */\n          dup3\n            /* \"--CODEGEN--\":4424:4440   */\n          and\n            /* \"--CODEGEN--\":4413:4440   */\n          swap1\n          pop\n            /* \"--CODEGEN--\":4407:4445   */\n          swap2\n          swap1\n          pop\n          jump\n            /* \"--CODEGEN--\":4453:4721   */\n        tag_121:\n            /* \"--CODEGEN--\":4518:4519   */\n          0x00\n            /* \"--CODEGEN--\":4525:4626   */\n        tag_151:\n            /* \"--CODEGEN--\":4539:4545   */\n          dup4\n            /* \"--CODEGEN--\":4536:4537   */\n          dup2\n            /* \"--CODEGEN--\":4533:4546   */\n          lt\n            /* \"--CODEGEN--\":4525:4626   */\n          iszero\n          tag_153\n          jumpi\n            /* \"--CODEGEN--\":4615:4616   */\n          dup1\n            /* \"--CODEGEN--\":4610:4613   */\n          dup3\n            /* \"--CODEGEN--\":4606:4617   */\n          add\n            /* \"--CODEGEN--\":4600:4618   */\n          mload\n            /* \"--CODEGEN--\":4596:4597   */\n          dup2\n            /* \"--CODEGEN--\":4591:4594   */\n          dup5\n            /* \"--CODEGEN--\":4587:4598   */\n          add\n            /* \"--CODEGEN--\":4580:4619   */\n          mstore\n            /* \"--CODEGEN--\":4561:4563   */\n          0x20\n            /* \"--CODEGEN--\":4558:4559   */\n          dup2\n            /* \"--CODEGEN--\":4554:4564   */\n          add\n            /* \"--CODEGEN--\":4549:4564   */\n          swap1\n          pop\n            /* \"--CODEGEN--\":4525:4626   */\n          jump(tag_151)\n        tag_153:\n            /* \"--CODEGEN--\":4641:4647   */\n          dup4\n            /* \"--CODEGEN--\":4638:4639   */\n          dup2\n            /* \"--CODEGEN--\":4635:4648   */\n          gt\n            /* \"--CODEGEN--\":4632:4634   */\n          iszero\n          tag_154\n          jumpi\n            /* \"--CODEGEN--\":4706:4707   */\n          0x00\n            /* \"--CODEGEN--\":4697:4703   */\n          dup5\n            /* \"--CODEGEN--\":4692:4695   */\n          dup5\n            /* \"--CODEGEN--\":4688:4704   */\n          add\n            /* \"--CODEGEN--\":4681:4708   */\n          mstore\n            /* \"--CODEGEN--\":4632:4634   */\n        tag_154:\n            /* \"--CODEGEN--\":4502:4721   */\n          pop\n          pop\n          pop\n          pop\n          jump\n            /* \"--CODEGEN--\":4729:4826   */\n        tag_123:\n          0x00\n            /* \"--CODEGEN--\":4817:4819   */\n          0x1f\n            /* \"--CODEGEN--\":4813:4820   */\n          not\n            /* \"--CODEGEN--\":4808:4810   */\n          0x1f\n            /* \"--CODEGEN--\":4801:4806   */\n          dup4\n            /* \"--CODEGEN--\":4797:4811   */\n          add\n            /* \"--CODEGEN--\":4793:4821   */\n          and\n            /* \"--CODEGEN--\":4783:4821   */\n          swap1\n          pop\n            /* \"--CODEGEN--\":4777:4826   */\n          swap2\n          swap1\n          pop\n          jump\n            /* \"--CODEGEN--\":4834:4951   */\n        tag_86:\n            /* \"--CODEGEN--\":4903:4927   */\n          tag_157\n            /* \"--CODEGEN--\":4921:4926   */\n          dup2\n            /* \"--CODEGEN--\":4903:4927   */\n          jump(tag_142)\n        tag_157:\n            /* \"--CODEGEN--\":4896:4901   */\n          dup2\n            /* \"--CODEGEN--\":4893:4928   */\n          eq\n            /* \"--CODEGEN--\":4883:4885   */\n          tag_158\n          jumpi\n            /* \"--CODEGEN--\":4942:4943   */\n          0x00\n            /* \"--CODEGEN--\":4939:4940   */\n          dup1\n            /* \"--CODEGEN--\":4932:4944   */\n          revert\n            /* \"--CODEGEN--\":4883:4885   */\n        tag_158:\n            /* \"--CODEGEN--\":4877:4951   */\n          pop\n          jump\n            /* \"--CODEGEN--\":4958:5075   */\n        tag_90:\n            /* \"--CODEGEN--\":5027:5051   */\n          tag_160\n            /* \"--CODEGEN--\":5045:5050   */\n          dup2\n            /* \"--CODEGEN--\":5027:5051   */\n          jump(tag_127)\n        tag_160:\n            /* \"--CODEGEN--\":5020:5025   */\n          dup2\n            /* \"--CODEGEN--\":5017:5052   */\n          eq\n            /* \"--CODEGEN--\":5007:5009   */\n          tag_161\n          jumpi\n            /* \"--CODEGEN--\":5066:5067   */\n          0x00\n            /* \"--CODEGEN--\":5063:5064   */\n          dup1\n            /* \"--CODEGEN--\":5056:5068   */\n          revert\n            /* \"--CODEGEN--\":5007:5009   */\n        tag_161:\n            /* \"--CODEGEN--\":5001:5075   */\n          pop\n          jump\n\n        auxdata: 0xa2646970667358221220f48d0e283ae81509f88b7d48d6126e5a2a7f752e9c95b8bc53c98f6bb2ae698364736f6c63430006060033\n    }\n}\n",
				"bytecode": {
					"linkReferences": {},
					"object": "608060405234801561001057600080fd5b50612710604051610020906100cc565b61002a91906100e8565b604051809103906000f080158015610046573d6000803e3d6000fd5b506000806101000a81548173ffffffffffffffffffffffffffffffffffffffff021916908373ffffffffffffffffffffffffffffffffffffffff16021790555033600160006101000a81548173ffffffffffffffffffffffffffffffffffffffff021916908373ffffffffffffffffffffffffffffffffffffffff16021790555061011f565b610e7f80610eba83390190565b6100e28161010d565b82525050565b60006020820190506100fd60008301846100d9565b92915050565b6000819050919050565b600061011882610103565b9050919050565b610d8c8061012e6000396000f3fe6080604052600436106100705760003560e01c8063ce8f2f381161004e578063ce8f2f38146100f4578063d00df29614610131578063e33f34a014610170578063f77740911461019b57610070565b80631246f6e214610075578063722713f71461009e5780638da5cb5b146100c9575b600080fd5b34801561008157600080fd5b5061009c600480360381019061009791906108a4565b6101b7565b005b3480156100aa57600080fd5b506100b36102d8565b6040516100c09190610b9e565b60405180910390f35b3480156100d557600080fd5b506100de610389565b6040516100eb9190610abc565b60405180910390f35b34801561010057600080fd5b5061011b60048036038101906101169190610811565b6103af565b6040516101289190610b9e565b60405180910390f35b34801561013d57600080fd5b5061015860048036038101906101539190610863565b6103cd565b60405161016793929190610b00565b60405180910390f35b34801561017c57600080fd5b506101856104b2565b6040516101929190610b9e565b60405180910390f35b6101b560048036038101906101b091906108a4565b610563565b005b33600160009054906101000a900473ffffffffffffffffffffffffffffffffffffffff1673ffffffffffffffffffffffffffffffffffffffff168173ffffffffffffffffffffffffffffffffffffffff1614610248576040517f08c379a000000000000000000000000000000000000000000000000000000000815260040161023f90610b3e565b60405180910390fd5b6000809054906101000a900473ffffffffffffffffffffffffffffffffffffffff1673ffffffffffffffffffffffffffffffffffffffff16631d43cc98836040518263ffffffff1660e01b81526004016102a29190610b9e565b600060405180830381600087803b1580156102bc57600080fd5b505af11580156102d0573d6000803e3d6000fd5b505050505050565b60008060009054906101000a900473ffffffffffffffffffffffffffffffffffffffff1673ffffffffffffffffffffffffffffffffffffffff166370a08231306040518263ffffffff1660e01b81526004016103349190610a86565b60206040518083038186803b15801561034c57600080fd5b505afa158015610360573d6000803e3d6000fd5b505050506040513d601f19601f8201168201806040525081019061038491906108cd565b905090565b600160009054906101000a900473ffffffffffffffffffffffffffffffffffffffff1681565b60026020528060005260406000206000915090508060000154905081565b600381805160208101820180518482526020830160208501208183528095505050505050600091509050806000018054600181600116156101000203166002900480601f01602080910402602001604051908101604052809291908181526020018280546001816001161561010002031660029004801561048f5780601f106104645761010080835404028352916020019161048f565b820191906000526020600020905b81548152906001019060200180831161047257829003601f168201915b5050505050908060010154908060020160009054906101000a900460ff16905083565b60008060009054906101000a900473ffffffffffffffffffffffffffffffffffffffff1673ffffffffffffffffffffffffffffffffffffffff166370a08231336040518263ffffffff1660e01b815260040161050e9190610aa1565b60206040518083038186803b15801561052657600080fd5b505afa15801561053a573d6000803e3d6000fd5b505050506040513d601f19601f8201168201806040525081019061055e91906108cd565b905090565b600061056e82610755565b9050803410156105b3576040517f08c379a00000000000000000000000000000000000000000000000000000000081526004016105aa90610b5e565b60405180910390fd5b600081340390503373ffffffffffffffffffffffffffffffffffffffff166108fc829081150290604051600060405180830381858888f19350505050158015610600573d6000803e3d6000fd5b50600061060b6102d8565b905080841115610650576040517f08c379a000000000000000000000000000000000000000000000000000000000815260040161064790610b7e565b60405180910390fd5b6000809054906101000a900473ffffffffffffffffffffffffffffffffffffffff1673ffffffffffffffffffffffffffffffffffffffff1663a9059cbb33866040518363ffffffff1660e01b81526004016106ac929190610ad7565b602060405180830381600087803b1580156106c657600080fd5b505af11580156106da573d6000803e3d6000fd5b505050506040513d601f19601f820116820180604052508101906106fe919061083a565b5083600260003373ffffffffffffffffffffffffffffffffffffffff1673ffffffffffffffffffffffffffffffffffffffff1681526020019081526020016000206000016000828254019250508190555050505050565b600067016345785d8a000082029050919050565b60008135905061077881610d11565b92915050565b60008151905061078d81610d28565b92915050565b600082601f8301126107a457600080fd5b81356107b76107b282610be6565b610bb9565b915080825260208301602083018583830111156107d357600080fd5b6107de838284610cbe565b50505092915050565b6000813590506107f681610d3f565b92915050565b60008151905061080b81610d3f565b92915050565b60006020828403121561082357600080fd5b600061083184828501610769565b91505092915050565b60006020828403121561084c57600080fd5b600061085a8482850161077e565b91505092915050565b60006020828403121561087557600080fd5b600082013567ffffffffffffffff81111561088f57600080fd5b61089b84828501610793565b91505092915050565b6000602082840312156108b657600080fd5b60006108c4848285016107e7565b91505092915050565b6000602082840312156108df57600080fd5b60006108ed848285016107fc565b91505092915050565b6108ff81610c88565b82525050565b61090e81610c40565b82525050565b61091d81610c2e565b82525050565b61092c81610c52565b82525050565b600061093d82610c12565b6109478185610c1d565b9350610957818560208601610ccd565b61096081610d00565b840191505092915050565b6000610978602e83610c1d565b91507f4e6f207469656e6573207065726d69736f73207061726120656a65637574617260008301527f20657374612066756e63696f6e2e0000000000000000000000000000000000006020830152604082019050919050565b60006109de602a83610c1d565b91507f436f6d707261206d656e6f7320546f6b656e73206f207061676120636f6e206d60008301527f6173206574686572732e000000000000000000000000000000000000000000006020830152604082019050919050565b6000610a44602083610c1d565b91507f436f6d70726120756e206e756d65726f206d656e6f7220646520546f6b656e736000830152602082019050919050565b610a8081610c7e565b82525050565b6000602082019050610a9b6000830184610914565b92915050565b6000602082019050610ab660008301846108f6565b92915050565b6000602082019050610ad16000830184610905565b92915050565b6000604082019050610aec60008301856108f6565b610af96020830184610a77565b9392505050565b60006060820190508181036000830152610b1a8186610932565b9050610b296020830185610a77565b610b366040830184610923565b949350505050565b60006020820190508181036000830152610b578161096b565b9050919050565b60006020820190508181036000830152610b77816109d1565b9050919050565b60006020820190508181036000830152610b9781610a37565b9050919050565b6000602082019050610bb36000830184610a77565b92915050565b6000604051905081810181811067ffffffffffffffff82111715610bdc57600080fd5b8060405250919050565b600067ffffffffffffffff821115610bfd57600080fd5b601f19601f8301169050602081019050919050565b600081519050919050565b600082825260208201905092915050565b6000610c3982610c5e565b9050919050565b6000610c4b82610c5e565b9050919050565b60008115159050919050565b600073ffffffffffffffffffffffffffffffffffffffff82169050919050565b6000819050919050565b6000610c9382610c9a565b9050919050565b6000610ca582610cac565b9050919050565b6000610cb782610c5e565b9050919050565b82818337600083830152505050565b60005b83811015610ceb578082015181840152602081019050610cd0565b83811115610cfa576000848401525b50505050565b6000601f19601f8301169050919050565b610d1a81610c2e565b8114610d2557600080fd5b50565b610d3181610c52565b8114610d3c57600080fd5b50565b610d4881610c7e565b8114610d5357600080fd5b5056fea2646970667358221220a50e27ffd09e386b9784d751c684e0195ecfe43f68524c31f36a2890ebebf39664736f6c63430006060033608060405234801561001057600080fd5b50604051610e7f380380610e7f83398181016040528101906100329190610099565b806002819055506002546000803373ffffffffffffffffffffffffffffffffffffffff1673ffffffffffffffffffffffffffffffffffffffff16815260200190815260200160002081905550506100e3565b600081519050610093816100cc565b92915050565b6000602082840312156100ab57600080fd5b60006100b984828501610084565b91505092915050565b6000819050919050565b6100d5816100c2565b81146100e057600080fd5b50565b610d8d806100f26000396000f3fe608060405234801561001057600080fd5b506004361061009e5760003560e01c8063313ce56711610066578063313ce5671461015b57806370a082311461017957806395d89b41146101a9578063a9059cbb146101c7578063dd62ed3e146101f75761009e565b806306fdde03146100a3578063095ea7b3146100c157806318160ddd146100f15780631d43cc981461010f57806323b872dd1461012b575b600080fd5b6100ab610227565b6040516100b89190610c1c565b60405180910390f35b6100db60048036038101906100d69190610b36565b610260565b6040516100e89190610c01565b60405180910390f35b6100f9610352565b6040516101069190610c3e565b60405180910390f35b61012960048036038101906101249190610b72565b61035c565b005b61014560048036038101906101409190610ae7565b6103bb565b6040516101529190610c01565b60405180910390f35b610163610736565b6040516101709190610c59565b60405180910390f35b610193600480360381019061018e9190610a82565b61073b565b6040516101a09190610c3e565b60405180910390f35b6101b1610783565b6040516101be9190610c1c565b60405180910390f35b6101e160048036038101906101dc9190610b36565b6107bc565b6040516101ee9190610c01565b60405180910390f35b610211600480360381019061020c9190610aab565b61099e565b60405161021e9190610c3e565b60405180910390f35b6040518060400160405280601181526020017f4552433230426c6f636b636861696e415a00000000000000000000000000000081525081565b600081600160003373ffffffffffffffffffffffffffffffffffffffff1673ffffffffffffffffffffffffffffffffffffffff16815260200190815260200160002060008573ffffffffffffffffffffffffffffffffffffffff1673ffffffffffffffffffffffffffffffffffffffff168152602001908152602001600020819055508273ffffffffffffffffffffffffffffffffffffffff163373ffffffffffffffffffffffffffffffffffffffff167f8c5be1e5ebec7d5bd14f71427d1e84f3dd0314c0f7b2291e5b200ac8c7c3b925846040516103409190610c3e565b60405180910390a36001905092915050565b6000600254905090565b80600260008282540192505081905550806000803373ffffffffffffffffffffffffffffffffffffffff1673ffffffffffffffffffffffffffffffffffffffff1681526020019081526020016000206000828254019250508190555050565b60008060008573ffffffffffffffffffffffffffffffffffffffff1673ffffffffffffffffffffffffffffffffffffffff1681526020019081526020016000205482111561040857600080fd5b600160008573ffffffffffffffffffffffffffffffffffffffff1673ffffffffffffffffffffffffffffffffffffffff16815260200190815260200160002060003373ffffffffffffffffffffffffffffffffffffffff1673ffffffffffffffffffffffffffffffffffffffff1681526020019081526020016000205482111561049157600080fd5b6104e2826000808773ffffffffffffffffffffffffffffffffffffffff1673ffffffffffffffffffffffffffffffffffffffff16815260200190815260200160002054610a2590919063ffffffff16565b6000808673ffffffffffffffffffffffffffffffffffffffff1673ffffffffffffffffffffffffffffffffffffffff168152602001908152602001600020819055506105b382600160008773ffffffffffffffffffffffffffffffffffffffff1673ffffffffffffffffffffffffffffffffffffffff16815260200190815260200160002060003373ffffffffffffffffffffffffffffffffffffffff1673ffffffffffffffffffffffffffffffffffffffff16815260200190815260200160002054610a2590919063ffffffff16565b600160008673ffffffffffffffffffffffffffffffffffffffff1673ffffffffffffffffffffffffffffffffffffffff16815260200190815260200160002060003373ffffffffffffffffffffffffffffffffffffffff1673ffffffffffffffffffffffffffffffffffffffff16815260200190815260200160002081905550610684826000808673ffffffffffffffffffffffffffffffffffffffff1673ffffffffffffffffffffffffffffffffffffffff16815260200190815260200160002054610a3c90919063ffffffff16565b6000808573ffffffffffffffffffffffffffffffffffffffff1673ffffffffffffffffffffffffffffffffffffffff168152602001908152602001600020819055508273ffffffffffffffffffffffffffffffffffffffff168473ffffffffffffffffffffffffffffffffffffffff167fddf252ad1be2c89b69c2b068fc378daa952ba7f163c4a11628f55a4df523b3ef846040516107239190610c3e565b60405180910390a3600190509392505050565b601281565b60008060008373ffffffffffffffffffffffffffffffffffffffff1673ffffffffffffffffffffffffffffffffffffffff168152602001908152602001600020549050919050565b6040518060400160405280600381526020017f455243000000000000000000000000000000000000000000000000000000000081525081565b60008060003373ffffffffffffffffffffffffffffffffffffffff1673ffffffffffffffffffffffffffffffffffffffff1681526020019081526020016000205482111561080957600080fd5b61085a826000803373ffffffffffffffffffffffffffffffffffffffff1673ffffffffffffffffffffffffffffffffffffffff16815260200190815260200160002054610a2590919063ffffffff16565b6000803373ffffffffffffffffffffffffffffffffffffffff1673ffffffffffffffffffffffffffffffffffffffff168152602001908152602001600020819055506108ed826000808673ffffffffffffffffffffffffffffffffffffffff1673ffffffffffffffffffffffffffffffffffffffff16815260200190815260200160002054610a3c90919063ffffffff16565b6000808573ffffffffffffffffffffffffffffffffffffffff1673ffffffffffffffffffffffffffffffffffffffff168152602001908152602001600020819055508273ffffffffffffffffffffffffffffffffffffffff163373ffffffffffffffffffffffffffffffffffffffff167fddf252ad1be2c89b69c2b068fc378daa952ba7f163c4a11628f55a4df523b3ef8460405161098c9190610c3e565b60405180910390a36001905092915050565b6000600160008473ffffffffffffffffffffffffffffffffffffffff1673ffffffffffffffffffffffffffffffffffffffff16815260200190815260200160002060008373ffffffffffffffffffffffffffffffffffffffff1673ffffffffffffffffffffffffffffffffffffffff16815260200190815260200160002054905092915050565b600082821115610a3157fe5b818303905092915050565b600080828401905083811015610a4e57fe5b8091505092915050565b600081359050610a6781610d29565b92915050565b600081359050610a7c81610d40565b92915050565b600060208284031215610a9457600080fd5b6000610aa284828501610a58565b91505092915050565b60008060408385031215610abe57600080fd5b6000610acc85828601610a58565b9250506020610add85828601610a58565b9150509250929050565b600080600060608486031215610afc57600080fd5b6000610b0a86828701610a58565b9350506020610b1b86828701610a58565b9250506040610b2c86828701610a6d565b9150509250925092565b60008060408385031215610b4957600080fd5b6000610b5785828601610a58565b9250506020610b6885828601610a6d565b9150509250929050565b600060208284031215610b8457600080fd5b6000610b9284828501610a6d565b91505092915050565b610ba481610ca2565b82525050565b6000610bb582610c74565b610bbf8185610c7f565b9350610bcf818560208601610ce5565b610bd881610d18565b840191505092915050565b610bec81610cce565b82525050565b610bfb81610cd8565b82525050565b6000602082019050610c166000830184610b9b565b92915050565b60006020820190508181036000830152610c368184610baa565b905092915050565b6000602082019050610c536000830184610be3565b92915050565b6000602082019050610c6e6000830184610bf2565b92915050565b600081519050919050565b600082825260208201905092915050565b6000610c9b82610cae565b9050919050565b60008115159050919050565b600073ffffffffffffffffffffffffffffffffffffffff82169050919050565b6000819050919050565b600060ff82169050919050565b60005b83811015610d03578082015181840152602081019050610ce8565b83811115610d12576000848401525b50505050565b6000601f19601f8301169050919050565b610d3281610c90565b8114610d3d57600080fd5b50565b610d4981610cce565b8114610d5457600080fd5b5056fea2646970667358221220f48d0e283ae81509f88b7d48d6126e5a2a7f752e9c95b8bc53c98f6bb2ae698364736f6c63430006060033",
					"opcodes": "PUSH1 0x80 PUSH1 0x40 MSTORE CALLVALUE DUP1 ISZERO PUSH2 0x10 JUMPI PUSH1 0x0 DUP1 REVERT JUMPDEST POP PUSH2 0x2710 PUSH1 0x40 MLOAD PUSH2 0x20 SWAP1 PUSH2 0xCC JUMP JUMPDEST PUSH2 0x2A SWAP2 SWAP1 PUSH2 0xE8 JUMP JUMPDEST PUSH1 0x40 MLOAD DUP1 SWAP2 SUB SWAP1 PUSH1 0x0 CREATE DUP1 ISZERO DUP1 ISZERO PUSH2 0x46 JUMPI RETURNDATASIZE PUSH1 0x0 DUP1 RETURNDATACOPY RETURNDATASIZE PUSH1 0x0 REVERT JUMPDEST POP PUSH1 0x0 DUP1 PUSH2 0x100 EXP DUP2 SLOAD DUP2 PUSH20 0xFFFFFFFFFFFFFFFFFFFFFFFFFFFFFFFFFFFFFFFF MUL NOT AND SWAP1 DUP4 PUSH20 0xFFFFFFFFFFFFFFFFFFFFFFFFFFFFFFFFFFFFFFFF AND MUL OR SWAP1 SSTORE POP CALLER PUSH1 0x1 PUSH1 0x0 PUSH2 0x100 EXP DUP2 SLOAD DUP2 PUSH20 0xFFFFFFFFFFFFFFFFFFFFFFFFFFFFFFFFFFFFFFFF MUL NOT AND SWAP1 DUP4 PUSH20 0xFFFFFFFFFFFFFFFFFFFFFFFFFFFFFFFFFFFFFFFF AND MUL OR SWAP1 SSTORE POP PUSH2 0x11F JUMP JUMPDEST PUSH2 0xE7F DUP1 PUSH2 0xEBA DUP4 CODECOPY ADD SWAP1 JUMP JUMPDEST PUSH2 0xE2 DUP2 PUSH2 0x10D JUMP JUMPDEST DUP3 MSTORE POP POP JUMP JUMPDEST PUSH1 0x0 PUSH1 0x20 DUP3 ADD SWAP1 POP PUSH2 0xFD PUSH1 0x0 DUP4 ADD DUP5 PUSH2 0xD9 JUMP JUMPDEST SWAP3 SWAP2 POP POP JUMP JUMPDEST PUSH1 0x0 DUP2 SWAP1 POP SWAP2 SWAP1 POP JUMP JUMPDEST PUSH1 0x0 PUSH2 0x118 DUP3 PUSH2 0x103 JUMP JUMPDEST SWAP1 POP SWAP2 SWAP1 POP JUMP JUMPDEST PUSH2 0xD8C DUP1 PUSH2 0x12E PUSH1 0x0 CODECOPY PUSH1 0x0 RETURN INVALID PUSH1 0x80 PUSH1 0x40 MSTORE PUSH1 0x4 CALLDATASIZE LT PUSH2 0x70 JUMPI PUSH1 0x0 CALLDATALOAD PUSH1 0xE0 SHR DUP1 PUSH4 0xCE8F2F38 GT PUSH2 0x4E JUMPI DUP1 PUSH4 0xCE8F2F38 EQ PUSH2 0xF4 JUMPI DUP1 PUSH4 0xD00DF296 EQ PUSH2 0x131 JUMPI DUP1 PUSH4 0xE33F34A0 EQ PUSH2 0x170 JUMPI DUP1 PUSH4 0xF7774091 EQ PUSH2 0x19B JUMPI PUSH2 0x70 JUMP JUMPDEST DUP1 PUSH4 0x1246F6E2 EQ PUSH2 0x75 JUMPI DUP1 PUSH4 0x722713F7 EQ PUSH2 0x9E JUMPI DUP1 PUSH4 0x8DA5CB5B EQ PUSH2 0xC9 JUMPI JUMPDEST PUSH1 0x0 DUP1 REVERT JUMPDEST CALLVALUE DUP1 ISZERO PUSH2 0x81 JUMPI PUSH1 0x0 DUP1 REVERT JUMPDEST POP PUSH2 0x9C PUSH1 0x4 DUP1 CALLDATASIZE SUB DUP2 ADD SWAP1 PUSH2 0x97 SWAP2 SWAP1 PUSH2 0x8A4 JUMP JUMPDEST PUSH2 0x1B7 JUMP JUMPDEST STOP JUMPDEST CALLVALUE DUP1 ISZERO PUSH2 0xAA JUMPI PUSH1 0x0 DUP1 REVERT JUMPDEST POP PUSH2 0xB3 PUSH2 0x2D8 JUMP JUMPDEST PUSH1 0x40 MLOAD PUSH2 0xC0 SWAP2 SWAP1 PUSH2 0xB9E JUMP JUMPDEST PUSH1 0x40 MLOAD DUP1 SWAP2 SUB SWAP1 RETURN JUMPDEST CALLVALUE DUP1 ISZERO PUSH2 0xD5 JUMPI PUSH1 0x0 DUP1 REVERT JUMPDEST POP PUSH2 0xDE PUSH2 0x389 JUMP JUMPDEST PUSH1 0x40 MLOAD PUSH2 0xEB SWAP2 SWAP1 PUSH2 0xABC JUMP JUMPDEST PUSH1 0x40 MLOAD DUP1 SWAP2 SUB SWAP1 RETURN JUMPDEST CALLVALUE DUP1 ISZERO PUSH2 0x100 JUMPI PUSH1 0x0 DUP1 REVERT JUMPDEST POP PUSH2 0x11B PUSH1 0x4 DUP1 CALLDATASIZE SUB DUP2 ADD SWAP1 PUSH2 0x116 SWAP2 SWAP1 PUSH2 0x811 JUMP JUMPDEST PUSH2 0x3AF JUMP JUMPDEST PUSH1 0x40 MLOAD PUSH2 0x128 SWAP2 SWAP1 PUSH2 0xB9E JUMP JUMPDEST PUSH1 0x40 MLOAD DUP1 SWAP2 SUB SWAP1 RETURN JUMPDEST CALLVALUE DUP1 ISZERO PUSH2 0x13D JUMPI PUSH1 0x0 DUP1 REVERT JUMPDEST POP PUSH2 0x158 PUSH1 0x4 DUP1 CALLDATASIZE SUB DUP2 ADD SWAP1 PUSH2 0x153 SWAP2 SWAP1 PUSH2 0x863 JUMP JUMPDEST PUSH2 0x3CD JUMP JUMPDEST PUSH1 0x40 MLOAD PUSH2 0x167 SWAP4 SWAP3 SWAP2 SWAP1 PUSH2 0xB00 JUMP JUMPDEST PUSH1 0x40 MLOAD DUP1 SWAP2 SUB SWAP1 RETURN JUMPDEST CALLVALUE DUP1 ISZERO PUSH2 0x17C JUMPI PUSH1 0x0 DUP1 REVERT JUMPDEST POP PUSH2 0x185 PUSH2 0x4B2 JUMP JUMPDEST PUSH1 0x40 MLOAD PUSH2 0x192 SWAP2 SWAP1 PUSH2 0xB9E JUMP JUMPDEST PUSH1 0x40 MLOAD DUP1 SWAP2 SUB SWAP1 RETURN JUMPDEST PUSH2 0x1B5 PUSH1 0x4 DUP1 CALLDATASIZE SUB DUP2 ADD SWAP1 PUSH2 0x1B0 SWAP2 SWAP1 PUSH2 0x8A4 JUMP JUMPDEST PUSH2 0x563 JUMP JUMPDEST STOP JUMPDEST CALLER PUSH1 0x1 PUSH1 0x0 SWAP1 SLOAD SWAP1 PUSH2 0x100 EXP SWAP1 DIV PUSH20 0xFFFFFFFFFFFFFFFFFFFFFFFFFFFFFFFFFFFFFFFF AND PUSH20 0xFFFFFFFFFFFFFFFFFFFFFFFFFFFFFFFFFFFFFFFF AND DUP2 PUSH20 0xFFFFFFFFFFFFFFFFFFFFFFFFFFFFFFFFFFFFFFFF AND EQ PUSH2 0x248 JUMPI PUSH1 0x40 MLOAD PUSH32 0x8C379A000000000000000000000000000000000000000000000000000000000 DUP2 MSTORE PUSH1 0x4 ADD PUSH2 0x23F SWAP1 PUSH2 0xB3E JUMP JUMPDEST PUSH1 0x40 MLOAD DUP1 SWAP2 SUB SWAP1 REVERT JUMPDEST PUSH1 0x0 DUP1 SWAP1 SLOAD SWAP1 PUSH2 0x100 EXP SWAP1 DIV PUSH20 0xFFFFFFFFFFFFFFFFFFFFFFFFFFFFFFFFFFFFFFFF AND PUSH20 0xFFFFFFFFFFFFFFFFFFFFFFFFFFFFFFFFFFFFFFFF AND PUSH4 0x1D43CC98 DUP4 PUSH1 0x40 MLOAD DUP3 PUSH4 0xFFFFFFFF AND PUSH1 0xE0 SHL DUP2 MSTORE PUSH1 0x4 ADD PUSH2 0x2A2 SWAP2 SWAP1 PUSH2 0xB9E JUMP JUMPDEST PUSH1 0x0 PUSH1 0x40 MLOAD DUP1 DUP4 SUB DUP2 PUSH1 0x0 DUP8 DUP1 EXTCODESIZE ISZERO DUP1 ISZERO PUSH2 0x2BC JUMPI PUSH1 0x0 DUP1 REVERT JUMPDEST POP GAS CALL ISZERO DUP1 ISZERO PUSH2 0x2D0 JUMPI RETURNDATASIZE PUSH1 0x0 DUP1 RETURNDATACOPY RETURNDATASIZE PUSH1 0x0 REVERT JUMPDEST POP POP POP POP POP POP JUMP JUMPDEST PUSH1 0x0 DUP1 PUSH1 0x0 SWAP1 SLOAD SWAP1 PUSH2 0x100 EXP SWAP1 DIV PUSH20 0xFFFFFFFFFFFFFFFFFFFFFFFFFFFFFFFFFFFFFFFF AND PUSH20 0xFFFFFFFFFFFFFFFFFFFFFFFFFFFFFFFFFFFFFFFF AND PUSH4 0x70A08231 ADDRESS PUSH1 0x40 MLOAD DUP3 PUSH4 0xFFFFFFFF AND PUSH1 0xE0 SHL DUP2 MSTORE PUSH1 0x4 ADD PUSH2 0x334 SWAP2 SWAP1 PUSH2 0xA86 JUMP JUMPDEST PUSH1 0x20 PUSH1 0x40 MLOAD DUP1 DUP4 SUB DUP2 DUP7 DUP1 EXTCODESIZE ISZERO DUP1 ISZERO PUSH2 0x34C JUMPI PUSH1 0x0 DUP1 REVERT JUMPDEST POP GAS STATICCALL ISZERO DUP1 ISZERO PUSH2 0x360 JUMPI RETURNDATASIZE PUSH1 0x0 DUP1 RETURNDATACOPY RETURNDATASIZE PUSH1 0x0 REVERT JUMPDEST POP POP POP POP PUSH1 0x40 MLOAD RETURNDATASIZE PUSH1 0x1F NOT PUSH1 0x1F DUP3 ADD AND DUP3 ADD DUP1 PUSH1 0x40 MSTORE POP DUP2 ADD SWAP1 PUSH2 0x384 SWAP2 SWAP1 PUSH2 0x8CD JUMP JUMPDEST SWAP1 POP SWAP1 JUMP JUMPDEST PUSH1 0x1 PUSH1 0x0 SWAP1 SLOAD SWAP1 PUSH2 0x100 EXP SWAP1 DIV PUSH20 0xFFFFFFFFFFFFFFFFFFFFFFFFFFFFFFFFFFFFFFFF AND DUP2 JUMP JUMPDEST PUSH1 0x2 PUSH1 0x20 MSTORE DUP1 PUSH1 0x0 MSTORE PUSH1 0x40 PUSH1 0x0 KECCAK256 PUSH1 0x0 SWAP2 POP SWAP1 POP DUP1 PUSH1 0x0 ADD SLOAD SWAP1 POP DUP2 JUMP JUMPDEST PUSH1 0x3 DUP2 DUP1 MLOAD PUSH1 0x20 DUP2 ADD DUP3 ADD DUP1 MLOAD DUP5 DUP3 MSTORE PUSH1 0x20 DUP4 ADD PUSH1 0x20 DUP6 ADD KECCAK256 DUP2 DUP4 MSTORE DUP1 SWAP6 POP POP POP POP POP POP PUSH1 0x0 SWAP2 POP SWAP1 POP DUP1 PUSH1 0x0 ADD DUP1 SLOAD PUSH1 0x1 DUP2 PUSH1 0x1 AND ISZERO PUSH2 0x100 MUL SUB AND PUSH1 0x2 SWAP1 DIV DUP1 PUSH1 0x1F ADD PUSH1 0x20 DUP1 SWAP2 DIV MUL PUSH1 0x20 ADD PUSH1 0x40 MLOAD SWAP1 DUP2 ADD PUSH1 0x40 MSTORE DUP1 SWAP3 SWAP2 SWAP1 DUP2 DUP2 MSTORE PUSH1 0x20 ADD DUP3 DUP1 SLOAD PUSH1 0x1 DUP2 PUSH1 0x1 AND ISZERO PUSH2 0x100 MUL SUB AND PUSH1 0x2 SWAP1 DIV DUP1 ISZERO PUSH2 0x48F JUMPI DUP1 PUSH1 0x1F LT PUSH2 0x464 JUMPI PUSH2 0x100 DUP1 DUP4 SLOAD DIV MUL DUP4 MSTORE SWAP2 PUSH1 0x20 ADD SWAP2 PUSH2 0x48F JUMP JUMPDEST DUP3 ADD SWAP2 SWAP1 PUSH1 0x0 MSTORE PUSH1 0x20 PUSH1 0x0 KECCAK256 SWAP1 JUMPDEST DUP2 SLOAD DUP2 MSTORE SWAP1 PUSH1 0x1 ADD SWAP1 PUSH1 0x20 ADD DUP1 DUP4 GT PUSH2 0x472 JUMPI DUP3 SWAP1 SUB PUSH1 0x1F AND DUP3 ADD SWAP2 JUMPDEST POP POP POP POP POP SWAP1 DUP1 PUSH1 0x1 ADD SLOAD SWAP1 DUP1 PUSH1 0x2 ADD PUSH1 0x0 SWAP1 SLOAD SWAP1 PUSH2 0x100 EXP SWAP1 DIV PUSH1 0xFF AND SWAP1 POP DUP4 JUMP JUMPDEST PUSH1 0x0 DUP1 PUSH1 0x0 SWAP1 SLOAD SWAP1 PUSH2 0x100 EXP SWAP1 DIV PUSH20 0xFFFFFFFFFFFFFFFFFFFFFFFFFFFFFFFFFFFFFFFF AND PUSH20 0xFFFFFFFFFFFFFFFFFFFFFFFFFFFFFFFFFFFFFFFF AND PUSH4 0x70A08231 CALLER PUSH1 0x40 MLOAD DUP3 PUSH4 0xFFFFFFFF AND PUSH1 0xE0 SHL DUP2 MSTORE PUSH1 0x4 ADD PUSH2 0x50E SWAP2 SWAP1 PUSH2 0xAA1 JUMP JUMPDEST PUSH1 0x20 PUSH1 0x40 MLOAD DUP1 DUP4 SUB DUP2 DUP7 DUP1 EXTCODESIZE ISZERO DUP1 ISZERO PUSH2 0x526 JUMPI PUSH1 0x0 DUP1 REVERT JUMPDEST POP GAS STATICCALL ISZERO DUP1 ISZERO PUSH2 0x53A JUMPI RETURNDATASIZE PUSH1 0x0 DUP1 RETURNDATACOPY RETURNDATASIZE PUSH1 0x0 REVERT JUMPDEST POP POP POP POP PUSH1 0x40 MLOAD RETURNDATASIZE PUSH1 0x1F NOT PUSH1 0x1F DUP3 ADD AND DUP3 ADD DUP1 PUSH1 0x40 MSTORE POP DUP2 ADD SWAP1 PUSH2 0x55E SWAP2 SWAP1 PUSH2 0x8CD JUMP JUMPDEST SWAP1 POP SWAP1 JUMP JUMPDEST PUSH1 0x0 PUSH2 0x56E DUP3 PUSH2 0x755 JUMP JUMPDEST SWAP1 POP DUP1 CALLVALUE LT ISZERO PUSH2 0x5B3 JUMPI PUSH1 0x40 MLOAD PUSH32 0x8C379A000000000000000000000000000000000000000000000000000000000 DUP2 MSTORE PUSH1 0x4 ADD PUSH2 0x5AA SWAP1 PUSH2 0xB5E JUMP JUMPDEST PUSH1 0x40 MLOAD DUP1 SWAP2 SUB SWAP1 REVERT JUMPDEST PUSH1 0x0 DUP2 CALLVALUE SUB SWAP1 POP CALLER PUSH20 0xFFFFFFFFFFFFFFFFFFFFFFFFFFFFFFFFFFFFFFFF AND PUSH2 0x8FC DUP3 SWAP1 DUP2 ISZERO MUL SWAP1 PUSH1 0x40 MLOAD PUSH1 0x0 PUSH1 0x40 MLOAD DUP1 DUP4 SUB DUP2 DUP6 DUP9 DUP9 CALL SWAP4 POP POP POP POP ISZERO DUP1 ISZERO PUSH2 0x600 JUMPI RETURNDATASIZE PUSH1 0x0 DUP1 RETURNDATACOPY RETURNDATASIZE PUSH1 0x0 REVERT JUMPDEST POP PUSH1 0x0 PUSH2 0x60B PUSH2 0x2D8 JUMP JUMPDEST SWAP1 POP DUP1 DUP5 GT ISZERO PUSH2 0x650 JUMPI PUSH1 0x40 MLOAD PUSH32 0x8C379A000000000000000000000000000000000000000000000000000000000 DUP2 MSTORE PUSH1 0x4 ADD PUSH2 0x647 SWAP1 PUSH2 0xB7E JUMP JUMPDEST PUSH1 0x40 MLOAD DUP1 SWAP2 SUB SWAP1 REVERT JUMPDEST PUSH1 0x0 DUP1 SWAP1 SLOAD SWAP1 PUSH2 0x100 EXP SWAP1 DIV PUSH20 0xFFFFFFFFFFFFFFFFFFFFFFFFFFFFFFFFFFFFFFFF AND PUSH20 0xFFFFFFFFFFFFFFFFFFFFFFFFFFFFFFFFFFFFFFFF AND PUSH4 0xA9059CBB CALLER DUP7 PUSH1 0x40 MLOAD DUP4 PUSH4 0xFFFFFFFF AND PUSH1 0xE0 SHL DUP2 MSTORE PUSH1 0x4 ADD PUSH2 0x6AC SWAP3 SWAP2 SWAP1 PUSH2 0xAD7 JUMP JUMPDEST PUSH1 0x20 PUSH1 0x40 MLOAD DUP1 DUP4 SUB DUP2 PUSH1 0x0 DUP8 DUP1 EXTCODESIZE ISZERO DUP1 ISZERO PUSH2 0x6C6 JUMPI PUSH1 0x0 DUP1 REVERT JUMPDEST POP GAS CALL ISZERO DUP1 ISZERO PUSH2 0x6DA JUMPI RETURNDATASIZE PUSH1 0x0 DUP1 RETURNDATACOPY RETURNDATASIZE PUSH1 0x0 REVERT JUMPDEST POP POP POP POP PUSH1 0x40 MLOAD RETURNDATASIZE PUSH1 0x1F NOT PUSH1 0x1F DUP3 ADD AND DUP3 ADD DUP1 PUSH1 0x40 MSTORE POP DUP2 ADD SWAP1 PUSH2 0x6FE SWAP2 SWAP1 PUSH2 0x83A JUMP JUMPDEST POP DUP4 PUSH1 0x2 PUSH1 0x0 CALLER PUSH20 0xFFFFFFFFFFFFFFFFFFFFFFFFFFFFFFFFFFFFFFFF AND PUSH20 0xFFFFFFFFFFFFFFFFFFFFFFFFFFFFFFFFFFFFFFFF AND DUP2 MSTORE PUSH1 0x20 ADD SWAP1 DUP2 MSTORE PUSH1 0x20 ADD PUSH1 0x0 KECCAK256 PUSH1 0x0 ADD PUSH1 0x0 DUP3 DUP3 SLOAD ADD SWAP3 POP POP DUP2 SWAP1 SSTORE POP POP POP POP POP JUMP JUMPDEST PUSH1 0x0 PUSH8 0x16345785D8A0000 DUP3 MUL SWAP1 POP SWAP2 SWAP1 POP JUMP JUMPDEST PUSH1 0x0 DUP2 CALLDATALOAD SWAP1 POP PUSH2 0x778 DUP2 PUSH2 0xD11 JUMP JUMPDEST SWAP3 SWAP2 POP POP JUMP JUMPDEST PUSH1 0x0 DUP2 MLOAD SWAP1 POP PUSH2 0x78D DUP2 PUSH2 0xD28 JUMP JUMPDEST SWAP3 SWAP2 POP POP JUMP JUMPDEST PUSH1 0x0 DUP3 PUSH1 0x1F DUP4 ADD SLT PUSH2 0x7A4 JUMPI PUSH1 0x0 DUP1 REVERT JUMPDEST DUP2 CALLDATALOAD PUSH2 0x7B7 PUSH2 0x7B2 DUP3 PUSH2 0xBE6 JUMP JUMPDEST PUSH2 0xBB9 JUMP JUMPDEST SWAP2 POP DUP1 DUP3 MSTORE PUSH1 0x20 DUP4 ADD PUSH1 0x20 DUP4 ADD DUP6 DUP4 DUP4 ADD GT ISZERO PUSH2 0x7D3 JUMPI PUSH1 0x0 DUP1 REVERT JUMPDEST PUSH2 0x7DE DUP4 DUP3 DUP5 PUSH2 0xCBE JUMP JUMPDEST POP POP POP SWAP3 SWAP2 POP POP JUMP JUMPDEST PUSH1 0x0 DUP2 CALLDATALOAD SWAP1 POP PUSH2 0x7F6 DUP2 PUSH2 0xD3F JUMP JUMPDEST SWAP3 SWAP2 POP POP JUMP JUMPDEST PUSH1 0x0 DUP2 MLOAD SWAP1 POP PUSH2 0x80B DUP2 PUSH2 0xD3F JUMP JUMPDEST SWAP3 SWAP2 POP POP JUMP JUMPDEST PUSH1 0x0 PUSH1 0x20 DUP3 DUP5 SUB SLT ISZERO PUSH2 0x823 JUMPI PUSH1 0x0 DUP1 REVERT JUMPDEST PUSH1 0x0 PUSH2 0x831 DUP5 DUP3 DUP6 ADD PUSH2 0x769 JUMP JUMPDEST SWAP2 POP POP SWAP3 SWAP2 POP POP JUMP JUMPDEST PUSH1 0x0 PUSH1 0x20 DUP3 DUP5 SUB SLT ISZERO PUSH2 0x84C JUMPI PUSH1 0x0 DUP1 REVERT JUMPDEST PUSH1 0x0 PUSH2 0x85A DUP5 DUP3 DUP6 ADD PUSH2 0x77E JUMP JUMPDEST SWAP2 POP POP SWAP3 SWAP2 POP POP JUMP JUMPDEST PUSH1 0x0 PUSH1 0x20 DUP3 DUP5 SUB SLT ISZERO PUSH2 0x875 JUMPI PUSH1 0x0 DUP1 REVERT JUMPDEST PUSH1 0x0 DUP3 ADD CALLDATALOAD PUSH8 0xFFFFFFFFFFFFFFFF DUP2 GT ISZERO PUSH2 0x88F JUMPI PUSH1 0x0 DUP1 REVERT JUMPDEST PUSH2 0x89B DUP5 DUP3 DUP6 ADD PUSH2 0x793 JUMP JUMPDEST SWAP2 POP POP SWAP3 SWAP2 POP POP JUMP JUMPDEST PUSH1 0x0 PUSH1 0x20 DUP3 DUP5 SUB SLT ISZERO PUSH2 0x8B6 JUMPI PUSH1 0x0 DUP1 REVERT JUMPDEST PUSH1 0x0 PUSH2 0x8C4 DUP5 DUP3 DUP6 ADD PUSH2 0x7E7 JUMP JUMPDEST SWAP2 POP POP SWAP3 SWAP2 POP POP JUMP JUMPDEST PUSH1 0x0 PUSH1 0x20 DUP3 DUP5 SUB SLT ISZERO PUSH2 0x8DF JUMPI PUSH1 0x0 DUP1 REVERT JUMPDEST PUSH1 0x0 PUSH2 0x8ED DUP5 DUP3 DUP6 ADD PUSH2 0x7FC JUMP JUMPDEST SWAP2 POP POP SWAP3 SWAP2 POP POP JUMP JUMPDEST PUSH2 0x8FF DUP2 PUSH2 0xC88 JUMP JUMPDEST DUP3 MSTORE POP POP JUMP JUMPDEST PUSH2 0x90E DUP2 PUSH2 0xC40 JUMP JUMPDEST DUP3 MSTORE POP POP JUMP JUMPDEST PUSH2 0x91D DUP2 PUSH2 0xC2E JUMP JUMPDEST DUP3 MSTORE POP POP JUMP JUMPDEST PUSH2 0x92C DUP2 PUSH2 0xC52 JUMP JUMPDEST DUP3 MSTORE POP POP JUMP JUMPDEST PUSH1 0x0 PUSH2 0x93D DUP3 PUSH2 0xC12 JUMP JUMPDEST PUSH2 0x947 DUP2 DUP6 PUSH2 0xC1D JUMP JUMPDEST SWAP4 POP PUSH2 0x957 DUP2 DUP6 PUSH1 0x20 DUP7 ADD PUSH2 0xCCD JUMP JUMPDEST PUSH2 0x960 DUP2 PUSH2 0xD00 JUMP JUMPDEST DUP5 ADD SWAP2 POP POP SWAP3 SWAP2 POP POP JUMP JUMPDEST PUSH1 0x0 PUSH2 0x978 PUSH1 0x2E DUP4 PUSH2 0xC1D JUMP JUMPDEST SWAP2 POP PUSH32 0x4E6F207469656E6573207065726D69736F73207061726120656A656375746172 PUSH1 0x0 DUP4 ADD MSTORE PUSH32 0x20657374612066756E63696F6E2E000000000000000000000000000000000000 PUSH1 0x20 DUP4 ADD MSTORE PUSH1 0x40 DUP3 ADD SWAP1 POP SWAP2 SWAP1 POP JUMP JUMPDEST PUSH1 0x0 PUSH2 0x9DE PUSH1 0x2A DUP4 PUSH2 0xC1D JUMP JUMPDEST SWAP2 POP PUSH32 0x436F6D707261206D656E6F7320546F6B656E73206F207061676120636F6E206D PUSH1 0x0 DUP4 ADD MSTORE PUSH32 0x6173206574686572732E00000000000000000000000000000000000000000000 PUSH1 0x20 DUP4 ADD MSTORE PUSH1 0x40 DUP3 ADD SWAP1 POP SWAP2 SWAP1 POP JUMP JUMPDEST PUSH1 0x0 PUSH2 0xA44 PUSH1 0x20 DUP4 PUSH2 0xC1D JUMP JUMPDEST SWAP2 POP PUSH32 0x436F6D70726120756E206E756D65726F206D656E6F7220646520546F6B656E73 PUSH1 0x0 DUP4 ADD MSTORE PUSH1 0x20 DUP3 ADD SWAP1 POP SWAP2 SWAP1 POP JUMP JUMPDEST PUSH2 0xA80 DUP2 PUSH2 0xC7E JUMP JUMPDEST DUP3 MSTORE POP POP JUMP JUMPDEST PUSH1 0x0 PUSH1 0x20 DUP3 ADD SWAP1 POP PUSH2 0xA9B PUSH1 0x0 DUP4 ADD DUP5 PUSH2 0x914 JUMP JUMPDEST SWAP3 SWAP2 POP POP JUMP JUMPDEST PUSH1 0x0 PUSH1 0x20 DUP3 ADD SWAP1 POP PUSH2 0xAB6 PUSH1 0x0 DUP4 ADD DUP5 PUSH2 0x8F6 JUMP JUMPDEST SWAP3 SWAP2 POP POP JUMP JUMPDEST PUSH1 0x0 PUSH1 0x20 DUP3 ADD SWAP1 POP PUSH2 0xAD1 PUSH1 0x0 DUP4 ADD DUP5 PUSH2 0x905 JUMP JUMPDEST SWAP3 SWAP2 POP POP JUMP JUMPDEST PUSH1 0x0 PUSH1 0x40 DUP3 ADD SWAP1 POP PUSH2 0xAEC PUSH1 0x0 DUP4 ADD DUP6 PUSH2 0x8F6 JUMP JUMPDEST PUSH2 0xAF9 PUSH1 0x20 DUP4 ADD DUP5 PUSH2 0xA77 JUMP JUMPDEST SWAP4 SWAP3 POP POP POP JUMP JUMPDEST PUSH1 0x0 PUSH1 0x60 DUP3 ADD SWAP1 POP DUP2 DUP2 SUB PUSH1 0x0 DUP4 ADD MSTORE PUSH2 0xB1A DUP2 DUP7 PUSH2 0x932 JUMP JUMPDEST SWAP1 POP PUSH2 0xB29 PUSH1 0x20 DUP4 ADD DUP6 PUSH2 0xA77 JUMP JUMPDEST PUSH2 0xB36 PUSH1 0x40 DUP4 ADD DUP5 PUSH2 0x923 JUMP JUMPDEST SWAP5 SWAP4 POP POP POP POP JUMP JUMPDEST PUSH1 0x0 PUSH1 0x20 DUP3 ADD SWAP1 POP DUP2 DUP2 SUB PUSH1 0x0 DUP4 ADD MSTORE PUSH2 0xB57 DUP2 PUSH2 0x96B JUMP JUMPDEST SWAP1 POP SWAP2 SWAP1 POP JUMP JUMPDEST PUSH1 0x0 PUSH1 0x20 DUP3 ADD SWAP1 POP DUP2 DUP2 SUB PUSH1 0x0 DUP4 ADD MSTORE PUSH2 0xB77 DUP2 PUSH2 0x9D1 JUMP JUMPDEST SWAP1 POP SWAP2 SWAP1 POP JUMP JUMPDEST PUSH1 0x0 PUSH1 0x20 DUP3 ADD SWAP1 POP DUP2 DUP2 SUB PUSH1 0x0 DUP4 ADD MSTORE PUSH2 0xB97 DUP2 PUSH2 0xA37 JUMP JUMPDEST SWAP1 POP SWAP2 SWAP1 POP JUMP JUMPDEST PUSH1 0x0 PUSH1 0x20 DUP3 ADD SWAP1 POP PUSH2 0xBB3 PUSH1 0x0 DUP4 ADD DUP5 PUSH2 0xA77 JUMP JUMPDEST SWAP3 SWAP2 POP POP JUMP JUMPDEST PUSH1 0x0 PUSH1 0x40 MLOAD SWAP1 POP DUP2 DUP2 ADD DUP2 DUP2 LT PUSH8 0xFFFFFFFFFFFFFFFF DUP3 GT OR ISZERO PUSH2 0xBDC JUMPI PUSH1 0x0 DUP1 REVERT JUMPDEST DUP1 PUSH1 0x40 MSTORE POP SWAP2 SWAP1 POP JUMP JUMPDEST PUSH1 0x0 PUSH8 0xFFFFFFFFFFFFFFFF DUP3 GT ISZERO PUSH2 0xBFD JUMPI PUSH1 0x0 DUP1 REVERT JUMPDEST PUSH1 0x1F NOT PUSH1 0x1F DUP4 ADD AND SWAP1 POP PUSH1 0x20 DUP2 ADD SWAP1 POP SWAP2 SWAP1 POP JUMP JUMPDEST PUSH1 0x0 DUP2 MLOAD SWAP1 POP SWAP2 SWAP1 POP JUMP JUMPDEST PUSH1 0x0 DUP3 DUP3 MSTORE PUSH1 0x20 DUP3 ADD SWAP1 POP SWAP3 SWAP2 POP POP JUMP JUMPDEST PUSH1 0x0 PUSH2 0xC39 DUP3 PUSH2 0xC5E JUMP JUMPDEST SWAP1 POP SWAP2 SWAP1 POP JUMP JUMPDEST PUSH1 0x0 PUSH2 0xC4B DUP3 PUSH2 0xC5E JUMP JUMPDEST SWAP1 POP SWAP2 SWAP1 POP JUMP JUMPDEST PUSH1 0x0 DUP2 ISZERO ISZERO SWAP1 POP SWAP2 SWAP1 POP JUMP JUMPDEST PUSH1 0x0 PUSH20 0xFFFFFFFFFFFFFFFFFFFFFFFFFFFFFFFFFFFFFFFF DUP3 AND SWAP1 POP SWAP2 SWAP1 POP JUMP JUMPDEST PUSH1 0x0 DUP2 SWAP1 POP SWAP2 SWAP1 POP JUMP JUMPDEST PUSH1 0x0 PUSH2 0xC93 DUP3 PUSH2 0xC9A JUMP JUMPDEST SWAP1 POP SWAP2 SWAP1 POP JUMP JUMPDEST PUSH1 0x0 PUSH2 0xCA5 DUP3 PUSH2 0xCAC JUMP JUMPDEST SWAP1 POP SWAP2 SWAP1 POP JUMP JUMPDEST PUSH1 0x0 PUSH2 0xCB7 DUP3 PUSH2 0xC5E JUMP JUMPDEST SWAP1 POP SWAP2 SWAP1 POP JUMP JUMPDEST DUP3 DUP2 DUP4 CALLDATACOPY PUSH1 0x0 DUP4 DUP4 ADD MSTORE POP POP POP JUMP JUMPDEST PUSH1 0x0 JUMPDEST DUP4 DUP2 LT ISZERO PUSH2 0xCEB JUMPI DUP1 DUP3 ADD MLOAD DUP2 DUP5 ADD MSTORE PUSH1 0x20 DUP2 ADD SWAP1 POP PUSH2 0xCD0 JUMP JUMPDEST DUP4 DUP2 GT ISZERO PUSH2 0xCFA JUMPI PUSH1 0x0 DUP5 DUP5 ADD MSTORE JUMPDEST POP POP POP POP JUMP JUMPDEST PUSH1 0x0 PUSH1 0x1F NOT PUSH1 0x1F DUP4 ADD AND SWAP1 POP SWAP2 SWAP1 POP JUMP JUMPDEST PUSH2 0xD1A DUP2 PUSH2 0xC2E JUMP JUMPDEST DUP2 EQ PUSH2 0xD25 JUMPI PUSH1 0x0 DUP1 REVERT JUMPDEST POP JUMP JUMPDEST PUSH2 0xD31 DUP2 PUSH2 0xC52 JUMP JUMPDEST DUP2 EQ PUSH2 0xD3C JUMPI PUSH1 0x0 DUP1 REVERT JUMPDEST POP JUMP JUMPDEST PUSH2 0xD48 DUP2 PUSH2 0xC7E JUMP JUMPDEST DUP2 EQ PUSH2 0xD53 JUMPI PUSH1 0x0 DUP1 REVERT JUMPDEST POP JUMP INVALID LOG2 PUSH5 0x6970667358 0x22 SLT KECCAK256 0xA5 0xE 0x27 SELFDESTRUCT 0xD0 SWAP15 CODESIZE PUSH12 0x9784D751C684E0195ECFE43F PUSH9 0x524C31F36A2890EBEB RETURN SWAP7 PUSH5 0x736F6C6343 STOP MOD MOD STOP CALLER PUSH1 0x80 PUSH1 0x40 MSTORE CALLVALUE DUP1 ISZERO PUSH2 0x10 JUMPI PUSH1 0x0 DUP1 REVERT JUMPDEST POP PUSH1 0x40 MLOAD PUSH2 0xE7F CODESIZE SUB DUP1 PUSH2 0xE7F DUP4 CODECOPY DUP2 DUP2 ADD PUSH1 0x40 MSTORE DUP2 ADD SWAP1 PUSH2 0x32 SWAP2 SWAP1 PUSH2 0x99 JUMP JUMPDEST DUP1 PUSH1 0x2 DUP2 SWAP1 SSTORE POP PUSH1 0x2 SLOAD PUSH1 0x0 DUP1 CALLER PUSH20 0xFFFFFFFFFFFFFFFFFFFFFFFFFFFFFFFFFFFFFFFF AND PUSH20 0xFFFFFFFFFFFFFFFFFFFFFFFFFFFFFFFFFFFFFFFF AND DUP2 MSTORE PUSH1 0x20 ADD SWAP1 DUP2 MSTORE PUSH1 0x20 ADD PUSH1 0x0 KECCAK256 DUP2 SWAP1 SSTORE POP POP PUSH2 0xE3 JUMP JUMPDEST PUSH1 0x0 DUP2 MLOAD SWAP1 POP PUSH2 0x93 DUP2 PUSH2 0xCC JUMP JUMPDEST SWAP3 SWAP2 POP POP JUMP JUMPDEST PUSH1 0x0 PUSH1 0x20 DUP3 DUP5 SUB SLT ISZERO PUSH2 0xAB JUMPI PUSH1 0x0 DUP1 REVERT JUMPDEST PUSH1 0x0 PUSH2 0xB9 DUP5 DUP3 DUP6 ADD PUSH2 0x84 JUMP JUMPDEST SWAP2 POP POP SWAP3 SWAP2 POP POP JUMP JUMPDEST PUSH1 0x0 DUP2 SWAP1 POP SWAP2 SWAP1 POP JUMP JUMPDEST PUSH2 0xD5 DUP2 PUSH2 0xC2 JUMP JUMPDEST DUP2 EQ PUSH2 0xE0 JUMPI PUSH1 0x0 DUP1 REVERT JUMPDEST POP JUMP JUMPDEST PUSH2 0xD8D DUP1 PUSH2 0xF2 PUSH1 0x0 CODECOPY PUSH1 0x0 RETURN INVALID PUSH1 0x80 PUSH1 0x40 MSTORE CALLVALUE DUP1 ISZERO PUSH2 0x10 JUMPI PUSH1 0x0 DUP1 REVERT JUMPDEST POP PUSH1 0x4 CALLDATASIZE LT PUSH2 0x9E JUMPI PUSH1 0x0 CALLDATALOAD PUSH1 0xE0 SHR DUP1 PUSH4 0x313CE567 GT PUSH2 0x66 JUMPI DUP1 PUSH4 0x313CE567 EQ PUSH2 0x15B JUMPI DUP1 PUSH4 0x70A08231 EQ PUSH2 0x179 JUMPI DUP1 PUSH4 0x95D89B41 EQ PUSH2 0x1A9 JUMPI DUP1 PUSH4 0xA9059CBB EQ PUSH2 0x1C7 JUMPI DUP1 PUSH4 0xDD62ED3E EQ PUSH2 0x1F7 JUMPI PUSH2 0x9E JUMP JUMPDEST DUP1 PUSH4 0x6FDDE03 EQ PUSH2 0xA3 JUMPI DUP1 PUSH4 0x95EA7B3 EQ PUSH2 0xC1 JUMPI DUP1 PUSH4 0x18160DDD EQ PUSH2 0xF1 JUMPI DUP1 PUSH4 0x1D43CC98 EQ PUSH2 0x10F JUMPI DUP1 PUSH4 0x23B872DD EQ PUSH2 0x12B JUMPI JUMPDEST PUSH1 0x0 DUP1 REVERT JUMPDEST PUSH2 0xAB PUSH2 0x227 JUMP JUMPDEST PUSH1 0x40 MLOAD PUSH2 0xB8 SWAP2 SWAP1 PUSH2 0xC1C JUMP JUMPDEST PUSH1 0x40 MLOAD DUP1 SWAP2 SUB SWAP1 RETURN JUMPDEST PUSH2 0xDB PUSH1 0x4 DUP1 CALLDATASIZE SUB DUP2 ADD SWAP1 PUSH2 0xD6 SWAP2 SWAP1 PUSH2 0xB36 JUMP JUMPDEST PUSH2 0x260 JUMP JUMPDEST PUSH1 0x40 MLOAD PUSH2 0xE8 SWAP2 SWAP1 PUSH2 0xC01 JUMP JUMPDEST PUSH1 0x40 MLOAD DUP1 SWAP2 SUB SWAP1 RETURN JUMPDEST PUSH2 0xF9 PUSH2 0x352 JUMP JUMPDEST PUSH1 0x40 MLOAD PUSH2 0x106 SWAP2 SWAP1 PUSH2 0xC3E JUMP JUMPDEST PUSH1 0x40 MLOAD DUP1 SWAP2 SUB SWAP1 RETURN JUMPDEST PUSH2 0x129 PUSH1 0x4 DUP1 CALLDATASIZE SUB DUP2 ADD SWAP1 PUSH2 0x124 SWAP2 SWAP1 PUSH2 0xB72 JUMP JUMPDEST PUSH2 0x35C JUMP JUMPDEST STOP JUMPDEST PUSH2 0x145 PUSH1 0x4 DUP1 CALLDATASIZE SUB DUP2 ADD SWAP1 PUSH2 0x140 SWAP2 SWAP1 PUSH2 0xAE7 JUMP JUMPDEST PUSH2 0x3BB JUMP JUMPDEST PUSH1 0x40 MLOAD PUSH2 0x152 SWAP2 SWAP1 PUSH2 0xC01 JUMP JUMPDEST PUSH1 0x40 MLOAD DUP1 SWAP2 SUB SWAP1 RETURN JUMPDEST PUSH2 0x163 PUSH2 0x736 JUMP JUMPDEST PUSH1 0x40 MLOAD PUSH2 0x170 SWAP2 SWAP1 PUSH2 0xC59 JUMP JUMPDEST PUSH1 0x40 MLOAD DUP1 SWAP2 SUB SWAP1 RETURN JUMPDEST PUSH2 0x193 PUSH1 0x4 DUP1 CALLDATASIZE SUB DUP2 ADD SWAP1 PUSH2 0x18E SWAP2 SWAP1 PUSH2 0xA82 JUMP JUMPDEST PUSH2 0x73B JUMP JUMPDEST PUSH1 0x40 MLOAD PUSH2 0x1A0 SWAP2 SWAP1 PUSH2 0xC3E JUMP JUMPDEST PUSH1 0x40 MLOAD DUP1 SWAP2 SUB SWAP1 RETURN JUMPDEST PUSH2 0x1B1 PUSH2 0x783 JUMP JUMPDEST PUSH1 0x40 MLOAD PUSH2 0x1BE SWAP2 SWAP1 PUSH2 0xC1C JUMP JUMPDEST PUSH1 0x40 MLOAD DUP1 SWAP2 SUB SWAP1 RETURN JUMPDEST PUSH2 0x1E1 PUSH1 0x4 DUP1 CALLDATASIZE SUB DUP2 ADD SWAP1 PUSH2 0x1DC SWAP2 SWAP1 PUSH2 0xB36 JUMP JUMPDEST PUSH2 0x7BC JUMP JUMPDEST PUSH1 0x40 MLOAD PUSH2 0x1EE SWAP2 SWAP1 PUSH2 0xC01 JUMP JUMPDEST PUSH1 0x40 MLOAD DUP1 SWAP2 SUB SWAP1 RETURN JUMPDEST PUSH2 0x211 PUSH1 0x4 DUP1 CALLDATASIZE SUB DUP2 ADD SWAP1 PUSH2 0x20C SWAP2 SWAP1 PUSH2 0xAAB JUMP JUMPDEST PUSH2 0x99E JUMP JUMPDEST PUSH1 0x40 MLOAD PUSH2 0x21E SWAP2 SWAP1 PUSH2 0xC3E JUMP JUMPDEST PUSH1 0x40 MLOAD DUP1 SWAP2 SUB SWAP1 RETURN JUMPDEST PUSH1 0x40 MLOAD DUP1 PUSH1 0x40 ADD PUSH1 0x40 MSTORE DUP1 PUSH1 0x11 DUP2 MSTORE PUSH1 0x20 ADD PUSH32 0x4552433230426C6F636B636861696E415A000000000000000000000000000000 DUP2 MSTORE POP DUP2 JUMP JUMPDEST PUSH1 0x0 DUP2 PUSH1 0x1 PUSH1 0x0 CALLER PUSH20 0xFFFFFFFFFFFFFFFFFFFFFFFFFFFFFFFFFFFFFFFF AND PUSH20 0xFFFFFFFFFFFFFFFFFFFFFFFFFFFFFFFFFFFFFFFF AND DUP2 MSTORE PUSH1 0x20 ADD SWAP1 DUP2 MSTORE PUSH1 0x20 ADD PUSH1 0x0 KECCAK256 PUSH1 0x0 DUP6 PUSH20 0xFFFFFFFFFFFFFFFFFFFFFFFFFFFFFFFFFFFFFFFF AND PUSH20 0xFFFFFFFFFFFFFFFFFFFFFFFFFFFFFFFFFFFFFFFF AND DUP2 MSTORE PUSH1 0x20 ADD SWAP1 DUP2 MSTORE PUSH1 0x20 ADD PUSH1 0x0 KECCAK256 DUP2 SWAP1 SSTORE POP DUP3 PUSH20 0xFFFFFFFFFFFFFFFFFFFFFFFFFFFFFFFFFFFFFFFF AND CALLER PUSH20 0xFFFFFFFFFFFFFFFFFFFFFFFFFFFFFFFFFFFFFFFF AND PUSH32 0x8C5BE1E5EBEC7D5BD14F71427D1E84F3DD0314C0F7B2291E5B200AC8C7C3B925 DUP5 PUSH1 0x40 MLOAD PUSH2 0x340 SWAP2 SWAP1 PUSH2 0xC3E JUMP JUMPDEST PUSH1 0x40 MLOAD DUP1 SWAP2 SUB SWAP1 LOG3 PUSH1 0x1 SWAP1 POP SWAP3 SWAP2 POP POP JUMP JUMPDEST PUSH1 0x0 PUSH1 0x2 SLOAD SWAP1 POP SWAP1 JUMP JUMPDEST DUP1 PUSH1 0x2 PUSH1 0x0 DUP3 DUP3 SLOAD ADD SWAP3 POP POP DUP2 SWAP1 SSTORE POP DUP1 PUSH1 0x0 DUP1 CALLER PUSH20 0xFFFFFFFFFFFFFFFFFFFFFFFFFFFFFFFFFFFFFFFF AND PUSH20 0xFFFFFFFFFFFFFFFFFFFFFFFFFFFFFFFFFFFFFFFF AND DUP2 MSTORE PUSH1 0x20 ADD SWAP1 DUP2 MSTORE PUSH1 0x20 ADD PUSH1 0x0 KECCAK256 PUSH1 0x0 DUP3 DUP3 SLOAD ADD SWAP3 POP POP DUP2 SWAP1 SSTORE POP POP JUMP JUMPDEST PUSH1 0x0 DUP1 PUSH1 0x0 DUP6 PUSH20 0xFFFFFFFFFFFFFFFFFFFFFFFFFFFFFFFFFFFFFFFF AND PUSH20 0xFFFFFFFFFFFFFFFFFFFFFFFFFFFFFFFFFFFFFFFF AND DUP2 MSTORE PUSH1 0x20 ADD SWAP1 DUP2 MSTORE PUSH1 0x20 ADD PUSH1 0x0 KECCAK256 SLOAD DUP3 GT ISZERO PUSH2 0x408 JUMPI PUSH1 0x0 DUP1 REVERT JUMPDEST PUSH1 0x1 PUSH1 0x0 DUP6 PUSH20 0xFFFFFFFFFFFFFFFFFFFFFFFFFFFFFFFFFFFFFFFF AND PUSH20 0xFFFFFFFFFFFFFFFFFFFFFFFFFFFFFFFFFFFFFFFF AND DUP2 MSTORE PUSH1 0x20 ADD SWAP1 DUP2 MSTORE PUSH1 0x20 ADD PUSH1 0x0 KECCAK256 PUSH1 0x0 CALLER PUSH20 0xFFFFFFFFFFFFFFFFFFFFFFFFFFFFFFFFFFFFFFFF AND PUSH20 0xFFFFFFFFFFFFFFFFFFFFFFFFFFFFFFFFFFFFFFFF AND DUP2 MSTORE PUSH1 0x20 ADD SWAP1 DUP2 MSTORE PUSH1 0x20 ADD PUSH1 0x0 KECCAK256 SLOAD DUP3 GT ISZERO PUSH2 0x491 JUMPI PUSH1 0x0 DUP1 REVERT JUMPDEST PUSH2 0x4E2 DUP3 PUSH1 0x0 DUP1 DUP8 PUSH20 0xFFFFFFFFFFFFFFFFFFFFFFFFFFFFFFFFFFFFFFFF AND PUSH20 0xFFFFFFFFFFFFFFFFFFFFFFFFFFFFFFFFFFFFFFFF AND DUP2 MSTORE PUSH1 0x20 ADD SWAP1 DUP2 MSTORE PUSH1 0x20 ADD PUSH1 0x0 KECCAK256 SLOAD PUSH2 0xA25 SWAP1 SWAP2 SWAP1 PUSH4 0xFFFFFFFF AND JUMP JUMPDEST PUSH1 0x0 DUP1 DUP7 PUSH20 0xFFFFFFFFFFFFFFFFFFFFFFFFFFFFFFFFFFFFFFFF AND PUSH20 0xFFFFFFFFFFFFFFFFFFFFFFFFFFFFFFFFFFFFFFFF AND DUP2 MSTORE PUSH1 0x20 ADD SWAP1 DUP2 MSTORE PUSH1 0x20 ADD PUSH1 0x0 KECCAK256 DUP2 SWAP1 SSTORE POP PUSH2 0x5B3 DUP3 PUSH1 0x1 PUSH1 0x0 DUP8 PUSH20 0xFFFFFFFFFFFFFFFFFFFFFFFFFFFFFFFFFFFFFFFF AND PUSH20 0xFFFFFFFFFFFFFFFFFFFFFFFFFFFFFFFFFFFFFFFF AND DUP2 MSTORE PUSH1 0x20 ADD SWAP1 DUP2 MSTORE PUSH1 0x20 ADD PUSH1 0x0 KECCAK256 PUSH1 0x0 CALLER PUSH20 0xFFFFFFFFFFFFFFFFFFFFFFFFFFFFFFFFFFFFFFFF AND PUSH20 0xFFFFFFFFFFFFFFFFFFFFFFFFFFFFFFFFFFFFFFFF AND DUP2 MSTORE PUSH1 0x20 ADD SWAP1 DUP2 MSTORE PUSH1 0x20 ADD PUSH1 0x0 KECCAK256 SLOAD PUSH2 0xA25 SWAP1 SWAP2 SWAP1 PUSH4 0xFFFFFFFF AND JUMP JUMPDEST PUSH1 0x1 PUSH1 0x0 DUP7 PUSH20 0xFFFFFFFFFFFFFFFFFFFFFFFFFFFFFFFFFFFFFFFF AND PUSH20 0xFFFFFFFFFFFFFFFFFFFFFFFFFFFFFFFFFFFFFFFF AND DUP2 MSTORE PUSH1 0x20 ADD SWAP1 DUP2 MSTORE PUSH1 0x20 ADD PUSH1 0x0 KECCAK256 PUSH1 0x0 CALLER PUSH20 0xFFFFFFFFFFFFFFFFFFFFFFFFFFFFFFFFFFFFFFFF AND PUSH20 0xFFFFFFFFFFFFFFFFFFFFFFFFFFFFFFFFFFFFFFFF AND DUP2 MSTORE PUSH1 0x20 ADD SWAP1 DUP2 MSTORE PUSH1 0x20 ADD PUSH1 0x0 KECCAK256 DUP2 SWAP1 SSTORE POP PUSH2 0x684 DUP3 PUSH1 0x0 DUP1 DUP7 PUSH20 0xFFFFFFFFFFFFFFFFFFFFFFFFFFFFFFFFFFFFFFFF AND PUSH20 0xFFFFFFFFFFFFFFFFFFFFFFFFFFFFFFFFFFFFFFFF AND DUP2 MSTORE PUSH1 0x20 ADD SWAP1 DUP2 MSTORE PUSH1 0x20 ADD PUSH1 0x0 KECCAK256 SLOAD PUSH2 0xA3C SWAP1 SWAP2 SWAP1 PUSH4 0xFFFFFFFF AND JUMP JUMPDEST PUSH1 0x0 DUP1 DUP6 PUSH20 0xFFFFFFFFFFFFFFFFFFFFFFFFFFFFFFFFFFFFFFFF AND PUSH20 0xFFFFFFFFFFFFFFFFFFFFFFFFFFFFFFFFFFFFFFFF AND DUP2 MSTORE PUSH1 0x20 ADD SWAP1 DUP2 MSTORE PUSH1 0x20 ADD PUSH1 0x0 KECCAK256 DUP2 SWAP1 SSTORE POP DUP3 PUSH20 0xFFFFFFFFFFFFFFFFFFFFFFFFFFFFFFFFFFFFFFFF AND DUP5 PUSH20 0xFFFFFFFFFFFFFFFFFFFFFFFFFFFFFFFFFFFFFFFF AND PUSH32 0xDDF252AD1BE2C89B69C2B068FC378DAA952BA7F163C4A11628F55A4DF523B3EF DUP5 PUSH1 0x40 MLOAD PUSH2 0x723 SWAP2 SWAP1 PUSH2 0xC3E JUMP JUMPDEST PUSH1 0x40 MLOAD DUP1 SWAP2 SUB SWAP1 LOG3 PUSH1 0x1 SWAP1 POP SWAP4 SWAP3 POP POP POP JUMP JUMPDEST PUSH1 0x12 DUP2 JUMP JUMPDEST PUSH1 0x0 DUP1 PUSH1 0x0 DUP4 PUSH20 0xFFFFFFFFFFFFFFFFFFFFFFFFFFFFFFFFFFFFFFFF AND PUSH20 0xFFFFFFFFFFFFFFFFFFFFFFFFFFFFFFFFFFFFFFFF AND DUP2 MSTORE PUSH1 0x20 ADD SWAP1 DUP2 MSTORE PUSH1 0x20 ADD PUSH1 0x0 KECCAK256 SLOAD SWAP1 POP SWAP2 SWAP1 POP JUMP JUMPDEST PUSH1 0x40 MLOAD DUP1 PUSH1 0x40 ADD PUSH1 0x40 MSTORE DUP1 PUSH1 0x3 DUP2 MSTORE PUSH1 0x20 ADD PUSH32 0x4552430000000000000000000000000000000000000000000000000000000000 DUP2 MSTORE POP DUP2 JUMP JUMPDEST PUSH1 0x0 DUP1 PUSH1 0x0 CALLER PUSH20 0xFFFFFFFFFFFFFFFFFFFFFFFFFFFFFFFFFFFFFFFF AND PUSH20 0xFFFFFFFFFFFFFFFFFFFFFFFFFFFFFFFFFFFFFFFF AND DUP2 MSTORE PUSH1 0x20 ADD SWAP1 DUP2 MSTORE PUSH1 0x20 ADD PUSH1 0x0 KECCAK256 SLOAD DUP3 GT ISZERO PUSH2 0x809 JUMPI PUSH1 0x0 DUP1 REVERT JUMPDEST PUSH2 0x85A DUP3 PUSH1 0x0 DUP1 CALLER PUSH20 0xFFFFFFFFFFFFFFFFFFFFFFFFFFFFFFFFFFFFFFFF AND PUSH20 0xFFFFFFFFFFFFFFFFFFFFFFFFFFFFFFFFFFFFFFFF AND DUP2 MSTORE PUSH1 0x20 ADD SWAP1 DUP2 MSTORE PUSH1 0x20 ADD PUSH1 0x0 KECCAK256 SLOAD PUSH2 0xA25 SWAP1 SWAP2 SWAP1 PUSH4 0xFFFFFFFF AND JUMP JUMPDEST PUSH1 0x0 DUP1 CALLER PUSH20 0xFFFFFFFFFFFFFFFFFFFFFFFFFFFFFFFFFFFFFFFF AND PUSH20 0xFFFFFFFFFFFFFFFFFFFFFFFFFFFFFFFFFFFFFFFF AND DUP2 MSTORE PUSH1 0x20 ADD SWAP1 DUP2 MSTORE PUSH1 0x20 ADD PUSH1 0x0 KECCAK256 DUP2 SWAP1 SSTORE POP PUSH2 0x8ED DUP3 PUSH1 0x0 DUP1 DUP7 PUSH20 0xFFFFFFFFFFFFFFFFFFFFFFFFFFFFFFFFFFFFFFFF AND PUSH20 0xFFFFFFFFFFFFFFFFFFFFFFFFFFFFFFFFFFFFFFFF AND DUP2 MSTORE PUSH1 0x20 ADD SWAP1 DUP2 MSTORE PUSH1 0x20 ADD PUSH1 0x0 KECCAK256 SLOAD PUSH2 0xA3C SWAP1 SWAP2 SWAP1 PUSH4 0xFFFFFFFF AND JUMP JUMPDEST PUSH1 0x0 DUP1 DUP6 PUSH20 0xFFFFFFFFFFFFFFFFFFFFFFFFFFFFFFFFFFFFFFFF AND PUSH20 0xFFFFFFFFFFFFFFFFFFFFFFFFFFFFFFFFFFFFFFFF AND DUP2 MSTORE PUSH1 0x20 ADD SWAP1 DUP2 MSTORE PUSH1 0x20 ADD PUSH1 0x0 KECCAK256 DUP2 SWAP1 SSTORE POP DUP3 PUSH20 0xFFFFFFFFFFFFFFFFFFFFFFFFFFFFFFFFFFFFFFFF AND CALLER PUSH20 0xFFFFFFFFFFFFFFFFFFFFFFFFFFFFFFFFFFFFFFFF AND PUSH32 0xDDF252AD1BE2C89B69C2B068FC378DAA952BA7F163C4A11628F55A4DF523B3EF DUP5 PUSH1 0x40 MLOAD PUSH2 0x98C SWAP2 SWAP1 PUSH2 0xC3E JUMP JUMPDEST PUSH1 0x40 MLOAD DUP1 SWAP2 SUB SWAP1 LOG3 PUSH1 0x1 SWAP1 POP SWAP3 SWAP2 POP POP JUMP JUMPDEST PUSH1 0x0 PUSH1 0x1 PUSH1 0x0 DUP5 PUSH20 0xFFFFFFFFFFFFFFFFFFFFFFFFFFFFFFFFFFFFFFFF AND PUSH20 0xFFFFFFFFFFFFFFFFFFFFFFFFFFFFFFFFFFFFFFFF AND DUP2 MSTORE PUSH1 0x20 ADD SWAP1 DUP2 MSTORE PUSH1 0x20 ADD PUSH1 0x0 KECCAK256 PUSH1 0x0 DUP4 PUSH20 0xFFFFFFFFFFFFFFFFFFFFFFFFFFFFFFFFFFFFFFFF AND PUSH20 0xFFFFFFFFFFFFFFFFFFFFFFFFFFFFFFFFFFFFFFFF AND DUP2 MSTORE PUSH1 0x20 ADD SWAP1 DUP2 MSTORE PUSH1 0x20 ADD PUSH1 0x0 KECCAK256 SLOAD SWAP1 POP SWAP3 SWAP2 POP POP JUMP JUMPDEST PUSH1 0x0 DUP3 DUP3 GT ISZERO PUSH2 0xA31 JUMPI INVALID JUMPDEST DUP2 DUP4 SUB SWAP1 POP SWAP3 SWAP2 POP POP JUMP JUMPDEST PUSH1 0x0 DUP1 DUP3 DUP5 ADD SWAP1 POP DUP4 DUP2 LT ISZERO PUSH2 0xA4E JUMPI INVALID JUMPDEST DUP1 SWAP2 POP POP SWAP3 SWAP2 POP POP JUMP JUMPDEST PUSH1 0x0 DUP2 CALLDATALOAD SWAP1 POP PUSH2 0xA67 DUP2 PUSH2 0xD29 JUMP JUMPDEST SWAP3 SWAP2 POP POP JUMP JUMPDEST PUSH1 0x0 DUP2 CALLDATALOAD SWAP1 POP PUSH2 0xA7C DUP2 PUSH2 0xD40 JUMP JUMPDEST SWAP3 SWAP2 POP POP JUMP JUMPDEST PUSH1 0x0 PUSH1 0x20 DUP3 DUP5 SUB SLT ISZERO PUSH2 0xA94 JUMPI PUSH1 0x0 DUP1 REVERT JUMPDEST PUSH1 0x0 PUSH2 0xAA2 DUP5 DUP3 DUP6 ADD PUSH2 0xA58 JUMP JUMPDEST SWAP2 POP POP SWAP3 SWAP2 POP POP JUMP JUMPDEST PUSH1 0x0 DUP1 PUSH1 0x40 DUP4 DUP6 SUB SLT ISZERO PUSH2 0xABE JUMPI PUSH1 0x0 DUP1 REVERT JUMPDEST PUSH1 0x0 PUSH2 0xACC DUP6 DUP3 DUP7 ADD PUSH2 0xA58 JUMP JUMPDEST SWAP3 POP POP PUSH1 0x20 PUSH2 0xADD DUP6 DUP3 DUP7 ADD PUSH2 0xA58 JUMP JUMPDEST SWAP2 POP POP SWAP3 POP SWAP3 SWAP1 POP JUMP JUMPDEST PUSH1 0x0 DUP1 PUSH1 0x0 PUSH1 0x60 DUP5 DUP7 SUB SLT ISZERO PUSH2 0xAFC JUMPI PUSH1 0x0 DUP1 REVERT JUMPDEST PUSH1 0x0 PUSH2 0xB0A DUP7 DUP3 DUP8 ADD PUSH2 0xA58 JUMP JUMPDEST SWAP4 POP POP PUSH1 0x20 PUSH2 0xB1B DUP7 DUP3 DUP8 ADD PUSH2 0xA58 JUMP JUMPDEST SWAP3 POP POP PUSH1 0x40 PUSH2 0xB2C DUP7 DUP3 DUP8 ADD PUSH2 0xA6D JUMP JUMPDEST SWAP2 POP POP SWAP3 POP SWAP3 POP SWAP3 JUMP JUMPDEST PUSH1 0x0 DUP1 PUSH1 0x40 DUP4 DUP6 SUB SLT ISZERO PUSH2 0xB49 JUMPI PUSH1 0x0 DUP1 REVERT JUMPDEST PUSH1 0x0 PUSH2 0xB57 DUP6 DUP3 DUP7 ADD PUSH2 0xA58 JUMP JUMPDEST SWAP3 POP POP PUSH1 0x20 PUSH2 0xB68 DUP6 DUP3 DUP7 ADD PUSH2 0xA6D JUMP JUMPDEST SWAP2 POP POP SWAP3 POP SWAP3 SWAP1 POP JUMP JUMPDEST PUSH1 0x0 PUSH1 0x20 DUP3 DUP5 SUB SLT ISZERO PUSH2 0xB84 JUMPI PUSH1 0x0 DUP1 REVERT JUMPDEST PUSH1 0x0 PUSH2 0xB92 DUP5 DUP3 DUP6 ADD PUSH2 0xA6D JUMP JUMPDEST SWAP2 POP POP SWAP3 SWAP2 POP POP JUMP JUMPDEST PUSH2 0xBA4 DUP2 PUSH2 0xCA2 JUMP JUMPDEST DUP3 MSTORE POP POP JUMP JUMPDEST PUSH1 0x0 PUSH2 0xBB5 DUP3 PUSH2 0xC74 JUMP JUMPDEST PUSH2 0xBBF DUP2 DUP6 PUSH2 0xC7F JUMP JUMPDEST SWAP4 POP PUSH2 0xBCF DUP2 DUP6 PUSH1 0x20 DUP7 ADD PUSH2 0xCE5 JUMP JUMPDEST PUSH2 0xBD8 DUP2 PUSH2 0xD18 JUMP JUMPDEST DUP5 ADD SWAP2 POP POP SWAP3 SWAP2 POP POP JUMP JUMPDEST PUSH2 0xBEC DUP2 PUSH2 0xCCE JUMP JUMPDEST DUP3 MSTORE POP POP JUMP JUMPDEST PUSH2 0xBFB DUP2 PUSH2 0xCD8 JUMP JUMPDEST DUP3 MSTORE POP POP JUMP JUMPDEST PUSH1 0x0 PUSH1 0x20 DUP3 ADD SWAP1 POP PUSH2 0xC16 PUSH1 0x0 DUP4 ADD DUP5 PUSH2 0xB9B JUMP JUMPDEST SWAP3 SWAP2 POP POP JUMP JUMPDEST PUSH1 0x0 PUSH1 0x20 DUP3 ADD SWAP1 POP DUP2 DUP2 SUB PUSH1 0x0 DUP4 ADD MSTORE PUSH2 0xC36 DUP2 DUP5 PUSH2 0xBAA JUMP JUMPDEST SWAP1 POP SWAP3 SWAP2 POP POP JUMP JUMPDEST PUSH1 0x0 PUSH1 0x20 DUP3 ADD SWAP1 POP PUSH2 0xC53 PUSH1 0x0 DUP4 ADD DUP5 PUSH2 0xBE3 JUMP JUMPDEST SWAP3 SWAP2 POP POP JUMP JUMPDEST PUSH1 0x0 PUSH1 0x20 DUP3 ADD SWAP1 POP PUSH2 0xC6E PUSH1 0x0 DUP4 ADD DUP5 PUSH2 0xBF2 JUMP JUMPDEST SWAP3 SWAP2 POP POP JUMP JUMPDEST PUSH1 0x0 DUP2 MLOAD SWAP1 POP SWAP2 SWAP1 POP JUMP JUMPDEST PUSH1 0x0 DUP3 DUP3 MSTORE PUSH1 0x20 DUP3 ADD SWAP1 POP SWAP3 SWAP2 POP POP JUMP JUMPDEST PUSH1 0x0 PUSH2 0xC9B DUP3 PUSH2 0xCAE JUMP JUMPDEST SWAP1 POP SWAP2 SWAP1 POP JUMP JUMPDEST PUSH1 0x0 DUP2 ISZERO ISZERO SWAP1 POP SWAP2 SWAP1 POP JUMP JUMPDEST PUSH1 0x0 PUSH20 0xFFFFFFFFFFFFFFFFFFFFFFFFFFFFFFFFFFFFFFFF DUP3 AND SWAP1 POP SWAP2 SWAP1 POP JUMP JUMPDEST PUSH1 0x0 DUP2 SWAP1 POP SWAP2 SWAP1 POP JUMP JUMPDEST PUSH1 0x0 PUSH1 0xFF DUP3 AND SWAP1 POP SWAP2 SWAP1 POP JUMP JUMPDEST PUSH1 0x0 JUMPDEST DUP4 DUP2 LT ISZERO PUSH2 0xD03 JUMPI DUP1 DUP3 ADD MLOAD DUP2 DUP5 ADD MSTORE PUSH1 0x20 DUP2 ADD SWAP1 POP PUSH2 0xCE8 JUMP JUMPDEST DUP4 DUP2 GT ISZERO PUSH2 0xD12 JUMPI PUSH1 0x0 DUP5 DUP5 ADD MSTORE JUMPDEST POP POP POP POP JUMP JUMPDEST PUSH1 0x0 PUSH1 0x1F NOT PUSH1 0x1F DUP4 ADD AND SWAP1 POP SWAP2 SWAP1 POP JUMP JUMPDEST PUSH2 0xD32 DUP2 PUSH2 0xC90 JUMP JUMPDEST DUP2 EQ PUSH2 0xD3D JUMPI PUSH1 0x0 DUP1 REVERT JUMPDEST POP JUMP JUMPDEST PUSH2 0xD49 DUP2 PUSH2 0xCCE JUMP JUMPDEST DUP2 EQ PUSH2 0xD54 JUMPI PUSH1 0x0 DUP1 REVERT JUMPDEST POP JUMP INVALID LOG2 PUSH5 0x6970667358 0x22 SLT KECCAK256 DELEGATECALL DUP14 0xE 0x28 GASPRICE 0xE8 ISZERO MULMOD 0xF8 DUP12 PUSH30 0x48D6126E5A2A7F752E9C95B8BC53C98F6BB2AE698364736F6C6343000606 STOP CALLER "
				},
				"gasEstimates": {
					"creation": {
						"codeDepositCost": "693600",
						"executionCost": "infinite",
						"totalCost": "infinite"
					},
					"external": {
						"Clientes(address)": "1528",
						"CompraTokens(uint256)": "infinite",
						"GeneraTokens(uint256)": "infinite",
						"MappingAtracciones(string)": "infinite",
						"MisTokens()": "infinite",
						"balanceOf()": "infinite",
						"owner()": "1259"
					},
					"internal": {
						"PrecioTokens(uint256)": "36"
					}
				},
				"methodIdentifiers": {
					"Clientes(address)": "ce8f2f38",
					"CompraTokens(uint256)": "f7774091",
					"GeneraTokens(uint256)": "1246f6e2",
					"MappingAtracciones(string)": "d00df296",
					"MisTokens()": "e33f34a0",
					"balanceOf()": "722713f7",
					"owner()": "8da5cb5b"
				}
			},
			"storageLayout": {
				"storage": [
					{
						"astId": 435,
						"contract": "DISNEY/disney.sol:Disney",
						"label": "token",
						"offset": 0,
						"slot": "0",
						"type": "t_contract(ERC20Basic)347"
					},
					{
						"astId": 437,
						"contract": "DISNEY/disney.sol:Disney",
						"label": "owner",
						"offset": 0,
						"slot": "1",
						"type": "t_address_payable"
					},
					{
						"astId": 463,
						"contract": "DISNEY/disney.sol:Disney",
						"label": "Clientes",
						"offset": 0,
						"slot": "2",
						"type": "t_mapping(t_address,t_struct(cliente)459_storage)"
					},
					{
						"astId": 616,
						"contract": "DISNEY/disney.sol:Disney",
						"label": "MappingAtracciones",
						"offset": 0,
						"slot": "3",
						"type": "t_mapping(t_string_memory_ptr,t_struct(atraccion)612_storage)"
					},
					{
						"astId": 619,
						"contract": "DISNEY/disney.sol:Disney",
						"label": "Atracciones",
						"offset": 0,
						"slot": "4",
						"type": "t_array(t_string_storage)dyn_storage"
					},
					{
						"astId": 624,
						"contract": "DISNEY/disney.sol:Disney",
						"label": "HistorialAtracciones",
						"offset": 0,
						"slot": "5",
						"type": "t_mapping(t_address,t_array(t_string_storage)dyn_storage)"
					}
				],
				"types": {
					"t_address": {
						"encoding": "inplace",
						"label": "address",
						"numberOfBytes": "20"
					},
					"t_address_payable": {
						"encoding": "inplace",
						"label": "address payable",
						"numberOfBytes": "20"
					},
					"t_array(t_string_storage)dyn_storage": {
						"base": "t_string_storage",
						"encoding": "dynamic_array",
						"label": "string[]",
						"numberOfBytes": "32"
					},
					"t_bool": {
						"encoding": "inplace",
						"label": "bool",
						"numberOfBytes": "1"
					},
					"t_contract(ERC20Basic)347": {
						"encoding": "inplace",
						"label": "contract ERC20Basic",
						"numberOfBytes": "20"
					},
					"t_mapping(t_address,t_array(t_string_storage)dyn_storage)": {
						"encoding": "mapping",
						"key": "t_address",
						"label": "mapping(address => string[])",
						"numberOfBytes": "32",
						"value": "t_array(t_string_storage)dyn_storage"
					},
					"t_mapping(t_address,t_struct(cliente)459_storage)": {
						"encoding": "mapping",
						"key": "t_address",
						"label": "mapping(address => struct Disney.cliente)",
						"numberOfBytes": "32",
						"value": "t_struct(cliente)459_storage"
					},
					"t_mapping(t_string_memory_ptr,t_struct(atraccion)612_storage)": {
						"encoding": "mapping",
						"key": "t_string_memory_ptr",
						"label": "mapping(string => struct Disney.atraccion)",
						"numberOfBytes": "32",
						"value": "t_struct(atraccion)612_storage"
					},
					"t_string_memory_ptr": {
						"encoding": "bytes",
						"label": "string",
						"numberOfBytes": "32"
					},
					"t_string_storage": {
						"encoding": "bytes",
						"label": "string",
						"numberOfBytes": "32"
					},
					"t_struct(atraccion)612_storage": {
						"encoding": "inplace",
						"label": "struct Disney.atraccion",
						"members": [
							{
								"astId": 607,
								"contract": "DISNEY/disney.sol:Disney",
								"label": "nombre_atraccion",
								"offset": 0,
								"slot": "0",
								"type": "t_string_storage"
							},
							{
								"astId": 609,
								"contract": "DISNEY/disney.sol:Disney",
								"label": "precio_atraccion",
								"offset": 0,
								"slot": "1",
								"type": "t_uint256"
							},
							{
								"astId": 611,
								"contract": "DISNEY/disney.sol:Disney",
								"label": "estado_atraccion",
								"offset": 0,
								"slot": "2",
								"type": "t_bool"
							}
						],
						"numberOfBytes": "96"
					},
					"t_struct(cliente)459_storage": {
						"encoding": "inplace",
						"label": "struct Disney.cliente",
						"members": [
							{
								"astId": 455,
								"contract": "DISNEY/disney.sol:Disney",
								"label": "tokens_comprados",
								"offset": 0,
								"slot": "0",
								"type": "t_uint256"
							},
							{
								"astId": 458,
								"contract": "DISNEY/disney.sol:Disney",
								"label": "atracciones_disfrutadas",
								"offset": 0,
								"slot": "1",
								"type": "t_array(t_string_storage)dyn_storage"
							}
						],
						"numberOfBytes": "64"
					},
					"t_uint256": {
						"encoding": "inplace",
						"label": "uint256",
						"numberOfBytes": "32"
					}
				}
			},
			"userdoc": {
				"methods": {}
			}
		}
	}
}