{
	"DISNEY/disney.sol": {
		"Disney": {
			"abi": [
				{
					"inputs": [],
					"stateMutability": "nonpayable",
					"type": "constructor"
				},
				{
					"anonymous": false,
					"inputs": [
						{
							"indexed": false,
							"internalType": "string",
							"name": "",
							"type": "string"
						},
						{
							"indexed": false,
							"internalType": "uint256",
							"name": "",
							"type": "uint256"
						}
					],
					"name": "alta_atraccion",
					"type": "event"
				},
				{
					"anonymous": false,
					"inputs": [
						{
							"indexed": false,
							"internalType": "string",
							"name": "",
							"type": "string"
						},
						{
							"indexed": false,
							"internalType": "uint256",
							"name": "",
							"type": "uint256"
						}
					],
					"name": "alta_comida",
					"type": "event"
				},
				{
					"anonymous": false,
					"inputs": [
						{
							"indexed": false,
							"internalType": "string",
							"name": "",
							"type": "string"
						}
					],
					"name": "baja_atraccion",
					"type": "event"
				},
				{
					"anonymous": false,
					"inputs": [
						{
							"indexed": false,
							"internalType": "string",
							"name": "",
							"type": "string"
						}
					],
					"name": "baja_comida",
					"type": "event"
				},
				{
					"anonymous": false,
					"inputs": [
						{
							"indexed": false,
							"internalType": "string",
							"name": "",
							"type": "string"
						},
						{
							"indexed": false,
							"internalType": "uint256",
							"name": "",
							"type": "uint256"
						},
						{
							"indexed": false,
							"internalType": "address",
							"name": "",
							"type": "address"
						}
					],
					"name": "compra_comida",
					"type": "event"
				},
				{
					"anonymous": false,
					"inputs": [
						{
							"indexed": false,
							"internalType": "string",
							"name": "",
							"type": "string"
						},
						{
							"indexed": false,
							"internalType": "uint256",
							"name": "",
							"type": "uint256"
						},
						{
							"indexed": false,
							"internalType": "address",
							"name": "",
							"type": "address"
						}
					],
					"name": "disfruta_atraccion",
					"type": "event"
				},
				{
					"inputs": [
						{
							"internalType": "string",
							"name": "_nombreAtraccion",
							"type": "string"
						},
						{
							"internalType": "uint256",
							"name": "_precio",
							"type": "uint256"
						}
					],
					"name": "AltaAtraccion",
					"outputs": [],
					"stateMutability": "nonpayable",
					"type": "function"
				},
				{
					"inputs": [
						{
							"internalType": "string",
							"name": "_nombreComida",
							"type": "string"
						},
						{
							"internalType": "uint256",
							"name": "_precio",
							"type": "uint256"
						}
					],
					"name": "AltaComida",
					"outputs": [],
					"stateMutability": "nonpayable",
					"type": "function"
				},
				{
					"inputs": [],
					"name": "AtraccionesDisponibles",
					"outputs": [
						{
							"internalType": "string[]",
							"name": "",
							"type": "string[]"
						}
					],
					"stateMutability": "view",
					"type": "function"
				},
				{
					"inputs": [
						{
							"internalType": "string",
							"name": "_nombreAtraccion",
							"type": "string"
						}
					],
					"name": "BajaAtraccion",
					"outputs": [],
					"stateMutability": "nonpayable",
					"type": "function"
				},
				{
					"inputs": [
						{
							"internalType": "string",
							"name": "_nombreComida",
							"type": "string"
						}
					],
					"name": "BajaComida",
					"outputs": [],
					"stateMutability": "nonpayable",
					"type": "function"
				},
				{
					"inputs": [
						{
							"internalType": "address",
							"name": "",
							"type": "address"
						}
					],
					"name": "Clientes",
					"outputs": [
						{
							"internalType": "uint256",
							"name": "tokens_comprados",
							"type": "uint256"
						}
					],
					"stateMutability": "view",
					"type": "function"
				},
				{
					"inputs": [],
					"name": "ComidasDisponibles",
					"outputs": [
						{
							"internalType": "string[]",
							"name": "",
							"type": "string[]"
						}
					],
					"stateMutability": "view",
					"type": "function"
				},
				{
					"inputs": [
						{
							"internalType": "uint256",
							"name": "_numTokens",
							"type": "uint256"
						}
					],
					"name": "CompraTokens",
					"outputs": [],
					"stateMutability": "payable",
					"type": "function"
				},
				{
					"inputs": [
						{
							"internalType": "string",
							"name": "_nombreComida",
							"type": "string"
						}
					],
					"name": "ComprarComida",
					"outputs": [],
					"stateMutability": "nonpayable",
					"type": "function"
				},
				{
					"inputs": [],
					"name": "ConsultaHistorial",
					"outputs": [
						{
							"internalType": "string[]",
							"name": "",
							"type": "string[]"
						}
					],
					"stateMutability": "view",
					"type": "function"
				},
				{
					"inputs": [],
					"name": "ConsultaHistorialComidas",
					"outputs": [
						{
							"internalType": "string[]",
							"name": "",
							"type": "string[]"
						}
					],
					"stateMutability": "view",
					"type": "function"
				},
				{
					"inputs": [
						{
							"internalType": "uint256",
							"name": "_numTokens",
							"type": "uint256"
						}
					],
					"name": "DevolverTokens",
					"outputs": [],
					"stateMutability": "payable",
					"type": "function"
				},
				{
					"inputs": [
						{
							"internalType": "uint256",
							"name": "_numTokens",
							"type": "uint256"
						}
					],
					"name": "GeneraTokens",
					"outputs": [],
					"stateMutability": "nonpayable",
					"type": "function"
				},
				{
					"inputs": [
						{
							"internalType": "string",
							"name": "",
							"type": "string"
						}
					],
					"name": "MappingAtracciones",
					"outputs": [
						{
							"internalType": "string",
							"name": "nombre_atraccion",
							"type": "string"
						},
						{
							"internalType": "uint256",
							"name": "precio_atraccion",
							"type": "uint256"
						},
						{
							"internalType": "bool",
							"name": "estado_atraccion",
							"type": "bool"
						}
					],
					"stateMutability": "view",
					"type": "function"
				},
				{
					"inputs": [
						{
							"internalType": "string",
							"name": "",
							"type": "string"
						}
					],
					"name": "MappingComida",
					"outputs": [
						{
							"internalType": "string",
							"name": "nombre_comida",
							"type": "string"
						},
						{
							"internalType": "uint256",
							"name": "precio_comida",
							"type": "uint256"
						},
						{
							"internalType": "bool",
							"name": "stock_comida",
							"type": "bool"
						}
					],
					"stateMutability": "view",
					"type": "function"
				},
				{
					"inputs": [],
					"name": "MisTokens",
					"outputs": [
						{
							"internalType": "uint256",
							"name": "",
							"type": "uint256"
						}
					],
					"stateMutability": "view",
					"type": "function"
				},
				{
					"inputs": [
						{
							"internalType": "string",
							"name": "_nombreAtraccion",
							"type": "string"
						}
					],
					"name": "SubirseAtraccion",
					"outputs": [],
					"stateMutability": "nonpayable",
					"type": "function"
				},
				{
					"inputs": [],
					"name": "TotalBalance",
					"outputs": [
						{
							"internalType": "uint256",
							"name": "",
							"type": "uint256"
						}
					],
					"stateMutability": "view",
					"type": "function"
				},
				{
					"inputs": [],
					"name": "owner",
					"outputs": [
						{
							"internalType": "address payable",
							"name": "",
							"type": "address"
						}
					],
					"stateMutability": "view",
					"type": "function"
				}
			],
			"devdoc": {
				"kind": "dev",
				"methods": {},
				"version": 1
			},
			"evm": {
				"assembly": "    /* \"DISNEY/disney.sol\":89:10573  contract Disney {... */\n  mstore(0x40, 0x80)\n    /* \"DISNEY/disney.sol\":366:568  constructor () public {... */\n  callvalue\n  dup1\n  iszero\n  tag_1\n  jumpi\n  0x00\n  dup1\n  revert\ntag_1:\n  pop\n    /* \"DISNEY/disney.sol\":421:426  10000 */\n  0x2710\n    /* \"DISNEY/disney.sol\":406:427  new ERC20Basic(10000) */\n  mload(0x40)\n  tag_4\n  swap1\n  tag_5\n  jump\t// in\ntag_4:\n  tag_6\n  swap2\n  swap1\n  tag_7\n  jump\t// in\ntag_6:\n  mload(0x40)\n  dup1\n  swap2\n  sub\n  swap1\n  0x00\n  create\n  dup1\n  iszero\n  dup1\n  iszero\n  tag_8\n  jumpi\n  returndatasize\n  0x00\n  dup1\n  returndatacopy\n  revert(0x00, returndatasize)\ntag_8:\n  pop\n    /* \"DISNEY/disney.sol\":398:403  token */\n  0x00\n  dup1\n    /* \"DISNEY/disney.sol\":398:427  token = new ERC20Basic(10000) */\n  0x0100\n  exp\n  dup2\n  sload\n  dup2\n  0xffffffffffffffffffffffffffffffffffffffff\n  mul\n  not\n  and\n  swap1\n  dup4\n  0xffffffffffffffffffffffffffffffffffffffff\n  and\n  mul\n  or\n  swap1\n  sstore\n  pop\n    /* \"DISNEY/disney.sol\":494:504  msg.sender */\n  caller\n    /* \"DISNEY/disney.sol\":486:491  owner */\n  0x01\n  0x00\n    /* \"DISNEY/disney.sol\":486:504  owner = msg.sender */\n  0x0100\n  exp\n  dup2\n  sload\n  dup2\n  0xffffffffffffffffffffffffffffffffffffffff\n  mul\n  not\n  and\n  swap1\n  dup4\n  0xffffffffffffffffffffffffffffffffffffffff\n  and\n  mul\n  or\n  swap1\n  sstore\n  pop\n    /* \"DISNEY/disney.sol\":89:10573  contract Disney {... */\n  jump(tag_9)\ntag_5:\n  dataSize(sub_1)\n  dup1\n  dataOffset(sub_1)\n  dup4\n  codecopy\n  add\n  swap1\n  jump\t// out\n    /* \"--CODEGEN--\":5:155   */\ntag_11:\n    /* \"--CODEGEN--\":100:149   */\n  tag_13\n    /* \"--CODEGEN--\":143:148   */\n  dup2\n    /* \"--CODEGEN--\":100:149   */\n  tag_14\n  jump\t// in\ntag_13:\n    /* \"--CODEGEN--\":95:98   */\n  dup3\n    /* \"--CODEGEN--\":88:150   */\n  mstore\n    /* \"--CODEGEN--\":82:155   */\n  pop\n  pop\n  jump\t// out\n    /* \"--CODEGEN--\":162:408   */\ntag_7:\n  0x00\n    /* \"--CODEGEN--\":301:303   */\n  0x20\n    /* \"--CODEGEN--\":290:299   */\n  dup3\n    /* \"--CODEGEN--\":286:304   */\n  add\n    /* \"--CODEGEN--\":278:304   */\n  swap1\n  pop\n    /* \"--CODEGEN--\":315:398   */\n  tag_16\n    /* \"--CODEGEN--\":395:396   */\n  0x00\n    /* \"--CODEGEN--\":384:393   */\n  dup4\n    /* \"--CODEGEN--\":380:397   */\n  add\n    /* \"--CODEGEN--\":371:377   */\n  dup5\n    /* \"--CODEGEN--\":315:398   */\n  tag_11\n  jump\t// in\ntag_16:\n    /* \"--CODEGEN--\":272:408   */\n  swap3\n  swap2\n  pop\n  pop\n  jump\t// out\n    /* \"--CODEGEN--\":415:487   */\ntag_17:\n  0x00\n    /* \"--CODEGEN--\":477:482   */\n  dup2\n    /* \"--CODEGEN--\":466:482   */\n  swap1\n  pop\n    /* \"--CODEGEN--\":460:487   */\n  swap2\n  swap1\n  pop\n  jump\t// out\n    /* \"--CODEGEN--\":494:614   */\ntag_14:\n  0x00\n    /* \"--CODEGEN--\":585:609   */\n  tag_20\n    /* \"--CODEGEN--\":603:608   */\n  dup3\n    /* \"--CODEGEN--\":585:609   */\n  tag_17\n  jump\t// in\ntag_20:\n    /* \"--CODEGEN--\":572:609   */\n  swap1\n  pop\n    /* \"--CODEGEN--\":566:614   */\n  swap2\n  swap1\n  pop\n  jump\t// out\n    /* \"DISNEY/disney.sol\":89:10573  contract Disney {... */\ntag_9:\n  dataSize(sub_0)\n  dup1\n  dataOffset(sub_0)\n  0x00\n  codecopy\n  0x00\n  return\nstop\n\nsub_0: assembly {\n        /* \"DISNEY/disney.sol\":89:10573  contract Disney {... */\n      mstore(0x40, 0x80)\n      jumpi(tag_1, lt(calldatasize, 0x04))\n      shr(0xe0, calldataload(0x00))\n      dup1\n      0x8da5cb5b\n      gt\n      tag_21\n      jumpi\n      dup1\n      0xd203c15b\n      gt\n      tag_22\n      jumpi\n      dup1\n      0xd203c15b\n      eq\n      tag_16\n      jumpi\n      dup1\n      0xdbbdc421\n      eq\n      tag_17\n      jumpi\n      dup1\n      0xe33f34a0\n      eq\n      tag_18\n      jumpi\n      dup1\n      0xf09ba7d3\n      eq\n      tag_19\n      jumpi\n      dup1\n      0xf7774091\n      eq\n      tag_20\n      jumpi\n      jump(tag_1)\n    tag_22:\n      dup1\n      0x8da5cb5b\n      eq\n      tag_11\n      jumpi\n      dup1\n      0xc03d2acc\n      eq\n      tag_12\n      jumpi\n      dup1\n      0xc66dca40\n      eq\n      tag_13\n      jumpi\n      dup1\n      0xce8f2f38\n      eq\n      tag_14\n      jumpi\n      dup1\n      0xd00df296\n      eq\n      tag_15\n      jumpi\n      jump(tag_1)\n    tag_21:\n      dup1\n      0x1deecf3b\n      gt\n      tag_23\n      jumpi\n      dup1\n      0x1deecf3b\n      eq\n      tag_6\n      jumpi\n      dup1\n      0x1f7705d2\n      eq\n      tag_7\n      jumpi\n      dup1\n      0x1fccb33c\n      eq\n      tag_8\n      jumpi\n      dup1\n      0x39050065\n      eq\n      tag_9\n      jumpi\n      dup1\n      0x4a003dcf\n      eq\n      tag_10\n      jumpi\n      jump(tag_1)\n    tag_23:\n      dup1\n      0x0c4397\n      eq\n      tag_2\n      jumpi\n      dup1\n      0x1246f6e2\n      eq\n      tag_3\n      jumpi\n      dup1\n      0x12b91846\n      eq\n      tag_4\n      jumpi\n      dup1\n      0x1890154c\n      eq\n      tag_5\n      jumpi\n    tag_1:\n      0x00\n      dup1\n      revert\n        /* \"DISNEY/disney.sol\":2151:2256  function TotalBalance() public view returns (uint) {... */\n    tag_2:\n      callvalue\n      dup1\n      iszero\n      tag_24\n      jumpi\n      0x00\n      dup1\n      revert\n    tag_24:\n      pop\n      tag_25\n      tag_26\n      jump\t// in\n    tag_25:\n      mload(0x40)\n      tag_27\n      swap2\n      swap1\n      tag_28\n      jump\t// in\n    tag_27:\n      mload(0x40)\n      dup1\n      swap2\n      sub\n      swap1\n      return\n        /* \"DISNEY/disney.sol\":2469:2598  function GeneraTokens(uint _numTokens) public Unicamente(msg.sender){... */\n    tag_3:\n      callvalue\n      dup1\n      iszero\n      tag_29\n      jumpi\n      0x00\n      dup1\n      revert\n    tag_29:\n      pop\n      tag_30\n      0x04\n      dup1\n      calldatasize\n      sub\n      dup2\n      add\n      swap1\n      tag_31\n      swap2\n      swap1\n      tag_32\n      jump\t// in\n    tag_31:\n      tag_33\n      jump\t// in\n    tag_30:\n      stop\n        /* \"DISNEY/disney.sol\":5509:6967  function SubirseAtraccion (string memory _nombreAtraccion) public {... */\n    tag_4:\n      callvalue\n      dup1\n      iszero\n      tag_34\n      jumpi\n      0x00\n      dup1\n      revert\n    tag_34:\n      pop\n      tag_35\n      0x04\n      dup1\n      calldatasize\n      sub\n      dup2\n      add\n      swap1\n      tag_36\n      swap2\n      swap1\n      tag_37\n      jump\t// in\n    tag_36:\n      tag_38\n      jump\t// in\n    tag_35:\n      stop\n        /* \"DISNEY/disney.sol\":9972:10571  function DevolverTokens (uint _numTokens) public payable {... */\n    tag_5:\n      tag_39\n      0x04\n      dup1\n      calldatasize\n      sub\n      dup2\n      add\n      swap1\n      tag_40\n      swap2\n      swap1\n      tag_32\n      jump\t// in\n    tag_40:\n      tag_41\n      jump\t// in\n    tag_39:\n      stop\n        /* \"DISNEY/disney.sol\":7259:7693  function AltaComida(string memory _nombreComida, uint _precio) public Unicamente (msg.sender) {... */\n    tag_6:\n      callvalue\n      dup1\n      iszero\n      tag_42\n      jumpi\n      0x00\n      dup1\n      revert\n    tag_42:\n      pop\n      tag_43\n      0x04\n      dup1\n      calldatasize\n      sub\n      dup2\n      add\n      swap1\n      tag_44\n      swap2\n      swap1\n      tag_45\n      jump\t// in\n    tag_44:\n      tag_46\n      jump\t// in\n    tag_43:\n      stop\n        /* \"DISNEY/disney.sol\":7041:7165  function ConsultaHistorial() public view returns (string [] memory) {... */\n    tag_7:\n      callvalue\n      dup1\n      iszero\n      tag_47\n      jumpi\n      0x00\n      dup1\n      revert\n    tag_47:\n      pop\n      tag_48\n      tag_49\n      jump\t// in\n    tag_48:\n      mload(0x40)\n      tag_50\n      swap2\n      swap1\n      tag_51\n      jump\t// in\n    tag_50:\n      mload(0x40)\n      dup1\n      swap2\n      sub\n      swap1\n      return\n        /* \"DISNEY/disney.sol\":5325:5433  function AtraccionesDisponibles() public view returns (string [] memory) {... */\n    tag_8:\n      callvalue\n      dup1\n      iszero\n      tag_52\n      jumpi\n      0x00\n      dup1\n      revert\n    tag_52:\n      pop\n      tag_53\n      tag_54\n      jump\t// in\n    tag_53:\n      mload(0x40)\n      tag_55\n      swap2\n      swap1\n      tag_51\n      jump\t// in\n    tag_55:\n      mload(0x40)\n      dup1\n      swap2\n      sub\n      swap1\n      return\n        /* \"DISNEY/disney.sol\":4374:4844  function AltaAtraccion(string memory _nombreAtraccion, uint _precio) public Unicamente (msg.sender) {... */\n    tag_9:\n      callvalue\n      dup1\n      iszero\n      tag_56\n      jumpi\n      0x00\n      dup1\n      revert\n    tag_56:\n      pop\n      tag_57\n      0x04\n      dup1\n      calldatasize\n      sub\n      dup2\n      add\n      swap1\n      tag_58\n      swap2\n      swap1\n      tag_45\n      jump\t// in\n    tag_58:\n      tag_59\n      jump\t// in\n    tag_57:\n      stop\n        /* \"DISNEY/disney.sol\":8316:9694  function ComprarComida (string memory _nombreComida) public {... */\n    tag_10:\n      callvalue\n      dup1\n      iszero\n      tag_60\n      jumpi\n      0x00\n      dup1\n      revert\n    tag_60:\n      pop\n      tag_61\n      0x04\n      dup1\n      calldatasize\n      sub\n      dup2\n      add\n      swap1\n      tag_62\n      swap2\n      swap1\n      tag_37\n      jump\t// in\n    tag_62:\n      tag_63\n      jump\t// in\n    tag_61:\n      stop\n        /* \"DISNEY/disney.sol\":311:339  address payable public owner */\n    tag_11:\n      callvalue\n      dup1\n      iszero\n      tag_64\n      jumpi\n      0x00\n      dup1\n      revert\n    tag_64:\n      pop\n      tag_65\n      tag_66\n      jump\t// in\n    tag_65:\n      mload(0x40)\n      tag_67\n      swap2\n      swap1\n      tag_68\n      jump\t// in\n    tag_67:\n      mload(0x40)\n      dup1\n      swap2\n      sub\n      swap1\n      return\n        /* \"DISNEY/disney.sol\":8147:8247  function ComidasDisponibles() public view returns (string [] memory) {... */\n    tag_12:\n      callvalue\n      dup1\n      iszero\n      tag_69\n      jumpi\n      0x00\n      dup1\n      revert\n    tag_69:\n      pop\n      tag_70\n      tag_71\n      jump\t// in\n    tag_70:\n      mload(0x40)\n      tag_72\n      swap2\n      swap1\n      tag_51\n      jump\t// in\n    tag_72:\n      mload(0x40)\n      dup1\n      swap2\n      sub\n      swap1\n      return\n        /* \"DISNEY/disney.sol\":4924:5262  function BajaAtraccion(string memory _nombreAtraccion) public Unicamente (msg.sender) {... */\n    tag_13:\n      callvalue\n      dup1\n      iszero\n      tag_73\n      jumpi\n      0x00\n      dup1\n      revert\n    tag_73:\n      pop\n      tag_74\n      0x04\n      dup1\n      calldatasize\n      sub\n      dup2\n      add\n      swap1\n      tag_75\n      swap2\n      swap1\n      tag_37\n      jump\t// in\n    tag_75:\n      tag_76\n      jump\t// in\n    tag_74:\n      stop\n        /* \"DISNEY/disney.sol\":784:828  mapping (address => cliente) public Clientes */\n    tag_14:\n      callvalue\n      dup1\n      iszero\n      tag_77\n      jumpi\n      0x00\n      dup1\n      revert\n    tag_77:\n      pop\n      tag_78\n      0x04\n      dup1\n      calldatasize\n      sub\n      dup2\n      add\n      swap1\n      tag_79\n      swap2\n      swap1\n      tag_80\n      jump\t// in\n    tag_79:\n      tag_81\n      jump\t// in\n    tag_78:\n      mload(0x40)\n      tag_82\n      swap2\n      swap1\n      tag_28\n      jump\t// in\n    tag_82:\n      mload(0x40)\n      dup1\n      swap2\n      sub\n      swap1\n      return\n        /* \"DISNEY/disney.sol\":3653:3708  mapping (string => atraccion) public MappingAtracciones */\n    tag_15:\n      callvalue\n      dup1\n      iszero\n      tag_83\n      jumpi\n      0x00\n      dup1\n      revert\n    tag_83:\n      pop\n      tag_84\n      0x04\n      dup1\n      calldatasize\n      sub\n      dup2\n      add\n      swap1\n      tag_85\n      swap2\n      swap1\n      tag_37\n      jump\t// in\n    tag_85:\n      tag_86\n      jump\t// in\n    tag_84:\n      mload(0x40)\n      tag_87\n      swap4\n      swap3\n      swap2\n      swap1\n      tag_88\n      jump\t// in\n    tag_87:\n      mload(0x40)\n      dup1\n      swap2\n      sub\n      swap1\n      return\n        /* \"DISNEY/disney.sol\":4017:4064  mapping (string => comida) public MappingComida */\n    tag_16:\n      callvalue\n      dup1\n      iszero\n      tag_89\n      jumpi\n      0x00\n      dup1\n      revert\n    tag_89:\n      pop\n      tag_90\n      0x04\n      dup1\n      calldatasize\n      sub\n      dup2\n      add\n      swap1\n      tag_91\n      swap2\n      swap1\n      tag_37\n      jump\t// in\n    tag_91:\n      tag_92\n      jump\t// in\n    tag_90:\n      mload(0x40)\n      tag_93\n      swap4\n      swap3\n      swap2\n      swap1\n      tag_88\n      jump\t// in\n    tag_93:\n      mload(0x40)\n      dup1\n      swap2\n      sub\n      swap1\n      return\n        /* \"DISNEY/disney.sol\":7774:8088  function BajaComida(string memory _nombreComida) public Unicamente (msg.sender) {... */\n    tag_17:\n      callvalue\n      dup1\n      iszero\n      tag_94\n      jumpi\n      0x00\n      dup1\n      revert\n    tag_94:\n      pop\n      tag_95\n      0x04\n      dup1\n      calldatasize\n      sub\n      dup2\n      add\n      swap1\n      tag_96\n      swap2\n      swap1\n      tag_37\n      jump\t// in\n    tag_96:\n      tag_97\n      jump\t// in\n    tag_95:\n      stop\n        /* \"DISNEY/disney.sol\":2324:2423  function MisTokens() public view returns (uint) {... */\n    tag_18:\n      callvalue\n      dup1\n      iszero\n      tag_98\n      jumpi\n      0x00\n      dup1\n      revert\n    tag_98:\n      pop\n      tag_99\n      tag_100\n      jump\t// in\n    tag_99:\n      mload(0x40)\n      tag_101\n      swap2\n      swap1\n      tag_28\n      jump\t// in\n    tag_101:\n      mload(0x40)\n      dup1\n      swap2\n      sub\n      swap1\n      return\n        /* \"DISNEY/disney.sol\":9768:9895  function ConsultaHistorialComidas() public view returns (string [] memory) {... */\n    tag_19:\n      callvalue\n      dup1\n      iszero\n      tag_102\n      jumpi\n      0x00\n      dup1\n      revert\n    tag_102:\n      pop\n      tag_103\n      tag_104\n      jump\t// in\n    tag_103:\n      mload(0x40)\n      tag_105\n      swap2\n      swap1\n      tag_51\n      jump\t// in\n    tag_105:\n      mload(0x40)\n      dup1\n      swap2\n      sub\n      swap1\n      return\n        /* \"DISNEY/disney.sol\":1214:2100  function CompraTokens(uint _numTokens) public payable {... */\n    tag_20:\n      tag_106\n      0x04\n      dup1\n      calldatasize\n      sub\n      dup2\n      add\n      swap1\n      tag_107\n      swap2\n      swap1\n      tag_32\n      jump\t// in\n    tag_107:\n      tag_108\n      jump\t// in\n    tag_106:\n      stop\n        /* \"DISNEY/disney.sol\":2151:2256  function TotalBalance() public view returns (uint) {... */\n    tag_26:\n        /* \"DISNEY/disney.sol\":2196:2200  uint */\n      0x00\n        /* \"DISNEY/disney.sol\":2219:2224  token */\n      dup1\n      0x00\n      swap1\n      sload\n      swap1\n      0x0100\n      exp\n      swap1\n      div\n      0xffffffffffffffffffffffffffffffffffffffff\n      and\n        /* \"DISNEY/disney.sol\":2219:2234  token.balanceOf */\n      0xffffffffffffffffffffffffffffffffffffffff\n      and\n      0x70a08231\n        /* \"DISNEY/disney.sol\":2243:2247  this */\n      address\n        /* \"DISNEY/disney.sol\":2219:2249  token.balanceOf(address(this)) */\n      mload(0x40)\n      dup3\n      0xffffffff\n      and\n      0xe0\n      shl\n      dup2\n      mstore\n      0x04\n      add\n      tag_110\n      swap2\n      swap1\n      tag_111\n      jump\t// in\n    tag_110:\n      0x20\n      mload(0x40)\n      dup1\n      dup4\n      sub\n      dup2\n      dup7\n      dup1\n      extcodesize\n      iszero\n      dup1\n      iszero\n      tag_112\n      jumpi\n      0x00\n      dup1\n      revert\n    tag_112:\n      pop\n      gas\n      staticcall\n      iszero\n      dup1\n      iszero\n      tag_114\n      jumpi\n      returndatasize\n      0x00\n      dup1\n      returndatacopy\n      revert(0x00, returndatasize)\n    tag_114:\n      pop\n      pop\n      pop\n      pop\n      mload(0x40)\n      returndatasize\n      not(0x1f)\n      0x1f\n      dup3\n      add\n      and\n      dup3\n      add\n      dup1\n      0x40\n      mstore\n      pop\n      dup2\n      add\n      swap1\n      tag_115\n      swap2\n      swap1\n      tag_116\n      jump\t// in\n    tag_115:\n        /* \"DISNEY/disney.sol\":2212:2249  return token.balanceOf(address(this)) */\n      swap1\n      pop\n        /* \"DISNEY/disney.sol\":2151:2256  function TotalBalance() public view returns (uint) {... */\n      swap1\n      jump\t// out\n        /* \"DISNEY/disney.sol\":2469:2598  function GeneraTokens(uint _numTokens) public Unicamente(msg.sender){... */\n    tag_33:\n        /* \"DISNEY/disney.sol\":2526:2536  msg.sender */\n      caller\n        /* \"DISNEY/disney.sol\":2747:2752  owner */\n      0x01\n      0x00\n      swap1\n      sload\n      swap1\n      0x0100\n      exp\n      swap1\n      div\n      0xffffffffffffffffffffffffffffffffffffffff\n      and\n        /* \"DISNEY/disney.sol\":2733:2752  _direccion == owner */\n      0xffffffffffffffffffffffffffffffffffffffff\n      and\n        /* \"DISNEY/disney.sol\":2733:2743  _direccion */\n      dup2\n        /* \"DISNEY/disney.sol\":2733:2752  _direccion == owner */\n      0xffffffffffffffffffffffffffffffffffffffff\n      and\n      eq\n        /* \"DISNEY/disney.sol\":2725:2803  require(_direccion == owner, \"No tienes permisos para ejecutar esta funcion.\") */\n      tag_118\n      jumpi\n      mload(0x40)\n      0x08c379a000000000000000000000000000000000000000000000000000000000\n      dup2\n      mstore\n      0x04\n      add\n      tag_119\n      swap1\n      tag_120\n      jump\t// in\n    tag_119:\n      mload(0x40)\n      dup1\n      swap2\n      sub\n      swap1\n      revert\n    tag_118:\n        /* \"DISNEY/disney.sol\":2554:2559  token */\n      0x00\n      dup1\n      sload\n      swap1\n      0x0100\n      exp\n      swap1\n      div\n      0xffffffffffffffffffffffffffffffffffffffff\n      and\n        /* \"DISNEY/disney.sol\":2554:2579  token.increaseTotalSupply */\n      0xffffffffffffffffffffffffffffffffffffffff\n      and\n      0x1d43cc98\n        /* \"DISNEY/disney.sol\":2580:2590  _numTokens */\n      dup4\n        /* \"DISNEY/disney.sol\":2554:2591  token.increaseTotalSupply(_numTokens) */\n      mload(0x40)\n      dup3\n      0xffffffff\n      and\n      0xe0\n      shl\n      dup2\n      mstore\n      0x04\n      add\n      tag_122\n      swap2\n      swap1\n      tag_28\n      jump\t// in\n    tag_122:\n      0x00\n      mload(0x40)\n      dup1\n      dup4\n      sub\n      dup2\n      0x00\n      dup8\n      dup1\n      extcodesize\n      iszero\n      dup1\n      iszero\n      tag_123\n      jumpi\n      0x00\n      dup1\n      revert\n    tag_123:\n      pop\n      gas\n      call\n      iszero\n      dup1\n      iszero\n      tag_125\n      jumpi\n      returndatasize\n      0x00\n      dup1\n      returndatacopy\n      revert(0x00, returndatasize)\n    tag_125:\n      pop\n      pop\n      pop\n      pop\n        /* \"DISNEY/disney.sol\":2469:2598  function GeneraTokens(uint _numTokens) public Unicamente(msg.sender){... */\n      pop\n      pop\n      jump\t// out\n        /* \"DISNEY/disney.sol\":5509:6967  function SubirseAtraccion (string memory _nombreAtraccion) public {... */\n    tag_38:\n        /* \"DISNEY/disney.sol\":5631:5652  uint tokens_atraccion */\n      0x00\n        /* \"DISNEY/disney.sol\":5655:5673  MappingAtracciones */\n      0x03\n        /* \"DISNEY/disney.sol\":5674:5690  _nombreAtraccion */\n      dup3\n        /* \"DISNEY/disney.sol\":5655:5691  MappingAtracciones[_nombreAtraccion] */\n      mload(0x40)\n      tag_127\n      swap2\n      swap1\n      tag_128\n      jump\t// in\n    tag_127:\n      swap1\n      dup2\n      mstore\n      0x20\n      add\n      mload(0x40)\n      dup1\n      swap2\n      sub\n      swap1\n      keccak256\n        /* \"DISNEY/disney.sol\":5655:5708  MappingAtracciones[_nombreAtraccion].precio_atraccion */\n      0x01\n      add\n      sload\n        /* \"DISNEY/disney.sol\":5631:5708  uint tokens_atraccion = MappingAtracciones[_nombreAtraccion].precio_atraccion */\n      swap1\n      pop\n        /* \"DISNEY/disney.sol\":5863:5867  true */\n      0x01\n        /* \"DISNEY/disney.sol\":5806:5867  MappingAtracciones[_nombreAtraccion].estado_atraccion == true */\n      iszero\n      iszero\n        /* \"DISNEY/disney.sol\":5806:5824  MappingAtracciones */\n      0x03\n        /* \"DISNEY/disney.sol\":5825:5841  _nombreAtraccion */\n      dup4\n        /* \"DISNEY/disney.sol\":5806:5842  MappingAtracciones[_nombreAtraccion] */\n      mload(0x40)\n      tag_129\n      swap2\n      swap1\n      tag_128\n      jump\t// in\n    tag_129:\n      swap1\n      dup2\n      mstore\n      0x20\n      add\n      mload(0x40)\n      dup1\n      swap2\n      sub\n      swap1\n      keccak256\n        /* \"DISNEY/disney.sol\":5806:5859  MappingAtracciones[_nombreAtraccion].estado_atraccion */\n      0x02\n      add\n      0x00\n      swap1\n      sload\n      swap1\n      0x0100\n      exp\n      swap1\n      div\n      0xff\n      and\n        /* \"DISNEY/disney.sol\":5806:5867  MappingAtracciones[_nombreAtraccion].estado_atraccion == true */\n      iszero\n      iszero\n      eq\n        /* \"DISNEY/disney.sol\":5798:5938  require(MappingAtracciones[_nombreAtraccion].estado_atraccion == true,... */\n      tag_130\n      jumpi\n      mload(0x40)\n      0x08c379a000000000000000000000000000000000000000000000000000000000\n      dup2\n      mstore\n      0x04\n      add\n      tag_131\n      swap1\n      tag_132\n      jump\t// in\n    tag_131:\n      mload(0x40)\n      dup1\n      swap2\n      sub\n      swap1\n      revert\n    tag_130:\n        /* \"DISNEY/disney.sol\":6066:6077  MisTokens() */\n      tag_133\n        /* \"DISNEY/disney.sol\":6066:6075  MisTokens */\n      tag_100\n        /* \"DISNEY/disney.sol\":6066:6077  MisTokens() */\n      jump\t// in\n    tag_133:\n        /* \"DISNEY/disney.sol\":6046:6062  tokens_atraccion */\n      dup2\n        /* \"DISNEY/disney.sol\":6046:6077  tokens_atraccion <= MisTokens() */\n      gt\n      iszero\n        /* \"DISNEY/disney.sol\":6038:6150  require(tokens_atraccion <= MisTokens(),... */\n      tag_134\n      jumpi\n      mload(0x40)\n      0x08c379a000000000000000000000000000000000000000000000000000000000\n      dup2\n      mstore\n      0x04\n      add\n      tag_135\n      swap1\n      tag_136\n      jump\t// in\n    tag_135:\n      mload(0x40)\n      dup1\n      swap2\n      sub\n      swap1\n      revert\n    tag_134:\n        /* \"DISNEY/disney.sol\":6614:6619  token */\n      0x00\n      dup1\n      sload\n      swap1\n      0x0100\n      exp\n      swap1\n      div\n      0xffffffffffffffffffffffffffffffffffffffff\n      and\n        /* \"DISNEY/disney.sol\":6614:6640  token.transferencia_disney */\n      0xffffffffffffffffffffffffffffffffffffffff\n      and\n      0xf490a351\n        /* \"DISNEY/disney.sol\":6641:6651  msg.sender */\n      caller\n        /* \"DISNEY/disney.sol\":6662:6666  this */\n      address\n        /* \"DISNEY/disney.sol\":6669:6685  tokens_atraccion */\n      dup5\n        /* \"DISNEY/disney.sol\":6614:6686  token.transferencia_disney(msg.sender,  address(this), tokens_atraccion) */\n      mload(0x40)\n      dup5\n      0xffffffff\n      and\n      0xe0\n      shl\n      dup2\n      mstore\n      0x04\n      add\n      tag_137\n      swap4\n      swap3\n      swap2\n      swap1\n      tag_138\n      jump\t// in\n    tag_137:\n      0x20\n      mload(0x40)\n      dup1\n      dup4\n      sub\n      dup2\n      0x00\n      dup8\n      dup1\n      extcodesize\n      iszero\n      dup1\n      iszero\n      tag_139\n      jumpi\n      0x00\n      dup1\n      revert\n    tag_139:\n      pop\n      gas\n      call\n      iszero\n      dup1\n      iszero\n      tag_141\n      jumpi\n      returndatasize\n      0x00\n      dup1\n      returndatacopy\n      revert(0x00, returndatasize)\n    tag_141:\n      pop\n      pop\n      pop\n      pop\n      mload(0x40)\n      returndatasize\n      not(0x1f)\n      0x1f\n      dup3\n      add\n      and\n      dup3\n      add\n      dup1\n      0x40\n      mstore\n      pop\n      dup2\n      add\n      swap1\n      tag_142\n      swap2\n      swap1\n      tag_143\n      jump\t// in\n    tag_142:\n      pop\n        /* \"DISNEY/disney.sol\":6765:6785  HistorialAtracciones */\n      0x05\n        /* \"DISNEY/disney.sol\":6765:6797  HistorialAtracciones[msg.sender] */\n      0x00\n        /* \"DISNEY/disney.sol\":6786:6796  msg.sender */\n      caller\n        /* \"DISNEY/disney.sol\":6765:6797  HistorialAtracciones[msg.sender] */\n      0xffffffffffffffffffffffffffffffffffffffff\n      and\n      0xffffffffffffffffffffffffffffffffffffffff\n      and\n      dup2\n      mstore\n      0x20\n      add\n      swap1\n      dup2\n      mstore\n      0x20\n      add\n      0x00\n      keccak256\n        /* \"DISNEY/disney.sol\":6803:6819  _nombreAtraccion */\n      dup3\n        /* \"DISNEY/disney.sol\":6765:6820  HistorialAtracciones[msg.sender].push(_nombreAtraccion) */\n      swap1\n      dup1\n      0x01\n      dup2\n      sload\n      add\n      dup1\n      dup3\n      sstore\n      dup1\n      swap2\n      pop\n      pop\n      0x01\n      swap1\n      sub\n      swap1\n      0x00\n      mstore\n      keccak256(0x00, 0x20)\n      add\n      0x00\n      swap1\n      swap2\n      swap1\n      swap2\n      swap1\n      swap2\n      pop\n      swap1\n      dup1\n      mload\n      swap1\n      0x20\n      add\n      swap1\n      tag_145\n      swap3\n      swap2\n      swap1\n      tag_146\n      jump\t// in\n    tag_145:\n      pop\n        /* \"DISNEY/disney.sol\":6894:6960  disfruta_atraccion(_nombreAtraccion, tokens_atraccion, msg.sender) */\n      0x7246a03edf415ab10aa2e7868f4768980d024a3a86ab68f98fcc21567c2f26d7\n        /* \"DISNEY/disney.sol\":6913:6929  _nombreAtraccion */\n      dup3\n        /* \"DISNEY/disney.sol\":6931:6947  tokens_atraccion */\n      dup3\n        /* \"DISNEY/disney.sol\":6949:6959  msg.sender */\n      caller\n        /* \"DISNEY/disney.sol\":6894:6960  disfruta_atraccion(_nombreAtraccion, tokens_atraccion, msg.sender) */\n      mload(0x40)\n      tag_147\n      swap4\n      swap3\n      swap2\n      swap1\n      tag_148\n      jump\t// in\n    tag_147:\n      mload(0x40)\n      dup1\n      swap2\n      sub\n      swap1\n      log1\n        /* \"DISNEY/disney.sol\":5509:6967  function SubirseAtraccion (string memory _nombreAtraccion) public {... */\n      pop\n      pop\n      jump\t// out\n        /* \"DISNEY/disney.sol\":9972:10571  function DevolverTokens (uint _numTokens) public payable {... */\n    tag_41:\n        /* \"DISNEY/disney.sol\":10128:10129  0 */\n      0x00\n        /* \"DISNEY/disney.sol\":10115:10125  _numTokens */\n      dup2\n        /* \"DISNEY/disney.sol\":10115:10129  _numTokens > 0 */\n      gt\n        /* \"DISNEY/disney.sol\":10107:10185  require(_numTokens > 0, \"Necesitas devolver una cantidad positiva de Tokens.\") */\n      tag_150\n      jumpi\n      mload(0x40)\n      0x08c379a000000000000000000000000000000000000000000000000000000000\n      dup2\n      mstore\n      0x04\n      add\n      tag_151\n      swap1\n      tag_152\n      jump\t// in\n    tag_151:\n      mload(0x40)\n      dup1\n      swap2\n      sub\n      swap1\n      revert\n    tag_150:\n        /* \"DISNEY/disney.sol\":10289:10300  MisTokens() */\n      tag_153\n        /* \"DISNEY/disney.sol\":10289:10298  MisTokens */\n      tag_100\n        /* \"DISNEY/disney.sol\":10289:10300  MisTokens() */\n      jump\t// in\n    tag_153:\n        /* \"DISNEY/disney.sol\":10275:10285  _numTokens */\n      dup2\n        /* \"DISNEY/disney.sol\":10275:10300  _numTokens <= MisTokens() */\n      gt\n      iszero\n        /* \"DISNEY/disney.sol\":10267:10345  require(_numTokens <= MisTokens(), \"No tiene los Tokens que deseas devolver.\") */\n      tag_154\n      jumpi\n      mload(0x40)\n      0x08c379a000000000000000000000000000000000000000000000000000000000\n      dup2\n      mstore\n      0x04\n      add\n      tag_155\n      swap1\n      tag_156\n      jump\t// in\n    tag_155:\n      mload(0x40)\n      dup1\n      swap2\n      sub\n      swap1\n      revert\n    tag_154:\n        /* \"DISNEY/disney.sol\":10397:10402  token */\n      0x00\n      dup1\n      sload\n      swap1\n      0x0100\n      exp\n      swap1\n      div\n      0xffffffffffffffffffffffffffffffffffffffff\n      and\n        /* \"DISNEY/disney.sol\":10397:10423  token.transferencia_disney */\n      0xffffffffffffffffffffffffffffffffffffffff\n      and\n      0xf490a351\n        /* \"DISNEY/disney.sol\":10424:10434  msg.sender */\n      caller\n        /* \"DISNEY/disney.sol\":10444:10448  this */\n      address\n        /* \"DISNEY/disney.sol\":10451:10461  _numTokens */\n      dup5\n        /* \"DISNEY/disney.sol\":10397:10462  token.transferencia_disney(msg.sender, address(this), _numTokens) */\n      mload(0x40)\n      dup5\n      0xffffffff\n      and\n      0xe0\n      shl\n      dup2\n      mstore\n      0x04\n      add\n      tag_157\n      swap4\n      swap3\n      swap2\n      swap1\n      tag_138\n      jump\t// in\n    tag_157:\n      0x20\n      mload(0x40)\n      dup1\n      dup4\n      sub\n      dup2\n      0x00\n      dup8\n      dup1\n      extcodesize\n      iszero\n      dup1\n      iszero\n      tag_158\n      jumpi\n      0x00\n      dup1\n      revert\n    tag_158:\n      pop\n      gas\n      call\n      iszero\n      dup1\n      iszero\n      tag_160\n      jumpi\n      returndatasize\n      0x00\n      dup1\n      returndatacopy\n      revert(0x00, returndatasize)\n    tag_160:\n      pop\n      pop\n      pop\n      pop\n      mload(0x40)\n      returndatasize\n      not(0x1f)\n      0x1f\n      dup3\n      add\n      and\n      dup3\n      add\n      dup1\n      0x40\n      mstore\n      pop\n      dup2\n      add\n      swap1\n      tag_161\n      swap2\n      swap1\n      tag_143\n      jump\t// in\n    tag_161:\n      pop\n        /* \"DISNEY/disney.sol\":10519:10529  msg.sender */\n      caller\n        /* \"DISNEY/disney.sol\":10519:10538  msg.sender.transfer */\n      0xffffffffffffffffffffffffffffffffffffffff\n      and\n        /* \"DISNEY/disney.sol\":10519:10564  msg.sender.transfer(PrecioTokens(_numTokens)) */\n      0x08fc\n        /* \"DISNEY/disney.sol\":10539:10563  PrecioTokens(_numTokens) */\n      tag_162\n        /* \"DISNEY/disney.sol\":10552:10562  _numTokens */\n      dup4\n        /* \"DISNEY/disney.sol\":10539:10551  PrecioTokens */\n      tag_163\n        /* \"DISNEY/disney.sol\":10539:10563  PrecioTokens(_numTokens) */\n      jump\t// in\n    tag_162:\n        /* \"DISNEY/disney.sol\":10519:10564  msg.sender.transfer(PrecioTokens(_numTokens)) */\n      swap1\n      dup2\n      iszero\n      mul\n      swap1\n      mload(0x40)\n      0x00\n      mload(0x40)\n      dup1\n      dup4\n      sub\n      dup2\n      dup6\n      dup9\n      dup9\n      call\n      swap4\n      pop\n      pop\n      pop\n      pop\n      iszero\n      dup1\n      iszero\n      tag_165\n      jumpi\n      returndatasize\n      0x00\n      dup1\n      returndatacopy\n      revert(0x00, returndatasize)\n    tag_165:\n      pop\n        /* \"DISNEY/disney.sol\":9972:10571  function DevolverTokens (uint _numTokens) public payable {... */\n      pop\n      jump\t// out\n        /* \"DISNEY/disney.sol\":7259:7693  function AltaComida(string memory _nombreComida, uint _precio) public Unicamente (msg.sender) {... */\n    tag_46:\n        /* \"DISNEY/disney.sol\":7341:7351  msg.sender */\n      caller\n        /* \"DISNEY/disney.sol\":2747:2752  owner */\n      0x01\n      0x00\n      swap1\n      sload\n      swap1\n      0x0100\n      exp\n      swap1\n      div\n      0xffffffffffffffffffffffffffffffffffffffff\n      and\n        /* \"DISNEY/disney.sol\":2733:2752  _direccion == owner */\n      0xffffffffffffffffffffffffffffffffffffffff\n      and\n        /* \"DISNEY/disney.sol\":2733:2743  _direccion */\n      dup2\n        /* \"DISNEY/disney.sol\":2733:2752  _direccion == owner */\n      0xffffffffffffffffffffffffffffffffffffffff\n      and\n      eq\n        /* \"DISNEY/disney.sol\":2725:2803  require(_direccion == owner, \"No tienes permisos para ejecutar esta funcion.\") */\n      tag_167\n      jumpi\n      mload(0x40)\n      0x08c379a000000000000000000000000000000000000000000000000000000000\n      dup2\n      mstore\n      0x04\n      add\n      tag_168\n      swap1\n      tag_120\n      jump\t// in\n    tag_168:\n      mload(0x40)\n      dup1\n      swap2\n      sub\n      swap1\n      revert\n    tag_167:\n        /* \"DISNEY/disney.sol\":7438:7474  comida(_nombreComida, _precio, true) */\n      mload(0x40)\n      dup1\n      0x60\n      add\n      0x40\n      mstore\n      dup1\n        /* \"DISNEY/disney.sol\":7445:7458  _nombreComida */\n      dup5\n        /* \"DISNEY/disney.sol\":7438:7474  comida(_nombreComida, _precio, true) */\n      dup2\n      mstore\n      0x20\n      add\n        /* \"DISNEY/disney.sol\":7460:7467  _precio */\n      dup4\n        /* \"DISNEY/disney.sol\":7438:7474  comida(_nombreComida, _precio, true) */\n      dup2\n      mstore\n      0x20\n      add\n        /* \"DISNEY/disney.sol\":7469:7473  true */\n      0x01\n        /* \"DISNEY/disney.sol\":7438:7474  comida(_nombreComida, _precio, true) */\n      iszero\n      iszero\n      dup2\n      mstore\n      pop\n        /* \"DISNEY/disney.sol\":7407:7420  MappingComida */\n      0x06\n        /* \"DISNEY/disney.sol\":7421:7434  _nombreComida */\n      dup5\n        /* \"DISNEY/disney.sol\":7407:7435  MappingComida[_nombreComida] */\n      mload(0x40)\n      tag_170\n      swap2\n      swap1\n      tag_128\n      jump\t// in\n    tag_170:\n      swap1\n      dup2\n      mstore\n      0x20\n      add\n      mload(0x40)\n      dup1\n      swap2\n      sub\n      swap1\n      keccak256\n        /* \"DISNEY/disney.sol\":7407:7474  MappingComida[_nombreComida] = comida(_nombreComida, _precio, true) */\n      0x00\n      dup3\n      add\n      mload\n      dup2\n      0x00\n      add\n      swap1\n      dup1\n      mload\n      swap1\n      0x20\n      add\n      swap1\n      tag_171\n      swap3\n      swap2\n      swap1\n      tag_146\n      jump\t// in\n    tag_171:\n      pop\n      0x20\n      dup3\n      add\n      mload\n      dup2\n      0x01\n      add\n      sstore\n      0x40\n      dup3\n      add\n      mload\n      dup2\n      0x02\n      add\n      exp(0x0100, 0x00)\n      dup2\n      sload\n      dup2\n      0xff\n      mul\n      not\n      and\n      swap1\n      dup4\n      iszero\n      iszero\n      mul\n      or\n      swap1\n      sstore\n      pop\n      swap1\n      pop\n      pop\n        /* \"DISNEY/disney.sol\":7550:7557  Comidas */\n      0x07\n        /* \"DISNEY/disney.sol\":7563:7576  _nombreComida */\n      dup4\n        /* \"DISNEY/disney.sol\":7550:7577  Comidas.push(_nombreComida) */\n      swap1\n      dup1\n      0x01\n      dup2\n      sload\n      add\n      dup1\n      dup3\n      sstore\n      dup1\n      swap2\n      pop\n      pop\n      0x01\n      swap1\n      sub\n      swap1\n      0x00\n      mstore\n      keccak256(0x00, 0x20)\n      add\n      0x00\n      swap1\n      swap2\n      swap1\n      swap2\n      swap1\n      swap2\n      pop\n      swap1\n      dup1\n      mload\n      swap1\n      0x20\n      add\n      swap1\n      tag_173\n      swap3\n      swap2\n      swap1\n      tag_146\n      jump\t// in\n    tag_173:\n      pop\n        /* \"DISNEY/disney.sol\":7651:7686  alta_comida(_nombreComida, _precio) */\n      0x4822082a8fc27e02f7551bba1d63c9aa17637aa764b17878bac1197ddd4c6028\n        /* \"DISNEY/disney.sol\":7663:7676  _nombreComida */\n      dup4\n        /* \"DISNEY/disney.sol\":7678:7685  _precio */\n      dup4\n        /* \"DISNEY/disney.sol\":7651:7686  alta_comida(_nombreComida, _precio) */\n      mload(0x40)\n      tag_174\n      swap3\n      swap2\n      swap1\n      tag_175\n      jump\t// in\n    tag_174:\n      mload(0x40)\n      dup1\n      swap2\n      sub\n      swap1\n      log1\n        /* \"DISNEY/disney.sol\":7259:7693  function AltaComida(string memory _nombreComida, uint _precio) public Unicamente (msg.sender) {... */\n      pop\n      pop\n      pop\n      jump\t// out\n        /* \"DISNEY/disney.sol\":7041:7165  function ConsultaHistorial() public view returns (string [] memory) {... */\n    tag_49:\n        /* \"DISNEY/disney.sol\":7091:7107  string [] memory */\n      0x60\n        /* \"DISNEY/disney.sol\":7126:7146  HistorialAtracciones */\n      0x05\n        /* \"DISNEY/disney.sol\":7126:7158  HistorialAtracciones[msg.sender] */\n      0x00\n        /* \"DISNEY/disney.sol\":7147:7157  msg.sender */\n      caller\n        /* \"DISNEY/disney.sol\":7126:7158  HistorialAtracciones[msg.sender] */\n      0xffffffffffffffffffffffffffffffffffffffff\n      and\n      0xffffffffffffffffffffffffffffffffffffffff\n      and\n      dup2\n      mstore\n      0x20\n      add\n      swap1\n      dup2\n      mstore\n      0x20\n      add\n      0x00\n      keccak256\n        /* \"DISNEY/disney.sol\":7119:7158  return HistorialAtracciones[msg.sender] */\n      dup1\n      sload\n      dup1\n      0x20\n      mul\n      0x20\n      add\n      mload(0x40)\n      swap1\n      dup2\n      add\n      0x40\n      mstore\n      dup1\n      swap3\n      swap2\n      swap1\n      dup2\n      dup2\n      mstore\n      0x20\n      add\n      0x00\n      swap1\n    tag_177:\n      dup3\n      dup3\n      lt\n      iszero\n      tag_178\n      jumpi\n      dup4\n      dup3\n      swap1\n      0x00\n      mstore\n      keccak256(0x00, 0x20)\n      add\n      dup1\n      sload\n      0x01\n      dup2\n      0x01\n      and\n      iszero\n      0x0100\n      mul\n      sub\n      and\n      0x02\n      swap1\n      div\n      dup1\n      0x1f\n      add\n      0x20\n      dup1\n      swap2\n      div\n      mul\n      0x20\n      add\n      mload(0x40)\n      swap1\n      dup2\n      add\n      0x40\n      mstore\n      dup1\n      swap3\n      swap2\n      swap1\n      dup2\n      dup2\n      mstore\n      0x20\n      add\n      dup3\n      dup1\n      sload\n      0x01\n      dup2\n      0x01\n      and\n      iszero\n      0x0100\n      mul\n      sub\n      and\n      0x02\n      swap1\n      div\n      dup1\n      iszero\n      tag_180\n      jumpi\n      dup1\n      0x1f\n      lt\n      tag_181\n      jumpi\n      0x0100\n      dup1\n      dup4\n      sload\n      div\n      mul\n      dup4\n      mstore\n      swap2\n      0x20\n      add\n      swap2\n      jump(tag_180)\n    tag_181:\n      dup3\n      add\n      swap2\n      swap1\n      0x00\n      mstore\n      keccak256(0x00, 0x20)\n      swap1\n    tag_182:\n      dup2\n      sload\n      dup2\n      mstore\n      swap1\n      0x01\n      add\n      swap1\n      0x20\n      add\n      dup1\n      dup4\n      gt\n      tag_182\n      jumpi\n      dup3\n      swap1\n      sub\n      0x1f\n      and\n      dup3\n      add\n      swap2\n    tag_180:\n      pop\n      pop\n      pop\n      pop\n      pop\n      dup2\n      mstore\n      0x20\n      add\n      swap1\n      0x01\n      add\n      swap1\n      jump(tag_177)\n    tag_178:\n      pop\n      pop\n      pop\n      pop\n      swap1\n      pop\n        /* \"DISNEY/disney.sol\":7041:7165  function ConsultaHistorial() public view returns (string [] memory) {... */\n      swap1\n      jump\t// out\n        /* \"DISNEY/disney.sol\":5325:5433  function AtraccionesDisponibles() public view returns (string [] memory) {... */\n    tag_54:\n        /* \"DISNEY/disney.sol\":5380:5396  string [] memory */\n      0x60\n        /* \"DISNEY/disney.sol\":5415:5426  Atracciones */\n      0x04\n        /* \"DISNEY/disney.sol\":5408:5426  return Atracciones */\n      dup1\n      sload\n      dup1\n      0x20\n      mul\n      0x20\n      add\n      mload(0x40)\n      swap1\n      dup2\n      add\n      0x40\n      mstore\n      dup1\n      swap3\n      swap2\n      swap1\n      dup2\n      dup2\n      mstore\n      0x20\n      add\n      0x00\n      swap1\n    tag_184:\n      dup3\n      dup3\n      lt\n      iszero\n      tag_185\n      jumpi\n      dup4\n      dup3\n      swap1\n      0x00\n      mstore\n      keccak256(0x00, 0x20)\n      add\n      dup1\n      sload\n      0x01\n      dup2\n      0x01\n      and\n      iszero\n      0x0100\n      mul\n      sub\n      and\n      0x02\n      swap1\n      div\n      dup1\n      0x1f\n      add\n      0x20\n      dup1\n      swap2\n      div\n      mul\n      0x20\n      add\n      mload(0x40)\n      swap1\n      dup2\n      add\n      0x40\n      mstore\n      dup1\n      swap3\n      swap2\n      swap1\n      dup2\n      dup2\n      mstore\n      0x20\n      add\n      dup3\n      dup1\n      sload\n      0x01\n      dup2\n      0x01\n      and\n      iszero\n      0x0100\n      mul\n      sub\n      and\n      0x02\n      swap1\n      div\n      dup1\n      iszero\n      tag_187\n      jumpi\n      dup1\n      0x1f\n      lt\n      tag_188\n      jumpi\n      0x0100\n      dup1\n      dup4\n      sload\n      div\n      mul\n      dup4\n      mstore\n      swap2\n      0x20\n      add\n      swap2\n      jump(tag_187)\n    tag_188:\n      dup3\n      add\n      swap2\n      swap1\n      0x00\n      mstore\n      keccak256(0x00, 0x20)\n      swap1\n    tag_189:\n      dup2\n      sload\n      dup2\n      mstore\n      swap1\n      0x01\n      add\n      swap1\n      0x20\n      add\n      dup1\n      dup4\n      gt\n      tag_189\n      jumpi\n      dup3\n      swap1\n      sub\n      0x1f\n      and\n      dup3\n      add\n      swap2\n    tag_187:\n      pop\n      pop\n      pop\n      pop\n      pop\n      dup2\n      mstore\n      0x20\n      add\n      swap1\n      0x01\n      add\n      swap1\n      jump(tag_184)\n    tag_185:\n      pop\n      pop\n      pop\n      pop\n      swap1\n      pop\n        /* \"DISNEY/disney.sol\":5325:5433  function AtraccionesDisponibles() public view returns (string [] memory) {... */\n      swap1\n      jump\t// out\n        /* \"DISNEY/disney.sol\":4374:4844  function AltaAtraccion(string memory _nombreAtraccion, uint _precio) public Unicamente (msg.sender) {... */\n    tag_59:\n        /* \"DISNEY/disney.sol\":4462:4472  msg.sender */\n      caller\n        /* \"DISNEY/disney.sol\":2747:2752  owner */\n      0x01\n      0x00\n      swap1\n      sload\n      swap1\n      0x0100\n      exp\n      swap1\n      div\n      0xffffffffffffffffffffffffffffffffffffffff\n      and\n        /* \"DISNEY/disney.sol\":2733:2752  _direccion == owner */\n      0xffffffffffffffffffffffffffffffffffffffff\n      and\n        /* \"DISNEY/disney.sol\":2733:2743  _direccion */\n      dup2\n        /* \"DISNEY/disney.sol\":2733:2752  _direccion == owner */\n      0xffffffffffffffffffffffffffffffffffffffff\n      and\n      eq\n        /* \"DISNEY/disney.sol\":2725:2803  require(_direccion == owner, \"No tienes permisos para ejecutar esta funcion.\") */\n      tag_191\n      jumpi\n      mload(0x40)\n      0x08c379a000000000000000000000000000000000000000000000000000000000\n      dup2\n      mstore\n      0x04\n      add\n      tag_192\n      swap1\n      tag_120\n      jump\t// in\n    tag_192:\n      mload(0x40)\n      dup1\n      swap2\n      sub\n      swap1\n      revert\n    tag_191:\n        /* \"DISNEY/disney.sol\":4570:4612  atraccion(_nombreAtraccion, _precio, true) */\n      mload(0x40)\n      dup1\n      0x60\n      add\n      0x40\n      mstore\n      dup1\n        /* \"DISNEY/disney.sol\":4580:4596  _nombreAtraccion */\n      dup5\n        /* \"DISNEY/disney.sol\":4570:4612  atraccion(_nombreAtraccion, _precio, true) */\n      dup2\n      mstore\n      0x20\n      add\n        /* \"DISNEY/disney.sol\":4598:4605  _precio */\n      dup4\n        /* \"DISNEY/disney.sol\":4570:4612  atraccion(_nombreAtraccion, _precio, true) */\n      dup2\n      mstore\n      0x20\n      add\n        /* \"DISNEY/disney.sol\":4607:4611  true */\n      0x01\n        /* \"DISNEY/disney.sol\":4570:4612  atraccion(_nombreAtraccion, _precio, true) */\n      iszero\n      iszero\n      dup2\n      mstore\n      pop\n        /* \"DISNEY/disney.sol\":4531:4549  MappingAtracciones */\n      0x03\n        /* \"DISNEY/disney.sol\":4550:4566  _nombreAtraccion */\n      dup5\n        /* \"DISNEY/disney.sol\":4531:4567  MappingAtracciones[_nombreAtraccion] */\n      mload(0x40)\n      tag_194\n      swap2\n      swap1\n      tag_128\n      jump\t// in\n    tag_194:\n      swap1\n      dup2\n      mstore\n      0x20\n      add\n      mload(0x40)\n      dup1\n      swap2\n      sub\n      swap1\n      keccak256\n        /* \"DISNEY/disney.sol\":4531:4612  MappingAtracciones[_nombreAtraccion] = atraccion(_nombreAtraccion, _precio, true) */\n      0x00\n      dup3\n      add\n      mload\n      dup2\n      0x00\n      add\n      swap1\n      dup1\n      mload\n      swap1\n      0x20\n      add\n      swap1\n      tag_195\n      swap3\n      swap2\n      swap1\n      tag_146\n      jump\t// in\n    tag_195:\n      pop\n      0x20\n      dup3\n      add\n      mload\n      dup2\n      0x01\n      add\n      sstore\n      0x40\n      dup3\n      add\n      mload\n      dup2\n      0x02\n      add\n      exp(0x0100, 0x00)\n      dup2\n      sload\n      dup2\n      0xff\n      mul\n      not\n      and\n      swap1\n      dup4\n      iszero\n      iszero\n      mul\n      or\n      swap1\n      sstore\n      pop\n      swap1\n      pop\n      pop\n        /* \"DISNEY/disney.sol\":4688:4699  Atracciones */\n      0x04\n        /* \"DISNEY/disney.sol\":4705:4721  _nombreAtraccion */\n      dup4\n        /* \"DISNEY/disney.sol\":4688:4722  Atracciones.push(_nombreAtraccion) */\n      swap1\n      dup1\n      0x01\n      dup2\n      sload\n      add\n      dup1\n      dup3\n      sstore\n      dup1\n      swap2\n      pop\n      pop\n      0x01\n      swap1\n      sub\n      swap1\n      0x00\n      mstore\n      keccak256(0x00, 0x20)\n      add\n      0x00\n      swap1\n      swap2\n      swap1\n      swap2\n      swap1\n      swap2\n      pop\n      swap1\n      dup1\n      mload\n      swap1\n      0x20\n      add\n      swap1\n      tag_197\n      swap3\n      swap2\n      swap1\n      tag_146\n      jump\t// in\n    tag_197:\n      pop\n        /* \"DISNEY/disney.sol\":4796:4837  alta_atraccion(_nombreAtraccion, _precio) */\n      0xef69c38fe63a06c66bf59a6eedc8716eba333ed78488e0b767455a9cf2eecbb3\n        /* \"DISNEY/disney.sol\":4811:4827  _nombreAtraccion */\n      dup4\n        /* \"DISNEY/disney.sol\":4829:4836  _precio */\n      dup4\n        /* \"DISNEY/disney.sol\":4796:4837  alta_atraccion(_nombreAtraccion, _precio) */\n      mload(0x40)\n      tag_198\n      swap3\n      swap2\n      swap1\n      tag_175\n      jump\t// in\n    tag_198:\n      mload(0x40)\n      dup1\n      swap2\n      sub\n      swap1\n      log1\n        /* \"DISNEY/disney.sol\":4374:4844  function AltaAtraccion(string memory _nombreAtraccion, uint _precio) public Unicamente (msg.sender) {... */\n      pop\n      pop\n      pop\n      jump\t// out\n        /* \"DISNEY/disney.sol\":8316:9694  function ComprarComida (string memory _nombreComida) public {... */\n    tag_63:\n        /* \"DISNEY/disney.sol\":8429:8447  uint tokens_comida */\n      0x00\n        /* \"DISNEY/disney.sol\":8450:8463  MappingComida */\n      0x06\n        /* \"DISNEY/disney.sol\":8464:8477  _nombreComida */\n      dup3\n        /* \"DISNEY/disney.sol\":8450:8478  MappingComida[_nombreComida] */\n      mload(0x40)\n      tag_200\n      swap2\n      swap1\n      tag_128\n      jump\t// in\n    tag_200:\n      swap1\n      dup2\n      mstore\n      0x20\n      add\n      mload(0x40)\n      dup1\n      swap2\n      sub\n      swap1\n      keccak256\n        /* \"DISNEY/disney.sol\":8450:8492  MappingComida[_nombreComida].precio_comida */\n      0x01\n      add\n      sload\n        /* \"DISNEY/disney.sol\":8429:8492  uint tokens_comida = MappingComida[_nombreComida].precio_comida */\n      swap1\n      pop\n        /* \"DISNEY/disney.sol\":8635:8639  true */\n      0x01\n        /* \"DISNEY/disney.sol\":8590:8639  MappingComida[_nombreComida].stock_comida == true */\n      iszero\n      iszero\n        /* \"DISNEY/disney.sol\":8590:8603  MappingComida */\n      0x06\n        /* \"DISNEY/disney.sol\":8604:8617  _nombreComida */\n      dup4\n        /* \"DISNEY/disney.sol\":8590:8618  MappingComida[_nombreComida] */\n      mload(0x40)\n      tag_201\n      swap2\n      swap1\n      tag_128\n      jump\t// in\n    tag_201:\n      swap1\n      dup2\n      mstore\n      0x20\n      add\n      mload(0x40)\n      dup1\n      swap2\n      sub\n      swap1\n      keccak256\n        /* \"DISNEY/disney.sol\":8590:8631  MappingComida[_nombreComida].stock_comida */\n      0x02\n      add\n      0x00\n      swap1\n      sload\n      swap1\n      0x0100\n      exp\n      swap1\n      div\n      0xff\n      and\n        /* \"DISNEY/disney.sol\":8590:8639  MappingComida[_nombreComida].stock_comida == true */\n      iszero\n      iszero\n      eq\n        /* \"DISNEY/disney.sol\":8582:8707  require(MappingComida[_nombreComida].stock_comida == true,... */\n      tag_202\n      jumpi\n      mload(0x40)\n      0x08c379a000000000000000000000000000000000000000000000000000000000\n      dup2\n      mstore\n      0x04\n      add\n      tag_203\n      swap1\n      tag_204\n      jump\t// in\n    tag_203:\n      mload(0x40)\n      dup1\n      swap2\n      sub\n      swap1\n      revert\n    tag_202:\n        /* \"DISNEY/disney.sol\":8824:8835  MisTokens() */\n      tag_205\n        /* \"DISNEY/disney.sol\":8824:8833  MisTokens */\n      tag_100\n        /* \"DISNEY/disney.sol\":8824:8835  MisTokens() */\n      jump\t// in\n    tag_205:\n        /* \"DISNEY/disney.sol\":8807:8820  tokens_comida */\n      dup2\n        /* \"DISNEY/disney.sol\":8807:8835  tokens_comida <= MisTokens() */\n      gt\n      iszero\n        /* \"DISNEY/disney.sol\":8799:8902  require(tokens_comida <= MisTokens(),... */\n      tag_206\n      jumpi\n      mload(0x40)\n      0x08c379a000000000000000000000000000000000000000000000000000000000\n      dup2\n      mstore\n      0x04\n      add\n      tag_207\n      swap1\n      tag_208\n      jump\t// in\n    tag_207:\n      mload(0x40)\n      dup1\n      swap2\n      sub\n      swap1\n      revert\n    tag_206:\n        /* \"DISNEY/disney.sol\":9366:9371  token */\n      0x00\n      dup1\n      sload\n      swap1\n      0x0100\n      exp\n      swap1\n      div\n      0xffffffffffffffffffffffffffffffffffffffff\n      and\n        /* \"DISNEY/disney.sol\":9366:9392  token.transferencia_disney */\n      0xffffffffffffffffffffffffffffffffffffffff\n      and\n      0xf490a351\n        /* \"DISNEY/disney.sol\":9393:9403  msg.sender */\n      caller\n        /* \"DISNEY/disney.sol\":9414:9418  this */\n      address\n        /* \"DISNEY/disney.sol\":9421:9434  tokens_comida */\n      dup5\n        /* \"DISNEY/disney.sol\":9366:9435  token.transferencia_disney(msg.sender,  address(this), tokens_comida) */\n      mload(0x40)\n      dup5\n      0xffffffff\n      and\n      0xe0\n      shl\n      dup2\n      mstore\n      0x04\n      add\n      tag_209\n      swap4\n      swap3\n      swap2\n      swap1\n      tag_138\n      jump\t// in\n    tag_209:\n      0x20\n      mload(0x40)\n      dup1\n      dup4\n      sub\n      dup2\n      0x00\n      dup8\n      dup1\n      extcodesize\n      iszero\n      dup1\n      iszero\n      tag_210\n      jumpi\n      0x00\n      dup1\n      revert\n    tag_210:\n      pop\n      gas\n      call\n      iszero\n      dup1\n      iszero\n      tag_212\n      jumpi\n      returndatasize\n      0x00\n      dup1\n      returndatacopy\n      revert(0x00, returndatasize)\n    tag_212:\n      pop\n      pop\n      pop\n      pop\n      mload(0x40)\n      returndatasize\n      not(0x1f)\n      0x1f\n      dup3\n      add\n      and\n      dup3\n      add\n      dup1\n      0x40\n      mstore\n      pop\n      dup2\n      add\n      swap1\n      tag_213\n      swap2\n      swap1\n      tag_143\n      jump\t// in\n    tag_213:\n      pop\n        /* \"DISNEY/disney.sol\":9510:9526  HistorialComidas */\n      0x08\n        /* \"DISNEY/disney.sol\":9510:9538  HistorialComidas[msg.sender] */\n      0x00\n        /* \"DISNEY/disney.sol\":9527:9537  msg.sender */\n      caller\n        /* \"DISNEY/disney.sol\":9510:9538  HistorialComidas[msg.sender] */\n      0xffffffffffffffffffffffffffffffffffffffff\n      and\n      0xffffffffffffffffffffffffffffffffffffffff\n      and\n      dup2\n      mstore\n      0x20\n      add\n      swap1\n      dup2\n      mstore\n      0x20\n      add\n      0x00\n      keccak256\n        /* \"DISNEY/disney.sol\":9544:9557  _nombreComida */\n      dup3\n        /* \"DISNEY/disney.sol\":9510:9558  HistorialComidas[msg.sender].push(_nombreComida) */\n      swap1\n      dup1\n      0x01\n      dup2\n      sload\n      add\n      dup1\n      dup3\n      sstore\n      dup1\n      swap2\n      pop\n      pop\n      0x01\n      swap1\n      sub\n      swap1\n      0x00\n      mstore\n      keccak256(0x00, 0x20)\n      add\n      0x00\n      swap1\n      swap2\n      swap1\n      swap2\n      swap1\n      swap2\n      pop\n      swap1\n      dup1\n      mload\n      swap1\n      0x20\n      add\n      swap1\n      tag_215\n      swap3\n      swap2\n      swap1\n      tag_146\n      jump\t// in\n    tag_215:\n      pop\n        /* \"DISNEY/disney.sol\":9632:9687  compra_comida(_nombreComida, tokens_comida, msg.sender) */\n      0x38575f00c411070be2dc99a8b04eb4aeba192b4c7ccbb587aa4227d5398ff1cb\n        /* \"DISNEY/disney.sol\":9646:9659  _nombreComida */\n      dup3\n        /* \"DISNEY/disney.sol\":9661:9674  tokens_comida */\n      dup3\n        /* \"DISNEY/disney.sol\":9676:9686  msg.sender */\n      caller\n        /* \"DISNEY/disney.sol\":9632:9687  compra_comida(_nombreComida, tokens_comida, msg.sender) */\n      mload(0x40)\n      tag_216\n      swap4\n      swap3\n      swap2\n      swap1\n      tag_148\n      jump\t// in\n    tag_216:\n      mload(0x40)\n      dup1\n      swap2\n      sub\n      swap1\n      log1\n        /* \"DISNEY/disney.sol\":8316:9694  function ComprarComida (string memory _nombreComida) public {... */\n      pop\n      pop\n      jump\t// out\n        /* \"DISNEY/disney.sol\":311:339  address payable public owner */\n    tag_66:\n      0x01\n      0x00\n      swap1\n      sload\n      swap1\n      0x0100\n      exp\n      swap1\n      div\n      0xffffffffffffffffffffffffffffffffffffffff\n      and\n      dup2\n      jump\t// out\n        /* \"DISNEY/disney.sol\":8147:8247  function ComidasDisponibles() public view returns (string [] memory) {... */\n    tag_71:\n        /* \"DISNEY/disney.sol\":8198:8214  string [] memory */\n      0x60\n        /* \"DISNEY/disney.sol\":8233:8240  Comidas */\n      0x07\n        /* \"DISNEY/disney.sol\":8226:8240  return Comidas */\n      dup1\n      sload\n      dup1\n      0x20\n      mul\n      0x20\n      add\n      mload(0x40)\n      swap1\n      dup2\n      add\n      0x40\n      mstore\n      dup1\n      swap3\n      swap2\n      swap1\n      dup2\n      dup2\n      mstore\n      0x20\n      add\n      0x00\n      swap1\n    tag_218:\n      dup3\n      dup3\n      lt\n      iszero\n      tag_219\n      jumpi\n      dup4\n      dup3\n      swap1\n      0x00\n      mstore\n      keccak256(0x00, 0x20)\n      add\n      dup1\n      sload\n      0x01\n      dup2\n      0x01\n      and\n      iszero\n      0x0100\n      mul\n      sub\n      and\n      0x02\n      swap1\n      div\n      dup1\n      0x1f\n      add\n      0x20\n      dup1\n      swap2\n      div\n      mul\n      0x20\n      add\n      mload(0x40)\n      swap1\n      dup2\n      add\n      0x40\n      mstore\n      dup1\n      swap3\n      swap2\n      swap1\n      dup2\n      dup2\n      mstore\n      0x20\n      add\n      dup3\n      dup1\n      sload\n      0x01\n      dup2\n      0x01\n      and\n      iszero\n      0x0100\n      mul\n      sub\n      and\n      0x02\n      swap1\n      div\n      dup1\n      iszero\n      tag_221\n      jumpi\n      dup1\n      0x1f\n      lt\n      tag_222\n      jumpi\n      0x0100\n      dup1\n      dup4\n      sload\n      div\n      mul\n      dup4\n      mstore\n      swap2\n      0x20\n      add\n      swap2\n      jump(tag_221)\n    tag_222:\n      dup3\n      add\n      swap2\n      swap1\n      0x00\n      mstore\n      keccak256(0x00, 0x20)\n      swap1\n    tag_223:\n      dup2\n      sload\n      dup2\n      mstore\n      swap1\n      0x01\n      add\n      swap1\n      0x20\n      add\n      dup1\n      dup4\n      gt\n      tag_223\n      jumpi\n      dup3\n      swap1\n      sub\n      0x1f\n      and\n      dup3\n      add\n      swap2\n    tag_221:\n      pop\n      pop\n      pop\n      pop\n      pop\n      dup2\n      mstore\n      0x20\n      add\n      swap1\n      0x01\n      add\n      swap1\n      jump(tag_218)\n    tag_219:\n      pop\n      pop\n      pop\n      pop\n      swap1\n      pop\n        /* \"DISNEY/disney.sol\":8147:8247  function ComidasDisponibles() public view returns (string [] memory) {... */\n      swap1\n      jump\t// out\n        /* \"DISNEY/disney.sol\":4924:5262  function BajaAtraccion(string memory _nombreAtraccion) public Unicamente (msg.sender) {... */\n    tag_76:\n        /* \"DISNEY/disney.sol\":4998:5008  msg.sender */\n      caller\n        /* \"DISNEY/disney.sol\":2747:2752  owner */\n      0x01\n      0x00\n      swap1\n      sload\n      swap1\n      0x0100\n      exp\n      swap1\n      div\n      0xffffffffffffffffffffffffffffffffffffffff\n      and\n        /* \"DISNEY/disney.sol\":2733:2752  _direccion == owner */\n      0xffffffffffffffffffffffffffffffffffffffff\n      and\n        /* \"DISNEY/disney.sol\":2733:2743  _direccion */\n      dup2\n        /* \"DISNEY/disney.sol\":2733:2752  _direccion == owner */\n      0xffffffffffffffffffffffffffffffffffffffff\n      and\n      eq\n        /* \"DISNEY/disney.sol\":2725:2803  require(_direccion == owner, \"No tienes permisos para ejecutar esta funcion.\") */\n      tag_225\n      jumpi\n      mload(0x40)\n      0x08c379a000000000000000000000000000000000000000000000000000000000\n      dup2\n      mstore\n      0x04\n      add\n      tag_226\n      swap1\n      tag_120\n      jump\t// in\n    tag_226:\n      mload(0x40)\n      dup1\n      swap2\n      sub\n      swap1\n      revert\n    tag_225:\n        /* \"DISNEY/disney.sol\":5144:5149  false */\n      0x00\n        /* \"DISNEY/disney.sol\":5088:5106  MappingAtracciones */\n      0x03\n        /* \"DISNEY/disney.sol\":5107:5123  _nombreAtraccion */\n      dup4\n        /* \"DISNEY/disney.sol\":5088:5124  MappingAtracciones[_nombreAtraccion] */\n      mload(0x40)\n      tag_228\n      swap2\n      swap1\n      tag_128\n      jump\t// in\n    tag_228:\n      swap1\n      dup2\n      mstore\n      0x20\n      add\n      mload(0x40)\n      dup1\n      swap2\n      sub\n      swap1\n      keccak256\n        /* \"DISNEY/disney.sol\":5088:5141  MappingAtracciones[_nombreAtraccion].estado_atraccion */\n      0x02\n      add\n      0x00\n        /* \"DISNEY/disney.sol\":5088:5149  MappingAtracciones[_nombreAtraccion].estado_atraccion = false */\n      0x0100\n      exp\n      dup2\n      sload\n      dup2\n      0xff\n      mul\n      not\n      and\n      swap1\n      dup4\n      iszero\n      iszero\n      mul\n      or\n      swap1\n      sstore\n      pop\n        /* \"DISNEY/disney.sol\":5223:5255  baja_atraccion(_nombreAtraccion) */\n      0x24ba6c881728980191398db8dcfd8ed4f6aeb1c08df349d63f3b85075f3e86dd\n        /* \"DISNEY/disney.sol\":5238:5254  _nombreAtraccion */\n      dup3\n        /* \"DISNEY/disney.sol\":5223:5255  baja_atraccion(_nombreAtraccion) */\n      mload(0x40)\n      tag_229\n      swap2\n      swap1\n      tag_230\n      jump\t// in\n    tag_229:\n      mload(0x40)\n      dup1\n      swap2\n      sub\n      swap1\n      log1\n        /* \"DISNEY/disney.sol\":4924:5262  function BajaAtraccion(string memory _nombreAtraccion) public Unicamente (msg.sender) {... */\n      pop\n      pop\n      jump\t// out\n        /* \"DISNEY/disney.sol\":784:828  mapping (address => cliente) public Clientes */\n    tag_81:\n      mstore(0x20, 0x02)\n      dup1\n      0x00\n      mstore\n      keccak256(0x00, 0x40)\n      0x00\n      swap2\n      pop\n      swap1\n      pop\n      dup1\n      0x00\n      add\n      sload\n      swap1\n      pop\n      dup2\n      jump\t// out\n        /* \"DISNEY/disney.sol\":3653:3708  mapping (string => atraccion) public MappingAtracciones */\n    tag_86:\n      0x03\n      dup2\n      dup1\n      mload\n      0x20\n      dup2\n      add\n      dup3\n      add\n      dup1\n      mload\n      dup5\n      dup3\n      mstore\n      0x20\n      dup4\n      add\n      0x20\n      dup6\n      add\n      keccak256\n      dup2\n      dup4\n      mstore\n      dup1\n      swap6\n      pop\n      pop\n      pop\n      pop\n      pop\n      pop\n      0x00\n      swap2\n      pop\n      swap1\n      pop\n      dup1\n      0x00\n      add\n      dup1\n      sload\n      0x01\n      dup2\n      0x01\n      and\n      iszero\n      0x0100\n      mul\n      sub\n      and\n      0x02\n      swap1\n      div\n      dup1\n      0x1f\n      add\n      0x20\n      dup1\n      swap2\n      div\n      mul\n      0x20\n      add\n      mload(0x40)\n      swap1\n      dup2\n      add\n      0x40\n      mstore\n      dup1\n      swap3\n      swap2\n      swap1\n      dup2\n      dup2\n      mstore\n      0x20\n      add\n      dup3\n      dup1\n      sload\n      0x01\n      dup2\n      0x01\n      and\n      iszero\n      0x0100\n      mul\n      sub\n      and\n      0x02\n      swap1\n      div\n      dup1\n      iszero\n      tag_231\n      jumpi\n      dup1\n      0x1f\n      lt\n      tag_232\n      jumpi\n      0x0100\n      dup1\n      dup4\n      sload\n      div\n      mul\n      dup4\n      mstore\n      swap2\n      0x20\n      add\n      swap2\n      jump(tag_231)\n    tag_232:\n      dup3\n      add\n      swap2\n      swap1\n      0x00\n      mstore\n      keccak256(0x00, 0x20)\n      swap1\n    tag_233:\n      dup2\n      sload\n      dup2\n      mstore\n      swap1\n      0x01\n      add\n      swap1\n      0x20\n      add\n      dup1\n      dup4\n      gt\n      tag_233\n      jumpi\n      dup3\n      swap1\n      sub\n      0x1f\n      and\n      dup3\n      add\n      swap2\n    tag_231:\n      pop\n      pop\n      pop\n      pop\n      pop\n      swap1\n      dup1\n      0x01\n      add\n      sload\n      swap1\n      dup1\n      0x02\n      add\n      0x00\n      swap1\n      sload\n      swap1\n      0x0100\n      exp\n      swap1\n      div\n      0xff\n      and\n      swap1\n      pop\n      dup4\n      jump\t// out\n        /* \"DISNEY/disney.sol\":4017:4064  mapping (string => comida) public MappingComida */\n    tag_92:\n      0x06\n      dup2\n      dup1\n      mload\n      0x20\n      dup2\n      add\n      dup3\n      add\n      dup1\n      mload\n      dup5\n      dup3\n      mstore\n      0x20\n      dup4\n      add\n      0x20\n      dup6\n      add\n      keccak256\n      dup2\n      dup4\n      mstore\n      dup1\n      swap6\n      pop\n      pop\n      pop\n      pop\n      pop\n      pop\n      0x00\n      swap2\n      pop\n      swap1\n      pop\n      dup1\n      0x00\n      add\n      dup1\n      sload\n      0x01\n      dup2\n      0x01\n      and\n      iszero\n      0x0100\n      mul\n      sub\n      and\n      0x02\n      swap1\n      div\n      dup1\n      0x1f\n      add\n      0x20\n      dup1\n      swap2\n      div\n      mul\n      0x20\n      add\n      mload(0x40)\n      swap1\n      dup2\n      add\n      0x40\n      mstore\n      dup1\n      swap3\n      swap2\n      swap1\n      dup2\n      dup2\n      mstore\n      0x20\n      add\n      dup3\n      dup1\n      sload\n      0x01\n      dup2\n      0x01\n      and\n      iszero\n      0x0100\n      mul\n      sub\n      and\n      0x02\n      swap1\n      div\n      dup1\n      iszero\n      tag_234\n      jumpi\n      dup1\n      0x1f\n      lt\n      tag_235\n      jumpi\n      0x0100\n      dup1\n      dup4\n      sload\n      div\n      mul\n      dup4\n      mstore\n      swap2\n      0x20\n      add\n      swap2\n      jump(tag_234)\n    tag_235:\n      dup3\n      add\n      swap2\n      swap1\n      0x00\n      mstore\n      keccak256(0x00, 0x20)\n      swap1\n    tag_236:\n      dup2\n      sload\n      dup2\n      mstore\n      swap1\n      0x01\n      add\n      swap1\n      0x20\n      add\n      dup1\n      dup4\n      gt\n      tag_236\n      jumpi\n      dup3\n      swap1\n      sub\n      0x1f\n      and\n      dup3\n      add\n      swap2\n    tag_234:\n      pop\n      pop\n      pop\n      pop\n      pop\n      swap1\n      dup1\n      0x01\n      add\n      sload\n      swap1\n      dup1\n      0x02\n      add\n      0x00\n      swap1\n      sload\n      swap1\n      0x0100\n      exp\n      swap1\n      div\n      0xff\n      and\n      swap1\n      pop\n      dup4\n      jump\t// out\n        /* \"DISNEY/disney.sol\":7774:8088  function BajaComida(string memory _nombreComida) public Unicamente (msg.sender) {... */\n    tag_97:\n        /* \"DISNEY/disney.sol\":7842:7852  msg.sender */\n      caller\n        /* \"DISNEY/disney.sol\":2747:2752  owner */\n      0x01\n      0x00\n      swap1\n      sload\n      swap1\n      0x0100\n      exp\n      swap1\n      div\n      0xffffffffffffffffffffffffffffffffffffffff\n      and\n        /* \"DISNEY/disney.sol\":2733:2752  _direccion == owner */\n      0xffffffffffffffffffffffffffffffffffffffff\n      and\n        /* \"DISNEY/disney.sol\":2733:2743  _direccion */\n      dup2\n        /* \"DISNEY/disney.sol\":2733:2752  _direccion == owner */\n      0xffffffffffffffffffffffffffffffffffffffff\n      and\n      eq\n        /* \"DISNEY/disney.sol\":2725:2803  require(_direccion == owner, \"No tienes permisos para ejecutar esta funcion.\") */\n      tag_238\n      jumpi\n      mload(0x40)\n      0x08c379a000000000000000000000000000000000000000000000000000000000\n      dup2\n      mstore\n      0x04\n      add\n      tag_239\n      swap1\n      tag_120\n      jump\t// in\n    tag_239:\n      mload(0x40)\n      dup1\n      swap2\n      sub\n      swap1\n      revert\n    tag_238:\n        /* \"DISNEY/disney.sol\":7976:7981  false */\n      0x00\n        /* \"DISNEY/disney.sol\":7932:7945  MappingComida */\n      0x06\n        /* \"DISNEY/disney.sol\":7946:7959  _nombreComida */\n      dup4\n        /* \"DISNEY/disney.sol\":7932:7960  MappingComida[_nombreComida] */\n      mload(0x40)\n      tag_241\n      swap2\n      swap1\n      tag_128\n      jump\t// in\n    tag_241:\n      swap1\n      dup2\n      mstore\n      0x20\n      add\n      mload(0x40)\n      dup1\n      swap2\n      sub\n      swap1\n      keccak256\n        /* \"DISNEY/disney.sol\":7932:7973  MappingComida[_nombreComida].stock_comida */\n      0x02\n      add\n      0x00\n        /* \"DISNEY/disney.sol\":7932:7981  MappingComida[_nombreComida].stock_comida = false */\n      0x0100\n      exp\n      dup2\n      sload\n      dup2\n      0xff\n      mul\n      not\n      and\n      swap1\n      dup4\n      iszero\n      iszero\n      mul\n      or\n      swap1\n      sstore\n      pop\n        /* \"DISNEY/disney.sol\":8055:8081  baja_comida(_nombreComida) */\n      0xc08b02ec29b10837b03ba712be7196ccd02824c57a727dbd6c9718051c9437c6\n        /* \"DISNEY/disney.sol\":8067:8080  _nombreComida */\n      dup3\n        /* \"DISNEY/disney.sol\":8055:8081  baja_comida(_nombreComida) */\n      mload(0x40)\n      tag_242\n      swap2\n      swap1\n      tag_230\n      jump\t// in\n    tag_242:\n      mload(0x40)\n      dup1\n      swap2\n      sub\n      swap1\n      log1\n        /* \"DISNEY/disney.sol\":7774:8088  function BajaComida(string memory _nombreComida) public Unicamente (msg.sender) {... */\n      pop\n      pop\n      jump\t// out\n        /* \"DISNEY/disney.sol\":2324:2423  function MisTokens() public view returns (uint) {... */\n    tag_100:\n        /* \"DISNEY/disney.sol\":2366:2370  uint */\n      0x00\n        /* \"DISNEY/disney.sol\":2389:2394  token */\n      dup1\n      0x00\n      swap1\n      sload\n      swap1\n      0x0100\n      exp\n      swap1\n      div\n      0xffffffffffffffffffffffffffffffffffffffff\n      and\n        /* \"DISNEY/disney.sol\":2389:2404  token.balanceOf */\n      0xffffffffffffffffffffffffffffffffffffffff\n      and\n      0x70a08231\n        /* \"DISNEY/disney.sol\":2405:2415  msg.sender */\n      caller\n        /* \"DISNEY/disney.sol\":2389:2416  token.balanceOf(msg.sender) */\n      mload(0x40)\n      dup3\n      0xffffffff\n      and\n      0xe0\n      shl\n      dup2\n      mstore\n      0x04\n      add\n      tag_244\n      swap2\n      swap1\n      tag_245\n      jump\t// in\n    tag_244:\n      0x20\n      mload(0x40)\n      dup1\n      dup4\n      sub\n      dup2\n      dup7\n      dup1\n      extcodesize\n      iszero\n      dup1\n      iszero\n      tag_246\n      jumpi\n      0x00\n      dup1\n      revert\n    tag_246:\n      pop\n      gas\n      staticcall\n      iszero\n      dup1\n      iszero\n      tag_248\n      jumpi\n      returndatasize\n      0x00\n      dup1\n      returndatacopy\n      revert(0x00, returndatasize)\n    tag_248:\n      pop\n      pop\n      pop\n      pop\n      mload(0x40)\n      returndatasize\n      not(0x1f)\n      0x1f\n      dup3\n      add\n      and\n      dup3\n      add\n      dup1\n      0x40\n      mstore\n      pop\n      dup2\n      add\n      swap1\n      tag_249\n      swap2\n      swap1\n      tag_116\n      jump\t// in\n    tag_249:\n        /* \"DISNEY/disney.sol\":2382:2416  return token.balanceOf(msg.sender) */\n      swap1\n      pop\n        /* \"DISNEY/disney.sol\":2324:2423  function MisTokens() public view returns (uint) {... */\n      swap1\n      jump\t// out\n        /* \"DISNEY/disney.sol\":9768:9895  function ConsultaHistorialComidas() public view returns (string [] memory) {... */\n    tag_104:\n        /* \"DISNEY/disney.sol\":9825:9841  string [] memory */\n      0x60\n        /* \"DISNEY/disney.sol\":9860:9876  HistorialComidas */\n      0x08\n        /* \"DISNEY/disney.sol\":9860:9888  HistorialComidas[msg.sender] */\n      0x00\n        /* \"DISNEY/disney.sol\":9877:9887  msg.sender */\n      caller\n        /* \"DISNEY/disney.sol\":9860:9888  HistorialComidas[msg.sender] */\n      0xffffffffffffffffffffffffffffffffffffffff\n      and\n      0xffffffffffffffffffffffffffffffffffffffff\n      and\n      dup2\n      mstore\n      0x20\n      add\n      swap1\n      dup2\n      mstore\n      0x20\n      add\n      0x00\n      keccak256\n        /* \"DISNEY/disney.sol\":9853:9888  return HistorialComidas[msg.sender] */\n      dup1\n      sload\n      dup1\n      0x20\n      mul\n      0x20\n      add\n      mload(0x40)\n      swap1\n      dup2\n      add\n      0x40\n      mstore\n      dup1\n      swap3\n      swap2\n      swap1\n      dup2\n      dup2\n      mstore\n      0x20\n      add\n      0x00\n      swap1\n    tag_251:\n      dup3\n      dup3\n      lt\n      iszero\n      tag_252\n      jumpi\n      dup4\n      dup3\n      swap1\n      0x00\n      mstore\n      keccak256(0x00, 0x20)\n      add\n      dup1\n      sload\n      0x01\n      dup2\n      0x01\n      and\n      iszero\n      0x0100\n      mul\n      sub\n      and\n      0x02\n      swap1\n      div\n      dup1\n      0x1f\n      add\n      0x20\n      dup1\n      swap2\n      div\n      mul\n      0x20\n      add\n      mload(0x40)\n      swap1\n      dup2\n      add\n      0x40\n      mstore\n      dup1\n      swap3\n      swap2\n      swap1\n      dup2\n      dup2\n      mstore\n      0x20\n      add\n      dup3\n      dup1\n      sload\n      0x01\n      dup2\n      0x01\n      and\n      iszero\n      0x0100\n      mul\n      sub\n      and\n      0x02\n      swap1\n      div\n      dup1\n      iszero\n      tag_254\n      jumpi\n      dup1\n      0x1f\n      lt\n      tag_255\n      jumpi\n      0x0100\n      dup1\n      dup4\n      sload\n      div\n      mul\n      dup4\n      mstore\n      swap2\n      0x20\n      add\n      swap2\n      jump(tag_254)\n    tag_255:\n      dup3\n      add\n      swap2\n      swap1\n      0x00\n      mstore\n      keccak256(0x00, 0x20)\n      swap1\n    tag_256:\n      dup2\n      sload\n      dup2\n      mstore\n      swap1\n      0x01\n      add\n      swap1\n      0x20\n      add\n      dup1\n      dup4\n      gt\n      tag_256\n      jumpi\n      dup3\n      swap1\n      sub\n      0x1f\n      and\n      dup3\n      add\n      swap2\n    tag_254:\n      pop\n      pop\n      pop\n      pop\n      pop\n      dup2\n      mstore\n      0x20\n      add\n      swap1\n      0x01\n      add\n      swap1\n      jump(tag_251)\n    tag_252:\n      pop\n      pop\n      pop\n      pop\n      swap1\n      pop\n        /* \"DISNEY/disney.sol\":9768:9895  function ConsultaHistorialComidas() public view returns (string [] memory) {... */\n      swap1\n      jump\t// out\n        /* \"DISNEY/disney.sol\":1214:2100  function CompraTokens(uint _numTokens) public payable {... */\n    tag_108:\n        /* \"DISNEY/disney.sol\":1324:1334  uint coste */\n      0x00\n        /* \"DISNEY/disney.sol\":1337:1361  PrecioTokens(_numTokens) */\n      tag_258\n        /* \"DISNEY/disney.sol\":1350:1360  _numTokens */\n      dup3\n        /* \"DISNEY/disney.sol\":1337:1349  PrecioTokens */\n      tag_163\n        /* \"DISNEY/disney.sol\":1337:1361  PrecioTokens(_numTokens) */\n      jump\t// in\n    tag_258:\n        /* \"DISNEY/disney.sol\":1324:1361  uint coste = PrecioTokens(_numTokens) */\n      swap1\n      pop\n        /* \"DISNEY/disney.sol\":1464:1469  coste */\n      dup1\n        /* \"DISNEY/disney.sol\":1451:1460  msg.value */\n      callvalue\n        /* \"DISNEY/disney.sol\":1451:1469  msg.value >= coste */\n      lt\n      iszero\n        /* \"DISNEY/disney.sol\":1442:1516  require (msg.value >= coste, \"Compra menos Tokens o paga con mas ethers.\") */\n      tag_259\n      jumpi\n      mload(0x40)\n      0x08c379a000000000000000000000000000000000000000000000000000000000\n      dup2\n      mstore\n      0x04\n      add\n      tag_260\n      swap1\n      tag_261\n      jump\t// in\n    tag_260:\n      mload(0x40)\n      dup1\n      swap2\n      sub\n      swap1\n      revert\n    tag_259:\n        /* \"DISNEY/disney.sol\":1583:1599  uint returnValue */\n      0x00\n        /* \"DISNEY/disney.sol\":1614:1619  coste */\n      dup2\n        /* \"DISNEY/disney.sol\":1602:1611  msg.value */\n      callvalue\n        /* \"DISNEY/disney.sol\":1602:1619  msg.value - coste */\n      sub\n        /* \"DISNEY/disney.sol\":1583:1619  uint returnValue = msg.value - coste */\n      swap1\n      pop\n        /* \"DISNEY/disney.sol\":1688:1698  msg.sender */\n      caller\n        /* \"DISNEY/disney.sol\":1688:1707  msg.sender.transfer */\n      0xffffffffffffffffffffffffffffffffffffffff\n      and\n        /* \"DISNEY/disney.sol\":1688:1720  msg.sender.transfer(returnValue) */\n      0x08fc\n        /* \"DISNEY/disney.sol\":1708:1719  returnValue */\n      dup3\n        /* \"DISNEY/disney.sol\":1688:1720  msg.sender.transfer(returnValue) */\n      swap1\n      dup2\n      iszero\n      mul\n      swap1\n      mload(0x40)\n      0x00\n      mload(0x40)\n      dup1\n      dup4\n      sub\n      dup2\n      dup6\n      dup9\n      dup9\n      call\n      swap4\n      pop\n      pop\n      pop\n      pop\n      iszero\n      dup1\n      iszero\n      tag_263\n      jumpi\n      returndatasize\n      0x00\n      dup1\n      returndatacopy\n      revert(0x00, returndatasize)\n    tag_263:\n      pop\n        /* \"DISNEY/disney.sol\":1784:1796  uint Balance */\n      0x00\n        /* \"DISNEY/disney.sol\":1799:1813  TotalBalance() */\n      tag_264\n        /* \"DISNEY/disney.sol\":1799:1811  TotalBalance */\n      tag_26\n        /* \"DISNEY/disney.sol\":1799:1813  TotalBalance() */\n      jump\t// in\n    tag_264:\n        /* \"DISNEY/disney.sol\":1784:1813  uint Balance = TotalBalance() */\n      swap1\n      pop\n        /* \"DISNEY/disney.sol\":1845:1852  Balance */\n      dup1\n        /* \"DISNEY/disney.sol\":1831:1841  _numTokens */\n      dup5\n        /* \"DISNEY/disney.sol\":1831:1852  _numTokens <= Balance */\n      gt\n      iszero\n        /* \"DISNEY/disney.sol\":1823:1889  require(_numTokens <= Balance, \"Compra un numero menor de Tokens\") */\n      tag_265\n      jumpi\n      mload(0x40)\n      0x08c379a000000000000000000000000000000000000000000000000000000000\n      dup2\n      mstore\n      0x04\n      add\n      tag_266\n      swap1\n      tag_267\n      jump\t// in\n    tag_266:\n      mload(0x40)\n      dup1\n      swap2\n      sub\n      swap1\n      revert\n    tag_265:\n        /* \"DISNEY/disney.sol\":1954:1959  token */\n      0x00\n      dup1\n      sload\n      swap1\n      0x0100\n      exp\n      swap1\n      div\n      0xffffffffffffffffffffffffffffffffffffffff\n      and\n        /* \"DISNEY/disney.sol\":1954:1968  token.transfer */\n      0xffffffffffffffffffffffffffffffffffffffff\n      and\n      0xa9059cbb\n        /* \"DISNEY/disney.sol\":1969:1979  msg.sender */\n      caller\n        /* \"DISNEY/disney.sol\":1981:1991  _numTokens */\n      dup7\n        /* \"DISNEY/disney.sol\":1954:1992  token.transfer(msg.sender, _numTokens) */\n      mload(0x40)\n      dup4\n      0xffffffff\n      and\n      0xe0\n      shl\n      dup2\n      mstore\n      0x04\n      add\n      tag_268\n      swap3\n      swap2\n      swap1\n      tag_269\n      jump\t// in\n    tag_268:\n      0x20\n      mload(0x40)\n      dup1\n      dup4\n      sub\n      dup2\n      0x00\n      dup8\n      dup1\n      extcodesize\n      iszero\n      dup1\n      iszero\n      tag_270\n      jumpi\n      0x00\n      dup1\n      revert\n    tag_270:\n      pop\n      gas\n      call\n      iszero\n      dup1\n      iszero\n      tag_272\n      jumpi\n      returndatasize\n      0x00\n      dup1\n      returndatacopy\n      revert(0x00, returndatasize)\n    tag_272:\n      pop\n      pop\n      pop\n      pop\n      mload(0x40)\n      returndatasize\n      not(0x1f)\n      0x1f\n      dup3\n      add\n      and\n      dup3\n      add\n      dup1\n      0x40\n      mstore\n      pop\n      dup2\n      add\n      swap1\n      tag_273\n      swap2\n      swap1\n      tag_143\n      jump\t// in\n    tag_273:\n      pop\n        /* \"DISNEY/disney.sol\":2083:2093  _numTokens */\n      dup4\n        /* \"DISNEY/disney.sol\":2042:2050  Clientes */\n      0x02\n        /* \"DISNEY/disney.sol\":2042:2062  Clientes[msg.sender] */\n      0x00\n        /* \"DISNEY/disney.sol\":2051:2061  msg.sender */\n      caller\n        /* \"DISNEY/disney.sol\":2042:2062  Clientes[msg.sender] */\n      0xffffffffffffffffffffffffffffffffffffffff\n      and\n      0xffffffffffffffffffffffffffffffffffffffff\n      and\n      dup2\n      mstore\n      0x20\n      add\n      swap1\n      dup2\n      mstore\n      0x20\n      add\n      0x00\n      keccak256\n        /* \"DISNEY/disney.sol\":2042:2079  Clientes[msg.sender].tokens_comprados */\n      0x00\n      add\n      0x00\n        /* \"DISNEY/disney.sol\":2042:2093  Clientes[msg.sender].tokens_comprados += _numTokens */\n      dup3\n      dup3\n      sload\n      add\n      swap3\n      pop\n      pop\n      dup2\n      swap1\n      sstore\n      pop\n        /* \"DISNEY/disney.sol\":1214:2100  function CompraTokens(uint _numTokens) public payable {... */\n      pop\n      pop\n      pop\n      pop\n      jump\t// out\n        /* \"DISNEY/disney.sol\":979:1155  function PrecioTokens(uint _numTokens) internal pure returns (uint) {... */\n    tag_163:\n        /* \"DISNEY/disney.sol\":1041:1045  uint */\n      0x00\n        /* \"DISNEY/disney.sol\":1138:1147  0.1 ether */\n      0x016345785d8a0000\n        /* \"DISNEY/disney.sol\":1126:1136  _numTokens */\n      dup3\n        /* \"DISNEY/disney.sol\":1126:1148  _numTokens*(0.1 ether) */\n      mul\n        /* \"DISNEY/disney.sol\":1119:1148  return _numTokens*(0.1 ether) */\n      swap1\n      pop\n        /* \"DISNEY/disney.sol\":979:1155  function PrecioTokens(uint _numTokens) internal pure returns (uint) {... */\n      swap2\n      swap1\n      pop\n      jump\t// out\n    tag_146:\n      dup3\n      dup1\n      sload\n      0x01\n      dup2\n      0x01\n      and\n      iszero\n      0x0100\n      mul\n      sub\n      and\n      0x02\n      swap1\n      div\n      swap1\n      0x00\n      mstore\n      keccak256(0x00, 0x20)\n      swap1\n      0x1f\n      add\n      0x20\n      swap1\n      div\n      dup2\n      add\n      swap3\n      dup3\n      0x1f\n      lt\n      tag_276\n      jumpi\n      dup1\n      mload\n      not(0xff)\n      and\n      dup4\n      dup1\n      add\n      or\n      dup6\n      sstore\n      jump(tag_275)\n    tag_276:\n      dup3\n      dup1\n      add\n      0x01\n      add\n      dup6\n      sstore\n      dup3\n      iszero\n      tag_275\n      jumpi\n      swap2\n      dup3\n      add\n    tag_277:\n      dup3\n      dup2\n      gt\n      iszero\n      tag_278\n      jumpi\n      dup3\n      mload\n      dup3\n      sstore\n      swap2\n      0x20\n      add\n      swap2\n      swap1\n      0x01\n      add\n      swap1\n      jump(tag_277)\n    tag_278:\n    tag_275:\n      pop\n      swap1\n      pop\n      tag_279\n      swap2\n      swap1\n      tag_280\n      jump\t// in\n    tag_279:\n      pop\n      swap1\n      jump\t// out\n    tag_280:\n    tag_281:\n      dup1\n      dup3\n      gt\n      iszero\n      tag_282\n      jumpi\n      0x00\n      dup2\n      0x00\n      swap1\n      sstore\n      pop\n      0x01\n      add\n      jump(tag_281)\n    tag_282:\n      pop\n      swap1\n      jump\t// out\n        /* \"--CODEGEN--\":5:135   */\n    tag_284:\n      0x00\n        /* \"--CODEGEN--\":85:91   */\n      dup2\n        /* \"--CODEGEN--\":72:92   */\n      calldataload\n        /* \"--CODEGEN--\":63:92   */\n      swap1\n      pop\n        /* \"--CODEGEN--\":97:130   */\n      tag_286\n        /* \"--CODEGEN--\":124:129   */\n      dup2\n        /* \"--CODEGEN--\":97:130   */\n      tag_287\n      jump\t// in\n    tag_286:\n        /* \"--CODEGEN--\":57:135   */\n      swap3\n      swap2\n      pop\n      pop\n      jump\t// out\n        /* \"--CODEGEN--\":142:270   */\n    tag_288:\n      0x00\n        /* \"--CODEGEN--\":223:229   */\n      dup2\n        /* \"--CODEGEN--\":217:230   */\n      mload\n        /* \"--CODEGEN--\":208:230   */\n      swap1\n      pop\n        /* \"--CODEGEN--\":235:265   */\n      tag_290\n        /* \"--CODEGEN--\":259:264   */\n      dup2\n        /* \"--CODEGEN--\":235:265   */\n      tag_291\n      jump\t// in\n    tag_290:\n        /* \"--CODEGEN--\":202:270   */\n      swap3\n      swap2\n      pop\n      pop\n      jump\t// out\n        /* \"--CODEGEN--\":278:720   */\n    tag_292:\n      0x00\n        /* \"--CODEGEN--\":380:383   */\n      dup3\n        /* \"--CODEGEN--\":373:377   */\n      0x1f\n        /* \"--CODEGEN--\":365:371   */\n      dup4\n        /* \"--CODEGEN--\":361:378   */\n      add\n        /* \"--CODEGEN--\":357:384   */\n      slt\n        /* \"--CODEGEN--\":347:349   */\n      tag_294\n      jumpi\n        /* \"--CODEGEN--\":398:399   */\n      0x00\n        /* \"--CODEGEN--\":395:396   */\n      dup1\n        /* \"--CODEGEN--\":388:400   */\n      revert\n        /* \"--CODEGEN--\":347:349   */\n    tag_294:\n        /* \"--CODEGEN--\":435:441   */\n      dup2\n        /* \"--CODEGEN--\":422:442   */\n      calldataload\n        /* \"--CODEGEN--\":457:522   */\n      tag_295\n        /* \"--CODEGEN--\":472:521   */\n      tag_296\n        /* \"--CODEGEN--\":514:520   */\n      dup3\n        /* \"--CODEGEN--\":472:521   */\n      tag_297\n      jump\t// in\n    tag_296:\n        /* \"--CODEGEN--\":457:522   */\n      tag_298\n      jump\t// in\n    tag_295:\n        /* \"--CODEGEN--\":448:522   */\n      swap2\n      pop\n        /* \"--CODEGEN--\":542:548   */\n      dup1\n        /* \"--CODEGEN--\":535:540   */\n      dup3\n        /* \"--CODEGEN--\":528:549   */\n      mstore\n        /* \"--CODEGEN--\":578:582   */\n      0x20\n        /* \"--CODEGEN--\":570:576   */\n      dup4\n        /* \"--CODEGEN--\":566:583   */\n      add\n        /* \"--CODEGEN--\":611:615   */\n      0x20\n        /* \"--CODEGEN--\":604:609   */\n      dup4\n        /* \"--CODEGEN--\":600:616   */\n      add\n        /* \"--CODEGEN--\":646:649   */\n      dup6\n        /* \"--CODEGEN--\":637:643   */\n      dup4\n        /* \"--CODEGEN--\":632:635   */\n      dup4\n        /* \"--CODEGEN--\":628:644   */\n      add\n        /* \"--CODEGEN--\":625:650   */\n      gt\n        /* \"--CODEGEN--\":622:624   */\n      iszero\n      tag_299\n      jumpi\n        /* \"--CODEGEN--\":663:664   */\n      0x00\n        /* \"--CODEGEN--\":660:661   */\n      dup1\n        /* \"--CODEGEN--\":653:665   */\n      revert\n        /* \"--CODEGEN--\":622:624   */\n    tag_299:\n        /* \"--CODEGEN--\":673:714   */\n      tag_300\n        /* \"--CODEGEN--\":707:713   */\n      dup4\n        /* \"--CODEGEN--\":702:705   */\n      dup3\n        /* \"--CODEGEN--\":697:700   */\n      dup5\n        /* \"--CODEGEN--\":673:714   */\n      tag_301\n      jump\t// in\n    tag_300:\n        /* \"--CODEGEN--\":340:720   */\n      pop\n      pop\n      pop\n      swap3\n      swap2\n      pop\n      pop\n      jump\t// out\n        /* \"--CODEGEN--\":728:858   */\n    tag_302:\n      0x00\n        /* \"--CODEGEN--\":808:814   */\n      dup2\n        /* \"--CODEGEN--\":795:815   */\n      calldataload\n        /* \"--CODEGEN--\":786:815   */\n      swap1\n      pop\n        /* \"--CODEGEN--\":820:853   */\n      tag_304\n        /* \"--CODEGEN--\":847:852   */\n      dup2\n        /* \"--CODEGEN--\":820:853   */\n      tag_305\n      jump\t// in\n    tag_304:\n        /* \"--CODEGEN--\":780:858   */\n      swap3\n      swap2\n      pop\n      pop\n      jump\t// out\n        /* \"--CODEGEN--\":865:999   */\n    tag_306:\n      0x00\n        /* \"--CODEGEN--\":949:955   */\n      dup2\n        /* \"--CODEGEN--\":943:956   */\n      mload\n        /* \"--CODEGEN--\":934:956   */\n      swap1\n      pop\n        /* \"--CODEGEN--\":961:994   */\n      tag_308\n        /* \"--CODEGEN--\":988:993   */\n      dup2\n        /* \"--CODEGEN--\":961:994   */\n      tag_305\n      jump\t// in\n    tag_308:\n        /* \"--CODEGEN--\":928:999   */\n      swap3\n      swap2\n      pop\n      pop\n      jump\t// out\n        /* \"--CODEGEN--\":1006:1247   */\n    tag_80:\n      0x00\n        /* \"--CODEGEN--\":1110:1112   */\n      0x20\n        /* \"--CODEGEN--\":1098:1107   */\n      dup3\n        /* \"--CODEGEN--\":1089:1096   */\n      dup5\n        /* \"--CODEGEN--\":1085:1108   */\n      sub\n        /* \"--CODEGEN--\":1081:1113   */\n      slt\n        /* \"--CODEGEN--\":1078:1080   */\n      iszero\n      tag_310\n      jumpi\n        /* \"--CODEGEN--\":1126:1127   */\n      0x00\n        /* \"--CODEGEN--\":1123:1124   */\n      dup1\n        /* \"--CODEGEN--\":1116:1128   */\n      revert\n        /* \"--CODEGEN--\":1078:1080   */\n    tag_310:\n        /* \"--CODEGEN--\":1161:1162   */\n      0x00\n        /* \"--CODEGEN--\":1178:1231   */\n      tag_311\n        /* \"--CODEGEN--\":1223:1230   */\n      dup5\n        /* \"--CODEGEN--\":1214:1220   */\n      dup3\n        /* \"--CODEGEN--\":1203:1212   */\n      dup6\n        /* \"--CODEGEN--\":1199:1221   */\n      add\n        /* \"--CODEGEN--\":1178:1231   */\n      tag_284\n      jump\t// in\n    tag_311:\n        /* \"--CODEGEN--\":1168:1231   */\n      swap2\n      pop\n        /* \"--CODEGEN--\":1140:1237   */\n      pop\n        /* \"--CODEGEN--\":1072:1247   */\n      swap3\n      swap2\n      pop\n      pop\n      jump\t// out\n        /* \"--CODEGEN--\":1254:1511   */\n    tag_143:\n      0x00\n        /* \"--CODEGEN--\":1366:1368   */\n      0x20\n        /* \"--CODEGEN--\":1354:1363   */\n      dup3\n        /* \"--CODEGEN--\":1345:1352   */\n      dup5\n        /* \"--CODEGEN--\":1341:1364   */\n      sub\n        /* \"--CODEGEN--\":1337:1369   */\n      slt\n        /* \"--CODEGEN--\":1334:1336   */\n      iszero\n      tag_313\n      jumpi\n        /* \"--CODEGEN--\":1382:1383   */\n      0x00\n        /* \"--CODEGEN--\":1379:1380   */\n      dup1\n        /* \"--CODEGEN--\":1372:1384   */\n      revert\n        /* \"--CODEGEN--\":1334:1336   */\n    tag_313:\n        /* \"--CODEGEN--\":1417:1418   */\n      0x00\n        /* \"--CODEGEN--\":1434:1495   */\n      tag_314\n        /* \"--CODEGEN--\":1487:1494   */\n      dup5\n        /* \"--CODEGEN--\":1478:1484   */\n      dup3\n        /* \"--CODEGEN--\":1467:1476   */\n      dup6\n        /* \"--CODEGEN--\":1463:1485   */\n      add\n        /* \"--CODEGEN--\":1434:1495   */\n      tag_288\n      jump\t// in\n    tag_314:\n        /* \"--CODEGEN--\":1424:1495   */\n      swap2\n      pop\n        /* \"--CODEGEN--\":1396:1501   */\n      pop\n        /* \"--CODEGEN--\":1328:1511   */\n      swap3\n      swap2\n      pop\n      pop\n      jump\t// out\n        /* \"--CODEGEN--\":1518:1865   */\n    tag_37:\n      0x00\n        /* \"--CODEGEN--\":1632:1634   */\n      0x20\n        /* \"--CODEGEN--\":1620:1629   */\n      dup3\n        /* \"--CODEGEN--\":1611:1618   */\n      dup5\n        /* \"--CODEGEN--\":1607:1630   */\n      sub\n        /* \"--CODEGEN--\":1603:1635   */\n      slt\n        /* \"--CODEGEN--\":1600:1602   */\n      iszero\n      tag_316\n      jumpi\n        /* \"--CODEGEN--\":1648:1649   */\n      0x00\n        /* \"--CODEGEN--\":1645:1646   */\n      dup1\n        /* \"--CODEGEN--\":1638:1650   */\n      revert\n        /* \"--CODEGEN--\":1600:1602   */\n    tag_316:\n        /* \"--CODEGEN--\":1711:1712   */\n      0x00\n        /* \"--CODEGEN--\":1700:1709   */\n      dup3\n        /* \"--CODEGEN--\":1696:1713   */\n      add\n        /* \"--CODEGEN--\":1683:1714   */\n      calldataload\n        /* \"--CODEGEN--\":1734:1752   */\n      0xffffffffffffffff\n        /* \"--CODEGEN--\":1726:1732   */\n      dup2\n        /* \"--CODEGEN--\":1723:1753   */\n      gt\n        /* \"--CODEGEN--\":1720:1722   */\n      iszero\n      tag_317\n      jumpi\n        /* \"--CODEGEN--\":1766:1767   */\n      0x00\n        /* \"--CODEGEN--\":1763:1764   */\n      dup1\n        /* \"--CODEGEN--\":1756:1768   */\n      revert\n        /* \"--CODEGEN--\":1720:1722   */\n    tag_317:\n        /* \"--CODEGEN--\":1786:1849   */\n      tag_318\n        /* \"--CODEGEN--\":1841:1848   */\n      dup5\n        /* \"--CODEGEN--\":1832:1838   */\n      dup3\n        /* \"--CODEGEN--\":1821:1830   */\n      dup6\n        /* \"--CODEGEN--\":1817:1839   */\n      add\n        /* \"--CODEGEN--\":1786:1849   */\n      tag_292\n      jump\t// in\n    tag_318:\n        /* \"--CODEGEN--\":1776:1849   */\n      swap2\n      pop\n        /* \"--CODEGEN--\":1662:1855   */\n      pop\n        /* \"--CODEGEN--\":1594:1865   */\n      swap3\n      swap2\n      pop\n      pop\n      jump\t// out\n        /* \"--CODEGEN--\":1872:2344   */\n    tag_45:\n      0x00\n      dup1\n        /* \"--CODEGEN--\":2003:2005   */\n      0x40\n        /* \"--CODEGEN--\":1991:2000   */\n      dup4\n        /* \"--CODEGEN--\":1982:1989   */\n      dup6\n        /* \"--CODEGEN--\":1978:2001   */\n      sub\n        /* \"--CODEGEN--\":1974:2006   */\n      slt\n        /* \"--CODEGEN--\":1971:1973   */\n      iszero\n      tag_320\n      jumpi\n        /* \"--CODEGEN--\":2019:2020   */\n      0x00\n        /* \"--CODEGEN--\":2016:2017   */\n      dup1\n        /* \"--CODEGEN--\":2009:2021   */\n      revert\n        /* \"--CODEGEN--\":1971:1973   */\n    tag_320:\n        /* \"--CODEGEN--\":2082:2083   */\n      0x00\n        /* \"--CODEGEN--\":2071:2080   */\n      dup4\n        /* \"--CODEGEN--\":2067:2084   */\n      add\n        /* \"--CODEGEN--\":2054:2085   */\n      calldataload\n        /* \"--CODEGEN--\":2105:2123   */\n      0xffffffffffffffff\n        /* \"--CODEGEN--\":2097:2103   */\n      dup2\n        /* \"--CODEGEN--\":2094:2124   */\n      gt\n        /* \"--CODEGEN--\":2091:2093   */\n      iszero\n      tag_321\n      jumpi\n        /* \"--CODEGEN--\":2137:2138   */\n      0x00\n        /* \"--CODEGEN--\":2134:2135   */\n      dup1\n        /* \"--CODEGEN--\":2127:2139   */\n      revert\n        /* \"--CODEGEN--\":2091:2093   */\n    tag_321:\n        /* \"--CODEGEN--\":2157:2220   */\n      tag_322\n        /* \"--CODEGEN--\":2212:2219   */\n      dup6\n        /* \"--CODEGEN--\":2203:2209   */\n      dup3\n        /* \"--CODEGEN--\":2192:2201   */\n      dup7\n        /* \"--CODEGEN--\":2188:2210   */\n      add\n        /* \"--CODEGEN--\":2157:2220   */\n      tag_292\n      jump\t// in\n    tag_322:\n        /* \"--CODEGEN--\":2147:2220   */\n      swap3\n      pop\n        /* \"--CODEGEN--\":2033:2226   */\n      pop\n        /* \"--CODEGEN--\":2257:2259   */\n      0x20\n        /* \"--CODEGEN--\":2275:2328   */\n      tag_323\n        /* \"--CODEGEN--\":2320:2327   */\n      dup6\n        /* \"--CODEGEN--\":2311:2317   */\n      dup3\n        /* \"--CODEGEN--\":2300:2309   */\n      dup7\n        /* \"--CODEGEN--\":2296:2318   */\n      add\n        /* \"--CODEGEN--\":2275:2328   */\n      tag_302\n      jump\t// in\n    tag_323:\n        /* \"--CODEGEN--\":2265:2328   */\n      swap2\n      pop\n        /* \"--CODEGEN--\":2236:2334   */\n      pop\n        /* \"--CODEGEN--\":1965:2344   */\n      swap3\n      pop\n      swap3\n      swap1\n      pop\n      jump\t// out\n        /* \"--CODEGEN--\":2351:2592   */\n    tag_32:\n      0x00\n        /* \"--CODEGEN--\":2455:2457   */\n      0x20\n        /* \"--CODEGEN--\":2443:2452   */\n      dup3\n        /* \"--CODEGEN--\":2434:2441   */\n      dup5\n        /* \"--CODEGEN--\":2430:2453   */\n      sub\n        /* \"--CODEGEN--\":2426:2458   */\n      slt\n        /* \"--CODEGEN--\":2423:2425   */\n      iszero\n      tag_325\n      jumpi\n        /* \"--CODEGEN--\":2471:2472   */\n      0x00\n        /* \"--CODEGEN--\":2468:2469   */\n      dup1\n        /* \"--CODEGEN--\":2461:2473   */\n      revert\n        /* \"--CODEGEN--\":2423:2425   */\n    tag_325:\n        /* \"--CODEGEN--\":2506:2507   */\n      0x00\n        /* \"--CODEGEN--\":2523:2576   */\n      tag_326\n        /* \"--CODEGEN--\":2568:2575   */\n      dup5\n        /* \"--CODEGEN--\":2559:2565   */\n      dup3\n        /* \"--CODEGEN--\":2548:2557   */\n      dup6\n        /* \"--CODEGEN--\":2544:2566   */\n      add\n        /* \"--CODEGEN--\":2523:2576   */\n      tag_302\n      jump\t// in\n    tag_326:\n        /* \"--CODEGEN--\":2513:2576   */\n      swap2\n      pop\n        /* \"--CODEGEN--\":2485:2582   */\n      pop\n        /* \"--CODEGEN--\":2417:2592   */\n      swap3\n      swap2\n      pop\n      pop\n      jump\t// out\n        /* \"--CODEGEN--\":2599:2862   */\n    tag_116:\n      0x00\n        /* \"--CODEGEN--\":2714:2716   */\n      0x20\n        /* \"--CODEGEN--\":2702:2711   */\n      dup3\n        /* \"--CODEGEN--\":2693:2700   */\n      dup5\n        /* \"--CODEGEN--\":2689:2712   */\n      sub\n        /* \"--CODEGEN--\":2685:2717   */\n      slt\n        /* \"--CODEGEN--\":2682:2684   */\n      iszero\n      tag_328\n      jumpi\n        /* \"--CODEGEN--\":2730:2731   */\n      0x00\n        /* \"--CODEGEN--\":2727:2728   */\n      dup1\n        /* \"--CODEGEN--\":2720:2732   */\n      revert\n        /* \"--CODEGEN--\":2682:2684   */\n    tag_328:\n        /* \"--CODEGEN--\":2765:2766   */\n      0x00\n        /* \"--CODEGEN--\":2782:2846   */\n      tag_329\n        /* \"--CODEGEN--\":2838:2845   */\n      dup5\n        /* \"--CODEGEN--\":2829:2835   */\n      dup3\n        /* \"--CODEGEN--\":2818:2827   */\n      dup6\n        /* \"--CODEGEN--\":2814:2836   */\n      add\n        /* \"--CODEGEN--\":2782:2846   */\n      tag_306\n      jump\t// in\n    tag_329:\n        /* \"--CODEGEN--\":2772:2846   */\n      swap2\n      pop\n        /* \"--CODEGEN--\":2744:2852   */\n      pop\n        /* \"--CODEGEN--\":2676:2862   */\n      swap3\n      swap2\n      pop\n      pop\n      jump\t// out\n        /* \"--CODEGEN--\":2870:3063   */\n    tag_330:\n      0x00\n        /* \"--CODEGEN--\":2991:3057   */\n      tag_332\n        /* \"--CODEGEN--\":3053:3056   */\n      dup4\n        /* \"--CODEGEN--\":3045:3051   */\n      dup4\n        /* \"--CODEGEN--\":2991:3057   */\n      tag_333\n      jump\t// in\n    tag_332:\n        /* \"--CODEGEN--\":2977:3057   */\n      swap1\n      pop\n        /* \"--CODEGEN--\":2970:3063   */\n      swap3\n      swap2\n      pop\n      pop\n      jump\t// out\n        /* \"--CODEGEN--\":3071:3213   */\n    tag_334:\n        /* \"--CODEGEN--\":3162:3207   */\n      tag_336\n        /* \"--CODEGEN--\":3201:3206   */\n      dup2\n        /* \"--CODEGEN--\":3162:3207   */\n      tag_337\n      jump\t// in\n    tag_336:\n        /* \"--CODEGEN--\":3157:3160   */\n      dup3\n        /* \"--CODEGEN--\":3150:3208   */\n      mstore\n        /* \"--CODEGEN--\":3144:3213   */\n      pop\n      pop\n      jump\t// out\n        /* \"--CODEGEN--\":3220:3357   */\n    tag_338:\n        /* \"--CODEGEN--\":3319:3351   */\n      tag_340\n        /* \"--CODEGEN--\":3345:3350   */\n      dup2\n        /* \"--CODEGEN--\":3319:3351   */\n      tag_341\n      jump\t// in\n    tag_340:\n        /* \"--CODEGEN--\":3314:3317   */\n      dup3\n        /* \"--CODEGEN--\":3307:3352   */\n      mstore\n        /* \"--CODEGEN--\":3301:3357   */\n      pop\n      pop\n      jump\t// out\n        /* \"--CODEGEN--\":3364:3477   */\n    tag_342:\n        /* \"--CODEGEN--\":3447:3471   */\n      tag_344\n        /* \"--CODEGEN--\":3465:3470   */\n      dup2\n        /* \"--CODEGEN--\":3447:3471   */\n      tag_345\n      jump\t// in\n    tag_344:\n        /* \"--CODEGEN--\":3442:3445   */\n      dup3\n        /* \"--CODEGEN--\":3435:3472   */\n      mstore\n        /* \"--CODEGEN--\":3429:3477   */\n      pop\n      pop\n      jump\t// out\n        /* \"--CODEGEN--\":3513:4441   */\n    tag_346:\n      0x00\n        /* \"--CODEGEN--\":3678:3742   */\n      tag_348\n        /* \"--CODEGEN--\":3736:3741   */\n      dup3\n        /* \"--CODEGEN--\":3678:3742   */\n      tag_349\n      jump\t// in\n    tag_348:\n        /* \"--CODEGEN--\":3755:3851   */\n      tag_350\n        /* \"--CODEGEN--\":3844:3850   */\n      dup2\n        /* \"--CODEGEN--\":3839:3842   */\n      dup6\n        /* \"--CODEGEN--\":3755:3851   */\n      tag_351\n      jump\t// in\n    tag_350:\n        /* \"--CODEGEN--\":3748:3851   */\n      swap4\n      pop\n        /* \"--CODEGEN--\":3874:3877   */\n      dup4\n        /* \"--CODEGEN--\":3916:3920   */\n      0x20\n        /* \"--CODEGEN--\":3908:3914   */\n      dup3\n        /* \"--CODEGEN--\":3904:3921   */\n      mul\n        /* \"--CODEGEN--\":3899:3902   */\n      dup6\n        /* \"--CODEGEN--\":3895:3922   */\n      add\n        /* \"--CODEGEN--\":3943:4009   */\n      tag_352\n        /* \"--CODEGEN--\":4003:4008   */\n      dup6\n        /* \"--CODEGEN--\":3943:4009   */\n      tag_353\n      jump\t// in\n    tag_352:\n        /* \"--CODEGEN--\":4029:4036   */\n      dup1\n        /* \"--CODEGEN--\":4057:4058   */\n      0x00\n        /* \"--CODEGEN--\":4042:4402   */\n    tag_354:\n        /* \"--CODEGEN--\":4067:4073   */\n      dup6\n        /* \"--CODEGEN--\":4064:4065   */\n      dup2\n        /* \"--CODEGEN--\":4061:4074   */\n      lt\n        /* \"--CODEGEN--\":4042:4402   */\n      iszero\n      tag_356\n      jumpi\n        /* \"--CODEGEN--\":4129:4138   */\n      dup5\n        /* \"--CODEGEN--\":4123:4127   */\n      dup5\n        /* \"--CODEGEN--\":4119:4139   */\n      sub\n        /* \"--CODEGEN--\":4114:4117   */\n      dup10\n        /* \"--CODEGEN--\":4107:4140   */\n      mstore\n        /* \"--CODEGEN--\":4174:4180   */\n      dup2\n        /* \"--CODEGEN--\":4168:4181   */\n      mload\n        /* \"--CODEGEN--\":4196:4280   */\n      tag_357\n        /* \"--CODEGEN--\":4275:4279   */\n      dup6\n        /* \"--CODEGEN--\":4260:4273   */\n      dup3\n        /* \"--CODEGEN--\":4196:4280   */\n      tag_330\n      jump\t// in\n    tag_357:\n        /* \"--CODEGEN--\":4188:4280   */\n      swap5\n      pop\n        /* \"--CODEGEN--\":4297:4367   */\n      tag_358\n        /* \"--CODEGEN--\":4360:4366   */\n      dup4\n        /* \"--CODEGEN--\":4297:4367   */\n      tag_359\n      jump\t// in\n    tag_358:\n        /* \"--CODEGEN--\":4287:4367   */\n      swap3\n      pop\n        /* \"--CODEGEN--\":4390:4394   */\n      0x20\n        /* \"--CODEGEN--\":4385:4388   */\n      dup11\n        /* \"--CODEGEN--\":4381:4395   */\n      add\n        /* \"--CODEGEN--\":4374:4395   */\n      swap10\n      pop\n        /* \"--CODEGEN--\":4099:4402   */\n      pop\n        /* \"--CODEGEN--\":4089:4090   */\n      0x01\n        /* \"--CODEGEN--\":4086:4087   */\n      dup2\n        /* \"--CODEGEN--\":4082:4091   */\n      add\n        /* \"--CODEGEN--\":4077:4091   */\n      swap1\n      pop\n        /* \"--CODEGEN--\":4042:4402   */\n      jump(tag_354)\n    tag_356:\n        /* \"--CODEGEN--\":4046:4060   */\n      pop\n        /* \"--CODEGEN--\":4415:4419   */\n      dup3\n        /* \"--CODEGEN--\":4408:4419   */\n      swap8\n      pop\n        /* \"--CODEGEN--\":4432:4435   */\n      dup8\n        /* \"--CODEGEN--\":4425:4435   */\n      swap6\n      pop\n        /* \"--CODEGEN--\":3657:4441   */\n      pop\n      pop\n      pop\n      pop\n      pop\n      swap3\n      swap2\n      pop\n      pop\n      jump\t// out\n        /* \"--CODEGEN--\":4449:4553   */\n    tag_360:\n        /* \"--CODEGEN--\":4526:4547   */\n      tag_362\n        /* \"--CODEGEN--\":4541:4546   */\n      dup2\n        /* \"--CODEGEN--\":4526:4547   */\n      tag_363\n      jump\t// in\n    tag_362:\n        /* \"--CODEGEN--\":4521:4524   */\n      dup3\n        /* \"--CODEGEN--\":4514:4548   */\n      mstore\n        /* \"--CODEGEN--\":4508:4553   */\n      pop\n      pop\n      jump\t// out\n        /* \"--CODEGEN--\":4560:4887   */\n    tag_333:\n      0x00\n        /* \"--CODEGEN--\":4662:4701   */\n      tag_365\n        /* \"--CODEGEN--\":4695:4700   */\n      dup3\n        /* \"--CODEGEN--\":4662:4701   */\n      tag_366\n      jump\t// in\n    tag_365:\n        /* \"--CODEGEN--\":4713:4774   */\n      tag_367\n        /* \"--CODEGEN--\":4767:4773   */\n      dup2\n        /* \"--CODEGEN--\":4762:4765   */\n      dup6\n        /* \"--CODEGEN--\":4713:4774   */\n      tag_368\n      jump\t// in\n    tag_367:\n        /* \"--CODEGEN--\":4706:4774   */\n      swap4\n      pop\n        /* \"--CODEGEN--\":4779:4831   */\n      tag_369\n        /* \"--CODEGEN--\":4824:4830   */\n      dup2\n        /* \"--CODEGEN--\":4819:4822   */\n      dup6\n        /* \"--CODEGEN--\":4812:4816   */\n      0x20\n        /* \"--CODEGEN--\":4805:4810   */\n      dup7\n        /* \"--CODEGEN--\":4801:4817   */\n      add\n        /* \"--CODEGEN--\":4779:4831   */\n      tag_370\n      jump\t// in\n    tag_369:\n        /* \"--CODEGEN--\":4852:4881   */\n      tag_371\n        /* \"--CODEGEN--\":4874:4880   */\n      dup2\n        /* \"--CODEGEN--\":4852:4881   */\n      tag_372\n      jump\t// in\n    tag_371:\n        /* \"--CODEGEN--\":4847:4850   */\n      dup5\n        /* \"--CODEGEN--\":4843:4882   */\n      add\n        /* \"--CODEGEN--\":4836:4882   */\n      swap2\n      pop\n        /* \"--CODEGEN--\":4642:4887   */\n      pop\n      swap3\n      swap2\n      pop\n      pop\n      jump\t// out\n        /* \"--CODEGEN--\":4894:5241   */\n    tag_373:\n      0x00\n        /* \"--CODEGEN--\":5006:5045   */\n      tag_375\n        /* \"--CODEGEN--\":5039:5044   */\n      dup3\n        /* \"--CODEGEN--\":5006:5045   */\n      tag_366\n      jump\t// in\n    tag_375:\n        /* \"--CODEGEN--\":5057:5128   */\n      tag_376\n        /* \"--CODEGEN--\":5121:5127   */\n      dup2\n        /* \"--CODEGEN--\":5116:5119   */\n      dup6\n        /* \"--CODEGEN--\":5057:5128   */\n      tag_377\n      jump\t// in\n    tag_376:\n        /* \"--CODEGEN--\":5050:5128   */\n      swap4\n      pop\n        /* \"--CODEGEN--\":5133:5185   */\n      tag_378\n        /* \"--CODEGEN--\":5178:5184   */\n      dup2\n        /* \"--CODEGEN--\":5173:5176   */\n      dup6\n        /* \"--CODEGEN--\":5166:5170   */\n      0x20\n        /* \"--CODEGEN--\":5159:5164   */\n      dup7\n        /* \"--CODEGEN--\":5155:5171   */\n      add\n        /* \"--CODEGEN--\":5133:5185   */\n      tag_370\n      jump\t// in\n    tag_378:\n        /* \"--CODEGEN--\":5206:5235   */\n      tag_379\n        /* \"--CODEGEN--\":5228:5234   */\n      dup2\n        /* \"--CODEGEN--\":5206:5235   */\n      tag_372\n      jump\t// in\n    tag_379:\n        /* \"--CODEGEN--\":5201:5204   */\n      dup5\n        /* \"--CODEGEN--\":5197:5236   */\n      add\n        /* \"--CODEGEN--\":5190:5236   */\n      swap2\n      pop\n        /* \"--CODEGEN--\":4986:5241   */\n      pop\n      swap3\n      swap2\n      pop\n      pop\n      jump\t// out\n        /* \"--CODEGEN--\":5248:5608   */\n    tag_380:\n      0x00\n        /* \"--CODEGEN--\":5378:5417   */\n      tag_382\n        /* \"--CODEGEN--\":5411:5416   */\n      dup3\n        /* \"--CODEGEN--\":5378:5417   */\n      tag_366\n      jump\t// in\n    tag_382:\n        /* \"--CODEGEN--\":5429:5518   */\n      tag_383\n        /* \"--CODEGEN--\":5511:5517   */\n      dup2\n        /* \"--CODEGEN--\":5506:5509   */\n      dup6\n        /* \"--CODEGEN--\":5429:5518   */\n      tag_384\n      jump\t// in\n    tag_383:\n        /* \"--CODEGEN--\":5422:5518   */\n      swap4\n      pop\n        /* \"--CODEGEN--\":5523:5575   */\n      tag_385\n        /* \"--CODEGEN--\":5568:5574   */\n      dup2\n        /* \"--CODEGEN--\":5563:5566   */\n      dup6\n        /* \"--CODEGEN--\":5556:5560   */\n      0x20\n        /* \"--CODEGEN--\":5549:5554   */\n      dup7\n        /* \"--CODEGEN--\":5545:5561   */\n      add\n        /* \"--CODEGEN--\":5523:5575   */\n      tag_370\n      jump\t// in\n    tag_385:\n        /* \"--CODEGEN--\":5596:5602   */\n      dup1\n        /* \"--CODEGEN--\":5591:5594   */\n      dup5\n        /* \"--CODEGEN--\":5587:5603   */\n      add\n        /* \"--CODEGEN--\":5580:5603   */\n      swap2\n      pop\n        /* \"--CODEGEN--\":5358:5608   */\n      pop\n      swap3\n      swap2\n      pop\n      pop\n      jump\t// out\n        /* \"--CODEGEN--\":5616:6000   */\n    tag_386:\n      0x00\n        /* \"--CODEGEN--\":5776:5843   */\n      tag_388\n        /* \"--CODEGEN--\":5840:5842   */\n      0x2f\n        /* \"--CODEGEN--\":5835:5838   */\n      dup4\n        /* \"--CODEGEN--\":5776:5843   */\n      tag_377\n      jump\t// in\n    tag_388:\n        /* \"--CODEGEN--\":5769:5843   */\n      swap2\n      pop\n        /* \"--CODEGEN--\":5876:5910   */\n      0x4c6120636f6d696461206e6f206573746120646973706f6e69626c6520656e20\n        /* \"--CODEGEN--\":5872:5873   */\n      0x00\n        /* \"--CODEGEN--\":5867:5870   */\n      dup4\n        /* \"--CODEGEN--\":5863:5874   */\n      add\n        /* \"--CODEGEN--\":5856:5911   */\n      mstore\n        /* \"--CODEGEN--\":5945:5962   */\n      0x6573746f73206d6f6d656e746f732e0000000000000000000000000000000000\n        /* \"--CODEGEN--\":5940:5942   */\n      0x20\n        /* \"--CODEGEN--\":5935:5938   */\n      dup4\n        /* \"--CODEGEN--\":5931:5943   */\n      add\n        /* \"--CODEGEN--\":5924:5963   */\n      mstore\n        /* \"--CODEGEN--\":5991:5993   */\n      0x40\n        /* \"--CODEGEN--\":5986:5989   */\n      dup3\n        /* \"--CODEGEN--\":5982:5994   */\n      add\n        /* \"--CODEGEN--\":5975:5994   */\n      swap1\n      pop\n        /* \"--CODEGEN--\":5762:6000   */\n      swap2\n      swap1\n      pop\n      jump\t// out\n        /* \"--CODEGEN--\":6009:6392   */\n    tag_389:\n      0x00\n        /* \"--CODEGEN--\":6169:6236   */\n      tag_391\n        /* \"--CODEGEN--\":6233:6235   */\n      0x2e\n        /* \"--CODEGEN--\":6228:6231   */\n      dup4\n        /* \"--CODEGEN--\":6169:6236   */\n      tag_377\n      jump\t// in\n    tag_391:\n        /* \"--CODEGEN--\":6162:6236   */\n      swap2\n      pop\n        /* \"--CODEGEN--\":6269:6303   */\n      0x4e6563657369746173206d617320546f6b656e73207061726120636f6d707261\n        /* \"--CODEGEN--\":6265:6266   */\n      0x00\n        /* \"--CODEGEN--\":6260:6263   */\n      dup4\n        /* \"--CODEGEN--\":6256:6267   */\n      add\n        /* \"--CODEGEN--\":6249:6304   */\n      mstore\n        /* \"--CODEGEN--\":6338:6354   */\n      0x72206573746120636f6d6964612e000000000000000000000000000000000000\n        /* \"--CODEGEN--\":6333:6335   */\n      0x20\n        /* \"--CODEGEN--\":6328:6331   */\n      dup4\n        /* \"--CODEGEN--\":6324:6336   */\n      add\n        /* \"--CODEGEN--\":6317:6355   */\n      mstore\n        /* \"--CODEGEN--\":6383:6385   */\n      0x40\n        /* \"--CODEGEN--\":6378:6381   */\n      dup3\n        /* \"--CODEGEN--\":6374:6386   */\n      add\n        /* \"--CODEGEN--\":6367:6386   */\n      swap1\n      pop\n        /* \"--CODEGEN--\":6155:6392   */\n      swap2\n      swap1\n      pop\n      jump\t// out\n        /* \"--CODEGEN--\":6401:6788   */\n    tag_392:\n      0x00\n        /* \"--CODEGEN--\":6561:6628   */\n      tag_394\n        /* \"--CODEGEN--\":6625:6627   */\n      0x32\n        /* \"--CODEGEN--\":6620:6623   */\n      dup4\n        /* \"--CODEGEN--\":6561:6628   */\n      tag_377\n      jump\t// in\n    tag_394:\n        /* \"--CODEGEN--\":6554:6628   */\n      swap2\n      pop\n        /* \"--CODEGEN--\":6661:6695   */\n      0x4c6120617472616363696f6e206e6f206573746120646973706f6e69626c6520\n        /* \"--CODEGEN--\":6657:6658   */\n      0x00\n        /* \"--CODEGEN--\":6652:6655   */\n      dup4\n        /* \"--CODEGEN--\":6648:6659   */\n      add\n        /* \"--CODEGEN--\":6641:6696   */\n      mstore\n        /* \"--CODEGEN--\":6730:6750   */\n      0x656e206573746f73206d6f6d656e746f732e0000000000000000000000000000\n        /* \"--CODEGEN--\":6725:6727   */\n      0x20\n        /* \"--CODEGEN--\":6720:6723   */\n      dup4\n        /* \"--CODEGEN--\":6716:6728   */\n      add\n        /* \"--CODEGEN--\":6709:6751   */\n      mstore\n        /* \"--CODEGEN--\":6779:6781   */\n      0x40\n        /* \"--CODEGEN--\":6774:6777   */\n      dup3\n        /* \"--CODEGEN--\":6770:6782   */\n      add\n        /* \"--CODEGEN--\":6763:6782   */\n      swap1\n      pop\n        /* \"--CODEGEN--\":6547:6788   */\n      swap2\n      swap1\n      pop\n      jump\t// out\n        /* \"--CODEGEN--\":6797:7186   */\n    tag_395:\n      0x00\n        /* \"--CODEGEN--\":6957:7024   */\n      tag_397\n        /* \"--CODEGEN--\":7021:7023   */\n      0x34\n        /* \"--CODEGEN--\":7016:7019   */\n      dup4\n        /* \"--CODEGEN--\":6957:7024   */\n      tag_377\n      jump\t// in\n    tag_397:\n        /* \"--CODEGEN--\":6950:7024   */\n      swap2\n      pop\n        /* \"--CODEGEN--\":7057:7091   */\n      0x4e6563657369746173206d617320546f6b656e73207061726120737562696572\n        /* \"--CODEGEN--\":7053:7054   */\n      0x00\n        /* \"--CODEGEN--\":7048:7051   */\n      dup4\n        /* \"--CODEGEN--\":7044:7055   */\n      add\n        /* \"--CODEGEN--\":7037:7092   */\n      mstore\n        /* \"--CODEGEN--\":7126:7148   */\n      0x74652061206573746120617472616363696f6e2e000000000000000000000000\n        /* \"--CODEGEN--\":7121:7123   */\n      0x20\n        /* \"--CODEGEN--\":7116:7119   */\n      dup4\n        /* \"--CODEGEN--\":7112:7124   */\n      add\n        /* \"--CODEGEN--\":7105:7149   */\n      mstore\n        /* \"--CODEGEN--\":7177:7179   */\n      0x40\n        /* \"--CODEGEN--\":7172:7175   */\n      dup3\n        /* \"--CODEGEN--\":7168:7180   */\n      add\n        /* \"--CODEGEN--\":7161:7180   */\n      swap1\n      pop\n        /* \"--CODEGEN--\":6943:7186   */\n      swap2\n      swap1\n      pop\n      jump\t// out\n        /* \"--CODEGEN--\":7195:7578   */\n    tag_398:\n      0x00\n        /* \"--CODEGEN--\":7355:7422   */\n      tag_400\n        /* \"--CODEGEN--\":7419:7421   */\n      0x2e\n        /* \"--CODEGEN--\":7414:7417   */\n      dup4\n        /* \"--CODEGEN--\":7355:7422   */\n      tag_377\n      jump\t// in\n    tag_400:\n        /* \"--CODEGEN--\":7348:7422   */\n      swap2\n      pop\n        /* \"--CODEGEN--\":7455:7489   */\n      0x4e6f207469656e6573207065726d69736f73207061726120656a656375746172\n        /* \"--CODEGEN--\":7451:7452   */\n      0x00\n        /* \"--CODEGEN--\":7446:7449   */\n      dup4\n        /* \"--CODEGEN--\":7442:7453   */\n      add\n        /* \"--CODEGEN--\":7435:7490   */\n      mstore\n        /* \"--CODEGEN--\":7524:7540   */\n      0x20657374612066756e63696f6e2e000000000000000000000000000000000000\n        /* \"--CODEGEN--\":7519:7521   */\n      0x20\n        /* \"--CODEGEN--\":7514:7517   */\n      dup4\n        /* \"--CODEGEN--\":7510:7522   */\n      add\n        /* \"--CODEGEN--\":7503:7541   */\n      mstore\n        /* \"--CODEGEN--\":7569:7571   */\n      0x40\n        /* \"--CODEGEN--\":7564:7567   */\n      dup3\n        /* \"--CODEGEN--\":7560:7572   */\n      add\n        /* \"--CODEGEN--\":7553:7572   */\n      swap1\n      pop\n        /* \"--CODEGEN--\":7341:7578   */\n      swap2\n      swap1\n      pop\n      jump\t// out\n        /* \"--CODEGEN--\":7587:7975   */\n    tag_401:\n      0x00\n        /* \"--CODEGEN--\":7747:7814   */\n      tag_403\n        /* \"--CODEGEN--\":7811:7813   */\n      0x33\n        /* \"--CODEGEN--\":7806:7809   */\n      dup4\n        /* \"--CODEGEN--\":7747:7814   */\n      tag_377\n      jump\t// in\n    tag_403:\n        /* \"--CODEGEN--\":7740:7814   */\n      swap2\n      pop\n        /* \"--CODEGEN--\":7847:7881   */\n      0x4e6563657369746173206465766f6c76657220756e612063616e746964616420\n        /* \"--CODEGEN--\":7843:7844   */\n      0x00\n        /* \"--CODEGEN--\":7838:7841   */\n      dup4\n        /* \"--CODEGEN--\":7834:7845   */\n      add\n        /* \"--CODEGEN--\":7827:7882   */\n      mstore\n        /* \"--CODEGEN--\":7916:7937   */\n      0x706f73697469766120646520546f6b656e732e00000000000000000000000000\n        /* \"--CODEGEN--\":7911:7913   */\n      0x20\n        /* \"--CODEGEN--\":7906:7909   */\n      dup4\n        /* \"--CODEGEN--\":7902:7914   */\n      add\n        /* \"--CODEGEN--\":7895:7938   */\n      mstore\n        /* \"--CODEGEN--\":7966:7968   */\n      0x40\n        /* \"--CODEGEN--\":7961:7964   */\n      dup3\n        /* \"--CODEGEN--\":7957:7969   */\n      add\n        /* \"--CODEGEN--\":7950:7969   */\n      swap1\n      pop\n        /* \"--CODEGEN--\":7733:7975   */\n      swap2\n      swap1\n      pop\n      jump\t// out\n        /* \"--CODEGEN--\":7984:8363   */\n    tag_404:\n      0x00\n        /* \"--CODEGEN--\":8144:8211   */\n      tag_406\n        /* \"--CODEGEN--\":8208:8210   */\n      0x2a\n        /* \"--CODEGEN--\":8203:8206   */\n      dup4\n        /* \"--CODEGEN--\":8144:8211   */\n      tag_377\n      jump\t// in\n    tag_406:\n        /* \"--CODEGEN--\":8137:8211   */\n      swap2\n      pop\n        /* \"--CODEGEN--\":8244:8278   */\n      0x436f6d707261206d656e6f7320546f6b656e73206f207061676120636f6e206d\n        /* \"--CODEGEN--\":8240:8241   */\n      0x00\n        /* \"--CODEGEN--\":8235:8238   */\n      dup4\n        /* \"--CODEGEN--\":8231:8242   */\n      add\n        /* \"--CODEGEN--\":8224:8279   */\n      mstore\n        /* \"--CODEGEN--\":8313:8325   */\n      0x6173206574686572732e00000000000000000000000000000000000000000000\n        /* \"--CODEGEN--\":8308:8310   */\n      0x20\n        /* \"--CODEGEN--\":8303:8306   */\n      dup4\n        /* \"--CODEGEN--\":8299:8311   */\n      add\n        /* \"--CODEGEN--\":8292:8326   */\n      mstore\n        /* \"--CODEGEN--\":8354:8356   */\n      0x40\n        /* \"--CODEGEN--\":8349:8352   */\n      dup3\n        /* \"--CODEGEN--\":8345:8357   */\n      add\n        /* \"--CODEGEN--\":8338:8357   */\n      swap1\n      pop\n        /* \"--CODEGEN--\":8130:8363   */\n      swap2\n      swap1\n      pop\n      jump\t// out\n        /* \"--CODEGEN--\":8372:8704   */\n    tag_407:\n      0x00\n        /* \"--CODEGEN--\":8532:8599   */\n      tag_409\n        /* \"--CODEGEN--\":8596:8598   */\n      0x20\n        /* \"--CODEGEN--\":8591:8594   */\n      dup4\n        /* \"--CODEGEN--\":8532:8599   */\n      tag_377\n      jump\t// in\n    tag_409:\n        /* \"--CODEGEN--\":8525:8599   */\n      swap2\n      pop\n        /* \"--CODEGEN--\":8632:8666   */\n      0x436f6d70726120756e206e756d65726f206d656e6f7220646520546f6b656e73\n        /* \"--CODEGEN--\":8628:8629   */\n      0x00\n        /* \"--CODEGEN--\":8623:8626   */\n      dup4\n        /* \"--CODEGEN--\":8619:8630   */\n      add\n        /* \"--CODEGEN--\":8612:8667   */\n      mstore\n        /* \"--CODEGEN--\":8695:8697   */\n      0x20\n        /* \"--CODEGEN--\":8690:8693   */\n      dup3\n        /* \"--CODEGEN--\":8686:8698   */\n      add\n        /* \"--CODEGEN--\":8679:8698   */\n      swap1\n      pop\n        /* \"--CODEGEN--\":8518:8704   */\n      swap2\n      swap1\n      pop\n      jump\t// out\n        /* \"--CODEGEN--\":8713:9090   */\n    tag_410:\n      0x00\n        /* \"--CODEGEN--\":8873:8940   */\n      tag_412\n        /* \"--CODEGEN--\":8937:8939   */\n      0x28\n        /* \"--CODEGEN--\":8932:8935   */\n      dup4\n        /* \"--CODEGEN--\":8873:8940   */\n      tag_377\n      jump\t// in\n    tag_412:\n        /* \"--CODEGEN--\":8866:8940   */\n      swap2\n      pop\n        /* \"--CODEGEN--\":8973:9007   */\n      0x4e6f207469656e65206c6f7320546f6b656e7320717565206465736561732064\n        /* \"--CODEGEN--\":8969:8970   */\n      0x00\n        /* \"--CODEGEN--\":8964:8967   */\n      dup4\n        /* \"--CODEGEN--\":8960:8971   */\n      add\n        /* \"--CODEGEN--\":8953:9008   */\n      mstore\n        /* \"--CODEGEN--\":9042:9052   */\n      0x65766f6c7665722e000000000000000000000000000000000000000000000000\n        /* \"--CODEGEN--\":9037:9039   */\n      0x20\n        /* \"--CODEGEN--\":9032:9035   */\n      dup4\n        /* \"--CODEGEN--\":9028:9040   */\n      add\n        /* \"--CODEGEN--\":9021:9053   */\n      mstore\n        /* \"--CODEGEN--\":9081:9083   */\n      0x40\n        /* \"--CODEGEN--\":9076:9079   */\n      dup3\n        /* \"--CODEGEN--\":9072:9084   */\n      add\n        /* \"--CODEGEN--\":9065:9084   */\n      swap1\n      pop\n        /* \"--CODEGEN--\":8859:9090   */\n      swap2\n      swap1\n      pop\n      jump\t// out\n        /* \"--CODEGEN--\":9098:9211   */\n    tag_413:\n        /* \"--CODEGEN--\":9181:9205   */\n      tag_415\n        /* \"--CODEGEN--\":9199:9204   */\n      dup2\n        /* \"--CODEGEN--\":9181:9205   */\n      tag_416\n      jump\t// in\n    tag_415:\n        /* \"--CODEGEN--\":9176:9179   */\n      dup3\n        /* \"--CODEGEN--\":9169:9206   */\n      mstore\n        /* \"--CODEGEN--\":9163:9211   */\n      pop\n      pop\n      jump\t// out\n        /* \"--CODEGEN--\":9218:9493   */\n    tag_128:\n      0x00\n        /* \"--CODEGEN--\":9373:9468   */\n      tag_418\n        /* \"--CODEGEN--\":9464:9467   */\n      dup3\n        /* \"--CODEGEN--\":9455:9461   */\n      dup5\n        /* \"--CODEGEN--\":9373:9468   */\n      tag_380\n      jump\t// in\n    tag_418:\n        /* \"--CODEGEN--\":9366:9468   */\n      swap2\n      pop\n        /* \"--CODEGEN--\":9485:9488   */\n      dup2\n        /* \"--CODEGEN--\":9478:9488   */\n      swap1\n      pop\n        /* \"--CODEGEN--\":9354:9493   */\n      swap3\n      swap2\n      pop\n      pop\n      jump\t// out\n        /* \"--CODEGEN--\":9500:9722   */\n    tag_111:\n      0x00\n        /* \"--CODEGEN--\":9627:9629   */\n      0x20\n        /* \"--CODEGEN--\":9616:9625   */\n      dup3\n        /* \"--CODEGEN--\":9612:9630   */\n      add\n        /* \"--CODEGEN--\":9604:9630   */\n      swap1\n      pop\n        /* \"--CODEGEN--\":9641:9712   */\n      tag_420\n        /* \"--CODEGEN--\":9709:9710   */\n      0x00\n        /* \"--CODEGEN--\":9698:9707   */\n      dup4\n        /* \"--CODEGEN--\":9694:9711   */\n      add\n        /* \"--CODEGEN--\":9685:9691   */\n      dup5\n        /* \"--CODEGEN--\":9641:9712   */\n      tag_342\n      jump\t// in\n    tag_420:\n        /* \"--CODEGEN--\":9598:9722   */\n      swap3\n      swap2\n      pop\n      pop\n      jump\t// out\n        /* \"--CODEGEN--\":9729:9967   */\n    tag_245:\n      0x00\n        /* \"--CODEGEN--\":9864:9866   */\n      0x20\n        /* \"--CODEGEN--\":9853:9862   */\n      dup3\n        /* \"--CODEGEN--\":9849:9867   */\n      add\n        /* \"--CODEGEN--\":9841:9867   */\n      swap1\n      pop\n        /* \"--CODEGEN--\":9878:9957   */\n      tag_422\n        /* \"--CODEGEN--\":9954:9955   */\n      0x00\n        /* \"--CODEGEN--\":9943:9952   */\n      dup4\n        /* \"--CODEGEN--\":9939:9956   */\n      add\n        /* \"--CODEGEN--\":9930:9936   */\n      dup5\n        /* \"--CODEGEN--\":9878:9957   */\n      tag_334\n      jump\t// in\n    tag_422:\n        /* \"--CODEGEN--\":9835:9967   */\n      swap3\n      swap2\n      pop\n      pop\n      jump\t// out\n        /* \"--CODEGEN--\":9974:10228   */\n    tag_68:\n      0x00\n        /* \"--CODEGEN--\":10117:10119   */\n      0x20\n        /* \"--CODEGEN--\":10106:10115   */\n      dup3\n        /* \"--CODEGEN--\":10102:10120   */\n      add\n        /* \"--CODEGEN--\":10094:10120   */\n      swap1\n      pop\n        /* \"--CODEGEN--\":10131:10218   */\n      tag_424\n        /* \"--CODEGEN--\":10215:10216   */\n      0x00\n        /* \"--CODEGEN--\":10204:10213   */\n      dup4\n        /* \"--CODEGEN--\":10200:10217   */\n      add\n        /* \"--CODEGEN--\":10191:10197   */\n      dup5\n        /* \"--CODEGEN--\":10131:10218   */\n      tag_338\n      jump\t// in\n    tag_424:\n        /* \"--CODEGEN--\":10088:10228   */\n      swap3\n      swap2\n      pop\n      pop\n      jump\t// out\n        /* \"--CODEGEN--\":10235:10695   */\n    tag_138:\n      0x00\n        /* \"--CODEGEN--\":10426:10428   */\n      0x60\n        /* \"--CODEGEN--\":10415:10424   */\n      dup3\n        /* \"--CODEGEN--\":10411:10429   */\n      add\n        /* \"--CODEGEN--\":10403:10429   */\n      swap1\n      pop\n        /* \"--CODEGEN--\":10440:10519   */\n      tag_426\n        /* \"--CODEGEN--\":10516:10517   */\n      0x00\n        /* \"--CODEGEN--\":10505:10514   */\n      dup4\n        /* \"--CODEGEN--\":10501:10518   */\n      add\n        /* \"--CODEGEN--\":10492:10498   */\n      dup7\n        /* \"--CODEGEN--\":10440:10519   */\n      tag_334\n      jump\t// in\n    tag_426:\n        /* \"--CODEGEN--\":10530:10602   */\n      tag_427\n        /* \"--CODEGEN--\":10598:10600   */\n      0x20\n        /* \"--CODEGEN--\":10587:10596   */\n      dup4\n        /* \"--CODEGEN--\":10583:10601   */\n      add\n        /* \"--CODEGEN--\":10574:10580   */\n      dup6\n        /* \"--CODEGEN--\":10530:10602   */\n      tag_342\n      jump\t// in\n    tag_427:\n        /* \"--CODEGEN--\":10613:10685   */\n      tag_428\n        /* \"--CODEGEN--\":10681:10683   */\n      0x40\n        /* \"--CODEGEN--\":10670:10679   */\n      dup4\n        /* \"--CODEGEN--\":10666:10684   */\n      add\n        /* \"--CODEGEN--\":10657:10663   */\n      dup5\n        /* \"--CODEGEN--\":10613:10685   */\n      tag_413\n      jump\t// in\n    tag_428:\n        /* \"--CODEGEN--\":10397:10695   */\n      swap5\n      swap4\n      pop\n      pop\n      pop\n      pop\n      jump\t// out\n        /* \"--CODEGEN--\":10702:11051   */\n    tag_269:\n      0x00\n        /* \"--CODEGEN--\":10865:10867   */\n      0x40\n        /* \"--CODEGEN--\":10854:10863   */\n      dup3\n        /* \"--CODEGEN--\":10850:10868   */\n      add\n        /* \"--CODEGEN--\":10842:10868   */\n      swap1\n      pop\n        /* \"--CODEGEN--\":10879:10958   */\n      tag_430\n        /* \"--CODEGEN--\":10955:10956   */\n      0x00\n        /* \"--CODEGEN--\":10944:10953   */\n      dup4\n        /* \"--CODEGEN--\":10940:10957   */\n      add\n        /* \"--CODEGEN--\":10931:10937   */\n      dup6\n        /* \"--CODEGEN--\":10879:10958   */\n      tag_334\n      jump\t// in\n    tag_430:\n        /* \"--CODEGEN--\":10969:11041   */\n      tag_431\n        /* \"--CODEGEN--\":11037:11039   */\n      0x20\n        /* \"--CODEGEN--\":11026:11035   */\n      dup4\n        /* \"--CODEGEN--\":11022:11040   */\n      add\n        /* \"--CODEGEN--\":11013:11019   */\n      dup5\n        /* \"--CODEGEN--\":10969:11041   */\n      tag_413\n      jump\t// in\n    tag_431:\n        /* \"--CODEGEN--\":10836:11051   */\n      swap4\n      swap3\n      pop\n      pop\n      pop\n      jump\t// out\n        /* \"--CODEGEN--\":11058:11468   */\n    tag_51:\n      0x00\n        /* \"--CODEGEN--\":11255:11257   */\n      0x20\n        /* \"--CODEGEN--\":11244:11253   */\n      dup3\n        /* \"--CODEGEN--\":11240:11258   */\n      add\n        /* \"--CODEGEN--\":11232:11258   */\n      swap1\n      pop\n        /* \"--CODEGEN--\":11305:11314   */\n      dup2\n        /* \"--CODEGEN--\":11299:11303   */\n      dup2\n        /* \"--CODEGEN--\":11295:11315   */\n      sub\n        /* \"--CODEGEN--\":11291:11292   */\n      0x00\n        /* \"--CODEGEN--\":11280:11289   */\n      dup4\n        /* \"--CODEGEN--\":11276:11293   */\n      add\n        /* \"--CODEGEN--\":11269:11316   */\n      mstore\n        /* \"--CODEGEN--\":11330:11458   */\n      tag_433\n        /* \"--CODEGEN--\":11453:11457   */\n      dup2\n        /* \"--CODEGEN--\":11444:11450   */\n      dup5\n        /* \"--CODEGEN--\":11330:11458   */\n      tag_346\n      jump\t// in\n    tag_433:\n        /* \"--CODEGEN--\":11322:11458   */\n      swap1\n      pop\n        /* \"--CODEGEN--\":11226:11468   */\n      swap3\n      swap2\n      pop\n      pop\n      jump\t// out\n        /* \"--CODEGEN--\":11475:11785   */\n    tag_230:\n      0x00\n        /* \"--CODEGEN--\":11622:11624   */\n      0x20\n        /* \"--CODEGEN--\":11611:11620   */\n      dup3\n        /* \"--CODEGEN--\":11607:11625   */\n      add\n        /* \"--CODEGEN--\":11599:11625   */\n      swap1\n      pop\n        /* \"--CODEGEN--\":11672:11681   */\n      dup2\n        /* \"--CODEGEN--\":11666:11670   */\n      dup2\n        /* \"--CODEGEN--\":11662:11682   */\n      sub\n        /* \"--CODEGEN--\":11658:11659   */\n      0x00\n        /* \"--CODEGEN--\":11647:11656   */\n      dup4\n        /* \"--CODEGEN--\":11643:11660   */\n      add\n        /* \"--CODEGEN--\":11636:11683   */\n      mstore\n        /* \"--CODEGEN--\":11697:11775   */\n      tag_435\n        /* \"--CODEGEN--\":11770:11774   */\n      dup2\n        /* \"--CODEGEN--\":11761:11767   */\n      dup5\n        /* \"--CODEGEN--\":11697:11775   */\n      tag_373\n      jump\t// in\n    tag_435:\n        /* \"--CODEGEN--\":11689:11775   */\n      swap1\n      pop\n        /* \"--CODEGEN--\":11593:11785   */\n      swap3\n      swap2\n      pop\n      pop\n      jump\t// out\n        /* \"--CODEGEN--\":11792:12213   */\n    tag_175:\n      0x00\n        /* \"--CODEGEN--\":11967:11969   */\n      0x40\n        /* \"--CODEGEN--\":11956:11965   */\n      dup3\n        /* \"--CODEGEN--\":11952:11970   */\n      add\n        /* \"--CODEGEN--\":11944:11970   */\n      swap1\n      pop\n        /* \"--CODEGEN--\":12017:12026   */\n      dup2\n        /* \"--CODEGEN--\":12011:12015   */\n      dup2\n        /* \"--CODEGEN--\":12007:12027   */\n      sub\n        /* \"--CODEGEN--\":12003:12004   */\n      0x00\n        /* \"--CODEGEN--\":11992:12001   */\n      dup4\n        /* \"--CODEGEN--\":11988:12005   */\n      add\n        /* \"--CODEGEN--\":11981:12028   */\n      mstore\n        /* \"--CODEGEN--\":12042:12120   */\n      tag_437\n        /* \"--CODEGEN--\":12115:12119   */\n      dup2\n        /* \"--CODEGEN--\":12106:12112   */\n      dup6\n        /* \"--CODEGEN--\":12042:12120   */\n      tag_373\n      jump\t// in\n    tag_437:\n        /* \"--CODEGEN--\":12034:12120   */\n      swap1\n      pop\n        /* \"--CODEGEN--\":12131:12203   */\n      tag_438\n        /* \"--CODEGEN--\":12199:12201   */\n      0x20\n        /* \"--CODEGEN--\":12188:12197   */\n      dup4\n        /* \"--CODEGEN--\":12184:12202   */\n      add\n        /* \"--CODEGEN--\":12175:12181   */\n      dup5\n        /* \"--CODEGEN--\":12131:12203   */\n      tag_413\n      jump\t// in\n    tag_438:\n        /* \"--CODEGEN--\":11938:12213   */\n      swap4\n      swap3\n      pop\n      pop\n      pop\n      jump\t// out\n        /* \"--CODEGEN--\":12220:12768   */\n    tag_148:\n      0x00\n        /* \"--CODEGEN--\":12431:12433   */\n      0x60\n        /* \"--CODEGEN--\":12420:12429   */\n      dup3\n        /* \"--CODEGEN--\":12416:12434   */\n      add\n        /* \"--CODEGEN--\":12408:12434   */\n      swap1\n      pop\n        /* \"--CODEGEN--\":12481:12490   */\n      dup2\n        /* \"--CODEGEN--\":12475:12479   */\n      dup2\n        /* \"--CODEGEN--\":12471:12491   */\n      sub\n        /* \"--CODEGEN--\":12467:12468   */\n      0x00\n        /* \"--CODEGEN--\":12456:12465   */\n      dup4\n        /* \"--CODEGEN--\":12452:12469   */\n      add\n        /* \"--CODEGEN--\":12445:12492   */\n      mstore\n        /* \"--CODEGEN--\":12506:12584   */\n      tag_440\n        /* \"--CODEGEN--\":12579:12583   */\n      dup2\n        /* \"--CODEGEN--\":12570:12576   */\n      dup7\n        /* \"--CODEGEN--\":12506:12584   */\n      tag_373\n      jump\t// in\n    tag_440:\n        /* \"--CODEGEN--\":12498:12584   */\n      swap1\n      pop\n        /* \"--CODEGEN--\":12595:12667   */\n      tag_441\n        /* \"--CODEGEN--\":12663:12665   */\n      0x20\n        /* \"--CODEGEN--\":12652:12661   */\n      dup4\n        /* \"--CODEGEN--\":12648:12666   */\n      add\n        /* \"--CODEGEN--\":12639:12645   */\n      dup6\n        /* \"--CODEGEN--\":12595:12667   */\n      tag_413\n      jump\t// in\n    tag_441:\n        /* \"--CODEGEN--\":12678:12758   */\n      tag_442\n        /* \"--CODEGEN--\":12754:12756   */\n      0x40\n        /* \"--CODEGEN--\":12743:12752   */\n      dup4\n        /* \"--CODEGEN--\":12739:12757   */\n      add\n        /* \"--CODEGEN--\":12730:12736   */\n      dup5\n        /* \"--CODEGEN--\":12678:12758   */\n      tag_334\n      jump\t// in\n    tag_442:\n        /* \"--CODEGEN--\":12402:12768   */\n      swap5\n      swap4\n      pop\n      pop\n      pop\n      pop\n      jump\t// out\n        /* \"--CODEGEN--\":12775:13295   */\n    tag_88:\n      0x00\n        /* \"--CODEGEN--\":12972:12974   */\n      0x60\n        /* \"--CODEGEN--\":12961:12970   */\n      dup3\n        /* \"--CODEGEN--\":12957:12975   */\n      add\n        /* \"--CODEGEN--\":12949:12975   */\n      swap1\n      pop\n        /* \"--CODEGEN--\":13022:13031   */\n      dup2\n        /* \"--CODEGEN--\":13016:13020   */\n      dup2\n        /* \"--CODEGEN--\":13012:13032   */\n      sub\n        /* \"--CODEGEN--\":13008:13009   */\n      0x00\n        /* \"--CODEGEN--\":12997:13006   */\n      dup4\n        /* \"--CODEGEN--\":12993:13010   */\n      add\n        /* \"--CODEGEN--\":12986:13033   */\n      mstore\n        /* \"--CODEGEN--\":13047:13125   */\n      tag_444\n        /* \"--CODEGEN--\":13120:13124   */\n      dup2\n        /* \"--CODEGEN--\":13111:13117   */\n      dup7\n        /* \"--CODEGEN--\":13047:13125   */\n      tag_373\n      jump\t// in\n    tag_444:\n        /* \"--CODEGEN--\":13039:13125   */\n      swap1\n      pop\n        /* \"--CODEGEN--\":13136:13208   */\n      tag_445\n        /* \"--CODEGEN--\":13204:13206   */\n      0x20\n        /* \"--CODEGEN--\":13193:13202   */\n      dup4\n        /* \"--CODEGEN--\":13189:13207   */\n      add\n        /* \"--CODEGEN--\":13180:13186   */\n      dup6\n        /* \"--CODEGEN--\":13136:13208   */\n      tag_413\n      jump\t// in\n    tag_445:\n        /* \"--CODEGEN--\":13219:13285   */\n      tag_446\n        /* \"--CODEGEN--\":13281:13283   */\n      0x40\n        /* \"--CODEGEN--\":13270:13279   */\n      dup4\n        /* \"--CODEGEN--\":13266:13284   */\n      add\n        /* \"--CODEGEN--\":13257:13263   */\n      dup5\n        /* \"--CODEGEN--\":13219:13285   */\n      tag_360\n      jump\t// in\n    tag_446:\n        /* \"--CODEGEN--\":12943:13295   */\n      swap5\n      swap4\n      pop\n      pop\n      pop\n      pop\n      jump\t// out\n        /* \"--CODEGEN--\":13302:13718   */\n    tag_204:\n      0x00\n        /* \"--CODEGEN--\":13502:13504   */\n      0x20\n        /* \"--CODEGEN--\":13491:13500   */\n      dup3\n        /* \"--CODEGEN--\":13487:13505   */\n      add\n        /* \"--CODEGEN--\":13479:13505   */\n      swap1\n      pop\n        /* \"--CODEGEN--\":13552:13561   */\n      dup2\n        /* \"--CODEGEN--\":13546:13550   */\n      dup2\n        /* \"--CODEGEN--\":13542:13562   */\n      sub\n        /* \"--CODEGEN--\":13538:13539   */\n      0x00\n        /* \"--CODEGEN--\":13527:13536   */\n      dup4\n        /* \"--CODEGEN--\":13523:13540   */\n      add\n        /* \"--CODEGEN--\":13516:13563   */\n      mstore\n        /* \"--CODEGEN--\":13577:13708   */\n      tag_448\n        /* \"--CODEGEN--\":13703:13707   */\n      dup2\n        /* \"--CODEGEN--\":13577:13708   */\n      tag_386\n      jump\t// in\n    tag_448:\n        /* \"--CODEGEN--\":13569:13708   */\n      swap1\n      pop\n        /* \"--CODEGEN--\":13473:13718   */\n      swap2\n      swap1\n      pop\n      jump\t// out\n        /* \"--CODEGEN--\":13725:14141   */\n    tag_208:\n      0x00\n        /* \"--CODEGEN--\":13925:13927   */\n      0x20\n        /* \"--CODEGEN--\":13914:13923   */\n      dup3\n        /* \"--CODEGEN--\":13910:13928   */\n      add\n        /* \"--CODEGEN--\":13902:13928   */\n      swap1\n      pop\n        /* \"--CODEGEN--\":13975:13984   */\n      dup2\n        /* \"--CODEGEN--\":13969:13973   */\n      dup2\n        /* \"--CODEGEN--\":13965:13985   */\n      sub\n        /* \"--CODEGEN--\":13961:13962   */\n      0x00\n        /* \"--CODEGEN--\":13950:13959   */\n      dup4\n        /* \"--CODEGEN--\":13946:13963   */\n      add\n        /* \"--CODEGEN--\":13939:13986   */\n      mstore\n        /* \"--CODEGEN--\":14000:14131   */\n      tag_450\n        /* \"--CODEGEN--\":14126:14130   */\n      dup2\n        /* \"--CODEGEN--\":14000:14131   */\n      tag_389\n      jump\t// in\n    tag_450:\n        /* \"--CODEGEN--\":13992:14131   */\n      swap1\n      pop\n        /* \"--CODEGEN--\":13896:14141   */\n      swap2\n      swap1\n      pop\n      jump\t// out\n        /* \"--CODEGEN--\":14148:14564   */\n    tag_132:\n      0x00\n        /* \"--CODEGEN--\":14348:14350   */\n      0x20\n        /* \"--CODEGEN--\":14337:14346   */\n      dup3\n        /* \"--CODEGEN--\":14333:14351   */\n      add\n        /* \"--CODEGEN--\":14325:14351   */\n      swap1\n      pop\n        /* \"--CODEGEN--\":14398:14407   */\n      dup2\n        /* \"--CODEGEN--\":14392:14396   */\n      dup2\n        /* \"--CODEGEN--\":14388:14408   */\n      sub\n        /* \"--CODEGEN--\":14384:14385   */\n      0x00\n        /* \"--CODEGEN--\":14373:14382   */\n      dup4\n        /* \"--CODEGEN--\":14369:14386   */\n      add\n        /* \"--CODEGEN--\":14362:14409   */\n      mstore\n        /* \"--CODEGEN--\":14423:14554   */\n      tag_452\n        /* \"--CODEGEN--\":14549:14553   */\n      dup2\n        /* \"--CODEGEN--\":14423:14554   */\n      tag_392\n      jump\t// in\n    tag_452:\n        /* \"--CODEGEN--\":14415:14554   */\n      swap1\n      pop\n        /* \"--CODEGEN--\":14319:14564   */\n      swap2\n      swap1\n      pop\n      jump\t// out\n        /* \"--CODEGEN--\":14571:14987   */\n    tag_136:\n      0x00\n        /* \"--CODEGEN--\":14771:14773   */\n      0x20\n        /* \"--CODEGEN--\":14760:14769   */\n      dup3\n        /* \"--CODEGEN--\":14756:14774   */\n      add\n        /* \"--CODEGEN--\":14748:14774   */\n      swap1\n      pop\n        /* \"--CODEGEN--\":14821:14830   */\n      dup2\n        /* \"--CODEGEN--\":14815:14819   */\n      dup2\n        /* \"--CODEGEN--\":14811:14831   */\n      sub\n        /* \"--CODEGEN--\":14807:14808   */\n      0x00\n        /* \"--CODEGEN--\":14796:14805   */\n      dup4\n        /* \"--CODEGEN--\":14792:14809   */\n      add\n        /* \"--CODEGEN--\":14785:14832   */\n      mstore\n        /* \"--CODEGEN--\":14846:14977   */\n      tag_454\n        /* \"--CODEGEN--\":14972:14976   */\n      dup2\n        /* \"--CODEGEN--\":14846:14977   */\n      tag_395\n      jump\t// in\n    tag_454:\n        /* \"--CODEGEN--\":14838:14977   */\n      swap1\n      pop\n        /* \"--CODEGEN--\":14742:14987   */\n      swap2\n      swap1\n      pop\n      jump\t// out\n        /* \"--CODEGEN--\":14994:15410   */\n    tag_120:\n      0x00\n        /* \"--CODEGEN--\":15194:15196   */\n      0x20\n        /* \"--CODEGEN--\":15183:15192   */\n      dup3\n        /* \"--CODEGEN--\":15179:15197   */\n      add\n        /* \"--CODEGEN--\":15171:15197   */\n      swap1\n      pop\n        /* \"--CODEGEN--\":15244:15253   */\n      dup2\n        /* \"--CODEGEN--\":15238:15242   */\n      dup2\n        /* \"--CODEGEN--\":15234:15254   */\n      sub\n        /* \"--CODEGEN--\":15230:15231   */\n      0x00\n        /* \"--CODEGEN--\":15219:15228   */\n      dup4\n        /* \"--CODEGEN--\":15215:15232   */\n      add\n        /* \"--CODEGEN--\":15208:15255   */\n      mstore\n        /* \"--CODEGEN--\":15269:15400   */\n      tag_456\n        /* \"--CODEGEN--\":15395:15399   */\n      dup2\n        /* \"--CODEGEN--\":15269:15400   */\n      tag_398\n      jump\t// in\n    tag_456:\n        /* \"--CODEGEN--\":15261:15400   */\n      swap1\n      pop\n        /* \"--CODEGEN--\":15165:15410   */\n      swap2\n      swap1\n      pop\n      jump\t// out\n        /* \"--CODEGEN--\":15417:15833   */\n    tag_152:\n      0x00\n        /* \"--CODEGEN--\":15617:15619   */\n      0x20\n        /* \"--CODEGEN--\":15606:15615   */\n      dup3\n        /* \"--CODEGEN--\":15602:15620   */\n      add\n        /* \"--CODEGEN--\":15594:15620   */\n      swap1\n      pop\n        /* \"--CODEGEN--\":15667:15676   */\n      dup2\n        /* \"--CODEGEN--\":15661:15665   */\n      dup2\n        /* \"--CODEGEN--\":15657:15677   */\n      sub\n        /* \"--CODEGEN--\":15653:15654   */\n      0x00\n        /* \"--CODEGEN--\":15642:15651   */\n      dup4\n        /* \"--CODEGEN--\":15638:15655   */\n      add\n        /* \"--CODEGEN--\":15631:15678   */\n      mstore\n        /* \"--CODEGEN--\":15692:15823   */\n      tag_458\n        /* \"--CODEGEN--\":15818:15822   */\n      dup2\n        /* \"--CODEGEN--\":15692:15823   */\n      tag_401\n      jump\t// in\n    tag_458:\n        /* \"--CODEGEN--\":15684:15823   */\n      swap1\n      pop\n        /* \"--CODEGEN--\":15588:15833   */\n      swap2\n      swap1\n      pop\n      jump\t// out\n        /* \"--CODEGEN--\":15840:16256   */\n    tag_261:\n      0x00\n        /* \"--CODEGEN--\":16040:16042   */\n      0x20\n        /* \"--CODEGEN--\":16029:16038   */\n      dup3\n        /* \"--CODEGEN--\":16025:16043   */\n      add\n        /* \"--CODEGEN--\":16017:16043   */\n      swap1\n      pop\n        /* \"--CODEGEN--\":16090:16099   */\n      dup2\n        /* \"--CODEGEN--\":16084:16088   */\n      dup2\n        /* \"--CODEGEN--\":16080:16100   */\n      sub\n        /* \"--CODEGEN--\":16076:16077   */\n      0x00\n        /* \"--CODEGEN--\":16065:16074   */\n      dup4\n        /* \"--CODEGEN--\":16061:16078   */\n      add\n        /* \"--CODEGEN--\":16054:16101   */\n      mstore\n        /* \"--CODEGEN--\":16115:16246   */\n      tag_460\n        /* \"--CODEGEN--\":16241:16245   */\n      dup2\n        /* \"--CODEGEN--\":16115:16246   */\n      tag_404\n      jump\t// in\n    tag_460:\n        /* \"--CODEGEN--\":16107:16246   */\n      swap1\n      pop\n        /* \"--CODEGEN--\":16011:16256   */\n      swap2\n      swap1\n      pop\n      jump\t// out\n        /* \"--CODEGEN--\":16263:16679   */\n    tag_267:\n      0x00\n        /* \"--CODEGEN--\":16463:16465   */\n      0x20\n        /* \"--CODEGEN--\":16452:16461   */\n      dup3\n        /* \"--CODEGEN--\":16448:16466   */\n      add\n        /* \"--CODEGEN--\":16440:16466   */\n      swap1\n      pop\n        /* \"--CODEGEN--\":16513:16522   */\n      dup2\n        /* \"--CODEGEN--\":16507:16511   */\n      dup2\n        /* \"--CODEGEN--\":16503:16523   */\n      sub\n        /* \"--CODEGEN--\":16499:16500   */\n      0x00\n        /* \"--CODEGEN--\":16488:16497   */\n      dup4\n        /* \"--CODEGEN--\":16484:16501   */\n      add\n        /* \"--CODEGEN--\":16477:16524   */\n      mstore\n        /* \"--CODEGEN--\":16538:16669   */\n      tag_462\n        /* \"--CODEGEN--\":16664:16668   */\n      dup2\n        /* \"--CODEGEN--\":16538:16669   */\n      tag_407\n      jump\t// in\n    tag_462:\n        /* \"--CODEGEN--\":16530:16669   */\n      swap1\n      pop\n        /* \"--CODEGEN--\":16434:16679   */\n      swap2\n      swap1\n      pop\n      jump\t// out\n        /* \"--CODEGEN--\":16686:17102   */\n    tag_156:\n      0x00\n        /* \"--CODEGEN--\":16886:16888   */\n      0x20\n        /* \"--CODEGEN--\":16875:16884   */\n      dup3\n        /* \"--CODEGEN--\":16871:16889   */\n      add\n        /* \"--CODEGEN--\":16863:16889   */\n      swap1\n      pop\n        /* \"--CODEGEN--\":16936:16945   */\n      dup2\n        /* \"--CODEGEN--\":16930:16934   */\n      dup2\n        /* \"--CODEGEN--\":16926:16946   */\n      sub\n        /* \"--CODEGEN--\":16922:16923   */\n      0x00\n        /* \"--CODEGEN--\":16911:16920   */\n      dup4\n        /* \"--CODEGEN--\":16907:16924   */\n      add\n        /* \"--CODEGEN--\":16900:16947   */\n      mstore\n        /* \"--CODEGEN--\":16961:17092   */\n      tag_464\n        /* \"--CODEGEN--\":17087:17091   */\n      dup2\n        /* \"--CODEGEN--\":16961:17092   */\n      tag_410\n      jump\t// in\n    tag_464:\n        /* \"--CODEGEN--\":16953:17092   */\n      swap1\n      pop\n        /* \"--CODEGEN--\":16857:17102   */\n      swap2\n      swap1\n      pop\n      jump\t// out\n        /* \"--CODEGEN--\":17109:17331   */\n    tag_28:\n      0x00\n        /* \"--CODEGEN--\":17236:17238   */\n      0x20\n        /* \"--CODEGEN--\":17225:17234   */\n      dup3\n        /* \"--CODEGEN--\":17221:17239   */\n      add\n        /* \"--CODEGEN--\":17213:17239   */\n      swap1\n      pop\n        /* \"--CODEGEN--\":17250:17321   */\n      tag_466\n        /* \"--CODEGEN--\":17318:17319   */\n      0x00\n        /* \"--CODEGEN--\":17307:17316   */\n      dup4\n        /* \"--CODEGEN--\":17303:17320   */\n      add\n        /* \"--CODEGEN--\":17294:17300   */\n      dup5\n        /* \"--CODEGEN--\":17250:17321   */\n      tag_413\n      jump\t// in\n    tag_466:\n        /* \"--CODEGEN--\":17207:17331   */\n      swap3\n      swap2\n      pop\n      pop\n      jump\t// out\n        /* \"--CODEGEN--\":17338:17594   */\n    tag_298:\n      0x00\n        /* \"--CODEGEN--\":17400:17402   */\n      0x40\n        /* \"--CODEGEN--\":17394:17403   */\n      mload\n        /* \"--CODEGEN--\":17384:17403   */\n      swap1\n      pop\n        /* \"--CODEGEN--\":17438:17442   */\n      dup2\n        /* \"--CODEGEN--\":17430:17436   */\n      dup2\n        /* \"--CODEGEN--\":17426:17443   */\n      add\n        /* \"--CODEGEN--\":17537:17543   */\n      dup2\n        /* \"--CODEGEN--\":17525:17535   */\n      dup2\n        /* \"--CODEGEN--\":17522:17544   */\n      lt\n        /* \"--CODEGEN--\":17501:17519   */\n      0xffffffffffffffff\n        /* \"--CODEGEN--\":17489:17499   */\n      dup3\n        /* \"--CODEGEN--\":17486:17520   */\n      gt\n        /* \"--CODEGEN--\":17483:17545   */\n      or\n        /* \"--CODEGEN--\":17480:17482   */\n      iszero\n      tag_468\n      jumpi\n        /* \"--CODEGEN--\":17558:17559   */\n      0x00\n        /* \"--CODEGEN--\":17555:17556   */\n      dup1\n        /* \"--CODEGEN--\":17548:17560   */\n      revert\n        /* \"--CODEGEN--\":17480:17482   */\n    tag_468:\n        /* \"--CODEGEN--\":17578:17588   */\n      dup1\n        /* \"--CODEGEN--\":17574:17576   */\n      0x40\n        /* \"--CODEGEN--\":17567:17589   */\n      mstore\n        /* \"--CODEGEN--\":17378:17594   */\n      pop\n      swap2\n      swap1\n      pop\n      jump\t// out\n        /* \"--CODEGEN--\":17601:17923   */\n    tag_297:\n      0x00\n        /* \"--CODEGEN--\":17745:17763   */\n      0xffffffffffffffff\n        /* \"--CODEGEN--\":17737:17743   */\n      dup3\n        /* \"--CODEGEN--\":17734:17764   */\n      gt\n        /* \"--CODEGEN--\":17731:17733   */\n      iszero\n      tag_470\n      jumpi\n        /* \"--CODEGEN--\":17777:17778   */\n      0x00\n        /* \"--CODEGEN--\":17774:17775   */\n      dup1\n        /* \"--CODEGEN--\":17767:17779   */\n      revert\n        /* \"--CODEGEN--\":17731:17733   */\n    tag_470:\n        /* \"--CODEGEN--\":17844:17848   */\n      0x1f\n        /* \"--CODEGEN--\":17840:17849   */\n      not\n        /* \"--CODEGEN--\":17833:17837   */\n      0x1f\n        /* \"--CODEGEN--\":17825:17831   */\n      dup4\n        /* \"--CODEGEN--\":17821:17838   */\n      add\n        /* \"--CODEGEN--\":17817:17850   */\n      and\n        /* \"--CODEGEN--\":17809:17850   */\n      swap1\n      pop\n        /* \"--CODEGEN--\":17908:17912   */\n      0x20\n        /* \"--CODEGEN--\":17902:17906   */\n      dup2\n        /* \"--CODEGEN--\":17898:17913   */\n      add\n        /* \"--CODEGEN--\":17890:17913   */\n      swap1\n      pop\n        /* \"--CODEGEN--\":17668:17923   */\n      swap2\n      swap1\n      pop\n      jump\t// out\n        /* \"--CODEGEN--\":17930:18091   */\n    tag_353:\n      0x00\n        /* \"--CODEGEN--\":18026:18029   */\n      dup2\n        /* \"--CODEGEN--\":18018:18029   */\n      swap1\n      pop\n        /* \"--CODEGEN--\":18064:18068   */\n      0x20\n        /* \"--CODEGEN--\":18059:18062   */\n      dup3\n        /* \"--CODEGEN--\":18055:18069   */\n      add\n        /* \"--CODEGEN--\":18047:18069   */\n      swap1\n      pop\n        /* \"--CODEGEN--\":18012:18091   */\n      swap2\n      swap1\n      pop\n      jump\t// out\n        /* \"--CODEGEN--\":18098:18245   */\n    tag_349:\n      0x00\n        /* \"--CODEGEN--\":18217:18222   */\n      dup2\n        /* \"--CODEGEN--\":18211:18223   */\n      mload\n        /* \"--CODEGEN--\":18201:18223   */\n      swap1\n      pop\n        /* \"--CODEGEN--\":18182:18245   */\n      swap2\n      swap1\n      pop\n      jump\t// out\n        /* \"--CODEGEN--\":18252:18374   */\n    tag_366:\n      0x00\n        /* \"--CODEGEN--\":18346:18351   */\n      dup2\n        /* \"--CODEGEN--\":18340:18352   */\n      mload\n        /* \"--CODEGEN--\":18330:18352   */\n      swap1\n      pop\n        /* \"--CODEGEN--\":18311:18374   */\n      swap2\n      swap1\n      pop\n      jump\t// out\n        /* \"--CODEGEN--\":18381:18499   */\n    tag_359:\n      0x00\n        /* \"--CODEGEN--\":18489:18493   */\n      0x20\n        /* \"--CODEGEN--\":18484:18487   */\n      dup3\n        /* \"--CODEGEN--\":18480:18494   */\n      add\n        /* \"--CODEGEN--\":18472:18494   */\n      swap1\n      pop\n        /* \"--CODEGEN--\":18466:18499   */\n      swap2\n      swap1\n      pop\n      jump\t// out\n        /* \"--CODEGEN--\":18507:18695   */\n    tag_351:\n      0x00\n        /* \"--CODEGEN--\":18647:18653   */\n      dup3\n        /* \"--CODEGEN--\":18642:18645   */\n      dup3\n        /* \"--CODEGEN--\":18635:18654   */\n      mstore\n        /* \"--CODEGEN--\":18684:18688   */\n      0x20\n        /* \"--CODEGEN--\":18679:18682   */\n      dup3\n        /* \"--CODEGEN--\":18675:18689   */\n      add\n        /* \"--CODEGEN--\":18660:18689   */\n      swap1\n      pop\n        /* \"--CODEGEN--\":18628:18695   */\n      swap3\n      swap2\n      pop\n      pop\n      jump\t// out\n        /* \"--CODEGEN--\":18704:18857   */\n    tag_368:\n      0x00\n        /* \"--CODEGEN--\":18809:18815   */\n      dup3\n        /* \"--CODEGEN--\":18804:18807   */\n      dup3\n        /* \"--CODEGEN--\":18797:18816   */\n      mstore\n        /* \"--CODEGEN--\":18846:18850   */\n      0x20\n        /* \"--CODEGEN--\":18841:18844   */\n      dup3\n        /* \"--CODEGEN--\":18837:18851   */\n      add\n        /* \"--CODEGEN--\":18822:18851   */\n      swap1\n      pop\n        /* \"--CODEGEN--\":18790:18857   */\n      swap3\n      swap2\n      pop\n      pop\n      jump\t// out\n        /* \"--CODEGEN--\":18866:19029   */\n    tag_377:\n      0x00\n        /* \"--CODEGEN--\":18981:18987   */\n      dup3\n        /* \"--CODEGEN--\":18976:18979   */\n      dup3\n        /* \"--CODEGEN--\":18969:18988   */\n      mstore\n        /* \"--CODEGEN--\":19018:19022   */\n      0x20\n        /* \"--CODEGEN--\":19013:19016   */\n      dup3\n        /* \"--CODEGEN--\":19009:19023   */\n      add\n        /* \"--CODEGEN--\":18994:19023   */\n      swap1\n      pop\n        /* \"--CODEGEN--\":18962:19029   */\n      swap3\n      swap2\n      pop\n      pop\n      jump\t// out\n        /* \"--CODEGEN--\":19038:19183   */\n    tag_384:\n      0x00\n        /* \"--CODEGEN--\":19174:19177   */\n      dup2\n        /* \"--CODEGEN--\":19159:19177   */\n      swap1\n      pop\n        /* \"--CODEGEN--\":19152:19183   */\n      swap3\n      swap2\n      pop\n      pop\n      jump\t// out\n        /* \"--CODEGEN--\":19191:19282   */\n    tag_345:\n      0x00\n        /* \"--CODEGEN--\":19253:19277   */\n      tag_480\n        /* \"--CODEGEN--\":19271:19276   */\n      dup3\n        /* \"--CODEGEN--\":19253:19277   */\n      tag_481\n      jump\t// in\n    tag_480:\n        /* \"--CODEGEN--\":19242:19277   */\n      swap1\n      pop\n        /* \"--CODEGEN--\":19236:19282   */\n      swap2\n      swap1\n      pop\n      jump\t// out\n        /* \"--CODEGEN--\":19289:19388   */\n    tag_341:\n      0x00\n        /* \"--CODEGEN--\":19359:19383   */\n      tag_483\n        /* \"--CODEGEN--\":19377:19382   */\n      dup3\n        /* \"--CODEGEN--\":19359:19383   */\n      tag_481\n      jump\t// in\n    tag_483:\n        /* \"--CODEGEN--\":19348:19383   */\n      swap1\n      pop\n        /* \"--CODEGEN--\":19342:19388   */\n      swap2\n      swap1\n      pop\n      jump\t// out\n        /* \"--CODEGEN--\":19395:19480   */\n    tag_363:\n      0x00\n        /* \"--CODEGEN--\":19468:19473   */\n      dup2\n        /* \"--CODEGEN--\":19461:19474   */\n      iszero\n        /* \"--CODEGEN--\":19454:19475   */\n      iszero\n        /* \"--CODEGEN--\":19443:19475   */\n      swap1\n      pop\n        /* \"--CODEGEN--\":19437:19480   */\n      swap2\n      swap1\n      pop\n      jump\t// out\n        /* \"--CODEGEN--\":19487:19608   */\n    tag_481:\n      0x00\n        /* \"--CODEGEN--\":19560:19602   */\n      0xffffffffffffffffffffffffffffffffffffffff\n        /* \"--CODEGEN--\":19553:19558   */\n      dup3\n        /* \"--CODEGEN--\":19549:19603   */\n      and\n        /* \"--CODEGEN--\":19538:19603   */\n      swap1\n      pop\n        /* \"--CODEGEN--\":19532:19608   */\n      swap2\n      swap1\n      pop\n      jump\t// out\n        /* \"--CODEGEN--\":19615:19687   */\n    tag_416:\n      0x00\n        /* \"--CODEGEN--\":19677:19682   */\n      dup2\n        /* \"--CODEGEN--\":19666:19682   */\n      swap1\n      pop\n        /* \"--CODEGEN--\":19660:19687   */\n      swap2\n      swap1\n      pop\n      jump\t// out\n        /* \"--CODEGEN--\":19694:19823   */\n    tag_337:\n      0x00\n        /* \"--CODEGEN--\":19781:19818   */\n      tag_488\n        /* \"--CODEGEN--\":19812:19817   */\n      dup3\n        /* \"--CODEGEN--\":19781:19818   */\n      tag_489\n      jump\t// in\n    tag_488:\n        /* \"--CODEGEN--\":19768:19818   */\n      swap1\n      pop\n        /* \"--CODEGEN--\":19762:19823   */\n      swap2\n      swap1\n      pop\n      jump\t// out\n        /* \"--CODEGEN--\":19830:19951   */\n    tag_489:\n      0x00\n        /* \"--CODEGEN--\":19909:19946   */\n      tag_491\n        /* \"--CODEGEN--\":19940:19945   */\n      dup3\n        /* \"--CODEGEN--\":19909:19946   */\n      tag_492\n      jump\t// in\n    tag_491:\n        /* \"--CODEGEN--\":19896:19946   */\n      swap1\n      pop\n        /* \"--CODEGEN--\":19890:19951   */\n      swap2\n      swap1\n      pop\n      jump\t// out\n        /* \"--CODEGEN--\":19958:20066   */\n    tag_492:\n      0x00\n        /* \"--CODEGEN--\":20037:20061   */\n      tag_494\n        /* \"--CODEGEN--\":20055:20060   */\n      dup3\n        /* \"--CODEGEN--\":20037:20061   */\n      tag_481\n      jump\t// in\n    tag_494:\n        /* \"--CODEGEN--\":20024:20061   */\n      swap1\n      pop\n        /* \"--CODEGEN--\":20018:20066   */\n      swap2\n      swap1\n      pop\n      jump\t// out\n        /* \"--CODEGEN--\":20074:20219   */\n    tag_301:\n        /* \"--CODEGEN--\":20155:20161   */\n      dup3\n        /* \"--CODEGEN--\":20150:20153   */\n      dup2\n        /* \"--CODEGEN--\":20145:20148   */\n      dup4\n        /* \"--CODEGEN--\":20132:20162   */\n      calldatacopy\n        /* \"--CODEGEN--\":20211:20212   */\n      0x00\n        /* \"--CODEGEN--\":20202:20208   */\n      dup4\n        /* \"--CODEGEN--\":20197:20200   */\n      dup4\n        /* \"--CODEGEN--\":20193:20209   */\n      add\n        /* \"--CODEGEN--\":20186:20213   */\n      mstore\n        /* \"--CODEGEN--\":20125:20219   */\n      pop\n      pop\n      pop\n      jump\t// out\n        /* \"--CODEGEN--\":20228:20496   */\n    tag_370:\n        /* \"--CODEGEN--\":20293:20294   */\n      0x00\n        /* \"--CODEGEN--\":20300:20401   */\n    tag_497:\n        /* \"--CODEGEN--\":20314:20320   */\n      dup4\n        /* \"--CODEGEN--\":20311:20312   */\n      dup2\n        /* \"--CODEGEN--\":20308:20321   */\n      lt\n        /* \"--CODEGEN--\":20300:20401   */\n      iszero\n      tag_499\n      jumpi\n        /* \"--CODEGEN--\":20390:20391   */\n      dup1\n        /* \"--CODEGEN--\":20385:20388   */\n      dup3\n        /* \"--CODEGEN--\":20381:20392   */\n      add\n        /* \"--CODEGEN--\":20375:20393   */\n      mload\n        /* \"--CODEGEN--\":20371:20372   */\n      dup2\n        /* \"--CODEGEN--\":20366:20369   */\n      dup5\n        /* \"--CODEGEN--\":20362:20373   */\n      add\n        /* \"--CODEGEN--\":20355:20394   */\n      mstore\n        /* \"--CODEGEN--\":20336:20338   */\n      0x20\n        /* \"--CODEGEN--\":20333:20334   */\n      dup2\n        /* \"--CODEGEN--\":20329:20339   */\n      add\n        /* \"--CODEGEN--\":20324:20339   */\n      swap1\n      pop\n        /* \"--CODEGEN--\":20300:20401   */\n      jump(tag_497)\n    tag_499:\n        /* \"--CODEGEN--\":20416:20422   */\n      dup4\n        /* \"--CODEGEN--\":20413:20414   */\n      dup2\n        /* \"--CODEGEN--\":20410:20423   */\n      gt\n        /* \"--CODEGEN--\":20407:20409   */\n      iszero\n      tag_500\n      jumpi\n        /* \"--CODEGEN--\":20481:20482   */\n      0x00\n        /* \"--CODEGEN--\":20472:20478   */\n      dup5\n        /* \"--CODEGEN--\":20467:20470   */\n      dup5\n        /* \"--CODEGEN--\":20463:20479   */\n      add\n        /* \"--CODEGEN--\":20456:20483   */\n      mstore\n        /* \"--CODEGEN--\":20407:20409   */\n    tag_500:\n        /* \"--CODEGEN--\":20277:20496   */\n      pop\n      pop\n      pop\n      pop\n      jump\t// out\n        /* \"--CODEGEN--\":20504:20601   */\n    tag_372:\n      0x00\n        /* \"--CODEGEN--\":20592:20594   */\n      0x1f\n        /* \"--CODEGEN--\":20588:20595   */\n      not\n        /* \"--CODEGEN--\":20583:20585   */\n      0x1f\n        /* \"--CODEGEN--\":20576:20581   */\n      dup4\n        /* \"--CODEGEN--\":20572:20586   */\n      add\n        /* \"--CODEGEN--\":20568:20596   */\n      and\n        /* \"--CODEGEN--\":20558:20596   */\n      swap1\n      pop\n        /* \"--CODEGEN--\":20552:20601   */\n      swap2\n      swap1\n      pop\n      jump\t// out\n        /* \"--CODEGEN--\":20609:20726   */\n    tag_287:\n        /* \"--CODEGEN--\":20678:20702   */\n      tag_503\n        /* \"--CODEGEN--\":20696:20701   */\n      dup2\n        /* \"--CODEGEN--\":20678:20702   */\n      tag_345\n      jump\t// in\n    tag_503:\n        /* \"--CODEGEN--\":20671:20676   */\n      dup2\n        /* \"--CODEGEN--\":20668:20703   */\n      eq\n        /* \"--CODEGEN--\":20658:20660   */\n      tag_504\n      jumpi\n        /* \"--CODEGEN--\":20717:20718   */\n      0x00\n        /* \"--CODEGEN--\":20714:20715   */\n      dup1\n        /* \"--CODEGEN--\":20707:20719   */\n      revert\n        /* \"--CODEGEN--\":20658:20660   */\n    tag_504:\n        /* \"--CODEGEN--\":20652:20726   */\n      pop\n      jump\t// out\n        /* \"--CODEGEN--\":20733:20844   */\n    tag_291:\n        /* \"--CODEGEN--\":20799:20820   */\n      tag_506\n        /* \"--CODEGEN--\":20814:20819   */\n      dup2\n        /* \"--CODEGEN--\":20799:20820   */\n      tag_363\n      jump\t// in\n    tag_506:\n        /* \"--CODEGEN--\":20792:20797   */\n      dup2\n        /* \"--CODEGEN--\":20789:20821   */\n      eq\n        /* \"--CODEGEN--\":20779:20781   */\n      tag_507\n      jumpi\n        /* \"--CODEGEN--\":20835:20836   */\n      0x00\n        /* \"--CODEGEN--\":20832:20833   */\n      dup1\n        /* \"--CODEGEN--\":20825:20837   */\n      revert\n        /* \"--CODEGEN--\":20779:20781   */\n    tag_507:\n        /* \"--CODEGEN--\":20773:20844   */\n      pop\n      jump\t// out\n        /* \"--CODEGEN--\":20851:20968   */\n    tag_305:\n        /* \"--CODEGEN--\":20920:20944   */\n      tag_509\n        /* \"--CODEGEN--\":20938:20943   */\n      dup2\n        /* \"--CODEGEN--\":20920:20944   */\n      tag_416\n      jump\t// in\n    tag_509:\n        /* \"--CODEGEN--\":20913:20918   */\n      dup2\n        /* \"--CODEGEN--\":20910:20945   */\n      eq\n        /* \"--CODEGEN--\":20900:20902   */\n      tag_510\n      jumpi\n        /* \"--CODEGEN--\":20959:20960   */\n      0x00\n        /* \"--CODEGEN--\":20956:20957   */\n      dup1\n        /* \"--CODEGEN--\":20949:20961   */\n      revert\n        /* \"--CODEGEN--\":20900:20902   */\n    tag_510:\n        /* \"--CODEGEN--\":20894:20968   */\n      pop\n      jump\t// out\n\n    auxdata: 0xa26469706673582212205e97890f3811bc350cb654c37a540e97faceae899e7a8dd9eb612d7ac26e9dc564736f6c634300060c0033\n}\n\nsub_1: assembly {\n        /* \"DISNEY/ERC20.sol\":1955:4579  contract ERC20Basic is IERC20{... */\n      mstore(0x40, 0x80)\n        /* \"DISNEY/ERC20.sol\":2455:2587  constructor (uint256 initialSupply) public{... */\n      callvalue\n      dup1\n      iszero\n      tag_1\n      jumpi\n      0x00\n      dup1\n      revert\n    tag_1:\n      pop\n      mload(0x40)\n      sub(codesize, bytecodeSize)\n      dup1\n      bytecodeSize\n      dup4\n      codecopy\n      dup2\n      dup2\n      add\n      0x40\n      mstore\n      dup2\n      add\n      swap1\n      tag_2\n      swap2\n      swap1\n      tag_3\n      jump\t// in\n    tag_2:\n        /* \"DISNEY/ERC20.sol\":2522:2535  initialSupply */\n      dup1\n        /* \"DISNEY/ERC20.sol\":2507:2519  totalSupply_ */\n      0x02\n        /* \"DISNEY/ERC20.sol\":2507:2535  totalSupply_ = initialSupply */\n      dup2\n      swap1\n      sstore\n      pop\n        /* \"DISNEY/ERC20.sol\":2568:2580  totalSupply_ */\n      sload(0x02)\n        /* \"DISNEY/ERC20.sol\":2545:2553  balances */\n      0x00\n        /* \"DISNEY/ERC20.sol\":2545:2565  balances[msg.sender] */\n      dup1\n        /* \"DISNEY/ERC20.sol\":2554:2564  msg.sender */\n      caller\n        /* \"DISNEY/ERC20.sol\":2545:2565  balances[msg.sender] */\n      0xffffffffffffffffffffffffffffffffffffffff\n      and\n      0xffffffffffffffffffffffffffffffffffffffff\n      and\n      dup2\n      mstore\n      0x20\n      add\n      swap1\n      dup2\n      mstore\n      0x20\n      add\n      0x00\n      keccak256\n        /* \"DISNEY/ERC20.sol\":2545:2580  balances[msg.sender] = totalSupply_ */\n      dup2\n      swap1\n      sstore\n      pop\n        /* \"DISNEY/ERC20.sol\":2455:2587  constructor (uint256 initialSupply) public{... */\n      pop\n        /* \"DISNEY/ERC20.sol\":1955:4579  contract ERC20Basic is IERC20{... */\n      jump(tag_6)\n        /* \"--CODEGEN--\":5:139   */\n    tag_8:\n      0x00\n        /* \"--CODEGEN--\":89:95   */\n      dup2\n        /* \"--CODEGEN--\":83:96   */\n      mload\n        /* \"--CODEGEN--\":74:96   */\n      swap1\n      pop\n        /* \"--CODEGEN--\":101:134   */\n      tag_10\n        /* \"--CODEGEN--\":128:133   */\n      dup2\n        /* \"--CODEGEN--\":101:134   */\n      tag_11\n      jump\t// in\n    tag_10:\n        /* \"--CODEGEN--\":68:139   */\n      swap3\n      swap2\n      pop\n      pop\n      jump\t// out\n        /* \"--CODEGEN--\":146:409   */\n    tag_3:\n      0x00\n        /* \"--CODEGEN--\":261:263   */\n      0x20\n        /* \"--CODEGEN--\":249:258   */\n      dup3\n        /* \"--CODEGEN--\":240:247   */\n      dup5\n        /* \"--CODEGEN--\":236:259   */\n      sub\n        /* \"--CODEGEN--\":232:264   */\n      slt\n        /* \"--CODEGEN--\":229:231   */\n      iszero\n      tag_13\n      jumpi\n        /* \"--CODEGEN--\":277:278   */\n      0x00\n        /* \"--CODEGEN--\":274:275   */\n      dup1\n        /* \"--CODEGEN--\":267:279   */\n      revert\n        /* \"--CODEGEN--\":229:231   */\n    tag_13:\n        /* \"--CODEGEN--\":312:313   */\n      0x00\n        /* \"--CODEGEN--\":329:393   */\n      tag_14\n        /* \"--CODEGEN--\":385:392   */\n      dup5\n        /* \"--CODEGEN--\":376:382   */\n      dup3\n        /* \"--CODEGEN--\":365:374   */\n      dup6\n        /* \"--CODEGEN--\":361:383   */\n      add\n        /* \"--CODEGEN--\":329:393   */\n      tag_8\n      jump\t// in\n    tag_14:\n        /* \"--CODEGEN--\":319:393   */\n      swap2\n      pop\n        /* \"--CODEGEN--\":291:399   */\n      pop\n        /* \"--CODEGEN--\":223:409   */\n      swap3\n      swap2\n      pop\n      pop\n      jump\t// out\n        /* \"--CODEGEN--\":416:488   */\n    tag_15:\n      0x00\n        /* \"--CODEGEN--\":478:483   */\n      dup2\n        /* \"--CODEGEN--\":467:483   */\n      swap1\n      pop\n        /* \"--CODEGEN--\":461:488   */\n      swap2\n      swap1\n      pop\n      jump\t// out\n        /* \"--CODEGEN--\":495:612   */\n    tag_11:\n        /* \"--CODEGEN--\":564:588   */\n      tag_18\n        /* \"--CODEGEN--\":582:587   */\n      dup2\n        /* \"--CODEGEN--\":564:588   */\n      tag_15\n      jump\t// in\n    tag_18:\n        /* \"--CODEGEN--\":557:562   */\n      dup2\n        /* \"--CODEGEN--\":554:589   */\n      eq\n        /* \"--CODEGEN--\":544:546   */\n      tag_19\n      jumpi\n        /* \"--CODEGEN--\":603:604   */\n      0x00\n        /* \"--CODEGEN--\":600:601   */\n      dup1\n        /* \"--CODEGEN--\":593:605   */\n      revert\n        /* \"--CODEGEN--\":544:546   */\n    tag_19:\n        /* \"--CODEGEN--\":538:612   */\n      pop\n      jump\t// out\n        /* \"DISNEY/ERC20.sol\":1955:4579  contract ERC20Basic is IERC20{... */\n    tag_6:\n      dataSize(sub_0)\n      dup1\n      dataOffset(sub_0)\n      0x00\n      codecopy\n      0x00\n      return\n    stop\n\n    sub_0: assembly {\n            /* \"DISNEY/ERC20.sol\":1955:4579  contract ERC20Basic is IERC20{... */\n          mstore(0x40, 0x80)\n          callvalue\n          dup1\n          iszero\n          tag_1\n          jumpi\n          0x00\n          dup1\n          revert\n        tag_1:\n          pop\n          jumpi(tag_2, lt(calldatasize, 0x04))\n          shr(0xe0, calldataload(0x00))\n          dup1\n          0x313ce567\n          gt\n          tag_14\n          jumpi\n          dup1\n          0x313ce567\n          eq\n          tag_8\n          jumpi\n          dup1\n          0x70a08231\n          eq\n          tag_9\n          jumpi\n          dup1\n          0x95d89b41\n          eq\n          tag_10\n          jumpi\n          dup1\n          0xa9059cbb\n          eq\n          tag_11\n          jumpi\n          dup1\n          0xdd62ed3e\n          eq\n          tag_12\n          jumpi\n          dup1\n          0xf490a351\n          eq\n          tag_13\n          jumpi\n          jump(tag_2)\n        tag_14:\n          dup1\n          0x06fdde03\n          eq\n          tag_3\n          jumpi\n          dup1\n          0x095ea7b3\n          eq\n          tag_4\n          jumpi\n          dup1\n          0x18160ddd\n          eq\n          tag_5\n          jumpi\n          dup1\n          0x1d43cc98\n          eq\n          tag_6\n          jumpi\n          dup1\n          0x23b872dd\n          eq\n          tag_7\n          jumpi\n        tag_2:\n          0x00\n          dup1\n          revert\n            /* \"DISNEY/ERC20.sol\":1991:2040  string public constant name = \"ERC20BlockchainAZ\" */\n        tag_3:\n          tag_15\n          tag_16\n          jump\t// in\n        tag_15:\n          mload(0x40)\n          tag_17\n          swap2\n          swap1\n          tag_18\n          jump\t// in\n        tag_17:\n          mload(0x40)\n          dup1\n          swap2\n          sub\n          swap1\n          return\n            /* \"DISNEY/ERC20.sol\":3873:4092  function approve(address delegate, uint256 numTokens) public override returns (bool){... */\n        tag_4:\n          tag_19\n          0x04\n          dup1\n          calldatasize\n          sub\n          dup2\n          add\n          swap1\n          tag_20\n          swap2\n          swap1\n          tag_21\n          jump\t// in\n        tag_20:\n          tag_22\n          jump\t// in\n        tag_19:\n          mload(0x40)\n          tag_23\n          swap2\n          swap1\n          tag_24\n          jump\t// in\n        tag_23:\n          mload(0x40)\n          dup1\n          swap2\n          sub\n          swap1\n          return\n            /* \"DISNEY/ERC20.sol\":2594:2691  function totalSupply() public override view returns (uint256){... */\n        tag_5:\n          tag_25\n          tag_26\n          jump\t// in\n        tag_25:\n          mload(0x40)\n          tag_27\n          swap2\n          swap1\n          tag_28\n          jump\t// in\n        tag_27:\n          mload(0x40)\n          dup1\n          swap2\n          sub\n          swap1\n          return\n            /* \"DISNEY/ERC20.sol\":2697:2852  function increaseTotalSupply(uint newTokensAmount) public {... */\n        tag_6:\n          tag_29\n          0x04\n          dup1\n          calldatasize\n          sub\n          dup2\n          add\n          swap1\n          tag_30\n          swap2\n          swap1\n          tag_31\n          jump\t// in\n        tag_30:\n          tag_32\n          jump\t// in\n        tag_29:\n          stop\n            /* \"DISNEY/ERC20.sol\":4098:4577  function transferFrom(address owner, address buyer, uint256 numTokens) public override returns (bool){... */\n        tag_7:\n          tag_33\n          0x04\n          dup1\n          calldatasize\n          sub\n          dup2\n          add\n          swap1\n          tag_34\n          swap2\n          swap1\n          tag_35\n          jump\t// in\n        tag_34:\n          tag_36\n          jump\t// in\n        tag_33:\n          mload(0x40)\n          tag_37\n          swap2\n          swap1\n          tag_24\n          jump\t// in\n        tag_37:\n          mload(0x40)\n          dup1\n          swap2\n          sub\n          swap1\n          return\n            /* \"DISNEY/ERC20.sol\":2089:2124  uint8 public constant decimals = 18 */\n        tag_8:\n          tag_38\n          tag_39\n          jump\t// in\n        tag_38:\n          mload(0x40)\n          tag_40\n          swap2\n          swap1\n          tag_41\n          jump\t// in\n        tag_40:\n          mload(0x40)\n          dup1\n          swap2\n          sub\n          swap1\n          return\n            /* \"DISNEY/ERC20.sol\":2858:2979  function balanceOf(address tokenOwner) public override view returns (uint256){... */\n        tag_9:\n          tag_42\n          0x04\n          dup1\n          calldatasize\n          sub\n          dup2\n          add\n          swap1\n          tag_43\n          swap2\n          swap1\n          tag_44\n          jump\t// in\n        tag_43:\n          tag_45\n          jump\t// in\n        tag_42:\n          mload(0x40)\n          tag_46\n          swap2\n          swap1\n          tag_28\n          jump\t// in\n        tag_46:\n          mload(0x40)\n          dup1\n          swap2\n          sub\n          swap1\n          return\n            /* \"DISNEY/ERC20.sol\":2046:2083  string public constant symbol = \"ERC\" */\n        tag_10:\n          tag_47\n          tag_48\n          jump\t// in\n        tag_47:\n          mload(0x40)\n          tag_49\n          swap2\n          swap1\n          tag_18\n          jump\t// in\n        tag_49:\n          mload(0x40)\n          dup1\n          swap2\n          sub\n          swap1\n          return\n            /* \"DISNEY/ERC20.sol\":3129:3486  function transfer(address recipient, uint256 numTokens) public override returns (bool){... */\n        tag_11:\n          tag_50\n          0x04\n          dup1\n          calldatasize\n          sub\n          dup2\n          add\n          swap1\n          tag_51\n          swap2\n          swap1\n          tag_21\n          jump\t// in\n        tag_51:\n          tag_52\n          jump\t// in\n        tag_50:\n          mload(0x40)\n          tag_53\n          swap2\n          swap1\n          tag_24\n          jump\t// in\n        tag_53:\n          mload(0x40)\n          dup1\n          swap2\n          sub\n          swap1\n          return\n            /* \"DISNEY/ERC20.sol\":2985:3123  function allowance(address owner, address delegate) public override view returns (uint256){... */\n        tag_12:\n          tag_54\n          0x04\n          dup1\n          calldatasize\n          sub\n          dup2\n          add\n          swap1\n          tag_55\n          swap2\n          swap1\n          tag_56\n          jump\t// in\n        tag_55:\n          tag_57\n          jump\t// in\n        tag_54:\n          mload(0x40)\n          tag_58\n          swap2\n          swap1\n          tag_28\n          jump\t// in\n        tag_58:\n          mload(0x40)\n          dup1\n          swap2\n          sub\n          swap1\n          return\n            /* \"DISNEY/ERC20.sol\":3492:3867  function transferencia_disney(address _cliente, address receiver, uint256 numTokens) public override returns (bool){... */\n        tag_13:\n          tag_59\n          0x04\n          dup1\n          calldatasize\n          sub\n          dup2\n          add\n          swap1\n          tag_60\n          swap2\n          swap1\n          tag_35\n          jump\t// in\n        tag_60:\n          tag_61\n          jump\t// in\n        tag_59:\n          mload(0x40)\n          tag_62\n          swap2\n          swap1\n          tag_24\n          jump\t// in\n        tag_62:\n          mload(0x40)\n          dup1\n          swap2\n          sub\n          swap1\n          return\n            /* \"DISNEY/ERC20.sol\":1991:2040  string public constant name = \"ERC20BlockchainAZ\" */\n        tag_16:\n          mload(0x40)\n          dup1\n          0x40\n          add\n          0x40\n          mstore\n          dup1\n          0x11\n          dup2\n          mstore\n          0x20\n          add\n          0x4552433230426c6f636b636861696e415a000000000000000000000000000000\n          dup2\n          mstore\n          pop\n          dup2\n          jump\t// out\n            /* \"DISNEY/ERC20.sol\":3873:4092  function approve(address delegate, uint256 numTokens) public override returns (bool){... */\n        tag_22:\n            /* \"DISNEY/ERC20.sol\":3952:3956  bool */\n          0x00\n            /* \"DISNEY/ERC20.sol\":3999:4008  numTokens */\n          dup2\n            /* \"DISNEY/ERC20.sol\":3967:3974  allowed */\n          0x01\n            /* \"DISNEY/ERC20.sol\":3967:3986  allowed[msg.sender] */\n          0x00\n            /* \"DISNEY/ERC20.sol\":3975:3985  msg.sender */\n          caller\n            /* \"DISNEY/ERC20.sol\":3967:3986  allowed[msg.sender] */\n          0xffffffffffffffffffffffffffffffffffffffff\n          and\n          0xffffffffffffffffffffffffffffffffffffffff\n          and\n          dup2\n          mstore\n          0x20\n          add\n          swap1\n          dup2\n          mstore\n          0x20\n          add\n          0x00\n          keccak256\n            /* \"DISNEY/ERC20.sol\":3967:3996  allowed[msg.sender][delegate] */\n          0x00\n            /* \"DISNEY/ERC20.sol\":3987:3995  delegate */\n          dup6\n            /* \"DISNEY/ERC20.sol\":3967:3996  allowed[msg.sender][delegate] */\n          0xffffffffffffffffffffffffffffffffffffffff\n          and\n          0xffffffffffffffffffffffffffffffffffffffff\n          and\n          dup2\n          mstore\n          0x20\n          add\n          swap1\n          dup2\n          mstore\n          0x20\n          add\n          0x00\n          keccak256\n            /* \"DISNEY/ERC20.sol\":3967:4008  allowed[msg.sender][delegate] = numTokens */\n          dup2\n          swap1\n          sstore\n          pop\n            /* \"DISNEY/ERC20.sol\":4044:4052  delegate */\n          dup3\n            /* \"DISNEY/ERC20.sol\":4023:4064  Approval(msg.sender, delegate, numTokens) */\n          0xffffffffffffffffffffffffffffffffffffffff\n          and\n            /* \"DISNEY/ERC20.sol\":4032:4042  msg.sender */\n          caller\n            /* \"DISNEY/ERC20.sol\":4023:4064  Approval(msg.sender, delegate, numTokens) */\n          0xffffffffffffffffffffffffffffffffffffffff\n          and\n          0x8c5be1e5ebec7d5bd14f71427d1e84f3dd0314c0f7b2291e5b200ac8c7c3b925\n            /* \"DISNEY/ERC20.sol\":4054:4063  numTokens */\n          dup5\n            /* \"DISNEY/ERC20.sol\":4023:4064  Approval(msg.sender, delegate, numTokens) */\n          mload(0x40)\n          tag_64\n          swap2\n          swap1\n          tag_28\n          jump\t// in\n        tag_64:\n          mload(0x40)\n          dup1\n          swap2\n          sub\n          swap1\n          log3\n            /* \"DISNEY/ERC20.sol\":4081:4085  true */\n          0x01\n            /* \"DISNEY/ERC20.sol\":4074:4085  return true */\n          swap1\n          pop\n            /* \"DISNEY/ERC20.sol\":3873:4092  function approve(address delegate, uint256 numTokens) public override returns (bool){... */\n          swap3\n          swap2\n          pop\n          pop\n          jump\t// out\n            /* \"DISNEY/ERC20.sol\":2594:2691  function totalSupply() public override view returns (uint256){... */\n        tag_26:\n            /* \"DISNEY/ERC20.sol\":2647:2654  uint256 */\n          0x00\n            /* \"DISNEY/ERC20.sol\":2672:2684  totalSupply_ */\n          sload(0x02)\n            /* \"DISNEY/ERC20.sol\":2665:2684  return totalSupply_ */\n          swap1\n          pop\n            /* \"DISNEY/ERC20.sol\":2594:2691  function totalSupply() public override view returns (uint256){... */\n          swap1\n          jump\t// out\n            /* \"DISNEY/ERC20.sol\":2697:2852  function increaseTotalSupply(uint newTokensAmount) public {... */\n        tag_32:\n            /* \"DISNEY/ERC20.sol\":2781:2796  newTokensAmount */\n          dup1\n            /* \"DISNEY/ERC20.sol\":2765:2777  totalSupply_ */\n          0x02\n          0x00\n            /* \"DISNEY/ERC20.sol\":2765:2796  totalSupply_ += newTokensAmount */\n          dup3\n          dup3\n          sload\n          add\n          swap3\n          pop\n          pop\n          dup2\n          swap1\n          sstore\n          pop\n            /* \"DISNEY/ERC20.sol\":2830:2845  newTokensAmount */\n          dup1\n            /* \"DISNEY/ERC20.sol\":2806:2814  balances */\n          0x00\n            /* \"DISNEY/ERC20.sol\":2806:2826  balances[msg.sender] */\n          dup1\n            /* \"DISNEY/ERC20.sol\":2815:2825  msg.sender */\n          caller\n            /* \"DISNEY/ERC20.sol\":2806:2826  balances[msg.sender] */\n          0xffffffffffffffffffffffffffffffffffffffff\n          and\n          0xffffffffffffffffffffffffffffffffffffffff\n          and\n          dup2\n          mstore\n          0x20\n          add\n          swap1\n          dup2\n          mstore\n          0x20\n          add\n          0x00\n          keccak256\n          0x00\n            /* \"DISNEY/ERC20.sol\":2806:2845  balances[msg.sender] += newTokensAmount */\n          dup3\n          dup3\n          sload\n          add\n          swap3\n          pop\n          pop\n          dup2\n          swap1\n          sstore\n          pop\n            /* \"DISNEY/ERC20.sol\":2697:2852  function increaseTotalSupply(uint newTokensAmount) public {... */\n          pop\n          jump\t// out\n            /* \"DISNEY/ERC20.sol\":4098:4577  function transferFrom(address owner, address buyer, uint256 numTokens) public override returns (bool){... */\n        tag_36:\n            /* \"DISNEY/ERC20.sol\":4194:4198  bool */\n          0x00\n            /* \"DISNEY/ERC20.sol\":4230:4238  balances */\n          dup1\n            /* \"DISNEY/ERC20.sol\":4230:4245  balances[owner] */\n          0x00\n            /* \"DISNEY/ERC20.sol\":4239:4244  owner */\n          dup6\n            /* \"DISNEY/ERC20.sol\":4230:4245  balances[owner] */\n          0xffffffffffffffffffffffffffffffffffffffff\n          and\n          0xffffffffffffffffffffffffffffffffffffffff\n          and\n          dup2\n          mstore\n          0x20\n          add\n          swap1\n          dup2\n          mstore\n          0x20\n          add\n          0x00\n          keccak256\n          sload\n            /* \"DISNEY/ERC20.sol\":4217:4226  numTokens */\n          dup3\n            /* \"DISNEY/ERC20.sol\":4217:4245  numTokens <= balances[owner] */\n          gt\n          iszero\n            /* \"DISNEY/ERC20.sol\":4209:4246  require(numTokens <= balances[owner]) */\n          tag_68\n          jumpi\n          0x00\n          dup1\n          revert\n        tag_68:\n            /* \"DISNEY/ERC20.sol\":4277:4284  allowed */\n          0x01\n            /* \"DISNEY/ERC20.sol\":4277:4291  allowed[owner] */\n          0x00\n            /* \"DISNEY/ERC20.sol\":4285:4290  owner */\n          dup6\n            /* \"DISNEY/ERC20.sol\":4277:4291  allowed[owner] */\n          0xffffffffffffffffffffffffffffffffffffffff\n          and\n          0xffffffffffffffffffffffffffffffffffffffff\n          and\n          dup2\n          mstore\n          0x20\n          add\n          swap1\n          dup2\n          mstore\n          0x20\n          add\n          0x00\n          keccak256\n            /* \"DISNEY/ERC20.sol\":4277:4303  allowed[owner][msg.sender] */\n          0x00\n            /* \"DISNEY/ERC20.sol\":4292:4302  msg.sender */\n          caller\n            /* \"DISNEY/ERC20.sol\":4277:4303  allowed[owner][msg.sender] */\n          0xffffffffffffffffffffffffffffffffffffffff\n          and\n          0xffffffffffffffffffffffffffffffffffffffff\n          and\n          dup2\n          mstore\n          0x20\n          add\n          swap1\n          dup2\n          mstore\n          0x20\n          add\n          0x00\n          keccak256\n          sload\n            /* \"DISNEY/ERC20.sol\":4264:4273  numTokens */\n          dup3\n            /* \"DISNEY/ERC20.sol\":4264:4303  numTokens <= allowed[owner][msg.sender] */\n          gt\n          iszero\n            /* \"DISNEY/ERC20.sol\":4256:4304  require(numTokens <= allowed[owner][msg.sender]) */\n          tag_69\n          jumpi\n          0x00\n          dup1\n          revert\n        tag_69:\n            /* \"DISNEY/ERC20.sol\":4333:4363  balances[owner].sub(numTokens) */\n          tag_70\n            /* \"DISNEY/ERC20.sol\":4353:4362  numTokens */\n          dup3\n            /* \"DISNEY/ERC20.sol\":4333:4341  balances */\n          0x00\n            /* \"DISNEY/ERC20.sol\":4333:4348  balances[owner] */\n          dup1\n            /* \"DISNEY/ERC20.sol\":4342:4347  owner */\n          dup8\n            /* \"DISNEY/ERC20.sol\":4333:4348  balances[owner] */\n          0xffffffffffffffffffffffffffffffffffffffff\n          and\n          0xffffffffffffffffffffffffffffffffffffffff\n          and\n          dup2\n          mstore\n          0x20\n          add\n          swap1\n          dup2\n          mstore\n          0x20\n          add\n          0x00\n          keccak256\n          sload\n            /* \"DISNEY/ERC20.sol\":4333:4352  balances[owner].sub */\n          tag_71\n          swap1\n            /* \"DISNEY/ERC20.sol\":4333:4363  balances[owner].sub(numTokens) */\n          swap2\n          swap1\n          0xffffffff\n          and\n          jump\t// in\n        tag_70:\n            /* \"DISNEY/ERC20.sol\":4315:4323  balances */\n          0x00\n            /* \"DISNEY/ERC20.sol\":4315:4330  balances[owner] */\n          dup1\n            /* \"DISNEY/ERC20.sol\":4324:4329  owner */\n          dup7\n            /* \"DISNEY/ERC20.sol\":4315:4330  balances[owner] */\n          0xffffffffffffffffffffffffffffffffffffffff\n          and\n          0xffffffffffffffffffffffffffffffffffffffff\n          and\n          dup2\n          mstore\n          0x20\n          add\n          swap1\n          dup2\n          mstore\n          0x20\n          add\n          0x00\n          keccak256\n            /* \"DISNEY/ERC20.sol\":4315:4363  balances[owner] = balances[owner].sub(numTokens) */\n          dup2\n          swap1\n          sstore\n          pop\n            /* \"DISNEY/ERC20.sol\":4402:4443  allowed[owner][msg.sender].sub(numTokens) */\n          tag_72\n            /* \"DISNEY/ERC20.sol\":4433:4442  numTokens */\n          dup3\n            /* \"DISNEY/ERC20.sol\":4402:4409  allowed */\n          0x01\n            /* \"DISNEY/ERC20.sol\":4402:4416  allowed[owner] */\n          0x00\n            /* \"DISNEY/ERC20.sol\":4410:4415  owner */\n          dup8\n            /* \"DISNEY/ERC20.sol\":4402:4416  allowed[owner] */\n          0xffffffffffffffffffffffffffffffffffffffff\n          and\n          0xffffffffffffffffffffffffffffffffffffffff\n          and\n          dup2\n          mstore\n          0x20\n          add\n          swap1\n          dup2\n          mstore\n          0x20\n          add\n          0x00\n          keccak256\n            /* \"DISNEY/ERC20.sol\":4402:4428  allowed[owner][msg.sender] */\n          0x00\n            /* \"DISNEY/ERC20.sol\":4417:4427  msg.sender */\n          caller\n            /* \"DISNEY/ERC20.sol\":4402:4428  allowed[owner][msg.sender] */\n          0xffffffffffffffffffffffffffffffffffffffff\n          and\n          0xffffffffffffffffffffffffffffffffffffffff\n          and\n          dup2\n          mstore\n          0x20\n          add\n          swap1\n          dup2\n          mstore\n          0x20\n          add\n          0x00\n          keccak256\n          sload\n            /* \"DISNEY/ERC20.sol\":4402:4432  allowed[owner][msg.sender].sub */\n          tag_71\n          swap1\n            /* \"DISNEY/ERC20.sol\":4402:4443  allowed[owner][msg.sender].sub(numTokens) */\n          swap2\n          swap1\n          0xffffffff\n          and\n          jump\t// in\n        tag_72:\n            /* \"DISNEY/ERC20.sol\":4373:4380  allowed */\n          0x01\n            /* \"DISNEY/ERC20.sol\":4373:4387  allowed[owner] */\n          0x00\n            /* \"DISNEY/ERC20.sol\":4381:4386  owner */\n          dup7\n            /* \"DISNEY/ERC20.sol\":4373:4387  allowed[owner] */\n          0xffffffffffffffffffffffffffffffffffffffff\n          and\n          0xffffffffffffffffffffffffffffffffffffffff\n          and\n          dup2\n          mstore\n          0x20\n          add\n          swap1\n          dup2\n          mstore\n          0x20\n          add\n          0x00\n          keccak256\n            /* \"DISNEY/ERC20.sol\":4373:4399  allowed[owner][msg.sender] */\n          0x00\n            /* \"DISNEY/ERC20.sol\":4388:4398  msg.sender */\n          caller\n            /* \"DISNEY/ERC20.sol\":4373:4399  allowed[owner][msg.sender] */\n          0xffffffffffffffffffffffffffffffffffffffff\n          and\n          0xffffffffffffffffffffffffffffffffffffffff\n          and\n          dup2\n          mstore\n          0x20\n          add\n          swap1\n          dup2\n          mstore\n          0x20\n          add\n          0x00\n          keccak256\n            /* \"DISNEY/ERC20.sol\":4373:4443  allowed[owner][msg.sender] = allowed[owner][msg.sender].sub(numTokens) */\n          dup2\n          swap1\n          sstore\n          pop\n            /* \"DISNEY/ERC20.sol\":4471:4501  balances[buyer].add(numTokens) */\n          tag_73\n            /* \"DISNEY/ERC20.sol\":4491:4500  numTokens */\n          dup3\n            /* \"DISNEY/ERC20.sol\":4471:4479  balances */\n          0x00\n            /* \"DISNEY/ERC20.sol\":4471:4486  balances[buyer] */\n          dup1\n            /* \"DISNEY/ERC20.sol\":4480:4485  buyer */\n          dup7\n            /* \"DISNEY/ERC20.sol\":4471:4486  balances[buyer] */\n          0xffffffffffffffffffffffffffffffffffffffff\n          and\n          0xffffffffffffffffffffffffffffffffffffffff\n          and\n          dup2\n          mstore\n          0x20\n          add\n          swap1\n          dup2\n          mstore\n          0x20\n          add\n          0x00\n          keccak256\n          sload\n            /* \"DISNEY/ERC20.sol\":4471:4490  balances[buyer].add */\n          tag_74\n          swap1\n            /* \"DISNEY/ERC20.sol\":4471:4501  balances[buyer].add(numTokens) */\n          swap2\n          swap1\n          0xffffffff\n          and\n          jump\t// in\n        tag_73:\n            /* \"DISNEY/ERC20.sol\":4453:4461  balances */\n          0x00\n            /* \"DISNEY/ERC20.sol\":4453:4468  balances[buyer] */\n          dup1\n            /* \"DISNEY/ERC20.sol\":4462:4467  buyer */\n          dup6\n            /* \"DISNEY/ERC20.sol\":4453:4468  balances[buyer] */\n          0xffffffffffffffffffffffffffffffffffffffff\n          and\n          0xffffffffffffffffffffffffffffffffffffffff\n          and\n          dup2\n          mstore\n          0x20\n          add\n          swap1\n          dup2\n          mstore\n          0x20\n          add\n          0x00\n          keccak256\n            /* \"DISNEY/ERC20.sol\":4453:4501  balances[buyer] = balances[buyer].add(numTokens) */\n          dup2\n          swap1\n          sstore\n          pop\n            /* \"DISNEY/ERC20.sol\":4532:4537  buyer */\n          dup3\n            /* \"DISNEY/ERC20.sol\":4516:4549  Transfer(owner, buyer, numTokens) */\n          0xffffffffffffffffffffffffffffffffffffffff\n          and\n            /* \"DISNEY/ERC20.sol\":4525:4530  owner */\n          dup5\n            /* \"DISNEY/ERC20.sol\":4516:4549  Transfer(owner, buyer, numTokens) */\n          0xffffffffffffffffffffffffffffffffffffffff\n          and\n          0xddf252ad1be2c89b69c2b068fc378daa952ba7f163c4a11628f55a4df523b3ef\n            /* \"DISNEY/ERC20.sol\":4539:4548  numTokens */\n          dup5\n            /* \"DISNEY/ERC20.sol\":4516:4549  Transfer(owner, buyer, numTokens) */\n          mload(0x40)\n          tag_75\n          swap2\n          swap1\n          tag_28\n          jump\t// in\n        tag_75:\n          mload(0x40)\n          dup1\n          swap2\n          sub\n          swap1\n          log3\n            /* \"DISNEY/ERC20.sol\":4566:4570  true */\n          0x01\n            /* \"DISNEY/ERC20.sol\":4559:4570  return true */\n          swap1\n          pop\n            /* \"DISNEY/ERC20.sol\":4098:4577  function transferFrom(address owner, address buyer, uint256 numTokens) public override returns (bool){... */\n          swap4\n          swap3\n          pop\n          pop\n          pop\n          jump\t// out\n            /* \"DISNEY/ERC20.sol\":2089:2124  uint8 public constant decimals = 18 */\n        tag_39:\n            /* \"DISNEY/ERC20.sol\":2122:2124  18 */\n          0x12\n            /* \"DISNEY/ERC20.sol\":2089:2124  uint8 public constant decimals = 18 */\n          dup2\n          jump\t// out\n            /* \"DISNEY/ERC20.sol\":2858:2979  function balanceOf(address tokenOwner) public override view returns (uint256){... */\n        tag_45:\n            /* \"DISNEY/ERC20.sol\":2927:2934  uint256 */\n          0x00\n            /* \"DISNEY/ERC20.sol\":2952:2960  balances */\n          dup1\n            /* \"DISNEY/ERC20.sol\":2952:2972  balances[tokenOwner] */\n          0x00\n            /* \"DISNEY/ERC20.sol\":2961:2971  tokenOwner */\n          dup4\n            /* \"DISNEY/ERC20.sol\":2952:2972  balances[tokenOwner] */\n          0xffffffffffffffffffffffffffffffffffffffff\n          and\n          0xffffffffffffffffffffffffffffffffffffffff\n          and\n          dup2\n          mstore\n          0x20\n          add\n          swap1\n          dup2\n          mstore\n          0x20\n          add\n          0x00\n          keccak256\n          sload\n            /* \"DISNEY/ERC20.sol\":2945:2972  return balances[tokenOwner] */\n          swap1\n          pop\n            /* \"DISNEY/ERC20.sol\":2858:2979  function balanceOf(address tokenOwner) public override view returns (uint256){... */\n          swap2\n          swap1\n          pop\n          jump\t// out\n            /* \"DISNEY/ERC20.sol\":2046:2083  string public constant symbol = \"ERC\" */\n        tag_48:\n          mload(0x40)\n          dup1\n          0x40\n          add\n          0x40\n          mstore\n          dup1\n          0x03\n          dup2\n          mstore\n          0x20\n          add\n          0x4552430000000000000000000000000000000000000000000000000000000000\n          dup2\n          mstore\n          pop\n          dup2\n          jump\t// out\n            /* \"DISNEY/ERC20.sol\":3129:3486  function transfer(address recipient, uint256 numTokens) public override returns (bool){... */\n        tag_52:\n            /* \"DISNEY/ERC20.sol\":3210:3214  bool */\n          0x00\n            /* \"DISNEY/ERC20.sol\":3246:3254  balances */\n          dup1\n            /* \"DISNEY/ERC20.sol\":3246:3266  balances[msg.sender] */\n          0x00\n            /* \"DISNEY/ERC20.sol\":3255:3265  msg.sender */\n          caller\n            /* \"DISNEY/ERC20.sol\":3246:3266  balances[msg.sender] */\n          0xffffffffffffffffffffffffffffffffffffffff\n          and\n          0xffffffffffffffffffffffffffffffffffffffff\n          and\n          dup2\n          mstore\n          0x20\n          add\n          swap1\n          dup2\n          mstore\n          0x20\n          add\n          0x00\n          keccak256\n          sload\n            /* \"DISNEY/ERC20.sol\":3233:3242  numTokens */\n          dup3\n            /* \"DISNEY/ERC20.sol\":3233:3266  numTokens <= balances[msg.sender] */\n          gt\n          iszero\n            /* \"DISNEY/ERC20.sol\":3225:3267  require(numTokens <= balances[msg.sender]) */\n          tag_78\n          jumpi\n          0x00\n          dup1\n          revert\n        tag_78:\n            /* \"DISNEY/ERC20.sol\":3300:3335  balances[msg.sender].sub(numTokens) */\n          tag_79\n            /* \"DISNEY/ERC20.sol\":3325:3334  numTokens */\n          dup3\n            /* \"DISNEY/ERC20.sol\":3300:3308  balances */\n          0x00\n            /* \"DISNEY/ERC20.sol\":3300:3320  balances[msg.sender] */\n          dup1\n            /* \"DISNEY/ERC20.sol\":3309:3319  msg.sender */\n          caller\n            /* \"DISNEY/ERC20.sol\":3300:3320  balances[msg.sender] */\n          0xffffffffffffffffffffffffffffffffffffffff\n          and\n          0xffffffffffffffffffffffffffffffffffffffff\n          and\n          dup2\n          mstore\n          0x20\n          add\n          swap1\n          dup2\n          mstore\n          0x20\n          add\n          0x00\n          keccak256\n          sload\n            /* \"DISNEY/ERC20.sol\":3300:3324  balances[msg.sender].sub */\n          tag_71\n          swap1\n            /* \"DISNEY/ERC20.sol\":3300:3335  balances[msg.sender].sub(numTokens) */\n          swap2\n          swap1\n          0xffffffff\n          and\n          jump\t// in\n        tag_79:\n            /* \"DISNEY/ERC20.sol\":3277:3285  balances */\n          0x00\n            /* \"DISNEY/ERC20.sol\":3277:3297  balances[msg.sender] */\n          dup1\n            /* \"DISNEY/ERC20.sol\":3286:3296  msg.sender */\n          caller\n            /* \"DISNEY/ERC20.sol\":3277:3297  balances[msg.sender] */\n          0xffffffffffffffffffffffffffffffffffffffff\n          and\n          0xffffffffffffffffffffffffffffffffffffffff\n          and\n          dup2\n          mstore\n          0x20\n          add\n          swap1\n          dup2\n          mstore\n          0x20\n          add\n          0x00\n          keccak256\n            /* \"DISNEY/ERC20.sol\":3277:3335  balances[msg.sender] = balances[msg.sender].sub(numTokens) */\n          dup2\n          swap1\n          sstore\n          pop\n            /* \"DISNEY/ERC20.sol\":3367:3401  balances[recipient].add(numTokens) */\n          tag_80\n            /* \"DISNEY/ERC20.sol\":3391:3400  numTokens */\n          dup3\n            /* \"DISNEY/ERC20.sol\":3367:3375  balances */\n          0x00\n            /* \"DISNEY/ERC20.sol\":3367:3386  balances[recipient] */\n          dup1\n            /* \"DISNEY/ERC20.sol\":3376:3385  recipient */\n          dup7\n            /* \"DISNEY/ERC20.sol\":3367:3386  balances[recipient] */\n          0xffffffffffffffffffffffffffffffffffffffff\n          and\n          0xffffffffffffffffffffffffffffffffffffffff\n          and\n          dup2\n          mstore\n          0x20\n          add\n          swap1\n          dup2\n          mstore\n          0x20\n          add\n          0x00\n          keccak256\n          sload\n            /* \"DISNEY/ERC20.sol\":3367:3390  balances[recipient].add */\n          tag_74\n          swap1\n            /* \"DISNEY/ERC20.sol\":3367:3401  balances[recipient].add(numTokens) */\n          swap2\n          swap1\n          0xffffffff\n          and\n          jump\t// in\n        tag_80:\n            /* \"DISNEY/ERC20.sol\":3345:3353  balances */\n          0x00\n            /* \"DISNEY/ERC20.sol\":3345:3364  balances[recipient] */\n          dup1\n            /* \"DISNEY/ERC20.sol\":3354:3363  recipient */\n          dup6\n            /* \"DISNEY/ERC20.sol\":3345:3364  balances[recipient] */\n          0xffffffffffffffffffffffffffffffffffffffff\n          and\n          0xffffffffffffffffffffffffffffffffffffffff\n          and\n          dup2\n          mstore\n          0x20\n          add\n          swap1\n          dup2\n          mstore\n          0x20\n          add\n          0x00\n          keccak256\n            /* \"DISNEY/ERC20.sol\":3345:3401  balances[recipient] = balances[recipient].add(numTokens) */\n          dup2\n          swap1\n          sstore\n          pop\n            /* \"DISNEY/ERC20.sol\":3437:3446  recipient */\n          dup3\n            /* \"DISNEY/ERC20.sol\":3416:3458  Transfer(msg.sender, recipient, numTokens) */\n          0xffffffffffffffffffffffffffffffffffffffff\n          and\n            /* \"DISNEY/ERC20.sol\":3425:3435  msg.sender */\n          caller\n            /* \"DISNEY/ERC20.sol\":3416:3458  Transfer(msg.sender, recipient, numTokens) */\n          0xffffffffffffffffffffffffffffffffffffffff\n          and\n          0xddf252ad1be2c89b69c2b068fc378daa952ba7f163c4a11628f55a4df523b3ef\n            /* \"DISNEY/ERC20.sol\":3448:3457  numTokens */\n          dup5\n            /* \"DISNEY/ERC20.sol\":3416:3458  Transfer(msg.sender, recipient, numTokens) */\n          mload(0x40)\n          tag_81\n          swap2\n          swap1\n          tag_28\n          jump\t// in\n        tag_81:\n          mload(0x40)\n          dup1\n          swap2\n          sub\n          swap1\n          log3\n            /* \"DISNEY/ERC20.sol\":3475:3479  true */\n          0x01\n            /* \"DISNEY/ERC20.sol\":3468:3479  return true */\n          swap1\n          pop\n            /* \"DISNEY/ERC20.sol\":3129:3486  function transfer(address recipient, uint256 numTokens) public override returns (bool){... */\n          swap3\n          swap2\n          pop\n          pop\n          jump\t// out\n            /* \"DISNEY/ERC20.sol\":2985:3123  function allowance(address owner, address delegate) public override view returns (uint256){... */\n        tag_57:\n            /* \"DISNEY/ERC20.sol\":3067:3074  uint256 */\n          0x00\n            /* \"DISNEY/ERC20.sol\":3092:3099  allowed */\n          0x01\n            /* \"DISNEY/ERC20.sol\":3092:3106  allowed[owner] */\n          0x00\n            /* \"DISNEY/ERC20.sol\":3100:3105  owner */\n          dup5\n            /* \"DISNEY/ERC20.sol\":3092:3106  allowed[owner] */\n          0xffffffffffffffffffffffffffffffffffffffff\n          and\n          0xffffffffffffffffffffffffffffffffffffffff\n          and\n          dup2\n          mstore\n          0x20\n          add\n          swap1\n          dup2\n          mstore\n          0x20\n          add\n          0x00\n          keccak256\n            /* \"DISNEY/ERC20.sol\":3092:3116  allowed[owner][delegate] */\n          0x00\n            /* \"DISNEY/ERC20.sol\":3107:3115  delegate */\n          dup4\n            /* \"DISNEY/ERC20.sol\":3092:3116  allowed[owner][delegate] */\n          0xffffffffffffffffffffffffffffffffffffffff\n          and\n          0xffffffffffffffffffffffffffffffffffffffff\n          and\n          dup2\n          mstore\n          0x20\n          add\n          swap1\n          dup2\n          mstore\n          0x20\n          add\n          0x00\n          keccak256\n          sload\n            /* \"DISNEY/ERC20.sol\":3085:3116  return allowed[owner][delegate] */\n          swap1\n          pop\n            /* \"DISNEY/ERC20.sol\":2985:3123  function allowance(address owner, address delegate) public override view returns (uint256){... */\n          swap3\n          swap2\n          pop\n          pop\n          jump\t// out\n            /* \"DISNEY/ERC20.sol\":3492:3867  function transferencia_disney(address _cliente, address receiver, uint256 numTokens) public override returns (bool){... */\n        tag_61:\n            /* \"DISNEY/ERC20.sol\":3602:3606  bool */\n          0x00\n            /* \"DISNEY/ERC20.sol\":3638:3646  balances */\n          dup1\n            /* \"DISNEY/ERC20.sol\":3638:3656  balances[_cliente] */\n          0x00\n            /* \"DISNEY/ERC20.sol\":3647:3655  _cliente */\n          dup6\n            /* \"DISNEY/ERC20.sol\":3638:3656  balances[_cliente] */\n          0xffffffffffffffffffffffffffffffffffffffff\n          and\n          0xffffffffffffffffffffffffffffffffffffffff\n          and\n          dup2\n          mstore\n          0x20\n          add\n          swap1\n          dup2\n          mstore\n          0x20\n          add\n          0x00\n          keccak256\n          sload\n            /* \"DISNEY/ERC20.sol\":3625:3634  numTokens */\n          dup3\n            /* \"DISNEY/ERC20.sol\":3625:3656  numTokens <= balances[_cliente] */\n          gt\n          iszero\n            /* \"DISNEY/ERC20.sol\":3617:3657  require(numTokens <= balances[_cliente]) */\n          tag_84\n          jumpi\n          0x00\n          dup1\n          revert\n        tag_84:\n            /* \"DISNEY/ERC20.sol\":3688:3721  balances[_cliente].sub(numTokens) */\n          tag_85\n            /* \"DISNEY/ERC20.sol\":3711:3720  numTokens */\n          dup3\n            /* \"DISNEY/ERC20.sol\":3688:3696  balances */\n          0x00\n            /* \"DISNEY/ERC20.sol\":3688:3706  balances[_cliente] */\n          dup1\n            /* \"DISNEY/ERC20.sol\":3697:3705  _cliente */\n          dup8\n            /* \"DISNEY/ERC20.sol\":3688:3706  balances[_cliente] */\n          0xffffffffffffffffffffffffffffffffffffffff\n          and\n          0xffffffffffffffffffffffffffffffffffffffff\n          and\n          dup2\n          mstore\n          0x20\n          add\n          swap1\n          dup2\n          mstore\n          0x20\n          add\n          0x00\n          keccak256\n          sload\n            /* \"DISNEY/ERC20.sol\":3688:3710  balances[_cliente].sub */\n          tag_71\n          swap1\n            /* \"DISNEY/ERC20.sol\":3688:3721  balances[_cliente].sub(numTokens) */\n          swap2\n          swap1\n          0xffffffff\n          and\n          jump\t// in\n        tag_85:\n            /* \"DISNEY/ERC20.sol\":3667:3675  balances */\n          0x00\n            /* \"DISNEY/ERC20.sol\":3667:3685  balances[_cliente] */\n          dup1\n            /* \"DISNEY/ERC20.sol\":3676:3684  _cliente */\n          dup7\n            /* \"DISNEY/ERC20.sol\":3667:3685  balances[_cliente] */\n          0xffffffffffffffffffffffffffffffffffffffff\n          and\n          0xffffffffffffffffffffffffffffffffffffffff\n          and\n          dup2\n          mstore\n          0x20\n          add\n          swap1\n          dup2\n          mstore\n          0x20\n          add\n          0x00\n          keccak256\n            /* \"DISNEY/ERC20.sol\":3667:3721  balances[_cliente] = balances[_cliente].sub(numTokens) */\n          dup2\n          swap1\n          sstore\n          pop\n            /* \"DISNEY/ERC20.sol\":3752:3785  balances[receiver].add(numTokens) */\n          tag_86\n            /* \"DISNEY/ERC20.sol\":3775:3784  numTokens */\n          dup3\n            /* \"DISNEY/ERC20.sol\":3752:3760  balances */\n          0x00\n            /* \"DISNEY/ERC20.sol\":3752:3770  balances[receiver] */\n          dup1\n            /* \"DISNEY/ERC20.sol\":3761:3769  receiver */\n          dup7\n            /* \"DISNEY/ERC20.sol\":3752:3770  balances[receiver] */\n          0xffffffffffffffffffffffffffffffffffffffff\n          and\n          0xffffffffffffffffffffffffffffffffffffffff\n          and\n          dup2\n          mstore\n          0x20\n          add\n          swap1\n          dup2\n          mstore\n          0x20\n          add\n          0x00\n          keccak256\n          sload\n            /* \"DISNEY/ERC20.sol\":3752:3774  balances[receiver].add */\n          tag_74\n          swap1\n            /* \"DISNEY/ERC20.sol\":3752:3785  balances[receiver].add(numTokens) */\n          swap2\n          swap1\n          0xffffffff\n          and\n          jump\t// in\n        tag_86:\n            /* \"DISNEY/ERC20.sol\":3731:3739  balances */\n          0x00\n            /* \"DISNEY/ERC20.sol\":3731:3749  balances[receiver] */\n          dup1\n            /* \"DISNEY/ERC20.sol\":3740:3748  receiver */\n          dup6\n            /* \"DISNEY/ERC20.sol\":3731:3749  balances[receiver] */\n          0xffffffffffffffffffffffffffffffffffffffff\n          and\n          0xffffffffffffffffffffffffffffffffffffffff\n          and\n          dup2\n          mstore\n          0x20\n          add\n          swap1\n          dup2\n          mstore\n          0x20\n          add\n          0x00\n          keccak256\n            /* \"DISNEY/ERC20.sol\":3731:3785  balances[receiver] = balances[receiver].add(numTokens) */\n          dup2\n          swap1\n          sstore\n          pop\n            /* \"DISNEY/ERC20.sol\":3819:3827  receiver */\n          dup3\n            /* \"DISNEY/ERC20.sol\":3800:3839  Transfer(_cliente, receiver, numTokens) */\n          0xffffffffffffffffffffffffffffffffffffffff\n          and\n            /* \"DISNEY/ERC20.sol\":3809:3817  _cliente */\n          dup5\n            /* \"DISNEY/ERC20.sol\":3800:3839  Transfer(_cliente, receiver, numTokens) */\n          0xffffffffffffffffffffffffffffffffffffffff\n          and\n          0xddf252ad1be2c89b69c2b068fc378daa952ba7f163c4a11628f55a4df523b3ef\n            /* \"DISNEY/ERC20.sol\":3829:3838  numTokens */\n          dup5\n            /* \"DISNEY/ERC20.sol\":3800:3839  Transfer(_cliente, receiver, numTokens) */\n          mload(0x40)\n          tag_87\n          swap2\n          swap1\n          tag_28\n          jump\t// in\n        tag_87:\n          mload(0x40)\n          dup1\n          swap2\n          sub\n          swap1\n          log3\n            /* \"DISNEY/ERC20.sol\":3856:3860  true */\n          0x01\n            /* \"DISNEY/ERC20.sol\":3849:3860  return true */\n          swap1\n          pop\n            /* \"DISNEY/ERC20.sol\":3492:3867  function transferencia_disney(address _cliente, address receiver, uint256 numTokens) public override returns (bool){... */\n          swap4\n          swap3\n          pop\n          pop\n          pop\n          jump\t// out\n            /* \"DISNEY/SafeMath.sol\":308:424  function sub(uint256 a, uint256 b) internal pure returns (uint256) {... */\n        tag_71:\n            /* \"DISNEY/SafeMath.sol\":366:373  uint256 */\n          0x00\n            /* \"DISNEY/SafeMath.sol\":395:396  a */\n          dup3\n            /* \"DISNEY/SafeMath.sol\":390:391  b */\n          dup3\n            /* \"DISNEY/SafeMath.sol\":390:396  b <= a */\n          gt\n          iszero\n            /* \"DISNEY/SafeMath.sol\":383:397  assert(b <= a) */\n          tag_89\n          jumpi\n          invalid\n        tag_89:\n            /* \"DISNEY/SafeMath.sol\":416:417  b */\n          dup2\n            /* \"DISNEY/SafeMath.sol\":412:413  a */\n          dup4\n            /* \"DISNEY/SafeMath.sol\":412:417  a - b */\n          sub\n            /* \"DISNEY/SafeMath.sol\":405:417  return a - b */\n          swap1\n          pop\n            /* \"DISNEY/SafeMath.sol\":308:424  function sub(uint256 a, uint256 b) internal pure returns (uint256) {... */\n          swap3\n          swap2\n          pop\n          pop\n          jump\t// out\n            /* \"DISNEY/SafeMath.sol\":447:584  function add(uint256 a, uint256 b) internal pure returns (uint256) {... */\n        tag_74:\n            /* \"DISNEY/SafeMath.sol\":505:512  uint256 */\n          0x00\n            /* \"DISNEY/SafeMath.sol\":522:531  uint256 c */\n          dup1\n            /* \"DISNEY/SafeMath.sol\":538:539  b */\n          dup3\n            /* \"DISNEY/SafeMath.sol\":534:535  a */\n          dup5\n            /* \"DISNEY/SafeMath.sol\":534:539  a + b */\n          add\n            /* \"DISNEY/SafeMath.sol\":522:539  uint256 c = a + b */\n          swap1\n          pop\n            /* \"DISNEY/SafeMath.sol\":559:560  a */\n          dup4\n            /* \"DISNEY/SafeMath.sol\":554:555  c */\n          dup2\n            /* \"DISNEY/SafeMath.sol\":554:560  c >= a */\n          lt\n          iszero\n            /* \"DISNEY/SafeMath.sol\":547:561  assert(c >= a) */\n          tag_91\n          jumpi\n          invalid\n        tag_91:\n            /* \"DISNEY/SafeMath.sol\":576:577  c */\n          dup1\n            /* \"DISNEY/SafeMath.sol\":569:577  return c */\n          swap2\n          pop\n          pop\n            /* \"DISNEY/SafeMath.sol\":447:584  function add(uint256 a, uint256 b) internal pure returns (uint256) {... */\n          swap3\n          swap2\n          pop\n          pop\n          jump\t// out\n            /* \"--CODEGEN--\":5:135   */\n        tag_93:\n          0x00\n            /* \"--CODEGEN--\":85:91   */\n          dup2\n            /* \"--CODEGEN--\":72:92   */\n          calldataload\n            /* \"--CODEGEN--\":63:92   */\n          swap1\n          pop\n            /* \"--CODEGEN--\":97:130   */\n          tag_95\n            /* \"--CODEGEN--\":124:129   */\n          dup2\n            /* \"--CODEGEN--\":97:130   */\n          tag_96\n          jump\t// in\n        tag_95:\n            /* \"--CODEGEN--\":57:135   */\n          swap3\n          swap2\n          pop\n          pop\n          jump\t// out\n            /* \"--CODEGEN--\":142:272   */\n        tag_97:\n          0x00\n            /* \"--CODEGEN--\":222:228   */\n          dup2\n            /* \"--CODEGEN--\":209:229   */\n          calldataload\n            /* \"--CODEGEN--\":200:229   */\n          swap1\n          pop\n            /* \"--CODEGEN--\":234:267   */\n          tag_99\n            /* \"--CODEGEN--\":261:266   */\n          dup2\n            /* \"--CODEGEN--\":234:267   */\n          tag_100\n          jump\t// in\n        tag_99:\n            /* \"--CODEGEN--\":194:272   */\n          swap3\n          swap2\n          pop\n          pop\n          jump\t// out\n            /* \"--CODEGEN--\":279:520   */\n        tag_44:\n          0x00\n            /* \"--CODEGEN--\":383:385   */\n          0x20\n            /* \"--CODEGEN--\":371:380   */\n          dup3\n            /* \"--CODEGEN--\":362:369   */\n          dup5\n            /* \"--CODEGEN--\":358:381   */\n          sub\n            /* \"--CODEGEN--\":354:386   */\n          slt\n            /* \"--CODEGEN--\":351:353   */\n          iszero\n          tag_102\n          jumpi\n            /* \"--CODEGEN--\":399:400   */\n          0x00\n            /* \"--CODEGEN--\":396:397   */\n          dup1\n            /* \"--CODEGEN--\":389:401   */\n          revert\n            /* \"--CODEGEN--\":351:353   */\n        tag_102:\n            /* \"--CODEGEN--\":434:435   */\n          0x00\n            /* \"--CODEGEN--\":451:504   */\n          tag_103\n            /* \"--CODEGEN--\":496:503   */\n          dup5\n            /* \"--CODEGEN--\":487:493   */\n          dup3\n            /* \"--CODEGEN--\":476:485   */\n          dup6\n            /* \"--CODEGEN--\":472:494   */\n          add\n            /* \"--CODEGEN--\":451:504   */\n          tag_93\n          jump\t// in\n        tag_103:\n            /* \"--CODEGEN--\":441:504   */\n          swap2\n          pop\n            /* \"--CODEGEN--\":413:510   */\n          pop\n            /* \"--CODEGEN--\":345:520   */\n          swap3\n          swap2\n          pop\n          pop\n          jump\t// out\n            /* \"--CODEGEN--\":527:893   */\n        tag_56:\n          0x00\n          dup1\n            /* \"--CODEGEN--\":648:650   */\n          0x40\n            /* \"--CODEGEN--\":636:645   */\n          dup4\n            /* \"--CODEGEN--\":627:634   */\n          dup6\n            /* \"--CODEGEN--\":623:646   */\n          sub\n            /* \"--CODEGEN--\":619:651   */\n          slt\n            /* \"--CODEGEN--\":616:618   */\n          iszero\n          tag_105\n          jumpi\n            /* \"--CODEGEN--\":664:665   */\n          0x00\n            /* \"--CODEGEN--\":661:662   */\n          dup1\n            /* \"--CODEGEN--\":654:666   */\n          revert\n            /* \"--CODEGEN--\":616:618   */\n        tag_105:\n            /* \"--CODEGEN--\":699:700   */\n          0x00\n            /* \"--CODEGEN--\":716:769   */\n          tag_106\n            /* \"--CODEGEN--\":761:768   */\n          dup6\n            /* \"--CODEGEN--\":752:758   */\n          dup3\n            /* \"--CODEGEN--\":741:750   */\n          dup7\n            /* \"--CODEGEN--\":737:759   */\n          add\n            /* \"--CODEGEN--\":716:769   */\n          tag_93\n          jump\t// in\n        tag_106:\n            /* \"--CODEGEN--\":706:769   */\n          swap3\n          pop\n            /* \"--CODEGEN--\":678:775   */\n          pop\n            /* \"--CODEGEN--\":806:808   */\n          0x20\n            /* \"--CODEGEN--\":824:877   */\n          tag_107\n            /* \"--CODEGEN--\":869:876   */\n          dup6\n            /* \"--CODEGEN--\":860:866   */\n          dup3\n            /* \"--CODEGEN--\":849:858   */\n          dup7\n            /* \"--CODEGEN--\":845:867   */\n          add\n            /* \"--CODEGEN--\":824:877   */\n          tag_93\n          jump\t// in\n        tag_107:\n            /* \"--CODEGEN--\":814:877   */\n          swap2\n          pop\n            /* \"--CODEGEN--\":785:883   */\n          pop\n            /* \"--CODEGEN--\":610:893   */\n          swap3\n          pop\n          swap3\n          swap1\n          pop\n          jump\t// out\n            /* \"--CODEGEN--\":900:1391   */\n        tag_35:\n          0x00\n          dup1\n          0x00\n            /* \"--CODEGEN--\":1038:1040   */\n          0x60\n            /* \"--CODEGEN--\":1026:1035   */\n          dup5\n            /* \"--CODEGEN--\":1017:1024   */\n          dup7\n            /* \"--CODEGEN--\":1013:1036   */\n          sub\n            /* \"--CODEGEN--\":1009:1041   */\n          slt\n            /* \"--CODEGEN--\":1006:1008   */\n          iszero\n          tag_109\n          jumpi\n            /* \"--CODEGEN--\":1054:1055   */\n          0x00\n            /* \"--CODEGEN--\":1051:1052   */\n          dup1\n            /* \"--CODEGEN--\":1044:1056   */\n          revert\n            /* \"--CODEGEN--\":1006:1008   */\n        tag_109:\n            /* \"--CODEGEN--\":1089:1090   */\n          0x00\n            /* \"--CODEGEN--\":1106:1159   */\n          tag_110\n            /* \"--CODEGEN--\":1151:1158   */\n          dup7\n            /* \"--CODEGEN--\":1142:1148   */\n          dup3\n            /* \"--CODEGEN--\":1131:1140   */\n          dup8\n            /* \"--CODEGEN--\":1127:1149   */\n          add\n            /* \"--CODEGEN--\":1106:1159   */\n          tag_93\n          jump\t// in\n        tag_110:\n            /* \"--CODEGEN--\":1096:1159   */\n          swap4\n          pop\n            /* \"--CODEGEN--\":1068:1165   */\n          pop\n            /* \"--CODEGEN--\":1196:1198   */\n          0x20\n            /* \"--CODEGEN--\":1214:1267   */\n          tag_111\n            /* \"--CODEGEN--\":1259:1266   */\n          dup7\n            /* \"--CODEGEN--\":1250:1256   */\n          dup3\n            /* \"--CODEGEN--\":1239:1248   */\n          dup8\n            /* \"--CODEGEN--\":1235:1257   */\n          add\n            /* \"--CODEGEN--\":1214:1267   */\n          tag_93\n          jump\t// in\n        tag_111:\n            /* \"--CODEGEN--\":1204:1267   */\n          swap3\n          pop\n            /* \"--CODEGEN--\":1175:1273   */\n          pop\n            /* \"--CODEGEN--\":1304:1306   */\n          0x40\n            /* \"--CODEGEN--\":1322:1375   */\n          tag_112\n            /* \"--CODEGEN--\":1367:1374   */\n          dup7\n            /* \"--CODEGEN--\":1358:1364   */\n          dup3\n            /* \"--CODEGEN--\":1347:1356   */\n          dup8\n            /* \"--CODEGEN--\":1343:1365   */\n          add\n            /* \"--CODEGEN--\":1322:1375   */\n          tag_97\n          jump\t// in\n        tag_112:\n            /* \"--CODEGEN--\":1312:1375   */\n          swap2\n          pop\n            /* \"--CODEGEN--\":1283:1381   */\n          pop\n            /* \"--CODEGEN--\":1000:1391   */\n          swap3\n          pop\n          swap3\n          pop\n          swap3\n          jump\t// out\n            /* \"--CODEGEN--\":1398:1764   */\n        tag_21:\n          0x00\n          dup1\n            /* \"--CODEGEN--\":1519:1521   */\n          0x40\n            /* \"--CODEGEN--\":1507:1516   */\n          dup4\n            /* \"--CODEGEN--\":1498:1505   */\n          dup6\n            /* \"--CODEGEN--\":1494:1517   */\n          sub\n            /* \"--CODEGEN--\":1490:1522   */\n          slt\n            /* \"--CODEGEN--\":1487:1489   */\n          iszero\n          tag_114\n          jumpi\n            /* \"--CODEGEN--\":1535:1536   */\n          0x00\n            /* \"--CODEGEN--\":1532:1533   */\n          dup1\n            /* \"--CODEGEN--\":1525:1537   */\n          revert\n            /* \"--CODEGEN--\":1487:1489   */\n        tag_114:\n            /* \"--CODEGEN--\":1570:1571   */\n          0x00\n            /* \"--CODEGEN--\":1587:1640   */\n          tag_115\n            /* \"--CODEGEN--\":1632:1639   */\n          dup6\n            /* \"--CODEGEN--\":1623:1629   */\n          dup3\n            /* \"--CODEGEN--\":1612:1621   */\n          dup7\n            /* \"--CODEGEN--\":1608:1630   */\n          add\n            /* \"--CODEGEN--\":1587:1640   */\n          tag_93\n          jump\t// in\n        tag_115:\n            /* \"--CODEGEN--\":1577:1640   */\n          swap3\n          pop\n            /* \"--CODEGEN--\":1549:1646   */\n          pop\n            /* \"--CODEGEN--\":1677:1679   */\n          0x20\n            /* \"--CODEGEN--\":1695:1748   */\n          tag_116\n            /* \"--CODEGEN--\":1740:1747   */\n          dup6\n            /* \"--CODEGEN--\":1731:1737   */\n          dup3\n            /* \"--CODEGEN--\":1720:1729   */\n          dup7\n            /* \"--CODEGEN--\":1716:1738   */\n          add\n            /* \"--CODEGEN--\":1695:1748   */\n          tag_97\n          jump\t// in\n        tag_116:\n            /* \"--CODEGEN--\":1685:1748   */\n          swap2\n          pop\n            /* \"--CODEGEN--\":1656:1754   */\n          pop\n            /* \"--CODEGEN--\":1481:1764   */\n          swap3\n          pop\n          swap3\n          swap1\n          pop\n          jump\t// out\n            /* \"--CODEGEN--\":1771:2012   */\n        tag_31:\n          0x00\n            /* \"--CODEGEN--\":1875:1877   */\n          0x20\n            /* \"--CODEGEN--\":1863:1872   */\n          dup3\n            /* \"--CODEGEN--\":1854:1861   */\n          dup5\n            /* \"--CODEGEN--\":1850:1873   */\n          sub\n            /* \"--CODEGEN--\":1846:1878   */\n          slt\n            /* \"--CODEGEN--\":1843:1845   */\n          iszero\n          tag_118\n          jumpi\n            /* \"--CODEGEN--\":1891:1892   */\n          0x00\n            /* \"--CODEGEN--\":1888:1889   */\n          dup1\n            /* \"--CODEGEN--\":1881:1893   */\n          revert\n            /* \"--CODEGEN--\":1843:1845   */\n        tag_118:\n            /* \"--CODEGEN--\":1926:1927   */\n          0x00\n            /* \"--CODEGEN--\":1943:1996   */\n          tag_119\n            /* \"--CODEGEN--\":1988:1995   */\n          dup5\n            /* \"--CODEGEN--\":1979:1985   */\n          dup3\n            /* \"--CODEGEN--\":1968:1977   */\n          dup6\n            /* \"--CODEGEN--\":1964:1986   */\n          add\n            /* \"--CODEGEN--\":1943:1996   */\n          tag_97\n          jump\t// in\n        tag_119:\n            /* \"--CODEGEN--\":1933:1996   */\n          swap2\n          pop\n            /* \"--CODEGEN--\":1905:2002   */\n          pop\n            /* \"--CODEGEN--\":1837:2012   */\n          swap3\n          swap2\n          pop\n          pop\n          jump\t// out\n            /* \"--CODEGEN--\":2019:2123   */\n        tag_120:\n            /* \"--CODEGEN--\":2096:2117   */\n          tag_122\n            /* \"--CODEGEN--\":2111:2116   */\n          dup2\n            /* \"--CODEGEN--\":2096:2117   */\n          tag_123\n          jump\t// in\n        tag_122:\n            /* \"--CODEGEN--\":2091:2094   */\n          dup3\n            /* \"--CODEGEN--\":2084:2118   */\n          mstore\n            /* \"--CODEGEN--\":2078:2123   */\n          pop\n          pop\n          jump\t// out\n            /* \"--CODEGEN--\":2130:2477   */\n        tag_124:\n          0x00\n            /* \"--CODEGEN--\":2242:2281   */\n          tag_126\n            /* \"--CODEGEN--\":2275:2280   */\n          dup3\n            /* \"--CODEGEN--\":2242:2281   */\n          tag_127\n          jump\t// in\n        tag_126:\n            /* \"--CODEGEN--\":2293:2364   */\n          tag_128\n            /* \"--CODEGEN--\":2357:2363   */\n          dup2\n            /* \"--CODEGEN--\":2352:2355   */\n          dup6\n            /* \"--CODEGEN--\":2293:2364   */\n          tag_129\n          jump\t// in\n        tag_128:\n            /* \"--CODEGEN--\":2286:2364   */\n          swap4\n          pop\n            /* \"--CODEGEN--\":2369:2421   */\n          tag_130\n            /* \"--CODEGEN--\":2414:2420   */\n          dup2\n            /* \"--CODEGEN--\":2409:2412   */\n          dup6\n            /* \"--CODEGEN--\":2402:2406   */\n          0x20\n            /* \"--CODEGEN--\":2395:2400   */\n          dup7\n            /* \"--CODEGEN--\":2391:2407   */\n          add\n            /* \"--CODEGEN--\":2369:2421   */\n          tag_131\n          jump\t// in\n        tag_130:\n            /* \"--CODEGEN--\":2442:2471   */\n          tag_132\n            /* \"--CODEGEN--\":2464:2470   */\n          dup2\n            /* \"--CODEGEN--\":2442:2471   */\n          tag_133\n          jump\t// in\n        tag_132:\n            /* \"--CODEGEN--\":2437:2440   */\n          dup5\n            /* \"--CODEGEN--\":2433:2472   */\n          add\n            /* \"--CODEGEN--\":2426:2472   */\n          swap2\n          pop\n            /* \"--CODEGEN--\":2222:2477   */\n          pop\n          swap3\n          swap2\n          pop\n          pop\n          jump\t// out\n            /* \"--CODEGEN--\":2484:2597   */\n        tag_134:\n            /* \"--CODEGEN--\":2567:2591   */\n          tag_136\n            /* \"--CODEGEN--\":2585:2590   */\n          dup2\n            /* \"--CODEGEN--\":2567:2591   */\n          tag_137\n          jump\t// in\n        tag_136:\n            /* \"--CODEGEN--\":2562:2565   */\n          dup3\n            /* \"--CODEGEN--\":2555:2592   */\n          mstore\n            /* \"--CODEGEN--\":2549:2597   */\n          pop\n          pop\n          jump\t// out\n            /* \"--CODEGEN--\":2604:2711   */\n        tag_138:\n            /* \"--CODEGEN--\":2683:2705   */\n          tag_140\n            /* \"--CODEGEN--\":2699:2704   */\n          dup2\n            /* \"--CODEGEN--\":2683:2705   */\n          tag_141\n          jump\t// in\n        tag_140:\n            /* \"--CODEGEN--\":2678:2681   */\n          dup3\n            /* \"--CODEGEN--\":2671:2706   */\n          mstore\n            /* \"--CODEGEN--\":2665:2711   */\n          pop\n          pop\n          jump\t// out\n            /* \"--CODEGEN--\":2718:2928   */\n        tag_24:\n          0x00\n            /* \"--CODEGEN--\":2839:2841   */\n          0x20\n            /* \"--CODEGEN--\":2828:2837   */\n          dup3\n            /* \"--CODEGEN--\":2824:2842   */\n          add\n            /* \"--CODEGEN--\":2816:2842   */\n          swap1\n          pop\n            /* \"--CODEGEN--\":2853:2918   */\n          tag_143\n            /* \"--CODEGEN--\":2915:2916   */\n          0x00\n            /* \"--CODEGEN--\":2904:2913   */\n          dup4\n            /* \"--CODEGEN--\":2900:2917   */\n          add\n            /* \"--CODEGEN--\":2891:2897   */\n          dup5\n            /* \"--CODEGEN--\":2853:2918   */\n          tag_120\n          jump\t// in\n        tag_143:\n            /* \"--CODEGEN--\":2810:2928   */\n          swap3\n          swap2\n          pop\n          pop\n          jump\t// out\n            /* \"--CODEGEN--\":2935:3245   */\n        tag_18:\n          0x00\n            /* \"--CODEGEN--\":3082:3084   */\n          0x20\n            /* \"--CODEGEN--\":3071:3080   */\n          dup3\n            /* \"--CODEGEN--\":3067:3085   */\n          add\n            /* \"--CODEGEN--\":3059:3085   */\n          swap1\n          pop\n            /* \"--CODEGEN--\":3132:3141   */\n          dup2\n            /* \"--CODEGEN--\":3126:3130   */\n          dup2\n            /* \"--CODEGEN--\":3122:3142   */\n          sub\n            /* \"--CODEGEN--\":3118:3119   */\n          0x00\n            /* \"--CODEGEN--\":3107:3116   */\n          dup4\n            /* \"--CODEGEN--\":3103:3120   */\n          add\n            /* \"--CODEGEN--\":3096:3143   */\n          mstore\n            /* \"--CODEGEN--\":3157:3235   */\n          tag_145\n            /* \"--CODEGEN--\":3230:3234   */\n          dup2\n            /* \"--CODEGEN--\":3221:3227   */\n          dup5\n            /* \"--CODEGEN--\":3157:3235   */\n          tag_124\n          jump\t// in\n        tag_145:\n            /* \"--CODEGEN--\":3149:3235   */\n          swap1\n          pop\n            /* \"--CODEGEN--\":3053:3245   */\n          swap3\n          swap2\n          pop\n          pop\n          jump\t// out\n            /* \"--CODEGEN--\":3252:3474   */\n        tag_28:\n          0x00\n            /* \"--CODEGEN--\":3379:3381   */\n          0x20\n            /* \"--CODEGEN--\":3368:3377   */\n          dup3\n            /* \"--CODEGEN--\":3364:3382   */\n          add\n            /* \"--CODEGEN--\":3356:3382   */\n          swap1\n          pop\n            /* \"--CODEGEN--\":3393:3464   */\n          tag_147\n            /* \"--CODEGEN--\":3461:3462   */\n          0x00\n            /* \"--CODEGEN--\":3450:3459   */\n          dup4\n            /* \"--CODEGEN--\":3446:3463   */\n          add\n            /* \"--CODEGEN--\":3437:3443   */\n          dup5\n            /* \"--CODEGEN--\":3393:3464   */\n          tag_134\n          jump\t// in\n        tag_147:\n            /* \"--CODEGEN--\":3350:3474   */\n          swap3\n          swap2\n          pop\n          pop\n          jump\t// out\n            /* \"--CODEGEN--\":3481:3695   */\n        tag_41:\n          0x00\n            /* \"--CODEGEN--\":3604:3606   */\n          0x20\n            /* \"--CODEGEN--\":3593:3602   */\n          dup3\n            /* \"--CODEGEN--\":3589:3607   */\n          add\n            /* \"--CODEGEN--\":3581:3607   */\n          swap1\n          pop\n            /* \"--CODEGEN--\":3618:3685   */\n          tag_149\n            /* \"--CODEGEN--\":3682:3683   */\n          0x00\n            /* \"--CODEGEN--\":3671:3680   */\n          dup4\n            /* \"--CODEGEN--\":3667:3684   */\n          add\n            /* \"--CODEGEN--\":3658:3664   */\n          dup5\n            /* \"--CODEGEN--\":3618:3685   */\n          tag_138\n          jump\t// in\n        tag_149:\n            /* \"--CODEGEN--\":3575:3695   */\n          swap3\n          swap2\n          pop\n          pop\n          jump\t// out\n            /* \"--CODEGEN--\":3702:3824   */\n        tag_127:\n          0x00\n            /* \"--CODEGEN--\":3796:3801   */\n          dup2\n            /* \"--CODEGEN--\":3790:3802   */\n          mload\n            /* \"--CODEGEN--\":3780:3802   */\n          swap1\n          pop\n            /* \"--CODEGEN--\":3761:3824   */\n          swap2\n          swap1\n          pop\n          jump\t// out\n            /* \"--CODEGEN--\":3832:3995   */\n        tag_129:\n          0x00\n            /* \"--CODEGEN--\":3947:3953   */\n          dup3\n            /* \"--CODEGEN--\":3942:3945   */\n          dup3\n            /* \"--CODEGEN--\":3935:3954   */\n          mstore\n            /* \"--CODEGEN--\":3984:3988   */\n          0x20\n            /* \"--CODEGEN--\":3979:3982   */\n          dup3\n            /* \"--CODEGEN--\":3975:3989   */\n          add\n            /* \"--CODEGEN--\":3960:3989   */\n          swap1\n          pop\n            /* \"--CODEGEN--\":3928:3995   */\n          swap3\n          swap2\n          pop\n          pop\n          jump\t// out\n            /* \"--CODEGEN--\":4003:4094   */\n        tag_152:\n          0x00\n            /* \"--CODEGEN--\":4065:4089   */\n          tag_154\n            /* \"--CODEGEN--\":4083:4088   */\n          dup3\n            /* \"--CODEGEN--\":4065:4089   */\n          tag_155\n          jump\t// in\n        tag_154:\n            /* \"--CODEGEN--\":4054:4089   */\n          swap1\n          pop\n            /* \"--CODEGEN--\":4048:4094   */\n          swap2\n          swap1\n          pop\n          jump\t// out\n            /* \"--CODEGEN--\":4101:4186   */\n        tag_123:\n          0x00\n            /* \"--CODEGEN--\":4174:4179   */\n          dup2\n            /* \"--CODEGEN--\":4167:4180   */\n          iszero\n            /* \"--CODEGEN--\":4160:4181   */\n          iszero\n            /* \"--CODEGEN--\":4149:4181   */\n          swap1\n          pop\n            /* \"--CODEGEN--\":4143:4186   */\n          swap2\n          swap1\n          pop\n          jump\t// out\n            /* \"--CODEGEN--\":4193:4314   */\n        tag_155:\n          0x00\n            /* \"--CODEGEN--\":4266:4308   */\n          0xffffffffffffffffffffffffffffffffffffffff\n            /* \"--CODEGEN--\":4259:4264   */\n          dup3\n            /* \"--CODEGEN--\":4255:4309   */\n          and\n            /* \"--CODEGEN--\":4244:4309   */\n          swap1\n          pop\n            /* \"--CODEGEN--\":4238:4314   */\n          swap2\n          swap1\n          pop\n          jump\t// out\n            /* \"--CODEGEN--\":4321:4393   */\n        tag_137:\n          0x00\n            /* \"--CODEGEN--\":4383:4388   */\n          dup2\n            /* \"--CODEGEN--\":4372:4388   */\n          swap1\n          pop\n            /* \"--CODEGEN--\":4366:4393   */\n          swap2\n          swap1\n          pop\n          jump\t// out\n            /* \"--CODEGEN--\":4400:4481   */\n        tag_141:\n          0x00\n            /* \"--CODEGEN--\":4471:4475   */\n          0xff\n            /* \"--CODEGEN--\":4464:4469   */\n          dup3\n            /* \"--CODEGEN--\":4460:4476   */\n          and\n            /* \"--CODEGEN--\":4449:4476   */\n          swap1\n          pop\n            /* \"--CODEGEN--\":4443:4481   */\n          swap2\n          swap1\n          pop\n          jump\t// out\n            /* \"--CODEGEN--\":4489:4757   */\n        tag_131:\n            /* \"--CODEGEN--\":4554:4555   */\n          0x00\n            /* \"--CODEGEN--\":4561:4662   */\n        tag_161:\n            /* \"--CODEGEN--\":4575:4581   */\n          dup4\n            /* \"--CODEGEN--\":4572:4573   */\n          dup2\n            /* \"--CODEGEN--\":4569:4582   */\n          lt\n            /* \"--CODEGEN--\":4561:4662   */\n          iszero\n          tag_163\n          jumpi\n            /* \"--CODEGEN--\":4651:4652   */\n          dup1\n            /* \"--CODEGEN--\":4646:4649   */\n          dup3\n            /* \"--CODEGEN--\":4642:4653   */\n          add\n            /* \"--CODEGEN--\":4636:4654   */\n          mload\n            /* \"--CODEGEN--\":4632:4633   */\n          dup2\n            /* \"--CODEGEN--\":4627:4630   */\n          dup5\n            /* \"--CODEGEN--\":4623:4634   */\n          add\n            /* \"--CODEGEN--\":4616:4655   */\n          mstore\n            /* \"--CODEGEN--\":4597:4599   */\n          0x20\n            /* \"--CODEGEN--\":4594:4595   */\n          dup2\n            /* \"--CODEGEN--\":4590:4600   */\n          add\n            /* \"--CODEGEN--\":4585:4600   */\n          swap1\n          pop\n            /* \"--CODEGEN--\":4561:4662   */\n          jump(tag_161)\n        tag_163:\n            /* \"--CODEGEN--\":4677:4683   */\n          dup4\n            /* \"--CODEGEN--\":4674:4675   */\n          dup2\n            /* \"--CODEGEN--\":4671:4684   */\n          gt\n            /* \"--CODEGEN--\":4668:4670   */\n          iszero\n          tag_164\n          jumpi\n            /* \"--CODEGEN--\":4742:4743   */\n          0x00\n            /* \"--CODEGEN--\":4733:4739   */\n          dup5\n            /* \"--CODEGEN--\":4728:4731   */\n          dup5\n            /* \"--CODEGEN--\":4724:4740   */\n          add\n            /* \"--CODEGEN--\":4717:4744   */\n          mstore\n            /* \"--CODEGEN--\":4668:4670   */\n        tag_164:\n            /* \"--CODEGEN--\":4538:4757   */\n          pop\n          pop\n          pop\n          pop\n          jump\t// out\n            /* \"--CODEGEN--\":4765:4862   */\n        tag_133:\n          0x00\n            /* \"--CODEGEN--\":4853:4855   */\n          0x1f\n            /* \"--CODEGEN--\":4849:4856   */\n          not\n            /* \"--CODEGEN--\":4844:4846   */\n          0x1f\n            /* \"--CODEGEN--\":4837:4842   */\n          dup4\n            /* \"--CODEGEN--\":4833:4847   */\n          add\n            /* \"--CODEGEN--\":4829:4857   */\n          and\n            /* \"--CODEGEN--\":4819:4857   */\n          swap1\n          pop\n            /* \"--CODEGEN--\":4813:4862   */\n          swap2\n          swap1\n          pop\n          jump\t// out\n            /* \"--CODEGEN--\":4870:4987   */\n        tag_96:\n            /* \"--CODEGEN--\":4939:4963   */\n          tag_167\n            /* \"--CODEGEN--\":4957:4962   */\n          dup2\n            /* \"--CODEGEN--\":4939:4963   */\n          tag_152\n          jump\t// in\n        tag_167:\n            /* \"--CODEGEN--\":4932:4937   */\n          dup2\n            /* \"--CODEGEN--\":4929:4964   */\n          eq\n            /* \"--CODEGEN--\":4919:4921   */\n          tag_168\n          jumpi\n            /* \"--CODEGEN--\":4978:4979   */\n          0x00\n            /* \"--CODEGEN--\":4975:4976   */\n          dup1\n            /* \"--CODEGEN--\":4968:4980   */\n          revert\n            /* \"--CODEGEN--\":4919:4921   */\n        tag_168:\n            /* \"--CODEGEN--\":4913:4987   */\n          pop\n          jump\t// out\n            /* \"--CODEGEN--\":4994:5111   */\n        tag_100:\n            /* \"--CODEGEN--\":5063:5087   */\n          tag_170\n            /* \"--CODEGEN--\":5081:5086   */\n          dup2\n            /* \"--CODEGEN--\":5063:5087   */\n          tag_137\n          jump\t// in\n        tag_170:\n            /* \"--CODEGEN--\":5056:5061   */\n          dup2\n            /* \"--CODEGEN--\":5053:5088   */\n          eq\n            /* \"--CODEGEN--\":5043:5045   */\n          tag_171\n          jumpi\n            /* \"--CODEGEN--\":5102:5103   */\n          0x00\n            /* \"--CODEGEN--\":5099:5100   */\n          dup1\n            /* \"--CODEGEN--\":5092:5104   */\n          revert\n            /* \"--CODEGEN--\":5043:5045   */\n        tag_171:\n            /* \"--CODEGEN--\":5037:5111   */\n          pop\n          jump\t// out\n\n        auxdata: 0xa2646970667358221220ff898197a392bb54d5d0733f83c6bb53f449e8bcc87735fd99f9cc45a828016864736f6c634300060c0033\n    }\n}\n",
				"bytecode": {
					"linkReferences": {},
					"object": "60806040523480156200001157600080fd5b506127106040516200002390620000d3565b6200002f9190620000f2565b604051809103906000f0801580156200004c573d6000803e3d6000fd5b506000806101000a81548173ffffffffffffffffffffffffffffffffffffffff021916908373ffffffffffffffffffffffffffffffffffffffff16021790555033600160006101000a81548173ffffffffffffffffffffffffffffffffffffffff021916908373ffffffffffffffffffffffffffffffffffffffff1602179055506200012d565b61109d806200281e83390190565b620000ec8162000119565b82525050565b6000602082019050620001096000830184620000e1565b92915050565b6000819050919050565b600062000126826200010f565b9050919050565b6126e1806200013d6000396000f3fe6080604052600436106101135760003560e01c80638da5cb5b116100a0578063d203c15b11610064578063d203c15b1461037d578063dbbdc421146103bc578063e33f34a0146103e5578063f09ba7d314610410578063f77740911461043b57610113565b80638da5cb5b14610282578063c03d2acc146102ad578063c66dca40146102d8578063ce8f2f3814610301578063d00df2961461033e57610113565b80631deecf3b116100e75780631deecf3b146101b15780631f7705d2146101da5780631fccb33c1461020557806339050065146102305780634a003dcf1461025957610113565b80620c4397146101185780631246f6e21461014357806312b918461461016c5780631890154c14610195575b600080fd5b34801561012457600080fd5b5061012d610457565b60405161013a919061249e565b60405180910390f35b34801561014f57600080fd5b5061016a60048036038101906101659190611c8d565b610508565b005b34801561017857600080fd5b50610193600480360381019061018e9190611bf8565b610628565b005b6101af60048036038101906101aa9190611c8d565b610875565b005b3480156101bd57600080fd5b506101d860048036038101906101d39190611c39565b610a04565b005b3480156101e657600080fd5b506101ef610b95565b6040516101fc919061228e565b60405180910390f35b34801561021157600080fd5b5061021a610cbb565b604051610227919061228e565b60405180910390f35b34801561023c57600080fd5b5061025760048036038101906102529190611c39565b610da4565b005b34801561026557600080fd5b50610280600480360381019061027b9190611bf8565b610f35565b005b34801561028e57600080fd5b50610297611182565b6040516102a49190612213565b60405180910390f35b3480156102b957600080fd5b506102c26111a8565b6040516102cf919061228e565b60405180910390f35b3480156102e457600080fd5b506102ff60048036038101906102fa9190611bf8565b611291565b005b34801561030d57600080fd5b5061032860048036038101906103239190611ba6565b611397565b604051610335919061249e565b60405180910390f35b34801561034a57600080fd5b5061036560048036038101906103609190611bf8565b6113b5565b60405161037493929190612340565b60405180910390f35b34801561038957600080fd5b506103a4600480360381019061039f9190611bf8565b61149a565b6040516103b393929190612340565b60405180910390f35b3480156103c857600080fd5b506103e360048036038101906103de9190611bf8565b61157f565b005b3480156103f157600080fd5b506103fa611685565b604051610407919061249e565b60405180910390f35b34801561041c57600080fd5b50610425611736565b604051610432919061228e565b60405180910390f35b61045560048036038101906104509190611c8d565b61185c565b005b60008060009054906101000a900473ffffffffffffffffffffffffffffffffffffffff1673ffffffffffffffffffffffffffffffffffffffff166370a08231306040518263ffffffff1660e01b81526004016104b391906121dd565b60206040518083038186803b1580156104cb57600080fd5b505afa1580156104df573d6000803e3d6000fd5b505050506040513d601f19601f820116820180604052508101906105039190611cb6565b905090565b33600160009054906101000a900473ffffffffffffffffffffffffffffffffffffffff1673ffffffffffffffffffffffffffffffffffffffff168173ffffffffffffffffffffffffffffffffffffffff1614610599576040517f08c379a0000000000000000000000000000000000000000000000000000000008152600401610590906123fe565b60405180910390fd5b60008054906101000a900473ffffffffffffffffffffffffffffffffffffffff1673ffffffffffffffffffffffffffffffffffffffff16631d43cc98836040518263ffffffff1660e01b81526004016105f2919061249e565b600060405180830381600087803b15801561060c57600080fd5b505af1158015610620573d6000803e3d6000fd5b505050505050565b600060038260405161063a91906121c6565b90815260200160405180910390206001015490506001151560038360405161066291906121c6565b908152602001604051809103902060020160009054906101000a900460ff161515146106c3576040517f08c379a00000000000000000000000000000000000000000000000000000000081526004016106ba906123be565b60405180910390fd5b6106cb611685565b81111561070d576040517f08c379a0000000000000000000000000000000000000000000000000000000008152600401610704906123de565b60405180910390fd5b60008054906101000a900473ffffffffffffffffffffffffffffffffffffffff1673ffffffffffffffffffffffffffffffffffffffff1663f490a3513330846040518463ffffffff1660e01b815260040161076a9392919061222e565b602060405180830381600087803b15801561078457600080fd5b505af1158015610798573d6000803e3d6000fd5b505050506040513d601f19601f820116820180604052508101906107bc9190611bcf565b50600560003373ffffffffffffffffffffffffffffffffffffffff1673ffffffffffffffffffffffffffffffffffffffff16815260200190815260200160002082908060018154018082558091505060019003906000526020600020016000909190919091509080519060200190610835929190611a61565b507f7246a03edf415ab10aa2e7868f4768980d024a3a86ab68f98fcc21567c2f26d782823360405161086993929190612302565b60405180910390a15050565b600081116108b8576040517f08c379a00000000000000000000000000000000000000000000000000000000081526004016108af9061241e565b60405180910390fd5b6108c0611685565b811115610902576040517f08c379a00000000000000000000000000000000000000000000000000000000081526004016108f99061247e565b60405180910390fd5b60008054906101000a900473ffffffffffffffffffffffffffffffffffffffff1673ffffffffffffffffffffffffffffffffffffffff1663f490a3513330846040518463ffffffff1660e01b815260040161095f9392919061222e565b602060405180830381600087803b15801561097957600080fd5b505af115801561098d573d6000803e3d6000fd5b505050506040513d601f19601f820116820180604052508101906109b19190611bcf565b503373ffffffffffffffffffffffffffffffffffffffff166108fc6109d583611a4d565b9081150290604051600060405180830381858888f19350505050158015610a00573d6000803e3d6000fd5b5050565b33600160009054906101000a900473ffffffffffffffffffffffffffffffffffffffff1673ffffffffffffffffffffffffffffffffffffffff168173ffffffffffffffffffffffffffffffffffffffff1614610a95576040517f08c379a0000000000000000000000000000000000000000000000000000000008152600401610a8c906123fe565b60405180910390fd5b604051806060016040528084815260200183815260200160011515815250600684604051610ac391906121c6565b90815260200160405180910390206000820151816000019080519060200190610aed929190611a61565b506020820151816001015560408201518160020160006101000a81548160ff021916908315150217905550905050600783908060018154018082558091505060019003906000526020600020016000909190919091509080519060200190610b56929190611a61565b507f4822082a8fc27e02f7551bba1d63c9aa17637aa764b17878bac1197ddd4c60288383604051610b889291906122d2565b60405180910390a1505050565b6060600560003373ffffffffffffffffffffffffffffffffffffffff1673ffffffffffffffffffffffffffffffffffffffff168152602001908152602001600020805480602002602001604051908101604052809291908181526020016000905b82821015610cb2578382906000526020600020018054600181600116156101000203166002900480601f016020809104026020016040519081016040528092919081815260200182805460018160011615610100020316600290048015610c9e5780601f10610c7357610100808354040283529160200191610c9e565b820191906000526020600020905b815481529060010190602001808311610c8157829003601f168201915b505050505081526020019060010190610bf6565b50505050905090565b60606004805480602002602001604051908101604052809291908181526020016000905b82821015610d9b578382906000526020600020018054600181600116156101000203166002900480601f016020809104026020016040519081016040528092919081815260200182805460018160011615610100020316600290048015610d875780601f10610d5c57610100808354040283529160200191610d87565b820191906000526020600020905b815481529060010190602001808311610d6a57829003601f168201915b505050505081526020019060010190610cdf565b50505050905090565b33600160009054906101000a900473ffffffffffffffffffffffffffffffffffffffff1673ffffffffffffffffffffffffffffffffffffffff168173ffffffffffffffffffffffffffffffffffffffff1614610e35576040517f08c379a0000000000000000000000000000000000000000000000000000000008152600401610e2c906123fe565b60405180910390fd5b604051806060016040528084815260200183815260200160011515815250600384604051610e6391906121c6565b90815260200160405180910390206000820151816000019080519060200190610e8d929190611a61565b506020820151816001015560408201518160020160006101000a81548160ff021916908315150217905550905050600483908060018154018082558091505060019003906000526020600020016000909190919091509080519060200190610ef6929190611a61565b507fef69c38fe63a06c66bf59a6eedc8716eba333ed78488e0b767455a9cf2eecbb38383604051610f289291906122d2565b60405180910390a1505050565b6000600682604051610f4791906121c6565b908152602001604051809103902060010154905060011515600683604051610f6f91906121c6565b908152602001604051809103902060020160009054906101000a900460ff16151514610fd0576040517f08c379a0000000000000000000000000000000000000000000000000000000008152600401610fc79061237e565b60405180910390fd5b610fd8611685565b81111561101a576040517f08c379a00000000000000000000000000000000000000000000000000000000081526004016110119061239e565b60405180910390fd5b60008054906101000a900473ffffffffffffffffffffffffffffffffffffffff1673ffffffffffffffffffffffffffffffffffffffff1663f490a3513330846040518463ffffffff1660e01b81526004016110779392919061222e565b602060405180830381600087803b15801561109157600080fd5b505af11580156110a5573d6000803e3d6000fd5b505050506040513d601f19601f820116820180604052508101906110c99190611bcf565b50600860003373ffffffffffffffffffffffffffffffffffffffff1673ffffffffffffffffffffffffffffffffffffffff16815260200190815260200160002082908060018154018082558091505060019003906000526020600020016000909190919091509080519060200190611142929190611a61565b507f38575f00c411070be2dc99a8b04eb4aeba192b4c7ccbb587aa4227d5398ff1cb82823360405161117693929190612302565b60405180910390a15050565b600160009054906101000a900473ffffffffffffffffffffffffffffffffffffffff1681565b60606007805480602002602001604051908101604052809291908181526020016000905b82821015611288578382906000526020600020018054600181600116156101000203166002900480601f0160208091040260200160405190810160405280929190818152602001828054600181600116156101000203166002900480156112745780601f1061124957610100808354040283529160200191611274565b820191906000526020600020905b81548152906001019060200180831161125757829003601f168201915b5050505050815260200190600101906111cc565b50505050905090565b33600160009054906101000a900473ffffffffffffffffffffffffffffffffffffffff1673ffffffffffffffffffffffffffffffffffffffff168173ffffffffffffffffffffffffffffffffffffffff1614611322576040517f08c379a0000000000000000000000000000000000000000000000000000000008152600401611319906123fe565b60405180910390fd5b600060038360405161133491906121c6565b908152602001604051809103902060020160006101000a81548160ff0219169083151502179055507f24ba6c881728980191398db8dcfd8ed4f6aeb1c08df349d63f3b85075f3e86dd8260405161138b91906122b0565b60405180910390a15050565b60026020528060005260406000206000915090508060000154905081565b600381805160208101820180518482526020830160208501208183528095505050505050600091509050806000018054600181600116156101000203166002900480601f0160208091040260200160405190810160405280929190818152602001828054600181600116156101000203166002900480156114775780601f1061144c57610100808354040283529160200191611477565b820191906000526020600020905b81548152906001019060200180831161145a57829003601f168201915b5050505050908060010154908060020160009054906101000a900460ff16905083565b600681805160208101820180518482526020830160208501208183528095505050505050600091509050806000018054600181600116156101000203166002900480601f01602080910402602001604051908101604052809291908181526020018280546001816001161561010002031660029004801561155c5780601f106115315761010080835404028352916020019161155c565b820191906000526020600020905b81548152906001019060200180831161153f57829003601f168201915b5050505050908060010154908060020160009054906101000a900460ff16905083565b33600160009054906101000a900473ffffffffffffffffffffffffffffffffffffffff1673ffffffffffffffffffffffffffffffffffffffff168173ffffffffffffffffffffffffffffffffffffffff1614611610576040517f08c379a0000000000000000000000000000000000000000000000000000000008152600401611607906123fe565b60405180910390fd5b600060068360405161162291906121c6565b908152602001604051809103902060020160006101000a81548160ff0219169083151502179055507fc08b02ec29b10837b03ba712be7196ccd02824c57a727dbd6c9718051c9437c68260405161167991906122b0565b60405180910390a15050565b60008060009054906101000a900473ffffffffffffffffffffffffffffffffffffffff1673ffffffffffffffffffffffffffffffffffffffff166370a08231336040518263ffffffff1660e01b81526004016116e191906121f8565b60206040518083038186803b1580156116f957600080fd5b505afa15801561170d573d6000803e3d6000fd5b505050506040513d601f19601f820116820180604052508101906117319190611cb6565b905090565b6060600860003373ffffffffffffffffffffffffffffffffffffffff1673ffffffffffffffffffffffffffffffffffffffff168152602001908152602001600020805480602002602001604051908101604052809291908181526020016000905b82821015611853578382906000526020600020018054600181600116156101000203166002900480601f01602080910402602001604051908101604052809291908181526020018280546001816001161561010002031660029004801561183f5780601f106118145761010080835404028352916020019161183f565b820191906000526020600020905b81548152906001019060200180831161182257829003601f168201915b505050505081526020019060010190611797565b50505050905090565b600061186782611a4d565b9050803410156118ac576040517f08c379a00000000000000000000000000000000000000000000000000000000081526004016118a39061243e565b60405180910390fd5b600081340390503373ffffffffffffffffffffffffffffffffffffffff166108fc829081150290604051600060405180830381858888f193505050501580156118f9573d6000803e3d6000fd5b506000611904610457565b905080841115611949576040517f08c379a00000000000000000000000000000000000000000000000000000000081526004016119409061245e565b60405180910390fd5b60008054906101000a900473ffffffffffffffffffffffffffffffffffffffff1673ffffffffffffffffffffffffffffffffffffffff1663a9059cbb33866040518363ffffffff1660e01b81526004016119a4929190612265565b602060405180830381600087803b1580156119be57600080fd5b505af11580156119d2573d6000803e3d6000fd5b505050506040513d601f19601f820116820180604052508101906119f69190611bcf565b5083600260003373ffffffffffffffffffffffffffffffffffffffff1673ffffffffffffffffffffffffffffffffffffffff1681526020019081526020016000206000016000828254019250508190555050505050565b600067016345785d8a000082029050919050565b828054600181600116156101000203166002900490600052602060002090601f016020900481019282601f10611aa257805160ff1916838001178555611ad0565b82800160010185558215611ad0579182015b82811115611acf578251825591602001919060010190611ab4565b5b509050611add9190611ae1565b5090565b5b80821115611afa576000816000905550600101611ae2565b5090565b600081359050611b0d81612666565b92915050565b600081519050611b228161267d565b92915050565b600082601f830112611b3957600080fd5b8135611b4c611b47826124e6565b6124b9565b91508082526020830160208301858383011115611b6857600080fd5b611b73838284612613565b50505092915050565b600081359050611b8b81612694565b92915050565b600081519050611ba081612694565b92915050565b600060208284031215611bb857600080fd5b6000611bc684828501611afe565b91505092915050565b600060208284031215611be157600080fd5b6000611bef84828501611b13565b91505092915050565b600060208284031215611c0a57600080fd5b600082013567ffffffffffffffff811115611c2457600080fd5b611c3084828501611b28565b91505092915050565b60008060408385031215611c4c57600080fd5b600083013567ffffffffffffffff811115611c6657600080fd5b611c7285828601611b28565b9250506020611c8385828601611b7c565b9150509250929050565b600060208284031215611c9f57600080fd5b6000611cad84828501611b7c565b91505092915050565b600060208284031215611cc857600080fd5b6000611cd684828501611b91565b91505092915050565b6000611ceb8383611da4565b905092915050565b611cfc816125dd565b82525050565b611d0b81612595565b82525050565b611d1a81612583565b82525050565b6000611d2b82612522565b611d358185612545565b935083602082028501611d4785612512565b8060005b85811015611d835784840389528151611d648582611cdf565b9450611d6f83612538565b925060208a01995050600181019050611d4b565b50829750879550505050505092915050565b611d9e816125a7565b82525050565b6000611daf8261252d565b611db98185612556565b9350611dc9818560208601612622565b611dd281612655565b840191505092915050565b6000611de88261252d565b611df28185612567565b9350611e02818560208601612622565b611e0b81612655565b840191505092915050565b6000611e218261252d565b611e2b8185612578565b9350611e3b818560208601612622565b80840191505092915050565b6000611e54602f83612567565b91507f4c6120636f6d696461206e6f206573746120646973706f6e69626c6520656e2060008301527f6573746f73206d6f6d656e746f732e00000000000000000000000000000000006020830152604082019050919050565b6000611eba602e83612567565b91507f4e6563657369746173206d617320546f6b656e73207061726120636f6d70726160008301527f72206573746120636f6d6964612e0000000000000000000000000000000000006020830152604082019050919050565b6000611f20603283612567565b91507f4c6120617472616363696f6e206e6f206573746120646973706f6e69626c652060008301527f656e206573746f73206d6f6d656e746f732e00000000000000000000000000006020830152604082019050919050565b6000611f86603483612567565b91507f4e6563657369746173206d617320546f6b656e7320706172612073756269657260008301527f74652061206573746120617472616363696f6e2e0000000000000000000000006020830152604082019050919050565b6000611fec602e83612567565b91507f4e6f207469656e6573207065726d69736f73207061726120656a65637574617260008301527f20657374612066756e63696f6e2e0000000000000000000000000000000000006020830152604082019050919050565b6000612052603383612567565b91507f4e6563657369746173206465766f6c76657220756e612063616e74696461642060008301527f706f73697469766120646520546f6b656e732e000000000000000000000000006020830152604082019050919050565b60006120b8602a83612567565b91507f436f6d707261206d656e6f7320546f6b656e73206f207061676120636f6e206d60008301527f6173206574686572732e000000000000000000000000000000000000000000006020830152604082019050919050565b600061211e602083612567565b91507f436f6d70726120756e206e756d65726f206d656e6f7220646520546f6b656e736000830152602082019050919050565b600061215e602883612567565b91507f4e6f207469656e65206c6f7320546f6b656e732071756520646573656173206460008301527f65766f6c7665722e0000000000000000000000000000000000000000000000006020830152604082019050919050565b6121c0816125d3565b82525050565b60006121d28284611e16565b915081905092915050565b60006020820190506121f26000830184611d11565b92915050565b600060208201905061220d6000830184611cf3565b92915050565b60006020820190506122286000830184611d02565b92915050565b60006060820190506122436000830186611cf3565b6122506020830185611d11565b61225d60408301846121b7565b949350505050565b600060408201905061227a6000830185611cf3565b61228760208301846121b7565b9392505050565b600060208201905081810360008301526122a88184611d20565b905092915050565b600060208201905081810360008301526122ca8184611ddd565b905092915050565b600060408201905081810360008301526122ec8185611ddd565b90506122fb60208301846121b7565b9392505050565b6000606082019050818103600083015261231c8186611ddd565b905061232b60208301856121b7565b6123386040830184611cf3565b949350505050565b6000606082019050818103600083015261235a8186611ddd565b905061236960208301856121b7565b6123766040830184611d95565b949350505050565b6000602082019050818103600083015261239781611e47565b9050919050565b600060208201905081810360008301526123b781611ead565b9050919050565b600060208201905081810360008301526123d781611f13565b9050919050565b600060208201905081810360008301526123f781611f79565b9050919050565b6000602082019050818103600083015261241781611fdf565b9050919050565b6000602082019050818103600083015261243781612045565b9050919050565b60006020820190508181036000830152612457816120ab565b9050919050565b6000602082019050818103600083015261247781612111565b9050919050565b6000602082019050818103600083015261249781612151565b9050919050565b60006020820190506124b360008301846121b7565b92915050565b6000604051905081810181811067ffffffffffffffff821117156124dc57600080fd5b8060405250919050565b600067ffffffffffffffff8211156124fd57600080fd5b601f19601f8301169050602081019050919050565b6000819050602082019050919050565b600081519050919050565b600081519050919050565b6000602082019050919050565b600082825260208201905092915050565b600082825260208201905092915050565b600082825260208201905092915050565b600081905092915050565b600061258e826125b3565b9050919050565b60006125a0826125b3565b9050919050565b60008115159050919050565b600073ffffffffffffffffffffffffffffffffffffffff82169050919050565b6000819050919050565b60006125e8826125ef565b9050919050565b60006125fa82612601565b9050919050565b600061260c826125b3565b9050919050565b82818337600083830152505050565b60005b83811015612640578082015181840152602081019050612625565b8381111561264f576000848401525b50505050565b6000601f19601f8301169050919050565b61266f81612583565b811461267a57600080fd5b50565b612686816125a7565b811461269157600080fd5b50565b61269d816125d3565b81146126a857600080fd5b5056fea26469706673582212205e97890f3811bc350cb654c37a540e97faceae899e7a8dd9eb612d7ac26e9dc564736f6c634300060c0033608060405234801561001057600080fd5b5060405161109d38038061109d83398181016040528101906100329190610099565b806002819055506002546000803373ffffffffffffffffffffffffffffffffffffffff1673ffffffffffffffffffffffffffffffffffffffff16815260200190815260200160002081905550506100e3565b600081519050610093816100cc565b92915050565b6000602082840312156100ab57600080fd5b60006100b984828501610084565b91505092915050565b6000819050919050565b6100d5816100c2565b81146100e057600080fd5b50565b610fab806100f26000396000f3fe608060405234801561001057600080fd5b50600436106100a95760003560e01c8063313ce56711610071578063313ce5671461016657806370a082311461018457806395d89b41146101b4578063a9059cbb146101d2578063dd62ed3e14610202578063f490a35114610232576100a9565b806306fdde03146100ae578063095ea7b3146100cc57806318160ddd146100fc5780631d43cc981461011a57806323b872dd14610136575b600080fd5b6100b6610262565b6040516100c39190610e3a565b60405180910390f35b6100e660048036038101906100e19190610d54565b61029b565b6040516100f39190610e1f565b60405180910390f35b61010461038d565b6040516101119190610e5c565b60405180910390f35b610134600480360381019061012f9190610d90565b610397565b005b610150600480360381019061014b9190610d05565b6103f6565b60405161015d9190610e1f565b60405180910390f35b61016e610771565b60405161017b9190610e77565b60405180910390f35b61019e60048036038101906101999190610ca0565b610776565b6040516101ab9190610e5c565b60405180910390f35b6101bc6107be565b6040516101c99190610e3a565b60405180910390f35b6101ec60048036038101906101e79190610d54565b6107f7565b6040516101f99190610e1f565b60405180910390f35b61021c60048036038101906102179190610cc9565b6109d9565b6040516102299190610e5c565b60405180910390f35b61024c60048036038101906102479190610d05565b610a60565b6040516102599190610e1f565b60405180910390f35b6040518060400160405280601181526020017f4552433230426c6f636b636861696e415a00000000000000000000000000000081525081565b600081600160003373ffffffffffffffffffffffffffffffffffffffff1673ffffffffffffffffffffffffffffffffffffffff16815260200190815260200160002060008573ffffffffffffffffffffffffffffffffffffffff1673ffffffffffffffffffffffffffffffffffffffff168152602001908152602001600020819055508273ffffffffffffffffffffffffffffffffffffffff163373ffffffffffffffffffffffffffffffffffffffff167f8c5be1e5ebec7d5bd14f71427d1e84f3dd0314c0f7b2291e5b200ac8c7c3b9258460405161037b9190610e5c565b60405180910390a36001905092915050565b6000600254905090565b80600260008282540192505081905550806000803373ffffffffffffffffffffffffffffffffffffffff1673ffffffffffffffffffffffffffffffffffffffff1681526020019081526020016000206000828254019250508190555050565b60008060008573ffffffffffffffffffffffffffffffffffffffff1673ffffffffffffffffffffffffffffffffffffffff1681526020019081526020016000205482111561044357600080fd5b600160008573ffffffffffffffffffffffffffffffffffffffff1673ffffffffffffffffffffffffffffffffffffffff16815260200190815260200160002060003373ffffffffffffffffffffffffffffffffffffffff1673ffffffffffffffffffffffffffffffffffffffff168152602001908152602001600020548211156104cc57600080fd5b61051d826000808773ffffffffffffffffffffffffffffffffffffffff1673ffffffffffffffffffffffffffffffffffffffff16815260200190815260200160002054610c4390919063ffffffff16565b6000808673ffffffffffffffffffffffffffffffffffffffff1673ffffffffffffffffffffffffffffffffffffffff168152602001908152602001600020819055506105ee82600160008773ffffffffffffffffffffffffffffffffffffffff1673ffffffffffffffffffffffffffffffffffffffff16815260200190815260200160002060003373ffffffffffffffffffffffffffffffffffffffff1673ffffffffffffffffffffffffffffffffffffffff16815260200190815260200160002054610c4390919063ffffffff16565b600160008673ffffffffffffffffffffffffffffffffffffffff1673ffffffffffffffffffffffffffffffffffffffff16815260200190815260200160002060003373ffffffffffffffffffffffffffffffffffffffff1673ffffffffffffffffffffffffffffffffffffffff168152602001908152602001600020819055506106bf826000808673ffffffffffffffffffffffffffffffffffffffff1673ffffffffffffffffffffffffffffffffffffffff16815260200190815260200160002054610c5a90919063ffffffff16565b6000808573ffffffffffffffffffffffffffffffffffffffff1673ffffffffffffffffffffffffffffffffffffffff168152602001908152602001600020819055508273ffffffffffffffffffffffffffffffffffffffff168473ffffffffffffffffffffffffffffffffffffffff167fddf252ad1be2c89b69c2b068fc378daa952ba7f163c4a11628f55a4df523b3ef8460405161075e9190610e5c565b60405180910390a3600190509392505050565b601281565b60008060008373ffffffffffffffffffffffffffffffffffffffff1673ffffffffffffffffffffffffffffffffffffffff168152602001908152602001600020549050919050565b6040518060400160405280600381526020017f455243000000000000000000000000000000000000000000000000000000000081525081565b60008060003373ffffffffffffffffffffffffffffffffffffffff1673ffffffffffffffffffffffffffffffffffffffff1681526020019081526020016000205482111561084457600080fd5b610895826000803373ffffffffffffffffffffffffffffffffffffffff1673ffffffffffffffffffffffffffffffffffffffff16815260200190815260200160002054610c4390919063ffffffff16565b6000803373ffffffffffffffffffffffffffffffffffffffff1673ffffffffffffffffffffffffffffffffffffffff16815260200190815260200160002081905550610928826000808673ffffffffffffffffffffffffffffffffffffffff1673ffffffffffffffffffffffffffffffffffffffff16815260200190815260200160002054610c5a90919063ffffffff16565b6000808573ffffffffffffffffffffffffffffffffffffffff1673ffffffffffffffffffffffffffffffffffffffff168152602001908152602001600020819055508273ffffffffffffffffffffffffffffffffffffffff163373ffffffffffffffffffffffffffffffffffffffff167fddf252ad1be2c89b69c2b068fc378daa952ba7f163c4a11628f55a4df523b3ef846040516109c79190610e5c565b60405180910390a36001905092915050565b6000600160008473ffffffffffffffffffffffffffffffffffffffff1673ffffffffffffffffffffffffffffffffffffffff16815260200190815260200160002060008373ffffffffffffffffffffffffffffffffffffffff1673ffffffffffffffffffffffffffffffffffffffff16815260200190815260200160002054905092915050565b60008060008573ffffffffffffffffffffffffffffffffffffffff1673ffffffffffffffffffffffffffffffffffffffff16815260200190815260200160002054821115610aad57600080fd5b610afe826000808773ffffffffffffffffffffffffffffffffffffffff1673ffffffffffffffffffffffffffffffffffffffff16815260200190815260200160002054610c4390919063ffffffff16565b6000808673ffffffffffffffffffffffffffffffffffffffff1673ffffffffffffffffffffffffffffffffffffffff16815260200190815260200160002081905550610b91826000808673ffffffffffffffffffffffffffffffffffffffff1673ffffffffffffffffffffffffffffffffffffffff16815260200190815260200160002054610c5a90919063ffffffff16565b6000808573ffffffffffffffffffffffffffffffffffffffff1673ffffffffffffffffffffffffffffffffffffffff168152602001908152602001600020819055508273ffffffffffffffffffffffffffffffffffffffff168473ffffffffffffffffffffffffffffffffffffffff167fddf252ad1be2c89b69c2b068fc378daa952ba7f163c4a11628f55a4df523b3ef84604051610c309190610e5c565b60405180910390a3600190509392505050565b600082821115610c4f57fe5b818303905092915050565b600080828401905083811015610c6c57fe5b8091505092915050565b600081359050610c8581610f47565b92915050565b600081359050610c9a81610f5e565b92915050565b600060208284031215610cb257600080fd5b6000610cc084828501610c76565b91505092915050565b60008060408385031215610cdc57600080fd5b6000610cea85828601610c76565b9250506020610cfb85828601610c76565b9150509250929050565b600080600060608486031215610d1a57600080fd5b6000610d2886828701610c76565b9350506020610d3986828701610c76565b9250506040610d4a86828701610c8b565b9150509250925092565b60008060408385031215610d6757600080fd5b6000610d7585828601610c76565b9250506020610d8685828601610c8b565b9150509250929050565b600060208284031215610da257600080fd5b6000610db084828501610c8b565b91505092915050565b610dc281610ec0565b82525050565b6000610dd382610e92565b610ddd8185610e9d565b9350610ded818560208601610f03565b610df681610f36565b840191505092915050565b610e0a81610eec565b82525050565b610e1981610ef6565b82525050565b6000602082019050610e346000830184610db9565b92915050565b60006020820190508181036000830152610e548184610dc8565b905092915050565b6000602082019050610e716000830184610e01565b92915050565b6000602082019050610e8c6000830184610e10565b92915050565b600081519050919050565b600082825260208201905092915050565b6000610eb982610ecc565b9050919050565b60008115159050919050565b600073ffffffffffffffffffffffffffffffffffffffff82169050919050565b6000819050919050565b600060ff82169050919050565b60005b83811015610f21578082015181840152602081019050610f06565b83811115610f30576000848401525b50505050565b6000601f19601f8301169050919050565b610f5081610eae565b8114610f5b57600080fd5b50565b610f6781610eec565b8114610f7257600080fd5b5056fea2646970667358221220ff898197a392bb54d5d0733f83c6bb53f449e8bcc87735fd99f9cc45a828016864736f6c634300060c0033",
					"opcodes": "PUSH1 0x80 PUSH1 0x40 MSTORE CALLVALUE DUP1 ISZERO PUSH3 0x11 JUMPI PUSH1 0x0 DUP1 REVERT JUMPDEST POP PUSH2 0x2710 PUSH1 0x40 MLOAD PUSH3 0x23 SWAP1 PUSH3 0xD3 JUMP JUMPDEST PUSH3 0x2F SWAP2 SWAP1 PUSH3 0xF2 JUMP JUMPDEST PUSH1 0x40 MLOAD DUP1 SWAP2 SUB SWAP1 PUSH1 0x0 CREATE DUP1 ISZERO DUP1 ISZERO PUSH3 0x4C JUMPI RETURNDATASIZE PUSH1 0x0 DUP1 RETURNDATACOPY RETURNDATASIZE PUSH1 0x0 REVERT JUMPDEST POP PUSH1 0x0 DUP1 PUSH2 0x100 EXP DUP2 SLOAD DUP2 PUSH20 0xFFFFFFFFFFFFFFFFFFFFFFFFFFFFFFFFFFFFFFFF MUL NOT AND SWAP1 DUP4 PUSH20 0xFFFFFFFFFFFFFFFFFFFFFFFFFFFFFFFFFFFFFFFF AND MUL OR SWAP1 SSTORE POP CALLER PUSH1 0x1 PUSH1 0x0 PUSH2 0x100 EXP DUP2 SLOAD DUP2 PUSH20 0xFFFFFFFFFFFFFFFFFFFFFFFFFFFFFFFFFFFFFFFF MUL NOT AND SWAP1 DUP4 PUSH20 0xFFFFFFFFFFFFFFFFFFFFFFFFFFFFFFFFFFFFFFFF AND MUL OR SWAP1 SSTORE POP PUSH3 0x12D JUMP JUMPDEST PUSH2 0x109D DUP1 PUSH3 0x281E DUP4 CODECOPY ADD SWAP1 JUMP JUMPDEST PUSH3 0xEC DUP2 PUSH3 0x119 JUMP JUMPDEST DUP3 MSTORE POP POP JUMP JUMPDEST PUSH1 0x0 PUSH1 0x20 DUP3 ADD SWAP1 POP PUSH3 0x109 PUSH1 0x0 DUP4 ADD DUP5 PUSH3 0xE1 JUMP JUMPDEST SWAP3 SWAP2 POP POP JUMP JUMPDEST PUSH1 0x0 DUP2 SWAP1 POP SWAP2 SWAP1 POP JUMP JUMPDEST PUSH1 0x0 PUSH3 0x126 DUP3 PUSH3 0x10F JUMP JUMPDEST SWAP1 POP SWAP2 SWAP1 POP JUMP JUMPDEST PUSH2 0x26E1 DUP1 PUSH3 0x13D PUSH1 0x0 CODECOPY PUSH1 0x0 RETURN INVALID PUSH1 0x80 PUSH1 0x40 MSTORE PUSH1 0x4 CALLDATASIZE LT PUSH2 0x113 JUMPI PUSH1 0x0 CALLDATALOAD PUSH1 0xE0 SHR DUP1 PUSH4 0x8DA5CB5B GT PUSH2 0xA0 JUMPI DUP1 PUSH4 0xD203C15B GT PUSH2 0x64 JUMPI DUP1 PUSH4 0xD203C15B EQ PUSH2 0x37D JUMPI DUP1 PUSH4 0xDBBDC421 EQ PUSH2 0x3BC JUMPI DUP1 PUSH4 0xE33F34A0 EQ PUSH2 0x3E5 JUMPI DUP1 PUSH4 0xF09BA7D3 EQ PUSH2 0x410 JUMPI DUP1 PUSH4 0xF7774091 EQ PUSH2 0x43B JUMPI PUSH2 0x113 JUMP JUMPDEST DUP1 PUSH4 0x8DA5CB5B EQ PUSH2 0x282 JUMPI DUP1 PUSH4 0xC03D2ACC EQ PUSH2 0x2AD JUMPI DUP1 PUSH4 0xC66DCA40 EQ PUSH2 0x2D8 JUMPI DUP1 PUSH4 0xCE8F2F38 EQ PUSH2 0x301 JUMPI DUP1 PUSH4 0xD00DF296 EQ PUSH2 0x33E JUMPI PUSH2 0x113 JUMP JUMPDEST DUP1 PUSH4 0x1DEECF3B GT PUSH2 0xE7 JUMPI DUP1 PUSH4 0x1DEECF3B EQ PUSH2 0x1B1 JUMPI DUP1 PUSH4 0x1F7705D2 EQ PUSH2 0x1DA JUMPI DUP1 PUSH4 0x1FCCB33C EQ PUSH2 0x205 JUMPI DUP1 PUSH4 0x39050065 EQ PUSH2 0x230 JUMPI DUP1 PUSH4 0x4A003DCF EQ PUSH2 0x259 JUMPI PUSH2 0x113 JUMP JUMPDEST DUP1 PUSH3 0xC4397 EQ PUSH2 0x118 JUMPI DUP1 PUSH4 0x1246F6E2 EQ PUSH2 0x143 JUMPI DUP1 PUSH4 0x12B91846 EQ PUSH2 0x16C JUMPI DUP1 PUSH4 0x1890154C EQ PUSH2 0x195 JUMPI JUMPDEST PUSH1 0x0 DUP1 REVERT JUMPDEST CALLVALUE DUP1 ISZERO PUSH2 0x124 JUMPI PUSH1 0x0 DUP1 REVERT JUMPDEST POP PUSH2 0x12D PUSH2 0x457 JUMP JUMPDEST PUSH1 0x40 MLOAD PUSH2 0x13A SWAP2 SWAP1 PUSH2 0x249E JUMP JUMPDEST PUSH1 0x40 MLOAD DUP1 SWAP2 SUB SWAP1 RETURN JUMPDEST CALLVALUE DUP1 ISZERO PUSH2 0x14F JUMPI PUSH1 0x0 DUP1 REVERT JUMPDEST POP PUSH2 0x16A PUSH1 0x4 DUP1 CALLDATASIZE SUB DUP2 ADD SWAP1 PUSH2 0x165 SWAP2 SWAP1 PUSH2 0x1C8D JUMP JUMPDEST PUSH2 0x508 JUMP JUMPDEST STOP JUMPDEST CALLVALUE DUP1 ISZERO PUSH2 0x178 JUMPI PUSH1 0x0 DUP1 REVERT JUMPDEST POP PUSH2 0x193 PUSH1 0x4 DUP1 CALLDATASIZE SUB DUP2 ADD SWAP1 PUSH2 0x18E SWAP2 SWAP1 PUSH2 0x1BF8 JUMP JUMPDEST PUSH2 0x628 JUMP JUMPDEST STOP JUMPDEST PUSH2 0x1AF PUSH1 0x4 DUP1 CALLDATASIZE SUB DUP2 ADD SWAP1 PUSH2 0x1AA SWAP2 SWAP1 PUSH2 0x1C8D JUMP JUMPDEST PUSH2 0x875 JUMP JUMPDEST STOP JUMPDEST CALLVALUE DUP1 ISZERO PUSH2 0x1BD JUMPI PUSH1 0x0 DUP1 REVERT JUMPDEST POP PUSH2 0x1D8 PUSH1 0x4 DUP1 CALLDATASIZE SUB DUP2 ADD SWAP1 PUSH2 0x1D3 SWAP2 SWAP1 PUSH2 0x1C39 JUMP JUMPDEST PUSH2 0xA04 JUMP JUMPDEST STOP JUMPDEST CALLVALUE DUP1 ISZERO PUSH2 0x1E6 JUMPI PUSH1 0x0 DUP1 REVERT JUMPDEST POP PUSH2 0x1EF PUSH2 0xB95 JUMP JUMPDEST PUSH1 0x40 MLOAD PUSH2 0x1FC SWAP2 SWAP1 PUSH2 0x228E JUMP JUMPDEST PUSH1 0x40 MLOAD DUP1 SWAP2 SUB SWAP1 RETURN JUMPDEST CALLVALUE DUP1 ISZERO PUSH2 0x211 JUMPI PUSH1 0x0 DUP1 REVERT JUMPDEST POP PUSH2 0x21A PUSH2 0xCBB JUMP JUMPDEST PUSH1 0x40 MLOAD PUSH2 0x227 SWAP2 SWAP1 PUSH2 0x228E JUMP JUMPDEST PUSH1 0x40 MLOAD DUP1 SWAP2 SUB SWAP1 RETURN JUMPDEST CALLVALUE DUP1 ISZERO PUSH2 0x23C JUMPI PUSH1 0x0 DUP1 REVERT JUMPDEST POP PUSH2 0x257 PUSH1 0x4 DUP1 CALLDATASIZE SUB DUP2 ADD SWAP1 PUSH2 0x252 SWAP2 SWAP1 PUSH2 0x1C39 JUMP JUMPDEST PUSH2 0xDA4 JUMP JUMPDEST STOP JUMPDEST CALLVALUE DUP1 ISZERO PUSH2 0x265 JUMPI PUSH1 0x0 DUP1 REVERT JUMPDEST POP PUSH2 0x280 PUSH1 0x4 DUP1 CALLDATASIZE SUB DUP2 ADD SWAP1 PUSH2 0x27B SWAP2 SWAP1 PUSH2 0x1BF8 JUMP JUMPDEST PUSH2 0xF35 JUMP JUMPDEST STOP JUMPDEST CALLVALUE DUP1 ISZERO PUSH2 0x28E JUMPI PUSH1 0x0 DUP1 REVERT JUMPDEST POP PUSH2 0x297 PUSH2 0x1182 JUMP JUMPDEST PUSH1 0x40 MLOAD PUSH2 0x2A4 SWAP2 SWAP1 PUSH2 0x2213 JUMP JUMPDEST PUSH1 0x40 MLOAD DUP1 SWAP2 SUB SWAP1 RETURN JUMPDEST CALLVALUE DUP1 ISZERO PUSH2 0x2B9 JUMPI PUSH1 0x0 DUP1 REVERT JUMPDEST POP PUSH2 0x2C2 PUSH2 0x11A8 JUMP JUMPDEST PUSH1 0x40 MLOAD PUSH2 0x2CF SWAP2 SWAP1 PUSH2 0x228E JUMP JUMPDEST PUSH1 0x40 MLOAD DUP1 SWAP2 SUB SWAP1 RETURN JUMPDEST CALLVALUE DUP1 ISZERO PUSH2 0x2E4 JUMPI PUSH1 0x0 DUP1 REVERT JUMPDEST POP PUSH2 0x2FF PUSH1 0x4 DUP1 CALLDATASIZE SUB DUP2 ADD SWAP1 PUSH2 0x2FA SWAP2 SWAP1 PUSH2 0x1BF8 JUMP JUMPDEST PUSH2 0x1291 JUMP JUMPDEST STOP JUMPDEST CALLVALUE DUP1 ISZERO PUSH2 0x30D JUMPI PUSH1 0x0 DUP1 REVERT JUMPDEST POP PUSH2 0x328 PUSH1 0x4 DUP1 CALLDATASIZE SUB DUP2 ADD SWAP1 PUSH2 0x323 SWAP2 SWAP1 PUSH2 0x1BA6 JUMP JUMPDEST PUSH2 0x1397 JUMP JUMPDEST PUSH1 0x40 MLOAD PUSH2 0x335 SWAP2 SWAP1 PUSH2 0x249E JUMP JUMPDEST PUSH1 0x40 MLOAD DUP1 SWAP2 SUB SWAP1 RETURN JUMPDEST CALLVALUE DUP1 ISZERO PUSH2 0x34A JUMPI PUSH1 0x0 DUP1 REVERT JUMPDEST POP PUSH2 0x365 PUSH1 0x4 DUP1 CALLDATASIZE SUB DUP2 ADD SWAP1 PUSH2 0x360 SWAP2 SWAP1 PUSH2 0x1BF8 JUMP JUMPDEST PUSH2 0x13B5 JUMP JUMPDEST PUSH1 0x40 MLOAD PUSH2 0x374 SWAP4 SWAP3 SWAP2 SWAP1 PUSH2 0x2340 JUMP JUMPDEST PUSH1 0x40 MLOAD DUP1 SWAP2 SUB SWAP1 RETURN JUMPDEST CALLVALUE DUP1 ISZERO PUSH2 0x389 JUMPI PUSH1 0x0 DUP1 REVERT JUMPDEST POP PUSH2 0x3A4 PUSH1 0x4 DUP1 CALLDATASIZE SUB DUP2 ADD SWAP1 PUSH2 0x39F SWAP2 SWAP1 PUSH2 0x1BF8 JUMP JUMPDEST PUSH2 0x149A JUMP JUMPDEST PUSH1 0x40 MLOAD PUSH2 0x3B3 SWAP4 SWAP3 SWAP2 SWAP1 PUSH2 0x2340 JUMP JUMPDEST PUSH1 0x40 MLOAD DUP1 SWAP2 SUB SWAP1 RETURN JUMPDEST CALLVALUE DUP1 ISZERO PUSH2 0x3C8 JUMPI PUSH1 0x0 DUP1 REVERT JUMPDEST POP PUSH2 0x3E3 PUSH1 0x4 DUP1 CALLDATASIZE SUB DUP2 ADD SWAP1 PUSH2 0x3DE SWAP2 SWAP1 PUSH2 0x1BF8 JUMP JUMPDEST PUSH2 0x157F JUMP JUMPDEST STOP JUMPDEST CALLVALUE DUP1 ISZERO PUSH2 0x3F1 JUMPI PUSH1 0x0 DUP1 REVERT JUMPDEST POP PUSH2 0x3FA PUSH2 0x1685 JUMP JUMPDEST PUSH1 0x40 MLOAD PUSH2 0x407 SWAP2 SWAP1 PUSH2 0x249E JUMP JUMPDEST PUSH1 0x40 MLOAD DUP1 SWAP2 SUB SWAP1 RETURN JUMPDEST CALLVALUE DUP1 ISZERO PUSH2 0x41C JUMPI PUSH1 0x0 DUP1 REVERT JUMPDEST POP PUSH2 0x425 PUSH2 0x1736 JUMP JUMPDEST PUSH1 0x40 MLOAD PUSH2 0x432 SWAP2 SWAP1 PUSH2 0x228E JUMP JUMPDEST PUSH1 0x40 MLOAD DUP1 SWAP2 SUB SWAP1 RETURN JUMPDEST PUSH2 0x455 PUSH1 0x4 DUP1 CALLDATASIZE SUB DUP2 ADD SWAP1 PUSH2 0x450 SWAP2 SWAP1 PUSH2 0x1C8D JUMP JUMPDEST PUSH2 0x185C JUMP JUMPDEST STOP JUMPDEST PUSH1 0x0 DUP1 PUSH1 0x0 SWAP1 SLOAD SWAP1 PUSH2 0x100 EXP SWAP1 DIV PUSH20 0xFFFFFFFFFFFFFFFFFFFFFFFFFFFFFFFFFFFFFFFF AND PUSH20 0xFFFFFFFFFFFFFFFFFFFFFFFFFFFFFFFFFFFFFFFF AND PUSH4 0x70A08231 ADDRESS PUSH1 0x40 MLOAD DUP3 PUSH4 0xFFFFFFFF AND PUSH1 0xE0 SHL DUP2 MSTORE PUSH1 0x4 ADD PUSH2 0x4B3 SWAP2 SWAP1 PUSH2 0x21DD JUMP JUMPDEST PUSH1 0x20 PUSH1 0x40 MLOAD DUP1 DUP4 SUB DUP2 DUP7 DUP1 EXTCODESIZE ISZERO DUP1 ISZERO PUSH2 0x4CB JUMPI PUSH1 0x0 DUP1 REVERT JUMPDEST POP GAS STATICCALL ISZERO DUP1 ISZERO PUSH2 0x4DF JUMPI RETURNDATASIZE PUSH1 0x0 DUP1 RETURNDATACOPY RETURNDATASIZE PUSH1 0x0 REVERT JUMPDEST POP POP POP POP PUSH1 0x40 MLOAD RETURNDATASIZE PUSH1 0x1F NOT PUSH1 0x1F DUP3 ADD AND DUP3 ADD DUP1 PUSH1 0x40 MSTORE POP DUP2 ADD SWAP1 PUSH2 0x503 SWAP2 SWAP1 PUSH2 0x1CB6 JUMP JUMPDEST SWAP1 POP SWAP1 JUMP JUMPDEST CALLER PUSH1 0x1 PUSH1 0x0 SWAP1 SLOAD SWAP1 PUSH2 0x100 EXP SWAP1 DIV PUSH20 0xFFFFFFFFFFFFFFFFFFFFFFFFFFFFFFFFFFFFFFFF AND PUSH20 0xFFFFFFFFFFFFFFFFFFFFFFFFFFFFFFFFFFFFFFFF AND DUP2 PUSH20 0xFFFFFFFFFFFFFFFFFFFFFFFFFFFFFFFFFFFFFFFF AND EQ PUSH2 0x599 JUMPI PUSH1 0x40 MLOAD PUSH32 0x8C379A000000000000000000000000000000000000000000000000000000000 DUP2 MSTORE PUSH1 0x4 ADD PUSH2 0x590 SWAP1 PUSH2 0x23FE JUMP JUMPDEST PUSH1 0x40 MLOAD DUP1 SWAP2 SUB SWAP1 REVERT JUMPDEST PUSH1 0x0 DUP1 SLOAD SWAP1 PUSH2 0x100 EXP SWAP1 DIV PUSH20 0xFFFFFFFFFFFFFFFFFFFFFFFFFFFFFFFFFFFFFFFF AND PUSH20 0xFFFFFFFFFFFFFFFFFFFFFFFFFFFFFFFFFFFFFFFF AND PUSH4 0x1D43CC98 DUP4 PUSH1 0x40 MLOAD DUP3 PUSH4 0xFFFFFFFF AND PUSH1 0xE0 SHL DUP2 MSTORE PUSH1 0x4 ADD PUSH2 0x5F2 SWAP2 SWAP1 PUSH2 0x249E JUMP JUMPDEST PUSH1 0x0 PUSH1 0x40 MLOAD DUP1 DUP4 SUB DUP2 PUSH1 0x0 DUP8 DUP1 EXTCODESIZE ISZERO DUP1 ISZERO PUSH2 0x60C JUMPI PUSH1 0x0 DUP1 REVERT JUMPDEST POP GAS CALL ISZERO DUP1 ISZERO PUSH2 0x620 JUMPI RETURNDATASIZE PUSH1 0x0 DUP1 RETURNDATACOPY RETURNDATASIZE PUSH1 0x0 REVERT JUMPDEST POP POP POP POP POP POP JUMP JUMPDEST PUSH1 0x0 PUSH1 0x3 DUP3 PUSH1 0x40 MLOAD PUSH2 0x63A SWAP2 SWAP1 PUSH2 0x21C6 JUMP JUMPDEST SWAP1 DUP2 MSTORE PUSH1 0x20 ADD PUSH1 0x40 MLOAD DUP1 SWAP2 SUB SWAP1 KECCAK256 PUSH1 0x1 ADD SLOAD SWAP1 POP PUSH1 0x1 ISZERO ISZERO PUSH1 0x3 DUP4 PUSH1 0x40 MLOAD PUSH2 0x662 SWAP2 SWAP1 PUSH2 0x21C6 JUMP JUMPDEST SWAP1 DUP2 MSTORE PUSH1 0x20 ADD PUSH1 0x40 MLOAD DUP1 SWAP2 SUB SWAP1 KECCAK256 PUSH1 0x2 ADD PUSH1 0x0 SWAP1 SLOAD SWAP1 PUSH2 0x100 EXP SWAP1 DIV PUSH1 0xFF AND ISZERO ISZERO EQ PUSH2 0x6C3 JUMPI PUSH1 0x40 MLOAD PUSH32 0x8C379A000000000000000000000000000000000000000000000000000000000 DUP2 MSTORE PUSH1 0x4 ADD PUSH2 0x6BA SWAP1 PUSH2 0x23BE JUMP JUMPDEST PUSH1 0x40 MLOAD DUP1 SWAP2 SUB SWAP1 REVERT JUMPDEST PUSH2 0x6CB PUSH2 0x1685 JUMP JUMPDEST DUP2 GT ISZERO PUSH2 0x70D JUMPI PUSH1 0x40 MLOAD PUSH32 0x8C379A000000000000000000000000000000000000000000000000000000000 DUP2 MSTORE PUSH1 0x4 ADD PUSH2 0x704 SWAP1 PUSH2 0x23DE JUMP JUMPDEST PUSH1 0x40 MLOAD DUP1 SWAP2 SUB SWAP1 REVERT JUMPDEST PUSH1 0x0 DUP1 SLOAD SWAP1 PUSH2 0x100 EXP SWAP1 DIV PUSH20 0xFFFFFFFFFFFFFFFFFFFFFFFFFFFFFFFFFFFFFFFF AND PUSH20 0xFFFFFFFFFFFFFFFFFFFFFFFFFFFFFFFFFFFFFFFF AND PUSH4 0xF490A351 CALLER ADDRESS DUP5 PUSH1 0x40 MLOAD DUP5 PUSH4 0xFFFFFFFF AND PUSH1 0xE0 SHL DUP2 MSTORE PUSH1 0x4 ADD PUSH2 0x76A SWAP4 SWAP3 SWAP2 SWAP1 PUSH2 0x222E JUMP JUMPDEST PUSH1 0x20 PUSH1 0x40 MLOAD DUP1 DUP4 SUB DUP2 PUSH1 0x0 DUP8 DUP1 EXTCODESIZE ISZERO DUP1 ISZERO PUSH2 0x784 JUMPI PUSH1 0x0 DUP1 REVERT JUMPDEST POP GAS CALL ISZERO DUP1 ISZERO PUSH2 0x798 JUMPI RETURNDATASIZE PUSH1 0x0 DUP1 RETURNDATACOPY RETURNDATASIZE PUSH1 0x0 REVERT JUMPDEST POP POP POP POP PUSH1 0x40 MLOAD RETURNDATASIZE PUSH1 0x1F NOT PUSH1 0x1F DUP3 ADD AND DUP3 ADD DUP1 PUSH1 0x40 MSTORE POP DUP2 ADD SWAP1 PUSH2 0x7BC SWAP2 SWAP1 PUSH2 0x1BCF JUMP JUMPDEST POP PUSH1 0x5 PUSH1 0x0 CALLER PUSH20 0xFFFFFFFFFFFFFFFFFFFFFFFFFFFFFFFFFFFFFFFF AND PUSH20 0xFFFFFFFFFFFFFFFFFFFFFFFFFFFFFFFFFFFFFFFF AND DUP2 MSTORE PUSH1 0x20 ADD SWAP1 DUP2 MSTORE PUSH1 0x20 ADD PUSH1 0x0 KECCAK256 DUP3 SWAP1 DUP1 PUSH1 0x1 DUP2 SLOAD ADD DUP1 DUP3 SSTORE DUP1 SWAP2 POP POP PUSH1 0x1 SWAP1 SUB SWAP1 PUSH1 0x0 MSTORE PUSH1 0x20 PUSH1 0x0 KECCAK256 ADD PUSH1 0x0 SWAP1 SWAP2 SWAP1 SWAP2 SWAP1 SWAP2 POP SWAP1 DUP1 MLOAD SWAP1 PUSH1 0x20 ADD SWAP1 PUSH2 0x835 SWAP3 SWAP2 SWAP1 PUSH2 0x1A61 JUMP JUMPDEST POP PUSH32 0x7246A03EDF415AB10AA2E7868F4768980D024A3A86AB68F98FCC21567C2F26D7 DUP3 DUP3 CALLER PUSH1 0x40 MLOAD PUSH2 0x869 SWAP4 SWAP3 SWAP2 SWAP1 PUSH2 0x2302 JUMP JUMPDEST PUSH1 0x40 MLOAD DUP1 SWAP2 SUB SWAP1 LOG1 POP POP JUMP JUMPDEST PUSH1 0x0 DUP2 GT PUSH2 0x8B8 JUMPI PUSH1 0x40 MLOAD PUSH32 0x8C379A000000000000000000000000000000000000000000000000000000000 DUP2 MSTORE PUSH1 0x4 ADD PUSH2 0x8AF SWAP1 PUSH2 0x241E JUMP JUMPDEST PUSH1 0x40 MLOAD DUP1 SWAP2 SUB SWAP1 REVERT JUMPDEST PUSH2 0x8C0 PUSH2 0x1685 JUMP JUMPDEST DUP2 GT ISZERO PUSH2 0x902 JUMPI PUSH1 0x40 MLOAD PUSH32 0x8C379A000000000000000000000000000000000000000000000000000000000 DUP2 MSTORE PUSH1 0x4 ADD PUSH2 0x8F9 SWAP1 PUSH2 0x247E JUMP JUMPDEST PUSH1 0x40 MLOAD DUP1 SWAP2 SUB SWAP1 REVERT JUMPDEST PUSH1 0x0 DUP1 SLOAD SWAP1 PUSH2 0x100 EXP SWAP1 DIV PUSH20 0xFFFFFFFFFFFFFFFFFFFFFFFFFFFFFFFFFFFFFFFF AND PUSH20 0xFFFFFFFFFFFFFFFFFFFFFFFFFFFFFFFFFFFFFFFF AND PUSH4 0xF490A351 CALLER ADDRESS DUP5 PUSH1 0x40 MLOAD DUP5 PUSH4 0xFFFFFFFF AND PUSH1 0xE0 SHL DUP2 MSTORE PUSH1 0x4 ADD PUSH2 0x95F SWAP4 SWAP3 SWAP2 SWAP1 PUSH2 0x222E JUMP JUMPDEST PUSH1 0x20 PUSH1 0x40 MLOAD DUP1 DUP4 SUB DUP2 PUSH1 0x0 DUP8 DUP1 EXTCODESIZE ISZERO DUP1 ISZERO PUSH2 0x979 JUMPI PUSH1 0x0 DUP1 REVERT JUMPDEST POP GAS CALL ISZERO DUP1 ISZERO PUSH2 0x98D JUMPI RETURNDATASIZE PUSH1 0x0 DUP1 RETURNDATACOPY RETURNDATASIZE PUSH1 0x0 REVERT JUMPDEST POP POP POP POP PUSH1 0x40 MLOAD RETURNDATASIZE PUSH1 0x1F NOT PUSH1 0x1F DUP3 ADD AND DUP3 ADD DUP1 PUSH1 0x40 MSTORE POP DUP2 ADD SWAP1 PUSH2 0x9B1 SWAP2 SWAP1 PUSH2 0x1BCF JUMP JUMPDEST POP CALLER PUSH20 0xFFFFFFFFFFFFFFFFFFFFFFFFFFFFFFFFFFFFFFFF AND PUSH2 0x8FC PUSH2 0x9D5 DUP4 PUSH2 0x1A4D JUMP JUMPDEST SWAP1 DUP2 ISZERO MUL SWAP1 PUSH1 0x40 MLOAD PUSH1 0x0 PUSH1 0x40 MLOAD DUP1 DUP4 SUB DUP2 DUP6 DUP9 DUP9 CALL SWAP4 POP POP POP POP ISZERO DUP1 ISZERO PUSH2 0xA00 JUMPI RETURNDATASIZE PUSH1 0x0 DUP1 RETURNDATACOPY RETURNDATASIZE PUSH1 0x0 REVERT JUMPDEST POP POP JUMP JUMPDEST CALLER PUSH1 0x1 PUSH1 0x0 SWAP1 SLOAD SWAP1 PUSH2 0x100 EXP SWAP1 DIV PUSH20 0xFFFFFFFFFFFFFFFFFFFFFFFFFFFFFFFFFFFFFFFF AND PUSH20 0xFFFFFFFFFFFFFFFFFFFFFFFFFFFFFFFFFFFFFFFF AND DUP2 PUSH20 0xFFFFFFFFFFFFFFFFFFFFFFFFFFFFFFFFFFFFFFFF AND EQ PUSH2 0xA95 JUMPI PUSH1 0x40 MLOAD PUSH32 0x8C379A000000000000000000000000000000000000000000000000000000000 DUP2 MSTORE PUSH1 0x4 ADD PUSH2 0xA8C SWAP1 PUSH2 0x23FE JUMP JUMPDEST PUSH1 0x40 MLOAD DUP1 SWAP2 SUB SWAP1 REVERT JUMPDEST PUSH1 0x40 MLOAD DUP1 PUSH1 0x60 ADD PUSH1 0x40 MSTORE DUP1 DUP5 DUP2 MSTORE PUSH1 0x20 ADD DUP4 DUP2 MSTORE PUSH1 0x20 ADD PUSH1 0x1 ISZERO ISZERO DUP2 MSTORE POP PUSH1 0x6 DUP5 PUSH1 0x40 MLOAD PUSH2 0xAC3 SWAP2 SWAP1 PUSH2 0x21C6 JUMP JUMPDEST SWAP1 DUP2 MSTORE PUSH1 0x20 ADD PUSH1 0x40 MLOAD DUP1 SWAP2 SUB SWAP1 KECCAK256 PUSH1 0x0 DUP3 ADD MLOAD DUP2 PUSH1 0x0 ADD SWAP1 DUP1 MLOAD SWAP1 PUSH1 0x20 ADD SWAP1 PUSH2 0xAED SWAP3 SWAP2 SWAP1 PUSH2 0x1A61 JUMP JUMPDEST POP PUSH1 0x20 DUP3 ADD MLOAD DUP2 PUSH1 0x1 ADD SSTORE PUSH1 0x40 DUP3 ADD MLOAD DUP2 PUSH1 0x2 ADD PUSH1 0x0 PUSH2 0x100 EXP DUP2 SLOAD DUP2 PUSH1 0xFF MUL NOT AND SWAP1 DUP4 ISZERO ISZERO MUL OR SWAP1 SSTORE POP SWAP1 POP POP PUSH1 0x7 DUP4 SWAP1 DUP1 PUSH1 0x1 DUP2 SLOAD ADD DUP1 DUP3 SSTORE DUP1 SWAP2 POP POP PUSH1 0x1 SWAP1 SUB SWAP1 PUSH1 0x0 MSTORE PUSH1 0x20 PUSH1 0x0 KECCAK256 ADD PUSH1 0x0 SWAP1 SWAP2 SWAP1 SWAP2 SWAP1 SWAP2 POP SWAP1 DUP1 MLOAD SWAP1 PUSH1 0x20 ADD SWAP1 PUSH2 0xB56 SWAP3 SWAP2 SWAP1 PUSH2 0x1A61 JUMP JUMPDEST POP PUSH32 0x4822082A8FC27E02F7551BBA1D63C9AA17637AA764B17878BAC1197DDD4C6028 DUP4 DUP4 PUSH1 0x40 MLOAD PUSH2 0xB88 SWAP3 SWAP2 SWAP1 PUSH2 0x22D2 JUMP JUMPDEST PUSH1 0x40 MLOAD DUP1 SWAP2 SUB SWAP1 LOG1 POP POP POP JUMP JUMPDEST PUSH1 0x60 PUSH1 0x5 PUSH1 0x0 CALLER PUSH20 0xFFFFFFFFFFFFFFFFFFFFFFFFFFFFFFFFFFFFFFFF AND PUSH20 0xFFFFFFFFFFFFFFFFFFFFFFFFFFFFFFFFFFFFFFFF AND DUP2 MSTORE PUSH1 0x20 ADD SWAP1 DUP2 MSTORE PUSH1 0x20 ADD PUSH1 0x0 KECCAK256 DUP1 SLOAD DUP1 PUSH1 0x20 MUL PUSH1 0x20 ADD PUSH1 0x40 MLOAD SWAP1 DUP2 ADD PUSH1 0x40 MSTORE DUP1 SWAP3 SWAP2 SWAP1 DUP2 DUP2 MSTORE PUSH1 0x20 ADD PUSH1 0x0 SWAP1 JUMPDEST DUP3 DUP3 LT ISZERO PUSH2 0xCB2 JUMPI DUP4 DUP3 SWAP1 PUSH1 0x0 MSTORE PUSH1 0x20 PUSH1 0x0 KECCAK256 ADD DUP1 SLOAD PUSH1 0x1 DUP2 PUSH1 0x1 AND ISZERO PUSH2 0x100 MUL SUB AND PUSH1 0x2 SWAP1 DIV DUP1 PUSH1 0x1F ADD PUSH1 0x20 DUP1 SWAP2 DIV MUL PUSH1 0x20 ADD PUSH1 0x40 MLOAD SWAP1 DUP2 ADD PUSH1 0x40 MSTORE DUP1 SWAP3 SWAP2 SWAP1 DUP2 DUP2 MSTORE PUSH1 0x20 ADD DUP3 DUP1 SLOAD PUSH1 0x1 DUP2 PUSH1 0x1 AND ISZERO PUSH2 0x100 MUL SUB AND PUSH1 0x2 SWAP1 DIV DUP1 ISZERO PUSH2 0xC9E JUMPI DUP1 PUSH1 0x1F LT PUSH2 0xC73 JUMPI PUSH2 0x100 DUP1 DUP4 SLOAD DIV MUL DUP4 MSTORE SWAP2 PUSH1 0x20 ADD SWAP2 PUSH2 0xC9E JUMP JUMPDEST DUP3 ADD SWAP2 SWAP1 PUSH1 0x0 MSTORE PUSH1 0x20 PUSH1 0x0 KECCAK256 SWAP1 JUMPDEST DUP2 SLOAD DUP2 MSTORE SWAP1 PUSH1 0x1 ADD SWAP1 PUSH1 0x20 ADD DUP1 DUP4 GT PUSH2 0xC81 JUMPI DUP3 SWAP1 SUB PUSH1 0x1F AND DUP3 ADD SWAP2 JUMPDEST POP POP POP POP POP DUP2 MSTORE PUSH1 0x20 ADD SWAP1 PUSH1 0x1 ADD SWAP1 PUSH2 0xBF6 JUMP JUMPDEST POP POP POP POP SWAP1 POP SWAP1 JUMP JUMPDEST PUSH1 0x60 PUSH1 0x4 DUP1 SLOAD DUP1 PUSH1 0x20 MUL PUSH1 0x20 ADD PUSH1 0x40 MLOAD SWAP1 DUP2 ADD PUSH1 0x40 MSTORE DUP1 SWAP3 SWAP2 SWAP1 DUP2 DUP2 MSTORE PUSH1 0x20 ADD PUSH1 0x0 SWAP1 JUMPDEST DUP3 DUP3 LT ISZERO PUSH2 0xD9B JUMPI DUP4 DUP3 SWAP1 PUSH1 0x0 MSTORE PUSH1 0x20 PUSH1 0x0 KECCAK256 ADD DUP1 SLOAD PUSH1 0x1 DUP2 PUSH1 0x1 AND ISZERO PUSH2 0x100 MUL SUB AND PUSH1 0x2 SWAP1 DIV DUP1 PUSH1 0x1F ADD PUSH1 0x20 DUP1 SWAP2 DIV MUL PUSH1 0x20 ADD PUSH1 0x40 MLOAD SWAP1 DUP2 ADD PUSH1 0x40 MSTORE DUP1 SWAP3 SWAP2 SWAP1 DUP2 DUP2 MSTORE PUSH1 0x20 ADD DUP3 DUP1 SLOAD PUSH1 0x1 DUP2 PUSH1 0x1 AND ISZERO PUSH2 0x100 MUL SUB AND PUSH1 0x2 SWAP1 DIV DUP1 ISZERO PUSH2 0xD87 JUMPI DUP1 PUSH1 0x1F LT PUSH2 0xD5C JUMPI PUSH2 0x100 DUP1 DUP4 SLOAD DIV MUL DUP4 MSTORE SWAP2 PUSH1 0x20 ADD SWAP2 PUSH2 0xD87 JUMP JUMPDEST DUP3 ADD SWAP2 SWAP1 PUSH1 0x0 MSTORE PUSH1 0x20 PUSH1 0x0 KECCAK256 SWAP1 JUMPDEST DUP2 SLOAD DUP2 MSTORE SWAP1 PUSH1 0x1 ADD SWAP1 PUSH1 0x20 ADD DUP1 DUP4 GT PUSH2 0xD6A JUMPI DUP3 SWAP1 SUB PUSH1 0x1F AND DUP3 ADD SWAP2 JUMPDEST POP POP POP POP POP DUP2 MSTORE PUSH1 0x20 ADD SWAP1 PUSH1 0x1 ADD SWAP1 PUSH2 0xCDF JUMP JUMPDEST POP POP POP POP SWAP1 POP SWAP1 JUMP JUMPDEST CALLER PUSH1 0x1 PUSH1 0x0 SWAP1 SLOAD SWAP1 PUSH2 0x100 EXP SWAP1 DIV PUSH20 0xFFFFFFFFFFFFFFFFFFFFFFFFFFFFFFFFFFFFFFFF AND PUSH20 0xFFFFFFFFFFFFFFFFFFFFFFFFFFFFFFFFFFFFFFFF AND DUP2 PUSH20 0xFFFFFFFFFFFFFFFFFFFFFFFFFFFFFFFFFFFFFFFF AND EQ PUSH2 0xE35 JUMPI PUSH1 0x40 MLOAD PUSH32 0x8C379A000000000000000000000000000000000000000000000000000000000 DUP2 MSTORE PUSH1 0x4 ADD PUSH2 0xE2C SWAP1 PUSH2 0x23FE JUMP JUMPDEST PUSH1 0x40 MLOAD DUP1 SWAP2 SUB SWAP1 REVERT JUMPDEST PUSH1 0x40 MLOAD DUP1 PUSH1 0x60 ADD PUSH1 0x40 MSTORE DUP1 DUP5 DUP2 MSTORE PUSH1 0x20 ADD DUP4 DUP2 MSTORE PUSH1 0x20 ADD PUSH1 0x1 ISZERO ISZERO DUP2 MSTORE POP PUSH1 0x3 DUP5 PUSH1 0x40 MLOAD PUSH2 0xE63 SWAP2 SWAP1 PUSH2 0x21C6 JUMP JUMPDEST SWAP1 DUP2 MSTORE PUSH1 0x20 ADD PUSH1 0x40 MLOAD DUP1 SWAP2 SUB SWAP1 KECCAK256 PUSH1 0x0 DUP3 ADD MLOAD DUP2 PUSH1 0x0 ADD SWAP1 DUP1 MLOAD SWAP1 PUSH1 0x20 ADD SWAP1 PUSH2 0xE8D SWAP3 SWAP2 SWAP1 PUSH2 0x1A61 JUMP JUMPDEST POP PUSH1 0x20 DUP3 ADD MLOAD DUP2 PUSH1 0x1 ADD SSTORE PUSH1 0x40 DUP3 ADD MLOAD DUP2 PUSH1 0x2 ADD PUSH1 0x0 PUSH2 0x100 EXP DUP2 SLOAD DUP2 PUSH1 0xFF MUL NOT AND SWAP1 DUP4 ISZERO ISZERO MUL OR SWAP1 SSTORE POP SWAP1 POP POP PUSH1 0x4 DUP4 SWAP1 DUP1 PUSH1 0x1 DUP2 SLOAD ADD DUP1 DUP3 SSTORE DUP1 SWAP2 POP POP PUSH1 0x1 SWAP1 SUB SWAP1 PUSH1 0x0 MSTORE PUSH1 0x20 PUSH1 0x0 KECCAK256 ADD PUSH1 0x0 SWAP1 SWAP2 SWAP1 SWAP2 SWAP1 SWAP2 POP SWAP1 DUP1 MLOAD SWAP1 PUSH1 0x20 ADD SWAP1 PUSH2 0xEF6 SWAP3 SWAP2 SWAP1 PUSH2 0x1A61 JUMP JUMPDEST POP PUSH32 0xEF69C38FE63A06C66BF59A6EEDC8716EBA333ED78488E0B767455A9CF2EECBB3 DUP4 DUP4 PUSH1 0x40 MLOAD PUSH2 0xF28 SWAP3 SWAP2 SWAP1 PUSH2 0x22D2 JUMP JUMPDEST PUSH1 0x40 MLOAD DUP1 SWAP2 SUB SWAP1 LOG1 POP POP POP JUMP JUMPDEST PUSH1 0x0 PUSH1 0x6 DUP3 PUSH1 0x40 MLOAD PUSH2 0xF47 SWAP2 SWAP1 PUSH2 0x21C6 JUMP JUMPDEST SWAP1 DUP2 MSTORE PUSH1 0x20 ADD PUSH1 0x40 MLOAD DUP1 SWAP2 SUB SWAP1 KECCAK256 PUSH1 0x1 ADD SLOAD SWAP1 POP PUSH1 0x1 ISZERO ISZERO PUSH1 0x6 DUP4 PUSH1 0x40 MLOAD PUSH2 0xF6F SWAP2 SWAP1 PUSH2 0x21C6 JUMP JUMPDEST SWAP1 DUP2 MSTORE PUSH1 0x20 ADD PUSH1 0x40 MLOAD DUP1 SWAP2 SUB SWAP1 KECCAK256 PUSH1 0x2 ADD PUSH1 0x0 SWAP1 SLOAD SWAP1 PUSH2 0x100 EXP SWAP1 DIV PUSH1 0xFF AND ISZERO ISZERO EQ PUSH2 0xFD0 JUMPI PUSH1 0x40 MLOAD PUSH32 0x8C379A000000000000000000000000000000000000000000000000000000000 DUP2 MSTORE PUSH1 0x4 ADD PUSH2 0xFC7 SWAP1 PUSH2 0x237E JUMP JUMPDEST PUSH1 0x40 MLOAD DUP1 SWAP2 SUB SWAP1 REVERT JUMPDEST PUSH2 0xFD8 PUSH2 0x1685 JUMP JUMPDEST DUP2 GT ISZERO PUSH2 0x101A JUMPI PUSH1 0x40 MLOAD PUSH32 0x8C379A000000000000000000000000000000000000000000000000000000000 DUP2 MSTORE PUSH1 0x4 ADD PUSH2 0x1011 SWAP1 PUSH2 0x239E JUMP JUMPDEST PUSH1 0x40 MLOAD DUP1 SWAP2 SUB SWAP1 REVERT JUMPDEST PUSH1 0x0 DUP1 SLOAD SWAP1 PUSH2 0x100 EXP SWAP1 DIV PUSH20 0xFFFFFFFFFFFFFFFFFFFFFFFFFFFFFFFFFFFFFFFF AND PUSH20 0xFFFFFFFFFFFFFFFFFFFFFFFFFFFFFFFFFFFFFFFF AND PUSH4 0xF490A351 CALLER ADDRESS DUP5 PUSH1 0x40 MLOAD DUP5 PUSH4 0xFFFFFFFF AND PUSH1 0xE0 SHL DUP2 MSTORE PUSH1 0x4 ADD PUSH2 0x1077 SWAP4 SWAP3 SWAP2 SWAP1 PUSH2 0x222E JUMP JUMPDEST PUSH1 0x20 PUSH1 0x40 MLOAD DUP1 DUP4 SUB DUP2 PUSH1 0x0 DUP8 DUP1 EXTCODESIZE ISZERO DUP1 ISZERO PUSH2 0x1091 JUMPI PUSH1 0x0 DUP1 REVERT JUMPDEST POP GAS CALL ISZERO DUP1 ISZERO PUSH2 0x10A5 JUMPI RETURNDATASIZE PUSH1 0x0 DUP1 RETURNDATACOPY RETURNDATASIZE PUSH1 0x0 REVERT JUMPDEST POP POP POP POP PUSH1 0x40 MLOAD RETURNDATASIZE PUSH1 0x1F NOT PUSH1 0x1F DUP3 ADD AND DUP3 ADD DUP1 PUSH1 0x40 MSTORE POP DUP2 ADD SWAP1 PUSH2 0x10C9 SWAP2 SWAP1 PUSH2 0x1BCF JUMP JUMPDEST POP PUSH1 0x8 PUSH1 0x0 CALLER PUSH20 0xFFFFFFFFFFFFFFFFFFFFFFFFFFFFFFFFFFFFFFFF AND PUSH20 0xFFFFFFFFFFFFFFFFFFFFFFFFFFFFFFFFFFFFFFFF AND DUP2 MSTORE PUSH1 0x20 ADD SWAP1 DUP2 MSTORE PUSH1 0x20 ADD PUSH1 0x0 KECCAK256 DUP3 SWAP1 DUP1 PUSH1 0x1 DUP2 SLOAD ADD DUP1 DUP3 SSTORE DUP1 SWAP2 POP POP PUSH1 0x1 SWAP1 SUB SWAP1 PUSH1 0x0 MSTORE PUSH1 0x20 PUSH1 0x0 KECCAK256 ADD PUSH1 0x0 SWAP1 SWAP2 SWAP1 SWAP2 SWAP1 SWAP2 POP SWAP1 DUP1 MLOAD SWAP1 PUSH1 0x20 ADD SWAP1 PUSH2 0x1142 SWAP3 SWAP2 SWAP1 PUSH2 0x1A61 JUMP JUMPDEST POP PUSH32 0x38575F00C411070BE2DC99A8B04EB4AEBA192B4C7CCBB587AA4227D5398FF1CB DUP3 DUP3 CALLER PUSH1 0x40 MLOAD PUSH2 0x1176 SWAP4 SWAP3 SWAP2 SWAP1 PUSH2 0x2302 JUMP JUMPDEST PUSH1 0x40 MLOAD DUP1 SWAP2 SUB SWAP1 LOG1 POP POP JUMP JUMPDEST PUSH1 0x1 PUSH1 0x0 SWAP1 SLOAD SWAP1 PUSH2 0x100 EXP SWAP1 DIV PUSH20 0xFFFFFFFFFFFFFFFFFFFFFFFFFFFFFFFFFFFFFFFF AND DUP2 JUMP JUMPDEST PUSH1 0x60 PUSH1 0x7 DUP1 SLOAD DUP1 PUSH1 0x20 MUL PUSH1 0x20 ADD PUSH1 0x40 MLOAD SWAP1 DUP2 ADD PUSH1 0x40 MSTORE DUP1 SWAP3 SWAP2 SWAP1 DUP2 DUP2 MSTORE PUSH1 0x20 ADD PUSH1 0x0 SWAP1 JUMPDEST DUP3 DUP3 LT ISZERO PUSH2 0x1288 JUMPI DUP4 DUP3 SWAP1 PUSH1 0x0 MSTORE PUSH1 0x20 PUSH1 0x0 KECCAK256 ADD DUP1 SLOAD PUSH1 0x1 DUP2 PUSH1 0x1 AND ISZERO PUSH2 0x100 MUL SUB AND PUSH1 0x2 SWAP1 DIV DUP1 PUSH1 0x1F ADD PUSH1 0x20 DUP1 SWAP2 DIV MUL PUSH1 0x20 ADD PUSH1 0x40 MLOAD SWAP1 DUP2 ADD PUSH1 0x40 MSTORE DUP1 SWAP3 SWAP2 SWAP1 DUP2 DUP2 MSTORE PUSH1 0x20 ADD DUP3 DUP1 SLOAD PUSH1 0x1 DUP2 PUSH1 0x1 AND ISZERO PUSH2 0x100 MUL SUB AND PUSH1 0x2 SWAP1 DIV DUP1 ISZERO PUSH2 0x1274 JUMPI DUP1 PUSH1 0x1F LT PUSH2 0x1249 JUMPI PUSH2 0x100 DUP1 DUP4 SLOAD DIV MUL DUP4 MSTORE SWAP2 PUSH1 0x20 ADD SWAP2 PUSH2 0x1274 JUMP JUMPDEST DUP3 ADD SWAP2 SWAP1 PUSH1 0x0 MSTORE PUSH1 0x20 PUSH1 0x0 KECCAK256 SWAP1 JUMPDEST DUP2 SLOAD DUP2 MSTORE SWAP1 PUSH1 0x1 ADD SWAP1 PUSH1 0x20 ADD DUP1 DUP4 GT PUSH2 0x1257 JUMPI DUP3 SWAP1 SUB PUSH1 0x1F AND DUP3 ADD SWAP2 JUMPDEST POP POP POP POP POP DUP2 MSTORE PUSH1 0x20 ADD SWAP1 PUSH1 0x1 ADD SWAP1 PUSH2 0x11CC JUMP JUMPDEST POP POP POP POP SWAP1 POP SWAP1 JUMP JUMPDEST CALLER PUSH1 0x1 PUSH1 0x0 SWAP1 SLOAD SWAP1 PUSH2 0x100 EXP SWAP1 DIV PUSH20 0xFFFFFFFFFFFFFFFFFFFFFFFFFFFFFFFFFFFFFFFF AND PUSH20 0xFFFFFFFFFFFFFFFFFFFFFFFFFFFFFFFFFFFFFFFF AND DUP2 PUSH20 0xFFFFFFFFFFFFFFFFFFFFFFFFFFFFFFFFFFFFFFFF AND EQ PUSH2 0x1322 JUMPI PUSH1 0x40 MLOAD PUSH32 0x8C379A000000000000000000000000000000000000000000000000000000000 DUP2 MSTORE PUSH1 0x4 ADD PUSH2 0x1319 SWAP1 PUSH2 0x23FE JUMP JUMPDEST PUSH1 0x40 MLOAD DUP1 SWAP2 SUB SWAP1 REVERT JUMPDEST PUSH1 0x0 PUSH1 0x3 DUP4 PUSH1 0x40 MLOAD PUSH2 0x1334 SWAP2 SWAP1 PUSH2 0x21C6 JUMP JUMPDEST SWAP1 DUP2 MSTORE PUSH1 0x20 ADD PUSH1 0x40 MLOAD DUP1 SWAP2 SUB SWAP1 KECCAK256 PUSH1 0x2 ADD PUSH1 0x0 PUSH2 0x100 EXP DUP2 SLOAD DUP2 PUSH1 0xFF MUL NOT AND SWAP1 DUP4 ISZERO ISZERO MUL OR SWAP1 SSTORE POP PUSH32 0x24BA6C881728980191398DB8DCFD8ED4F6AEB1C08DF349D63F3B85075F3E86DD DUP3 PUSH1 0x40 MLOAD PUSH2 0x138B SWAP2 SWAP1 PUSH2 0x22B0 JUMP JUMPDEST PUSH1 0x40 MLOAD DUP1 SWAP2 SUB SWAP1 LOG1 POP POP JUMP JUMPDEST PUSH1 0x2 PUSH1 0x20 MSTORE DUP1 PUSH1 0x0 MSTORE PUSH1 0x40 PUSH1 0x0 KECCAK256 PUSH1 0x0 SWAP2 POP SWAP1 POP DUP1 PUSH1 0x0 ADD SLOAD SWAP1 POP DUP2 JUMP JUMPDEST PUSH1 0x3 DUP2 DUP1 MLOAD PUSH1 0x20 DUP2 ADD DUP3 ADD DUP1 MLOAD DUP5 DUP3 MSTORE PUSH1 0x20 DUP4 ADD PUSH1 0x20 DUP6 ADD KECCAK256 DUP2 DUP4 MSTORE DUP1 SWAP6 POP POP POP POP POP POP PUSH1 0x0 SWAP2 POP SWAP1 POP DUP1 PUSH1 0x0 ADD DUP1 SLOAD PUSH1 0x1 DUP2 PUSH1 0x1 AND ISZERO PUSH2 0x100 MUL SUB AND PUSH1 0x2 SWAP1 DIV DUP1 PUSH1 0x1F ADD PUSH1 0x20 DUP1 SWAP2 DIV MUL PUSH1 0x20 ADD PUSH1 0x40 MLOAD SWAP1 DUP2 ADD PUSH1 0x40 MSTORE DUP1 SWAP3 SWAP2 SWAP1 DUP2 DUP2 MSTORE PUSH1 0x20 ADD DUP3 DUP1 SLOAD PUSH1 0x1 DUP2 PUSH1 0x1 AND ISZERO PUSH2 0x100 MUL SUB AND PUSH1 0x2 SWAP1 DIV DUP1 ISZERO PUSH2 0x1477 JUMPI DUP1 PUSH1 0x1F LT PUSH2 0x144C JUMPI PUSH2 0x100 DUP1 DUP4 SLOAD DIV MUL DUP4 MSTORE SWAP2 PUSH1 0x20 ADD SWAP2 PUSH2 0x1477 JUMP JUMPDEST DUP3 ADD SWAP2 SWAP1 PUSH1 0x0 MSTORE PUSH1 0x20 PUSH1 0x0 KECCAK256 SWAP1 JUMPDEST DUP2 SLOAD DUP2 MSTORE SWAP1 PUSH1 0x1 ADD SWAP1 PUSH1 0x20 ADD DUP1 DUP4 GT PUSH2 0x145A JUMPI DUP3 SWAP1 SUB PUSH1 0x1F AND DUP3 ADD SWAP2 JUMPDEST POP POP POP POP POP SWAP1 DUP1 PUSH1 0x1 ADD SLOAD SWAP1 DUP1 PUSH1 0x2 ADD PUSH1 0x0 SWAP1 SLOAD SWAP1 PUSH2 0x100 EXP SWAP1 DIV PUSH1 0xFF AND SWAP1 POP DUP4 JUMP JUMPDEST PUSH1 0x6 DUP2 DUP1 MLOAD PUSH1 0x20 DUP2 ADD DUP3 ADD DUP1 MLOAD DUP5 DUP3 MSTORE PUSH1 0x20 DUP4 ADD PUSH1 0x20 DUP6 ADD KECCAK256 DUP2 DUP4 MSTORE DUP1 SWAP6 POP POP POP POP POP POP PUSH1 0x0 SWAP2 POP SWAP1 POP DUP1 PUSH1 0x0 ADD DUP1 SLOAD PUSH1 0x1 DUP2 PUSH1 0x1 AND ISZERO PUSH2 0x100 MUL SUB AND PUSH1 0x2 SWAP1 DIV DUP1 PUSH1 0x1F ADD PUSH1 0x20 DUP1 SWAP2 DIV MUL PUSH1 0x20 ADD PUSH1 0x40 MLOAD SWAP1 DUP2 ADD PUSH1 0x40 MSTORE DUP1 SWAP3 SWAP2 SWAP1 DUP2 DUP2 MSTORE PUSH1 0x20 ADD DUP3 DUP1 SLOAD PUSH1 0x1 DUP2 PUSH1 0x1 AND ISZERO PUSH2 0x100 MUL SUB AND PUSH1 0x2 SWAP1 DIV DUP1 ISZERO PUSH2 0x155C JUMPI DUP1 PUSH1 0x1F LT PUSH2 0x1531 JUMPI PUSH2 0x100 DUP1 DUP4 SLOAD DIV MUL DUP4 MSTORE SWAP2 PUSH1 0x20 ADD SWAP2 PUSH2 0x155C JUMP JUMPDEST DUP3 ADD SWAP2 SWAP1 PUSH1 0x0 MSTORE PUSH1 0x20 PUSH1 0x0 KECCAK256 SWAP1 JUMPDEST DUP2 SLOAD DUP2 MSTORE SWAP1 PUSH1 0x1 ADD SWAP1 PUSH1 0x20 ADD DUP1 DUP4 GT PUSH2 0x153F JUMPI DUP3 SWAP1 SUB PUSH1 0x1F AND DUP3 ADD SWAP2 JUMPDEST POP POP POP POP POP SWAP1 DUP1 PUSH1 0x1 ADD SLOAD SWAP1 DUP1 PUSH1 0x2 ADD PUSH1 0x0 SWAP1 SLOAD SWAP1 PUSH2 0x100 EXP SWAP1 DIV PUSH1 0xFF AND SWAP1 POP DUP4 JUMP JUMPDEST CALLER PUSH1 0x1 PUSH1 0x0 SWAP1 SLOAD SWAP1 PUSH2 0x100 EXP SWAP1 DIV PUSH20 0xFFFFFFFFFFFFFFFFFFFFFFFFFFFFFFFFFFFFFFFF AND PUSH20 0xFFFFFFFFFFFFFFFFFFFFFFFFFFFFFFFFFFFFFFFF AND DUP2 PUSH20 0xFFFFFFFFFFFFFFFFFFFFFFFFFFFFFFFFFFFFFFFF AND EQ PUSH2 0x1610 JUMPI PUSH1 0x40 MLOAD PUSH32 0x8C379A000000000000000000000000000000000000000000000000000000000 DUP2 MSTORE PUSH1 0x4 ADD PUSH2 0x1607 SWAP1 PUSH2 0x23FE JUMP JUMPDEST PUSH1 0x40 MLOAD DUP1 SWAP2 SUB SWAP1 REVERT JUMPDEST PUSH1 0x0 PUSH1 0x6 DUP4 PUSH1 0x40 MLOAD PUSH2 0x1622 SWAP2 SWAP1 PUSH2 0x21C6 JUMP JUMPDEST SWAP1 DUP2 MSTORE PUSH1 0x20 ADD PUSH1 0x40 MLOAD DUP1 SWAP2 SUB SWAP1 KECCAK256 PUSH1 0x2 ADD PUSH1 0x0 PUSH2 0x100 EXP DUP2 SLOAD DUP2 PUSH1 0xFF MUL NOT AND SWAP1 DUP4 ISZERO ISZERO MUL OR SWAP1 SSTORE POP PUSH32 0xC08B02EC29B10837B03BA712BE7196CCD02824C57A727DBD6C9718051C9437C6 DUP3 PUSH1 0x40 MLOAD PUSH2 0x1679 SWAP2 SWAP1 PUSH2 0x22B0 JUMP JUMPDEST PUSH1 0x40 MLOAD DUP1 SWAP2 SUB SWAP1 LOG1 POP POP JUMP JUMPDEST PUSH1 0x0 DUP1 PUSH1 0x0 SWAP1 SLOAD SWAP1 PUSH2 0x100 EXP SWAP1 DIV PUSH20 0xFFFFFFFFFFFFFFFFFFFFFFFFFFFFFFFFFFFFFFFF AND PUSH20 0xFFFFFFFFFFFFFFFFFFFFFFFFFFFFFFFFFFFFFFFF AND PUSH4 0x70A08231 CALLER PUSH1 0x40 MLOAD DUP3 PUSH4 0xFFFFFFFF AND PUSH1 0xE0 SHL DUP2 MSTORE PUSH1 0x4 ADD PUSH2 0x16E1 SWAP2 SWAP1 PUSH2 0x21F8 JUMP JUMPDEST PUSH1 0x20 PUSH1 0x40 MLOAD DUP1 DUP4 SUB DUP2 DUP7 DUP1 EXTCODESIZE ISZERO DUP1 ISZERO PUSH2 0x16F9 JUMPI PUSH1 0x0 DUP1 REVERT JUMPDEST POP GAS STATICCALL ISZERO DUP1 ISZERO PUSH2 0x170D JUMPI RETURNDATASIZE PUSH1 0x0 DUP1 RETURNDATACOPY RETURNDATASIZE PUSH1 0x0 REVERT JUMPDEST POP POP POP POP PUSH1 0x40 MLOAD RETURNDATASIZE PUSH1 0x1F NOT PUSH1 0x1F DUP3 ADD AND DUP3 ADD DUP1 PUSH1 0x40 MSTORE POP DUP2 ADD SWAP1 PUSH2 0x1731 SWAP2 SWAP1 PUSH2 0x1CB6 JUMP JUMPDEST SWAP1 POP SWAP1 JUMP JUMPDEST PUSH1 0x60 PUSH1 0x8 PUSH1 0x0 CALLER PUSH20 0xFFFFFFFFFFFFFFFFFFFFFFFFFFFFFFFFFFFFFFFF AND PUSH20 0xFFFFFFFFFFFFFFFFFFFFFFFFFFFFFFFFFFFFFFFF AND DUP2 MSTORE PUSH1 0x20 ADD SWAP1 DUP2 MSTORE PUSH1 0x20 ADD PUSH1 0x0 KECCAK256 DUP1 SLOAD DUP1 PUSH1 0x20 MUL PUSH1 0x20 ADD PUSH1 0x40 MLOAD SWAP1 DUP2 ADD PUSH1 0x40 MSTORE DUP1 SWAP3 SWAP2 SWAP1 DUP2 DUP2 MSTORE PUSH1 0x20 ADD PUSH1 0x0 SWAP1 JUMPDEST DUP3 DUP3 LT ISZERO PUSH2 0x1853 JUMPI DUP4 DUP3 SWAP1 PUSH1 0x0 MSTORE PUSH1 0x20 PUSH1 0x0 KECCAK256 ADD DUP1 SLOAD PUSH1 0x1 DUP2 PUSH1 0x1 AND ISZERO PUSH2 0x100 MUL SUB AND PUSH1 0x2 SWAP1 DIV DUP1 PUSH1 0x1F ADD PUSH1 0x20 DUP1 SWAP2 DIV MUL PUSH1 0x20 ADD PUSH1 0x40 MLOAD SWAP1 DUP2 ADD PUSH1 0x40 MSTORE DUP1 SWAP3 SWAP2 SWAP1 DUP2 DUP2 MSTORE PUSH1 0x20 ADD DUP3 DUP1 SLOAD PUSH1 0x1 DUP2 PUSH1 0x1 AND ISZERO PUSH2 0x100 MUL SUB AND PUSH1 0x2 SWAP1 DIV DUP1 ISZERO PUSH2 0x183F JUMPI DUP1 PUSH1 0x1F LT PUSH2 0x1814 JUMPI PUSH2 0x100 DUP1 DUP4 SLOAD DIV MUL DUP4 MSTORE SWAP2 PUSH1 0x20 ADD SWAP2 PUSH2 0x183F JUMP JUMPDEST DUP3 ADD SWAP2 SWAP1 PUSH1 0x0 MSTORE PUSH1 0x20 PUSH1 0x0 KECCAK256 SWAP1 JUMPDEST DUP2 SLOAD DUP2 MSTORE SWAP1 PUSH1 0x1 ADD SWAP1 PUSH1 0x20 ADD DUP1 DUP4 GT PUSH2 0x1822 JUMPI DUP3 SWAP1 SUB PUSH1 0x1F AND DUP3 ADD SWAP2 JUMPDEST POP POP POP POP POP DUP2 MSTORE PUSH1 0x20 ADD SWAP1 PUSH1 0x1 ADD SWAP1 PUSH2 0x1797 JUMP JUMPDEST POP POP POP POP SWAP1 POP SWAP1 JUMP JUMPDEST PUSH1 0x0 PUSH2 0x1867 DUP3 PUSH2 0x1A4D JUMP JUMPDEST SWAP1 POP DUP1 CALLVALUE LT ISZERO PUSH2 0x18AC JUMPI PUSH1 0x40 MLOAD PUSH32 0x8C379A000000000000000000000000000000000000000000000000000000000 DUP2 MSTORE PUSH1 0x4 ADD PUSH2 0x18A3 SWAP1 PUSH2 0x243E JUMP JUMPDEST PUSH1 0x40 MLOAD DUP1 SWAP2 SUB SWAP1 REVERT JUMPDEST PUSH1 0x0 DUP2 CALLVALUE SUB SWAP1 POP CALLER PUSH20 0xFFFFFFFFFFFFFFFFFFFFFFFFFFFFFFFFFFFFFFFF AND PUSH2 0x8FC DUP3 SWAP1 DUP2 ISZERO MUL SWAP1 PUSH1 0x40 MLOAD PUSH1 0x0 PUSH1 0x40 MLOAD DUP1 DUP4 SUB DUP2 DUP6 DUP9 DUP9 CALL SWAP4 POP POP POP POP ISZERO DUP1 ISZERO PUSH2 0x18F9 JUMPI RETURNDATASIZE PUSH1 0x0 DUP1 RETURNDATACOPY RETURNDATASIZE PUSH1 0x0 REVERT JUMPDEST POP PUSH1 0x0 PUSH2 0x1904 PUSH2 0x457 JUMP JUMPDEST SWAP1 POP DUP1 DUP5 GT ISZERO PUSH2 0x1949 JUMPI PUSH1 0x40 MLOAD PUSH32 0x8C379A000000000000000000000000000000000000000000000000000000000 DUP2 MSTORE PUSH1 0x4 ADD PUSH2 0x1940 SWAP1 PUSH2 0x245E JUMP JUMPDEST PUSH1 0x40 MLOAD DUP1 SWAP2 SUB SWAP1 REVERT JUMPDEST PUSH1 0x0 DUP1 SLOAD SWAP1 PUSH2 0x100 EXP SWAP1 DIV PUSH20 0xFFFFFFFFFFFFFFFFFFFFFFFFFFFFFFFFFFFFFFFF AND PUSH20 0xFFFFFFFFFFFFFFFFFFFFFFFFFFFFFFFFFFFFFFFF AND PUSH4 0xA9059CBB CALLER DUP7 PUSH1 0x40 MLOAD DUP4 PUSH4 0xFFFFFFFF AND PUSH1 0xE0 SHL DUP2 MSTORE PUSH1 0x4 ADD PUSH2 0x19A4 SWAP3 SWAP2 SWAP1 PUSH2 0x2265 JUMP JUMPDEST PUSH1 0x20 PUSH1 0x40 MLOAD DUP1 DUP4 SUB DUP2 PUSH1 0x0 DUP8 DUP1 EXTCODESIZE ISZERO DUP1 ISZERO PUSH2 0x19BE JUMPI PUSH1 0x0 DUP1 REVERT JUMPDEST POP GAS CALL ISZERO DUP1 ISZERO PUSH2 0x19D2 JUMPI RETURNDATASIZE PUSH1 0x0 DUP1 RETURNDATACOPY RETURNDATASIZE PUSH1 0x0 REVERT JUMPDEST POP POP POP POP PUSH1 0x40 MLOAD RETURNDATASIZE PUSH1 0x1F NOT PUSH1 0x1F DUP3 ADD AND DUP3 ADD DUP1 PUSH1 0x40 MSTORE POP DUP2 ADD SWAP1 PUSH2 0x19F6 SWAP2 SWAP1 PUSH2 0x1BCF JUMP JUMPDEST POP DUP4 PUSH1 0x2 PUSH1 0x0 CALLER PUSH20 0xFFFFFFFFFFFFFFFFFFFFFFFFFFFFFFFFFFFFFFFF AND PUSH20 0xFFFFFFFFFFFFFFFFFFFFFFFFFFFFFFFFFFFFFFFF AND DUP2 MSTORE PUSH1 0x20 ADD SWAP1 DUP2 MSTORE PUSH1 0x20 ADD PUSH1 0x0 KECCAK256 PUSH1 0x0 ADD PUSH1 0x0 DUP3 DUP3 SLOAD ADD SWAP3 POP POP DUP2 SWAP1 SSTORE POP POP POP POP POP JUMP JUMPDEST PUSH1 0x0 PUSH8 0x16345785D8A0000 DUP3 MUL SWAP1 POP SWAP2 SWAP1 POP JUMP JUMPDEST DUP3 DUP1 SLOAD PUSH1 0x1 DUP2 PUSH1 0x1 AND ISZERO PUSH2 0x100 MUL SUB AND PUSH1 0x2 SWAP1 DIV SWAP1 PUSH1 0x0 MSTORE PUSH1 0x20 PUSH1 0x0 KECCAK256 SWAP1 PUSH1 0x1F ADD PUSH1 0x20 SWAP1 DIV DUP2 ADD SWAP3 DUP3 PUSH1 0x1F LT PUSH2 0x1AA2 JUMPI DUP1 MLOAD PUSH1 0xFF NOT AND DUP4 DUP1 ADD OR DUP6 SSTORE PUSH2 0x1AD0 JUMP JUMPDEST DUP3 DUP1 ADD PUSH1 0x1 ADD DUP6 SSTORE DUP3 ISZERO PUSH2 0x1AD0 JUMPI SWAP2 DUP3 ADD JUMPDEST DUP3 DUP2 GT ISZERO PUSH2 0x1ACF JUMPI DUP3 MLOAD DUP3 SSTORE SWAP2 PUSH1 0x20 ADD SWAP2 SWAP1 PUSH1 0x1 ADD SWAP1 PUSH2 0x1AB4 JUMP JUMPDEST JUMPDEST POP SWAP1 POP PUSH2 0x1ADD SWAP2 SWAP1 PUSH2 0x1AE1 JUMP JUMPDEST POP SWAP1 JUMP JUMPDEST JUMPDEST DUP1 DUP3 GT ISZERO PUSH2 0x1AFA JUMPI PUSH1 0x0 DUP2 PUSH1 0x0 SWAP1 SSTORE POP PUSH1 0x1 ADD PUSH2 0x1AE2 JUMP JUMPDEST POP SWAP1 JUMP JUMPDEST PUSH1 0x0 DUP2 CALLDATALOAD SWAP1 POP PUSH2 0x1B0D DUP2 PUSH2 0x2666 JUMP JUMPDEST SWAP3 SWAP2 POP POP JUMP JUMPDEST PUSH1 0x0 DUP2 MLOAD SWAP1 POP PUSH2 0x1B22 DUP2 PUSH2 0x267D JUMP JUMPDEST SWAP3 SWAP2 POP POP JUMP JUMPDEST PUSH1 0x0 DUP3 PUSH1 0x1F DUP4 ADD SLT PUSH2 0x1B39 JUMPI PUSH1 0x0 DUP1 REVERT JUMPDEST DUP2 CALLDATALOAD PUSH2 0x1B4C PUSH2 0x1B47 DUP3 PUSH2 0x24E6 JUMP JUMPDEST PUSH2 0x24B9 JUMP JUMPDEST SWAP2 POP DUP1 DUP3 MSTORE PUSH1 0x20 DUP4 ADD PUSH1 0x20 DUP4 ADD DUP6 DUP4 DUP4 ADD GT ISZERO PUSH2 0x1B68 JUMPI PUSH1 0x0 DUP1 REVERT JUMPDEST PUSH2 0x1B73 DUP4 DUP3 DUP5 PUSH2 0x2613 JUMP JUMPDEST POP POP POP SWAP3 SWAP2 POP POP JUMP JUMPDEST PUSH1 0x0 DUP2 CALLDATALOAD SWAP1 POP PUSH2 0x1B8B DUP2 PUSH2 0x2694 JUMP JUMPDEST SWAP3 SWAP2 POP POP JUMP JUMPDEST PUSH1 0x0 DUP2 MLOAD SWAP1 POP PUSH2 0x1BA0 DUP2 PUSH2 0x2694 JUMP JUMPDEST SWAP3 SWAP2 POP POP JUMP JUMPDEST PUSH1 0x0 PUSH1 0x20 DUP3 DUP5 SUB SLT ISZERO PUSH2 0x1BB8 JUMPI PUSH1 0x0 DUP1 REVERT JUMPDEST PUSH1 0x0 PUSH2 0x1BC6 DUP5 DUP3 DUP6 ADD PUSH2 0x1AFE JUMP JUMPDEST SWAP2 POP POP SWAP3 SWAP2 POP POP JUMP JUMPDEST PUSH1 0x0 PUSH1 0x20 DUP3 DUP5 SUB SLT ISZERO PUSH2 0x1BE1 JUMPI PUSH1 0x0 DUP1 REVERT JUMPDEST PUSH1 0x0 PUSH2 0x1BEF DUP5 DUP3 DUP6 ADD PUSH2 0x1B13 JUMP JUMPDEST SWAP2 POP POP SWAP3 SWAP2 POP POP JUMP JUMPDEST PUSH1 0x0 PUSH1 0x20 DUP3 DUP5 SUB SLT ISZERO PUSH2 0x1C0A JUMPI PUSH1 0x0 DUP1 REVERT JUMPDEST PUSH1 0x0 DUP3 ADD CALLDATALOAD PUSH8 0xFFFFFFFFFFFFFFFF DUP2 GT ISZERO PUSH2 0x1C24 JUMPI PUSH1 0x0 DUP1 REVERT JUMPDEST PUSH2 0x1C30 DUP5 DUP3 DUP6 ADD PUSH2 0x1B28 JUMP JUMPDEST SWAP2 POP POP SWAP3 SWAP2 POP POP JUMP JUMPDEST PUSH1 0x0 DUP1 PUSH1 0x40 DUP4 DUP6 SUB SLT ISZERO PUSH2 0x1C4C JUMPI PUSH1 0x0 DUP1 REVERT JUMPDEST PUSH1 0x0 DUP4 ADD CALLDATALOAD PUSH8 0xFFFFFFFFFFFFFFFF DUP2 GT ISZERO PUSH2 0x1C66 JUMPI PUSH1 0x0 DUP1 REVERT JUMPDEST PUSH2 0x1C72 DUP6 DUP3 DUP7 ADD PUSH2 0x1B28 JUMP JUMPDEST SWAP3 POP POP PUSH1 0x20 PUSH2 0x1C83 DUP6 DUP3 DUP7 ADD PUSH2 0x1B7C JUMP JUMPDEST SWAP2 POP POP SWAP3 POP SWAP3 SWAP1 POP JUMP JUMPDEST PUSH1 0x0 PUSH1 0x20 DUP3 DUP5 SUB SLT ISZERO PUSH2 0x1C9F JUMPI PUSH1 0x0 DUP1 REVERT JUMPDEST PUSH1 0x0 PUSH2 0x1CAD DUP5 DUP3 DUP6 ADD PUSH2 0x1B7C JUMP JUMPDEST SWAP2 POP POP SWAP3 SWAP2 POP POP JUMP JUMPDEST PUSH1 0x0 PUSH1 0x20 DUP3 DUP5 SUB SLT ISZERO PUSH2 0x1CC8 JUMPI PUSH1 0x0 DUP1 REVERT JUMPDEST PUSH1 0x0 PUSH2 0x1CD6 DUP5 DUP3 DUP6 ADD PUSH2 0x1B91 JUMP JUMPDEST SWAP2 POP POP SWAP3 SWAP2 POP POP JUMP JUMPDEST PUSH1 0x0 PUSH2 0x1CEB DUP4 DUP4 PUSH2 0x1DA4 JUMP JUMPDEST SWAP1 POP SWAP3 SWAP2 POP POP JUMP JUMPDEST PUSH2 0x1CFC DUP2 PUSH2 0x25DD JUMP JUMPDEST DUP3 MSTORE POP POP JUMP JUMPDEST PUSH2 0x1D0B DUP2 PUSH2 0x2595 JUMP JUMPDEST DUP3 MSTORE POP POP JUMP JUMPDEST PUSH2 0x1D1A DUP2 PUSH2 0x2583 JUMP JUMPDEST DUP3 MSTORE POP POP JUMP JUMPDEST PUSH1 0x0 PUSH2 0x1D2B DUP3 PUSH2 0x2522 JUMP JUMPDEST PUSH2 0x1D35 DUP2 DUP6 PUSH2 0x2545 JUMP JUMPDEST SWAP4 POP DUP4 PUSH1 0x20 DUP3 MUL DUP6 ADD PUSH2 0x1D47 DUP6 PUSH2 0x2512 JUMP JUMPDEST DUP1 PUSH1 0x0 JUMPDEST DUP6 DUP2 LT ISZERO PUSH2 0x1D83 JUMPI DUP5 DUP5 SUB DUP10 MSTORE DUP2 MLOAD PUSH2 0x1D64 DUP6 DUP3 PUSH2 0x1CDF JUMP JUMPDEST SWAP5 POP PUSH2 0x1D6F DUP4 PUSH2 0x2538 JUMP JUMPDEST SWAP3 POP PUSH1 0x20 DUP11 ADD SWAP10 POP POP PUSH1 0x1 DUP2 ADD SWAP1 POP PUSH2 0x1D4B JUMP JUMPDEST POP DUP3 SWAP8 POP DUP8 SWAP6 POP POP POP POP POP POP SWAP3 SWAP2 POP POP JUMP JUMPDEST PUSH2 0x1D9E DUP2 PUSH2 0x25A7 JUMP JUMPDEST DUP3 MSTORE POP POP JUMP JUMPDEST PUSH1 0x0 PUSH2 0x1DAF DUP3 PUSH2 0x252D JUMP JUMPDEST PUSH2 0x1DB9 DUP2 DUP6 PUSH2 0x2556 JUMP JUMPDEST SWAP4 POP PUSH2 0x1DC9 DUP2 DUP6 PUSH1 0x20 DUP7 ADD PUSH2 0x2622 JUMP JUMPDEST PUSH2 0x1DD2 DUP2 PUSH2 0x2655 JUMP JUMPDEST DUP5 ADD SWAP2 POP POP SWAP3 SWAP2 POP POP JUMP JUMPDEST PUSH1 0x0 PUSH2 0x1DE8 DUP3 PUSH2 0x252D JUMP JUMPDEST PUSH2 0x1DF2 DUP2 DUP6 PUSH2 0x2567 JUMP JUMPDEST SWAP4 POP PUSH2 0x1E02 DUP2 DUP6 PUSH1 0x20 DUP7 ADD PUSH2 0x2622 JUMP JUMPDEST PUSH2 0x1E0B DUP2 PUSH2 0x2655 JUMP JUMPDEST DUP5 ADD SWAP2 POP POP SWAP3 SWAP2 POP POP JUMP JUMPDEST PUSH1 0x0 PUSH2 0x1E21 DUP3 PUSH2 0x252D JUMP JUMPDEST PUSH2 0x1E2B DUP2 DUP6 PUSH2 0x2578 JUMP JUMPDEST SWAP4 POP PUSH2 0x1E3B DUP2 DUP6 PUSH1 0x20 DUP7 ADD PUSH2 0x2622 JUMP JUMPDEST DUP1 DUP5 ADD SWAP2 POP POP SWAP3 SWAP2 POP POP JUMP JUMPDEST PUSH1 0x0 PUSH2 0x1E54 PUSH1 0x2F DUP4 PUSH2 0x2567 JUMP JUMPDEST SWAP2 POP PUSH32 0x4C6120636F6D696461206E6F206573746120646973706F6E69626C6520656E20 PUSH1 0x0 DUP4 ADD MSTORE PUSH32 0x6573746F73206D6F6D656E746F732E0000000000000000000000000000000000 PUSH1 0x20 DUP4 ADD MSTORE PUSH1 0x40 DUP3 ADD SWAP1 POP SWAP2 SWAP1 POP JUMP JUMPDEST PUSH1 0x0 PUSH2 0x1EBA PUSH1 0x2E DUP4 PUSH2 0x2567 JUMP JUMPDEST SWAP2 POP PUSH32 0x4E6563657369746173206D617320546F6B656E73207061726120636F6D707261 PUSH1 0x0 DUP4 ADD MSTORE PUSH32 0x72206573746120636F6D6964612E000000000000000000000000000000000000 PUSH1 0x20 DUP4 ADD MSTORE PUSH1 0x40 DUP3 ADD SWAP1 POP SWAP2 SWAP1 POP JUMP JUMPDEST PUSH1 0x0 PUSH2 0x1F20 PUSH1 0x32 DUP4 PUSH2 0x2567 JUMP JUMPDEST SWAP2 POP PUSH32 0x4C6120617472616363696F6E206E6F206573746120646973706F6E69626C6520 PUSH1 0x0 DUP4 ADD MSTORE PUSH32 0x656E206573746F73206D6F6D656E746F732E0000000000000000000000000000 PUSH1 0x20 DUP4 ADD MSTORE PUSH1 0x40 DUP3 ADD SWAP1 POP SWAP2 SWAP1 POP JUMP JUMPDEST PUSH1 0x0 PUSH2 0x1F86 PUSH1 0x34 DUP4 PUSH2 0x2567 JUMP JUMPDEST SWAP2 POP PUSH32 0x4E6563657369746173206D617320546F6B656E73207061726120737562696572 PUSH1 0x0 DUP4 ADD MSTORE PUSH32 0x74652061206573746120617472616363696F6E2E000000000000000000000000 PUSH1 0x20 DUP4 ADD MSTORE PUSH1 0x40 DUP3 ADD SWAP1 POP SWAP2 SWAP1 POP JUMP JUMPDEST PUSH1 0x0 PUSH2 0x1FEC PUSH1 0x2E DUP4 PUSH2 0x2567 JUMP JUMPDEST SWAP2 POP PUSH32 0x4E6F207469656E6573207065726D69736F73207061726120656A656375746172 PUSH1 0x0 DUP4 ADD MSTORE PUSH32 0x20657374612066756E63696F6E2E000000000000000000000000000000000000 PUSH1 0x20 DUP4 ADD MSTORE PUSH1 0x40 DUP3 ADD SWAP1 POP SWAP2 SWAP1 POP JUMP JUMPDEST PUSH1 0x0 PUSH2 0x2052 PUSH1 0x33 DUP4 PUSH2 0x2567 JUMP JUMPDEST SWAP2 POP PUSH32 0x4E6563657369746173206465766F6C76657220756E612063616E746964616420 PUSH1 0x0 DUP4 ADD MSTORE PUSH32 0x706F73697469766120646520546F6B656E732E00000000000000000000000000 PUSH1 0x20 DUP4 ADD MSTORE PUSH1 0x40 DUP3 ADD SWAP1 POP SWAP2 SWAP1 POP JUMP JUMPDEST PUSH1 0x0 PUSH2 0x20B8 PUSH1 0x2A DUP4 PUSH2 0x2567 JUMP JUMPDEST SWAP2 POP PUSH32 0x436F6D707261206D656E6F7320546F6B656E73206F207061676120636F6E206D PUSH1 0x0 DUP4 ADD MSTORE PUSH32 0x6173206574686572732E00000000000000000000000000000000000000000000 PUSH1 0x20 DUP4 ADD MSTORE PUSH1 0x40 DUP3 ADD SWAP1 POP SWAP2 SWAP1 POP JUMP JUMPDEST PUSH1 0x0 PUSH2 0x211E PUSH1 0x20 DUP4 PUSH2 0x2567 JUMP JUMPDEST SWAP2 POP PUSH32 0x436F6D70726120756E206E756D65726F206D656E6F7220646520546F6B656E73 PUSH1 0x0 DUP4 ADD MSTORE PUSH1 0x20 DUP3 ADD SWAP1 POP SWAP2 SWAP1 POP JUMP JUMPDEST PUSH1 0x0 PUSH2 0x215E PUSH1 0x28 DUP4 PUSH2 0x2567 JUMP JUMPDEST SWAP2 POP PUSH32 0x4E6F207469656E65206C6F7320546F6B656E7320717565206465736561732064 PUSH1 0x0 DUP4 ADD MSTORE PUSH32 0x65766F6C7665722E000000000000000000000000000000000000000000000000 PUSH1 0x20 DUP4 ADD MSTORE PUSH1 0x40 DUP3 ADD SWAP1 POP SWAP2 SWAP1 POP JUMP JUMPDEST PUSH2 0x21C0 DUP2 PUSH2 0x25D3 JUMP JUMPDEST DUP3 MSTORE POP POP JUMP JUMPDEST PUSH1 0x0 PUSH2 0x21D2 DUP3 DUP5 PUSH2 0x1E16 JUMP JUMPDEST SWAP2 POP DUP2 SWAP1 POP SWAP3 SWAP2 POP POP JUMP JUMPDEST PUSH1 0x0 PUSH1 0x20 DUP3 ADD SWAP1 POP PUSH2 0x21F2 PUSH1 0x0 DUP4 ADD DUP5 PUSH2 0x1D11 JUMP JUMPDEST SWAP3 SWAP2 POP POP JUMP JUMPDEST PUSH1 0x0 PUSH1 0x20 DUP3 ADD SWAP1 POP PUSH2 0x220D PUSH1 0x0 DUP4 ADD DUP5 PUSH2 0x1CF3 JUMP JUMPDEST SWAP3 SWAP2 POP POP JUMP JUMPDEST PUSH1 0x0 PUSH1 0x20 DUP3 ADD SWAP1 POP PUSH2 0x2228 PUSH1 0x0 DUP4 ADD DUP5 PUSH2 0x1D02 JUMP JUMPDEST SWAP3 SWAP2 POP POP JUMP JUMPDEST PUSH1 0x0 PUSH1 0x60 DUP3 ADD SWAP1 POP PUSH2 0x2243 PUSH1 0x0 DUP4 ADD DUP7 PUSH2 0x1CF3 JUMP JUMPDEST PUSH2 0x2250 PUSH1 0x20 DUP4 ADD DUP6 PUSH2 0x1D11 JUMP JUMPDEST PUSH2 0x225D PUSH1 0x40 DUP4 ADD DUP5 PUSH2 0x21B7 JUMP JUMPDEST SWAP5 SWAP4 POP POP POP POP JUMP JUMPDEST PUSH1 0x0 PUSH1 0x40 DUP3 ADD SWAP1 POP PUSH2 0x227A PUSH1 0x0 DUP4 ADD DUP6 PUSH2 0x1CF3 JUMP JUMPDEST PUSH2 0x2287 PUSH1 0x20 DUP4 ADD DUP5 PUSH2 0x21B7 JUMP JUMPDEST SWAP4 SWAP3 POP POP POP JUMP JUMPDEST PUSH1 0x0 PUSH1 0x20 DUP3 ADD SWAP1 POP DUP2 DUP2 SUB PUSH1 0x0 DUP4 ADD MSTORE PUSH2 0x22A8 DUP2 DUP5 PUSH2 0x1D20 JUMP JUMPDEST SWAP1 POP SWAP3 SWAP2 POP POP JUMP JUMPDEST PUSH1 0x0 PUSH1 0x20 DUP3 ADD SWAP1 POP DUP2 DUP2 SUB PUSH1 0x0 DUP4 ADD MSTORE PUSH2 0x22CA DUP2 DUP5 PUSH2 0x1DDD JUMP JUMPDEST SWAP1 POP SWAP3 SWAP2 POP POP JUMP JUMPDEST PUSH1 0x0 PUSH1 0x40 DUP3 ADD SWAP1 POP DUP2 DUP2 SUB PUSH1 0x0 DUP4 ADD MSTORE PUSH2 0x22EC DUP2 DUP6 PUSH2 0x1DDD JUMP JUMPDEST SWAP1 POP PUSH2 0x22FB PUSH1 0x20 DUP4 ADD DUP5 PUSH2 0x21B7 JUMP JUMPDEST SWAP4 SWAP3 POP POP POP JUMP JUMPDEST PUSH1 0x0 PUSH1 0x60 DUP3 ADD SWAP1 POP DUP2 DUP2 SUB PUSH1 0x0 DUP4 ADD MSTORE PUSH2 0x231C DUP2 DUP7 PUSH2 0x1DDD JUMP JUMPDEST SWAP1 POP PUSH2 0x232B PUSH1 0x20 DUP4 ADD DUP6 PUSH2 0x21B7 JUMP JUMPDEST PUSH2 0x2338 PUSH1 0x40 DUP4 ADD DUP5 PUSH2 0x1CF3 JUMP JUMPDEST SWAP5 SWAP4 POP POP POP POP JUMP JUMPDEST PUSH1 0x0 PUSH1 0x60 DUP3 ADD SWAP1 POP DUP2 DUP2 SUB PUSH1 0x0 DUP4 ADD MSTORE PUSH2 0x235A DUP2 DUP7 PUSH2 0x1DDD JUMP JUMPDEST SWAP1 POP PUSH2 0x2369 PUSH1 0x20 DUP4 ADD DUP6 PUSH2 0x21B7 JUMP JUMPDEST PUSH2 0x2376 PUSH1 0x40 DUP4 ADD DUP5 PUSH2 0x1D95 JUMP JUMPDEST SWAP5 SWAP4 POP POP POP POP JUMP JUMPDEST PUSH1 0x0 PUSH1 0x20 DUP3 ADD SWAP1 POP DUP2 DUP2 SUB PUSH1 0x0 DUP4 ADD MSTORE PUSH2 0x2397 DUP2 PUSH2 0x1E47 JUMP JUMPDEST SWAP1 POP SWAP2 SWAP1 POP JUMP JUMPDEST PUSH1 0x0 PUSH1 0x20 DUP3 ADD SWAP1 POP DUP2 DUP2 SUB PUSH1 0x0 DUP4 ADD MSTORE PUSH2 0x23B7 DUP2 PUSH2 0x1EAD JUMP JUMPDEST SWAP1 POP SWAP2 SWAP1 POP JUMP JUMPDEST PUSH1 0x0 PUSH1 0x20 DUP3 ADD SWAP1 POP DUP2 DUP2 SUB PUSH1 0x0 DUP4 ADD MSTORE PUSH2 0x23D7 DUP2 PUSH2 0x1F13 JUMP JUMPDEST SWAP1 POP SWAP2 SWAP1 POP JUMP JUMPDEST PUSH1 0x0 PUSH1 0x20 DUP3 ADD SWAP1 POP DUP2 DUP2 SUB PUSH1 0x0 DUP4 ADD MSTORE PUSH2 0x23F7 DUP2 PUSH2 0x1F79 JUMP JUMPDEST SWAP1 POP SWAP2 SWAP1 POP JUMP JUMPDEST PUSH1 0x0 PUSH1 0x20 DUP3 ADD SWAP1 POP DUP2 DUP2 SUB PUSH1 0x0 DUP4 ADD MSTORE PUSH2 0x2417 DUP2 PUSH2 0x1FDF JUMP JUMPDEST SWAP1 POP SWAP2 SWAP1 POP JUMP JUMPDEST PUSH1 0x0 PUSH1 0x20 DUP3 ADD SWAP1 POP DUP2 DUP2 SUB PUSH1 0x0 DUP4 ADD MSTORE PUSH2 0x2437 DUP2 PUSH2 0x2045 JUMP JUMPDEST SWAP1 POP SWAP2 SWAP1 POP JUMP JUMPDEST PUSH1 0x0 PUSH1 0x20 DUP3 ADD SWAP1 POP DUP2 DUP2 SUB PUSH1 0x0 DUP4 ADD MSTORE PUSH2 0x2457 DUP2 PUSH2 0x20AB JUMP JUMPDEST SWAP1 POP SWAP2 SWAP1 POP JUMP JUMPDEST PUSH1 0x0 PUSH1 0x20 DUP3 ADD SWAP1 POP DUP2 DUP2 SUB PUSH1 0x0 DUP4 ADD MSTORE PUSH2 0x2477 DUP2 PUSH2 0x2111 JUMP JUMPDEST SWAP1 POP SWAP2 SWAP1 POP JUMP JUMPDEST PUSH1 0x0 PUSH1 0x20 DUP3 ADD SWAP1 POP DUP2 DUP2 SUB PUSH1 0x0 DUP4 ADD MSTORE PUSH2 0x2497 DUP2 PUSH2 0x2151 JUMP JUMPDEST SWAP1 POP SWAP2 SWAP1 POP JUMP JUMPDEST PUSH1 0x0 PUSH1 0x20 DUP3 ADD SWAP1 POP PUSH2 0x24B3 PUSH1 0x0 DUP4 ADD DUP5 PUSH2 0x21B7 JUMP JUMPDEST SWAP3 SWAP2 POP POP JUMP JUMPDEST PUSH1 0x0 PUSH1 0x40 MLOAD SWAP1 POP DUP2 DUP2 ADD DUP2 DUP2 LT PUSH8 0xFFFFFFFFFFFFFFFF DUP3 GT OR ISZERO PUSH2 0x24DC JUMPI PUSH1 0x0 DUP1 REVERT JUMPDEST DUP1 PUSH1 0x40 MSTORE POP SWAP2 SWAP1 POP JUMP JUMPDEST PUSH1 0x0 PUSH8 0xFFFFFFFFFFFFFFFF DUP3 GT ISZERO PUSH2 0x24FD JUMPI PUSH1 0x0 DUP1 REVERT JUMPDEST PUSH1 0x1F NOT PUSH1 0x1F DUP4 ADD AND SWAP1 POP PUSH1 0x20 DUP2 ADD SWAP1 POP SWAP2 SWAP1 POP JUMP JUMPDEST PUSH1 0x0 DUP2 SWAP1 POP PUSH1 0x20 DUP3 ADD SWAP1 POP SWAP2 SWAP1 POP JUMP JUMPDEST PUSH1 0x0 DUP2 MLOAD SWAP1 POP SWAP2 SWAP1 POP JUMP JUMPDEST PUSH1 0x0 DUP2 MLOAD SWAP1 POP SWAP2 SWAP1 POP JUMP JUMPDEST PUSH1 0x0 PUSH1 0x20 DUP3 ADD SWAP1 POP SWAP2 SWAP1 POP JUMP JUMPDEST PUSH1 0x0 DUP3 DUP3 MSTORE PUSH1 0x20 DUP3 ADD SWAP1 POP SWAP3 SWAP2 POP POP JUMP JUMPDEST PUSH1 0x0 DUP3 DUP3 MSTORE PUSH1 0x20 DUP3 ADD SWAP1 POP SWAP3 SWAP2 POP POP JUMP JUMPDEST PUSH1 0x0 DUP3 DUP3 MSTORE PUSH1 0x20 DUP3 ADD SWAP1 POP SWAP3 SWAP2 POP POP JUMP JUMPDEST PUSH1 0x0 DUP2 SWAP1 POP SWAP3 SWAP2 POP POP JUMP JUMPDEST PUSH1 0x0 PUSH2 0x258E DUP3 PUSH2 0x25B3 JUMP JUMPDEST SWAP1 POP SWAP2 SWAP1 POP JUMP JUMPDEST PUSH1 0x0 PUSH2 0x25A0 DUP3 PUSH2 0x25B3 JUMP JUMPDEST SWAP1 POP SWAP2 SWAP1 POP JUMP JUMPDEST PUSH1 0x0 DUP2 ISZERO ISZERO SWAP1 POP SWAP2 SWAP1 POP JUMP JUMPDEST PUSH1 0x0 PUSH20 0xFFFFFFFFFFFFFFFFFFFFFFFFFFFFFFFFFFFFFFFF DUP3 AND SWAP1 POP SWAP2 SWAP1 POP JUMP JUMPDEST PUSH1 0x0 DUP2 SWAP1 POP SWAP2 SWAP1 POP JUMP JUMPDEST PUSH1 0x0 PUSH2 0x25E8 DUP3 PUSH2 0x25EF JUMP JUMPDEST SWAP1 POP SWAP2 SWAP1 POP JUMP JUMPDEST PUSH1 0x0 PUSH2 0x25FA DUP3 PUSH2 0x2601 JUMP JUMPDEST SWAP1 POP SWAP2 SWAP1 POP JUMP JUMPDEST PUSH1 0x0 PUSH2 0x260C DUP3 PUSH2 0x25B3 JUMP JUMPDEST SWAP1 POP SWAP2 SWAP1 POP JUMP JUMPDEST DUP3 DUP2 DUP4 CALLDATACOPY PUSH1 0x0 DUP4 DUP4 ADD MSTORE POP POP POP JUMP JUMPDEST PUSH1 0x0 JUMPDEST DUP4 DUP2 LT ISZERO PUSH2 0x2640 JUMPI DUP1 DUP3 ADD MLOAD DUP2 DUP5 ADD MSTORE PUSH1 0x20 DUP2 ADD SWAP1 POP PUSH2 0x2625 JUMP JUMPDEST DUP4 DUP2 GT ISZERO PUSH2 0x264F JUMPI PUSH1 0x0 DUP5 DUP5 ADD MSTORE JUMPDEST POP POP POP POP JUMP JUMPDEST PUSH1 0x0 PUSH1 0x1F NOT PUSH1 0x1F DUP4 ADD AND SWAP1 POP SWAP2 SWAP1 POP JUMP JUMPDEST PUSH2 0x266F DUP2 PUSH2 0x2583 JUMP JUMPDEST DUP2 EQ PUSH2 0x267A JUMPI PUSH1 0x0 DUP1 REVERT JUMPDEST POP JUMP JUMPDEST PUSH2 0x2686 DUP2 PUSH2 0x25A7 JUMP JUMPDEST DUP2 EQ PUSH2 0x2691 JUMPI PUSH1 0x0 DUP1 REVERT JUMPDEST POP JUMP JUMPDEST PUSH2 0x269D DUP2 PUSH2 0x25D3 JUMP JUMPDEST DUP2 EQ PUSH2 0x26A8 JUMPI PUSH1 0x0 DUP1 REVERT JUMPDEST POP JUMP INVALID LOG2 PUSH5 0x6970667358 0x22 SLT KECCAK256 0x5E SWAP8 DUP10 0xF CODESIZE GT 0xBC CALLDATALOAD 0xC 0xB6 SLOAD 0xC3 PUSH27 0x540E97FACEAE899E7A8DD9EB612D7AC26E9DC564736F6C63430006 0xC STOP CALLER PUSH1 0x80 PUSH1 0x40 MSTORE CALLVALUE DUP1 ISZERO PUSH2 0x10 JUMPI PUSH1 0x0 DUP1 REVERT JUMPDEST POP PUSH1 0x40 MLOAD PUSH2 0x109D CODESIZE SUB DUP1 PUSH2 0x109D DUP4 CODECOPY DUP2 DUP2 ADD PUSH1 0x40 MSTORE DUP2 ADD SWAP1 PUSH2 0x32 SWAP2 SWAP1 PUSH2 0x99 JUMP JUMPDEST DUP1 PUSH1 0x2 DUP2 SWAP1 SSTORE POP PUSH1 0x2 SLOAD PUSH1 0x0 DUP1 CALLER PUSH20 0xFFFFFFFFFFFFFFFFFFFFFFFFFFFFFFFFFFFFFFFF AND PUSH20 0xFFFFFFFFFFFFFFFFFFFFFFFFFFFFFFFFFFFFFFFF AND DUP2 MSTORE PUSH1 0x20 ADD SWAP1 DUP2 MSTORE PUSH1 0x20 ADD PUSH1 0x0 KECCAK256 DUP2 SWAP1 SSTORE POP POP PUSH2 0xE3 JUMP JUMPDEST PUSH1 0x0 DUP2 MLOAD SWAP1 POP PUSH2 0x93 DUP2 PUSH2 0xCC JUMP JUMPDEST SWAP3 SWAP2 POP POP JUMP JUMPDEST PUSH1 0x0 PUSH1 0x20 DUP3 DUP5 SUB SLT ISZERO PUSH2 0xAB JUMPI PUSH1 0x0 DUP1 REVERT JUMPDEST PUSH1 0x0 PUSH2 0xB9 DUP5 DUP3 DUP6 ADD PUSH2 0x84 JUMP JUMPDEST SWAP2 POP POP SWAP3 SWAP2 POP POP JUMP JUMPDEST PUSH1 0x0 DUP2 SWAP1 POP SWAP2 SWAP1 POP JUMP JUMPDEST PUSH2 0xD5 DUP2 PUSH2 0xC2 JUMP JUMPDEST DUP2 EQ PUSH2 0xE0 JUMPI PUSH1 0x0 DUP1 REVERT JUMPDEST POP JUMP JUMPDEST PUSH2 0xFAB DUP1 PUSH2 0xF2 PUSH1 0x0 CODECOPY PUSH1 0x0 RETURN INVALID PUSH1 0x80 PUSH1 0x40 MSTORE CALLVALUE DUP1 ISZERO PUSH2 0x10 JUMPI PUSH1 0x0 DUP1 REVERT JUMPDEST POP PUSH1 0x4 CALLDATASIZE LT PUSH2 0xA9 JUMPI PUSH1 0x0 CALLDATALOAD PUSH1 0xE0 SHR DUP1 PUSH4 0x313CE567 GT PUSH2 0x71 JUMPI DUP1 PUSH4 0x313CE567 EQ PUSH2 0x166 JUMPI DUP1 PUSH4 0x70A08231 EQ PUSH2 0x184 JUMPI DUP1 PUSH4 0x95D89B41 EQ PUSH2 0x1B4 JUMPI DUP1 PUSH4 0xA9059CBB EQ PUSH2 0x1D2 JUMPI DUP1 PUSH4 0xDD62ED3E EQ PUSH2 0x202 JUMPI DUP1 PUSH4 0xF490A351 EQ PUSH2 0x232 JUMPI PUSH2 0xA9 JUMP JUMPDEST DUP1 PUSH4 0x6FDDE03 EQ PUSH2 0xAE JUMPI DUP1 PUSH4 0x95EA7B3 EQ PUSH2 0xCC JUMPI DUP1 PUSH4 0x18160DDD EQ PUSH2 0xFC JUMPI DUP1 PUSH4 0x1D43CC98 EQ PUSH2 0x11A JUMPI DUP1 PUSH4 0x23B872DD EQ PUSH2 0x136 JUMPI JUMPDEST PUSH1 0x0 DUP1 REVERT JUMPDEST PUSH2 0xB6 PUSH2 0x262 JUMP JUMPDEST PUSH1 0x40 MLOAD PUSH2 0xC3 SWAP2 SWAP1 PUSH2 0xE3A JUMP JUMPDEST PUSH1 0x40 MLOAD DUP1 SWAP2 SUB SWAP1 RETURN JUMPDEST PUSH2 0xE6 PUSH1 0x4 DUP1 CALLDATASIZE SUB DUP2 ADD SWAP1 PUSH2 0xE1 SWAP2 SWAP1 PUSH2 0xD54 JUMP JUMPDEST PUSH2 0x29B JUMP JUMPDEST PUSH1 0x40 MLOAD PUSH2 0xF3 SWAP2 SWAP1 PUSH2 0xE1F JUMP JUMPDEST PUSH1 0x40 MLOAD DUP1 SWAP2 SUB SWAP1 RETURN JUMPDEST PUSH2 0x104 PUSH2 0x38D JUMP JUMPDEST PUSH1 0x40 MLOAD PUSH2 0x111 SWAP2 SWAP1 PUSH2 0xE5C JUMP JUMPDEST PUSH1 0x40 MLOAD DUP1 SWAP2 SUB SWAP1 RETURN JUMPDEST PUSH2 0x134 PUSH1 0x4 DUP1 CALLDATASIZE SUB DUP2 ADD SWAP1 PUSH2 0x12F SWAP2 SWAP1 PUSH2 0xD90 JUMP JUMPDEST PUSH2 0x397 JUMP JUMPDEST STOP JUMPDEST PUSH2 0x150 PUSH1 0x4 DUP1 CALLDATASIZE SUB DUP2 ADD SWAP1 PUSH2 0x14B SWAP2 SWAP1 PUSH2 0xD05 JUMP JUMPDEST PUSH2 0x3F6 JUMP JUMPDEST PUSH1 0x40 MLOAD PUSH2 0x15D SWAP2 SWAP1 PUSH2 0xE1F JUMP JUMPDEST PUSH1 0x40 MLOAD DUP1 SWAP2 SUB SWAP1 RETURN JUMPDEST PUSH2 0x16E PUSH2 0x771 JUMP JUMPDEST PUSH1 0x40 MLOAD PUSH2 0x17B SWAP2 SWAP1 PUSH2 0xE77 JUMP JUMPDEST PUSH1 0x40 MLOAD DUP1 SWAP2 SUB SWAP1 RETURN JUMPDEST PUSH2 0x19E PUSH1 0x4 DUP1 CALLDATASIZE SUB DUP2 ADD SWAP1 PUSH2 0x199 SWAP2 SWAP1 PUSH2 0xCA0 JUMP JUMPDEST PUSH2 0x776 JUMP JUMPDEST PUSH1 0x40 MLOAD PUSH2 0x1AB SWAP2 SWAP1 PUSH2 0xE5C JUMP JUMPDEST PUSH1 0x40 MLOAD DUP1 SWAP2 SUB SWAP1 RETURN JUMPDEST PUSH2 0x1BC PUSH2 0x7BE JUMP JUMPDEST PUSH1 0x40 MLOAD PUSH2 0x1C9 SWAP2 SWAP1 PUSH2 0xE3A JUMP JUMPDEST PUSH1 0x40 MLOAD DUP1 SWAP2 SUB SWAP1 RETURN JUMPDEST PUSH2 0x1EC PUSH1 0x4 DUP1 CALLDATASIZE SUB DUP2 ADD SWAP1 PUSH2 0x1E7 SWAP2 SWAP1 PUSH2 0xD54 JUMP JUMPDEST PUSH2 0x7F7 JUMP JUMPDEST PUSH1 0x40 MLOAD PUSH2 0x1F9 SWAP2 SWAP1 PUSH2 0xE1F JUMP JUMPDEST PUSH1 0x40 MLOAD DUP1 SWAP2 SUB SWAP1 RETURN JUMPDEST PUSH2 0x21C PUSH1 0x4 DUP1 CALLDATASIZE SUB DUP2 ADD SWAP1 PUSH2 0x217 SWAP2 SWAP1 PUSH2 0xCC9 JUMP JUMPDEST PUSH2 0x9D9 JUMP JUMPDEST PUSH1 0x40 MLOAD PUSH2 0x229 SWAP2 SWAP1 PUSH2 0xE5C JUMP JUMPDEST PUSH1 0x40 MLOAD DUP1 SWAP2 SUB SWAP1 RETURN JUMPDEST PUSH2 0x24C PUSH1 0x4 DUP1 CALLDATASIZE SUB DUP2 ADD SWAP1 PUSH2 0x247 SWAP2 SWAP1 PUSH2 0xD05 JUMP JUMPDEST PUSH2 0xA60 JUMP JUMPDEST PUSH1 0x40 MLOAD PUSH2 0x259 SWAP2 SWAP1 PUSH2 0xE1F JUMP JUMPDEST PUSH1 0x40 MLOAD DUP1 SWAP2 SUB SWAP1 RETURN JUMPDEST PUSH1 0x40 MLOAD DUP1 PUSH1 0x40 ADD PUSH1 0x40 MSTORE DUP1 PUSH1 0x11 DUP2 MSTORE PUSH1 0x20 ADD PUSH32 0x4552433230426C6F636B636861696E415A000000000000000000000000000000 DUP2 MSTORE POP DUP2 JUMP JUMPDEST PUSH1 0x0 DUP2 PUSH1 0x1 PUSH1 0x0 CALLER PUSH20 0xFFFFFFFFFFFFFFFFFFFFFFFFFFFFFFFFFFFFFFFF AND PUSH20 0xFFFFFFFFFFFFFFFFFFFFFFFFFFFFFFFFFFFFFFFF AND DUP2 MSTORE PUSH1 0x20 ADD SWAP1 DUP2 MSTORE PUSH1 0x20 ADD PUSH1 0x0 KECCAK256 PUSH1 0x0 DUP6 PUSH20 0xFFFFFFFFFFFFFFFFFFFFFFFFFFFFFFFFFFFFFFFF AND PUSH20 0xFFFFFFFFFFFFFFFFFFFFFFFFFFFFFFFFFFFFFFFF AND DUP2 MSTORE PUSH1 0x20 ADD SWAP1 DUP2 MSTORE PUSH1 0x20 ADD PUSH1 0x0 KECCAK256 DUP2 SWAP1 SSTORE POP DUP3 PUSH20 0xFFFFFFFFFFFFFFFFFFFFFFFFFFFFFFFFFFFFFFFF AND CALLER PUSH20 0xFFFFFFFFFFFFFFFFFFFFFFFFFFFFFFFFFFFFFFFF AND PUSH32 0x8C5BE1E5EBEC7D5BD14F71427D1E84F3DD0314C0F7B2291E5B200AC8C7C3B925 DUP5 PUSH1 0x40 MLOAD PUSH2 0x37B SWAP2 SWAP1 PUSH2 0xE5C JUMP JUMPDEST PUSH1 0x40 MLOAD DUP1 SWAP2 SUB SWAP1 LOG3 PUSH1 0x1 SWAP1 POP SWAP3 SWAP2 POP POP JUMP JUMPDEST PUSH1 0x0 PUSH1 0x2 SLOAD SWAP1 POP SWAP1 JUMP JUMPDEST DUP1 PUSH1 0x2 PUSH1 0x0 DUP3 DUP3 SLOAD ADD SWAP3 POP POP DUP2 SWAP1 SSTORE POP DUP1 PUSH1 0x0 DUP1 CALLER PUSH20 0xFFFFFFFFFFFFFFFFFFFFFFFFFFFFFFFFFFFFFFFF AND PUSH20 0xFFFFFFFFFFFFFFFFFFFFFFFFFFFFFFFFFFFFFFFF AND DUP2 MSTORE PUSH1 0x20 ADD SWAP1 DUP2 MSTORE PUSH1 0x20 ADD PUSH1 0x0 KECCAK256 PUSH1 0x0 DUP3 DUP3 SLOAD ADD SWAP3 POP POP DUP2 SWAP1 SSTORE POP POP JUMP JUMPDEST PUSH1 0x0 DUP1 PUSH1 0x0 DUP6 PUSH20 0xFFFFFFFFFFFFFFFFFFFFFFFFFFFFFFFFFFFFFFFF AND PUSH20 0xFFFFFFFFFFFFFFFFFFFFFFFFFFFFFFFFFFFFFFFF AND DUP2 MSTORE PUSH1 0x20 ADD SWAP1 DUP2 MSTORE PUSH1 0x20 ADD PUSH1 0x0 KECCAK256 SLOAD DUP3 GT ISZERO PUSH2 0x443 JUMPI PUSH1 0x0 DUP1 REVERT JUMPDEST PUSH1 0x1 PUSH1 0x0 DUP6 PUSH20 0xFFFFFFFFFFFFFFFFFFFFFFFFFFFFFFFFFFFFFFFF AND PUSH20 0xFFFFFFFFFFFFFFFFFFFFFFFFFFFFFFFFFFFFFFFF AND DUP2 MSTORE PUSH1 0x20 ADD SWAP1 DUP2 MSTORE PUSH1 0x20 ADD PUSH1 0x0 KECCAK256 PUSH1 0x0 CALLER PUSH20 0xFFFFFFFFFFFFFFFFFFFFFFFFFFFFFFFFFFFFFFFF AND PUSH20 0xFFFFFFFFFFFFFFFFFFFFFFFFFFFFFFFFFFFFFFFF AND DUP2 MSTORE PUSH1 0x20 ADD SWAP1 DUP2 MSTORE PUSH1 0x20 ADD PUSH1 0x0 KECCAK256 SLOAD DUP3 GT ISZERO PUSH2 0x4CC JUMPI PUSH1 0x0 DUP1 REVERT JUMPDEST PUSH2 0x51D DUP3 PUSH1 0x0 DUP1 DUP8 PUSH20 0xFFFFFFFFFFFFFFFFFFFFFFFFFFFFFFFFFFFFFFFF AND PUSH20 0xFFFFFFFFFFFFFFFFFFFFFFFFFFFFFFFFFFFFFFFF AND DUP2 MSTORE PUSH1 0x20 ADD SWAP1 DUP2 MSTORE PUSH1 0x20 ADD PUSH1 0x0 KECCAK256 SLOAD PUSH2 0xC43 SWAP1 SWAP2 SWAP1 PUSH4 0xFFFFFFFF AND JUMP JUMPDEST PUSH1 0x0 DUP1 DUP7 PUSH20 0xFFFFFFFFFFFFFFFFFFFFFFFFFFFFFFFFFFFFFFFF AND PUSH20 0xFFFFFFFFFFFFFFFFFFFFFFFFFFFFFFFFFFFFFFFF AND DUP2 MSTORE PUSH1 0x20 ADD SWAP1 DUP2 MSTORE PUSH1 0x20 ADD PUSH1 0x0 KECCAK256 DUP2 SWAP1 SSTORE POP PUSH2 0x5EE DUP3 PUSH1 0x1 PUSH1 0x0 DUP8 PUSH20 0xFFFFFFFFFFFFFFFFFFFFFFFFFFFFFFFFFFFFFFFF AND PUSH20 0xFFFFFFFFFFFFFFFFFFFFFFFFFFFFFFFFFFFFFFFF AND DUP2 MSTORE PUSH1 0x20 ADD SWAP1 DUP2 MSTORE PUSH1 0x20 ADD PUSH1 0x0 KECCAK256 PUSH1 0x0 CALLER PUSH20 0xFFFFFFFFFFFFFFFFFFFFFFFFFFFFFFFFFFFFFFFF AND PUSH20 0xFFFFFFFFFFFFFFFFFFFFFFFFFFFFFFFFFFFFFFFF AND DUP2 MSTORE PUSH1 0x20 ADD SWAP1 DUP2 MSTORE PUSH1 0x20 ADD PUSH1 0x0 KECCAK256 SLOAD PUSH2 0xC43 SWAP1 SWAP2 SWAP1 PUSH4 0xFFFFFFFF AND JUMP JUMPDEST PUSH1 0x1 PUSH1 0x0 DUP7 PUSH20 0xFFFFFFFFFFFFFFFFFFFFFFFFFFFFFFFFFFFFFFFF AND PUSH20 0xFFFFFFFFFFFFFFFFFFFFFFFFFFFFFFFFFFFFFFFF AND DUP2 MSTORE PUSH1 0x20 ADD SWAP1 DUP2 MSTORE PUSH1 0x20 ADD PUSH1 0x0 KECCAK256 PUSH1 0x0 CALLER PUSH20 0xFFFFFFFFFFFFFFFFFFFFFFFFFFFFFFFFFFFFFFFF AND PUSH20 0xFFFFFFFFFFFFFFFFFFFFFFFFFFFFFFFFFFFFFFFF AND DUP2 MSTORE PUSH1 0x20 ADD SWAP1 DUP2 MSTORE PUSH1 0x20 ADD PUSH1 0x0 KECCAK256 DUP2 SWAP1 SSTORE POP PUSH2 0x6BF DUP3 PUSH1 0x0 DUP1 DUP7 PUSH20 0xFFFFFFFFFFFFFFFFFFFFFFFFFFFFFFFFFFFFFFFF AND PUSH20 0xFFFFFFFFFFFFFFFFFFFFFFFFFFFFFFFFFFFFFFFF AND DUP2 MSTORE PUSH1 0x20 ADD SWAP1 DUP2 MSTORE PUSH1 0x20 ADD PUSH1 0x0 KECCAK256 SLOAD PUSH2 0xC5A SWAP1 SWAP2 SWAP1 PUSH4 0xFFFFFFFF AND JUMP JUMPDEST PUSH1 0x0 DUP1 DUP6 PUSH20 0xFFFFFFFFFFFFFFFFFFFFFFFFFFFFFFFFFFFFFFFF AND PUSH20 0xFFFFFFFFFFFFFFFFFFFFFFFFFFFFFFFFFFFFFFFF AND DUP2 MSTORE PUSH1 0x20 ADD SWAP1 DUP2 MSTORE PUSH1 0x20 ADD PUSH1 0x0 KECCAK256 DUP2 SWAP1 SSTORE POP DUP3 PUSH20 0xFFFFFFFFFFFFFFFFFFFFFFFFFFFFFFFFFFFFFFFF AND DUP5 PUSH20 0xFFFFFFFFFFFFFFFFFFFFFFFFFFFFFFFFFFFFFFFF AND PUSH32 0xDDF252AD1BE2C89B69C2B068FC378DAA952BA7F163C4A11628F55A4DF523B3EF DUP5 PUSH1 0x40 MLOAD PUSH2 0x75E SWAP2 SWAP1 PUSH2 0xE5C JUMP JUMPDEST PUSH1 0x40 MLOAD DUP1 SWAP2 SUB SWAP1 LOG3 PUSH1 0x1 SWAP1 POP SWAP4 SWAP3 POP POP POP JUMP JUMPDEST PUSH1 0x12 DUP2 JUMP JUMPDEST PUSH1 0x0 DUP1 PUSH1 0x0 DUP4 PUSH20 0xFFFFFFFFFFFFFFFFFFFFFFFFFFFFFFFFFFFFFFFF AND PUSH20 0xFFFFFFFFFFFFFFFFFFFFFFFFFFFFFFFFFFFFFFFF AND DUP2 MSTORE PUSH1 0x20 ADD SWAP1 DUP2 MSTORE PUSH1 0x20 ADD PUSH1 0x0 KECCAK256 SLOAD SWAP1 POP SWAP2 SWAP1 POP JUMP JUMPDEST PUSH1 0x40 MLOAD DUP1 PUSH1 0x40 ADD PUSH1 0x40 MSTORE DUP1 PUSH1 0x3 DUP2 MSTORE PUSH1 0x20 ADD PUSH32 0x4552430000000000000000000000000000000000000000000000000000000000 DUP2 MSTORE POP DUP2 JUMP JUMPDEST PUSH1 0x0 DUP1 PUSH1 0x0 CALLER PUSH20 0xFFFFFFFFFFFFFFFFFFFFFFFFFFFFFFFFFFFFFFFF AND PUSH20 0xFFFFFFFFFFFFFFFFFFFFFFFFFFFFFFFFFFFFFFFF AND DUP2 MSTORE PUSH1 0x20 ADD SWAP1 DUP2 MSTORE PUSH1 0x20 ADD PUSH1 0x0 KECCAK256 SLOAD DUP3 GT ISZERO PUSH2 0x844 JUMPI PUSH1 0x0 DUP1 REVERT JUMPDEST PUSH2 0x895 DUP3 PUSH1 0x0 DUP1 CALLER PUSH20 0xFFFFFFFFFFFFFFFFFFFFFFFFFFFFFFFFFFFFFFFF AND PUSH20 0xFFFFFFFFFFFFFFFFFFFFFFFFFFFFFFFFFFFFFFFF AND DUP2 MSTORE PUSH1 0x20 ADD SWAP1 DUP2 MSTORE PUSH1 0x20 ADD PUSH1 0x0 KECCAK256 SLOAD PUSH2 0xC43 SWAP1 SWAP2 SWAP1 PUSH4 0xFFFFFFFF AND JUMP JUMPDEST PUSH1 0x0 DUP1 CALLER PUSH20 0xFFFFFFFFFFFFFFFFFFFFFFFFFFFFFFFFFFFFFFFF AND PUSH20 0xFFFFFFFFFFFFFFFFFFFFFFFFFFFFFFFFFFFFFFFF AND DUP2 MSTORE PUSH1 0x20 ADD SWAP1 DUP2 MSTORE PUSH1 0x20 ADD PUSH1 0x0 KECCAK256 DUP2 SWAP1 SSTORE POP PUSH2 0x928 DUP3 PUSH1 0x0 DUP1 DUP7 PUSH20 0xFFFFFFFFFFFFFFFFFFFFFFFFFFFFFFFFFFFFFFFF AND PUSH20 0xFFFFFFFFFFFFFFFFFFFFFFFFFFFFFFFFFFFFFFFF AND DUP2 MSTORE PUSH1 0x20 ADD SWAP1 DUP2 MSTORE PUSH1 0x20 ADD PUSH1 0x0 KECCAK256 SLOAD PUSH2 0xC5A SWAP1 SWAP2 SWAP1 PUSH4 0xFFFFFFFF AND JUMP JUMPDEST PUSH1 0x0 DUP1 DUP6 PUSH20 0xFFFFFFFFFFFFFFFFFFFFFFFFFFFFFFFFFFFFFFFF AND PUSH20 0xFFFFFFFFFFFFFFFFFFFFFFFFFFFFFFFFFFFFFFFF AND DUP2 MSTORE PUSH1 0x20 ADD SWAP1 DUP2 MSTORE PUSH1 0x20 ADD PUSH1 0x0 KECCAK256 DUP2 SWAP1 SSTORE POP DUP3 PUSH20 0xFFFFFFFFFFFFFFFFFFFFFFFFFFFFFFFFFFFFFFFF AND CALLER PUSH20 0xFFFFFFFFFFFFFFFFFFFFFFFFFFFFFFFFFFFFFFFF AND PUSH32 0xDDF252AD1BE2C89B69C2B068FC378DAA952BA7F163C4A11628F55A4DF523B3EF DUP5 PUSH1 0x40 MLOAD PUSH2 0x9C7 SWAP2 SWAP1 PUSH2 0xE5C JUMP JUMPDEST PUSH1 0x40 MLOAD DUP1 SWAP2 SUB SWAP1 LOG3 PUSH1 0x1 SWAP1 POP SWAP3 SWAP2 POP POP JUMP JUMPDEST PUSH1 0x0 PUSH1 0x1 PUSH1 0x0 DUP5 PUSH20 0xFFFFFFFFFFFFFFFFFFFFFFFFFFFFFFFFFFFFFFFF AND PUSH20 0xFFFFFFFFFFFFFFFFFFFFFFFFFFFFFFFFFFFFFFFF AND DUP2 MSTORE PUSH1 0x20 ADD SWAP1 DUP2 MSTORE PUSH1 0x20 ADD PUSH1 0x0 KECCAK256 PUSH1 0x0 DUP4 PUSH20 0xFFFFFFFFFFFFFFFFFFFFFFFFFFFFFFFFFFFFFFFF AND PUSH20 0xFFFFFFFFFFFFFFFFFFFFFFFFFFFFFFFFFFFFFFFF AND DUP2 MSTORE PUSH1 0x20 ADD SWAP1 DUP2 MSTORE PUSH1 0x20 ADD PUSH1 0x0 KECCAK256 SLOAD SWAP1 POP SWAP3 SWAP2 POP POP JUMP JUMPDEST PUSH1 0x0 DUP1 PUSH1 0x0 DUP6 PUSH20 0xFFFFFFFFFFFFFFFFFFFFFFFFFFFFFFFFFFFFFFFF AND PUSH20 0xFFFFFFFFFFFFFFFFFFFFFFFFFFFFFFFFFFFFFFFF AND DUP2 MSTORE PUSH1 0x20 ADD SWAP1 DUP2 MSTORE PUSH1 0x20 ADD PUSH1 0x0 KECCAK256 SLOAD DUP3 GT ISZERO PUSH2 0xAAD JUMPI PUSH1 0x0 DUP1 REVERT JUMPDEST PUSH2 0xAFE DUP3 PUSH1 0x0 DUP1 DUP8 PUSH20 0xFFFFFFFFFFFFFFFFFFFFFFFFFFFFFFFFFFFFFFFF AND PUSH20 0xFFFFFFFFFFFFFFFFFFFFFFFFFFFFFFFFFFFFFFFF AND DUP2 MSTORE PUSH1 0x20 ADD SWAP1 DUP2 MSTORE PUSH1 0x20 ADD PUSH1 0x0 KECCAK256 SLOAD PUSH2 0xC43 SWAP1 SWAP2 SWAP1 PUSH4 0xFFFFFFFF AND JUMP JUMPDEST PUSH1 0x0 DUP1 DUP7 PUSH20 0xFFFFFFFFFFFFFFFFFFFFFFFFFFFFFFFFFFFFFFFF AND PUSH20 0xFFFFFFFFFFFFFFFFFFFFFFFFFFFFFFFFFFFFFFFF AND DUP2 MSTORE PUSH1 0x20 ADD SWAP1 DUP2 MSTORE PUSH1 0x20 ADD PUSH1 0x0 KECCAK256 DUP2 SWAP1 SSTORE POP PUSH2 0xB91 DUP3 PUSH1 0x0 DUP1 DUP7 PUSH20 0xFFFFFFFFFFFFFFFFFFFFFFFFFFFFFFFFFFFFFFFF AND PUSH20 0xFFFFFFFFFFFFFFFFFFFFFFFFFFFFFFFFFFFFFFFF AND DUP2 MSTORE PUSH1 0x20 ADD SWAP1 DUP2 MSTORE PUSH1 0x20 ADD PUSH1 0x0 KECCAK256 SLOAD PUSH2 0xC5A SWAP1 SWAP2 SWAP1 PUSH4 0xFFFFFFFF AND JUMP JUMPDEST PUSH1 0x0 DUP1 DUP6 PUSH20 0xFFFFFFFFFFFFFFFFFFFFFFFFFFFFFFFFFFFFFFFF AND PUSH20 0xFFFFFFFFFFFFFFFFFFFFFFFFFFFFFFFFFFFFFFFF AND DUP2 MSTORE PUSH1 0x20 ADD SWAP1 DUP2 MSTORE PUSH1 0x20 ADD PUSH1 0x0 KECCAK256 DUP2 SWAP1 SSTORE POP DUP3 PUSH20 0xFFFFFFFFFFFFFFFFFFFFFFFFFFFFFFFFFFFFFFFF AND DUP5 PUSH20 0xFFFFFFFFFFFFFFFFFFFFFFFFFFFFFFFFFFFFFFFF AND PUSH32 0xDDF252AD1BE2C89B69C2B068FC378DAA952BA7F163C4A11628F55A4DF523B3EF DUP5 PUSH1 0x40 MLOAD PUSH2 0xC30 SWAP2 SWAP1 PUSH2 0xE5C JUMP JUMPDEST PUSH1 0x40 MLOAD DUP1 SWAP2 SUB SWAP1 LOG3 PUSH1 0x1 SWAP1 POP SWAP4 SWAP3 POP POP POP JUMP JUMPDEST PUSH1 0x0 DUP3 DUP3 GT ISZERO PUSH2 0xC4F JUMPI INVALID JUMPDEST DUP2 DUP4 SUB SWAP1 POP SWAP3 SWAP2 POP POP JUMP JUMPDEST PUSH1 0x0 DUP1 DUP3 DUP5 ADD SWAP1 POP DUP4 DUP2 LT ISZERO PUSH2 0xC6C JUMPI INVALID JUMPDEST DUP1 SWAP2 POP POP SWAP3 SWAP2 POP POP JUMP JUMPDEST PUSH1 0x0 DUP2 CALLDATALOAD SWAP1 POP PUSH2 0xC85 DUP2 PUSH2 0xF47 JUMP JUMPDEST SWAP3 SWAP2 POP POP JUMP JUMPDEST PUSH1 0x0 DUP2 CALLDATALOAD SWAP1 POP PUSH2 0xC9A DUP2 PUSH2 0xF5E JUMP JUMPDEST SWAP3 SWAP2 POP POP JUMP JUMPDEST PUSH1 0x0 PUSH1 0x20 DUP3 DUP5 SUB SLT ISZERO PUSH2 0xCB2 JUMPI PUSH1 0x0 DUP1 REVERT JUMPDEST PUSH1 0x0 PUSH2 0xCC0 DUP5 DUP3 DUP6 ADD PUSH2 0xC76 JUMP JUMPDEST SWAP2 POP POP SWAP3 SWAP2 POP POP JUMP JUMPDEST PUSH1 0x0 DUP1 PUSH1 0x40 DUP4 DUP6 SUB SLT ISZERO PUSH2 0xCDC JUMPI PUSH1 0x0 DUP1 REVERT JUMPDEST PUSH1 0x0 PUSH2 0xCEA DUP6 DUP3 DUP7 ADD PUSH2 0xC76 JUMP JUMPDEST SWAP3 POP POP PUSH1 0x20 PUSH2 0xCFB DUP6 DUP3 DUP7 ADD PUSH2 0xC76 JUMP JUMPDEST SWAP2 POP POP SWAP3 POP SWAP3 SWAP1 POP JUMP JUMPDEST PUSH1 0x0 DUP1 PUSH1 0x0 PUSH1 0x60 DUP5 DUP7 SUB SLT ISZERO PUSH2 0xD1A JUMPI PUSH1 0x0 DUP1 REVERT JUMPDEST PUSH1 0x0 PUSH2 0xD28 DUP7 DUP3 DUP8 ADD PUSH2 0xC76 JUMP JUMPDEST SWAP4 POP POP PUSH1 0x20 PUSH2 0xD39 DUP7 DUP3 DUP8 ADD PUSH2 0xC76 JUMP JUMPDEST SWAP3 POP POP PUSH1 0x40 PUSH2 0xD4A DUP7 DUP3 DUP8 ADD PUSH2 0xC8B JUMP JUMPDEST SWAP2 POP POP SWAP3 POP SWAP3 POP SWAP3 JUMP JUMPDEST PUSH1 0x0 DUP1 PUSH1 0x40 DUP4 DUP6 SUB SLT ISZERO PUSH2 0xD67 JUMPI PUSH1 0x0 DUP1 REVERT JUMPDEST PUSH1 0x0 PUSH2 0xD75 DUP6 DUP3 DUP7 ADD PUSH2 0xC76 JUMP JUMPDEST SWAP3 POP POP PUSH1 0x20 PUSH2 0xD86 DUP6 DUP3 DUP7 ADD PUSH2 0xC8B JUMP JUMPDEST SWAP2 POP POP SWAP3 POP SWAP3 SWAP1 POP JUMP JUMPDEST PUSH1 0x0 PUSH1 0x20 DUP3 DUP5 SUB SLT ISZERO PUSH2 0xDA2 JUMPI PUSH1 0x0 DUP1 REVERT JUMPDEST PUSH1 0x0 PUSH2 0xDB0 DUP5 DUP3 DUP6 ADD PUSH2 0xC8B JUMP JUMPDEST SWAP2 POP POP SWAP3 SWAP2 POP POP JUMP JUMPDEST PUSH2 0xDC2 DUP2 PUSH2 0xEC0 JUMP JUMPDEST DUP3 MSTORE POP POP JUMP JUMPDEST PUSH1 0x0 PUSH2 0xDD3 DUP3 PUSH2 0xE92 JUMP JUMPDEST PUSH2 0xDDD DUP2 DUP6 PUSH2 0xE9D JUMP JUMPDEST SWAP4 POP PUSH2 0xDED DUP2 DUP6 PUSH1 0x20 DUP7 ADD PUSH2 0xF03 JUMP JUMPDEST PUSH2 0xDF6 DUP2 PUSH2 0xF36 JUMP JUMPDEST DUP5 ADD SWAP2 POP POP SWAP3 SWAP2 POP POP JUMP JUMPDEST PUSH2 0xE0A DUP2 PUSH2 0xEEC JUMP JUMPDEST DUP3 MSTORE POP POP JUMP JUMPDEST PUSH2 0xE19 DUP2 PUSH2 0xEF6 JUMP JUMPDEST DUP3 MSTORE POP POP JUMP JUMPDEST PUSH1 0x0 PUSH1 0x20 DUP3 ADD SWAP1 POP PUSH2 0xE34 PUSH1 0x0 DUP4 ADD DUP5 PUSH2 0xDB9 JUMP JUMPDEST SWAP3 SWAP2 POP POP JUMP JUMPDEST PUSH1 0x0 PUSH1 0x20 DUP3 ADD SWAP1 POP DUP2 DUP2 SUB PUSH1 0x0 DUP4 ADD MSTORE PUSH2 0xE54 DUP2 DUP5 PUSH2 0xDC8 JUMP JUMPDEST SWAP1 POP SWAP3 SWAP2 POP POP JUMP JUMPDEST PUSH1 0x0 PUSH1 0x20 DUP3 ADD SWAP1 POP PUSH2 0xE71 PUSH1 0x0 DUP4 ADD DUP5 PUSH2 0xE01 JUMP JUMPDEST SWAP3 SWAP2 POP POP JUMP JUMPDEST PUSH1 0x0 PUSH1 0x20 DUP3 ADD SWAP1 POP PUSH2 0xE8C PUSH1 0x0 DUP4 ADD DUP5 PUSH2 0xE10 JUMP JUMPDEST SWAP3 SWAP2 POP POP JUMP JUMPDEST PUSH1 0x0 DUP2 MLOAD SWAP1 POP SWAP2 SWAP1 POP JUMP JUMPDEST PUSH1 0x0 DUP3 DUP3 MSTORE PUSH1 0x20 DUP3 ADD SWAP1 POP SWAP3 SWAP2 POP POP JUMP JUMPDEST PUSH1 0x0 PUSH2 0xEB9 DUP3 PUSH2 0xECC JUMP JUMPDEST SWAP1 POP SWAP2 SWAP1 POP JUMP JUMPDEST PUSH1 0x0 DUP2 ISZERO ISZERO SWAP1 POP SWAP2 SWAP1 POP JUMP JUMPDEST PUSH1 0x0 PUSH20 0xFFFFFFFFFFFFFFFFFFFFFFFFFFFFFFFFFFFFFFFF DUP3 AND SWAP1 POP SWAP2 SWAP1 POP JUMP JUMPDEST PUSH1 0x0 DUP2 SWAP1 POP SWAP2 SWAP1 POP JUMP JUMPDEST PUSH1 0x0 PUSH1 0xFF DUP3 AND SWAP1 POP SWAP2 SWAP1 POP JUMP JUMPDEST PUSH1 0x0 JUMPDEST DUP4 DUP2 LT ISZERO PUSH2 0xF21 JUMPI DUP1 DUP3 ADD MLOAD DUP2 DUP5 ADD MSTORE PUSH1 0x20 DUP2 ADD SWAP1 POP PUSH2 0xF06 JUMP JUMPDEST DUP4 DUP2 GT ISZERO PUSH2 0xF30 JUMPI PUSH1 0x0 DUP5 DUP5 ADD MSTORE JUMPDEST POP POP POP POP JUMP JUMPDEST PUSH1 0x0 PUSH1 0x1F NOT PUSH1 0x1F DUP4 ADD AND SWAP1 POP SWAP2 SWAP1 POP JUMP JUMPDEST PUSH2 0xF50 DUP2 PUSH2 0xEAE JUMP JUMPDEST DUP2 EQ PUSH2 0xF5B JUMPI PUSH1 0x0 DUP1 REVERT JUMPDEST POP JUMP JUMPDEST PUSH2 0xF67 DUP2 PUSH2 0xEEC JUMP JUMPDEST DUP2 EQ PUSH2 0xF72 JUMPI PUSH1 0x0 DUP1 REVERT JUMPDEST POP JUMP INVALID LOG2 PUSH5 0x6970667358 0x22 SLT KECCAK256 SELFDESTRUCT DUP10 DUP2 SWAP8 LOG3 SWAP3 0xBB SLOAD 0xD5 0xD0 PUSH20 0x3F83C6BB53F449E8BCC87735FD99F9CC45A82801 PUSH9 0x64736F6C634300060C STOP CALLER "
				},
				"gasEstimates": {
					"creation": {
						"codeDepositCost": "1990600",
						"executionCost": "infinite",
						"totalCost": "infinite"
					},
					"external": {
						"AltaAtraccion(string,uint256)": "infinite",
						"AltaComida(string,uint256)": "infinite",
						"AtraccionesDisponibles()": "infinite",
						"BajaAtraccion(string)": "infinite",
						"BajaComida(string)": "infinite",
						"Clientes(address)": "1617",
						"ComidasDisponibles()": "infinite",
						"CompraTokens(uint256)": "infinite",
						"ComprarComida(string)": "infinite",
						"ConsultaHistorial()": "infinite",
						"ConsultaHistorialComidas()": "infinite",
						"DevolverTokens(uint256)": "infinite",
						"GeneraTokens(uint256)": "infinite",
						"MappingAtracciones(string)": "infinite",
						"MappingComida(string)": "infinite",
						"MisTokens()": "infinite",
						"SubirseAtraccion(string)": "infinite",
						"TotalBalance()": "infinite",
						"owner()": "1237"
					},
					"internal": {
						"PrecioTokens(uint256)": "36"
					}
				},
				"methodIdentifiers": {
					"AltaAtraccion(string,uint256)": "39050065",
					"AltaComida(string,uint256)": "1deecf3b",
					"AtraccionesDisponibles()": "1fccb33c",
					"BajaAtraccion(string)": "c66dca40",
					"BajaComida(string)": "dbbdc421",
					"Clientes(address)": "ce8f2f38",
					"ComidasDisponibles()": "c03d2acc",
					"CompraTokens(uint256)": "f7774091",
					"ComprarComida(string)": "4a003dcf",
					"ConsultaHistorial()": "1f7705d2",
					"ConsultaHistorialComidas()": "f09ba7d3",
					"DevolverTokens(uint256)": "1890154c",
					"GeneraTokens(uint256)": "1246f6e2",
					"MappingAtracciones(string)": "d00df296",
					"MappingComida(string)": "d203c15b",
					"MisTokens()": "e33f34a0",
					"SubirseAtraccion(string)": "12b91846",
					"TotalBalance()": "000c4397",
					"owner()": "8da5cb5b"
				}
			},
			"storageLayout": {
				"storage": [
					{
						"astId": 497,
						"contract": "DISNEY/disney.sol:Disney",
						"label": "token",
						"offset": 0,
						"slot": "0",
						"type": "t_contract(ERC20Basic)409"
					},
					{
						"astId": 499,
						"contract": "DISNEY/disney.sol:Disney",
						"label": "owner",
						"offset": 0,
						"slot": "1",
						"type": "t_address_payable"
					},
					{
						"astId": 525,
						"contract": "DISNEY/disney.sol:Disney",
						"label": "Clientes",
						"offset": 0,
						"slot": "2",
						"type": "t_mapping(t_address,t_struct(cliente)521_storage)"
					},
					{
						"astId": 709,
						"contract": "DISNEY/disney.sol:Disney",
						"label": "MappingAtracciones",
						"offset": 0,
						"slot": "3",
						"type": "t_mapping(t_string_memory_ptr,t_struct(atraccion)698_storage)"
					},
					{
						"astId": 712,
						"contract": "DISNEY/disney.sol:Disney",
						"label": "Atracciones",
						"offset": 0,
						"slot": "4",
						"type": "t_array(t_string_storage)dyn_storage"
					},
					{
						"astId": 717,
						"contract": "DISNEY/disney.sol:Disney",
						"label": "HistorialAtracciones",
						"offset": 0,
						"slot": "5",
						"type": "t_mapping(t_address,t_array(t_string_storage)dyn_storage)"
					},
					{
						"astId": 721,
						"contract": "DISNEY/disney.sol:Disney",
						"label": "MappingComida",
						"offset": 0,
						"slot": "6",
						"type": "t_mapping(t_string_memory_ptr,t_struct(comida)705_storage)"
					},
					{
						"astId": 724,
						"contract": "DISNEY/disney.sol:Disney",
						"label": "Comidas",
						"offset": 0,
						"slot": "7",
						"type": "t_array(t_string_storage)dyn_storage"
					},
					{
						"astId": 729,
						"contract": "DISNEY/disney.sol:Disney",
						"label": "HistorialComidas",
						"offset": 0,
						"slot": "8",
						"type": "t_mapping(t_address,t_array(t_string_storage)dyn_storage)"
					}
				],
				"types": {
					"t_address": {
						"encoding": "inplace",
						"label": "address",
						"numberOfBytes": "20"
					},
					"t_address_payable": {
						"encoding": "inplace",
						"label": "address payable",
						"numberOfBytes": "20"
					},
					"t_array(t_string_storage)dyn_storage": {
						"base": "t_string_storage",
						"encoding": "dynamic_array",
						"label": "string[]",
						"numberOfBytes": "32"
					},
					"t_bool": {
						"encoding": "inplace",
						"label": "bool",
						"numberOfBytes": "1"
					},
					"t_contract(ERC20Basic)409": {
						"encoding": "inplace",
						"label": "contract ERC20Basic",
						"numberOfBytes": "20"
					},
					"t_mapping(t_address,t_array(t_string_storage)dyn_storage)": {
						"encoding": "mapping",
						"key": "t_address",
						"label": "mapping(address => string[])",
						"numberOfBytes": "32",
						"value": "t_array(t_string_storage)dyn_storage"
					},
					"t_mapping(t_address,t_struct(cliente)521_storage)": {
						"encoding": "mapping",
						"key": "t_address",
						"label": "mapping(address => struct Disney.cliente)",
						"numberOfBytes": "32",
						"value": "t_struct(cliente)521_storage"
					},
					"t_mapping(t_string_memory_ptr,t_struct(atraccion)698_storage)": {
						"encoding": "mapping",
						"key": "t_string_memory_ptr",
						"label": "mapping(string => struct Disney.atraccion)",
						"numberOfBytes": "32",
						"value": "t_struct(atraccion)698_storage"
					},
					"t_mapping(t_string_memory_ptr,t_struct(comida)705_storage)": {
						"encoding": "mapping",
						"key": "t_string_memory_ptr",
						"label": "mapping(string => struct Disney.comida)",
						"numberOfBytes": "32",
						"value": "t_struct(comida)705_storage"
					},
					"t_string_memory_ptr": {
						"encoding": "bytes",
						"label": "string",
						"numberOfBytes": "32"
					},
					"t_string_storage": {
						"encoding": "bytes",
						"label": "string",
						"numberOfBytes": "32"
					},
					"t_struct(atraccion)698_storage": {
						"encoding": "inplace",
						"label": "struct Disney.atraccion",
						"members": [
							{
								"astId": 693,
								"contract": "DISNEY/disney.sol:Disney",
								"label": "nombre_atraccion",
								"offset": 0,
								"slot": "0",
								"type": "t_string_storage"
							},
							{
								"astId": 695,
								"contract": "DISNEY/disney.sol:Disney",
								"label": "precio_atraccion",
								"offset": 0,
								"slot": "1",
								"type": "t_uint256"
							},
							{
								"astId": 697,
								"contract": "DISNEY/disney.sol:Disney",
								"label": "estado_atraccion",
								"offset": 0,
								"slot": "2",
								"type": "t_bool"
							}
						],
						"numberOfBytes": "96"
					},
					"t_struct(cliente)521_storage": {
						"encoding": "inplace",
						"label": "struct Disney.cliente",
						"members": [
							{
								"astId": 517,
								"contract": "DISNEY/disney.sol:Disney",
								"label": "tokens_comprados",
								"offset": 0,
								"slot": "0",
								"type": "t_uint256"
							},
							{
								"astId": 520,
								"contract": "DISNEY/disney.sol:Disney",
								"label": "atracciones_disfrutadas",
								"offset": 0,
								"slot": "1",
								"type": "t_array(t_string_storage)dyn_storage"
							}
						],
						"numberOfBytes": "64"
					},
					"t_struct(comida)705_storage": {
						"encoding": "inplace",
						"label": "struct Disney.comida",
						"members": [
							{
								"astId": 700,
								"contract": "DISNEY/disney.sol:Disney",
								"label": "nombre_comida",
								"offset": 0,
								"slot": "0",
								"type": "t_string_storage"
							},
							{
								"astId": 702,
								"contract": "DISNEY/disney.sol:Disney",
								"label": "precio_comida",
								"offset": 0,
								"slot": "1",
								"type": "t_uint256"
							},
							{
								"astId": 704,
								"contract": "DISNEY/disney.sol:Disney",
								"label": "stock_comida",
								"offset": 0,
								"slot": "2",
								"type": "t_bool"
							}
						],
						"numberOfBytes": "96"
					},
					"t_uint256": {
						"encoding": "inplace",
						"label": "uint256",
						"numberOfBytes": "32"
					}
				}
			},
			"userdoc": {
				"kind": "user",
				"methods": {},
				"version": 1
			}
		}
	}
}