{
	"DISNEY/ERC20/ERC20.sol": {
		"ERC20Basic": {
			"abi": [
				{
					"inputs": [
						{
							"internalType": "uint256",
							"name": "initialSupply",
							"type": "uint256"
						}
					],
					"stateMutability": "nonpayable",
					"type": "constructor"
				},
				{
					"anonymous": false,
					"inputs": [
						{
							"indexed": true,
							"internalType": "address",
							"name": "owner",
							"type": "address"
						},
						{
							"indexed": true,
							"internalType": "address",
							"name": "spender",
							"type": "address"
						},
						{
							"indexed": false,
							"internalType": "uint256",
							"name": "tokens",
							"type": "uint256"
						}
					],
					"name": "Approval",
					"type": "event"
				},
				{
					"anonymous": false,
					"inputs": [
						{
							"indexed": true,
							"internalType": "address",
							"name": "from",
							"type": "address"
						},
						{
							"indexed": true,
							"internalType": "address",
							"name": "to",
							"type": "address"
						},
						{
							"indexed": false,
							"internalType": "uint256",
							"name": "tokens",
							"type": "uint256"
						}
					],
					"name": "Transfer",
					"type": "event"
				},
				{
					"inputs": [
						{
							"internalType": "address",
							"name": "owner",
							"type": "address"
						},
						{
							"internalType": "address",
							"name": "delegate",
							"type": "address"
						}
					],
					"name": "allowance",
					"outputs": [
						{
							"internalType": "uint256",
							"name": "",
							"type": "uint256"
						}
					],
					"stateMutability": "view",
					"type": "function"
				},
				{
					"inputs": [
						{
							"internalType": "address",
							"name": "delegate",
							"type": "address"
						},
						{
							"internalType": "uint256",
							"name": "numTokens",
							"type": "uint256"
						}
					],
					"name": "approve",
					"outputs": [
						{
							"internalType": "bool",
							"name": "",
							"type": "bool"
						}
					],
					"stateMutability": "nonpayable",
					"type": "function"
				},
				{
					"inputs": [
						{
							"internalType": "address",
							"name": "tokenOwner",
							"type": "address"
						}
					],
					"name": "balanceOf",
					"outputs": [
						{
							"internalType": "uint256",
							"name": "",
							"type": "uint256"
						}
					],
					"stateMutability": "view",
					"type": "function"
				},
				{
					"inputs": [],
					"name": "decimals",
					"outputs": [
						{
							"internalType": "uint8",
							"name": "",
							"type": "uint8"
						}
					],
					"stateMutability": "view",
					"type": "function"
				},
				{
					"inputs": [
						{
							"internalType": "uint256",
							"name": "newTokensAmount",
							"type": "uint256"
						}
					],
					"name": "increaseTotalSupply",
					"outputs": [],
					"stateMutability": "nonpayable",
					"type": "function"
				},
				{
					"inputs": [],
					"name": "name",
					"outputs": [
						{
							"internalType": "string",
							"name": "",
							"type": "string"
						}
					],
					"stateMutability": "view",
					"type": "function"
				},
				{
					"inputs": [],
					"name": "symbol",
					"outputs": [
						{
							"internalType": "string",
							"name": "",
							"type": "string"
						}
					],
					"stateMutability": "view",
					"type": "function"
				},
				{
					"inputs": [],
					"name": "totalSupply",
					"outputs": [
						{
							"internalType": "uint256",
							"name": "",
							"type": "uint256"
						}
					],
					"stateMutability": "view",
					"type": "function"
				},
				{
					"inputs": [
						{
							"internalType": "address",
							"name": "recipient",
							"type": "address"
						},
						{
							"internalType": "uint256",
							"name": "numTokens",
							"type": "uint256"
						}
					],
					"name": "transfer",
					"outputs": [
						{
							"internalType": "bool",
							"name": "",
							"type": "bool"
						}
					],
					"stateMutability": "nonpayable",
					"type": "function"
				},
				{
					"inputs": [
						{
							"internalType": "address",
							"name": "owner",
							"type": "address"
						},
						{
							"internalType": "address",
							"name": "buyer",
							"type": "address"
						},
						{
							"internalType": "uint256",
							"name": "numTokens",
							"type": "uint256"
						}
					],
					"name": "transferFrom",
					"outputs": [
						{
							"internalType": "bool",
							"name": "",
							"type": "bool"
						}
					],
					"stateMutability": "nonpayable",
					"type": "function"
				},
				{
					"inputs": [
						{
							"internalType": "address",
							"name": "_cliente",
							"type": "address"
						},
						{
							"internalType": "address",
							"name": "receiver",
							"type": "address"
						},
						{
							"internalType": "uint256",
							"name": "numTokens",
							"type": "uint256"
						}
					],
					"name": "transferencia_disney",
					"outputs": [
						{
							"internalType": "bool",
							"name": "",
							"type": "bool"
						}
					],
					"stateMutability": "nonpayable",
					"type": "function"
				}
			],
			"devdoc": {
				"methods": {}
			},
			"evm": {
				"assembly": "    /* \"DISNEY/ERC20/ERC20.sol\":1971:4595  contract ERC20Basic is IERC20{... */\n  mstore(0x40, 0x80)\n    /* \"DISNEY/ERC20/ERC20.sol\":2471:2603  constructor (uint256 initialSupply) public{... */\n  callvalue\n    /* \"--CODEGEN--\":8:17   */\n  dup1\n    /* \"--CODEGEN--\":5:7   */\n  iszero\n  tag_1\n  jumpi\n    /* \"--CODEGEN--\":30:31   */\n  0x00\n    /* \"--CODEGEN--\":27:28   */\n  dup1\n    /* \"--CODEGEN--\":20:32   */\n  revert\n    /* \"--CODEGEN--\":5:7   */\ntag_1:\n    /* \"DISNEY/ERC20/ERC20.sol\":2471:2603  constructor (uint256 initialSupply) public{... */\n  pop\n  mload(0x40)\n  sub(codesize, bytecodeSize)\n  dup1\n  bytecodeSize\n  dup4\n  codecopy\n  dup2\n  dup2\n  add\n  0x40\n  mstore\n  tag_2\n  swap2\n  swap1\n  dup2\n  add\n  swap1\n  jump(tag_3)\ntag_2:\n    /* \"DISNEY/ERC20/ERC20.sol\":2538:2551  initialSupply */\n  dup1\n    /* \"DISNEY/ERC20/ERC20.sol\":2523:2535  totalSupply_ */\n  0x02\n    /* \"DISNEY/ERC20/ERC20.sol\":2523:2551  totalSupply_ = initialSupply */\n  dup2\n  swap1\n  sstore\n  pop\n    /* \"DISNEY/ERC20/ERC20.sol\":2584:2596  totalSupply_ */\n  sload(0x02)\n    /* \"DISNEY/ERC20/ERC20.sol\":2561:2569  balances */\n  0x00\n    /* \"DISNEY/ERC20/ERC20.sol\":2561:2581  balances[msg.sender] */\n  dup1\n    /* \"DISNEY/ERC20/ERC20.sol\":2570:2580  msg.sender */\n  caller\n    /* \"DISNEY/ERC20/ERC20.sol\":2561:2581  balances[msg.sender] */\n  0xffffffffffffffffffffffffffffffffffffffff\n  and\n  0xffffffffffffffffffffffffffffffffffffffff\n  and\n  dup2\n  mstore\n  0x20\n  add\n  swap1\n  dup2\n  mstore\n  0x20\n  add\n  0x00\n  keccak256\n    /* \"DISNEY/ERC20/ERC20.sol\":2561:2596  balances[msg.sender] = totalSupply_ */\n  dup2\n  swap1\n  sstore\n  pop\n    /* \"DISNEY/ERC20/ERC20.sol\":2471:2603  constructor (uint256 initialSupply) public{... */\n  pop\n    /* \"DISNEY/ERC20/ERC20.sol\":1971:4595  contract ERC20Basic is IERC20{... */\n  jump(tag_6)\n    /* \"--CODEGEN--\":5:139   */\ntag_8:\n  0x00\n    /* \"--CODEGEN--\":89:95   */\n  dup2\n    /* \"--CODEGEN--\":83:96   */\n  mload\n    /* \"--CODEGEN--\":74:96   */\n  swap1\n  pop\n    /* \"--CODEGEN--\":101:134   */\n  tag_10\n    /* \"--CODEGEN--\":128:133   */\n  dup2\n    /* \"--CODEGEN--\":101:134   */\n  jump(tag_11)\ntag_10:\n    /* \"--CODEGEN--\":68:139   */\n  swap3\n  swap2\n  pop\n  pop\n  jump\n    /* \"--CODEGEN--\":146:409   */\ntag_3:\n  0x00\n    /* \"--CODEGEN--\":261:263   */\n  0x20\n    /* \"--CODEGEN--\":249:258   */\n  dup3\n    /* \"--CODEGEN--\":240:247   */\n  dup5\n    /* \"--CODEGEN--\":236:259   */\n  sub\n    /* \"--CODEGEN--\":232:264   */\n  slt\n    /* \"--CODEGEN--\":229:231   */\n  iszero\n  tag_13\n  jumpi\n    /* \"--CODEGEN--\":277:278   */\n  0x00\n    /* \"--CODEGEN--\":274:275   */\n  dup1\n    /* \"--CODEGEN--\":267:279   */\n  revert\n    /* \"--CODEGEN--\":229:231   */\ntag_13:\n    /* \"--CODEGEN--\":312:313   */\n  0x00\n    /* \"--CODEGEN--\":329:393   */\n  tag_14\n    /* \"--CODEGEN--\":385:392   */\n  dup5\n    /* \"--CODEGEN--\":376:382   */\n  dup3\n    /* \"--CODEGEN--\":365:374   */\n  dup6\n    /* \"--CODEGEN--\":361:383   */\n  add\n    /* \"--CODEGEN--\":329:393   */\n  jump(tag_8)\ntag_14:\n    /* \"--CODEGEN--\":319:393   */\n  swap2\n  pop\n    /* \"--CODEGEN--\":291:399   */\n  pop\n    /* \"--CODEGEN--\":223:409   */\n  swap3\n  swap2\n  pop\n  pop\n  jump\n    /* \"--CODEGEN--\":416:488   */\ntag_15:\n  0x00\n    /* \"--CODEGEN--\":478:483   */\n  dup2\n    /* \"--CODEGEN--\":467:483   */\n  swap1\n  pop\n    /* \"--CODEGEN--\":461:488   */\n  swap2\n  swap1\n  pop\n  jump\n    /* \"--CODEGEN--\":495:612   */\ntag_11:\n    /* \"--CODEGEN--\":564:588   */\n  tag_18\n    /* \"--CODEGEN--\":582:587   */\n  dup2\n    /* \"--CODEGEN--\":564:588   */\n  jump(tag_15)\ntag_18:\n    /* \"--CODEGEN--\":557:562   */\n  dup2\n    /* \"--CODEGEN--\":554:589   */\n  eq\n    /* \"--CODEGEN--\":544:546   */\n  tag_19\n  jumpi\n    /* \"--CODEGEN--\":603:604   */\n  0x00\n    /* \"--CODEGEN--\":600:601   */\n  dup1\n    /* \"--CODEGEN--\":593:605   */\n  revert\n    /* \"--CODEGEN--\":544:546   */\ntag_19:\n    /* \"--CODEGEN--\":538:612   */\n  pop\n  jump\n    /* \"DISNEY/ERC20/ERC20.sol\":1971:4595  contract ERC20Basic is IERC20{... */\ntag_6:\n  dataSize(sub_0)\n  dup1\n  dataOffset(sub_0)\n  0x00\n  codecopy\n  0x00\n  return\nstop\n\nsub_0: assembly {\n        /* \"DISNEY/ERC20/ERC20.sol\":1971:4595  contract ERC20Basic is IERC20{... */\n      mstore(0x40, 0x80)\n      callvalue\n        /* \"--CODEGEN--\":8:17   */\n      dup1\n        /* \"--CODEGEN--\":5:7   */\n      iszero\n      tag_1\n      jumpi\n        /* \"--CODEGEN--\":30:31   */\n      0x00\n        /* \"--CODEGEN--\":27:28   */\n      dup1\n        /* \"--CODEGEN--\":20:32   */\n      revert\n        /* \"--CODEGEN--\":5:7   */\n    tag_1:\n        /* \"DISNEY/ERC20/ERC20.sol\":1971:4595  contract ERC20Basic is IERC20{... */\n      pop\n      jumpi(tag_2, lt(calldatasize, 0x04))\n      shr(0xe0, calldataload(0x00))\n      dup1\n      0x313ce567\n      gt\n      tag_14\n      jumpi\n      dup1\n      0x313ce567\n      eq\n      tag_8\n      jumpi\n      dup1\n      0x70a08231\n      eq\n      tag_9\n      jumpi\n      dup1\n      0x95d89b41\n      eq\n      tag_10\n      jumpi\n      dup1\n      0xa9059cbb\n      eq\n      tag_11\n      jumpi\n      dup1\n      0xdd62ed3e\n      eq\n      tag_12\n      jumpi\n      dup1\n      0xf490a351\n      eq\n      tag_13\n      jumpi\n      jump(tag_2)\n    tag_14:\n      dup1\n      0x06fdde03\n      eq\n      tag_3\n      jumpi\n      dup1\n      0x095ea7b3\n      eq\n      tag_4\n      jumpi\n      dup1\n      0x18160ddd\n      eq\n      tag_5\n      jumpi\n      dup1\n      0x1d43cc98\n      eq\n      tag_6\n      jumpi\n      dup1\n      0x23b872dd\n      eq\n      tag_7\n      jumpi\n    tag_2:\n      0x00\n      dup1\n      revert\n        /* \"DISNEY/ERC20/ERC20.sol\":2007:2056  string public constant name = \"ERC20BlockchainAZ\" */\n    tag_3:\n      tag_15\n      tag_16\n      jump\t// in\n    tag_15:\n      mload(0x40)\n      tag_17\n      swap2\n      swap1\n      jump(tag_18)\n    tag_17:\n      mload(0x40)\n      dup1\n      swap2\n      sub\n      swap1\n      return\n        /* \"DISNEY/ERC20/ERC20.sol\":3889:4108  function approve(address delegate, uint256 numTokens) public override returns (bool){... */\n    tag_4:\n      tag_19\n      0x04\n      dup1\n      calldatasize\n      sub\n      tag_20\n      swap2\n      swap1\n      dup2\n      add\n      swap1\n      jump(tag_21)\n    tag_20:\n      tag_22\n      jump\t// in\n    tag_19:\n      mload(0x40)\n      tag_23\n      swap2\n      swap1\n      jump(tag_24)\n    tag_23:\n      mload(0x40)\n      dup1\n      swap2\n      sub\n      swap1\n      return\n        /* \"DISNEY/ERC20/ERC20.sol\":2610:2707  function totalSupply() public override view returns (uint256){... */\n    tag_5:\n      tag_25\n      tag_26\n      jump\t// in\n    tag_25:\n      mload(0x40)\n      tag_27\n      swap2\n      swap1\n      jump(tag_28)\n    tag_27:\n      mload(0x40)\n      dup1\n      swap2\n      sub\n      swap1\n      return\n        /* \"DISNEY/ERC20/ERC20.sol\":2713:2868  function increaseTotalSupply(uint newTokensAmount) public {... */\n    tag_6:\n      tag_29\n      0x04\n      dup1\n      calldatasize\n      sub\n      tag_30\n      swap2\n      swap1\n      dup2\n      add\n      swap1\n      jump(tag_31)\n    tag_30:\n      tag_32\n      jump\t// in\n    tag_29:\n      stop\n        /* \"DISNEY/ERC20/ERC20.sol\":4114:4593  function transferFrom(address owner, address buyer, uint256 numTokens) public override returns (bool){... */\n    tag_7:\n      tag_33\n      0x04\n      dup1\n      calldatasize\n      sub\n      tag_34\n      swap2\n      swap1\n      dup2\n      add\n      swap1\n      jump(tag_35)\n    tag_34:\n      tag_36\n      jump\t// in\n    tag_33:\n      mload(0x40)\n      tag_37\n      swap2\n      swap1\n      jump(tag_24)\n    tag_37:\n      mload(0x40)\n      dup1\n      swap2\n      sub\n      swap1\n      return\n        /* \"DISNEY/ERC20/ERC20.sol\":2105:2140  uint8 public constant decimals = 18 */\n    tag_8:\n      tag_38\n      tag_39\n      jump\t// in\n    tag_38:\n      mload(0x40)\n      tag_40\n      swap2\n      swap1\n      jump(tag_41)\n    tag_40:\n      mload(0x40)\n      dup1\n      swap2\n      sub\n      swap1\n      return\n        /* \"DISNEY/ERC20/ERC20.sol\":2874:2995  function balanceOf(address tokenOwner) public override view returns (uint256){... */\n    tag_9:\n      tag_42\n      0x04\n      dup1\n      calldatasize\n      sub\n      tag_43\n      swap2\n      swap1\n      dup2\n      add\n      swap1\n      jump(tag_44)\n    tag_43:\n      tag_45\n      jump\t// in\n    tag_42:\n      mload(0x40)\n      tag_46\n      swap2\n      swap1\n      jump(tag_28)\n    tag_46:\n      mload(0x40)\n      dup1\n      swap2\n      sub\n      swap1\n      return\n        /* \"DISNEY/ERC20/ERC20.sol\":2062:2099  string public constant symbol = \"ERC\" */\n    tag_10:\n      tag_47\n      tag_48\n      jump\t// in\n    tag_47:\n      mload(0x40)\n      tag_49\n      swap2\n      swap1\n      jump(tag_18)\n    tag_49:\n      mload(0x40)\n      dup1\n      swap2\n      sub\n      swap1\n      return\n        /* \"DISNEY/ERC20/ERC20.sol\":3145:3502  function transfer(address recipient, uint256 numTokens) public override returns (bool){... */\n    tag_11:\n      tag_50\n      0x04\n      dup1\n      calldatasize\n      sub\n      tag_51\n      swap2\n      swap1\n      dup2\n      add\n      swap1\n      jump(tag_21)\n    tag_51:\n      tag_52\n      jump\t// in\n    tag_50:\n      mload(0x40)\n      tag_53\n      swap2\n      swap1\n      jump(tag_24)\n    tag_53:\n      mload(0x40)\n      dup1\n      swap2\n      sub\n      swap1\n      return\n        /* \"DISNEY/ERC20/ERC20.sol\":3001:3139  function allowance(address owner, address delegate) public override view returns (uint256){... */\n    tag_12:\n      tag_54\n      0x04\n      dup1\n      calldatasize\n      sub\n      tag_55\n      swap2\n      swap1\n      dup2\n      add\n      swap1\n      jump(tag_56)\n    tag_55:\n      tag_57\n      jump\t// in\n    tag_54:\n      mload(0x40)\n      tag_58\n      swap2\n      swap1\n      jump(tag_28)\n    tag_58:\n      mload(0x40)\n      dup1\n      swap2\n      sub\n      swap1\n      return\n        /* \"DISNEY/ERC20/ERC20.sol\":3508:3883  function transferencia_disney(address _cliente, address receiver, uint256 numTokens) public override returns (bool){... */\n    tag_13:\n      tag_59\n      0x04\n      dup1\n      calldatasize\n      sub\n      tag_60\n      swap2\n      swap1\n      dup2\n      add\n      swap1\n      jump(tag_35)\n    tag_60:\n      tag_61\n      jump\t// in\n    tag_59:\n      mload(0x40)\n      tag_62\n      swap2\n      swap1\n      jump(tag_24)\n    tag_62:\n      mload(0x40)\n      dup1\n      swap2\n      sub\n      swap1\n      return\n        /* \"DISNEY/ERC20/ERC20.sol\":2007:2056  string public constant name = \"ERC20BlockchainAZ\" */\n    tag_16:\n      mload(0x40)\n      dup1\n      0x40\n      add\n      0x40\n      mstore\n      dup1\n      0x11\n      dup2\n      mstore\n      0x20\n      add\n      0x4552433230426c6f636b636861696e415a000000000000000000000000000000\n      dup2\n      mstore\n      pop\n      dup2\n      jump\t// out\n        /* \"DISNEY/ERC20/ERC20.sol\":3889:4108  function approve(address delegate, uint256 numTokens) public override returns (bool){... */\n    tag_22:\n        /* \"DISNEY/ERC20/ERC20.sol\":3968:3972  bool */\n      0x00\n        /* \"DISNEY/ERC20/ERC20.sol\":4015:4024  numTokens */\n      dup2\n        /* \"DISNEY/ERC20/ERC20.sol\":3983:3990  allowed */\n      0x01\n        /* \"DISNEY/ERC20/ERC20.sol\":3983:4002  allowed[msg.sender] */\n      0x00\n        /* \"DISNEY/ERC20/ERC20.sol\":3991:4001  msg.sender */\n      caller\n        /* \"DISNEY/ERC20/ERC20.sol\":3983:4002  allowed[msg.sender] */\n      0xffffffffffffffffffffffffffffffffffffffff\n      and\n      0xffffffffffffffffffffffffffffffffffffffff\n      and\n      dup2\n      mstore\n      0x20\n      add\n      swap1\n      dup2\n      mstore\n      0x20\n      add\n      0x00\n      keccak256\n        /* \"DISNEY/ERC20/ERC20.sol\":3983:4012  allowed[msg.sender][delegate] */\n      0x00\n        /* \"DISNEY/ERC20/ERC20.sol\":4003:4011  delegate */\n      dup6\n        /* \"DISNEY/ERC20/ERC20.sol\":3983:4012  allowed[msg.sender][delegate] */\n      0xffffffffffffffffffffffffffffffffffffffff\n      and\n      0xffffffffffffffffffffffffffffffffffffffff\n      and\n      dup2\n      mstore\n      0x20\n      add\n      swap1\n      dup2\n      mstore\n      0x20\n      add\n      0x00\n      keccak256\n        /* \"DISNEY/ERC20/ERC20.sol\":3983:4024  allowed[msg.sender][delegate] = numTokens */\n      dup2\n      swap1\n      sstore\n      pop\n        /* \"DISNEY/ERC20/ERC20.sol\":4060:4068  delegate */\n      dup3\n        /* \"DISNEY/ERC20/ERC20.sol\":4039:4080  Approval(msg.sender, delegate, numTokens) */\n      0xffffffffffffffffffffffffffffffffffffffff\n      and\n        /* \"DISNEY/ERC20/ERC20.sol\":4048:4058  msg.sender */\n      caller\n        /* \"DISNEY/ERC20/ERC20.sol\":4039:4080  Approval(msg.sender, delegate, numTokens) */\n      0xffffffffffffffffffffffffffffffffffffffff\n      and\n      0x8c5be1e5ebec7d5bd14f71427d1e84f3dd0314c0f7b2291e5b200ac8c7c3b925\n        /* \"DISNEY/ERC20/ERC20.sol\":4070:4079  numTokens */\n      dup5\n        /* \"DISNEY/ERC20/ERC20.sol\":4039:4080  Approval(msg.sender, delegate, numTokens) */\n      mload(0x40)\n      tag_64\n      swap2\n      swap1\n      jump(tag_28)\n    tag_64:\n      mload(0x40)\n      dup1\n      swap2\n      sub\n      swap1\n      log3\n        /* \"DISNEY/ERC20/ERC20.sol\":4097:4101  true */\n      0x01\n        /* \"DISNEY/ERC20/ERC20.sol\":4090:4101  return true */\n      swap1\n      pop\n        /* \"DISNEY/ERC20/ERC20.sol\":3889:4108  function approve(address delegate, uint256 numTokens) public override returns (bool){... */\n      swap3\n      swap2\n      pop\n      pop\n      jump\t// out\n        /* \"DISNEY/ERC20/ERC20.sol\":2610:2707  function totalSupply() public override view returns (uint256){... */\n    tag_26:\n        /* \"DISNEY/ERC20/ERC20.sol\":2663:2670  uint256 */\n      0x00\n        /* \"DISNEY/ERC20/ERC20.sol\":2688:2700  totalSupply_ */\n      sload(0x02)\n        /* \"DISNEY/ERC20/ERC20.sol\":2681:2700  return totalSupply_ */\n      swap1\n      pop\n        /* \"DISNEY/ERC20/ERC20.sol\":2610:2707  function totalSupply() public override view returns (uint256){... */\n      swap1\n      jump\t// out\n        /* \"DISNEY/ERC20/ERC20.sol\":2713:2868  function increaseTotalSupply(uint newTokensAmount) public {... */\n    tag_32:\n        /* \"DISNEY/ERC20/ERC20.sol\":2797:2812  newTokensAmount */\n      dup1\n        /* \"DISNEY/ERC20/ERC20.sol\":2781:2793  totalSupply_ */\n      0x02\n      0x00\n        /* \"DISNEY/ERC20/ERC20.sol\":2781:2812  totalSupply_ += newTokensAmount */\n      dup3\n      dup3\n      sload\n      add\n      swap3\n      pop\n      pop\n      dup2\n      swap1\n      sstore\n      pop\n        /* \"DISNEY/ERC20/ERC20.sol\":2846:2861  newTokensAmount */\n      dup1\n        /* \"DISNEY/ERC20/ERC20.sol\":2822:2830  balances */\n      0x00\n        /* \"DISNEY/ERC20/ERC20.sol\":2822:2842  balances[msg.sender] */\n      dup1\n        /* \"DISNEY/ERC20/ERC20.sol\":2831:2841  msg.sender */\n      caller\n        /* \"DISNEY/ERC20/ERC20.sol\":2822:2842  balances[msg.sender] */\n      0xffffffffffffffffffffffffffffffffffffffff\n      and\n      0xffffffffffffffffffffffffffffffffffffffff\n      and\n      dup2\n      mstore\n      0x20\n      add\n      swap1\n      dup2\n      mstore\n      0x20\n      add\n      0x00\n      keccak256\n      0x00\n        /* \"DISNEY/ERC20/ERC20.sol\":2822:2861  balances[msg.sender] += newTokensAmount */\n      dup3\n      dup3\n      sload\n      add\n      swap3\n      pop\n      pop\n      dup2\n      swap1\n      sstore\n      pop\n        /* \"DISNEY/ERC20/ERC20.sol\":2713:2868  function increaseTotalSupply(uint newTokensAmount) public {... */\n      pop\n      jump\t// out\n        /* \"DISNEY/ERC20/ERC20.sol\":4114:4593  function transferFrom(address owner, address buyer, uint256 numTokens) public override returns (bool){... */\n    tag_36:\n        /* \"DISNEY/ERC20/ERC20.sol\":4210:4214  bool */\n      0x00\n        /* \"DISNEY/ERC20/ERC20.sol\":4246:4254  balances */\n      dup1\n        /* \"DISNEY/ERC20/ERC20.sol\":4246:4261  balances[owner] */\n      0x00\n        /* \"DISNEY/ERC20/ERC20.sol\":4255:4260  owner */\n      dup6\n        /* \"DISNEY/ERC20/ERC20.sol\":4246:4261  balances[owner] */\n      0xffffffffffffffffffffffffffffffffffffffff\n      and\n      0xffffffffffffffffffffffffffffffffffffffff\n      and\n      dup2\n      mstore\n      0x20\n      add\n      swap1\n      dup2\n      mstore\n      0x20\n      add\n      0x00\n      keccak256\n      sload\n        /* \"DISNEY/ERC20/ERC20.sol\":4233:4242  numTokens */\n      dup3\n        /* \"DISNEY/ERC20/ERC20.sol\":4233:4261  numTokens <= balances[owner] */\n      gt\n      iszero\n        /* \"DISNEY/ERC20/ERC20.sol\":4225:4262  require(numTokens <= balances[owner]) */\n      tag_68\n      jumpi\n      0x00\n      dup1\n      revert\n    tag_68:\n        /* \"DISNEY/ERC20/ERC20.sol\":4293:4300  allowed */\n      0x01\n        /* \"DISNEY/ERC20/ERC20.sol\":4293:4307  allowed[owner] */\n      0x00\n        /* \"DISNEY/ERC20/ERC20.sol\":4301:4306  owner */\n      dup6\n        /* \"DISNEY/ERC20/ERC20.sol\":4293:4307  allowed[owner] */\n      0xffffffffffffffffffffffffffffffffffffffff\n      and\n      0xffffffffffffffffffffffffffffffffffffffff\n      and\n      dup2\n      mstore\n      0x20\n      add\n      swap1\n      dup2\n      mstore\n      0x20\n      add\n      0x00\n      keccak256\n        /* \"DISNEY/ERC20/ERC20.sol\":4293:4319  allowed[owner][msg.sender] */\n      0x00\n        /* \"DISNEY/ERC20/ERC20.sol\":4308:4318  msg.sender */\n      caller\n        /* \"DISNEY/ERC20/ERC20.sol\":4293:4319  allowed[owner][msg.sender] */\n      0xffffffffffffffffffffffffffffffffffffffff\n      and\n      0xffffffffffffffffffffffffffffffffffffffff\n      and\n      dup2\n      mstore\n      0x20\n      add\n      swap1\n      dup2\n      mstore\n      0x20\n      add\n      0x00\n      keccak256\n      sload\n        /* \"DISNEY/ERC20/ERC20.sol\":4280:4289  numTokens */\n      dup3\n        /* \"DISNEY/ERC20/ERC20.sol\":4280:4319  numTokens <= allowed[owner][msg.sender] */\n      gt\n      iszero\n        /* \"DISNEY/ERC20/ERC20.sol\":4272:4320  require(numTokens <= allowed[owner][msg.sender]) */\n      tag_69\n      jumpi\n      0x00\n      dup1\n      revert\n    tag_69:\n        /* \"DISNEY/ERC20/ERC20.sol\":4349:4379  balances[owner].sub(numTokens) */\n      tag_70\n        /* \"DISNEY/ERC20/ERC20.sol\":4369:4378  numTokens */\n      dup3\n        /* \"DISNEY/ERC20/ERC20.sol\":4349:4357  balances */\n      0x00\n        /* \"DISNEY/ERC20/ERC20.sol\":4349:4364  balances[owner] */\n      dup1\n        /* \"DISNEY/ERC20/ERC20.sol\":4358:4363  owner */\n      dup8\n        /* \"DISNEY/ERC20/ERC20.sol\":4349:4364  balances[owner] */\n      0xffffffffffffffffffffffffffffffffffffffff\n      and\n      0xffffffffffffffffffffffffffffffffffffffff\n      and\n      dup2\n      mstore\n      0x20\n      add\n      swap1\n      dup2\n      mstore\n      0x20\n      add\n      0x00\n      keccak256\n      sload\n        /* \"DISNEY/ERC20/ERC20.sol\":4349:4368  balances[owner].sub */\n      tag_71\n      swap1\n        /* \"DISNEY/ERC20/ERC20.sol\":4349:4379  balances[owner].sub(numTokens) */\n      swap2\n      swap1\n      0xffffffff\n      and\n      jump\t// in\n    tag_70:\n        /* \"DISNEY/ERC20/ERC20.sol\":4331:4339  balances */\n      0x00\n        /* \"DISNEY/ERC20/ERC20.sol\":4331:4346  balances[owner] */\n      dup1\n        /* \"DISNEY/ERC20/ERC20.sol\":4340:4345  owner */\n      dup7\n        /* \"DISNEY/ERC20/ERC20.sol\":4331:4346  balances[owner] */\n      0xffffffffffffffffffffffffffffffffffffffff\n      and\n      0xffffffffffffffffffffffffffffffffffffffff\n      and\n      dup2\n      mstore\n      0x20\n      add\n      swap1\n      dup2\n      mstore\n      0x20\n      add\n      0x00\n      keccak256\n        /* \"DISNEY/ERC20/ERC20.sol\":4331:4379  balances[owner] = balances[owner].sub(numTokens) */\n      dup2\n      swap1\n      sstore\n      pop\n        /* \"DISNEY/ERC20/ERC20.sol\":4418:4459  allowed[owner][msg.sender].sub(numTokens) */\n      tag_72\n        /* \"DISNEY/ERC20/ERC20.sol\":4449:4458  numTokens */\n      dup3\n        /* \"DISNEY/ERC20/ERC20.sol\":4418:4425  allowed */\n      0x01\n        /* \"DISNEY/ERC20/ERC20.sol\":4418:4432  allowed[owner] */\n      0x00\n        /* \"DISNEY/ERC20/ERC20.sol\":4426:4431  owner */\n      dup8\n        /* \"DISNEY/ERC20/ERC20.sol\":4418:4432  allowed[owner] */\n      0xffffffffffffffffffffffffffffffffffffffff\n      and\n      0xffffffffffffffffffffffffffffffffffffffff\n      and\n      dup2\n      mstore\n      0x20\n      add\n      swap1\n      dup2\n      mstore\n      0x20\n      add\n      0x00\n      keccak256\n        /* \"DISNEY/ERC20/ERC20.sol\":4418:4444  allowed[owner][msg.sender] */\n      0x00\n        /* \"DISNEY/ERC20/ERC20.sol\":4433:4443  msg.sender */\n      caller\n        /* \"DISNEY/ERC20/ERC20.sol\":4418:4444  allowed[owner][msg.sender] */\n      0xffffffffffffffffffffffffffffffffffffffff\n      and\n      0xffffffffffffffffffffffffffffffffffffffff\n      and\n      dup2\n      mstore\n      0x20\n      add\n      swap1\n      dup2\n      mstore\n      0x20\n      add\n      0x00\n      keccak256\n      sload\n        /* \"DISNEY/ERC20/ERC20.sol\":4418:4448  allowed[owner][msg.sender].sub */\n      tag_71\n      swap1\n        /* \"DISNEY/ERC20/ERC20.sol\":4418:4459  allowed[owner][msg.sender].sub(numTokens) */\n      swap2\n      swap1\n      0xffffffff\n      and\n      jump\t// in\n    tag_72:\n        /* \"DISNEY/ERC20/ERC20.sol\":4389:4396  allowed */\n      0x01\n        /* \"DISNEY/ERC20/ERC20.sol\":4389:4403  allowed[owner] */\n      0x00\n        /* \"DISNEY/ERC20/ERC20.sol\":4397:4402  owner */\n      dup7\n        /* \"DISNEY/ERC20/ERC20.sol\":4389:4403  allowed[owner] */\n      0xffffffffffffffffffffffffffffffffffffffff\n      and\n      0xffffffffffffffffffffffffffffffffffffffff\n      and\n      dup2\n      mstore\n      0x20\n      add\n      swap1\n      dup2\n      mstore\n      0x20\n      add\n      0x00\n      keccak256\n        /* \"DISNEY/ERC20/ERC20.sol\":4389:4415  allowed[owner][msg.sender] */\n      0x00\n        /* \"DISNEY/ERC20/ERC20.sol\":4404:4414  msg.sender */\n      caller\n        /* \"DISNEY/ERC20/ERC20.sol\":4389:4415  allowed[owner][msg.sender] */\n      0xffffffffffffffffffffffffffffffffffffffff\n      and\n      0xffffffffffffffffffffffffffffffffffffffff\n      and\n      dup2\n      mstore\n      0x20\n      add\n      swap1\n      dup2\n      mstore\n      0x20\n      add\n      0x00\n      keccak256\n        /* \"DISNEY/ERC20/ERC20.sol\":4389:4459  allowed[owner][msg.sender] = allowed[owner][msg.sender].sub(numTokens) */\n      dup2\n      swap1\n      sstore\n      pop\n        /* \"DISNEY/ERC20/ERC20.sol\":4487:4517  balances[buyer].add(numTokens) */\n      tag_73\n        /* \"DISNEY/ERC20/ERC20.sol\":4507:4516  numTokens */\n      dup3\n        /* \"DISNEY/ERC20/ERC20.sol\":4487:4495  balances */\n      0x00\n        /* \"DISNEY/ERC20/ERC20.sol\":4487:4502  balances[buyer] */\n      dup1\n        /* \"DISNEY/ERC20/ERC20.sol\":4496:4501  buyer */\n      dup7\n        /* \"DISNEY/ERC20/ERC20.sol\":4487:4502  balances[buyer] */\n      0xffffffffffffffffffffffffffffffffffffffff\n      and\n      0xffffffffffffffffffffffffffffffffffffffff\n      and\n      dup2\n      mstore\n      0x20\n      add\n      swap1\n      dup2\n      mstore\n      0x20\n      add\n      0x00\n      keccak256\n      sload\n        /* \"DISNEY/ERC20/ERC20.sol\":4487:4506  balances[buyer].add */\n      tag_74\n      swap1\n        /* \"DISNEY/ERC20/ERC20.sol\":4487:4517  balances[buyer].add(numTokens) */\n      swap2\n      swap1\n      0xffffffff\n      and\n      jump\t// in\n    tag_73:\n        /* \"DISNEY/ERC20/ERC20.sol\":4469:4477  balances */\n      0x00\n        /* \"DISNEY/ERC20/ERC20.sol\":4469:4484  balances[buyer] */\n      dup1\n        /* \"DISNEY/ERC20/ERC20.sol\":4478:4483  buyer */\n      dup6\n        /* \"DISNEY/ERC20/ERC20.sol\":4469:4484  balances[buyer] */\n      0xffffffffffffffffffffffffffffffffffffffff\n      and\n      0xffffffffffffffffffffffffffffffffffffffff\n      and\n      dup2\n      mstore\n      0x20\n      add\n      swap1\n      dup2\n      mstore\n      0x20\n      add\n      0x00\n      keccak256\n        /* \"DISNEY/ERC20/ERC20.sol\":4469:4517  balances[buyer] = balances[buyer].add(numTokens) */\n      dup2\n      swap1\n      sstore\n      pop\n        /* \"DISNEY/ERC20/ERC20.sol\":4548:4553  buyer */\n      dup3\n        /* \"DISNEY/ERC20/ERC20.sol\":4532:4565  Transfer(owner, buyer, numTokens) */\n      0xffffffffffffffffffffffffffffffffffffffff\n      and\n        /* \"DISNEY/ERC20/ERC20.sol\":4541:4546  owner */\n      dup5\n        /* \"DISNEY/ERC20/ERC20.sol\":4532:4565  Transfer(owner, buyer, numTokens) */\n      0xffffffffffffffffffffffffffffffffffffffff\n      and\n      0xddf252ad1be2c89b69c2b068fc378daa952ba7f163c4a11628f55a4df523b3ef\n        /* \"DISNEY/ERC20/ERC20.sol\":4555:4564  numTokens */\n      dup5\n        /* \"DISNEY/ERC20/ERC20.sol\":4532:4565  Transfer(owner, buyer, numTokens) */\n      mload(0x40)\n      tag_75\n      swap2\n      swap1\n      jump(tag_28)\n    tag_75:\n      mload(0x40)\n      dup1\n      swap2\n      sub\n      swap1\n      log3\n        /* \"DISNEY/ERC20/ERC20.sol\":4582:4586  true */\n      0x01\n        /* \"DISNEY/ERC20/ERC20.sol\":4575:4586  return true */\n      swap1\n      pop\n        /* \"DISNEY/ERC20/ERC20.sol\":4114:4593  function transferFrom(address owner, address buyer, uint256 numTokens) public override returns (bool){... */\n      swap4\n      swap3\n      pop\n      pop\n      pop\n      jump\t// out\n        /* \"DISNEY/ERC20/ERC20.sol\":2105:2140  uint8 public constant decimals = 18 */\n    tag_39:\n        /* \"DISNEY/ERC20/ERC20.sol\":2138:2140  18 */\n      0x12\n        /* \"DISNEY/ERC20/ERC20.sol\":2105:2140  uint8 public constant decimals = 18 */\n      dup2\n      jump\t// out\n        /* \"DISNEY/ERC20/ERC20.sol\":2874:2995  function balanceOf(address tokenOwner) public override view returns (uint256){... */\n    tag_45:\n        /* \"DISNEY/ERC20/ERC20.sol\":2943:2950  uint256 */\n      0x00\n        /* \"DISNEY/ERC20/ERC20.sol\":2968:2976  balances */\n      dup1\n        /* \"DISNEY/ERC20/ERC20.sol\":2968:2988  balances[tokenOwner] */\n      0x00\n        /* \"DISNEY/ERC20/ERC20.sol\":2977:2987  tokenOwner */\n      dup4\n        /* \"DISNEY/ERC20/ERC20.sol\":2968:2988  balances[tokenOwner] */\n      0xffffffffffffffffffffffffffffffffffffffff\n      and\n      0xffffffffffffffffffffffffffffffffffffffff\n      and\n      dup2\n      mstore\n      0x20\n      add\n      swap1\n      dup2\n      mstore\n      0x20\n      add\n      0x00\n      keccak256\n      sload\n        /* \"DISNEY/ERC20/ERC20.sol\":2961:2988  return balances[tokenOwner] */\n      swap1\n      pop\n        /* \"DISNEY/ERC20/ERC20.sol\":2874:2995  function balanceOf(address tokenOwner) public override view returns (uint256){... */\n      swap2\n      swap1\n      pop\n      jump\t// out\n        /* \"DISNEY/ERC20/ERC20.sol\":2062:2099  string public constant symbol = \"ERC\" */\n    tag_48:\n      mload(0x40)\n      dup1\n      0x40\n      add\n      0x40\n      mstore\n      dup1\n      0x03\n      dup2\n      mstore\n      0x20\n      add\n      0x4552430000000000000000000000000000000000000000000000000000000000\n      dup2\n      mstore\n      pop\n      dup2\n      jump\t// out\n        /* \"DISNEY/ERC20/ERC20.sol\":3145:3502  function transfer(address recipient, uint256 numTokens) public override returns (bool){... */\n    tag_52:\n        /* \"DISNEY/ERC20/ERC20.sol\":3226:3230  bool */\n      0x00\n        /* \"DISNEY/ERC20/ERC20.sol\":3262:3270  balances */\n      dup1\n        /* \"DISNEY/ERC20/ERC20.sol\":3262:3282  balances[msg.sender] */\n      0x00\n        /* \"DISNEY/ERC20/ERC20.sol\":3271:3281  msg.sender */\n      caller\n        /* \"DISNEY/ERC20/ERC20.sol\":3262:3282  balances[msg.sender] */\n      0xffffffffffffffffffffffffffffffffffffffff\n      and\n      0xffffffffffffffffffffffffffffffffffffffff\n      and\n      dup2\n      mstore\n      0x20\n      add\n      swap1\n      dup2\n      mstore\n      0x20\n      add\n      0x00\n      keccak256\n      sload\n        /* \"DISNEY/ERC20/ERC20.sol\":3249:3258  numTokens */\n      dup3\n        /* \"DISNEY/ERC20/ERC20.sol\":3249:3282  numTokens <= balances[msg.sender] */\n      gt\n      iszero\n        /* \"DISNEY/ERC20/ERC20.sol\":3241:3283  require(numTokens <= balances[msg.sender]) */\n      tag_78\n      jumpi\n      0x00\n      dup1\n      revert\n    tag_78:\n        /* \"DISNEY/ERC20/ERC20.sol\":3316:3351  balances[msg.sender].sub(numTokens) */\n      tag_79\n        /* \"DISNEY/ERC20/ERC20.sol\":3341:3350  numTokens */\n      dup3\n        /* \"DISNEY/ERC20/ERC20.sol\":3316:3324  balances */\n      0x00\n        /* \"DISNEY/ERC20/ERC20.sol\":3316:3336  balances[msg.sender] */\n      dup1\n        /* \"DISNEY/ERC20/ERC20.sol\":3325:3335  msg.sender */\n      caller\n        /* \"DISNEY/ERC20/ERC20.sol\":3316:3336  balances[msg.sender] */\n      0xffffffffffffffffffffffffffffffffffffffff\n      and\n      0xffffffffffffffffffffffffffffffffffffffff\n      and\n      dup2\n      mstore\n      0x20\n      add\n      swap1\n      dup2\n      mstore\n      0x20\n      add\n      0x00\n      keccak256\n      sload\n        /* \"DISNEY/ERC20/ERC20.sol\":3316:3340  balances[msg.sender].sub */\n      tag_71\n      swap1\n        /* \"DISNEY/ERC20/ERC20.sol\":3316:3351  balances[msg.sender].sub(numTokens) */\n      swap2\n      swap1\n      0xffffffff\n      and\n      jump\t// in\n    tag_79:\n        /* \"DISNEY/ERC20/ERC20.sol\":3293:3301  balances */\n      0x00\n        /* \"DISNEY/ERC20/ERC20.sol\":3293:3313  balances[msg.sender] */\n      dup1\n        /* \"DISNEY/ERC20/ERC20.sol\":3302:3312  msg.sender */\n      caller\n        /* \"DISNEY/ERC20/ERC20.sol\":3293:3313  balances[msg.sender] */\n      0xffffffffffffffffffffffffffffffffffffffff\n      and\n      0xffffffffffffffffffffffffffffffffffffffff\n      and\n      dup2\n      mstore\n      0x20\n      add\n      swap1\n      dup2\n      mstore\n      0x20\n      add\n      0x00\n      keccak256\n        /* \"DISNEY/ERC20/ERC20.sol\":3293:3351  balances[msg.sender] = balances[msg.sender].sub(numTokens) */\n      dup2\n      swap1\n      sstore\n      pop\n        /* \"DISNEY/ERC20/ERC20.sol\":3383:3417  balances[recipient].add(numTokens) */\n      tag_80\n        /* \"DISNEY/ERC20/ERC20.sol\":3407:3416  numTokens */\n      dup3\n        /* \"DISNEY/ERC20/ERC20.sol\":3383:3391  balances */\n      0x00\n        /* \"DISNEY/ERC20/ERC20.sol\":3383:3402  balances[recipient] */\n      dup1\n        /* \"DISNEY/ERC20/ERC20.sol\":3392:3401  recipient */\n      dup7\n        /* \"DISNEY/ERC20/ERC20.sol\":3383:3402  balances[recipient] */\n      0xffffffffffffffffffffffffffffffffffffffff\n      and\n      0xffffffffffffffffffffffffffffffffffffffff\n      and\n      dup2\n      mstore\n      0x20\n      add\n      swap1\n      dup2\n      mstore\n      0x20\n      add\n      0x00\n      keccak256\n      sload\n        /* \"DISNEY/ERC20/ERC20.sol\":3383:3406  balances[recipient].add */\n      tag_74\n      swap1\n        /* \"DISNEY/ERC20/ERC20.sol\":3383:3417  balances[recipient].add(numTokens) */\n      swap2\n      swap1\n      0xffffffff\n      and\n      jump\t// in\n    tag_80:\n        /* \"DISNEY/ERC20/ERC20.sol\":3361:3369  balances */\n      0x00\n        /* \"DISNEY/ERC20/ERC20.sol\":3361:3380  balances[recipient] */\n      dup1\n        /* \"DISNEY/ERC20/ERC20.sol\":3370:3379  recipient */\n      dup6\n        /* \"DISNEY/ERC20/ERC20.sol\":3361:3380  balances[recipient] */\n      0xffffffffffffffffffffffffffffffffffffffff\n      and\n      0xffffffffffffffffffffffffffffffffffffffff\n      and\n      dup2\n      mstore\n      0x20\n      add\n      swap1\n      dup2\n      mstore\n      0x20\n      add\n      0x00\n      keccak256\n        /* \"DISNEY/ERC20/ERC20.sol\":3361:3417  balances[recipient] = balances[recipient].add(numTokens) */\n      dup2\n      swap1\n      sstore\n      pop\n        /* \"DISNEY/ERC20/ERC20.sol\":3453:3462  recipient */\n      dup3\n        /* \"DISNEY/ERC20/ERC20.sol\":3432:3474  Transfer(msg.sender, recipient, numTokens) */\n      0xffffffffffffffffffffffffffffffffffffffff\n      and\n        /* \"DISNEY/ERC20/ERC20.sol\":3441:3451  msg.sender */\n      caller\n        /* \"DISNEY/ERC20/ERC20.sol\":3432:3474  Transfer(msg.sender, recipient, numTokens) */\n      0xffffffffffffffffffffffffffffffffffffffff\n      and\n      0xddf252ad1be2c89b69c2b068fc378daa952ba7f163c4a11628f55a4df523b3ef\n        /* \"DISNEY/ERC20/ERC20.sol\":3464:3473  numTokens */\n      dup5\n        /* \"DISNEY/ERC20/ERC20.sol\":3432:3474  Transfer(msg.sender, recipient, numTokens) */\n      mload(0x40)\n      tag_81\n      swap2\n      swap1\n      jump(tag_28)\n    tag_81:\n      mload(0x40)\n      dup1\n      swap2\n      sub\n      swap1\n      log3\n        /* \"DISNEY/ERC20/ERC20.sol\":3491:3495  true */\n      0x01\n        /* \"DISNEY/ERC20/ERC20.sol\":3484:3495  return true */\n      swap1\n      pop\n        /* \"DISNEY/ERC20/ERC20.sol\":3145:3502  function transfer(address recipient, uint256 numTokens) public override returns (bool){... */\n      swap3\n      swap2\n      pop\n      pop\n      jump\t// out\n        /* \"DISNEY/ERC20/ERC20.sol\":3001:3139  function allowance(address owner, address delegate) public override view returns (uint256){... */\n    tag_57:\n        /* \"DISNEY/ERC20/ERC20.sol\":3083:3090  uint256 */\n      0x00\n        /* \"DISNEY/ERC20/ERC20.sol\":3108:3115  allowed */\n      0x01\n        /* \"DISNEY/ERC20/ERC20.sol\":3108:3122  allowed[owner] */\n      0x00\n        /* \"DISNEY/ERC20/ERC20.sol\":3116:3121  owner */\n      dup5\n        /* \"DISNEY/ERC20/ERC20.sol\":3108:3122  allowed[owner] */\n      0xffffffffffffffffffffffffffffffffffffffff\n      and\n      0xffffffffffffffffffffffffffffffffffffffff\n      and\n      dup2\n      mstore\n      0x20\n      add\n      swap1\n      dup2\n      mstore\n      0x20\n      add\n      0x00\n      keccak256\n        /* \"DISNEY/ERC20/ERC20.sol\":3108:3132  allowed[owner][delegate] */\n      0x00\n        /* \"DISNEY/ERC20/ERC20.sol\":3123:3131  delegate */\n      dup4\n        /* \"DISNEY/ERC20/ERC20.sol\":3108:3132  allowed[owner][delegate] */\n      0xffffffffffffffffffffffffffffffffffffffff\n      and\n      0xffffffffffffffffffffffffffffffffffffffff\n      and\n      dup2\n      mstore\n      0x20\n      add\n      swap1\n      dup2\n      mstore\n      0x20\n      add\n      0x00\n      keccak256\n      sload\n        /* \"DISNEY/ERC20/ERC20.sol\":3101:3132  return allowed[owner][delegate] */\n      swap1\n      pop\n        /* \"DISNEY/ERC20/ERC20.sol\":3001:3139  function allowance(address owner, address delegate) public override view returns (uint256){... */\n      swap3\n      swap2\n      pop\n      pop\n      jump\t// out\n        /* \"DISNEY/ERC20/ERC20.sol\":3508:3883  function transferencia_disney(address _cliente, address receiver, uint256 numTokens) public override returns (bool){... */\n    tag_61:\n        /* \"DISNEY/ERC20/ERC20.sol\":3618:3622  bool */\n      0x00\n        /* \"DISNEY/ERC20/ERC20.sol\":3654:3662  balances */\n      dup1\n        /* \"DISNEY/ERC20/ERC20.sol\":3654:3672  balances[_cliente] */\n      0x00\n        /* \"DISNEY/ERC20/ERC20.sol\":3663:3671  _cliente */\n      dup6\n        /* \"DISNEY/ERC20/ERC20.sol\":3654:3672  balances[_cliente] */\n      0xffffffffffffffffffffffffffffffffffffffff\n      and\n      0xffffffffffffffffffffffffffffffffffffffff\n      and\n      dup2\n      mstore\n      0x20\n      add\n      swap1\n      dup2\n      mstore\n      0x20\n      add\n      0x00\n      keccak256\n      sload\n        /* \"DISNEY/ERC20/ERC20.sol\":3641:3650  numTokens */\n      dup3\n        /* \"DISNEY/ERC20/ERC20.sol\":3641:3672  numTokens <= balances[_cliente] */\n      gt\n      iszero\n        /* \"DISNEY/ERC20/ERC20.sol\":3633:3673  require(numTokens <= balances[_cliente]) */\n      tag_84\n      jumpi\n      0x00\n      dup1\n      revert\n    tag_84:\n        /* \"DISNEY/ERC20/ERC20.sol\":3704:3737  balances[_cliente].sub(numTokens) */\n      tag_85\n        /* \"DISNEY/ERC20/ERC20.sol\":3727:3736  numTokens */\n      dup3\n        /* \"DISNEY/ERC20/ERC20.sol\":3704:3712  balances */\n      0x00\n        /* \"DISNEY/ERC20/ERC20.sol\":3704:3722  balances[_cliente] */\n      dup1\n        /* \"DISNEY/ERC20/ERC20.sol\":3713:3721  _cliente */\n      dup8\n        /* \"DISNEY/ERC20/ERC20.sol\":3704:3722  balances[_cliente] */\n      0xffffffffffffffffffffffffffffffffffffffff\n      and\n      0xffffffffffffffffffffffffffffffffffffffff\n      and\n      dup2\n      mstore\n      0x20\n      add\n      swap1\n      dup2\n      mstore\n      0x20\n      add\n      0x00\n      keccak256\n      sload\n        /* \"DISNEY/ERC20/ERC20.sol\":3704:3726  balances[_cliente].sub */\n      tag_71\n      swap1\n        /* \"DISNEY/ERC20/ERC20.sol\":3704:3737  balances[_cliente].sub(numTokens) */\n      swap2\n      swap1\n      0xffffffff\n      and\n      jump\t// in\n    tag_85:\n        /* \"DISNEY/ERC20/ERC20.sol\":3683:3691  balances */\n      0x00\n        /* \"DISNEY/ERC20/ERC20.sol\":3683:3701  balances[_cliente] */\n      dup1\n        /* \"DISNEY/ERC20/ERC20.sol\":3692:3700  _cliente */\n      dup7\n        /* \"DISNEY/ERC20/ERC20.sol\":3683:3701  balances[_cliente] */\n      0xffffffffffffffffffffffffffffffffffffffff\n      and\n      0xffffffffffffffffffffffffffffffffffffffff\n      and\n      dup2\n      mstore\n      0x20\n      add\n      swap1\n      dup2\n      mstore\n      0x20\n      add\n      0x00\n      keccak256\n        /* \"DISNEY/ERC20/ERC20.sol\":3683:3737  balances[_cliente] = balances[_cliente].sub(numTokens) */\n      dup2\n      swap1\n      sstore\n      pop\n        /* \"DISNEY/ERC20/ERC20.sol\":3768:3801  balances[receiver].add(numTokens) */\n      tag_86\n        /* \"DISNEY/ERC20/ERC20.sol\":3791:3800  numTokens */\n      dup3\n        /* \"DISNEY/ERC20/ERC20.sol\":3768:3776  balances */\n      0x00\n        /* \"DISNEY/ERC20/ERC20.sol\":3768:3786  balances[receiver] */\n      dup1\n        /* \"DISNEY/ERC20/ERC20.sol\":3777:3785  receiver */\n      dup7\n        /* \"DISNEY/ERC20/ERC20.sol\":3768:3786  balances[receiver] */\n      0xffffffffffffffffffffffffffffffffffffffff\n      and\n      0xffffffffffffffffffffffffffffffffffffffff\n      and\n      dup2\n      mstore\n      0x20\n      add\n      swap1\n      dup2\n      mstore\n      0x20\n      add\n      0x00\n      keccak256\n      sload\n        /* \"DISNEY/ERC20/ERC20.sol\":3768:3790  balances[receiver].add */\n      tag_74\n      swap1\n        /* \"DISNEY/ERC20/ERC20.sol\":3768:3801  balances[receiver].add(numTokens) */\n      swap2\n      swap1\n      0xffffffff\n      and\n      jump\t// in\n    tag_86:\n        /* \"DISNEY/ERC20/ERC20.sol\":3747:3755  balances */\n      0x00\n        /* \"DISNEY/ERC20/ERC20.sol\":3747:3765  balances[receiver] */\n      dup1\n        /* \"DISNEY/ERC20/ERC20.sol\":3756:3764  receiver */\n      dup6\n        /* \"DISNEY/ERC20/ERC20.sol\":3747:3765  balances[receiver] */\n      0xffffffffffffffffffffffffffffffffffffffff\n      and\n      0xffffffffffffffffffffffffffffffffffffffff\n      and\n      dup2\n      mstore\n      0x20\n      add\n      swap1\n      dup2\n      mstore\n      0x20\n      add\n      0x00\n      keccak256\n        /* \"DISNEY/ERC20/ERC20.sol\":3747:3801  balances[receiver] = balances[receiver].add(numTokens) */\n      dup2\n      swap1\n      sstore\n      pop\n        /* \"DISNEY/ERC20/ERC20.sol\":3835:3843  receiver */\n      dup3\n        /* \"DISNEY/ERC20/ERC20.sol\":3816:3855  Transfer(_cliente, receiver, numTokens) */\n      0xffffffffffffffffffffffffffffffffffffffff\n      and\n        /* \"DISNEY/ERC20/ERC20.sol\":3825:3833  _cliente */\n      dup5\n        /* \"DISNEY/ERC20/ERC20.sol\":3816:3855  Transfer(_cliente, receiver, numTokens) */\n      0xffffffffffffffffffffffffffffffffffffffff\n      and\n      0xddf252ad1be2c89b69c2b068fc378daa952ba7f163c4a11628f55a4df523b3ef\n        /* \"DISNEY/ERC20/ERC20.sol\":3845:3854  numTokens */\n      dup5\n        /* \"DISNEY/ERC20/ERC20.sol\":3816:3855  Transfer(_cliente, receiver, numTokens) */\n      mload(0x40)\n      tag_87\n      swap2\n      swap1\n      jump(tag_28)\n    tag_87:\n      mload(0x40)\n      dup1\n      swap2\n      sub\n      swap1\n      log3\n        /* \"DISNEY/ERC20/ERC20.sol\":3872:3876  true */\n      0x01\n        /* \"DISNEY/ERC20/ERC20.sol\":3865:3876  return true */\n      swap1\n      pop\n        /* \"DISNEY/ERC20/ERC20.sol\":3508:3883  function transferencia_disney(address _cliente, address receiver, uint256 numTokens) public override returns (bool){... */\n      swap4\n      swap3\n      pop\n      pop\n      pop\n      jump\t// out\n        /* \"DISNEY/SafeMath/SafeMath.sol\":308:424  function sub(uint256 a, uint256 b) internal pure returns (uint256) {... */\n    tag_71:\n        /* \"DISNEY/SafeMath/SafeMath.sol\":366:373  uint256 */\n      0x00\n        /* \"DISNEY/SafeMath/SafeMath.sol\":395:396  a */\n      dup3\n        /* \"DISNEY/SafeMath/SafeMath.sol\":390:391  b */\n      dup3\n        /* \"DISNEY/SafeMath/SafeMath.sol\":390:396  b <= a */\n      gt\n      iszero\n        /* \"DISNEY/SafeMath/SafeMath.sol\":383:397  assert(b <= a) */\n      tag_89\n      jumpi\n      invalid\n    tag_89:\n        /* \"DISNEY/SafeMath/SafeMath.sol\":416:417  b */\n      dup2\n        /* \"DISNEY/SafeMath/SafeMath.sol\":412:413  a */\n      dup4\n        /* \"DISNEY/SafeMath/SafeMath.sol\":412:417  a - b */\n      sub\n        /* \"DISNEY/SafeMath/SafeMath.sol\":405:417  return a - b */\n      swap1\n      pop\n        /* \"DISNEY/SafeMath/SafeMath.sol\":308:424  function sub(uint256 a, uint256 b) internal pure returns (uint256) {... */\n      swap3\n      swap2\n      pop\n      pop\n      jump\t// out\n        /* \"DISNEY/SafeMath/SafeMath.sol\":447:584  function add(uint256 a, uint256 b) internal pure returns (uint256) {... */\n    tag_74:\n        /* \"DISNEY/SafeMath/SafeMath.sol\":505:512  uint256 */\n      0x00\n        /* \"DISNEY/SafeMath/SafeMath.sol\":522:531  uint256 c */\n      dup1\n        /* \"DISNEY/SafeMath/SafeMath.sol\":538:539  b */\n      dup3\n        /* \"DISNEY/SafeMath/SafeMath.sol\":534:535  a */\n      dup5\n        /* \"DISNEY/SafeMath/SafeMath.sol\":534:539  a + b */\n      add\n        /* \"DISNEY/SafeMath/SafeMath.sol\":522:539  uint256 c = a + b */\n      swap1\n      pop\n        /* \"DISNEY/SafeMath/SafeMath.sol\":559:560  a */\n      dup4\n        /* \"DISNEY/SafeMath/SafeMath.sol\":554:555  c */\n      dup2\n        /* \"DISNEY/SafeMath/SafeMath.sol\":554:560  c >= a */\n      lt\n      iszero\n        /* \"DISNEY/SafeMath/SafeMath.sol\":547:561  assert(c >= a) */\n      tag_91\n      jumpi\n      invalid\n    tag_91:\n        /* \"DISNEY/SafeMath/SafeMath.sol\":576:577  c */\n      dup1\n        /* \"DISNEY/SafeMath/SafeMath.sol\":569:577  return c */\n      swap2\n      pop\n      pop\n        /* \"DISNEY/SafeMath/SafeMath.sol\":447:584  function add(uint256 a, uint256 b) internal pure returns (uint256) {... */\n      swap3\n      swap2\n      pop\n      pop\n      jump\t// out\n        /* \"--CODEGEN--\":5:135   */\n    tag_93:\n      0x00\n        /* \"--CODEGEN--\":85:91   */\n      dup2\n        /* \"--CODEGEN--\":72:92   */\n      calldataload\n        /* \"--CODEGEN--\":63:92   */\n      swap1\n      pop\n        /* \"--CODEGEN--\":97:130   */\n      tag_95\n        /* \"--CODEGEN--\":124:129   */\n      dup2\n        /* \"--CODEGEN--\":97:130   */\n      jump(tag_96)\n    tag_95:\n        /* \"--CODEGEN--\":57:135   */\n      swap3\n      swap2\n      pop\n      pop\n      jump\n        /* \"--CODEGEN--\":142:272   */\n    tag_97:\n      0x00\n        /* \"--CODEGEN--\":222:228   */\n      dup2\n        /* \"--CODEGEN--\":209:229   */\n      calldataload\n        /* \"--CODEGEN--\":200:229   */\n      swap1\n      pop\n        /* \"--CODEGEN--\":234:267   */\n      tag_99\n        /* \"--CODEGEN--\":261:266   */\n      dup2\n        /* \"--CODEGEN--\":234:267   */\n      jump(tag_100)\n    tag_99:\n        /* \"--CODEGEN--\":194:272   */\n      swap3\n      swap2\n      pop\n      pop\n      jump\n        /* \"--CODEGEN--\":279:520   */\n    tag_44:\n      0x00\n        /* \"--CODEGEN--\":383:385   */\n      0x20\n        /* \"--CODEGEN--\":371:380   */\n      dup3\n        /* \"--CODEGEN--\":362:369   */\n      dup5\n        /* \"--CODEGEN--\":358:381   */\n      sub\n        /* \"--CODEGEN--\":354:386   */\n      slt\n        /* \"--CODEGEN--\":351:353   */\n      iszero\n      tag_102\n      jumpi\n        /* \"--CODEGEN--\":399:400   */\n      0x00\n        /* \"--CODEGEN--\":396:397   */\n      dup1\n        /* \"--CODEGEN--\":389:401   */\n      revert\n        /* \"--CODEGEN--\":351:353   */\n    tag_102:\n        /* \"--CODEGEN--\":434:435   */\n      0x00\n        /* \"--CODEGEN--\":451:504   */\n      tag_103\n        /* \"--CODEGEN--\":496:503   */\n      dup5\n        /* \"--CODEGEN--\":487:493   */\n      dup3\n        /* \"--CODEGEN--\":476:485   */\n      dup6\n        /* \"--CODEGEN--\":472:494   */\n      add\n        /* \"--CODEGEN--\":451:504   */\n      jump(tag_93)\n    tag_103:\n        /* \"--CODEGEN--\":441:504   */\n      swap2\n      pop\n        /* \"--CODEGEN--\":413:510   */\n      pop\n        /* \"--CODEGEN--\":345:520   */\n      swap3\n      swap2\n      pop\n      pop\n      jump\n        /* \"--CODEGEN--\":527:893   */\n    tag_56:\n      0x00\n      dup1\n        /* \"--CODEGEN--\":648:650   */\n      0x40\n        /* \"--CODEGEN--\":636:645   */\n      dup4\n        /* \"--CODEGEN--\":627:634   */\n      dup6\n        /* \"--CODEGEN--\":623:646   */\n      sub\n        /* \"--CODEGEN--\":619:651   */\n      slt\n        /* \"--CODEGEN--\":616:618   */\n      iszero\n      tag_105\n      jumpi\n        /* \"--CODEGEN--\":664:665   */\n      0x00\n        /* \"--CODEGEN--\":661:662   */\n      dup1\n        /* \"--CODEGEN--\":654:666   */\n      revert\n        /* \"--CODEGEN--\":616:618   */\n    tag_105:\n        /* \"--CODEGEN--\":699:700   */\n      0x00\n        /* \"--CODEGEN--\":716:769   */\n      tag_106\n        /* \"--CODEGEN--\":761:768   */\n      dup6\n        /* \"--CODEGEN--\":752:758   */\n      dup3\n        /* \"--CODEGEN--\":741:750   */\n      dup7\n        /* \"--CODEGEN--\":737:759   */\n      add\n        /* \"--CODEGEN--\":716:769   */\n      jump(tag_93)\n    tag_106:\n        /* \"--CODEGEN--\":706:769   */\n      swap3\n      pop\n        /* \"--CODEGEN--\":678:775   */\n      pop\n        /* \"--CODEGEN--\":806:808   */\n      0x20\n        /* \"--CODEGEN--\":824:877   */\n      tag_107\n        /* \"--CODEGEN--\":869:876   */\n      dup6\n        /* \"--CODEGEN--\":860:866   */\n      dup3\n        /* \"--CODEGEN--\":849:858   */\n      dup7\n        /* \"--CODEGEN--\":845:867   */\n      add\n        /* \"--CODEGEN--\":824:877   */\n      jump(tag_93)\n    tag_107:\n        /* \"--CODEGEN--\":814:877   */\n      swap2\n      pop\n        /* \"--CODEGEN--\":785:883   */\n      pop\n        /* \"--CODEGEN--\":610:893   */\n      swap3\n      pop\n      swap3\n      swap1\n      pop\n      jump\n        /* \"--CODEGEN--\":900:1391   */\n    tag_35:\n      0x00\n      dup1\n      0x00\n        /* \"--CODEGEN--\":1038:1040   */\n      0x60\n        /* \"--CODEGEN--\":1026:1035   */\n      dup5\n        /* \"--CODEGEN--\":1017:1024   */\n      dup7\n        /* \"--CODEGEN--\":1013:1036   */\n      sub\n        /* \"--CODEGEN--\":1009:1041   */\n      slt\n        /* \"--CODEGEN--\":1006:1008   */\n      iszero\n      tag_109\n      jumpi\n        /* \"--CODEGEN--\":1054:1055   */\n      0x00\n        /* \"--CODEGEN--\":1051:1052   */\n      dup1\n        /* \"--CODEGEN--\":1044:1056   */\n      revert\n        /* \"--CODEGEN--\":1006:1008   */\n    tag_109:\n        /* \"--CODEGEN--\":1089:1090   */\n      0x00\n        /* \"--CODEGEN--\":1106:1159   */\n      tag_110\n        /* \"--CODEGEN--\":1151:1158   */\n      dup7\n        /* \"--CODEGEN--\":1142:1148   */\n      dup3\n        /* \"--CODEGEN--\":1131:1140   */\n      dup8\n        /* \"--CODEGEN--\":1127:1149   */\n      add\n        /* \"--CODEGEN--\":1106:1159   */\n      jump(tag_93)\n    tag_110:\n        /* \"--CODEGEN--\":1096:1159   */\n      swap4\n      pop\n        /* \"--CODEGEN--\":1068:1165   */\n      pop\n        /* \"--CODEGEN--\":1196:1198   */\n      0x20\n        /* \"--CODEGEN--\":1214:1267   */\n      tag_111\n        /* \"--CODEGEN--\":1259:1266   */\n      dup7\n        /* \"--CODEGEN--\":1250:1256   */\n      dup3\n        /* \"--CODEGEN--\":1239:1248   */\n      dup8\n        /* \"--CODEGEN--\":1235:1257   */\n      add\n        /* \"--CODEGEN--\":1214:1267   */\n      jump(tag_93)\n    tag_111:\n        /* \"--CODEGEN--\":1204:1267   */\n      swap3\n      pop\n        /* \"--CODEGEN--\":1175:1273   */\n      pop\n        /* \"--CODEGEN--\":1304:1306   */\n      0x40\n        /* \"--CODEGEN--\":1322:1375   */\n      tag_112\n        /* \"--CODEGEN--\":1367:1374   */\n      dup7\n        /* \"--CODEGEN--\":1358:1364   */\n      dup3\n        /* \"--CODEGEN--\":1347:1356   */\n      dup8\n        /* \"--CODEGEN--\":1343:1365   */\n      add\n        /* \"--CODEGEN--\":1322:1375   */\n      jump(tag_97)\n    tag_112:\n        /* \"--CODEGEN--\":1312:1375   */\n      swap2\n      pop\n        /* \"--CODEGEN--\":1283:1381   */\n      pop\n        /* \"--CODEGEN--\":1000:1391   */\n      swap3\n      pop\n      swap3\n      pop\n      swap3\n      jump\n        /* \"--CODEGEN--\":1398:1764   */\n    tag_21:\n      0x00\n      dup1\n        /* \"--CODEGEN--\":1519:1521   */\n      0x40\n        /* \"--CODEGEN--\":1507:1516   */\n      dup4\n        /* \"--CODEGEN--\":1498:1505   */\n      dup6\n        /* \"--CODEGEN--\":1494:1517   */\n      sub\n        /* \"--CODEGEN--\":1490:1522   */\n      slt\n        /* \"--CODEGEN--\":1487:1489   */\n      iszero\n      tag_114\n      jumpi\n        /* \"--CODEGEN--\":1535:1536   */\n      0x00\n        /* \"--CODEGEN--\":1532:1533   */\n      dup1\n        /* \"--CODEGEN--\":1525:1537   */\n      revert\n        /* \"--CODEGEN--\":1487:1489   */\n    tag_114:\n        /* \"--CODEGEN--\":1570:1571   */\n      0x00\n        /* \"--CODEGEN--\":1587:1640   */\n      tag_115\n        /* \"--CODEGEN--\":1632:1639   */\n      dup6\n        /* \"--CODEGEN--\":1623:1629   */\n      dup3\n        /* \"--CODEGEN--\":1612:1621   */\n      dup7\n        /* \"--CODEGEN--\":1608:1630   */\n      add\n        /* \"--CODEGEN--\":1587:1640   */\n      jump(tag_93)\n    tag_115:\n        /* \"--CODEGEN--\":1577:1640   */\n      swap3\n      pop\n        /* \"--CODEGEN--\":1549:1646   */\n      pop\n        /* \"--CODEGEN--\":1677:1679   */\n      0x20\n        /* \"--CODEGEN--\":1695:1748   */\n      tag_116\n        /* \"--CODEGEN--\":1740:1747   */\n      dup6\n        /* \"--CODEGEN--\":1731:1737   */\n      dup3\n        /* \"--CODEGEN--\":1720:1729   */\n      dup7\n        /* \"--CODEGEN--\":1716:1738   */\n      add\n        /* \"--CODEGEN--\":1695:1748   */\n      jump(tag_97)\n    tag_116:\n        /* \"--CODEGEN--\":1685:1748   */\n      swap2\n      pop\n        /* \"--CODEGEN--\":1656:1754   */\n      pop\n        /* \"--CODEGEN--\":1481:1764   */\n      swap3\n      pop\n      swap3\n      swap1\n      pop\n      jump\n        /* \"--CODEGEN--\":1771:2012   */\n    tag_31:\n      0x00\n        /* \"--CODEGEN--\":1875:1877   */\n      0x20\n        /* \"--CODEGEN--\":1863:1872   */\n      dup3\n        /* \"--CODEGEN--\":1854:1861   */\n      dup5\n        /* \"--CODEGEN--\":1850:1873   */\n      sub\n        /* \"--CODEGEN--\":1846:1878   */\n      slt\n        /* \"--CODEGEN--\":1843:1845   */\n      iszero\n      tag_118\n      jumpi\n        /* \"--CODEGEN--\":1891:1892   */\n      0x00\n        /* \"--CODEGEN--\":1888:1889   */\n      dup1\n        /* \"--CODEGEN--\":1881:1893   */\n      revert\n        /* \"--CODEGEN--\":1843:1845   */\n    tag_118:\n        /* \"--CODEGEN--\":1926:1927   */\n      0x00\n        /* \"--CODEGEN--\":1943:1996   */\n      tag_119\n        /* \"--CODEGEN--\":1988:1995   */\n      dup5\n        /* \"--CODEGEN--\":1979:1985   */\n      dup3\n        /* \"--CODEGEN--\":1968:1977   */\n      dup6\n        /* \"--CODEGEN--\":1964:1986   */\n      add\n        /* \"--CODEGEN--\":1943:1996   */\n      jump(tag_97)\n    tag_119:\n        /* \"--CODEGEN--\":1933:1996   */\n      swap2\n      pop\n        /* \"--CODEGEN--\":1905:2002   */\n      pop\n        /* \"--CODEGEN--\":1837:2012   */\n      swap3\n      swap2\n      pop\n      pop\n      jump\n        /* \"--CODEGEN--\":2019:2123   */\n    tag_120:\n        /* \"--CODEGEN--\":2096:2117   */\n      tag_122\n        /* \"--CODEGEN--\":2111:2116   */\n      dup2\n        /* \"--CODEGEN--\":2096:2117   */\n      jump(tag_123)\n    tag_122:\n        /* \"--CODEGEN--\":2091:2094   */\n      dup3\n        /* \"--CODEGEN--\":2084:2118   */\n      mstore\n        /* \"--CODEGEN--\":2078:2123   */\n      pop\n      pop\n      jump\n        /* \"--CODEGEN--\":2130:2469   */\n    tag_124:\n      0x00\n        /* \"--CODEGEN--\":2238:2273   */\n      tag_126\n        /* \"--CODEGEN--\":2267:2272   */\n      dup3\n        /* \"--CODEGEN--\":2238:2273   */\n      jump(tag_127)\n    tag_126:\n        /* \"--CODEGEN--\":2285:2356   */\n      tag_128\n        /* \"--CODEGEN--\":2349:2355   */\n      dup2\n        /* \"--CODEGEN--\":2344:2347   */\n      dup6\n        /* \"--CODEGEN--\":2285:2356   */\n      jump(tag_129)\n    tag_128:\n        /* \"--CODEGEN--\":2278:2356   */\n      swap4\n      pop\n        /* \"--CODEGEN--\":2361:2413   */\n      tag_130\n        /* \"--CODEGEN--\":2406:2412   */\n      dup2\n        /* \"--CODEGEN--\":2401:2404   */\n      dup6\n        /* \"--CODEGEN--\":2394:2398   */\n      0x20\n        /* \"--CODEGEN--\":2387:2392   */\n      dup7\n        /* \"--CODEGEN--\":2383:2399   */\n      add\n        /* \"--CODEGEN--\":2361:2413   */\n      jump(tag_131)\n    tag_130:\n        /* \"--CODEGEN--\":2434:2463   */\n      tag_132\n        /* \"--CODEGEN--\":2456:2462   */\n      dup2\n        /* \"--CODEGEN--\":2434:2463   */\n      jump(tag_133)\n    tag_132:\n        /* \"--CODEGEN--\":2429:2432   */\n      dup5\n        /* \"--CODEGEN--\":2425:2464   */\n      add\n        /* \"--CODEGEN--\":2418:2464   */\n      swap2\n      pop\n        /* \"--CODEGEN--\":2218:2469   */\n      pop\n      swap3\n      swap2\n      pop\n      pop\n      jump\n        /* \"--CODEGEN--\":2476:2589   */\n    tag_134:\n        /* \"--CODEGEN--\":2559:2583   */\n      tag_136\n        /* \"--CODEGEN--\":2577:2582   */\n      dup2\n        /* \"--CODEGEN--\":2559:2583   */\n      jump(tag_137)\n    tag_136:\n        /* \"--CODEGEN--\":2554:2557   */\n      dup3\n        /* \"--CODEGEN--\":2547:2584   */\n      mstore\n        /* \"--CODEGEN--\":2541:2589   */\n      pop\n      pop\n      jump\n        /* \"--CODEGEN--\":2596:2703   */\n    tag_138:\n        /* \"--CODEGEN--\":2675:2697   */\n      tag_140\n        /* \"--CODEGEN--\":2691:2696   */\n      dup2\n        /* \"--CODEGEN--\":2675:2697   */\n      jump(tag_141)\n    tag_140:\n        /* \"--CODEGEN--\":2670:2673   */\n      dup3\n        /* \"--CODEGEN--\":2663:2698   */\n      mstore\n        /* \"--CODEGEN--\":2657:2703   */\n      pop\n      pop\n      jump\n        /* \"--CODEGEN--\":2710:2911   */\n    tag_24:\n      0x00\n        /* \"--CODEGEN--\":2822:2824   */\n      0x20\n        /* \"--CODEGEN--\":2811:2820   */\n      dup3\n        /* \"--CODEGEN--\":2807:2825   */\n      add\n        /* \"--CODEGEN--\":2799:2825   */\n      swap1\n      pop\n        /* \"--CODEGEN--\":2836:2901   */\n      tag_143\n        /* \"--CODEGEN--\":2898:2899   */\n      0x00\n        /* \"--CODEGEN--\":2887:2896   */\n      dup4\n        /* \"--CODEGEN--\":2883:2900   */\n      add\n        /* \"--CODEGEN--\":2874:2880   */\n      dup5\n        /* \"--CODEGEN--\":2836:2901   */\n      jump(tag_120)\n    tag_143:\n        /* \"--CODEGEN--\":2793:2911   */\n      swap3\n      swap2\n      pop\n      pop\n      jump\n        /* \"--CODEGEN--\":2918:3211   */\n    tag_18:\n      0x00\n        /* \"--CODEGEN--\":3052:3054   */\n      0x20\n        /* \"--CODEGEN--\":3041:3050   */\n      dup3\n        /* \"--CODEGEN--\":3037:3055   */\n      add\n        /* \"--CODEGEN--\":3029:3055   */\n      swap1\n      pop\n        /* \"--CODEGEN--\":3102:3111   */\n      dup2\n        /* \"--CODEGEN--\":3096:3100   */\n      dup2\n        /* \"--CODEGEN--\":3092:3112   */\n      sub\n        /* \"--CODEGEN--\":3088:3089   */\n      0x00\n        /* \"--CODEGEN--\":3077:3086   */\n      dup4\n        /* \"--CODEGEN--\":3073:3090   */\n      add\n        /* \"--CODEGEN--\":3066:3113   */\n      mstore\n        /* \"--CODEGEN--\":3127:3201   */\n      tag_145\n        /* \"--CODEGEN--\":3196:3200   */\n      dup2\n        /* \"--CODEGEN--\":3187:3193   */\n      dup5\n        /* \"--CODEGEN--\":3127:3201   */\n      jump(tag_124)\n    tag_145:\n        /* \"--CODEGEN--\":3119:3201   */\n      swap1\n      pop\n        /* \"--CODEGEN--\":3023:3211   */\n      swap3\n      swap2\n      pop\n      pop\n      jump\n        /* \"--CODEGEN--\":3218:3431   */\n    tag_28:\n      0x00\n        /* \"--CODEGEN--\":3336:3338   */\n      0x20\n        /* \"--CODEGEN--\":3325:3334   */\n      dup3\n        /* \"--CODEGEN--\":3321:3339   */\n      add\n        /* \"--CODEGEN--\":3313:3339   */\n      swap1\n      pop\n        /* \"--CODEGEN--\":3350:3421   */\n      tag_147\n        /* \"--CODEGEN--\":3418:3419   */\n      0x00\n        /* \"--CODEGEN--\":3407:3416   */\n      dup4\n        /* \"--CODEGEN--\":3403:3420   */\n      add\n        /* \"--CODEGEN--\":3394:3400   */\n      dup5\n        /* \"--CODEGEN--\":3350:3421   */\n      jump(tag_134)\n    tag_147:\n        /* \"--CODEGEN--\":3307:3431   */\n      swap3\n      swap2\n      pop\n      pop\n      jump\n        /* \"--CODEGEN--\":3438:3643   */\n    tag_41:\n      0x00\n        /* \"--CODEGEN--\":3552:3554   */\n      0x20\n        /* \"--CODEGEN--\":3541:3550   */\n      dup3\n        /* \"--CODEGEN--\":3537:3555   */\n      add\n        /* \"--CODEGEN--\":3529:3555   */\n      swap1\n      pop\n        /* \"--CODEGEN--\":3566:3633   */\n      tag_149\n        /* \"--CODEGEN--\":3630:3631   */\n      0x00\n        /* \"--CODEGEN--\":3619:3628   */\n      dup4\n        /* \"--CODEGEN--\":3615:3632   */\n      add\n        /* \"--CODEGEN--\":3606:3612   */\n      dup5\n        /* \"--CODEGEN--\":3566:3633   */\n      jump(tag_138)\n    tag_149:\n        /* \"--CODEGEN--\":3523:3643   */\n      swap3\n      swap2\n      pop\n      pop\n      jump\n        /* \"--CODEGEN--\":3650:3768   */\n    tag_127:\n      0x00\n        /* \"--CODEGEN--\":3740:3745   */\n      dup2\n        /* \"--CODEGEN--\":3734:3746   */\n      mload\n        /* \"--CODEGEN--\":3724:3746   */\n      swap1\n      pop\n        /* \"--CODEGEN--\":3705:3768   */\n      swap2\n      swap1\n      pop\n      jump\n        /* \"--CODEGEN--\":3776:3939   */\n    tag_129:\n      0x00\n        /* \"--CODEGEN--\":3891:3897   */\n      dup3\n        /* \"--CODEGEN--\":3886:3889   */\n      dup3\n        /* \"--CODEGEN--\":3879:3898   */\n      mstore\n        /* \"--CODEGEN--\":3928:3932   */\n      0x20\n        /* \"--CODEGEN--\":3923:3926   */\n      dup3\n        /* \"--CODEGEN--\":3919:3933   */\n      add\n        /* \"--CODEGEN--\":3904:3933   */\n      swap1\n      pop\n        /* \"--CODEGEN--\":3872:3939   */\n      swap3\n      swap2\n      pop\n      pop\n      jump\n        /* \"--CODEGEN--\":3947:4038   */\n    tag_152:\n      0x00\n        /* \"--CODEGEN--\":4009:4033   */\n      tag_154\n        /* \"--CODEGEN--\":4027:4032   */\n      dup3\n        /* \"--CODEGEN--\":4009:4033   */\n      jump(tag_155)\n    tag_154:\n        /* \"--CODEGEN--\":3998:4033   */\n      swap1\n      pop\n        /* \"--CODEGEN--\":3992:4038   */\n      swap2\n      swap1\n      pop\n      jump\n        /* \"--CODEGEN--\":4045:4130   */\n    tag_123:\n      0x00\n        /* \"--CODEGEN--\":4118:4123   */\n      dup2\n        /* \"--CODEGEN--\":4111:4124   */\n      iszero\n        /* \"--CODEGEN--\":4104:4125   */\n      iszero\n        /* \"--CODEGEN--\":4093:4125   */\n      swap1\n      pop\n        /* \"--CODEGEN--\":4087:4130   */\n      swap2\n      swap1\n      pop\n      jump\n        /* \"--CODEGEN--\":4137:4258   */\n    tag_155:\n      0x00\n        /* \"--CODEGEN--\":4210:4252   */\n      0xffffffffffffffffffffffffffffffffffffffff\n        /* \"--CODEGEN--\":4203:4208   */\n      dup3\n        /* \"--CODEGEN--\":4199:4253   */\n      and\n        /* \"--CODEGEN--\":4188:4253   */\n      swap1\n      pop\n        /* \"--CODEGEN--\":4182:4258   */\n      swap2\n      swap1\n      pop\n      jump\n        /* \"--CODEGEN--\":4265:4337   */\n    tag_137:\n      0x00\n        /* \"--CODEGEN--\":4327:4332   */\n      dup2\n        /* \"--CODEGEN--\":4316:4332   */\n      swap1\n      pop\n        /* \"--CODEGEN--\":4310:4337   */\n      swap2\n      swap1\n      pop\n      jump\n        /* \"--CODEGEN--\":4344:4425   */\n    tag_141:\n      0x00\n        /* \"--CODEGEN--\":4415:4419   */\n      0xff\n        /* \"--CODEGEN--\":4408:4413   */\n      dup3\n        /* \"--CODEGEN--\":4404:4420   */\n      and\n        /* \"--CODEGEN--\":4393:4420   */\n      swap1\n      pop\n        /* \"--CODEGEN--\":4387:4425   */\n      swap2\n      swap1\n      pop\n      jump\n        /* \"--CODEGEN--\":4433:4701   */\n    tag_131:\n        /* \"--CODEGEN--\":4498:4499   */\n      0x00\n        /* \"--CODEGEN--\":4505:4606   */\n    tag_161:\n        /* \"--CODEGEN--\":4519:4525   */\n      dup4\n        /* \"--CODEGEN--\":4516:4517   */\n      dup2\n        /* \"--CODEGEN--\":4513:4526   */\n      lt\n        /* \"--CODEGEN--\":4505:4606   */\n      iszero\n      tag_163\n      jumpi\n        /* \"--CODEGEN--\":4595:4596   */\n      dup1\n        /* \"--CODEGEN--\":4590:4593   */\n      dup3\n        /* \"--CODEGEN--\":4586:4597   */\n      add\n        /* \"--CODEGEN--\":4580:4598   */\n      mload\n        /* \"--CODEGEN--\":4576:4577   */\n      dup2\n        /* \"--CODEGEN--\":4571:4574   */\n      dup5\n        /* \"--CODEGEN--\":4567:4578   */\n      add\n        /* \"--CODEGEN--\":4560:4599   */\n      mstore\n        /* \"--CODEGEN--\":4541:4543   */\n      0x20\n        /* \"--CODEGEN--\":4538:4539   */\n      dup2\n        /* \"--CODEGEN--\":4534:4544   */\n      add\n        /* \"--CODEGEN--\":4529:4544   */\n      swap1\n      pop\n        /* \"--CODEGEN--\":4505:4606   */\n      jump(tag_161)\n    tag_163:\n        /* \"--CODEGEN--\":4621:4627   */\n      dup4\n        /* \"--CODEGEN--\":4618:4619   */\n      dup2\n        /* \"--CODEGEN--\":4615:4628   */\n      gt\n        /* \"--CODEGEN--\":4612:4614   */\n      iszero\n      tag_164\n      jumpi\n        /* \"--CODEGEN--\":4686:4687   */\n      0x00\n        /* \"--CODEGEN--\":4677:4683   */\n      dup5\n        /* \"--CODEGEN--\":4672:4675   */\n      dup5\n        /* \"--CODEGEN--\":4668:4684   */\n      add\n        /* \"--CODEGEN--\":4661:4688   */\n      mstore\n        /* \"--CODEGEN--\":4612:4614   */\n    tag_164:\n        /* \"--CODEGEN--\":4482:4701   */\n      pop\n      pop\n      pop\n      pop\n      jump\n        /* \"--CODEGEN--\":4709:4806   */\n    tag_133:\n      0x00\n        /* \"--CODEGEN--\":4797:4799   */\n      0x1f\n        /* \"--CODEGEN--\":4793:4800   */\n      not\n        /* \"--CODEGEN--\":4788:4790   */\n      0x1f\n        /* \"--CODEGEN--\":4781:4786   */\n      dup4\n        /* \"--CODEGEN--\":4777:4791   */\n      add\n        /* \"--CODEGEN--\":4773:4801   */\n      and\n        /* \"--CODEGEN--\":4763:4801   */\n      swap1\n      pop\n        /* \"--CODEGEN--\":4757:4806   */\n      swap2\n      swap1\n      pop\n      jump\n        /* \"--CODEGEN--\":4814:4931   */\n    tag_96:\n        /* \"--CODEGEN--\":4883:4907   */\n      tag_167\n        /* \"--CODEGEN--\":4901:4906   */\n      dup2\n        /* \"--CODEGEN--\":4883:4907   */\n      jump(tag_152)\n    tag_167:\n        /* \"--CODEGEN--\":4876:4881   */\n      dup2\n        /* \"--CODEGEN--\":4873:4908   */\n      eq\n        /* \"--CODEGEN--\":4863:4865   */\n      tag_168\n      jumpi\n        /* \"--CODEGEN--\":4922:4923   */\n      0x00\n        /* \"--CODEGEN--\":4919:4920   */\n      dup1\n        /* \"--CODEGEN--\":4912:4924   */\n      revert\n        /* \"--CODEGEN--\":4863:4865   */\n    tag_168:\n        /* \"--CODEGEN--\":4857:4931   */\n      pop\n      jump\n        /* \"--CODEGEN--\":4938:5055   */\n    tag_100:\n        /* \"--CODEGEN--\":5007:5031   */\n      tag_170\n        /* \"--CODEGEN--\":5025:5030   */\n      dup2\n        /* \"--CODEGEN--\":5007:5031   */\n      jump(tag_137)\n    tag_170:\n        /* \"--CODEGEN--\":5000:5005   */\n      dup2\n        /* \"--CODEGEN--\":4997:5032   */\n      eq\n        /* \"--CODEGEN--\":4987:4989   */\n      tag_171\n      jumpi\n        /* \"--CODEGEN--\":5046:5047   */\n      0x00\n        /* \"--CODEGEN--\":5043:5044   */\n      dup1\n        /* \"--CODEGEN--\":5036:5048   */\n      revert\n        /* \"--CODEGEN--\":4987:4989   */\n    tag_171:\n        /* \"--CODEGEN--\":4981:5055   */\n      pop\n      jump\n\n    auxdata: 0xa26469706673582212203d837ba252b592c3473ff0c78c44a3ba97a7f6e4fe3e4c15a805cff318b09b7c64736f6c63430006000033\n}\n",
				"bytecode": {
					"linkReferences": {},
					"object": "608060405234801561001057600080fd5b5060405161109d38038061109d83398181016040526100329190810190610099565b806002819055506002546000803373ffffffffffffffffffffffffffffffffffffffff1673ffffffffffffffffffffffffffffffffffffffff16815260200190815260200160002081905550506100e3565b600081519050610093816100cc565b92915050565b6000602082840312156100ab57600080fd5b60006100b984828501610084565b91505092915050565b6000819050919050565b6100d5816100c2565b81146100e057600080fd5b50565b610fab806100f26000396000f3fe608060405234801561001057600080fd5b50600436106100a95760003560e01c8063313ce56711610071578063313ce5671461016657806370a082311461018457806395d89b41146101b4578063a9059cbb146101d2578063dd62ed3e14610202578063f490a35114610232576100a9565b806306fdde03146100ae578063095ea7b3146100cc57806318160ddd146100fc5780631d43cc981461011a57806323b872dd14610136575b600080fd5b6100b6610262565b6040516100c39190610e3a565b60405180910390f35b6100e660048036036100e19190810190610d54565b61029b565b6040516100f39190610e1f565b60405180910390f35b61010461038d565b6040516101119190610e5c565b60405180910390f35b610134600480360361012f9190810190610d90565b610397565b005b610150600480360361014b9190810190610d05565b6103f6565b60405161015d9190610e1f565b60405180910390f35b61016e610771565b60405161017b9190610e77565b60405180910390f35b61019e60048036036101999190810190610ca0565b610776565b6040516101ab9190610e5c565b60405180910390f35b6101bc6107be565b6040516101c99190610e3a565b60405180910390f35b6101ec60048036036101e79190810190610d54565b6107f7565b6040516101f99190610e1f565b60405180910390f35b61021c60048036036102179190810190610cc9565b6109d9565b6040516102299190610e5c565b60405180910390f35b61024c60048036036102479190810190610d05565b610a60565b6040516102599190610e1f565b60405180910390f35b6040518060400160405280601181526020017f4552433230426c6f636b636861696e415a00000000000000000000000000000081525081565b600081600160003373ffffffffffffffffffffffffffffffffffffffff1673ffffffffffffffffffffffffffffffffffffffff16815260200190815260200160002060008573ffffffffffffffffffffffffffffffffffffffff1673ffffffffffffffffffffffffffffffffffffffff168152602001908152602001600020819055508273ffffffffffffffffffffffffffffffffffffffff163373ffffffffffffffffffffffffffffffffffffffff167f8c5be1e5ebec7d5bd14f71427d1e84f3dd0314c0f7b2291e5b200ac8c7c3b9258460405161037b9190610e5c565b60405180910390a36001905092915050565b6000600254905090565b80600260008282540192505081905550806000803373ffffffffffffffffffffffffffffffffffffffff1673ffffffffffffffffffffffffffffffffffffffff1681526020019081526020016000206000828254019250508190555050565b60008060008573ffffffffffffffffffffffffffffffffffffffff1673ffffffffffffffffffffffffffffffffffffffff1681526020019081526020016000205482111561044357600080fd5b600160008573ffffffffffffffffffffffffffffffffffffffff1673ffffffffffffffffffffffffffffffffffffffff16815260200190815260200160002060003373ffffffffffffffffffffffffffffffffffffffff1673ffffffffffffffffffffffffffffffffffffffff168152602001908152602001600020548211156104cc57600080fd5b61051d826000808773ffffffffffffffffffffffffffffffffffffffff1673ffffffffffffffffffffffffffffffffffffffff16815260200190815260200160002054610c4390919063ffffffff16565b6000808673ffffffffffffffffffffffffffffffffffffffff1673ffffffffffffffffffffffffffffffffffffffff168152602001908152602001600020819055506105ee82600160008773ffffffffffffffffffffffffffffffffffffffff1673ffffffffffffffffffffffffffffffffffffffff16815260200190815260200160002060003373ffffffffffffffffffffffffffffffffffffffff1673ffffffffffffffffffffffffffffffffffffffff16815260200190815260200160002054610c4390919063ffffffff16565b600160008673ffffffffffffffffffffffffffffffffffffffff1673ffffffffffffffffffffffffffffffffffffffff16815260200190815260200160002060003373ffffffffffffffffffffffffffffffffffffffff1673ffffffffffffffffffffffffffffffffffffffff168152602001908152602001600020819055506106bf826000808673ffffffffffffffffffffffffffffffffffffffff1673ffffffffffffffffffffffffffffffffffffffff16815260200190815260200160002054610c5a90919063ffffffff16565b6000808573ffffffffffffffffffffffffffffffffffffffff1673ffffffffffffffffffffffffffffffffffffffff168152602001908152602001600020819055508273ffffffffffffffffffffffffffffffffffffffff168473ffffffffffffffffffffffffffffffffffffffff167fddf252ad1be2c89b69c2b068fc378daa952ba7f163c4a11628f55a4df523b3ef8460405161075e9190610e5c565b60405180910390a3600190509392505050565b601281565b60008060008373ffffffffffffffffffffffffffffffffffffffff1673ffffffffffffffffffffffffffffffffffffffff168152602001908152602001600020549050919050565b6040518060400160405280600381526020017f455243000000000000000000000000000000000000000000000000000000000081525081565b60008060003373ffffffffffffffffffffffffffffffffffffffff1673ffffffffffffffffffffffffffffffffffffffff1681526020019081526020016000205482111561084457600080fd5b610895826000803373ffffffffffffffffffffffffffffffffffffffff1673ffffffffffffffffffffffffffffffffffffffff16815260200190815260200160002054610c4390919063ffffffff16565b6000803373ffffffffffffffffffffffffffffffffffffffff1673ffffffffffffffffffffffffffffffffffffffff16815260200190815260200160002081905550610928826000808673ffffffffffffffffffffffffffffffffffffffff1673ffffffffffffffffffffffffffffffffffffffff16815260200190815260200160002054610c5a90919063ffffffff16565b6000808573ffffffffffffffffffffffffffffffffffffffff1673ffffffffffffffffffffffffffffffffffffffff168152602001908152602001600020819055508273ffffffffffffffffffffffffffffffffffffffff163373ffffffffffffffffffffffffffffffffffffffff167fddf252ad1be2c89b69c2b068fc378daa952ba7f163c4a11628f55a4df523b3ef846040516109c79190610e5c565b60405180910390a36001905092915050565b6000600160008473ffffffffffffffffffffffffffffffffffffffff1673ffffffffffffffffffffffffffffffffffffffff16815260200190815260200160002060008373ffffffffffffffffffffffffffffffffffffffff1673ffffffffffffffffffffffffffffffffffffffff16815260200190815260200160002054905092915050565b60008060008573ffffffffffffffffffffffffffffffffffffffff1673ffffffffffffffffffffffffffffffffffffffff16815260200190815260200160002054821115610aad57600080fd5b610afe826000808773ffffffffffffffffffffffffffffffffffffffff1673ffffffffffffffffffffffffffffffffffffffff16815260200190815260200160002054610c4390919063ffffffff16565b6000808673ffffffffffffffffffffffffffffffffffffffff1673ffffffffffffffffffffffffffffffffffffffff16815260200190815260200160002081905550610b91826000808673ffffffffffffffffffffffffffffffffffffffff1673ffffffffffffffffffffffffffffffffffffffff16815260200190815260200160002054610c5a90919063ffffffff16565b6000808573ffffffffffffffffffffffffffffffffffffffff1673ffffffffffffffffffffffffffffffffffffffff168152602001908152602001600020819055508273ffffffffffffffffffffffffffffffffffffffff168473ffffffffffffffffffffffffffffffffffffffff167fddf252ad1be2c89b69c2b068fc378daa952ba7f163c4a11628f55a4df523b3ef84604051610c309190610e5c565b60405180910390a3600190509392505050565b600082821115610c4f57fe5b818303905092915050565b600080828401905083811015610c6c57fe5b8091505092915050565b600081359050610c8581610f47565b92915050565b600081359050610c9a81610f5e565b92915050565b600060208284031215610cb257600080fd5b6000610cc084828501610c76565b91505092915050565b60008060408385031215610cdc57600080fd5b6000610cea85828601610c76565b9250506020610cfb85828601610c76565b9150509250929050565b600080600060608486031215610d1a57600080fd5b6000610d2886828701610c76565b9350506020610d3986828701610c76565b9250506040610d4a86828701610c8b565b9150509250925092565b60008060408385031215610d6757600080fd5b6000610d7585828601610c76565b9250506020610d8685828601610c8b565b9150509250929050565b600060208284031215610da257600080fd5b6000610db084828501610c8b565b91505092915050565b610dc281610ec0565b82525050565b6000610dd382610e92565b610ddd8185610e9d565b9350610ded818560208601610f03565b610df681610f36565b840191505092915050565b610e0a81610eec565b82525050565b610e1981610ef6565b82525050565b6000602082019050610e346000830184610db9565b92915050565b60006020820190508181036000830152610e548184610dc8565b905092915050565b6000602082019050610e716000830184610e01565b92915050565b6000602082019050610e8c6000830184610e10565b92915050565b600081519050919050565b600082825260208201905092915050565b6000610eb982610ecc565b9050919050565b60008115159050919050565b600073ffffffffffffffffffffffffffffffffffffffff82169050919050565b6000819050919050565b600060ff82169050919050565b60005b83811015610f21578082015181840152602081019050610f06565b83811115610f30576000848401525b50505050565b6000601f19601f8301169050919050565b610f5081610eae565b8114610f5b57600080fd5b50565b610f6781610eec565b8114610f7257600080fd5b5056fea26469706673582212203d837ba252b592c3473ff0c78c44a3ba97a7f6e4fe3e4c15a805cff318b09b7c64736f6c63430006000033",
					"opcodes": "PUSH1 0x80 PUSH1 0x40 MSTORE CALLVALUE DUP1 ISZERO PUSH2 0x10 JUMPI PUSH1 0x0 DUP1 REVERT JUMPDEST POP PUSH1 0x40 MLOAD PUSH2 0x109D CODESIZE SUB DUP1 PUSH2 0x109D DUP4 CODECOPY DUP2 DUP2 ADD PUSH1 0x40 MSTORE PUSH2 0x32 SWAP2 SWAP1 DUP2 ADD SWAP1 PUSH2 0x99 JUMP JUMPDEST DUP1 PUSH1 0x2 DUP2 SWAP1 SSTORE POP PUSH1 0x2 SLOAD PUSH1 0x0 DUP1 CALLER PUSH20 0xFFFFFFFFFFFFFFFFFFFFFFFFFFFFFFFFFFFFFFFF AND PUSH20 0xFFFFFFFFFFFFFFFFFFFFFFFFFFFFFFFFFFFFFFFF AND DUP2 MSTORE PUSH1 0x20 ADD SWAP1 DUP2 MSTORE PUSH1 0x20 ADD PUSH1 0x0 KECCAK256 DUP2 SWAP1 SSTORE POP POP PUSH2 0xE3 JUMP JUMPDEST PUSH1 0x0 DUP2 MLOAD SWAP1 POP PUSH2 0x93 DUP2 PUSH2 0xCC JUMP JUMPDEST SWAP3 SWAP2 POP POP JUMP JUMPDEST PUSH1 0x0 PUSH1 0x20 DUP3 DUP5 SUB SLT ISZERO PUSH2 0xAB JUMPI PUSH1 0x0 DUP1 REVERT JUMPDEST PUSH1 0x0 PUSH2 0xB9 DUP5 DUP3 DUP6 ADD PUSH2 0x84 JUMP JUMPDEST SWAP2 POP POP SWAP3 SWAP2 POP POP JUMP JUMPDEST PUSH1 0x0 DUP2 SWAP1 POP SWAP2 SWAP1 POP JUMP JUMPDEST PUSH2 0xD5 DUP2 PUSH2 0xC2 JUMP JUMPDEST DUP2 EQ PUSH2 0xE0 JUMPI PUSH1 0x0 DUP1 REVERT JUMPDEST POP JUMP JUMPDEST PUSH2 0xFAB DUP1 PUSH2 0xF2 PUSH1 0x0 CODECOPY PUSH1 0x0 RETURN INVALID PUSH1 0x80 PUSH1 0x40 MSTORE CALLVALUE DUP1 ISZERO PUSH2 0x10 JUMPI PUSH1 0x0 DUP1 REVERT JUMPDEST POP PUSH1 0x4 CALLDATASIZE LT PUSH2 0xA9 JUMPI PUSH1 0x0 CALLDATALOAD PUSH1 0xE0 SHR DUP1 PUSH4 0x313CE567 GT PUSH2 0x71 JUMPI DUP1 PUSH4 0x313CE567 EQ PUSH2 0x166 JUMPI DUP1 PUSH4 0x70A08231 EQ PUSH2 0x184 JUMPI DUP1 PUSH4 0x95D89B41 EQ PUSH2 0x1B4 JUMPI DUP1 PUSH4 0xA9059CBB EQ PUSH2 0x1D2 JUMPI DUP1 PUSH4 0xDD62ED3E EQ PUSH2 0x202 JUMPI DUP1 PUSH4 0xF490A351 EQ PUSH2 0x232 JUMPI PUSH2 0xA9 JUMP JUMPDEST DUP1 PUSH4 0x6FDDE03 EQ PUSH2 0xAE JUMPI DUP1 PUSH4 0x95EA7B3 EQ PUSH2 0xCC JUMPI DUP1 PUSH4 0x18160DDD EQ PUSH2 0xFC JUMPI DUP1 PUSH4 0x1D43CC98 EQ PUSH2 0x11A JUMPI DUP1 PUSH4 0x23B872DD EQ PUSH2 0x136 JUMPI JUMPDEST PUSH1 0x0 DUP1 REVERT JUMPDEST PUSH2 0xB6 PUSH2 0x262 JUMP JUMPDEST PUSH1 0x40 MLOAD PUSH2 0xC3 SWAP2 SWAP1 PUSH2 0xE3A JUMP JUMPDEST PUSH1 0x40 MLOAD DUP1 SWAP2 SUB SWAP1 RETURN JUMPDEST PUSH2 0xE6 PUSH1 0x4 DUP1 CALLDATASIZE SUB PUSH2 0xE1 SWAP2 SWAP1 DUP2 ADD SWAP1 PUSH2 0xD54 JUMP JUMPDEST PUSH2 0x29B JUMP JUMPDEST PUSH1 0x40 MLOAD PUSH2 0xF3 SWAP2 SWAP1 PUSH2 0xE1F JUMP JUMPDEST PUSH1 0x40 MLOAD DUP1 SWAP2 SUB SWAP1 RETURN JUMPDEST PUSH2 0x104 PUSH2 0x38D JUMP JUMPDEST PUSH1 0x40 MLOAD PUSH2 0x111 SWAP2 SWAP1 PUSH2 0xE5C JUMP JUMPDEST PUSH1 0x40 MLOAD DUP1 SWAP2 SUB SWAP1 RETURN JUMPDEST PUSH2 0x134 PUSH1 0x4 DUP1 CALLDATASIZE SUB PUSH2 0x12F SWAP2 SWAP1 DUP2 ADD SWAP1 PUSH2 0xD90 JUMP JUMPDEST PUSH2 0x397 JUMP JUMPDEST STOP JUMPDEST PUSH2 0x150 PUSH1 0x4 DUP1 CALLDATASIZE SUB PUSH2 0x14B SWAP2 SWAP1 DUP2 ADD SWAP1 PUSH2 0xD05 JUMP JUMPDEST PUSH2 0x3F6 JUMP JUMPDEST PUSH1 0x40 MLOAD PUSH2 0x15D SWAP2 SWAP1 PUSH2 0xE1F JUMP JUMPDEST PUSH1 0x40 MLOAD DUP1 SWAP2 SUB SWAP1 RETURN JUMPDEST PUSH2 0x16E PUSH2 0x771 JUMP JUMPDEST PUSH1 0x40 MLOAD PUSH2 0x17B SWAP2 SWAP1 PUSH2 0xE77 JUMP JUMPDEST PUSH1 0x40 MLOAD DUP1 SWAP2 SUB SWAP1 RETURN JUMPDEST PUSH2 0x19E PUSH1 0x4 DUP1 CALLDATASIZE SUB PUSH2 0x199 SWAP2 SWAP1 DUP2 ADD SWAP1 PUSH2 0xCA0 JUMP JUMPDEST PUSH2 0x776 JUMP JUMPDEST PUSH1 0x40 MLOAD PUSH2 0x1AB SWAP2 SWAP1 PUSH2 0xE5C JUMP JUMPDEST PUSH1 0x40 MLOAD DUP1 SWAP2 SUB SWAP1 RETURN JUMPDEST PUSH2 0x1BC PUSH2 0x7BE JUMP JUMPDEST PUSH1 0x40 MLOAD PUSH2 0x1C9 SWAP2 SWAP1 PUSH2 0xE3A JUMP JUMPDEST PUSH1 0x40 MLOAD DUP1 SWAP2 SUB SWAP1 RETURN JUMPDEST PUSH2 0x1EC PUSH1 0x4 DUP1 CALLDATASIZE SUB PUSH2 0x1E7 SWAP2 SWAP1 DUP2 ADD SWAP1 PUSH2 0xD54 JUMP JUMPDEST PUSH2 0x7F7 JUMP JUMPDEST PUSH1 0x40 MLOAD PUSH2 0x1F9 SWAP2 SWAP1 PUSH2 0xE1F JUMP JUMPDEST PUSH1 0x40 MLOAD DUP1 SWAP2 SUB SWAP1 RETURN JUMPDEST PUSH2 0x21C PUSH1 0x4 DUP1 CALLDATASIZE SUB PUSH2 0x217 SWAP2 SWAP1 DUP2 ADD SWAP1 PUSH2 0xCC9 JUMP JUMPDEST PUSH2 0x9D9 JUMP JUMPDEST PUSH1 0x40 MLOAD PUSH2 0x229 SWAP2 SWAP1 PUSH2 0xE5C JUMP JUMPDEST PUSH1 0x40 MLOAD DUP1 SWAP2 SUB SWAP1 RETURN JUMPDEST PUSH2 0x24C PUSH1 0x4 DUP1 CALLDATASIZE SUB PUSH2 0x247 SWAP2 SWAP1 DUP2 ADD SWAP1 PUSH2 0xD05 JUMP JUMPDEST PUSH2 0xA60 JUMP JUMPDEST PUSH1 0x40 MLOAD PUSH2 0x259 SWAP2 SWAP1 PUSH2 0xE1F JUMP JUMPDEST PUSH1 0x40 MLOAD DUP1 SWAP2 SUB SWAP1 RETURN JUMPDEST PUSH1 0x40 MLOAD DUP1 PUSH1 0x40 ADD PUSH1 0x40 MSTORE DUP1 PUSH1 0x11 DUP2 MSTORE PUSH1 0x20 ADD PUSH32 0x4552433230426C6F636B636861696E415A000000000000000000000000000000 DUP2 MSTORE POP DUP2 JUMP JUMPDEST PUSH1 0x0 DUP2 PUSH1 0x1 PUSH1 0x0 CALLER PUSH20 0xFFFFFFFFFFFFFFFFFFFFFFFFFFFFFFFFFFFFFFFF AND PUSH20 0xFFFFFFFFFFFFFFFFFFFFFFFFFFFFFFFFFFFFFFFF AND DUP2 MSTORE PUSH1 0x20 ADD SWAP1 DUP2 MSTORE PUSH1 0x20 ADD PUSH1 0x0 KECCAK256 PUSH1 0x0 DUP6 PUSH20 0xFFFFFFFFFFFFFFFFFFFFFFFFFFFFFFFFFFFFFFFF AND PUSH20 0xFFFFFFFFFFFFFFFFFFFFFFFFFFFFFFFFFFFFFFFF AND DUP2 MSTORE PUSH1 0x20 ADD SWAP1 DUP2 MSTORE PUSH1 0x20 ADD PUSH1 0x0 KECCAK256 DUP2 SWAP1 SSTORE POP DUP3 PUSH20 0xFFFFFFFFFFFFFFFFFFFFFFFFFFFFFFFFFFFFFFFF AND CALLER PUSH20 0xFFFFFFFFFFFFFFFFFFFFFFFFFFFFFFFFFFFFFFFF AND PUSH32 0x8C5BE1E5EBEC7D5BD14F71427D1E84F3DD0314C0F7B2291E5B200AC8C7C3B925 DUP5 PUSH1 0x40 MLOAD PUSH2 0x37B SWAP2 SWAP1 PUSH2 0xE5C JUMP JUMPDEST PUSH1 0x40 MLOAD DUP1 SWAP2 SUB SWAP1 LOG3 PUSH1 0x1 SWAP1 POP SWAP3 SWAP2 POP POP JUMP JUMPDEST PUSH1 0x0 PUSH1 0x2 SLOAD SWAP1 POP SWAP1 JUMP JUMPDEST DUP1 PUSH1 0x2 PUSH1 0x0 DUP3 DUP3 SLOAD ADD SWAP3 POP POP DUP2 SWAP1 SSTORE POP DUP1 PUSH1 0x0 DUP1 CALLER PUSH20 0xFFFFFFFFFFFFFFFFFFFFFFFFFFFFFFFFFFFFFFFF AND PUSH20 0xFFFFFFFFFFFFFFFFFFFFFFFFFFFFFFFFFFFFFFFF AND DUP2 MSTORE PUSH1 0x20 ADD SWAP1 DUP2 MSTORE PUSH1 0x20 ADD PUSH1 0x0 KECCAK256 PUSH1 0x0 DUP3 DUP3 SLOAD ADD SWAP3 POP POP DUP2 SWAP1 SSTORE POP POP JUMP JUMPDEST PUSH1 0x0 DUP1 PUSH1 0x0 DUP6 PUSH20 0xFFFFFFFFFFFFFFFFFFFFFFFFFFFFFFFFFFFFFFFF AND PUSH20 0xFFFFFFFFFFFFFFFFFFFFFFFFFFFFFFFFFFFFFFFF AND DUP2 MSTORE PUSH1 0x20 ADD SWAP1 DUP2 MSTORE PUSH1 0x20 ADD PUSH1 0x0 KECCAK256 SLOAD DUP3 GT ISZERO PUSH2 0x443 JUMPI PUSH1 0x0 DUP1 REVERT JUMPDEST PUSH1 0x1 PUSH1 0x0 DUP6 PUSH20 0xFFFFFFFFFFFFFFFFFFFFFFFFFFFFFFFFFFFFFFFF AND PUSH20 0xFFFFFFFFFFFFFFFFFFFFFFFFFFFFFFFFFFFFFFFF AND DUP2 MSTORE PUSH1 0x20 ADD SWAP1 DUP2 MSTORE PUSH1 0x20 ADD PUSH1 0x0 KECCAK256 PUSH1 0x0 CALLER PUSH20 0xFFFFFFFFFFFFFFFFFFFFFFFFFFFFFFFFFFFFFFFF AND PUSH20 0xFFFFFFFFFFFFFFFFFFFFFFFFFFFFFFFFFFFFFFFF AND DUP2 MSTORE PUSH1 0x20 ADD SWAP1 DUP2 MSTORE PUSH1 0x20 ADD PUSH1 0x0 KECCAK256 SLOAD DUP3 GT ISZERO PUSH2 0x4CC JUMPI PUSH1 0x0 DUP1 REVERT JUMPDEST PUSH2 0x51D DUP3 PUSH1 0x0 DUP1 DUP8 PUSH20 0xFFFFFFFFFFFFFFFFFFFFFFFFFFFFFFFFFFFFFFFF AND PUSH20 0xFFFFFFFFFFFFFFFFFFFFFFFFFFFFFFFFFFFFFFFF AND DUP2 MSTORE PUSH1 0x20 ADD SWAP1 DUP2 MSTORE PUSH1 0x20 ADD PUSH1 0x0 KECCAK256 SLOAD PUSH2 0xC43 SWAP1 SWAP2 SWAP1 PUSH4 0xFFFFFFFF AND JUMP JUMPDEST PUSH1 0x0 DUP1 DUP7 PUSH20 0xFFFFFFFFFFFFFFFFFFFFFFFFFFFFFFFFFFFFFFFF AND PUSH20 0xFFFFFFFFFFFFFFFFFFFFFFFFFFFFFFFFFFFFFFFF AND DUP2 MSTORE PUSH1 0x20 ADD SWAP1 DUP2 MSTORE PUSH1 0x20 ADD PUSH1 0x0 KECCAK256 DUP2 SWAP1 SSTORE POP PUSH2 0x5EE DUP3 PUSH1 0x1 PUSH1 0x0 DUP8 PUSH20 0xFFFFFFFFFFFFFFFFFFFFFFFFFFFFFFFFFFFFFFFF AND PUSH20 0xFFFFFFFFFFFFFFFFFFFFFFFFFFFFFFFFFFFFFFFF AND DUP2 MSTORE PUSH1 0x20 ADD SWAP1 DUP2 MSTORE PUSH1 0x20 ADD PUSH1 0x0 KECCAK256 PUSH1 0x0 CALLER PUSH20 0xFFFFFFFFFFFFFFFFFFFFFFFFFFFFFFFFFFFFFFFF AND PUSH20 0xFFFFFFFFFFFFFFFFFFFFFFFFFFFFFFFFFFFFFFFF AND DUP2 MSTORE PUSH1 0x20 ADD SWAP1 DUP2 MSTORE PUSH1 0x20 ADD PUSH1 0x0 KECCAK256 SLOAD PUSH2 0xC43 SWAP1 SWAP2 SWAP1 PUSH4 0xFFFFFFFF AND JUMP JUMPDEST PUSH1 0x1 PUSH1 0x0 DUP7 PUSH20 0xFFFFFFFFFFFFFFFFFFFFFFFFFFFFFFFFFFFFFFFF AND PUSH20 0xFFFFFFFFFFFFFFFFFFFFFFFFFFFFFFFFFFFFFFFF AND DUP2 MSTORE PUSH1 0x20 ADD SWAP1 DUP2 MSTORE PUSH1 0x20 ADD PUSH1 0x0 KECCAK256 PUSH1 0x0 CALLER PUSH20 0xFFFFFFFFFFFFFFFFFFFFFFFFFFFFFFFFFFFFFFFF AND PUSH20 0xFFFFFFFFFFFFFFFFFFFFFFFFFFFFFFFFFFFFFFFF AND DUP2 MSTORE PUSH1 0x20 ADD SWAP1 DUP2 MSTORE PUSH1 0x20 ADD PUSH1 0x0 KECCAK256 DUP2 SWAP1 SSTORE POP PUSH2 0x6BF DUP3 PUSH1 0x0 DUP1 DUP7 PUSH20 0xFFFFFFFFFFFFFFFFFFFFFFFFFFFFFFFFFFFFFFFF AND PUSH20 0xFFFFFFFFFFFFFFFFFFFFFFFFFFFFFFFFFFFFFFFF AND DUP2 MSTORE PUSH1 0x20 ADD SWAP1 DUP2 MSTORE PUSH1 0x20 ADD PUSH1 0x0 KECCAK256 SLOAD PUSH2 0xC5A SWAP1 SWAP2 SWAP1 PUSH4 0xFFFFFFFF AND JUMP JUMPDEST PUSH1 0x0 DUP1 DUP6 PUSH20 0xFFFFFFFFFFFFFFFFFFFFFFFFFFFFFFFFFFFFFFFF AND PUSH20 0xFFFFFFFFFFFFFFFFFFFFFFFFFFFFFFFFFFFFFFFF AND DUP2 MSTORE PUSH1 0x20 ADD SWAP1 DUP2 MSTORE PUSH1 0x20 ADD PUSH1 0x0 KECCAK256 DUP2 SWAP1 SSTORE POP DUP3 PUSH20 0xFFFFFFFFFFFFFFFFFFFFFFFFFFFFFFFFFFFFFFFF AND DUP5 PUSH20 0xFFFFFFFFFFFFFFFFFFFFFFFFFFFFFFFFFFFFFFFF AND PUSH32 0xDDF252AD1BE2C89B69C2B068FC378DAA952BA7F163C4A11628F55A4DF523B3EF DUP5 PUSH1 0x40 MLOAD PUSH2 0x75E SWAP2 SWAP1 PUSH2 0xE5C JUMP JUMPDEST PUSH1 0x40 MLOAD DUP1 SWAP2 SUB SWAP1 LOG3 PUSH1 0x1 SWAP1 POP SWAP4 SWAP3 POP POP POP JUMP JUMPDEST PUSH1 0x12 DUP2 JUMP JUMPDEST PUSH1 0x0 DUP1 PUSH1 0x0 DUP4 PUSH20 0xFFFFFFFFFFFFFFFFFFFFFFFFFFFFFFFFFFFFFFFF AND PUSH20 0xFFFFFFFFFFFFFFFFFFFFFFFFFFFFFFFFFFFFFFFF AND DUP2 MSTORE PUSH1 0x20 ADD SWAP1 DUP2 MSTORE PUSH1 0x20 ADD PUSH1 0x0 KECCAK256 SLOAD SWAP1 POP SWAP2 SWAP1 POP JUMP JUMPDEST PUSH1 0x40 MLOAD DUP1 PUSH1 0x40 ADD PUSH1 0x40 MSTORE DUP1 PUSH1 0x3 DUP2 MSTORE PUSH1 0x20 ADD PUSH32 0x4552430000000000000000000000000000000000000000000000000000000000 DUP2 MSTORE POP DUP2 JUMP JUMPDEST PUSH1 0x0 DUP1 PUSH1 0x0 CALLER PUSH20 0xFFFFFFFFFFFFFFFFFFFFFFFFFFFFFFFFFFFFFFFF AND PUSH20 0xFFFFFFFFFFFFFFFFFFFFFFFFFFFFFFFFFFFFFFFF AND DUP2 MSTORE PUSH1 0x20 ADD SWAP1 DUP2 MSTORE PUSH1 0x20 ADD PUSH1 0x0 KECCAK256 SLOAD DUP3 GT ISZERO PUSH2 0x844 JUMPI PUSH1 0x0 DUP1 REVERT JUMPDEST PUSH2 0x895 DUP3 PUSH1 0x0 DUP1 CALLER PUSH20 0xFFFFFFFFFFFFFFFFFFFFFFFFFFFFFFFFFFFFFFFF AND PUSH20 0xFFFFFFFFFFFFFFFFFFFFFFFFFFFFFFFFFFFFFFFF AND DUP2 MSTORE PUSH1 0x20 ADD SWAP1 DUP2 MSTORE PUSH1 0x20 ADD PUSH1 0x0 KECCAK256 SLOAD PUSH2 0xC43 SWAP1 SWAP2 SWAP1 PUSH4 0xFFFFFFFF AND JUMP JUMPDEST PUSH1 0x0 DUP1 CALLER PUSH20 0xFFFFFFFFFFFFFFFFFFFFFFFFFFFFFFFFFFFFFFFF AND PUSH20 0xFFFFFFFFFFFFFFFFFFFFFFFFFFFFFFFFFFFFFFFF AND DUP2 MSTORE PUSH1 0x20 ADD SWAP1 DUP2 MSTORE PUSH1 0x20 ADD PUSH1 0x0 KECCAK256 DUP2 SWAP1 SSTORE POP PUSH2 0x928 DUP3 PUSH1 0x0 DUP1 DUP7 PUSH20 0xFFFFFFFFFFFFFFFFFFFFFFFFFFFFFFFFFFFFFFFF AND PUSH20 0xFFFFFFFFFFFFFFFFFFFFFFFFFFFFFFFFFFFFFFFF AND DUP2 MSTORE PUSH1 0x20 ADD SWAP1 DUP2 MSTORE PUSH1 0x20 ADD PUSH1 0x0 KECCAK256 SLOAD PUSH2 0xC5A SWAP1 SWAP2 SWAP1 PUSH4 0xFFFFFFFF AND JUMP JUMPDEST PUSH1 0x0 DUP1 DUP6 PUSH20 0xFFFFFFFFFFFFFFFFFFFFFFFFFFFFFFFFFFFFFFFF AND PUSH20 0xFFFFFFFFFFFFFFFFFFFFFFFFFFFFFFFFFFFFFFFF AND DUP2 MSTORE PUSH1 0x20 ADD SWAP1 DUP2 MSTORE PUSH1 0x20 ADD PUSH1 0x0 KECCAK256 DUP2 SWAP1 SSTORE POP DUP3 PUSH20 0xFFFFFFFFFFFFFFFFFFFFFFFFFFFFFFFFFFFFFFFF AND CALLER PUSH20 0xFFFFFFFFFFFFFFFFFFFFFFFFFFFFFFFFFFFFFFFF AND PUSH32 0xDDF252AD1BE2C89B69C2B068FC378DAA952BA7F163C4A11628F55A4DF523B3EF DUP5 PUSH1 0x40 MLOAD PUSH2 0x9C7 SWAP2 SWAP1 PUSH2 0xE5C JUMP JUMPDEST PUSH1 0x40 MLOAD DUP1 SWAP2 SUB SWAP1 LOG3 PUSH1 0x1 SWAP1 POP SWAP3 SWAP2 POP POP JUMP JUMPDEST PUSH1 0x0 PUSH1 0x1 PUSH1 0x0 DUP5 PUSH20 0xFFFFFFFFFFFFFFFFFFFFFFFFFFFFFFFFFFFFFFFF AND PUSH20 0xFFFFFFFFFFFFFFFFFFFFFFFFFFFFFFFFFFFFFFFF AND DUP2 MSTORE PUSH1 0x20 ADD SWAP1 DUP2 MSTORE PUSH1 0x20 ADD PUSH1 0x0 KECCAK256 PUSH1 0x0 DUP4 PUSH20 0xFFFFFFFFFFFFFFFFFFFFFFFFFFFFFFFFFFFFFFFF AND PUSH20 0xFFFFFFFFFFFFFFFFFFFFFFFFFFFFFFFFFFFFFFFF AND DUP2 MSTORE PUSH1 0x20 ADD SWAP1 DUP2 MSTORE PUSH1 0x20 ADD PUSH1 0x0 KECCAK256 SLOAD SWAP1 POP SWAP3 SWAP2 POP POP JUMP JUMPDEST PUSH1 0x0 DUP1 PUSH1 0x0 DUP6 PUSH20 0xFFFFFFFFFFFFFFFFFFFFFFFFFFFFFFFFFFFFFFFF AND PUSH20 0xFFFFFFFFFFFFFFFFFFFFFFFFFFFFFFFFFFFFFFFF AND DUP2 MSTORE PUSH1 0x20 ADD SWAP1 DUP2 MSTORE PUSH1 0x20 ADD PUSH1 0x0 KECCAK256 SLOAD DUP3 GT ISZERO PUSH2 0xAAD JUMPI PUSH1 0x0 DUP1 REVERT JUMPDEST PUSH2 0xAFE DUP3 PUSH1 0x0 DUP1 DUP8 PUSH20 0xFFFFFFFFFFFFFFFFFFFFFFFFFFFFFFFFFFFFFFFF AND PUSH20 0xFFFFFFFFFFFFFFFFFFFFFFFFFFFFFFFFFFFFFFFF AND DUP2 MSTORE PUSH1 0x20 ADD SWAP1 DUP2 MSTORE PUSH1 0x20 ADD PUSH1 0x0 KECCAK256 SLOAD PUSH2 0xC43 SWAP1 SWAP2 SWAP1 PUSH4 0xFFFFFFFF AND JUMP JUMPDEST PUSH1 0x0 DUP1 DUP7 PUSH20 0xFFFFFFFFFFFFFFFFFFFFFFFFFFFFFFFFFFFFFFFF AND PUSH20 0xFFFFFFFFFFFFFFFFFFFFFFFFFFFFFFFFFFFFFFFF AND DUP2 MSTORE PUSH1 0x20 ADD SWAP1 DUP2 MSTORE PUSH1 0x20 ADD PUSH1 0x0 KECCAK256 DUP2 SWAP1 SSTORE POP PUSH2 0xB91 DUP3 PUSH1 0x0 DUP1 DUP7 PUSH20 0xFFFFFFFFFFFFFFFFFFFFFFFFFFFFFFFFFFFFFFFF AND PUSH20 0xFFFFFFFFFFFFFFFFFFFFFFFFFFFFFFFFFFFFFFFF AND DUP2 MSTORE PUSH1 0x20 ADD SWAP1 DUP2 MSTORE PUSH1 0x20 ADD PUSH1 0x0 KECCAK256 SLOAD PUSH2 0xC5A SWAP1 SWAP2 SWAP1 PUSH4 0xFFFFFFFF AND JUMP JUMPDEST PUSH1 0x0 DUP1 DUP6 PUSH20 0xFFFFFFFFFFFFFFFFFFFFFFFFFFFFFFFFFFFFFFFF AND PUSH20 0xFFFFFFFFFFFFFFFFFFFFFFFFFFFFFFFFFFFFFFFF AND DUP2 MSTORE PUSH1 0x20 ADD SWAP1 DUP2 MSTORE PUSH1 0x20 ADD PUSH1 0x0 KECCAK256 DUP2 SWAP1 SSTORE POP DUP3 PUSH20 0xFFFFFFFFFFFFFFFFFFFFFFFFFFFFFFFFFFFFFFFF AND DUP5 PUSH20 0xFFFFFFFFFFFFFFFFFFFFFFFFFFFFFFFFFFFFFFFF AND PUSH32 0xDDF252AD1BE2C89B69C2B068FC378DAA952BA7F163C4A11628F55A4DF523B3EF DUP5 PUSH1 0x40 MLOAD PUSH2 0xC30 SWAP2 SWAP1 PUSH2 0xE5C JUMP JUMPDEST PUSH1 0x40 MLOAD DUP1 SWAP2 SUB SWAP1 LOG3 PUSH1 0x1 SWAP1 POP SWAP4 SWAP3 POP POP POP JUMP JUMPDEST PUSH1 0x0 DUP3 DUP3 GT ISZERO PUSH2 0xC4F JUMPI INVALID JUMPDEST DUP2 DUP4 SUB SWAP1 POP SWAP3 SWAP2 POP POP JUMP JUMPDEST PUSH1 0x0 DUP1 DUP3 DUP5 ADD SWAP1 POP DUP4 DUP2 LT ISZERO PUSH2 0xC6C JUMPI INVALID JUMPDEST DUP1 SWAP2 POP POP SWAP3 SWAP2 POP POP JUMP JUMPDEST PUSH1 0x0 DUP2 CALLDATALOAD SWAP1 POP PUSH2 0xC85 DUP2 PUSH2 0xF47 JUMP JUMPDEST SWAP3 SWAP2 POP POP JUMP JUMPDEST PUSH1 0x0 DUP2 CALLDATALOAD SWAP1 POP PUSH2 0xC9A DUP2 PUSH2 0xF5E JUMP JUMPDEST SWAP3 SWAP2 POP POP JUMP JUMPDEST PUSH1 0x0 PUSH1 0x20 DUP3 DUP5 SUB SLT ISZERO PUSH2 0xCB2 JUMPI PUSH1 0x0 DUP1 REVERT JUMPDEST PUSH1 0x0 PUSH2 0xCC0 DUP5 DUP3 DUP6 ADD PUSH2 0xC76 JUMP JUMPDEST SWAP2 POP POP SWAP3 SWAP2 POP POP JUMP JUMPDEST PUSH1 0x0 DUP1 PUSH1 0x40 DUP4 DUP6 SUB SLT ISZERO PUSH2 0xCDC JUMPI PUSH1 0x0 DUP1 REVERT JUMPDEST PUSH1 0x0 PUSH2 0xCEA DUP6 DUP3 DUP7 ADD PUSH2 0xC76 JUMP JUMPDEST SWAP3 POP POP PUSH1 0x20 PUSH2 0xCFB DUP6 DUP3 DUP7 ADD PUSH2 0xC76 JUMP JUMPDEST SWAP2 POP POP SWAP3 POP SWAP3 SWAP1 POP JUMP JUMPDEST PUSH1 0x0 DUP1 PUSH1 0x0 PUSH1 0x60 DUP5 DUP7 SUB SLT ISZERO PUSH2 0xD1A JUMPI PUSH1 0x0 DUP1 REVERT JUMPDEST PUSH1 0x0 PUSH2 0xD28 DUP7 DUP3 DUP8 ADD PUSH2 0xC76 JUMP JUMPDEST SWAP4 POP POP PUSH1 0x20 PUSH2 0xD39 DUP7 DUP3 DUP8 ADD PUSH2 0xC76 JUMP JUMPDEST SWAP3 POP POP PUSH1 0x40 PUSH2 0xD4A DUP7 DUP3 DUP8 ADD PUSH2 0xC8B JUMP JUMPDEST SWAP2 POP POP SWAP3 POP SWAP3 POP SWAP3 JUMP JUMPDEST PUSH1 0x0 DUP1 PUSH1 0x40 DUP4 DUP6 SUB SLT ISZERO PUSH2 0xD67 JUMPI PUSH1 0x0 DUP1 REVERT JUMPDEST PUSH1 0x0 PUSH2 0xD75 DUP6 DUP3 DUP7 ADD PUSH2 0xC76 JUMP JUMPDEST SWAP3 POP POP PUSH1 0x20 PUSH2 0xD86 DUP6 DUP3 DUP7 ADD PUSH2 0xC8B JUMP JUMPDEST SWAP2 POP POP SWAP3 POP SWAP3 SWAP1 POP JUMP JUMPDEST PUSH1 0x0 PUSH1 0x20 DUP3 DUP5 SUB SLT ISZERO PUSH2 0xDA2 JUMPI PUSH1 0x0 DUP1 REVERT JUMPDEST PUSH1 0x0 PUSH2 0xDB0 DUP5 DUP3 DUP6 ADD PUSH2 0xC8B JUMP JUMPDEST SWAP2 POP POP SWAP3 SWAP2 POP POP JUMP JUMPDEST PUSH2 0xDC2 DUP2 PUSH2 0xEC0 JUMP JUMPDEST DUP3 MSTORE POP POP JUMP JUMPDEST PUSH1 0x0 PUSH2 0xDD3 DUP3 PUSH2 0xE92 JUMP JUMPDEST PUSH2 0xDDD DUP2 DUP6 PUSH2 0xE9D JUMP JUMPDEST SWAP4 POP PUSH2 0xDED DUP2 DUP6 PUSH1 0x20 DUP7 ADD PUSH2 0xF03 JUMP JUMPDEST PUSH2 0xDF6 DUP2 PUSH2 0xF36 JUMP JUMPDEST DUP5 ADD SWAP2 POP POP SWAP3 SWAP2 POP POP JUMP JUMPDEST PUSH2 0xE0A DUP2 PUSH2 0xEEC JUMP JUMPDEST DUP3 MSTORE POP POP JUMP JUMPDEST PUSH2 0xE19 DUP2 PUSH2 0xEF6 JUMP JUMPDEST DUP3 MSTORE POP POP JUMP JUMPDEST PUSH1 0x0 PUSH1 0x20 DUP3 ADD SWAP1 POP PUSH2 0xE34 PUSH1 0x0 DUP4 ADD DUP5 PUSH2 0xDB9 JUMP JUMPDEST SWAP3 SWAP2 POP POP JUMP JUMPDEST PUSH1 0x0 PUSH1 0x20 DUP3 ADD SWAP1 POP DUP2 DUP2 SUB PUSH1 0x0 DUP4 ADD MSTORE PUSH2 0xE54 DUP2 DUP5 PUSH2 0xDC8 JUMP JUMPDEST SWAP1 POP SWAP3 SWAP2 POP POP JUMP JUMPDEST PUSH1 0x0 PUSH1 0x20 DUP3 ADD SWAP1 POP PUSH2 0xE71 PUSH1 0x0 DUP4 ADD DUP5 PUSH2 0xE01 JUMP JUMPDEST SWAP3 SWAP2 POP POP JUMP JUMPDEST PUSH1 0x0 PUSH1 0x20 DUP3 ADD SWAP1 POP PUSH2 0xE8C PUSH1 0x0 DUP4 ADD DUP5 PUSH2 0xE10 JUMP JUMPDEST SWAP3 SWAP2 POP POP JUMP JUMPDEST PUSH1 0x0 DUP2 MLOAD SWAP1 POP SWAP2 SWAP1 POP JUMP JUMPDEST PUSH1 0x0 DUP3 DUP3 MSTORE PUSH1 0x20 DUP3 ADD SWAP1 POP SWAP3 SWAP2 POP POP JUMP JUMPDEST PUSH1 0x0 PUSH2 0xEB9 DUP3 PUSH2 0xECC JUMP JUMPDEST SWAP1 POP SWAP2 SWAP1 POP JUMP JUMPDEST PUSH1 0x0 DUP2 ISZERO ISZERO SWAP1 POP SWAP2 SWAP1 POP JUMP JUMPDEST PUSH1 0x0 PUSH20 0xFFFFFFFFFFFFFFFFFFFFFFFFFFFFFFFFFFFFFFFF DUP3 AND SWAP1 POP SWAP2 SWAP1 POP JUMP JUMPDEST PUSH1 0x0 DUP2 SWAP1 POP SWAP2 SWAP1 POP JUMP JUMPDEST PUSH1 0x0 PUSH1 0xFF DUP3 AND SWAP1 POP SWAP2 SWAP1 POP JUMP JUMPDEST PUSH1 0x0 JUMPDEST DUP4 DUP2 LT ISZERO PUSH2 0xF21 JUMPI DUP1 DUP3 ADD MLOAD DUP2 DUP5 ADD MSTORE PUSH1 0x20 DUP2 ADD SWAP1 POP PUSH2 0xF06 JUMP JUMPDEST DUP4 DUP2 GT ISZERO PUSH2 0xF30 JUMPI PUSH1 0x0 DUP5 DUP5 ADD MSTORE JUMPDEST POP POP POP POP JUMP JUMPDEST PUSH1 0x0 PUSH1 0x1F NOT PUSH1 0x1F DUP4 ADD AND SWAP1 POP SWAP2 SWAP1 POP JUMP JUMPDEST PUSH2 0xF50 DUP2 PUSH2 0xEAE JUMP JUMPDEST DUP2 EQ PUSH2 0xF5B JUMPI PUSH1 0x0 DUP1 REVERT JUMPDEST POP JUMP JUMPDEST PUSH2 0xF67 DUP2 PUSH2 0xEEC JUMP JUMPDEST DUP2 EQ PUSH2 0xF72 JUMPI PUSH1 0x0 DUP1 REVERT JUMPDEST POP JUMP INVALID LOG2 PUSH5 0x6970667358 0x22 SLT KECCAK256 RETURNDATASIZE DUP4 PUSH28 0xA252B592C3473FF0C78C44A3BA97A7F6E4FE3E4C15A805CFF318B09B PUSH29 0x64736F6C63430006000033000000000000000000000000000000000000 "
				},
				"gasEstimates": {
					"creation": {
						"codeDepositCost": "802200",
						"executionCost": "infinite",
						"totalCost": "infinite"
					},
					"external": {
						"allowance(address,address)": "infinite",
						"approve(address,uint256)": "infinite",
						"balanceOf(address)": "1563",
						"decimals()": "335",
						"increaseTotalSupply(uint256)": "42228",
						"name()": "infinite",
						"symbol()": "infinite",
						"totalSupply()": "1182",
						"transfer(address,uint256)": "infinite",
						"transferFrom(address,address,uint256)": "infinite",
						"transferencia_disney(address,address,uint256)": "infinite"
					}
				},
				"methodIdentifiers": {
					"allowance(address,address)": "dd62ed3e",
					"approve(address,uint256)": "095ea7b3",
					"balanceOf(address)": "70a08231",
					"decimals()": "313ce567",
					"increaseTotalSupply(uint256)": "1d43cc98",
					"name()": "06fdde03",
					"symbol()": "95d89b41",
					"totalSupply()": "18160ddd",
					"transfer(address,uint256)": "a9059cbb",
					"transferFrom(address,address,uint256)": "23b872dd",
					"transferencia_disney(address,address,uint256)": "f490a351"
				}
			},
			"storageLayout": {
				"storage": [
					{
						"astId": 115,
						"contract": "DISNEY/ERC20/ERC20.sol:ERC20Basic",
						"label": "balances",
						"offset": 0,
						"slot": "0",
						"type": "t_mapping(t_address,t_uint256)"
					},
					{
						"astId": 121,
						"contract": "DISNEY/ERC20/ERC20.sol:ERC20Basic",
						"label": "allowed",
						"offset": 0,
						"slot": "1",
						"type": "t_mapping(t_address,t_mapping(t_address,t_uint256))"
					},
					{
						"astId": 123,
						"contract": "DISNEY/ERC20/ERC20.sol:ERC20Basic",
						"label": "totalSupply_",
						"offset": 0,
						"slot": "2",
						"type": "t_uint256"
					}
				],
				"types": {
					"t_address": {
						"encoding": "inplace",
						"label": "address",
						"numberOfBytes": "20"
					},
					"t_mapping(t_address,t_mapping(t_address,t_uint256))": {
						"encoding": "mapping",
						"key": "t_address",
						"label": "mapping(address => mapping(address => uint256))",
						"numberOfBytes": "32",
						"value": "t_mapping(t_address,t_uint256)"
					},
					"t_mapping(t_address,t_uint256)": {
						"encoding": "mapping",
						"key": "t_address",
						"label": "mapping(address => uint256)",
						"numberOfBytes": "32",
						"value": "t_uint256"
					},
					"t_uint256": {
						"encoding": "inplace",
						"label": "uint256",
						"numberOfBytes": "32"
					}
				}
			},
			"userdoc": {
				"methods": {}
			}
		}
	}
}