{
	"DISNEY/disney.sol": {
		"Disney": {
			"abi": [
				{
					"inputs": [],
					"stateMutability": "nonpayable",
					"type": "constructor"
				},
				{
					"anonymous": false,
					"inputs": [
						{
							"indexed": false,
							"internalType": "string",
							"name": "",
							"type": "string"
						},
						{
							"indexed": false,
							"internalType": "uint256",
							"name": "",
							"type": "uint256"
						}
					],
					"name": "alta_atraccion",
					"type": "event"
				},
				{
					"anonymous": false,
					"inputs": [
						{
							"indexed": false,
							"internalType": "string",
							"name": "",
							"type": "string"
						}
					],
					"name": "baja_atraccion",
					"type": "event"
				},
				{
					"anonymous": false,
					"inputs": [
						{
							"indexed": false,
							"internalType": "string",
							"name": "",
							"type": "string"
						}
					],
					"name": "disfruta_atraccion",
					"type": "event"
				},
				{
					"inputs": [],
					"name": "AtraccionesDisponibles",
					"outputs": [
						{
							"internalType": "string[]",
							"name": "",
							"type": "string[]"
						}
					],
					"stateMutability": "view",
					"type": "function"
				},
				{
					"inputs": [
						{
							"internalType": "string",
							"name": "_nombreAtraccion",
							"type": "string"
						}
					],
					"name": "BajaAtraccion",
					"outputs": [],
					"stateMutability": "nonpayable",
					"type": "function"
				},
				{
					"inputs": [
						{
							"internalType": "address",
							"name": "",
							"type": "address"
						}
					],
					"name": "Clientes",
					"outputs": [
						{
							"internalType": "uint256",
							"name": "tokens_comprados",
							"type": "uint256"
						}
					],
					"stateMutability": "view",
					"type": "function"
				},
				{
					"inputs": [
						{
							"internalType": "uint256",
							"name": "_numTokens",
							"type": "uint256"
						}
					],
					"name": "CompraTokens",
					"outputs": [],
					"stateMutability": "payable",
					"type": "function"
				},
				{
					"inputs": [
						{
							"internalType": "uint256",
							"name": "_numTokens",
							"type": "uint256"
						}
					],
					"name": "GeneraTokens",
					"outputs": [],
					"stateMutability": "nonpayable",
					"type": "function"
				},
				{
					"inputs": [
						{
							"internalType": "string",
							"name": "",
							"type": "string"
						}
					],
					"name": "MappingAtracciones",
					"outputs": [
						{
							"internalType": "string",
							"name": "nombre_atraccion",
							"type": "string"
						},
						{
							"internalType": "uint256",
							"name": "precio_atraccion",
							"type": "uint256"
						},
						{
							"internalType": "bool",
							"name": "estado_atraccion",
							"type": "bool"
						}
					],
					"stateMutability": "view",
					"type": "function"
				},
				{
					"inputs": [],
					"name": "MisTokens",
					"outputs": [
						{
							"internalType": "uint256",
							"name": "",
							"type": "uint256"
						}
					],
					"stateMutability": "view",
					"type": "function"
				},
				{
					"inputs": [
						{
							"internalType": "string",
							"name": "_nombreAtraccion",
							"type": "string"
						},
						{
							"internalType": "uint256",
							"name": "_precio",
							"type": "uint256"
						}
					],
					"name": "NuevaAtraccion",
					"outputs": [],
					"stateMutability": "nonpayable",
					"type": "function"
				},
				{
					"inputs": [],
					"name": "balanceOf",
					"outputs": [
						{
							"internalType": "uint256",
							"name": "",
							"type": "uint256"
						}
					],
					"stateMutability": "view",
					"type": "function"
				},
				{
					"inputs": [],
					"name": "owner",
					"outputs": [
						{
							"internalType": "address payable",
							"name": "",
							"type": "address"
						}
					],
					"stateMutability": "view",
					"type": "function"
				}
			],
			"devdoc": {
				"methods": {}
			},
			"evm": {
				"assembly": "    /* \"DISNEY/disney.sol\":89:4873  contract Disney {... */\n  mstore(0x40, 0x80)\n    /* \"DISNEY/disney.sol\":366:568  constructor () public {... */\n  callvalue\n    /* \"--CODEGEN--\":5:14   */\n  dup1\n    /* \"--CODEGEN--\":2:4   */\n  iszero\n  tag_1\n  jumpi\n    /* \"--CODEGEN--\":27:28   */\n  0x00\n    /* \"--CODEGEN--\":24:25   */\n  dup1\n    /* \"--CODEGEN--\":17:29   */\n  revert\n    /* \"--CODEGEN--\":2:4   */\ntag_1:\n    /* \"DISNEY/disney.sol\":366:568  constructor () public {... */\n  pop\n    /* \"DISNEY/disney.sol\":421:426  10000 */\n  0x2710\n    /* \"DISNEY/disney.sol\":406:427  new ERC20Basic(10000) */\n  mload(0x40)\n  tag_4\n  swap1\n  tag_5\n  jump\t// in\ntag_4:\n  tag_6\n  swap2\n  swap1\n  jump(tag_7)\ntag_6:\n  mload(0x40)\n  dup1\n  swap2\n  sub\n  swap1\n  0x00\n  create\n  dup1\n  iszero\n    /* \"--CODEGEN--\":8:17   */\n  dup1\n    /* \"--CODEGEN--\":5:7   */\n  iszero\n  tag_8\n  jumpi\n    /* \"--CODEGEN--\":45:61   */\n  returndatasize\n    /* \"--CODEGEN--\":42:43   */\n  0x00\n    /* \"--CODEGEN--\":39:40   */\n  dup1\n    /* \"--CODEGEN--\":24:62   */\n  returndatacopy\n    /* \"--CODEGEN--\":77:93   */\n  returndatasize\n    /* \"--CODEGEN--\":74:75   */\n  0x00\n    /* \"--CODEGEN--\":67:94   */\n  revert\n    /* \"--CODEGEN--\":5:7   */\ntag_8:\n    /* \"DISNEY/disney.sol\":406:427  new ERC20Basic(10000) */\n  pop\n    /* \"DISNEY/disney.sol\":398:403  token */\n  0x00\n  dup1\n    /* \"DISNEY/disney.sol\":398:427  token = new ERC20Basic(10000) */\n  0x0100\n  exp\n  dup2\n  sload\n  dup2\n  0xffffffffffffffffffffffffffffffffffffffff\n  mul\n  not\n  and\n  swap1\n  dup4\n  0xffffffffffffffffffffffffffffffffffffffff\n  and\n  mul\n  or\n  swap1\n  sstore\n  pop\n    /* \"DISNEY/disney.sol\":494:504  msg.sender */\n  caller\n    /* \"DISNEY/disney.sol\":486:491  owner */\n  0x01\n  0x00\n    /* \"DISNEY/disney.sol\":486:504  owner = msg.sender */\n  0x0100\n  exp\n  dup2\n  sload\n  dup2\n  0xffffffffffffffffffffffffffffffffffffffff\n  mul\n  not\n  and\n  swap1\n  dup4\n  0xffffffffffffffffffffffffffffffffffffffff\n  and\n  mul\n  or\n  swap1\n  sstore\n  pop\n    /* \"DISNEY/disney.sol\":89:4873  contract Disney {... */\n  jump(tag_9)\ntag_5:\n  dataSize(sub_1)\n  dup1\n  dataOffset(sub_1)\n  dup4\n  codecopy\n  add\n  swap1\n  jump\t// out\n    /* \"--CODEGEN--\":5:155   */\ntag_11:\n    /* \"--CODEGEN--\":100:149   */\n  tag_13\n    /* \"--CODEGEN--\":143:148   */\n  dup2\n    /* \"--CODEGEN--\":100:149   */\n  jump(tag_14)\ntag_13:\n    /* \"--CODEGEN--\":95:98   */\n  dup3\n    /* \"--CODEGEN--\":88:150   */\n  mstore\n    /* \"--CODEGEN--\":82:155   */\n  pop\n  pop\n  jump\n    /* \"--CODEGEN--\":162:399   */\ntag_7:\n  0x00\n    /* \"--CODEGEN--\":292:294   */\n  0x20\n    /* \"--CODEGEN--\":281:290   */\n  dup3\n    /* \"--CODEGEN--\":277:295   */\n  add\n    /* \"--CODEGEN--\":269:295   */\n  swap1\n  pop\n    /* \"--CODEGEN--\":306:389   */\n  tag_16\n    /* \"--CODEGEN--\":386:387   */\n  0x00\n    /* \"--CODEGEN--\":375:384   */\n  dup4\n    /* \"--CODEGEN--\":371:388   */\n  add\n    /* \"--CODEGEN--\":362:368   */\n  dup5\n    /* \"--CODEGEN--\":306:389   */\n  jump(tag_11)\ntag_16:\n    /* \"--CODEGEN--\":263:399   */\n  swap3\n  swap2\n  pop\n  pop\n  jump\n    /* \"--CODEGEN--\":406:478   */\ntag_17:\n  0x00\n    /* \"--CODEGEN--\":468:473   */\n  dup2\n    /* \"--CODEGEN--\":457:473   */\n  swap1\n  pop\n    /* \"--CODEGEN--\":451:478   */\n  swap2\n  swap1\n  pop\n  jump\n    /* \"--CODEGEN--\":485:605   */\ntag_14:\n  0x00\n    /* \"--CODEGEN--\":576:600   */\n  tag_20\n    /* \"--CODEGEN--\":594:599   */\n  dup3\n    /* \"--CODEGEN--\":576:600   */\n  jump(tag_17)\ntag_20:\n    /* \"--CODEGEN--\":563:600   */\n  swap1\n  pop\n    /* \"--CODEGEN--\":557:605   */\n  swap2\n  swap1\n  pop\n  jump\n    /* \"DISNEY/disney.sol\":89:4873  contract Disney {... */\ntag_9:\n  dataSize(sub_0)\n  dup1\n  dataOffset(sub_0)\n  0x00\n  codecopy\n  0x00\n  return\nstop\n\nsub_0: assembly {\n        /* \"DISNEY/disney.sol\":89:4873  contract Disney {... */\n      mstore(0x40, 0x80)\n      jumpi(tag_1, lt(calldatasize, 0x04))\n      shr(0xe0, calldataload(0x00))\n      dup1\n      0xc66dca40\n      gt\n      tag_12\n      jumpi\n      dup1\n      0xc66dca40\n      eq\n      tag_7\n      jumpi\n      dup1\n      0xce8f2f38\n      eq\n      tag_8\n      jumpi\n      dup1\n      0xd00df296\n      eq\n      tag_9\n      jumpi\n      dup1\n      0xe33f34a0\n      eq\n      tag_10\n      jumpi\n      dup1\n      0xf7774091\n      eq\n      tag_11\n      jumpi\n      jump(tag_1)\n    tag_12:\n      dup1\n      0x1246f6e2\n      eq\n      tag_2\n      jumpi\n      dup1\n      0x1fccb33c\n      eq\n      tag_3\n      jumpi\n      dup1\n      0x2076b56c\n      eq\n      tag_4\n      jumpi\n      dup1\n      0x722713f7\n      eq\n      tag_5\n      jumpi\n      dup1\n      0x8da5cb5b\n      eq\n      tag_6\n      jumpi\n    tag_1:\n        /* \"--CODEGEN--\":12:13   */\n      0x00\n        /* \"--CODEGEN--\":9:10   */\n      dup1\n        /* \"--CODEGEN--\":2:14   */\n      revert\n        /* \"DISNEY/disney.sol\":2463:2592  function GeneraTokens(uint _numTokens) public Unicamente(msg.sender){... */\n    tag_2:\n      callvalue\n        /* \"--CODEGEN--\":5:14   */\n      dup1\n        /* \"--CODEGEN--\":2:4   */\n      iszero\n      tag_13\n      jumpi\n        /* \"--CODEGEN--\":27:28   */\n      0x00\n        /* \"--CODEGEN--\":24:25   */\n      dup1\n        /* \"--CODEGEN--\":17:29   */\n      revert\n        /* \"--CODEGEN--\":2:4   */\n    tag_13:\n        /* \"DISNEY/disney.sol\":2463:2592  function GeneraTokens(uint _numTokens) public Unicamente(msg.sender){... */\n      pop\n      tag_14\n      0x04\n      dup1\n      calldatasize\n      sub\n      dup2\n      add\n      swap1\n      tag_15\n      swap2\n      swap1\n      jump(tag_16)\n    tag_15:\n      tag_17\n      jump\t// in\n    tag_14:\n      stop\n        /* \"DISNEY/disney.sol\":4763:4871  function AtraccionesDisponibles() public view returns (string [] memory) {... */\n    tag_3:\n      callvalue\n        /* \"--CODEGEN--\":5:14   */\n      dup1\n        /* \"--CODEGEN--\":2:4   */\n      iszero\n      tag_18\n      jumpi\n        /* \"--CODEGEN--\":27:28   */\n      0x00\n        /* \"--CODEGEN--\":24:25   */\n      dup1\n        /* \"--CODEGEN--\":17:29   */\n      revert\n        /* \"--CODEGEN--\":2:4   */\n    tag_18:\n        /* \"DISNEY/disney.sol\":4763:4871  function AtraccionesDisponibles() public view returns (string [] memory) {... */\n      pop\n      tag_19\n      tag_20\n      jump\t// in\n    tag_19:\n      mload(0x40)\n      tag_21\n      swap2\n      swap1\n      jump(tag_22)\n    tag_21:\n      mload(0x40)\n      dup1\n      swap2\n      sub\n      swap1\n      return\n        /* \"DISNEY/disney.sol\":3811:4282  function NuevaAtraccion(string memory _nombreAtraccion, uint _precio) public Unicamente (msg.sender) {... */\n    tag_4:\n      callvalue\n        /* \"--CODEGEN--\":5:14   */\n      dup1\n        /* \"--CODEGEN--\":2:4   */\n      iszero\n      tag_23\n      jumpi\n        /* \"--CODEGEN--\":27:28   */\n      0x00\n        /* \"--CODEGEN--\":24:25   */\n      dup1\n        /* \"--CODEGEN--\":17:29   */\n      revert\n        /* \"--CODEGEN--\":2:4   */\n    tag_23:\n        /* \"DISNEY/disney.sol\":3811:4282  function NuevaAtraccion(string memory _nombreAtraccion, uint _precio) public Unicamente (msg.sender) {... */\n      pop\n      tag_24\n      0x04\n      dup1\n      calldatasize\n      sub\n      dup2\n      add\n      swap1\n      tag_25\n      swap2\n      swap1\n      jump(tag_26)\n    tag_25:\n      tag_27\n      jump\t// in\n    tag_24:\n      stop\n        /* \"DISNEY/disney.sol\":2148:2250  function balanceOf() public view returns (uint) {... */\n    tag_5:\n      callvalue\n        /* \"--CODEGEN--\":5:14   */\n      dup1\n        /* \"--CODEGEN--\":2:4   */\n      iszero\n      tag_28\n      jumpi\n        /* \"--CODEGEN--\":27:28   */\n      0x00\n        /* \"--CODEGEN--\":24:25   */\n      dup1\n        /* \"--CODEGEN--\":17:29   */\n      revert\n        /* \"--CODEGEN--\":2:4   */\n    tag_28:\n        /* \"DISNEY/disney.sol\":2148:2250  function balanceOf() public view returns (uint) {... */\n      pop\n      tag_29\n      tag_30\n      jump\t// in\n    tag_29:\n      mload(0x40)\n      tag_31\n      swap2\n      swap1\n      jump(tag_32)\n    tag_31:\n      mload(0x40)\n      dup1\n      swap2\n      sub\n      swap1\n      return\n        /* \"DISNEY/disney.sol\":311:339  address payable public owner */\n    tag_6:\n      callvalue\n        /* \"--CODEGEN--\":5:14   */\n      dup1\n        /* \"--CODEGEN--\":2:4   */\n      iszero\n      tag_33\n      jumpi\n        /* \"--CODEGEN--\":27:28   */\n      0x00\n        /* \"--CODEGEN--\":24:25   */\n      dup1\n        /* \"--CODEGEN--\":17:29   */\n      revert\n        /* \"--CODEGEN--\":2:4   */\n    tag_33:\n        /* \"DISNEY/disney.sol\":311:339  address payable public owner */\n      pop\n      tag_34\n      tag_35\n      jump\t// in\n    tag_34:\n      mload(0x40)\n      tag_36\n      swap2\n      swap1\n      jump(tag_37)\n    tag_36:\n      mload(0x40)\n      dup1\n      swap2\n      sub\n      swap1\n      return\n        /* \"DISNEY/disney.sol\":4362:4700  function BajaAtraccion(string memory _nombreAtraccion) public Unicamente (msg.sender) {... */\n    tag_7:\n      callvalue\n        /* \"--CODEGEN--\":5:14   */\n      dup1\n        /* \"--CODEGEN--\":2:4   */\n      iszero\n      tag_38\n      jumpi\n        /* \"--CODEGEN--\":27:28   */\n      0x00\n        /* \"--CODEGEN--\":24:25   */\n      dup1\n        /* \"--CODEGEN--\":17:29   */\n      revert\n        /* \"--CODEGEN--\":2:4   */\n    tag_38:\n        /* \"DISNEY/disney.sol\":4362:4700  function BajaAtraccion(string memory _nombreAtraccion) public Unicamente (msg.sender) {... */\n      pop\n      tag_39\n      0x04\n      dup1\n      calldatasize\n      sub\n      dup2\n      add\n      swap1\n      tag_40\n      swap2\n      swap1\n      jump(tag_41)\n    tag_40:\n      tag_42\n      jump\t// in\n    tag_39:\n      stop\n        /* \"DISNEY/disney.sol\":784:828  mapping (address => cliente) public Clientes */\n    tag_8:\n      callvalue\n        /* \"--CODEGEN--\":5:14   */\n      dup1\n        /* \"--CODEGEN--\":2:4   */\n      iszero\n      tag_43\n      jumpi\n        /* \"--CODEGEN--\":27:28   */\n      0x00\n        /* \"--CODEGEN--\":24:25   */\n      dup1\n        /* \"--CODEGEN--\":17:29   */\n      revert\n        /* \"--CODEGEN--\":2:4   */\n    tag_43:\n        /* \"DISNEY/disney.sol\":784:828  mapping (address => cliente) public Clientes */\n      pop\n      tag_44\n      0x04\n      dup1\n      calldatasize\n      sub\n      dup2\n      add\n      swap1\n      tag_45\n      swap2\n      swap1\n      jump(tag_46)\n    tag_45:\n      tag_47\n      jump\t// in\n    tag_44:\n      mload(0x40)\n      tag_48\n      swap2\n      swap1\n      jump(tag_32)\n    tag_48:\n      mload(0x40)\n      dup1\n      swap2\n      sub\n      swap1\n      return\n        /* \"DISNEY/disney.sol\":3363:3418  mapping (string => atraccion) public MappingAtracciones */\n    tag_9:\n      callvalue\n        /* \"--CODEGEN--\":5:14   */\n      dup1\n        /* \"--CODEGEN--\":2:4   */\n      iszero\n      tag_49\n      jumpi\n        /* \"--CODEGEN--\":27:28   */\n      0x00\n        /* \"--CODEGEN--\":24:25   */\n      dup1\n        /* \"--CODEGEN--\":17:29   */\n      revert\n        /* \"--CODEGEN--\":2:4   */\n    tag_49:\n        /* \"DISNEY/disney.sol\":3363:3418  mapping (string => atraccion) public MappingAtracciones */\n      pop\n      tag_50\n      0x04\n      dup1\n      calldatasize\n      sub\n      dup2\n      add\n      swap1\n      tag_51\n      swap2\n      swap1\n      jump(tag_41)\n    tag_51:\n      tag_52\n      jump\t// in\n    tag_50:\n      mload(0x40)\n      tag_53\n      swap4\n      swap3\n      swap2\n      swap1\n      jump(tag_54)\n    tag_53:\n      mload(0x40)\n      dup1\n      swap2\n      sub\n      swap1\n      return\n        /* \"DISNEY/disney.sol\":2318:2417  function MisTokens() public view returns (uint) {... */\n    tag_10:\n      callvalue\n        /* \"--CODEGEN--\":5:14   */\n      dup1\n        /* \"--CODEGEN--\":2:4   */\n      iszero\n      tag_55\n      jumpi\n        /* \"--CODEGEN--\":27:28   */\n      0x00\n        /* \"--CODEGEN--\":24:25   */\n      dup1\n        /* \"--CODEGEN--\":17:29   */\n      revert\n        /* \"--CODEGEN--\":2:4   */\n    tag_55:\n        /* \"DISNEY/disney.sol\":2318:2417  function MisTokens() public view returns (uint) {... */\n      pop\n      tag_56\n      tag_57\n      jump\t// in\n    tag_56:\n      mload(0x40)\n      tag_58\n      swap2\n      swap1\n      jump(tag_32)\n    tag_58:\n      mload(0x40)\n      dup1\n      swap2\n      sub\n      swap1\n      return\n        /* \"DISNEY/disney.sol\":1214:2097  function CompraTokens(uint _numTokens) public payable {... */\n    tag_11:\n      tag_59\n      0x04\n      dup1\n      calldatasize\n      sub\n      dup2\n      add\n      swap1\n      tag_60\n      swap2\n      swap1\n      jump(tag_16)\n    tag_60:\n      tag_61\n      jump\t// in\n    tag_59:\n      stop\n        /* \"DISNEY/disney.sol\":2463:2592  function GeneraTokens(uint _numTokens) public Unicamente(msg.sender){... */\n    tag_17:\n        /* \"DISNEY/disney.sol\":2520:2530  msg.sender */\n      caller\n        /* \"DISNEY/disney.sol\":2741:2746  owner */\n      0x01\n      0x00\n      swap1\n      sload\n      swap1\n      0x0100\n      exp\n      swap1\n      div\n      0xffffffffffffffffffffffffffffffffffffffff\n      and\n        /* \"DISNEY/disney.sol\":2727:2746  _direccion == owner */\n      0xffffffffffffffffffffffffffffffffffffffff\n      and\n        /* \"DISNEY/disney.sol\":2727:2737  _direccion */\n      dup2\n        /* \"DISNEY/disney.sol\":2727:2746  _direccion == owner */\n      0xffffffffffffffffffffffffffffffffffffffff\n      and\n      eq\n        /* \"DISNEY/disney.sol\":2719:2797  require(_direccion == owner, \"No tienes permisos para ejecutar esta funcion.\") */\n      tag_63\n      jumpi\n      mload(0x40)\n      0x08c379a000000000000000000000000000000000000000000000000000000000\n      dup2\n      mstore\n      0x04\n      add\n      tag_64\n      swap1\n      jump(tag_65)\n    tag_64:\n      mload(0x40)\n      dup1\n      swap2\n      sub\n      swap1\n      revert\n    tag_63:\n        /* \"DISNEY/disney.sol\":2548:2553  token */\n      0x00\n      dup1\n      swap1\n      sload\n      swap1\n      0x0100\n      exp\n      swap1\n      div\n      0xffffffffffffffffffffffffffffffffffffffff\n      and\n        /* \"DISNEY/disney.sol\":2548:2573  token.increaseTotalSupply */\n      0xffffffffffffffffffffffffffffffffffffffff\n      and\n      0x1d43cc98\n        /* \"DISNEY/disney.sol\":2574:2584  _numTokens */\n      dup4\n        /* \"DISNEY/disney.sol\":2548:2585  token.increaseTotalSupply(_numTokens) */\n      mload(0x40)\n      dup3\n      0xffffffff\n      and\n      0xe0\n      shl\n      dup2\n      mstore\n      0x04\n      add\n      tag_67\n      swap2\n      swap1\n      jump(tag_32)\n    tag_67:\n      0x00\n      mload(0x40)\n      dup1\n      dup4\n      sub\n      dup2\n      0x00\n      dup8\n      dup1\n      extcodesize\n      iszero\n        /* \"--CODEGEN--\":5:14   */\n      dup1\n        /* \"--CODEGEN--\":2:4   */\n      iszero\n      tag_68\n      jumpi\n        /* \"--CODEGEN--\":27:28   */\n      0x00\n        /* \"--CODEGEN--\":24:25   */\n      dup1\n        /* \"--CODEGEN--\":17:29   */\n      revert\n        /* \"--CODEGEN--\":2:4   */\n    tag_68:\n        /* \"DISNEY/disney.sol\":2548:2585  token.increaseTotalSupply(_numTokens) */\n      pop\n      gas\n      call\n      iszero\n        /* \"--CODEGEN--\":8:17   */\n      dup1\n        /* \"--CODEGEN--\":5:7   */\n      iszero\n      tag_70\n      jumpi\n        /* \"--CODEGEN--\":45:61   */\n      returndatasize\n        /* \"--CODEGEN--\":42:43   */\n      0x00\n        /* \"--CODEGEN--\":39:40   */\n      dup1\n        /* \"--CODEGEN--\":24:62   */\n      returndatacopy\n        /* \"--CODEGEN--\":77:93   */\n      returndatasize\n        /* \"--CODEGEN--\":74:75   */\n      0x00\n        /* \"--CODEGEN--\":67:94   */\n      revert\n        /* \"--CODEGEN--\":5:7   */\n    tag_70:\n        /* \"DISNEY/disney.sol\":2548:2585  token.increaseTotalSupply(_numTokens) */\n      pop\n      pop\n      pop\n      pop\n        /* \"DISNEY/disney.sol\":2463:2592  function GeneraTokens(uint _numTokens) public Unicamente(msg.sender){... */\n      pop\n      pop\n      jump\t// out\n        /* \"DISNEY/disney.sol\":4763:4871  function AtraccionesDisponibles() public view returns (string [] memory) {... */\n    tag_20:\n        /* \"DISNEY/disney.sol\":4818:4834  string [] memory */\n      0x60\n        /* \"DISNEY/disney.sol\":4853:4864  Atracciones */\n      0x04\n        /* \"DISNEY/disney.sol\":4846:4864  return Atracciones */\n      dup1\n      sload\n      dup1\n      0x20\n      mul\n      0x20\n      add\n      mload(0x40)\n      swap1\n      dup2\n      add\n      0x40\n      mstore\n      dup1\n      swap3\n      swap2\n      swap1\n      dup2\n      dup2\n      mstore\n      0x20\n      add\n      0x00\n      swap1\n    tag_72:\n      dup3\n      dup3\n      lt\n      iszero\n      tag_73\n      jumpi\n      dup4\n      dup3\n      swap1\n      0x00\n      mstore\n      keccak256(0x00, 0x20)\n      add\n      dup1\n      sload\n      0x01\n      dup2\n      0x01\n      and\n      iszero\n      0x0100\n      mul\n      sub\n      and\n      0x02\n      swap1\n      div\n      dup1\n      0x1f\n      add\n      0x20\n      dup1\n      swap2\n      div\n      mul\n      0x20\n      add\n      mload(0x40)\n      swap1\n      dup2\n      add\n      0x40\n      mstore\n      dup1\n      swap3\n      swap2\n      swap1\n      dup2\n      dup2\n      mstore\n      0x20\n      add\n      dup3\n      dup1\n      sload\n      0x01\n      dup2\n      0x01\n      and\n      iszero\n      0x0100\n      mul\n      sub\n      and\n      0x02\n      swap1\n      div\n      dup1\n      iszero\n      tag_75\n      jumpi\n      dup1\n      0x1f\n      lt\n      tag_76\n      jumpi\n      0x0100\n      dup1\n      dup4\n      sload\n      div\n      mul\n      dup4\n      mstore\n      swap2\n      0x20\n      add\n      swap2\n      jump(tag_75)\n    tag_76:\n      dup3\n      add\n      swap2\n      swap1\n      0x00\n      mstore\n      keccak256(0x00, 0x20)\n      swap1\n    tag_77:\n      dup2\n      sload\n      dup2\n      mstore\n      swap1\n      0x01\n      add\n      swap1\n      0x20\n      add\n      dup1\n      dup4\n      gt\n      tag_77\n      jumpi\n      dup3\n      swap1\n      sub\n      0x1f\n      and\n      dup3\n      add\n      swap2\n    tag_75:\n      pop\n      pop\n      pop\n      pop\n      pop\n      dup2\n      mstore\n      0x20\n      add\n      swap1\n      0x01\n      add\n      swap1\n      jump(tag_72)\n    tag_73:\n      pop\n      pop\n      pop\n      pop\n      swap1\n      pop\n        /* \"DISNEY/disney.sol\":4763:4871  function AtraccionesDisponibles() public view returns (string [] memory) {... */\n      swap1\n      jump\t// out\n        /* \"DISNEY/disney.sol\":3811:4282  function NuevaAtraccion(string memory _nombreAtraccion, uint _precio) public Unicamente (msg.sender) {... */\n    tag_27:\n        /* \"DISNEY/disney.sol\":3900:3910  msg.sender */\n      caller\n        /* \"DISNEY/disney.sol\":2741:2746  owner */\n      0x01\n      0x00\n      swap1\n      sload\n      swap1\n      0x0100\n      exp\n      swap1\n      div\n      0xffffffffffffffffffffffffffffffffffffffff\n      and\n        /* \"DISNEY/disney.sol\":2727:2746  _direccion == owner */\n      0xffffffffffffffffffffffffffffffffffffffff\n      and\n        /* \"DISNEY/disney.sol\":2727:2737  _direccion */\n      dup2\n        /* \"DISNEY/disney.sol\":2727:2746  _direccion == owner */\n      0xffffffffffffffffffffffffffffffffffffffff\n      and\n      eq\n        /* \"DISNEY/disney.sol\":2719:2797  require(_direccion == owner, \"No tienes permisos para ejecutar esta funcion.\") */\n      tag_79\n      jumpi\n      mload(0x40)\n      0x08c379a000000000000000000000000000000000000000000000000000000000\n      dup2\n      mstore\n      0x04\n      add\n      tag_80\n      swap1\n      jump(tag_65)\n    tag_80:\n      mload(0x40)\n      dup1\n      swap2\n      sub\n      swap1\n      revert\n    tag_79:\n        /* \"DISNEY/disney.sol\":4008:4050  atraccion(_nombreAtraccion, _precio, true) */\n      mload(0x40)\n      dup1\n      0x60\n      add\n      0x40\n      mstore\n      dup1\n        /* \"DISNEY/disney.sol\":4018:4034  _nombreAtraccion */\n      dup5\n        /* \"DISNEY/disney.sol\":4008:4050  atraccion(_nombreAtraccion, _precio, true) */\n      dup2\n      mstore\n      0x20\n      add\n        /* \"DISNEY/disney.sol\":4036:4043  _precio */\n      dup4\n        /* \"DISNEY/disney.sol\":4008:4050  atraccion(_nombreAtraccion, _precio, true) */\n      dup2\n      mstore\n      0x20\n      add\n        /* \"DISNEY/disney.sol\":4045:4049  true */\n      0x01\n        /* \"DISNEY/disney.sol\":4008:4050  atraccion(_nombreAtraccion, _precio, true) */\n      iszero\n      iszero\n      dup2\n      mstore\n      pop\n        /* \"DISNEY/disney.sol\":3969:3987  MappingAtracciones */\n      0x03\n        /* \"DISNEY/disney.sol\":3988:4004  _nombreAtraccion */\n      dup5\n        /* \"DISNEY/disney.sol\":3969:4005  MappingAtracciones[_nombreAtraccion] */\n      mload(0x40)\n      tag_82\n      swap2\n      swap1\n      jump(tag_83)\n    tag_82:\n      swap1\n      dup2\n      mstore\n      0x20\n      add\n      mload(0x40)\n      dup1\n      swap2\n      sub\n      swap1\n      keccak256\n        /* \"DISNEY/disney.sol\":3969:4050  MappingAtracciones[_nombreAtraccion] = atraccion(_nombreAtraccion, _precio, true) */\n      0x00\n      dup3\n      add\n      mload\n      dup2\n      0x00\n      add\n      swap1\n      dup1\n      mload\n      swap1\n      0x20\n      add\n      swap1\n      tag_84\n      swap3\n      swap2\n      swap1\n      tag_85\n      jump\t// in\n    tag_84:\n      pop\n      0x20\n      dup3\n      add\n      mload\n      dup2\n      0x01\n      add\n      sstore\n      0x40\n      dup3\n      add\n      mload\n      dup2\n      0x02\n      add\n      exp(0x0100, 0x00)\n      dup2\n      sload\n      dup2\n      0xff\n      mul\n      not\n      and\n      swap1\n      dup4\n      iszero\n      iszero\n      mul\n      or\n      swap1\n      sstore\n      pop\n      swap1\n      pop\n      pop\n        /* \"DISNEY/disney.sol\":4126:4137  Atracciones */\n      0x04\n        /* \"DISNEY/disney.sol\":4143:4159  _nombreAtraccion */\n      dup4\n        /* \"DISNEY/disney.sol\":4126:4160  Atracciones.push(_nombreAtraccion) */\n      swap1\n      dup1\n        /* \"--CODEGEN--\":39:40   */\n      0x01\n        /* \"--CODEGEN--\":33:36   */\n      dup2\n        /* \"--CODEGEN--\":27:37   */\n      sload\n        /* \"--CODEGEN--\":23:41   */\n      add\n        /* \"--CODEGEN--\":57:67   */\n      dup1\n        /* \"--CODEGEN--\":52:55   */\n      dup3\n        /* \"--CODEGEN--\":45:68   */\n      sstore\n        /* \"--CODEGEN--\":79:89   */\n      dup1\n        /* \"--CODEGEN--\":72:89   */\n      swap2\n      pop\n        /* \"--CODEGEN--\":0:93   */\n      pop\n        /* \"DISNEY/disney.sol\":4126:4160  Atracciones.push(_nombreAtraccion) */\n      0x01\n      swap1\n      sub\n      swap1\n      0x00\n      mstore\n      keccak256(0x00, 0x20)\n      add\n      0x00\n      swap1\n      swap2\n      swap1\n      swap2\n      swap1\n      swap2\n      pop\n      swap1\n      dup1\n      mload\n      swap1\n      0x20\n      add\n      swap1\n      tag_87\n      swap3\n      swap2\n      swap1\n      tag_85\n      jump\t// in\n    tag_87:\n      pop\n        /* \"DISNEY/disney.sol\":4234:4275  alta_atraccion(_nombreAtraccion, _precio) */\n      0xef69c38fe63a06c66bf59a6eedc8716eba333ed78488e0b767455a9cf2eecbb3\n        /* \"DISNEY/disney.sol\":4249:4265  _nombreAtraccion */\n      dup4\n        /* \"DISNEY/disney.sol\":4267:4274  _precio */\n      dup4\n        /* \"DISNEY/disney.sol\":4234:4275  alta_atraccion(_nombreAtraccion, _precio) */\n      mload(0x40)\n      tag_88\n      swap3\n      swap2\n      swap1\n      jump(tag_89)\n    tag_88:\n      mload(0x40)\n      dup1\n      swap2\n      sub\n      swap1\n      log1\n        /* \"DISNEY/disney.sol\":3811:4282  function NuevaAtraccion(string memory _nombreAtraccion, uint _precio) public Unicamente (msg.sender) {... */\n      pop\n      pop\n      pop\n      jump\t// out\n        /* \"DISNEY/disney.sol\":2148:2250  function balanceOf() public view returns (uint) {... */\n    tag_30:\n        /* \"DISNEY/disney.sol\":2190:2194  uint */\n      0x00\n        /* \"DISNEY/disney.sol\":2213:2218  token */\n      dup1\n      0x00\n      swap1\n      sload\n      swap1\n      0x0100\n      exp\n      swap1\n      div\n      0xffffffffffffffffffffffffffffffffffffffff\n      and\n        /* \"DISNEY/disney.sol\":2213:2228  token.balanceOf */\n      0xffffffffffffffffffffffffffffffffffffffff\n      and\n      0x70a08231\n        /* \"DISNEY/disney.sol\":2237:2241  this */\n      address\n        /* \"DISNEY/disney.sol\":2213:2243  token.balanceOf(address(this)) */\n      mload(0x40)\n      dup3\n      0xffffffff\n      and\n      0xe0\n      shl\n      dup2\n      mstore\n      0x04\n      add\n      tag_91\n      swap2\n      swap1\n      jump(tag_92)\n    tag_91:\n      0x20\n      mload(0x40)\n      dup1\n      dup4\n      sub\n      dup2\n      dup7\n      dup1\n      extcodesize\n      iszero\n        /* \"--CODEGEN--\":5:14   */\n      dup1\n        /* \"--CODEGEN--\":2:4   */\n      iszero\n      tag_93\n      jumpi\n        /* \"--CODEGEN--\":27:28   */\n      0x00\n        /* \"--CODEGEN--\":24:25   */\n      dup1\n        /* \"--CODEGEN--\":17:29   */\n      revert\n        /* \"--CODEGEN--\":2:4   */\n    tag_93:\n        /* \"DISNEY/disney.sol\":2213:2243  token.balanceOf(address(this)) */\n      pop\n      gas\n      staticcall\n      iszero\n        /* \"--CODEGEN--\":8:17   */\n      dup1\n        /* \"--CODEGEN--\":5:7   */\n      iszero\n      tag_95\n      jumpi\n        /* \"--CODEGEN--\":45:61   */\n      returndatasize\n        /* \"--CODEGEN--\":42:43   */\n      0x00\n        /* \"--CODEGEN--\":39:40   */\n      dup1\n        /* \"--CODEGEN--\":24:62   */\n      returndatacopy\n        /* \"--CODEGEN--\":77:93   */\n      returndatasize\n        /* \"--CODEGEN--\":74:75   */\n      0x00\n        /* \"--CODEGEN--\":67:94   */\n      revert\n        /* \"--CODEGEN--\":5:7   */\n    tag_95:\n        /* \"DISNEY/disney.sol\":2213:2243  token.balanceOf(address(this)) */\n      pop\n      pop\n      pop\n      pop\n      mload(0x40)\n      returndatasize\n        /* \"--CODEGEN--\":101:105   */\n      0x1f\n        /* \"--CODEGEN--\":97:106   */\n      not\n        /* \"--CODEGEN--\":90:94   */\n      0x1f\n        /* \"--CODEGEN--\":84:88   */\n      dup3\n        /* \"--CODEGEN--\":80:95   */\n      add\n        /* \"--CODEGEN--\":76:107   */\n      and\n        /* \"--CODEGEN--\":69:74   */\n      dup3\n        /* \"--CODEGEN--\":65:108   */\n      add\n        /* \"--CODEGEN--\":126:132   */\n      dup1\n        /* \"--CODEGEN--\":120:124   */\n      0x40\n        /* \"--CODEGEN--\":113:133   */\n      mstore\n        /* \"--CODEGEN--\":0:138   */\n      pop\n        /* \"DISNEY/disney.sol\":2213:2243  token.balanceOf(address(this)) */\n      dup2\n      add\n      swap1\n      tag_96\n      swap2\n      swap1\n      jump(tag_97)\n    tag_96:\n        /* \"DISNEY/disney.sol\":2206:2243  return token.balanceOf(address(this)) */\n      swap1\n      pop\n        /* \"DISNEY/disney.sol\":2148:2250  function balanceOf() public view returns (uint) {... */\n      swap1\n      jump\t// out\n        /* \"DISNEY/disney.sol\":311:339  address payable public owner */\n    tag_35:\n      0x01\n      0x00\n      swap1\n      sload\n      swap1\n      0x0100\n      exp\n      swap1\n      div\n      0xffffffffffffffffffffffffffffffffffffffff\n      and\n      dup2\n      jump\t// out\n        /* \"DISNEY/disney.sol\":4362:4700  function BajaAtraccion(string memory _nombreAtraccion) public Unicamente (msg.sender) {... */\n    tag_42:\n        /* \"DISNEY/disney.sol\":4436:4446  msg.sender */\n      caller\n        /* \"DISNEY/disney.sol\":2741:2746  owner */\n      0x01\n      0x00\n      swap1\n      sload\n      swap1\n      0x0100\n      exp\n      swap1\n      div\n      0xffffffffffffffffffffffffffffffffffffffff\n      and\n        /* \"DISNEY/disney.sol\":2727:2746  _direccion == owner */\n      0xffffffffffffffffffffffffffffffffffffffff\n      and\n        /* \"DISNEY/disney.sol\":2727:2737  _direccion */\n      dup2\n        /* \"DISNEY/disney.sol\":2727:2746  _direccion == owner */\n      0xffffffffffffffffffffffffffffffffffffffff\n      and\n      eq\n        /* \"DISNEY/disney.sol\":2719:2797  require(_direccion == owner, \"No tienes permisos para ejecutar esta funcion.\") */\n      tag_99\n      jumpi\n      mload(0x40)\n      0x08c379a000000000000000000000000000000000000000000000000000000000\n      dup2\n      mstore\n      0x04\n      add\n      tag_100\n      swap1\n      jump(tag_65)\n    tag_100:\n      mload(0x40)\n      dup1\n      swap2\n      sub\n      swap1\n      revert\n    tag_99:\n        /* \"DISNEY/disney.sol\":4582:4587  false */\n      0x00\n        /* \"DISNEY/disney.sol\":4526:4544  MappingAtracciones */\n      0x03\n        /* \"DISNEY/disney.sol\":4545:4561  _nombreAtraccion */\n      dup4\n        /* \"DISNEY/disney.sol\":4526:4562  MappingAtracciones[_nombreAtraccion] */\n      mload(0x40)\n      tag_102\n      swap2\n      swap1\n      jump(tag_83)\n    tag_102:\n      swap1\n      dup2\n      mstore\n      0x20\n      add\n      mload(0x40)\n      dup1\n      swap2\n      sub\n      swap1\n      keccak256\n        /* \"DISNEY/disney.sol\":4526:4579  MappingAtracciones[_nombreAtraccion].estado_atraccion */\n      0x02\n      add\n      0x00\n        /* \"DISNEY/disney.sol\":4526:4587  MappingAtracciones[_nombreAtraccion].estado_atraccion = false */\n      0x0100\n      exp\n      dup2\n      sload\n      dup2\n      0xff\n      mul\n      not\n      and\n      swap1\n      dup4\n      iszero\n      iszero\n      mul\n      or\n      swap1\n      sstore\n      pop\n        /* \"DISNEY/disney.sol\":4661:4693  baja_atraccion(_nombreAtraccion) */\n      0x24ba6c881728980191398db8dcfd8ed4f6aeb1c08df349d63f3b85075f3e86dd\n        /* \"DISNEY/disney.sol\":4676:4692  _nombreAtraccion */\n      dup3\n        /* \"DISNEY/disney.sol\":4661:4693  baja_atraccion(_nombreAtraccion) */\n      mload(0x40)\n      tag_103\n      swap2\n      swap1\n      jump(tag_104)\n    tag_103:\n      mload(0x40)\n      dup1\n      swap2\n      sub\n      swap1\n      log1\n        /* \"DISNEY/disney.sol\":4362:4700  function BajaAtraccion(string memory _nombreAtraccion) public Unicamente (msg.sender) {... */\n      pop\n      pop\n      jump\t// out\n        /* \"DISNEY/disney.sol\":784:828  mapping (address => cliente) public Clientes */\n    tag_47:\n      mstore(0x20, 0x02)\n      dup1\n      0x00\n      mstore\n      keccak256(0x00, 0x40)\n      0x00\n      swap2\n      pop\n      swap1\n      pop\n      dup1\n      0x00\n      add\n      sload\n      swap1\n      pop\n      dup2\n      jump\t// out\n        /* \"DISNEY/disney.sol\":3363:3418  mapping (string => atraccion) public MappingAtracciones */\n    tag_52:\n      0x03\n      dup2\n        /* \"--CODEGEN--\":28:35   */\n      dup1\n        /* \"--CODEGEN--\":22:36   */\n      mload\n        /* \"--CODEGEN--\":169:173   */\n      0x20\n        /* \"--CODEGEN--\":160:167   */\n      dup2\n        /* \"--CODEGEN--\":156:174   */\n      add\n        /* \"--CODEGEN--\":147:154   */\n      dup3\n        /* \"--CODEGEN--\":143:175   */\n      add\n        /* \"--CODEGEN--\":204:217   */\n      dup1\n        /* \"--CODEGEN--\":198:218   */\n      mload\n        /* \"--CODEGEN--\":246:254   */\n      dup5\n        /* \"--CODEGEN--\":231:244   */\n      dup3\n        /* \"--CODEGEN--\":224:255   */\n      mstore\n        /* \"--CODEGEN--\":316:320   */\n      0x20\n        /* \"--CODEGEN--\":307:314   */\n      dup4\n        /* \"--CODEGEN--\":303:321   */\n      add\n        /* \"--CODEGEN--\":296:300   */\n      0x20\n        /* \"--CODEGEN--\":287:294   */\n      dup6\n        /* \"--CODEGEN--\":283:301   */\n      add\n        /* \"--CODEGEN--\":273:322   */\n      keccak256\n        /* \"--CODEGEN--\":350:359   */\n      dup2\n        /* \"--CODEGEN--\":335:348   */\n      dup4\n        /* \"--CODEGEN--\":328:360   */\n      mstore\n        /* \"--CODEGEN--\":378:382   */\n      dup1\n        /* \"--CODEGEN--\":366:382   */\n      swap6\n      pop\n        /* \"--CODEGEN--\":0:388   */\n      pop\n      pop\n      pop\n      pop\n        /* \"DISNEY/disney.sol\":3363:3418  mapping (string => atraccion) public MappingAtracciones */\n      pop\n      0x00\n      swap2\n      pop\n      swap1\n      pop\n      dup1\n      0x00\n      add\n      dup1\n      sload\n      0x01\n      dup2\n      0x01\n      and\n      iszero\n      0x0100\n      mul\n      sub\n      and\n      0x02\n      swap1\n      div\n      dup1\n      0x1f\n      add\n      0x20\n      dup1\n      swap2\n      div\n      mul\n      0x20\n      add\n      mload(0x40)\n      swap1\n      dup2\n      add\n      0x40\n      mstore\n      dup1\n      swap3\n      swap2\n      swap1\n      dup2\n      dup2\n      mstore\n      0x20\n      add\n      dup3\n      dup1\n      sload\n      0x01\n      dup2\n      0x01\n      and\n      iszero\n      0x0100\n      mul\n      sub\n      and\n      0x02\n      swap1\n      div\n      dup1\n      iszero\n      tag_105\n      jumpi\n      dup1\n      0x1f\n      lt\n      tag_106\n      jumpi\n      0x0100\n      dup1\n      dup4\n      sload\n      div\n      mul\n      dup4\n      mstore\n      swap2\n      0x20\n      add\n      swap2\n      jump(tag_105)\n    tag_106:\n      dup3\n      add\n      swap2\n      swap1\n      0x00\n      mstore\n      keccak256(0x00, 0x20)\n      swap1\n    tag_107:\n      dup2\n      sload\n      dup2\n      mstore\n      swap1\n      0x01\n      add\n      swap1\n      0x20\n      add\n      dup1\n      dup4\n      gt\n      tag_107\n      jumpi\n      dup3\n      swap1\n      sub\n      0x1f\n      and\n      dup3\n      add\n      swap2\n    tag_105:\n      pop\n      pop\n      pop\n      pop\n      pop\n      swap1\n      dup1\n      0x01\n      add\n      sload\n      swap1\n      dup1\n      0x02\n      add\n      0x00\n      swap1\n      sload\n      swap1\n      0x0100\n      exp\n      swap1\n      div\n      0xff\n      and\n      swap1\n      pop\n      dup4\n      jump\t// out\n        /* \"DISNEY/disney.sol\":2318:2417  function MisTokens() public view returns (uint) {... */\n    tag_57:\n        /* \"DISNEY/disney.sol\":2360:2364  uint */\n      0x00\n        /* \"DISNEY/disney.sol\":2383:2388  token */\n      dup1\n      0x00\n      swap1\n      sload\n      swap1\n      0x0100\n      exp\n      swap1\n      div\n      0xffffffffffffffffffffffffffffffffffffffff\n      and\n        /* \"DISNEY/disney.sol\":2383:2398  token.balanceOf */\n      0xffffffffffffffffffffffffffffffffffffffff\n      and\n      0x70a08231\n        /* \"DISNEY/disney.sol\":2399:2409  msg.sender */\n      caller\n        /* \"DISNEY/disney.sol\":2383:2410  token.balanceOf(msg.sender) */\n      mload(0x40)\n      dup3\n      0xffffffff\n      and\n      0xe0\n      shl\n      dup2\n      mstore\n      0x04\n      add\n      tag_109\n      swap2\n      swap1\n      jump(tag_110)\n    tag_109:\n      0x20\n      mload(0x40)\n      dup1\n      dup4\n      sub\n      dup2\n      dup7\n      dup1\n      extcodesize\n      iszero\n        /* \"--CODEGEN--\":5:14   */\n      dup1\n        /* \"--CODEGEN--\":2:4   */\n      iszero\n      tag_111\n      jumpi\n        /* \"--CODEGEN--\":27:28   */\n      0x00\n        /* \"--CODEGEN--\":24:25   */\n      dup1\n        /* \"--CODEGEN--\":17:29   */\n      revert\n        /* \"--CODEGEN--\":2:4   */\n    tag_111:\n        /* \"DISNEY/disney.sol\":2383:2410  token.balanceOf(msg.sender) */\n      pop\n      gas\n      staticcall\n      iszero\n        /* \"--CODEGEN--\":8:17   */\n      dup1\n        /* \"--CODEGEN--\":5:7   */\n      iszero\n      tag_113\n      jumpi\n        /* \"--CODEGEN--\":45:61   */\n      returndatasize\n        /* \"--CODEGEN--\":42:43   */\n      0x00\n        /* \"--CODEGEN--\":39:40   */\n      dup1\n        /* \"--CODEGEN--\":24:62   */\n      returndatacopy\n        /* \"--CODEGEN--\":77:93   */\n      returndatasize\n        /* \"--CODEGEN--\":74:75   */\n      0x00\n        /* \"--CODEGEN--\":67:94   */\n      revert\n        /* \"--CODEGEN--\":5:7   */\n    tag_113:\n        /* \"DISNEY/disney.sol\":2383:2410  token.balanceOf(msg.sender) */\n      pop\n      pop\n      pop\n      pop\n      mload(0x40)\n      returndatasize\n        /* \"--CODEGEN--\":101:105   */\n      0x1f\n        /* \"--CODEGEN--\":97:106   */\n      not\n        /* \"--CODEGEN--\":90:94   */\n      0x1f\n        /* \"--CODEGEN--\":84:88   */\n      dup3\n        /* \"--CODEGEN--\":80:95   */\n      add\n        /* \"--CODEGEN--\":76:107   */\n      and\n        /* \"--CODEGEN--\":69:74   */\n      dup3\n        /* \"--CODEGEN--\":65:108   */\n      add\n        /* \"--CODEGEN--\":126:132   */\n      dup1\n        /* \"--CODEGEN--\":120:124   */\n      0x40\n        /* \"--CODEGEN--\":113:133   */\n      mstore\n        /* \"--CODEGEN--\":0:138   */\n      pop\n        /* \"DISNEY/disney.sol\":2383:2410  token.balanceOf(msg.sender) */\n      dup2\n      add\n      swap1\n      tag_114\n      swap2\n      swap1\n      jump(tag_97)\n    tag_114:\n        /* \"DISNEY/disney.sol\":2376:2410  return token.balanceOf(msg.sender) */\n      swap1\n      pop\n        /* \"DISNEY/disney.sol\":2318:2417  function MisTokens() public view returns (uint) {... */\n      swap1\n      jump\t// out\n        /* \"DISNEY/disney.sol\":1214:2097  function CompraTokens(uint _numTokens) public payable {... */\n    tag_61:\n        /* \"DISNEY/disney.sol\":1324:1334  uint coste */\n      0x00\n        /* \"DISNEY/disney.sol\":1337:1361  PrecioTokens(_numTokens) */\n      tag_116\n        /* \"DISNEY/disney.sol\":1350:1360  _numTokens */\n      dup3\n        /* \"DISNEY/disney.sol\":1337:1349  PrecioTokens */\n      tag_117\n        /* \"DISNEY/disney.sol\":1337:1361  PrecioTokens(_numTokens) */\n      jump\t// in\n    tag_116:\n        /* \"DISNEY/disney.sol\":1324:1361  uint coste = PrecioTokens(_numTokens) */\n      swap1\n      pop\n        /* \"DISNEY/disney.sol\":1464:1469  coste */\n      dup1\n        /* \"DISNEY/disney.sol\":1451:1460  msg.value */\n      callvalue\n        /* \"DISNEY/disney.sol\":1451:1469  msg.value >= coste */\n      lt\n      iszero\n        /* \"DISNEY/disney.sol\":1442:1516  require (msg.value >= coste, \"Compra menos Tokens o paga con mas ethers.\") */\n      tag_118\n      jumpi\n      mload(0x40)\n      0x08c379a000000000000000000000000000000000000000000000000000000000\n      dup2\n      mstore\n      0x04\n      add\n      tag_119\n      swap1\n      jump(tag_120)\n    tag_119:\n      mload(0x40)\n      dup1\n      swap2\n      sub\n      swap1\n      revert\n    tag_118:\n        /* \"DISNEY/disney.sol\":1583:1599  uint returnValue */\n      0x00\n        /* \"DISNEY/disney.sol\":1614:1619  coste */\n      dup2\n        /* \"DISNEY/disney.sol\":1602:1611  msg.value */\n      callvalue\n        /* \"DISNEY/disney.sol\":1602:1619  msg.value - coste */\n      sub\n        /* \"DISNEY/disney.sol\":1583:1619  uint returnValue = msg.value - coste */\n      swap1\n      pop\n        /* \"DISNEY/disney.sol\":1688:1698  msg.sender */\n      caller\n        /* \"DISNEY/disney.sol\":1688:1707  msg.sender.transfer */\n      0xffffffffffffffffffffffffffffffffffffffff\n      and\n        /* \"DISNEY/disney.sol\":1688:1720  msg.sender.transfer(returnValue) */\n      0x08fc\n        /* \"DISNEY/disney.sol\":1708:1719  returnValue */\n      dup3\n        /* \"DISNEY/disney.sol\":1688:1720  msg.sender.transfer(returnValue) */\n      swap1\n      dup2\n      iszero\n      mul\n      swap1\n      mload(0x40)\n      0x00\n      mload(0x40)\n      dup1\n      dup4\n      sub\n      dup2\n      dup6\n      dup9\n      dup9\n      call\n      swap4\n      pop\n      pop\n      pop\n      pop\n      iszero\n        /* \"--CODEGEN--\":8:17   */\n      dup1\n        /* \"--CODEGEN--\":5:7   */\n      iszero\n      tag_122\n      jumpi\n        /* \"--CODEGEN--\":45:61   */\n      returndatasize\n        /* \"--CODEGEN--\":42:43   */\n      0x00\n        /* \"--CODEGEN--\":39:40   */\n      dup1\n        /* \"--CODEGEN--\":24:62   */\n      returndatacopy\n        /* \"--CODEGEN--\":77:93   */\n      returndatasize\n        /* \"--CODEGEN--\":74:75   */\n      0x00\n        /* \"--CODEGEN--\":67:94   */\n      revert\n        /* \"--CODEGEN--\":5:7   */\n    tag_122:\n        /* \"DISNEY/disney.sol\":1688:1720  msg.sender.transfer(returnValue) */\n      pop\n        /* \"DISNEY/disney.sol\":1784:1796  uint Balance */\n      0x00\n        /* \"DISNEY/disney.sol\":1799:1810  balanceOf() */\n      tag_123\n        /* \"DISNEY/disney.sol\":1799:1808  balanceOf */\n      tag_30\n        /* \"DISNEY/disney.sol\":1799:1810  balanceOf() */\n      jump\t// in\n    tag_123:\n        /* \"DISNEY/disney.sol\":1784:1810  uint Balance = balanceOf() */\n      swap1\n      pop\n        /* \"DISNEY/disney.sol\":1842:1849  Balance */\n      dup1\n        /* \"DISNEY/disney.sol\":1828:1838  _numTokens */\n      dup5\n        /* \"DISNEY/disney.sol\":1828:1849  _numTokens <= Balance */\n      gt\n      iszero\n        /* \"DISNEY/disney.sol\":1820:1886  require(_numTokens <= Balance, \"Compra un numero menor de Tokens\") */\n      tag_124\n      jumpi\n      mload(0x40)\n      0x08c379a000000000000000000000000000000000000000000000000000000000\n      dup2\n      mstore\n      0x04\n      add\n      tag_125\n      swap1\n      jump(tag_126)\n    tag_125:\n      mload(0x40)\n      dup1\n      swap2\n      sub\n      swap1\n      revert\n    tag_124:\n        /* \"DISNEY/disney.sol\":1951:1956  token */\n      0x00\n      dup1\n      swap1\n      sload\n      swap1\n      0x0100\n      exp\n      swap1\n      div\n      0xffffffffffffffffffffffffffffffffffffffff\n      and\n        /* \"DISNEY/disney.sol\":1951:1965  token.transfer */\n      0xffffffffffffffffffffffffffffffffffffffff\n      and\n      0xa9059cbb\n        /* \"DISNEY/disney.sol\":1966:1976  msg.sender */\n      caller\n        /* \"DISNEY/disney.sol\":1978:1988  _numTokens */\n      dup7\n        /* \"DISNEY/disney.sol\":1951:1989  token.transfer(msg.sender, _numTokens) */\n      mload(0x40)\n      dup4\n      0xffffffff\n      and\n      0xe0\n      shl\n      dup2\n      mstore\n      0x04\n      add\n      tag_127\n      swap3\n      swap2\n      swap1\n      jump(tag_128)\n    tag_127:\n      0x20\n      mload(0x40)\n      dup1\n      dup4\n      sub\n      dup2\n      0x00\n      dup8\n      dup1\n      extcodesize\n      iszero\n        /* \"--CODEGEN--\":5:14   */\n      dup1\n        /* \"--CODEGEN--\":2:4   */\n      iszero\n      tag_129\n      jumpi\n        /* \"--CODEGEN--\":27:28   */\n      0x00\n        /* \"--CODEGEN--\":24:25   */\n      dup1\n        /* \"--CODEGEN--\":17:29   */\n      revert\n        /* \"--CODEGEN--\":2:4   */\n    tag_129:\n        /* \"DISNEY/disney.sol\":1951:1989  token.transfer(msg.sender, _numTokens) */\n      pop\n      gas\n      call\n      iszero\n        /* \"--CODEGEN--\":8:17   */\n      dup1\n        /* \"--CODEGEN--\":5:7   */\n      iszero\n      tag_131\n      jumpi\n        /* \"--CODEGEN--\":45:61   */\n      returndatasize\n        /* \"--CODEGEN--\":42:43   */\n      0x00\n        /* \"--CODEGEN--\":39:40   */\n      dup1\n        /* \"--CODEGEN--\":24:62   */\n      returndatacopy\n        /* \"--CODEGEN--\":77:93   */\n      returndatasize\n        /* \"--CODEGEN--\":74:75   */\n      0x00\n        /* \"--CODEGEN--\":67:94   */\n      revert\n        /* \"--CODEGEN--\":5:7   */\n    tag_131:\n        /* \"DISNEY/disney.sol\":1951:1989  token.transfer(msg.sender, _numTokens) */\n      pop\n      pop\n      pop\n      pop\n      mload(0x40)\n      returndatasize\n        /* \"--CODEGEN--\":101:105   */\n      0x1f\n        /* \"--CODEGEN--\":97:106   */\n      not\n        /* \"--CODEGEN--\":90:94   */\n      0x1f\n        /* \"--CODEGEN--\":84:88   */\n      dup3\n        /* \"--CODEGEN--\":80:95   */\n      add\n        /* \"--CODEGEN--\":76:107   */\n      and\n        /* \"--CODEGEN--\":69:74   */\n      dup3\n        /* \"--CODEGEN--\":65:108   */\n      add\n        /* \"--CODEGEN--\":126:132   */\n      dup1\n        /* \"--CODEGEN--\":120:124   */\n      0x40\n        /* \"--CODEGEN--\":113:133   */\n      mstore\n        /* \"--CODEGEN--\":0:138   */\n      pop\n        /* \"DISNEY/disney.sol\":1951:1989  token.transfer(msg.sender, _numTokens) */\n      dup2\n      add\n      swap1\n      tag_132\n      swap2\n      swap1\n      jump(tag_133)\n    tag_132:\n      pop\n        /* \"DISNEY/disney.sol\":2080:2090  _numTokens */\n      dup4\n        /* \"DISNEY/disney.sol\":2039:2047  Clientes */\n      0x02\n        /* \"DISNEY/disney.sol\":2039:2059  Clientes[msg.sender] */\n      0x00\n        /* \"DISNEY/disney.sol\":2048:2058  msg.sender */\n      caller\n        /* \"DISNEY/disney.sol\":2039:2059  Clientes[msg.sender] */\n      0xffffffffffffffffffffffffffffffffffffffff\n      and\n      0xffffffffffffffffffffffffffffffffffffffff\n      and\n      dup2\n      mstore\n      0x20\n      add\n      swap1\n      dup2\n      mstore\n      0x20\n      add\n      0x00\n      keccak256\n        /* \"DISNEY/disney.sol\":2039:2076  Clientes[msg.sender].tokens_comprados */\n      0x00\n      add\n      0x00\n        /* \"DISNEY/disney.sol\":2039:2090  Clientes[msg.sender].tokens_comprados += _numTokens */\n      dup3\n      dup3\n      sload\n      add\n      swap3\n      pop\n      pop\n      dup2\n      swap1\n      sstore\n      pop\n        /* \"DISNEY/disney.sol\":1214:2097  function CompraTokens(uint _numTokens) public payable {... */\n      pop\n      pop\n      pop\n      pop\n      jump\t// out\n        /* \"DISNEY/disney.sol\":979:1155  function PrecioTokens(uint _numTokens) internal pure returns (uint) {... */\n    tag_117:\n        /* \"DISNEY/disney.sol\":1041:1045  uint */\n      0x00\n        /* \"DISNEY/disney.sol\":1138:1147  0.1 ether */\n      0x016345785d8a0000\n        /* \"DISNEY/disney.sol\":1126:1136  _numTokens */\n      dup3\n        /* \"DISNEY/disney.sol\":1126:1148  _numTokens*(0.1 ether) */\n      mul\n        /* \"DISNEY/disney.sol\":1119:1148  return _numTokens*(0.1 ether) */\n      swap1\n      pop\n        /* \"DISNEY/disney.sol\":979:1155  function PrecioTokens(uint _numTokens) internal pure returns (uint) {... */\n      swap2\n      swap1\n      pop\n      jump\t// out\n        /* \"DISNEY/disney.sol\":89:4873  contract Disney {... */\n    tag_85:\n      dup3\n      dup1\n      sload\n      0x01\n      dup2\n      0x01\n      and\n      iszero\n      0x0100\n      mul\n      sub\n      and\n      0x02\n      swap1\n      div\n      swap1\n      0x00\n      mstore\n      keccak256(0x00, 0x20)\n      swap1\n      0x1f\n      add\n      0x20\n      swap1\n      div\n      dup2\n      add\n      swap3\n      dup3\n      0x1f\n      lt\n      tag_136\n      jumpi\n      dup1\n      mload\n      not(0xff)\n      and\n      dup4\n      dup1\n      add\n      or\n      dup6\n      sstore\n      jump(tag_135)\n    tag_136:\n      dup3\n      dup1\n      add\n      0x01\n      add\n      dup6\n      sstore\n      dup3\n      iszero\n      tag_135\n      jumpi\n      swap2\n      dup3\n      add\n    tag_137:\n      dup3\n      dup2\n      gt\n      iszero\n      tag_138\n      jumpi\n      dup3\n      mload\n      dup3\n      sstore\n      swap2\n      0x20\n      add\n      swap2\n      swap1\n      0x01\n      add\n      swap1\n      jump(tag_137)\n    tag_138:\n    tag_135:\n      pop\n      swap1\n      pop\n      tag_139\n      swap2\n      swap1\n      tag_140\n      jump\t// in\n    tag_139:\n      pop\n      swap1\n      jump\t// out\n    tag_140:\n      tag_141\n      swap2\n      swap1\n    tag_142:\n      dup1\n      dup3\n      gt\n      iszero\n      tag_143\n      jumpi\n      0x00\n      dup2\n      0x00\n      swap1\n      sstore\n      pop\n      0x01\n      add\n      jump(tag_142)\n    tag_143:\n      pop\n      swap1\n      jump\n    tag_141:\n      swap1\n      jump\t// out\n        /* \"--CODEGEN--\":5:135   */\n    tag_145:\n      0x00\n        /* \"--CODEGEN--\":85:91   */\n      dup2\n        /* \"--CODEGEN--\":72:92   */\n      calldataload\n        /* \"--CODEGEN--\":63:92   */\n      swap1\n      pop\n        /* \"--CODEGEN--\":97:130   */\n      tag_147\n        /* \"--CODEGEN--\":124:129   */\n      dup2\n        /* \"--CODEGEN--\":97:130   */\n      jump(tag_148)\n    tag_147:\n        /* \"--CODEGEN--\":57:135   */\n      swap3\n      swap2\n      pop\n      pop\n      jump\n        /* \"--CODEGEN--\":142:270   */\n    tag_149:\n      0x00\n        /* \"--CODEGEN--\":223:229   */\n      dup2\n        /* \"--CODEGEN--\":217:230   */\n      mload\n        /* \"--CODEGEN--\":208:230   */\n      swap1\n      pop\n        /* \"--CODEGEN--\":235:265   */\n      tag_151\n        /* \"--CODEGEN--\":259:264   */\n      dup2\n        /* \"--CODEGEN--\":235:265   */\n      jump(tag_152)\n    tag_151:\n        /* \"--CODEGEN--\":202:270   */\n      swap3\n      swap2\n      pop\n      pop\n      jump\n        /* \"--CODEGEN--\":278:720   */\n    tag_153:\n      0x00\n        /* \"--CODEGEN--\":380:383   */\n      dup3\n        /* \"--CODEGEN--\":373:377   */\n      0x1f\n        /* \"--CODEGEN--\":365:371   */\n      dup4\n        /* \"--CODEGEN--\":361:378   */\n      add\n        /* \"--CODEGEN--\":357:384   */\n      slt\n        /* \"--CODEGEN--\":347:349   */\n      tag_155\n      jumpi\n        /* \"--CODEGEN--\":398:399   */\n      0x00\n        /* \"--CODEGEN--\":395:396   */\n      dup1\n        /* \"--CODEGEN--\":388:400   */\n      revert\n        /* \"--CODEGEN--\":347:349   */\n    tag_155:\n        /* \"--CODEGEN--\":435:441   */\n      dup2\n        /* \"--CODEGEN--\":422:442   */\n      calldataload\n        /* \"--CODEGEN--\":457:522   */\n      tag_156\n        /* \"--CODEGEN--\":472:521   */\n      tag_157\n        /* \"--CODEGEN--\":514:520   */\n      dup3\n        /* \"--CODEGEN--\":472:521   */\n      jump(tag_158)\n    tag_157:\n        /* \"--CODEGEN--\":457:522   */\n      jump(tag_159)\n    tag_156:\n        /* \"--CODEGEN--\":448:522   */\n      swap2\n      pop\n        /* \"--CODEGEN--\":542:548   */\n      dup1\n        /* \"--CODEGEN--\":535:540   */\n      dup3\n        /* \"--CODEGEN--\":528:549   */\n      mstore\n        /* \"--CODEGEN--\":578:582   */\n      0x20\n        /* \"--CODEGEN--\":570:576   */\n      dup4\n        /* \"--CODEGEN--\":566:583   */\n      add\n        /* \"--CODEGEN--\":611:615   */\n      0x20\n        /* \"--CODEGEN--\":604:609   */\n      dup4\n        /* \"--CODEGEN--\":600:616   */\n      add\n        /* \"--CODEGEN--\":646:649   */\n      dup6\n        /* \"--CODEGEN--\":637:643   */\n      dup4\n        /* \"--CODEGEN--\":632:635   */\n      dup4\n        /* \"--CODEGEN--\":628:644   */\n      add\n        /* \"--CODEGEN--\":625:650   */\n      gt\n        /* \"--CODEGEN--\":622:624   */\n      iszero\n      tag_160\n      jumpi\n        /* \"--CODEGEN--\":663:664   */\n      0x00\n        /* \"--CODEGEN--\":660:661   */\n      dup1\n        /* \"--CODEGEN--\":653:665   */\n      revert\n        /* \"--CODEGEN--\":622:624   */\n    tag_160:\n        /* \"--CODEGEN--\":673:714   */\n      tag_161\n        /* \"--CODEGEN--\":707:713   */\n      dup4\n        /* \"--CODEGEN--\":702:705   */\n      dup3\n        /* \"--CODEGEN--\":697:700   */\n      dup5\n        /* \"--CODEGEN--\":673:714   */\n      jump(tag_162)\n    tag_161:\n        /* \"--CODEGEN--\":340:720   */\n      pop\n      pop\n      pop\n      swap3\n      swap2\n      pop\n      pop\n      jump\n        /* \"--CODEGEN--\":728:858   */\n    tag_163:\n      0x00\n        /* \"--CODEGEN--\":808:814   */\n      dup2\n        /* \"--CODEGEN--\":795:815   */\n      calldataload\n        /* \"--CODEGEN--\":786:815   */\n      swap1\n      pop\n        /* \"--CODEGEN--\":820:853   */\n      tag_165\n        /* \"--CODEGEN--\":847:852   */\n      dup2\n        /* \"--CODEGEN--\":820:853   */\n      jump(tag_166)\n    tag_165:\n        /* \"--CODEGEN--\":780:858   */\n      swap3\n      swap2\n      pop\n      pop\n      jump\n        /* \"--CODEGEN--\":865:999   */\n    tag_167:\n      0x00\n        /* \"--CODEGEN--\":949:955   */\n      dup2\n        /* \"--CODEGEN--\":943:956   */\n      mload\n        /* \"--CODEGEN--\":934:956   */\n      swap1\n      pop\n        /* \"--CODEGEN--\":961:994   */\n      tag_169\n        /* \"--CODEGEN--\":988:993   */\n      dup2\n        /* \"--CODEGEN--\":961:994   */\n      jump(tag_166)\n    tag_169:\n        /* \"--CODEGEN--\":928:999   */\n      swap3\n      swap2\n      pop\n      pop\n      jump\n        /* \"--CODEGEN--\":1006:1247   */\n    tag_46:\n      0x00\n        /* \"--CODEGEN--\":1110:1112   */\n      0x20\n        /* \"--CODEGEN--\":1098:1107   */\n      dup3\n        /* \"--CODEGEN--\":1089:1096   */\n      dup5\n        /* \"--CODEGEN--\":1085:1108   */\n      sub\n        /* \"--CODEGEN--\":1081:1113   */\n      slt\n        /* \"--CODEGEN--\":1078:1080   */\n      iszero\n      tag_171\n      jumpi\n        /* \"--CODEGEN--\":1126:1127   */\n      0x00\n        /* \"--CODEGEN--\":1123:1124   */\n      dup1\n        /* \"--CODEGEN--\":1116:1128   */\n      revert\n        /* \"--CODEGEN--\":1078:1080   */\n    tag_171:\n        /* \"--CODEGEN--\":1161:1162   */\n      0x00\n        /* \"--CODEGEN--\":1178:1231   */\n      tag_172\n        /* \"--CODEGEN--\":1223:1230   */\n      dup5\n        /* \"--CODEGEN--\":1214:1220   */\n      dup3\n        /* \"--CODEGEN--\":1203:1212   */\n      dup6\n        /* \"--CODEGEN--\":1199:1221   */\n      add\n        /* \"--CODEGEN--\":1178:1231   */\n      jump(tag_145)\n    tag_172:\n        /* \"--CODEGEN--\":1168:1231   */\n      swap2\n      pop\n        /* \"--CODEGEN--\":1140:1237   */\n      pop\n        /* \"--CODEGEN--\":1072:1247   */\n      swap3\n      swap2\n      pop\n      pop\n      jump\n        /* \"--CODEGEN--\":1254:1511   */\n    tag_133:\n      0x00\n        /* \"--CODEGEN--\":1366:1368   */\n      0x20\n        /* \"--CODEGEN--\":1354:1363   */\n      dup3\n        /* \"--CODEGEN--\":1345:1352   */\n      dup5\n        /* \"--CODEGEN--\":1341:1364   */\n      sub\n        /* \"--CODEGEN--\":1337:1369   */\n      slt\n        /* \"--CODEGEN--\":1334:1336   */\n      iszero\n      tag_174\n      jumpi\n        /* \"--CODEGEN--\":1382:1383   */\n      0x00\n        /* \"--CODEGEN--\":1379:1380   */\n      dup1\n        /* \"--CODEGEN--\":1372:1384   */\n      revert\n        /* \"--CODEGEN--\":1334:1336   */\n    tag_174:\n        /* \"--CODEGEN--\":1417:1418   */\n      0x00\n        /* \"--CODEGEN--\":1434:1495   */\n      tag_175\n        /* \"--CODEGEN--\":1487:1494   */\n      dup5\n        /* \"--CODEGEN--\":1478:1484   */\n      dup3\n        /* \"--CODEGEN--\":1467:1476   */\n      dup6\n        /* \"--CODEGEN--\":1463:1485   */\n      add\n        /* \"--CODEGEN--\":1434:1495   */\n      jump(tag_149)\n    tag_175:\n        /* \"--CODEGEN--\":1424:1495   */\n      swap2\n      pop\n        /* \"--CODEGEN--\":1396:1501   */\n      pop\n        /* \"--CODEGEN--\":1328:1511   */\n      swap3\n      swap2\n      pop\n      pop\n      jump\n        /* \"--CODEGEN--\":1518:1865   */\n    tag_41:\n      0x00\n        /* \"--CODEGEN--\":1632:1634   */\n      0x20\n        /* \"--CODEGEN--\":1620:1629   */\n      dup3\n        /* \"--CODEGEN--\":1611:1618   */\n      dup5\n        /* \"--CODEGEN--\":1607:1630   */\n      sub\n        /* \"--CODEGEN--\":1603:1635   */\n      slt\n        /* \"--CODEGEN--\":1600:1602   */\n      iszero\n      tag_177\n      jumpi\n        /* \"--CODEGEN--\":1648:1649   */\n      0x00\n        /* \"--CODEGEN--\":1645:1646   */\n      dup1\n        /* \"--CODEGEN--\":1638:1650   */\n      revert\n        /* \"--CODEGEN--\":1600:1602   */\n    tag_177:\n        /* \"--CODEGEN--\":1711:1712   */\n      0x00\n        /* \"--CODEGEN--\":1700:1709   */\n      dup3\n        /* \"--CODEGEN--\":1696:1713   */\n      add\n        /* \"--CODEGEN--\":1683:1714   */\n      calldataload\n        /* \"--CODEGEN--\":1734:1752   */\n      0xffffffffffffffff\n        /* \"--CODEGEN--\":1726:1732   */\n      dup2\n        /* \"--CODEGEN--\":1723:1753   */\n      gt\n        /* \"--CODEGEN--\":1720:1722   */\n      iszero\n      tag_178\n      jumpi\n        /* \"--CODEGEN--\":1766:1767   */\n      0x00\n        /* \"--CODEGEN--\":1763:1764   */\n      dup1\n        /* \"--CODEGEN--\":1756:1768   */\n      revert\n        /* \"--CODEGEN--\":1720:1722   */\n    tag_178:\n        /* \"--CODEGEN--\":1786:1849   */\n      tag_179\n        /* \"--CODEGEN--\":1841:1848   */\n      dup5\n        /* \"--CODEGEN--\":1832:1838   */\n      dup3\n        /* \"--CODEGEN--\":1821:1830   */\n      dup6\n        /* \"--CODEGEN--\":1817:1839   */\n      add\n        /* \"--CODEGEN--\":1786:1849   */\n      jump(tag_153)\n    tag_179:\n        /* \"--CODEGEN--\":1776:1849   */\n      swap2\n      pop\n        /* \"--CODEGEN--\":1662:1855   */\n      pop\n        /* \"--CODEGEN--\":1594:1865   */\n      swap3\n      swap2\n      pop\n      pop\n      jump\n        /* \"--CODEGEN--\":1872:2344   */\n    tag_26:\n      0x00\n      dup1\n        /* \"--CODEGEN--\":2003:2005   */\n      0x40\n        /* \"--CODEGEN--\":1991:2000   */\n      dup4\n        /* \"--CODEGEN--\":1982:1989   */\n      dup6\n        /* \"--CODEGEN--\":1978:2001   */\n      sub\n        /* \"--CODEGEN--\":1974:2006   */\n      slt\n        /* \"--CODEGEN--\":1971:1973   */\n      iszero\n      tag_181\n      jumpi\n        /* \"--CODEGEN--\":2019:2020   */\n      0x00\n        /* \"--CODEGEN--\":2016:2017   */\n      dup1\n        /* \"--CODEGEN--\":2009:2021   */\n      revert\n        /* \"--CODEGEN--\":1971:1973   */\n    tag_181:\n        /* \"--CODEGEN--\":2082:2083   */\n      0x00\n        /* \"--CODEGEN--\":2071:2080   */\n      dup4\n        /* \"--CODEGEN--\":2067:2084   */\n      add\n        /* \"--CODEGEN--\":2054:2085   */\n      calldataload\n        /* \"--CODEGEN--\":2105:2123   */\n      0xffffffffffffffff\n        /* \"--CODEGEN--\":2097:2103   */\n      dup2\n        /* \"--CODEGEN--\":2094:2124   */\n      gt\n        /* \"--CODEGEN--\":2091:2093   */\n      iszero\n      tag_182\n      jumpi\n        /* \"--CODEGEN--\":2137:2138   */\n      0x00\n        /* \"--CODEGEN--\":2134:2135   */\n      dup1\n        /* \"--CODEGEN--\":2127:2139   */\n      revert\n        /* \"--CODEGEN--\":2091:2093   */\n    tag_182:\n        /* \"--CODEGEN--\":2157:2220   */\n      tag_183\n        /* \"--CODEGEN--\":2212:2219   */\n      dup6\n        /* \"--CODEGEN--\":2203:2209   */\n      dup3\n        /* \"--CODEGEN--\":2192:2201   */\n      dup7\n        /* \"--CODEGEN--\":2188:2210   */\n      add\n        /* \"--CODEGEN--\":2157:2220   */\n      jump(tag_153)\n    tag_183:\n        /* \"--CODEGEN--\":2147:2220   */\n      swap3\n      pop\n        /* \"--CODEGEN--\":2033:2226   */\n      pop\n        /* \"--CODEGEN--\":2257:2259   */\n      0x20\n        /* \"--CODEGEN--\":2275:2328   */\n      tag_184\n        /* \"--CODEGEN--\":2320:2327   */\n      dup6\n        /* \"--CODEGEN--\":2311:2317   */\n      dup3\n        /* \"--CODEGEN--\":2300:2309   */\n      dup7\n        /* \"--CODEGEN--\":2296:2318   */\n      add\n        /* \"--CODEGEN--\":2275:2328   */\n      jump(tag_163)\n    tag_184:\n        /* \"--CODEGEN--\":2265:2328   */\n      swap2\n      pop\n        /* \"--CODEGEN--\":2236:2334   */\n      pop\n        /* \"--CODEGEN--\":1965:2344   */\n      swap3\n      pop\n      swap3\n      swap1\n      pop\n      jump\n        /* \"--CODEGEN--\":2351:2592   */\n    tag_16:\n      0x00\n        /* \"--CODEGEN--\":2455:2457   */\n      0x20\n        /* \"--CODEGEN--\":2443:2452   */\n      dup3\n        /* \"--CODEGEN--\":2434:2441   */\n      dup5\n        /* \"--CODEGEN--\":2430:2453   */\n      sub\n        /* \"--CODEGEN--\":2426:2458   */\n      slt\n        /* \"--CODEGEN--\":2423:2425   */\n      iszero\n      tag_186\n      jumpi\n        /* \"--CODEGEN--\":2471:2472   */\n      0x00\n        /* \"--CODEGEN--\":2468:2469   */\n      dup1\n        /* \"--CODEGEN--\":2461:2473   */\n      revert\n        /* \"--CODEGEN--\":2423:2425   */\n    tag_186:\n        /* \"--CODEGEN--\":2506:2507   */\n      0x00\n        /* \"--CODEGEN--\":2523:2576   */\n      tag_187\n        /* \"--CODEGEN--\":2568:2575   */\n      dup5\n        /* \"--CODEGEN--\":2559:2565   */\n      dup3\n        /* \"--CODEGEN--\":2548:2557   */\n      dup6\n        /* \"--CODEGEN--\":2544:2566   */\n      add\n        /* \"--CODEGEN--\":2523:2576   */\n      jump(tag_163)\n    tag_187:\n        /* \"--CODEGEN--\":2513:2576   */\n      swap2\n      pop\n        /* \"--CODEGEN--\":2485:2582   */\n      pop\n        /* \"--CODEGEN--\":2417:2592   */\n      swap3\n      swap2\n      pop\n      pop\n      jump\n        /* \"--CODEGEN--\":2599:2862   */\n    tag_97:\n      0x00\n        /* \"--CODEGEN--\":2714:2716   */\n      0x20\n        /* \"--CODEGEN--\":2702:2711   */\n      dup3\n        /* \"--CODEGEN--\":2693:2700   */\n      dup5\n        /* \"--CODEGEN--\":2689:2712   */\n      sub\n        /* \"--CODEGEN--\":2685:2717   */\n      slt\n        /* \"--CODEGEN--\":2682:2684   */\n      iszero\n      tag_189\n      jumpi\n        /* \"--CODEGEN--\":2730:2731   */\n      0x00\n        /* \"--CODEGEN--\":2727:2728   */\n      dup1\n        /* \"--CODEGEN--\":2720:2732   */\n      revert\n        /* \"--CODEGEN--\":2682:2684   */\n    tag_189:\n        /* \"--CODEGEN--\":2765:2766   */\n      0x00\n        /* \"--CODEGEN--\":2782:2846   */\n      tag_190\n        /* \"--CODEGEN--\":2838:2845   */\n      dup5\n        /* \"--CODEGEN--\":2829:2835   */\n      dup3\n        /* \"--CODEGEN--\":2818:2827   */\n      dup6\n        /* \"--CODEGEN--\":2814:2836   */\n      add\n        /* \"--CODEGEN--\":2782:2846   */\n      jump(tag_167)\n    tag_190:\n        /* \"--CODEGEN--\":2772:2846   */\n      swap2\n      pop\n        /* \"--CODEGEN--\":2744:2852   */\n      pop\n        /* \"--CODEGEN--\":2676:2862   */\n      swap3\n      swap2\n      pop\n      pop\n      jump\n        /* \"--CODEGEN--\":2870:3063   */\n    tag_191:\n      0x00\n        /* \"--CODEGEN--\":2991:3057   */\n      tag_193\n        /* \"--CODEGEN--\":3053:3056   */\n      dup4\n        /* \"--CODEGEN--\":3045:3051   */\n      dup4\n        /* \"--CODEGEN--\":2991:3057   */\n      jump(tag_194)\n    tag_193:\n        /* \"--CODEGEN--\":2977:3057   */\n      swap1\n      pop\n        /* \"--CODEGEN--\":2970:3063   */\n      swap3\n      swap2\n      pop\n      pop\n      jump\n        /* \"--CODEGEN--\":3071:3213   */\n    tag_195:\n        /* \"--CODEGEN--\":3162:3207   */\n      tag_197\n        /* \"--CODEGEN--\":3201:3206   */\n      dup2\n        /* \"--CODEGEN--\":3162:3207   */\n      jump(tag_198)\n    tag_197:\n        /* \"--CODEGEN--\":3157:3160   */\n      dup3\n        /* \"--CODEGEN--\":3150:3208   */\n      mstore\n        /* \"--CODEGEN--\":3144:3213   */\n      pop\n      pop\n      jump\n        /* \"--CODEGEN--\":3220:3357   */\n    tag_199:\n        /* \"--CODEGEN--\":3319:3351   */\n      tag_201\n        /* \"--CODEGEN--\":3345:3350   */\n      dup2\n        /* \"--CODEGEN--\":3319:3351   */\n      jump(tag_202)\n    tag_201:\n        /* \"--CODEGEN--\":3314:3317   */\n      dup3\n        /* \"--CODEGEN--\":3307:3352   */\n      mstore\n        /* \"--CODEGEN--\":3301:3357   */\n      pop\n      pop\n      jump\n        /* \"--CODEGEN--\":3364:3477   */\n    tag_203:\n        /* \"--CODEGEN--\":3447:3471   */\n      tag_205\n        /* \"--CODEGEN--\":3465:3470   */\n      dup2\n        /* \"--CODEGEN--\":3447:3471   */\n      jump(tag_206)\n    tag_205:\n        /* \"--CODEGEN--\":3442:3445   */\n      dup3\n        /* \"--CODEGEN--\":3435:3472   */\n      mstore\n        /* \"--CODEGEN--\":3429:3477   */\n      pop\n      pop\n      jump\n        /* \"--CODEGEN--\":3513:4441   */\n    tag_207:\n      0x00\n        /* \"--CODEGEN--\":3678:3742   */\n      tag_209\n        /* \"--CODEGEN--\":3736:3741   */\n      dup3\n        /* \"--CODEGEN--\":3678:3742   */\n      jump(tag_210)\n    tag_209:\n        /* \"--CODEGEN--\":3755:3851   */\n      tag_211\n        /* \"--CODEGEN--\":3844:3850   */\n      dup2\n        /* \"--CODEGEN--\":3839:3842   */\n      dup6\n        /* \"--CODEGEN--\":3755:3851   */\n      jump(tag_212)\n    tag_211:\n        /* \"--CODEGEN--\":3748:3851   */\n      swap4\n      pop\n        /* \"--CODEGEN--\":3874:3877   */\n      dup4\n        /* \"--CODEGEN--\":3916:3920   */\n      0x20\n        /* \"--CODEGEN--\":3908:3914   */\n      dup3\n        /* \"--CODEGEN--\":3904:3921   */\n      mul\n        /* \"--CODEGEN--\":3899:3902   */\n      dup6\n        /* \"--CODEGEN--\":3895:3922   */\n      add\n        /* \"--CODEGEN--\":3943:4009   */\n      tag_213\n        /* \"--CODEGEN--\":4003:4008   */\n      dup6\n        /* \"--CODEGEN--\":3943:4009   */\n      jump(tag_214)\n    tag_213:\n        /* \"--CODEGEN--\":4029:4036   */\n      dup1\n        /* \"--CODEGEN--\":4057:4058   */\n      0x00\n        /* \"--CODEGEN--\":4042:4402   */\n    tag_215:\n        /* \"--CODEGEN--\":4067:4073   */\n      dup6\n        /* \"--CODEGEN--\":4064:4065   */\n      dup2\n        /* \"--CODEGEN--\":4061:4074   */\n      lt\n        /* \"--CODEGEN--\":4042:4402   */\n      iszero\n      tag_217\n      jumpi\n        /* \"--CODEGEN--\":4129:4138   */\n      dup5\n        /* \"--CODEGEN--\":4123:4127   */\n      dup5\n        /* \"--CODEGEN--\":4119:4139   */\n      sub\n        /* \"--CODEGEN--\":4114:4117   */\n      dup10\n        /* \"--CODEGEN--\":4107:4140   */\n      mstore\n        /* \"--CODEGEN--\":4174:4180   */\n      dup2\n        /* \"--CODEGEN--\":4168:4181   */\n      mload\n        /* \"--CODEGEN--\":4196:4280   */\n      tag_218\n        /* \"--CODEGEN--\":4275:4279   */\n      dup6\n        /* \"--CODEGEN--\":4260:4273   */\n      dup3\n        /* \"--CODEGEN--\":4196:4280   */\n      jump(tag_191)\n    tag_218:\n        /* \"--CODEGEN--\":4188:4280   */\n      swap5\n      pop\n        /* \"--CODEGEN--\":4297:4367   */\n      tag_219\n        /* \"--CODEGEN--\":4360:4366   */\n      dup4\n        /* \"--CODEGEN--\":4297:4367   */\n      jump(tag_220)\n    tag_219:\n        /* \"--CODEGEN--\":4287:4367   */\n      swap3\n      pop\n        /* \"--CODEGEN--\":4390:4394   */\n      0x20\n        /* \"--CODEGEN--\":4385:4388   */\n      dup11\n        /* \"--CODEGEN--\":4381:4395   */\n      add\n        /* \"--CODEGEN--\":4374:4395   */\n      swap10\n      pop\n        /* \"--CODEGEN--\":4099:4402   */\n      pop\n        /* \"--CODEGEN--\":4089:4090   */\n      0x01\n        /* \"--CODEGEN--\":4086:4087   */\n      dup2\n        /* \"--CODEGEN--\":4082:4091   */\n      add\n        /* \"--CODEGEN--\":4077:4091   */\n      swap1\n      pop\n        /* \"--CODEGEN--\":4042:4402   */\n      jump(tag_215)\n    tag_217:\n        /* \"--CODEGEN--\":4046:4060   */\n      pop\n        /* \"--CODEGEN--\":4415:4419   */\n      dup3\n        /* \"--CODEGEN--\":4408:4419   */\n      swap8\n      pop\n        /* \"--CODEGEN--\":4432:4435   */\n      dup8\n        /* \"--CODEGEN--\":4425:4435   */\n      swap6\n      pop\n        /* \"--CODEGEN--\":3657:4441   */\n      pop\n      pop\n      pop\n      pop\n      pop\n      swap3\n      swap2\n      pop\n      pop\n      jump\n        /* \"--CODEGEN--\":4449:4553   */\n    tag_221:\n        /* \"--CODEGEN--\":4526:4547   */\n      tag_223\n        /* \"--CODEGEN--\":4541:4546   */\n      dup2\n        /* \"--CODEGEN--\":4526:4547   */\n      jump(tag_224)\n    tag_223:\n        /* \"--CODEGEN--\":4521:4524   */\n      dup3\n        /* \"--CODEGEN--\":4514:4548   */\n      mstore\n        /* \"--CODEGEN--\":4508:4553   */\n      pop\n      pop\n      jump\n        /* \"--CODEGEN--\":4560:4887   */\n    tag_194:\n      0x00\n        /* \"--CODEGEN--\":4662:4701   */\n      tag_226\n        /* \"--CODEGEN--\":4695:4700   */\n      dup3\n        /* \"--CODEGEN--\":4662:4701   */\n      jump(tag_227)\n    tag_226:\n        /* \"--CODEGEN--\":4713:4774   */\n      tag_228\n        /* \"--CODEGEN--\":4767:4773   */\n      dup2\n        /* \"--CODEGEN--\":4762:4765   */\n      dup6\n        /* \"--CODEGEN--\":4713:4774   */\n      jump(tag_229)\n    tag_228:\n        /* \"--CODEGEN--\":4706:4774   */\n      swap4\n      pop\n        /* \"--CODEGEN--\":4779:4831   */\n      tag_230\n        /* \"--CODEGEN--\":4824:4830   */\n      dup2\n        /* \"--CODEGEN--\":4819:4822   */\n      dup6\n        /* \"--CODEGEN--\":4812:4816   */\n      0x20\n        /* \"--CODEGEN--\":4805:4810   */\n      dup7\n        /* \"--CODEGEN--\":4801:4817   */\n      add\n        /* \"--CODEGEN--\":4779:4831   */\n      jump(tag_231)\n    tag_230:\n        /* \"--CODEGEN--\":4852:4881   */\n      tag_232\n        /* \"--CODEGEN--\":4874:4880   */\n      dup2\n        /* \"--CODEGEN--\":4852:4881   */\n      jump(tag_233)\n    tag_232:\n        /* \"--CODEGEN--\":4847:4850   */\n      dup5\n        /* \"--CODEGEN--\":4843:4882   */\n      add\n        /* \"--CODEGEN--\":4836:4882   */\n      swap2\n      pop\n        /* \"--CODEGEN--\":4642:4887   */\n      pop\n      swap3\n      swap2\n      pop\n      pop\n      jump\n        /* \"--CODEGEN--\":4894:5241   */\n    tag_234:\n      0x00\n        /* \"--CODEGEN--\":5006:5045   */\n      tag_236\n        /* \"--CODEGEN--\":5039:5044   */\n      dup3\n        /* \"--CODEGEN--\":5006:5045   */\n      jump(tag_227)\n    tag_236:\n        /* \"--CODEGEN--\":5057:5128   */\n      tag_237\n        /* \"--CODEGEN--\":5121:5127   */\n      dup2\n        /* \"--CODEGEN--\":5116:5119   */\n      dup6\n        /* \"--CODEGEN--\":5057:5128   */\n      jump(tag_238)\n    tag_237:\n        /* \"--CODEGEN--\":5050:5128   */\n      swap4\n      pop\n        /* \"--CODEGEN--\":5133:5185   */\n      tag_239\n        /* \"--CODEGEN--\":5178:5184   */\n      dup2\n        /* \"--CODEGEN--\":5173:5176   */\n      dup6\n        /* \"--CODEGEN--\":5166:5170   */\n      0x20\n        /* \"--CODEGEN--\":5159:5164   */\n      dup7\n        /* \"--CODEGEN--\":5155:5171   */\n      add\n        /* \"--CODEGEN--\":5133:5185   */\n      jump(tag_231)\n    tag_239:\n        /* \"--CODEGEN--\":5206:5235   */\n      tag_240\n        /* \"--CODEGEN--\":5228:5234   */\n      dup2\n        /* \"--CODEGEN--\":5206:5235   */\n      jump(tag_233)\n    tag_240:\n        /* \"--CODEGEN--\":5201:5204   */\n      dup5\n        /* \"--CODEGEN--\":5197:5236   */\n      add\n        /* \"--CODEGEN--\":5190:5236   */\n      swap2\n      pop\n        /* \"--CODEGEN--\":4986:5241   */\n      pop\n      swap3\n      swap2\n      pop\n      pop\n      jump\n        /* \"--CODEGEN--\":5248:5608   */\n    tag_241:\n      0x00\n        /* \"--CODEGEN--\":5378:5417   */\n      tag_243\n        /* \"--CODEGEN--\":5411:5416   */\n      dup3\n        /* \"--CODEGEN--\":5378:5417   */\n      jump(tag_227)\n    tag_243:\n        /* \"--CODEGEN--\":5429:5518   */\n      tag_244\n        /* \"--CODEGEN--\":5511:5517   */\n      dup2\n        /* \"--CODEGEN--\":5506:5509   */\n      dup6\n        /* \"--CODEGEN--\":5429:5518   */\n      jump(tag_245)\n    tag_244:\n        /* \"--CODEGEN--\":5422:5518   */\n      swap4\n      pop\n        /* \"--CODEGEN--\":5523:5575   */\n      tag_246\n        /* \"--CODEGEN--\":5568:5574   */\n      dup2\n        /* \"--CODEGEN--\":5563:5566   */\n      dup6\n        /* \"--CODEGEN--\":5556:5560   */\n      0x20\n        /* \"--CODEGEN--\":5549:5554   */\n      dup7\n        /* \"--CODEGEN--\":5545:5561   */\n      add\n        /* \"--CODEGEN--\":5523:5575   */\n      jump(tag_231)\n    tag_246:\n        /* \"--CODEGEN--\":5596:5602   */\n      dup1\n        /* \"--CODEGEN--\":5591:5594   */\n      dup5\n        /* \"--CODEGEN--\":5587:5603   */\n      add\n        /* \"--CODEGEN--\":5580:5603   */\n      swap2\n      pop\n        /* \"--CODEGEN--\":5358:5608   */\n      pop\n      swap3\n      swap2\n      pop\n      pop\n      jump\n        /* \"--CODEGEN--\":5616:5999   */\n    tag_247:\n      0x00\n        /* \"--CODEGEN--\":5776:5843   */\n      tag_249\n        /* \"--CODEGEN--\":5840:5842   */\n      0x2e\n        /* \"--CODEGEN--\":5835:5838   */\n      dup4\n        /* \"--CODEGEN--\":5776:5843   */\n      jump(tag_238)\n    tag_249:\n        /* \"--CODEGEN--\":5769:5843   */\n      swap2\n      pop\n        /* \"--CODEGEN--\":5876:5910   */\n      0x4e6f207469656e6573207065726d69736f73207061726120656a656375746172\n        /* \"--CODEGEN--\":5872:5873   */\n      0x00\n        /* \"--CODEGEN--\":5867:5870   */\n      dup4\n        /* \"--CODEGEN--\":5863:5874   */\n      add\n        /* \"--CODEGEN--\":5856:5911   */\n      mstore\n        /* \"--CODEGEN--\":5945:5961   */\n      0x20657374612066756e63696f6e2e000000000000000000000000000000000000\n        /* \"--CODEGEN--\":5940:5942   */\n      0x20\n        /* \"--CODEGEN--\":5935:5938   */\n      dup4\n        /* \"--CODEGEN--\":5931:5943   */\n      add\n        /* \"--CODEGEN--\":5924:5962   */\n      mstore\n        /* \"--CODEGEN--\":5990:5992   */\n      0x40\n        /* \"--CODEGEN--\":5985:5988   */\n      dup3\n        /* \"--CODEGEN--\":5981:5993   */\n      add\n        /* \"--CODEGEN--\":5974:5993   */\n      swap1\n      pop\n        /* \"--CODEGEN--\":5762:5999   */\n      swap2\n      swap1\n      pop\n      jump\n        /* \"--CODEGEN--\":6008:6387   */\n    tag_250:\n      0x00\n        /* \"--CODEGEN--\":6168:6235   */\n      tag_252\n        /* \"--CODEGEN--\":6232:6234   */\n      0x2a\n        /* \"--CODEGEN--\":6227:6230   */\n      dup4\n        /* \"--CODEGEN--\":6168:6235   */\n      jump(tag_238)\n    tag_252:\n        /* \"--CODEGEN--\":6161:6235   */\n      swap2\n      pop\n        /* \"--CODEGEN--\":6268:6302   */\n      0x436f6d707261206d656e6f7320546f6b656e73206f207061676120636f6e206d\n        /* \"--CODEGEN--\":6264:6265   */\n      0x00\n        /* \"--CODEGEN--\":6259:6262   */\n      dup4\n        /* \"--CODEGEN--\":6255:6266   */\n      add\n        /* \"--CODEGEN--\":6248:6303   */\n      mstore\n        /* \"--CODEGEN--\":6337:6349   */\n      0x6173206574686572732e00000000000000000000000000000000000000000000\n        /* \"--CODEGEN--\":6332:6334   */\n      0x20\n        /* \"--CODEGEN--\":6327:6330   */\n      dup4\n        /* \"--CODEGEN--\":6323:6335   */\n      add\n        /* \"--CODEGEN--\":6316:6350   */\n      mstore\n        /* \"--CODEGEN--\":6378:6380   */\n      0x40\n        /* \"--CODEGEN--\":6373:6376   */\n      dup3\n        /* \"--CODEGEN--\":6369:6381   */\n      add\n        /* \"--CODEGEN--\":6362:6381   */\n      swap1\n      pop\n        /* \"--CODEGEN--\":6154:6387   */\n      swap2\n      swap1\n      pop\n      jump\n        /* \"--CODEGEN--\":6396:6728   */\n    tag_253:\n      0x00\n        /* \"--CODEGEN--\":6556:6623   */\n      tag_255\n        /* \"--CODEGEN--\":6620:6622   */\n      0x20\n        /* \"--CODEGEN--\":6615:6618   */\n      dup4\n        /* \"--CODEGEN--\":6556:6623   */\n      jump(tag_238)\n    tag_255:\n        /* \"--CODEGEN--\":6549:6623   */\n      swap2\n      pop\n        /* \"--CODEGEN--\":6656:6690   */\n      0x436f6d70726120756e206e756d65726f206d656e6f7220646520546f6b656e73\n        /* \"--CODEGEN--\":6652:6653   */\n      0x00\n        /* \"--CODEGEN--\":6647:6650   */\n      dup4\n        /* \"--CODEGEN--\":6643:6654   */\n      add\n        /* \"--CODEGEN--\":6636:6691   */\n      mstore\n        /* \"--CODEGEN--\":6719:6721   */\n      0x20\n        /* \"--CODEGEN--\":6714:6717   */\n      dup3\n        /* \"--CODEGEN--\":6710:6722   */\n      add\n        /* \"--CODEGEN--\":6703:6722   */\n      swap1\n      pop\n        /* \"--CODEGEN--\":6542:6728   */\n      swap2\n      swap1\n      pop\n      jump\n        /* \"--CODEGEN--\":6736:6849   */\n    tag_256:\n        /* \"--CODEGEN--\":6819:6843   */\n      tag_258\n        /* \"--CODEGEN--\":6837:6842   */\n      dup2\n        /* \"--CODEGEN--\":6819:6843   */\n      jump(tag_259)\n    tag_258:\n        /* \"--CODEGEN--\":6814:6817   */\n      dup3\n        /* \"--CODEGEN--\":6807:6844   */\n      mstore\n        /* \"--CODEGEN--\":6801:6849   */\n      pop\n      pop\n      jump\n        /* \"--CODEGEN--\":6856:7122   */\n    tag_83:\n      0x00\n        /* \"--CODEGEN--\":7002:7097   */\n      tag_261\n        /* \"--CODEGEN--\":7093:7096   */\n      dup3\n        /* \"--CODEGEN--\":7084:7090   */\n      dup5\n        /* \"--CODEGEN--\":7002:7097   */\n      jump(tag_241)\n    tag_261:\n        /* \"--CODEGEN--\":6995:7097   */\n      swap2\n      pop\n        /* \"--CODEGEN--\":7114:7117   */\n      dup2\n        /* \"--CODEGEN--\":7107:7117   */\n      swap1\n      pop\n        /* \"--CODEGEN--\":6983:7122   */\n      swap3\n      swap2\n      pop\n      pop\n      jump\n        /* \"--CODEGEN--\":7129:7342   */\n    tag_92:\n      0x00\n        /* \"--CODEGEN--\":7247:7249   */\n      0x20\n        /* \"--CODEGEN--\":7236:7245   */\n      dup3\n        /* \"--CODEGEN--\":7232:7250   */\n      add\n        /* \"--CODEGEN--\":7224:7250   */\n      swap1\n      pop\n        /* \"--CODEGEN--\":7261:7332   */\n      tag_263\n        /* \"--CODEGEN--\":7329:7330   */\n      0x00\n        /* \"--CODEGEN--\":7318:7327   */\n      dup4\n        /* \"--CODEGEN--\":7314:7331   */\n      add\n        /* \"--CODEGEN--\":7305:7311   */\n      dup5\n        /* \"--CODEGEN--\":7261:7332   */\n      jump(tag_203)\n    tag_263:\n        /* \"--CODEGEN--\":7218:7342   */\n      swap3\n      swap2\n      pop\n      pop\n      jump\n        /* \"--CODEGEN--\":7349:7578   */\n    tag_110:\n      0x00\n        /* \"--CODEGEN--\":7475:7477   */\n      0x20\n        /* \"--CODEGEN--\":7464:7473   */\n      dup3\n        /* \"--CODEGEN--\":7460:7478   */\n      add\n        /* \"--CODEGEN--\":7452:7478   */\n      swap1\n      pop\n        /* \"--CODEGEN--\":7489:7568   */\n      tag_265\n        /* \"--CODEGEN--\":7565:7566   */\n      0x00\n        /* \"--CODEGEN--\":7554:7563   */\n      dup4\n        /* \"--CODEGEN--\":7550:7567   */\n      add\n        /* \"--CODEGEN--\":7541:7547   */\n      dup5\n        /* \"--CODEGEN--\":7489:7568   */\n      jump(tag_195)\n    tag_265:\n        /* \"--CODEGEN--\":7446:7578   */\n      swap3\n      swap2\n      pop\n      pop\n      jump\n        /* \"--CODEGEN--\":7585:7830   */\n    tag_37:\n      0x00\n        /* \"--CODEGEN--\":7719:7721   */\n      0x20\n        /* \"--CODEGEN--\":7708:7717   */\n      dup3\n        /* \"--CODEGEN--\":7704:7722   */\n      add\n        /* \"--CODEGEN--\":7696:7722   */\n      swap1\n      pop\n        /* \"--CODEGEN--\":7733:7820   */\n      tag_267\n        /* \"--CODEGEN--\":7817:7818   */\n      0x00\n        /* \"--CODEGEN--\":7806:7815   */\n      dup4\n        /* \"--CODEGEN--\":7802:7819   */\n      add\n        /* \"--CODEGEN--\":7793:7799   */\n      dup5\n        /* \"--CODEGEN--\":7733:7820   */\n      jump(tag_199)\n    tag_267:\n        /* \"--CODEGEN--\":7690:7830   */\n      swap3\n      swap2\n      pop\n      pop\n      jump\n        /* \"--CODEGEN--\":7837:8177   */\n    tag_128:\n      0x00\n        /* \"--CODEGEN--\":7991:7993   */\n      0x40\n        /* \"--CODEGEN--\":7980:7989   */\n      dup3\n        /* \"--CODEGEN--\":7976:7994   */\n      add\n        /* \"--CODEGEN--\":7968:7994   */\n      swap1\n      pop\n        /* \"--CODEGEN--\":8005:8084   */\n      tag_269\n        /* \"--CODEGEN--\":8081:8082   */\n      0x00\n        /* \"--CODEGEN--\":8070:8079   */\n      dup4\n        /* \"--CODEGEN--\":8066:8083   */\n      add\n        /* \"--CODEGEN--\":8057:8063   */\n      dup6\n        /* \"--CODEGEN--\":8005:8084   */\n      jump(tag_195)\n    tag_269:\n        /* \"--CODEGEN--\":8095:8167   */\n      tag_270\n        /* \"--CODEGEN--\":8163:8165   */\n      0x20\n        /* \"--CODEGEN--\":8152:8161   */\n      dup4\n        /* \"--CODEGEN--\":8148:8166   */\n      add\n        /* \"--CODEGEN--\":8139:8145   */\n      dup5\n        /* \"--CODEGEN--\":8095:8167   */\n      jump(tag_256)\n    tag_270:\n        /* \"--CODEGEN--\":7962:8177   */\n      swap4\n      swap3\n      pop\n      pop\n      pop\n      jump\n        /* \"--CODEGEN--\":8184:8585   */\n    tag_22:\n      0x00\n        /* \"--CODEGEN--\":8372:8374   */\n      0x20\n        /* \"--CODEGEN--\":8361:8370   */\n      dup3\n        /* \"--CODEGEN--\":8357:8375   */\n      add\n        /* \"--CODEGEN--\":8349:8375   */\n      swap1\n      pop\n        /* \"--CODEGEN--\":8422:8431   */\n      dup2\n        /* \"--CODEGEN--\":8416:8420   */\n      dup2\n        /* \"--CODEGEN--\":8412:8432   */\n      sub\n        /* \"--CODEGEN--\":8408:8409   */\n      0x00\n        /* \"--CODEGEN--\":8397:8406   */\n      dup4\n        /* \"--CODEGEN--\":8393:8410   */\n      add\n        /* \"--CODEGEN--\":8386:8433   */\n      mstore\n        /* \"--CODEGEN--\":8447:8575   */\n      tag_272\n        /* \"--CODEGEN--\":8570:8574   */\n      dup2\n        /* \"--CODEGEN--\":8561:8567   */\n      dup5\n        /* \"--CODEGEN--\":8447:8575   */\n      jump(tag_207)\n    tag_272:\n        /* \"--CODEGEN--\":8439:8575   */\n      swap1\n      pop\n        /* \"--CODEGEN--\":8343:8585   */\n      swap3\n      swap2\n      pop\n      pop\n      jump\n        /* \"--CODEGEN--\":8592:8893   */\n    tag_104:\n      0x00\n        /* \"--CODEGEN--\":8730:8732   */\n      0x20\n        /* \"--CODEGEN--\":8719:8728   */\n      dup3\n        /* \"--CODEGEN--\":8715:8733   */\n      add\n        /* \"--CODEGEN--\":8707:8733   */\n      swap1\n      pop\n        /* \"--CODEGEN--\":8780:8789   */\n      dup2\n        /* \"--CODEGEN--\":8774:8778   */\n      dup2\n        /* \"--CODEGEN--\":8770:8790   */\n      sub\n        /* \"--CODEGEN--\":8766:8767   */\n      0x00\n        /* \"--CODEGEN--\":8755:8764   */\n      dup4\n        /* \"--CODEGEN--\":8751:8768   */\n      add\n        /* \"--CODEGEN--\":8744:8791   */\n      mstore\n        /* \"--CODEGEN--\":8805:8883   */\n      tag_274\n        /* \"--CODEGEN--\":8878:8882   */\n      dup2\n        /* \"--CODEGEN--\":8869:8875   */\n      dup5\n        /* \"--CODEGEN--\":8805:8883   */\n      jump(tag_234)\n    tag_274:\n        /* \"--CODEGEN--\":8797:8883   */\n      swap1\n      pop\n        /* \"--CODEGEN--\":8701:8893   */\n      swap3\n      swap2\n      pop\n      pop\n      jump\n        /* \"--CODEGEN--\":8900:9312   */\n    tag_89:\n      0x00\n        /* \"--CODEGEN--\":9066:9068   */\n      0x40\n        /* \"--CODEGEN--\":9055:9064   */\n      dup3\n        /* \"--CODEGEN--\":9051:9069   */\n      add\n        /* \"--CODEGEN--\":9043:9069   */\n      swap1\n      pop\n        /* \"--CODEGEN--\":9116:9125   */\n      dup2\n        /* \"--CODEGEN--\":9110:9114   */\n      dup2\n        /* \"--CODEGEN--\":9106:9126   */\n      sub\n        /* \"--CODEGEN--\":9102:9103   */\n      0x00\n        /* \"--CODEGEN--\":9091:9100   */\n      dup4\n        /* \"--CODEGEN--\":9087:9104   */\n      add\n        /* \"--CODEGEN--\":9080:9127   */\n      mstore\n        /* \"--CODEGEN--\":9141:9219   */\n      tag_276\n        /* \"--CODEGEN--\":9214:9218   */\n      dup2\n        /* \"--CODEGEN--\":9205:9211   */\n      dup6\n        /* \"--CODEGEN--\":9141:9219   */\n      jump(tag_234)\n    tag_276:\n        /* \"--CODEGEN--\":9133:9219   */\n      swap1\n      pop\n        /* \"--CODEGEN--\":9230:9302   */\n      tag_277\n        /* \"--CODEGEN--\":9298:9300   */\n      0x20\n        /* \"--CODEGEN--\":9287:9296   */\n      dup4\n        /* \"--CODEGEN--\":9283:9301   */\n      add\n        /* \"--CODEGEN--\":9274:9280   */\n      dup5\n        /* \"--CODEGEN--\":9230:9302   */\n      jump(tag_256)\n    tag_277:\n        /* \"--CODEGEN--\":9037:9312   */\n      swap4\n      swap3\n      pop\n      pop\n      pop\n      jump\n        /* \"--CODEGEN--\":9319:9830   */\n    tag_54:\n      0x00\n        /* \"--CODEGEN--\":9507:9509   */\n      0x60\n        /* \"--CODEGEN--\":9496:9505   */\n      dup3\n        /* \"--CODEGEN--\":9492:9510   */\n      add\n        /* \"--CODEGEN--\":9484:9510   */\n      swap1\n      pop\n        /* \"--CODEGEN--\":9557:9566   */\n      dup2\n        /* \"--CODEGEN--\":9551:9555   */\n      dup2\n        /* \"--CODEGEN--\":9547:9567   */\n      sub\n        /* \"--CODEGEN--\":9543:9544   */\n      0x00\n        /* \"--CODEGEN--\":9532:9541   */\n      dup4\n        /* \"--CODEGEN--\":9528:9545   */\n      add\n        /* \"--CODEGEN--\":9521:9568   */\n      mstore\n        /* \"--CODEGEN--\":9582:9660   */\n      tag_279\n        /* \"--CODEGEN--\":9655:9659   */\n      dup2\n        /* \"--CODEGEN--\":9646:9652   */\n      dup7\n        /* \"--CODEGEN--\":9582:9660   */\n      jump(tag_234)\n    tag_279:\n        /* \"--CODEGEN--\":9574:9660   */\n      swap1\n      pop\n        /* \"--CODEGEN--\":9671:9743   */\n      tag_280\n        /* \"--CODEGEN--\":9739:9741   */\n      0x20\n        /* \"--CODEGEN--\":9728:9737   */\n      dup4\n        /* \"--CODEGEN--\":9724:9742   */\n      add\n        /* \"--CODEGEN--\":9715:9721   */\n      dup6\n        /* \"--CODEGEN--\":9671:9743   */\n      jump(tag_256)\n    tag_280:\n        /* \"--CODEGEN--\":9754:9820   */\n      tag_281\n        /* \"--CODEGEN--\":9816:9818   */\n      0x40\n        /* \"--CODEGEN--\":9805:9814   */\n      dup4\n        /* \"--CODEGEN--\":9801:9819   */\n      add\n        /* \"--CODEGEN--\":9792:9798   */\n      dup5\n        /* \"--CODEGEN--\":9754:9820   */\n      jump(tag_221)\n    tag_281:\n        /* \"--CODEGEN--\":9478:9830   */\n      swap5\n      swap4\n      pop\n      pop\n      pop\n      pop\n      jump\n        /* \"--CODEGEN--\":9837:10244   */\n    tag_65:\n      0x00\n        /* \"--CODEGEN--\":10028:10030   */\n      0x20\n        /* \"--CODEGEN--\":10017:10026   */\n      dup3\n        /* \"--CODEGEN--\":10013:10031   */\n      add\n        /* \"--CODEGEN--\":10005:10031   */\n      swap1\n      pop\n        /* \"--CODEGEN--\":10078:10087   */\n      dup2\n        /* \"--CODEGEN--\":10072:10076   */\n      dup2\n        /* \"--CODEGEN--\":10068:10088   */\n      sub\n        /* \"--CODEGEN--\":10064:10065   */\n      0x00\n        /* \"--CODEGEN--\":10053:10062   */\n      dup4\n        /* \"--CODEGEN--\":10049:10066   */\n      add\n        /* \"--CODEGEN--\":10042:10089   */\n      mstore\n        /* \"--CODEGEN--\":10103:10234   */\n      tag_283\n        /* \"--CODEGEN--\":10229:10233   */\n      dup2\n        /* \"--CODEGEN--\":10103:10234   */\n      jump(tag_247)\n    tag_283:\n        /* \"--CODEGEN--\":10095:10234   */\n      swap1\n      pop\n        /* \"--CODEGEN--\":9999:10244   */\n      swap2\n      swap1\n      pop\n      jump\n        /* \"--CODEGEN--\":10251:10658   */\n    tag_120:\n      0x00\n        /* \"--CODEGEN--\":10442:10444   */\n      0x20\n        /* \"--CODEGEN--\":10431:10440   */\n      dup3\n        /* \"--CODEGEN--\":10427:10445   */\n      add\n        /* \"--CODEGEN--\":10419:10445   */\n      swap1\n      pop\n        /* \"--CODEGEN--\":10492:10501   */\n      dup2\n        /* \"--CODEGEN--\":10486:10490   */\n      dup2\n        /* \"--CODEGEN--\":10482:10502   */\n      sub\n        /* \"--CODEGEN--\":10478:10479   */\n      0x00\n        /* \"--CODEGEN--\":10467:10476   */\n      dup4\n        /* \"--CODEGEN--\":10463:10480   */\n      add\n        /* \"--CODEGEN--\":10456:10503   */\n      mstore\n        /* \"--CODEGEN--\":10517:10648   */\n      tag_285\n        /* \"--CODEGEN--\":10643:10647   */\n      dup2\n        /* \"--CODEGEN--\":10517:10648   */\n      jump(tag_250)\n    tag_285:\n        /* \"--CODEGEN--\":10509:10648   */\n      swap1\n      pop\n        /* \"--CODEGEN--\":10413:10658   */\n      swap2\n      swap1\n      pop\n      jump\n        /* \"--CODEGEN--\":10665:11072   */\n    tag_126:\n      0x00\n        /* \"--CODEGEN--\":10856:10858   */\n      0x20\n        /* \"--CODEGEN--\":10845:10854   */\n      dup3\n        /* \"--CODEGEN--\":10841:10859   */\n      add\n        /* \"--CODEGEN--\":10833:10859   */\n      swap1\n      pop\n        /* \"--CODEGEN--\":10906:10915   */\n      dup2\n        /* \"--CODEGEN--\":10900:10904   */\n      dup2\n        /* \"--CODEGEN--\":10896:10916   */\n      sub\n        /* \"--CODEGEN--\":10892:10893   */\n      0x00\n        /* \"--CODEGEN--\":10881:10890   */\n      dup4\n        /* \"--CODEGEN--\":10877:10894   */\n      add\n        /* \"--CODEGEN--\":10870:10917   */\n      mstore\n        /* \"--CODEGEN--\":10931:11062   */\n      tag_287\n        /* \"--CODEGEN--\":11057:11061   */\n      dup2\n        /* \"--CODEGEN--\":10931:11062   */\n      jump(tag_253)\n    tag_287:\n        /* \"--CODEGEN--\":10923:11062   */\n      swap1\n      pop\n        /* \"--CODEGEN--\":10827:11072   */\n      swap2\n      swap1\n      pop\n      jump\n        /* \"--CODEGEN--\":11079:11292   */\n    tag_32:\n      0x00\n        /* \"--CODEGEN--\":11197:11199   */\n      0x20\n        /* \"--CODEGEN--\":11186:11195   */\n      dup3\n        /* \"--CODEGEN--\":11182:11200   */\n      add\n        /* \"--CODEGEN--\":11174:11200   */\n      swap1\n      pop\n        /* \"--CODEGEN--\":11211:11282   */\n      tag_289\n        /* \"--CODEGEN--\":11279:11280   */\n      0x00\n        /* \"--CODEGEN--\":11268:11277   */\n      dup4\n        /* \"--CODEGEN--\":11264:11281   */\n      add\n        /* \"--CODEGEN--\":11255:11261   */\n      dup5\n        /* \"--CODEGEN--\":11211:11282   */\n      jump(tag_256)\n    tag_289:\n        /* \"--CODEGEN--\":11168:11292   */\n      swap3\n      swap2\n      pop\n      pop\n      jump\n        /* \"--CODEGEN--\":11299:11555   */\n    tag_159:\n      0x00\n        /* \"--CODEGEN--\":11361:11363   */\n      0x40\n        /* \"--CODEGEN--\":11355:11364   */\n      mload\n        /* \"--CODEGEN--\":11345:11364   */\n      swap1\n      pop\n        /* \"--CODEGEN--\":11399:11403   */\n      dup2\n        /* \"--CODEGEN--\":11391:11397   */\n      dup2\n        /* \"--CODEGEN--\":11387:11404   */\n      add\n        /* \"--CODEGEN--\":11498:11504   */\n      dup2\n        /* \"--CODEGEN--\":11486:11496   */\n      dup2\n        /* \"--CODEGEN--\":11483:11505   */\n      lt\n        /* \"--CODEGEN--\":11462:11480   */\n      0xffffffffffffffff\n        /* \"--CODEGEN--\":11450:11460   */\n      dup3\n        /* \"--CODEGEN--\":11447:11481   */\n      gt\n        /* \"--CODEGEN--\":11444:11506   */\n      or\n        /* \"--CODEGEN--\":11441:11443   */\n      iszero\n      tag_291\n      jumpi\n        /* \"--CODEGEN--\":11519:11520   */\n      0x00\n        /* \"--CODEGEN--\":11516:11517   */\n      dup1\n        /* \"--CODEGEN--\":11509:11521   */\n      revert\n        /* \"--CODEGEN--\":11441:11443   */\n    tag_291:\n        /* \"--CODEGEN--\":11539:11549   */\n      dup1\n        /* \"--CODEGEN--\":11535:11537   */\n      0x40\n        /* \"--CODEGEN--\":11528:11550   */\n      mstore\n        /* \"--CODEGEN--\":11339:11555   */\n      pop\n      swap2\n      swap1\n      pop\n      jump\n        /* \"--CODEGEN--\":11562:11884   */\n    tag_158:\n      0x00\n        /* \"--CODEGEN--\":11706:11724   */\n      0xffffffffffffffff\n        /* \"--CODEGEN--\":11698:11704   */\n      dup3\n        /* \"--CODEGEN--\":11695:11725   */\n      gt\n        /* \"--CODEGEN--\":11692:11694   */\n      iszero\n      tag_293\n      jumpi\n        /* \"--CODEGEN--\":11738:11739   */\n      0x00\n        /* \"--CODEGEN--\":11735:11736   */\n      dup1\n        /* \"--CODEGEN--\":11728:11740   */\n      revert\n        /* \"--CODEGEN--\":11692:11694   */\n    tag_293:\n        /* \"--CODEGEN--\":11805:11809   */\n      0x1f\n        /* \"--CODEGEN--\":11801:11810   */\n      not\n        /* \"--CODEGEN--\":11794:11798   */\n      0x1f\n        /* \"--CODEGEN--\":11786:11792   */\n      dup4\n        /* \"--CODEGEN--\":11782:11799   */\n      add\n        /* \"--CODEGEN--\":11778:11811   */\n      and\n        /* \"--CODEGEN--\":11770:11811   */\n      swap1\n      pop\n        /* \"--CODEGEN--\":11869:11873   */\n      0x20\n        /* \"--CODEGEN--\":11863:11867   */\n      dup2\n        /* \"--CODEGEN--\":11859:11874   */\n      add\n        /* \"--CODEGEN--\":11851:11874   */\n      swap1\n      pop\n        /* \"--CODEGEN--\":11629:11884   */\n      swap2\n      swap1\n      pop\n      jump\n        /* \"--CODEGEN--\":11891:12052   */\n    tag_214:\n      0x00\n        /* \"--CODEGEN--\":11987:11990   */\n      dup2\n        /* \"--CODEGEN--\":11979:11990   */\n      swap1\n      pop\n        /* \"--CODEGEN--\":12025:12029   */\n      0x20\n        /* \"--CODEGEN--\":12020:12023   */\n      dup3\n        /* \"--CODEGEN--\":12016:12030   */\n      add\n        /* \"--CODEGEN--\":12008:12030   */\n      swap1\n      pop\n        /* \"--CODEGEN--\":11973:12052   */\n      swap2\n      swap1\n      pop\n      jump\n        /* \"--CODEGEN--\":12059:12206   */\n    tag_210:\n      0x00\n        /* \"--CODEGEN--\":12178:12183   */\n      dup2\n        /* \"--CODEGEN--\":12172:12184   */\n      mload\n        /* \"--CODEGEN--\":12162:12184   */\n      swap1\n      pop\n        /* \"--CODEGEN--\":12143:12206   */\n      swap2\n      swap1\n      pop\n      jump\n        /* \"--CODEGEN--\":12213:12335   */\n    tag_227:\n      0x00\n        /* \"--CODEGEN--\":12307:12312   */\n      dup2\n        /* \"--CODEGEN--\":12301:12313   */\n      mload\n        /* \"--CODEGEN--\":12291:12313   */\n      swap1\n      pop\n        /* \"--CODEGEN--\":12272:12335   */\n      swap2\n      swap1\n      pop\n      jump\n        /* \"--CODEGEN--\":12342:12460   */\n    tag_220:\n      0x00\n        /* \"--CODEGEN--\":12450:12454   */\n      0x20\n        /* \"--CODEGEN--\":12445:12448   */\n      dup3\n        /* \"--CODEGEN--\":12441:12455   */\n      add\n        /* \"--CODEGEN--\":12433:12455   */\n      swap1\n      pop\n        /* \"--CODEGEN--\":12427:12460   */\n      swap2\n      swap1\n      pop\n      jump\n        /* \"--CODEGEN--\":12468:12656   */\n    tag_212:\n      0x00\n        /* \"--CODEGEN--\":12608:12614   */\n      dup3\n        /* \"--CODEGEN--\":12603:12606   */\n      dup3\n        /* \"--CODEGEN--\":12596:12615   */\n      mstore\n        /* \"--CODEGEN--\":12645:12649   */\n      0x20\n        /* \"--CODEGEN--\":12640:12643   */\n      dup3\n        /* \"--CODEGEN--\":12636:12650   */\n      add\n        /* \"--CODEGEN--\":12621:12650   */\n      swap1\n      pop\n        /* \"--CODEGEN--\":12589:12656   */\n      swap3\n      swap2\n      pop\n      pop\n      jump\n        /* \"--CODEGEN--\":12665:12818   */\n    tag_229:\n      0x00\n        /* \"--CODEGEN--\":12770:12776   */\n      dup3\n        /* \"--CODEGEN--\":12765:12768   */\n      dup3\n        /* \"--CODEGEN--\":12758:12777   */\n      mstore\n        /* \"--CODEGEN--\":12807:12811   */\n      0x20\n        /* \"--CODEGEN--\":12802:12805   */\n      dup3\n        /* \"--CODEGEN--\":12798:12812   */\n      add\n        /* \"--CODEGEN--\":12783:12812   */\n      swap1\n      pop\n        /* \"--CODEGEN--\":12751:12818   */\n      swap3\n      swap2\n      pop\n      pop\n      jump\n        /* \"--CODEGEN--\":12827:12990   */\n    tag_238:\n      0x00\n        /* \"--CODEGEN--\":12942:12948   */\n      dup3\n        /* \"--CODEGEN--\":12937:12940   */\n      dup3\n        /* \"--CODEGEN--\":12930:12949   */\n      mstore\n        /* \"--CODEGEN--\":12979:12983   */\n      0x20\n        /* \"--CODEGEN--\":12974:12977   */\n      dup3\n        /* \"--CODEGEN--\":12970:12984   */\n      add\n        /* \"--CODEGEN--\":12955:12984   */\n      swap1\n      pop\n        /* \"--CODEGEN--\":12923:12990   */\n      swap3\n      swap2\n      pop\n      pop\n      jump\n        /* \"--CODEGEN--\":12999:13144   */\n    tag_245:\n      0x00\n        /* \"--CODEGEN--\":13135:13138   */\n      dup2\n        /* \"--CODEGEN--\":13120:13138   */\n      swap1\n      pop\n        /* \"--CODEGEN--\":13113:13144   */\n      swap3\n      swap2\n      pop\n      pop\n      jump\n        /* \"--CODEGEN--\":13152:13243   */\n    tag_206:\n      0x00\n        /* \"--CODEGEN--\":13214:13238   */\n      tag_303\n        /* \"--CODEGEN--\":13232:13237   */\n      dup3\n        /* \"--CODEGEN--\":13214:13238   */\n      jump(tag_304)\n    tag_303:\n        /* \"--CODEGEN--\":13203:13238   */\n      swap1\n      pop\n        /* \"--CODEGEN--\":13197:13243   */\n      swap2\n      swap1\n      pop\n      jump\n        /* \"--CODEGEN--\":13250:13349   */\n    tag_202:\n      0x00\n        /* \"--CODEGEN--\":13320:13344   */\n      tag_306\n        /* \"--CODEGEN--\":13338:13343   */\n      dup3\n        /* \"--CODEGEN--\":13320:13344   */\n      jump(tag_304)\n    tag_306:\n        /* \"--CODEGEN--\":13309:13344   */\n      swap1\n      pop\n        /* \"--CODEGEN--\":13303:13349   */\n      swap2\n      swap1\n      pop\n      jump\n        /* \"--CODEGEN--\":13356:13441   */\n    tag_224:\n      0x00\n        /* \"--CODEGEN--\":13429:13434   */\n      dup2\n        /* \"--CODEGEN--\":13422:13435   */\n      iszero\n        /* \"--CODEGEN--\":13415:13436   */\n      iszero\n        /* \"--CODEGEN--\":13404:13436   */\n      swap1\n      pop\n        /* \"--CODEGEN--\":13398:13441   */\n      swap2\n      swap1\n      pop\n      jump\n        /* \"--CODEGEN--\":13448:13569   */\n    tag_304:\n      0x00\n        /* \"--CODEGEN--\":13521:13563   */\n      0xffffffffffffffffffffffffffffffffffffffff\n        /* \"--CODEGEN--\":13514:13519   */\n      dup3\n        /* \"--CODEGEN--\":13510:13564   */\n      and\n        /* \"--CODEGEN--\":13499:13564   */\n      swap1\n      pop\n        /* \"--CODEGEN--\":13493:13569   */\n      swap2\n      swap1\n      pop\n      jump\n        /* \"--CODEGEN--\":13576:13648   */\n    tag_259:\n      0x00\n        /* \"--CODEGEN--\":13638:13643   */\n      dup2\n        /* \"--CODEGEN--\":13627:13643   */\n      swap1\n      pop\n        /* \"--CODEGEN--\":13621:13648   */\n      swap2\n      swap1\n      pop\n      jump\n        /* \"--CODEGEN--\":13655:13784   */\n    tag_198:\n      0x00\n        /* \"--CODEGEN--\":13742:13779   */\n      tag_311\n        /* \"--CODEGEN--\":13773:13778   */\n      dup3\n        /* \"--CODEGEN--\":13742:13779   */\n      jump(tag_312)\n    tag_311:\n        /* \"--CODEGEN--\":13729:13779   */\n      swap1\n      pop\n        /* \"--CODEGEN--\":13723:13784   */\n      swap2\n      swap1\n      pop\n      jump\n        /* \"--CODEGEN--\":13791:13912   */\n    tag_312:\n      0x00\n        /* \"--CODEGEN--\":13870:13907   */\n      tag_314\n        /* \"--CODEGEN--\":13901:13906   */\n      dup3\n        /* \"--CODEGEN--\":13870:13907   */\n      jump(tag_315)\n    tag_314:\n        /* \"--CODEGEN--\":13857:13907   */\n      swap1\n      pop\n        /* \"--CODEGEN--\":13851:13912   */\n      swap2\n      swap1\n      pop\n      jump\n        /* \"--CODEGEN--\":13919:14027   */\n    tag_315:\n      0x00\n        /* \"--CODEGEN--\":13998:14022   */\n      tag_317\n        /* \"--CODEGEN--\":14016:14021   */\n      dup3\n        /* \"--CODEGEN--\":13998:14022   */\n      jump(tag_304)\n    tag_317:\n        /* \"--CODEGEN--\":13985:14022   */\n      swap1\n      pop\n        /* \"--CODEGEN--\":13979:14027   */\n      swap2\n      swap1\n      pop\n      jump\n        /* \"--CODEGEN--\":14035:14180   */\n    tag_162:\n        /* \"--CODEGEN--\":14116:14122   */\n      dup3\n        /* \"--CODEGEN--\":14111:14114   */\n      dup2\n        /* \"--CODEGEN--\":14106:14109   */\n      dup4\n        /* \"--CODEGEN--\":14093:14123   */\n      calldatacopy\n        /* \"--CODEGEN--\":14172:14173   */\n      0x00\n        /* \"--CODEGEN--\":14163:14169   */\n      dup4\n        /* \"--CODEGEN--\":14158:14161   */\n      dup4\n        /* \"--CODEGEN--\":14154:14170   */\n      add\n        /* \"--CODEGEN--\":14147:14174   */\n      mstore\n        /* \"--CODEGEN--\":14086:14180   */\n      pop\n      pop\n      pop\n      jump\n        /* \"--CODEGEN--\":14189:14457   */\n    tag_231:\n        /* \"--CODEGEN--\":14254:14255   */\n      0x00\n        /* \"--CODEGEN--\":14261:14362   */\n    tag_320:\n        /* \"--CODEGEN--\":14275:14281   */\n      dup4\n        /* \"--CODEGEN--\":14272:14273   */\n      dup2\n        /* \"--CODEGEN--\":14269:14282   */\n      lt\n        /* \"--CODEGEN--\":14261:14362   */\n      iszero\n      tag_322\n      jumpi\n        /* \"--CODEGEN--\":14351:14352   */\n      dup1\n        /* \"--CODEGEN--\":14346:14349   */\n      dup3\n        /* \"--CODEGEN--\":14342:14353   */\n      add\n        /* \"--CODEGEN--\":14336:14354   */\n      mload\n        /* \"--CODEGEN--\":14332:14333   */\n      dup2\n        /* \"--CODEGEN--\":14327:14330   */\n      dup5\n        /* \"--CODEGEN--\":14323:14334   */\n      add\n        /* \"--CODEGEN--\":14316:14355   */\n      mstore\n        /* \"--CODEGEN--\":14297:14299   */\n      0x20\n        /* \"--CODEGEN--\":14294:14295   */\n      dup2\n        /* \"--CODEGEN--\":14290:14300   */\n      add\n        /* \"--CODEGEN--\":14285:14300   */\n      swap1\n      pop\n        /* \"--CODEGEN--\":14261:14362   */\n      jump(tag_320)\n    tag_322:\n        /* \"--CODEGEN--\":14377:14383   */\n      dup4\n        /* \"--CODEGEN--\":14374:14375   */\n      dup2\n        /* \"--CODEGEN--\":14371:14384   */\n      gt\n        /* \"--CODEGEN--\":14368:14370   */\n      iszero\n      tag_323\n      jumpi\n        /* \"--CODEGEN--\":14442:14443   */\n      0x00\n        /* \"--CODEGEN--\":14433:14439   */\n      dup5\n        /* \"--CODEGEN--\":14428:14431   */\n      dup5\n        /* \"--CODEGEN--\":14424:14440   */\n      add\n        /* \"--CODEGEN--\":14417:14444   */\n      mstore\n        /* \"--CODEGEN--\":14368:14370   */\n    tag_323:\n        /* \"--CODEGEN--\":14238:14457   */\n      pop\n      pop\n      pop\n      pop\n      jump\n        /* \"--CODEGEN--\":14465:14562   */\n    tag_233:\n      0x00\n        /* \"--CODEGEN--\":14553:14555   */\n      0x1f\n        /* \"--CODEGEN--\":14549:14556   */\n      not\n        /* \"--CODEGEN--\":14544:14546   */\n      0x1f\n        /* \"--CODEGEN--\":14537:14542   */\n      dup4\n        /* \"--CODEGEN--\":14533:14547   */\n      add\n        /* \"--CODEGEN--\":14529:14557   */\n      and\n        /* \"--CODEGEN--\":14519:14557   */\n      swap1\n      pop\n        /* \"--CODEGEN--\":14513:14562   */\n      swap2\n      swap1\n      pop\n      jump\n        /* \"--CODEGEN--\":14570:14687   */\n    tag_148:\n        /* \"--CODEGEN--\":14639:14663   */\n      tag_326\n        /* \"--CODEGEN--\":14657:14662   */\n      dup2\n        /* \"--CODEGEN--\":14639:14663   */\n      jump(tag_206)\n    tag_326:\n        /* \"--CODEGEN--\":14632:14637   */\n      dup2\n        /* \"--CODEGEN--\":14629:14664   */\n      eq\n        /* \"--CODEGEN--\":14619:14621   */\n      tag_327\n      jumpi\n        /* \"--CODEGEN--\":14678:14679   */\n      0x00\n        /* \"--CODEGEN--\":14675:14676   */\n      dup1\n        /* \"--CODEGEN--\":14668:14680   */\n      revert\n        /* \"--CODEGEN--\":14619:14621   */\n    tag_327:\n        /* \"--CODEGEN--\":14613:14687   */\n      pop\n      jump\n        /* \"--CODEGEN--\":14694:14805   */\n    tag_152:\n        /* \"--CODEGEN--\":14760:14781   */\n      tag_329\n        /* \"--CODEGEN--\":14775:14780   */\n      dup2\n        /* \"--CODEGEN--\":14760:14781   */\n      jump(tag_224)\n    tag_329:\n        /* \"--CODEGEN--\":14753:14758   */\n      dup2\n        /* \"--CODEGEN--\":14750:14782   */\n      eq\n        /* \"--CODEGEN--\":14740:14742   */\n      tag_330\n      jumpi\n        /* \"--CODEGEN--\":14796:14797   */\n      0x00\n        /* \"--CODEGEN--\":14793:14794   */\n      dup1\n        /* \"--CODEGEN--\":14786:14798   */\n      revert\n        /* \"--CODEGEN--\":14740:14742   */\n    tag_330:\n        /* \"--CODEGEN--\":14734:14805   */\n      pop\n      jump\n        /* \"--CODEGEN--\":14812:14929   */\n    tag_166:\n        /* \"--CODEGEN--\":14881:14905   */\n      tag_332\n        /* \"--CODEGEN--\":14899:14904   */\n      dup2\n        /* \"--CODEGEN--\":14881:14905   */\n      jump(tag_259)\n    tag_332:\n        /* \"--CODEGEN--\":14874:14879   */\n      dup2\n        /* \"--CODEGEN--\":14871:14906   */\n      eq\n        /* \"--CODEGEN--\":14861:14863   */\n      tag_333\n      jumpi\n        /* \"--CODEGEN--\":14920:14921   */\n      0x00\n        /* \"--CODEGEN--\":14917:14918   */\n      dup1\n        /* \"--CODEGEN--\":14910:14922   */\n      revert\n        /* \"--CODEGEN--\":14861:14863   */\n    tag_333:\n        /* \"--CODEGEN--\":14855:14929   */\n      pop\n      jump\n\n    auxdata: 0xa264697066735822122052b2abafa1c12e69ae95015328aa33c02cdb4d631f19628c63887852f8b733ce64736f6c63430006060033\n}\n\nsub_1: assembly {\n        /* \"DISNEY/ERC20.sol\":1773:4016  contract ERC20Basic is IERC20{... */\n      mstore(0x40, 0x80)\n        /* \"DISNEY/ERC20.sol\":2273:2405  constructor (uint256 initialSupply) public{... */\n      callvalue\n        /* \"--CODEGEN--\":5:14   */\n      dup1\n        /* \"--CODEGEN--\":2:4   */\n      iszero\n      tag_1\n      jumpi\n        /* \"--CODEGEN--\":27:28   */\n      0x00\n        /* \"--CODEGEN--\":24:25   */\n      dup1\n        /* \"--CODEGEN--\":17:29   */\n      revert\n        /* \"--CODEGEN--\":2:4   */\n    tag_1:\n        /* \"DISNEY/ERC20.sol\":2273:2405  constructor (uint256 initialSupply) public{... */\n      pop\n      mload(0x40)\n      sub(codesize, bytecodeSize)\n      dup1\n      bytecodeSize\n      dup4\n      codecopy\n      dup2\n      dup2\n      add\n      0x40\n      mstore\n      dup2\n      add\n      swap1\n      tag_2\n      swap2\n      swap1\n      jump(tag_3)\n    tag_2:\n        /* \"DISNEY/ERC20.sol\":2340:2353  initialSupply */\n      dup1\n        /* \"DISNEY/ERC20.sol\":2325:2337  totalSupply_ */\n      0x02\n        /* \"DISNEY/ERC20.sol\":2325:2353  totalSupply_ = initialSupply */\n      dup2\n      swap1\n      sstore\n      pop\n        /* \"DISNEY/ERC20.sol\":2386:2398  totalSupply_ */\n      sload(0x02)\n        /* \"DISNEY/ERC20.sol\":2363:2371  balances */\n      0x00\n        /* \"DISNEY/ERC20.sol\":2363:2383  balances[msg.sender] */\n      dup1\n        /* \"DISNEY/ERC20.sol\":2372:2382  msg.sender */\n      caller\n        /* \"DISNEY/ERC20.sol\":2363:2383  balances[msg.sender] */\n      0xffffffffffffffffffffffffffffffffffffffff\n      and\n      0xffffffffffffffffffffffffffffffffffffffff\n      and\n      dup2\n      mstore\n      0x20\n      add\n      swap1\n      dup2\n      mstore\n      0x20\n      add\n      0x00\n      keccak256\n        /* \"DISNEY/ERC20.sol\":2363:2398  balances[msg.sender] = totalSupply_ */\n      dup2\n      swap1\n      sstore\n      pop\n        /* \"DISNEY/ERC20.sol\":2273:2405  constructor (uint256 initialSupply) public{... */\n      pop\n        /* \"DISNEY/ERC20.sol\":1773:4016  contract ERC20Basic is IERC20{... */\n      jump(tag_6)\n        /* \"--CODEGEN--\":5:139   */\n    tag_8:\n      0x00\n        /* \"--CODEGEN--\":89:95   */\n      dup2\n        /* \"--CODEGEN--\":83:96   */\n      mload\n        /* \"--CODEGEN--\":74:96   */\n      swap1\n      pop\n        /* \"--CODEGEN--\":101:134   */\n      tag_10\n        /* \"--CODEGEN--\":128:133   */\n      dup2\n        /* \"--CODEGEN--\":101:134   */\n      jump(tag_11)\n    tag_10:\n        /* \"--CODEGEN--\":68:139   */\n      swap3\n      swap2\n      pop\n      pop\n      jump\n        /* \"--CODEGEN--\":146:409   */\n    tag_3:\n      0x00\n        /* \"--CODEGEN--\":261:263   */\n      0x20\n        /* \"--CODEGEN--\":249:258   */\n      dup3\n        /* \"--CODEGEN--\":240:247   */\n      dup5\n        /* \"--CODEGEN--\":236:259   */\n      sub\n        /* \"--CODEGEN--\":232:264   */\n      slt\n        /* \"--CODEGEN--\":229:231   */\n      iszero\n      tag_13\n      jumpi\n        /* \"--CODEGEN--\":277:278   */\n      0x00\n        /* \"--CODEGEN--\":274:275   */\n      dup1\n        /* \"--CODEGEN--\":267:279   */\n      revert\n        /* \"--CODEGEN--\":229:231   */\n    tag_13:\n        /* \"--CODEGEN--\":312:313   */\n      0x00\n        /* \"--CODEGEN--\":329:393   */\n      tag_14\n        /* \"--CODEGEN--\":385:392   */\n      dup5\n        /* \"--CODEGEN--\":376:382   */\n      dup3\n        /* \"--CODEGEN--\":365:374   */\n      dup6\n        /* \"--CODEGEN--\":361:383   */\n      add\n        /* \"--CODEGEN--\":329:393   */\n      jump(tag_8)\n    tag_14:\n        /* \"--CODEGEN--\":319:393   */\n      swap2\n      pop\n        /* \"--CODEGEN--\":291:399   */\n      pop\n        /* \"--CODEGEN--\":223:409   */\n      swap3\n      swap2\n      pop\n      pop\n      jump\n        /* \"--CODEGEN--\":416:488   */\n    tag_15:\n      0x00\n        /* \"--CODEGEN--\":478:483   */\n      dup2\n        /* \"--CODEGEN--\":467:483   */\n      swap1\n      pop\n        /* \"--CODEGEN--\":461:488   */\n      swap2\n      swap1\n      pop\n      jump\n        /* \"--CODEGEN--\":495:612   */\n    tag_11:\n        /* \"--CODEGEN--\":564:588   */\n      tag_18\n        /* \"--CODEGEN--\":582:587   */\n      dup2\n        /* \"--CODEGEN--\":564:588   */\n      jump(tag_15)\n    tag_18:\n        /* \"--CODEGEN--\":557:562   */\n      dup2\n        /* \"--CODEGEN--\":554:589   */\n      eq\n        /* \"--CODEGEN--\":544:546   */\n      tag_19\n      jumpi\n        /* \"--CODEGEN--\":603:604   */\n      0x00\n        /* \"--CODEGEN--\":600:601   */\n      dup1\n        /* \"--CODEGEN--\":593:605   */\n      revert\n        /* \"--CODEGEN--\":544:546   */\n    tag_19:\n        /* \"--CODEGEN--\":538:612   */\n      pop\n      jump\n        /* \"DISNEY/ERC20.sol\":1773:4016  contract ERC20Basic is IERC20{... */\n    tag_6:\n      dataSize(sub_0)\n      dup1\n      dataOffset(sub_0)\n      0x00\n      codecopy\n      0x00\n      return\n    stop\n\n    sub_0: assembly {\n            /* \"DISNEY/ERC20.sol\":1773:4016  contract ERC20Basic is IERC20{... */\n          mstore(0x40, 0x80)\n          callvalue\n            /* \"--CODEGEN--\":5:14   */\n          dup1\n            /* \"--CODEGEN--\":2:4   */\n          iszero\n          tag_1\n          jumpi\n            /* \"--CODEGEN--\":27:28   */\n          0x00\n            /* \"--CODEGEN--\":24:25   */\n          dup1\n            /* \"--CODEGEN--\":17:29   */\n          revert\n            /* \"--CODEGEN--\":2:4   */\n        tag_1:\n            /* \"DISNEY/ERC20.sol\":1773:4016  contract ERC20Basic is IERC20{... */\n          pop\n          jumpi(tag_2, lt(calldatasize, 0x04))\n          shr(0xe0, calldataload(0x00))\n          dup1\n          0x313ce567\n          gt\n          tag_13\n          jumpi\n          dup1\n          0x313ce567\n          eq\n          tag_8\n          jumpi\n          dup1\n          0x70a08231\n          eq\n          tag_9\n          jumpi\n          dup1\n          0x95d89b41\n          eq\n          tag_10\n          jumpi\n          dup1\n          0xa9059cbb\n          eq\n          tag_11\n          jumpi\n          dup1\n          0xdd62ed3e\n          eq\n          tag_12\n          jumpi\n          jump(tag_2)\n        tag_13:\n          dup1\n          0x06fdde03\n          eq\n          tag_3\n          jumpi\n          dup1\n          0x095ea7b3\n          eq\n          tag_4\n          jumpi\n          dup1\n          0x18160ddd\n          eq\n          tag_5\n          jumpi\n          dup1\n          0x1d43cc98\n          eq\n          tag_6\n          jumpi\n          dup1\n          0x23b872dd\n          eq\n          tag_7\n          jumpi\n        tag_2:\n            /* \"--CODEGEN--\":12:13   */\n          0x00\n            /* \"--CODEGEN--\":9:10   */\n          dup1\n            /* \"--CODEGEN--\":2:14   */\n          revert\n            /* \"DISNEY/ERC20.sol\":1809:1858  string public constant name = \"ERC20BlockchainAZ\" */\n        tag_3:\n          tag_14\n          tag_15\n          jump\t// in\n        tag_14:\n          mload(0x40)\n          tag_16\n          swap2\n          swap1\n          jump(tag_17)\n        tag_16:\n          mload(0x40)\n          dup1\n          swap2\n          sub\n          swap1\n          return\n            /* \"DISNEY/ERC20.sol\":3310:3529  function approve(address delegate, uint256 numTokens) public override returns (bool){... */\n        tag_4:\n          tag_18\n          0x04\n          dup1\n          calldatasize\n          sub\n          dup2\n          add\n          swap1\n          tag_19\n          swap2\n          swap1\n          jump(tag_20)\n        tag_19:\n          tag_21\n          jump\t// in\n        tag_18:\n          mload(0x40)\n          tag_22\n          swap2\n          swap1\n          jump(tag_23)\n        tag_22:\n          mload(0x40)\n          dup1\n          swap2\n          sub\n          swap1\n          return\n            /* \"DISNEY/ERC20.sol\":2412:2509  function totalSupply() public override view returns (uint256){... */\n        tag_5:\n          tag_24\n          tag_25\n          jump\t// in\n        tag_24:\n          mload(0x40)\n          tag_26\n          swap2\n          swap1\n          jump(tag_27)\n        tag_26:\n          mload(0x40)\n          dup1\n          swap2\n          sub\n          swap1\n          return\n            /* \"DISNEY/ERC20.sol\":2515:2670  function increaseTotalSupply(uint newTokensAmount) public {... */\n        tag_6:\n          tag_28\n          0x04\n          dup1\n          calldatasize\n          sub\n          dup2\n          add\n          swap1\n          tag_29\n          swap2\n          swap1\n          jump(tag_30)\n        tag_29:\n          tag_31\n          jump\t// in\n        tag_28:\n          stop\n            /* \"DISNEY/ERC20.sol\":3535:4014  function transferFrom(address owner, address buyer, uint256 numTokens) public override returns (bool){... */\n        tag_7:\n          tag_32\n          0x04\n          dup1\n          calldatasize\n          sub\n          dup2\n          add\n          swap1\n          tag_33\n          swap2\n          swap1\n          jump(tag_34)\n        tag_33:\n          tag_35\n          jump\t// in\n        tag_32:\n          mload(0x40)\n          tag_36\n          swap2\n          swap1\n          jump(tag_23)\n        tag_36:\n          mload(0x40)\n          dup1\n          swap2\n          sub\n          swap1\n          return\n            /* \"DISNEY/ERC20.sol\":1907:1942  uint8 public constant decimals = 18 */\n        tag_8:\n          tag_37\n          tag_38\n          jump\t// in\n        tag_37:\n          mload(0x40)\n          tag_39\n          swap2\n          swap1\n          jump(tag_40)\n        tag_39:\n          mload(0x40)\n          dup1\n          swap2\n          sub\n          swap1\n          return\n            /* \"DISNEY/ERC20.sol\":2676:2797  function balanceOf(address tokenOwner) public override view returns (uint256){... */\n        tag_9:\n          tag_41\n          0x04\n          dup1\n          calldatasize\n          sub\n          dup2\n          add\n          swap1\n          tag_42\n          swap2\n          swap1\n          jump(tag_43)\n        tag_42:\n          tag_44\n          jump\t// in\n        tag_41:\n          mload(0x40)\n          tag_45\n          swap2\n          swap1\n          jump(tag_27)\n        tag_45:\n          mload(0x40)\n          dup1\n          swap2\n          sub\n          swap1\n          return\n            /* \"DISNEY/ERC20.sol\":1864:1901  string public constant symbol = \"ERC\" */\n        tag_10:\n          tag_46\n          tag_47\n          jump\t// in\n        tag_46:\n          mload(0x40)\n          tag_48\n          swap2\n          swap1\n          jump(tag_17)\n        tag_48:\n          mload(0x40)\n          dup1\n          swap2\n          sub\n          swap1\n          return\n            /* \"DISNEY/ERC20.sol\":2947:3304  function transfer(address recipient, uint256 numTokens) public override returns (bool){... */\n        tag_11:\n          tag_49\n          0x04\n          dup1\n          calldatasize\n          sub\n          dup2\n          add\n          swap1\n          tag_50\n          swap2\n          swap1\n          jump(tag_20)\n        tag_50:\n          tag_51\n          jump\t// in\n        tag_49:\n          mload(0x40)\n          tag_52\n          swap2\n          swap1\n          jump(tag_23)\n        tag_52:\n          mload(0x40)\n          dup1\n          swap2\n          sub\n          swap1\n          return\n            /* \"DISNEY/ERC20.sol\":2803:2941  function allowance(address owner, address delegate) public override view returns (uint256){... */\n        tag_12:\n          tag_53\n          0x04\n          dup1\n          calldatasize\n          sub\n          dup2\n          add\n          swap1\n          tag_54\n          swap2\n          swap1\n          jump(tag_55)\n        tag_54:\n          tag_56\n          jump\t// in\n        tag_53:\n          mload(0x40)\n          tag_57\n          swap2\n          swap1\n          jump(tag_27)\n        tag_57:\n          mload(0x40)\n          dup1\n          swap2\n          sub\n          swap1\n          return\n            /* \"DISNEY/ERC20.sol\":1809:1858  string public constant name = \"ERC20BlockchainAZ\" */\n        tag_15:\n          mload(0x40)\n          dup1\n          0x40\n          add\n          0x40\n          mstore\n          dup1\n          0x11\n          dup2\n          mstore\n          0x20\n          add\n          0x4552433230426c6f636b636861696e415a000000000000000000000000000000\n          dup2\n          mstore\n          pop\n          dup2\n          jump\t// out\n            /* \"DISNEY/ERC20.sol\":3310:3529  function approve(address delegate, uint256 numTokens) public override returns (bool){... */\n        tag_21:\n            /* \"DISNEY/ERC20.sol\":3389:3393  bool */\n          0x00\n            /* \"DISNEY/ERC20.sol\":3436:3445  numTokens */\n          dup2\n            /* \"DISNEY/ERC20.sol\":3404:3411  allowed */\n          0x01\n            /* \"DISNEY/ERC20.sol\":3404:3423  allowed[msg.sender] */\n          0x00\n            /* \"DISNEY/ERC20.sol\":3412:3422  msg.sender */\n          caller\n            /* \"DISNEY/ERC20.sol\":3404:3423  allowed[msg.sender] */\n          0xffffffffffffffffffffffffffffffffffffffff\n          and\n          0xffffffffffffffffffffffffffffffffffffffff\n          and\n          dup2\n          mstore\n          0x20\n          add\n          swap1\n          dup2\n          mstore\n          0x20\n          add\n          0x00\n          keccak256\n            /* \"DISNEY/ERC20.sol\":3404:3433  allowed[msg.sender][delegate] */\n          0x00\n            /* \"DISNEY/ERC20.sol\":3424:3432  delegate */\n          dup6\n            /* \"DISNEY/ERC20.sol\":3404:3433  allowed[msg.sender][delegate] */\n          0xffffffffffffffffffffffffffffffffffffffff\n          and\n          0xffffffffffffffffffffffffffffffffffffffff\n          and\n          dup2\n          mstore\n          0x20\n          add\n          swap1\n          dup2\n          mstore\n          0x20\n          add\n          0x00\n          keccak256\n            /* \"DISNEY/ERC20.sol\":3404:3445  allowed[msg.sender][delegate] = numTokens */\n          dup2\n          swap1\n          sstore\n          pop\n            /* \"DISNEY/ERC20.sol\":3481:3489  delegate */\n          dup3\n            /* \"DISNEY/ERC20.sol\":3460:3501  Approval(msg.sender, delegate, numTokens) */\n          0xffffffffffffffffffffffffffffffffffffffff\n          and\n            /* \"DISNEY/ERC20.sol\":3469:3479  msg.sender */\n          caller\n            /* \"DISNEY/ERC20.sol\":3460:3501  Approval(msg.sender, delegate, numTokens) */\n          0xffffffffffffffffffffffffffffffffffffffff\n          and\n          0x8c5be1e5ebec7d5bd14f71427d1e84f3dd0314c0f7b2291e5b200ac8c7c3b925\n            /* \"DISNEY/ERC20.sol\":3491:3500  numTokens */\n          dup5\n            /* \"DISNEY/ERC20.sol\":3460:3501  Approval(msg.sender, delegate, numTokens) */\n          mload(0x40)\n          tag_59\n          swap2\n          swap1\n          jump(tag_27)\n        tag_59:\n          mload(0x40)\n          dup1\n          swap2\n          sub\n          swap1\n          log3\n            /* \"DISNEY/ERC20.sol\":3518:3522  true */\n          0x01\n            /* \"DISNEY/ERC20.sol\":3511:3522  return true */\n          swap1\n          pop\n            /* \"DISNEY/ERC20.sol\":3310:3529  function approve(address delegate, uint256 numTokens) public override returns (bool){... */\n          swap3\n          swap2\n          pop\n          pop\n          jump\t// out\n            /* \"DISNEY/ERC20.sol\":2412:2509  function totalSupply() public override view returns (uint256){... */\n        tag_25:\n            /* \"DISNEY/ERC20.sol\":2465:2472  uint256 */\n          0x00\n            /* \"DISNEY/ERC20.sol\":2490:2502  totalSupply_ */\n          sload(0x02)\n            /* \"DISNEY/ERC20.sol\":2483:2502  return totalSupply_ */\n          swap1\n          pop\n            /* \"DISNEY/ERC20.sol\":2412:2509  function totalSupply() public override view returns (uint256){... */\n          swap1\n          jump\t// out\n            /* \"DISNEY/ERC20.sol\":2515:2670  function increaseTotalSupply(uint newTokensAmount) public {... */\n        tag_31:\n            /* \"DISNEY/ERC20.sol\":2599:2614  newTokensAmount */\n          dup1\n            /* \"DISNEY/ERC20.sol\":2583:2595  totalSupply_ */\n          0x02\n          0x00\n            /* \"DISNEY/ERC20.sol\":2583:2614  totalSupply_ += newTokensAmount */\n          dup3\n          dup3\n          sload\n          add\n          swap3\n          pop\n          pop\n          dup2\n          swap1\n          sstore\n          pop\n            /* \"DISNEY/ERC20.sol\":2648:2663  newTokensAmount */\n          dup1\n            /* \"DISNEY/ERC20.sol\":2624:2632  balances */\n          0x00\n            /* \"DISNEY/ERC20.sol\":2624:2644  balances[msg.sender] */\n          dup1\n            /* \"DISNEY/ERC20.sol\":2633:2643  msg.sender */\n          caller\n            /* \"DISNEY/ERC20.sol\":2624:2644  balances[msg.sender] */\n          0xffffffffffffffffffffffffffffffffffffffff\n          and\n          0xffffffffffffffffffffffffffffffffffffffff\n          and\n          dup2\n          mstore\n          0x20\n          add\n          swap1\n          dup2\n          mstore\n          0x20\n          add\n          0x00\n          keccak256\n          0x00\n            /* \"DISNEY/ERC20.sol\":2624:2663  balances[msg.sender] += newTokensAmount */\n          dup3\n          dup3\n          sload\n          add\n          swap3\n          pop\n          pop\n          dup2\n          swap1\n          sstore\n          pop\n            /* \"DISNEY/ERC20.sol\":2515:2670  function increaseTotalSupply(uint newTokensAmount) public {... */\n          pop\n          jump\t// out\n            /* \"DISNEY/ERC20.sol\":3535:4014  function transferFrom(address owner, address buyer, uint256 numTokens) public override returns (bool){... */\n        tag_35:\n            /* \"DISNEY/ERC20.sol\":3631:3635  bool */\n          0x00\n            /* \"DISNEY/ERC20.sol\":3667:3675  balances */\n          dup1\n            /* \"DISNEY/ERC20.sol\":3667:3682  balances[owner] */\n          0x00\n            /* \"DISNEY/ERC20.sol\":3676:3681  owner */\n          dup6\n            /* \"DISNEY/ERC20.sol\":3667:3682  balances[owner] */\n          0xffffffffffffffffffffffffffffffffffffffff\n          and\n          0xffffffffffffffffffffffffffffffffffffffff\n          and\n          dup2\n          mstore\n          0x20\n          add\n          swap1\n          dup2\n          mstore\n          0x20\n          add\n          0x00\n          keccak256\n          sload\n            /* \"DISNEY/ERC20.sol\":3654:3663  numTokens */\n          dup3\n            /* \"DISNEY/ERC20.sol\":3654:3682  numTokens <= balances[owner] */\n          gt\n          iszero\n            /* \"DISNEY/ERC20.sol\":3646:3683  require(numTokens <= balances[owner]) */\n          tag_63\n          jumpi\n            /* \"--CODEGEN--\":12:13   */\n          0x00\n            /* \"--CODEGEN--\":9:10   */\n          dup1\n            /* \"--CODEGEN--\":2:14   */\n          revert\n            /* \"DISNEY/ERC20.sol\":3646:3683  require(numTokens <= balances[owner]) */\n        tag_63:\n            /* \"DISNEY/ERC20.sol\":3714:3721  allowed */\n          0x01\n            /* \"DISNEY/ERC20.sol\":3714:3728  allowed[owner] */\n          0x00\n            /* \"DISNEY/ERC20.sol\":3722:3727  owner */\n          dup6\n            /* \"DISNEY/ERC20.sol\":3714:3728  allowed[owner] */\n          0xffffffffffffffffffffffffffffffffffffffff\n          and\n          0xffffffffffffffffffffffffffffffffffffffff\n          and\n          dup2\n          mstore\n          0x20\n          add\n          swap1\n          dup2\n          mstore\n          0x20\n          add\n          0x00\n          keccak256\n            /* \"DISNEY/ERC20.sol\":3714:3740  allowed[owner][msg.sender] */\n          0x00\n            /* \"DISNEY/ERC20.sol\":3729:3739  msg.sender */\n          caller\n            /* \"DISNEY/ERC20.sol\":3714:3740  allowed[owner][msg.sender] */\n          0xffffffffffffffffffffffffffffffffffffffff\n          and\n          0xffffffffffffffffffffffffffffffffffffffff\n          and\n          dup2\n          mstore\n          0x20\n          add\n          swap1\n          dup2\n          mstore\n          0x20\n          add\n          0x00\n          keccak256\n          sload\n            /* \"DISNEY/ERC20.sol\":3701:3710  numTokens */\n          dup3\n            /* \"DISNEY/ERC20.sol\":3701:3740  numTokens <= allowed[owner][msg.sender] */\n          gt\n          iszero\n            /* \"DISNEY/ERC20.sol\":3693:3741  require(numTokens <= allowed[owner][msg.sender]) */\n          tag_64\n          jumpi\n            /* \"--CODEGEN--\":12:13   */\n          0x00\n            /* \"--CODEGEN--\":9:10   */\n          dup1\n            /* \"--CODEGEN--\":2:14   */\n          revert\n            /* \"DISNEY/ERC20.sol\":3693:3741  require(numTokens <= allowed[owner][msg.sender]) */\n        tag_64:\n            /* \"DISNEY/ERC20.sol\":3770:3800  balances[owner].sub(numTokens) */\n          tag_65\n            /* \"DISNEY/ERC20.sol\":3790:3799  numTokens */\n          dup3\n            /* \"DISNEY/ERC20.sol\":3770:3778  balances */\n          0x00\n            /* \"DISNEY/ERC20.sol\":3770:3785  balances[owner] */\n          dup1\n            /* \"DISNEY/ERC20.sol\":3779:3784  owner */\n          dup8\n            /* \"DISNEY/ERC20.sol\":3770:3785  balances[owner] */\n          0xffffffffffffffffffffffffffffffffffffffff\n          and\n          0xffffffffffffffffffffffffffffffffffffffff\n          and\n          dup2\n          mstore\n          0x20\n          add\n          swap1\n          dup2\n          mstore\n          0x20\n          add\n          0x00\n          keccak256\n          sload\n            /* \"DISNEY/ERC20.sol\":3770:3789  balances[owner].sub */\n          tag_66\n          swap1\n            /* \"DISNEY/ERC20.sol\":3770:3800  balances[owner].sub(numTokens) */\n          swap2\n          swap1\n          0xffffffff\n          and\n          jump\t// in\n        tag_65:\n            /* \"DISNEY/ERC20.sol\":3752:3760  balances */\n          0x00\n            /* \"DISNEY/ERC20.sol\":3752:3767  balances[owner] */\n          dup1\n            /* \"DISNEY/ERC20.sol\":3761:3766  owner */\n          dup7\n            /* \"DISNEY/ERC20.sol\":3752:3767  balances[owner] */\n          0xffffffffffffffffffffffffffffffffffffffff\n          and\n          0xffffffffffffffffffffffffffffffffffffffff\n          and\n          dup2\n          mstore\n          0x20\n          add\n          swap1\n          dup2\n          mstore\n          0x20\n          add\n          0x00\n          keccak256\n            /* \"DISNEY/ERC20.sol\":3752:3800  balances[owner] = balances[owner].sub(numTokens) */\n          dup2\n          swap1\n          sstore\n          pop\n            /* \"DISNEY/ERC20.sol\":3839:3880  allowed[owner][msg.sender].sub(numTokens) */\n          tag_67\n            /* \"DISNEY/ERC20.sol\":3870:3879  numTokens */\n          dup3\n            /* \"DISNEY/ERC20.sol\":3839:3846  allowed */\n          0x01\n            /* \"DISNEY/ERC20.sol\":3839:3853  allowed[owner] */\n          0x00\n            /* \"DISNEY/ERC20.sol\":3847:3852  owner */\n          dup8\n            /* \"DISNEY/ERC20.sol\":3839:3853  allowed[owner] */\n          0xffffffffffffffffffffffffffffffffffffffff\n          and\n          0xffffffffffffffffffffffffffffffffffffffff\n          and\n          dup2\n          mstore\n          0x20\n          add\n          swap1\n          dup2\n          mstore\n          0x20\n          add\n          0x00\n          keccak256\n            /* \"DISNEY/ERC20.sol\":3839:3865  allowed[owner][msg.sender] */\n          0x00\n            /* \"DISNEY/ERC20.sol\":3854:3864  msg.sender */\n          caller\n            /* \"DISNEY/ERC20.sol\":3839:3865  allowed[owner][msg.sender] */\n          0xffffffffffffffffffffffffffffffffffffffff\n          and\n          0xffffffffffffffffffffffffffffffffffffffff\n          and\n          dup2\n          mstore\n          0x20\n          add\n          swap1\n          dup2\n          mstore\n          0x20\n          add\n          0x00\n          keccak256\n          sload\n            /* \"DISNEY/ERC20.sol\":3839:3869  allowed[owner][msg.sender].sub */\n          tag_66\n          swap1\n            /* \"DISNEY/ERC20.sol\":3839:3880  allowed[owner][msg.sender].sub(numTokens) */\n          swap2\n          swap1\n          0xffffffff\n          and\n          jump\t// in\n        tag_67:\n            /* \"DISNEY/ERC20.sol\":3810:3817  allowed */\n          0x01\n            /* \"DISNEY/ERC20.sol\":3810:3824  allowed[owner] */\n          0x00\n            /* \"DISNEY/ERC20.sol\":3818:3823  owner */\n          dup7\n            /* \"DISNEY/ERC20.sol\":3810:3824  allowed[owner] */\n          0xffffffffffffffffffffffffffffffffffffffff\n          and\n          0xffffffffffffffffffffffffffffffffffffffff\n          and\n          dup2\n          mstore\n          0x20\n          add\n          swap1\n          dup2\n          mstore\n          0x20\n          add\n          0x00\n          keccak256\n            /* \"DISNEY/ERC20.sol\":3810:3836  allowed[owner][msg.sender] */\n          0x00\n            /* \"DISNEY/ERC20.sol\":3825:3835  msg.sender */\n          caller\n            /* \"DISNEY/ERC20.sol\":3810:3836  allowed[owner][msg.sender] */\n          0xffffffffffffffffffffffffffffffffffffffff\n          and\n          0xffffffffffffffffffffffffffffffffffffffff\n          and\n          dup2\n          mstore\n          0x20\n          add\n          swap1\n          dup2\n          mstore\n          0x20\n          add\n          0x00\n          keccak256\n            /* \"DISNEY/ERC20.sol\":3810:3880  allowed[owner][msg.sender] = allowed[owner][msg.sender].sub(numTokens) */\n          dup2\n          swap1\n          sstore\n          pop\n            /* \"DISNEY/ERC20.sol\":3908:3938  balances[buyer].add(numTokens) */\n          tag_68\n            /* \"DISNEY/ERC20.sol\":3928:3937  numTokens */\n          dup3\n            /* \"DISNEY/ERC20.sol\":3908:3916  balances */\n          0x00\n            /* \"DISNEY/ERC20.sol\":3908:3923  balances[buyer] */\n          dup1\n            /* \"DISNEY/ERC20.sol\":3917:3922  buyer */\n          dup7\n            /* \"DISNEY/ERC20.sol\":3908:3923  balances[buyer] */\n          0xffffffffffffffffffffffffffffffffffffffff\n          and\n          0xffffffffffffffffffffffffffffffffffffffff\n          and\n          dup2\n          mstore\n          0x20\n          add\n          swap1\n          dup2\n          mstore\n          0x20\n          add\n          0x00\n          keccak256\n          sload\n            /* \"DISNEY/ERC20.sol\":3908:3927  balances[buyer].add */\n          tag_69\n          swap1\n            /* \"DISNEY/ERC20.sol\":3908:3938  balances[buyer].add(numTokens) */\n          swap2\n          swap1\n          0xffffffff\n          and\n          jump\t// in\n        tag_68:\n            /* \"DISNEY/ERC20.sol\":3890:3898  balances */\n          0x00\n            /* \"DISNEY/ERC20.sol\":3890:3905  balances[buyer] */\n          dup1\n            /* \"DISNEY/ERC20.sol\":3899:3904  buyer */\n          dup6\n            /* \"DISNEY/ERC20.sol\":3890:3905  balances[buyer] */\n          0xffffffffffffffffffffffffffffffffffffffff\n          and\n          0xffffffffffffffffffffffffffffffffffffffff\n          and\n          dup2\n          mstore\n          0x20\n          add\n          swap1\n          dup2\n          mstore\n          0x20\n          add\n          0x00\n          keccak256\n            /* \"DISNEY/ERC20.sol\":3890:3938  balances[buyer] = balances[buyer].add(numTokens) */\n          dup2\n          swap1\n          sstore\n          pop\n            /* \"DISNEY/ERC20.sol\":3969:3974  buyer */\n          dup3\n            /* \"DISNEY/ERC20.sol\":3953:3986  Transfer(owner, buyer, numTokens) */\n          0xffffffffffffffffffffffffffffffffffffffff\n          and\n            /* \"DISNEY/ERC20.sol\":3962:3967  owner */\n          dup5\n            /* \"DISNEY/ERC20.sol\":3953:3986  Transfer(owner, buyer, numTokens) */\n          0xffffffffffffffffffffffffffffffffffffffff\n          and\n          0xddf252ad1be2c89b69c2b068fc378daa952ba7f163c4a11628f55a4df523b3ef\n            /* \"DISNEY/ERC20.sol\":3976:3985  numTokens */\n          dup5\n            /* \"DISNEY/ERC20.sol\":3953:3986  Transfer(owner, buyer, numTokens) */\n          mload(0x40)\n          tag_70\n          swap2\n          swap1\n          jump(tag_27)\n        tag_70:\n          mload(0x40)\n          dup1\n          swap2\n          sub\n          swap1\n          log3\n            /* \"DISNEY/ERC20.sol\":4003:4007  true */\n          0x01\n            /* \"DISNEY/ERC20.sol\":3996:4007  return true */\n          swap1\n          pop\n            /* \"DISNEY/ERC20.sol\":3535:4014  function transferFrom(address owner, address buyer, uint256 numTokens) public override returns (bool){... */\n          swap4\n          swap3\n          pop\n          pop\n          pop\n          jump\t// out\n            /* \"DISNEY/ERC20.sol\":1907:1942  uint8 public constant decimals = 18 */\n        tag_38:\n            /* \"DISNEY/ERC20.sol\":1940:1942  18 */\n          0x12\n            /* \"DISNEY/ERC20.sol\":1907:1942  uint8 public constant decimals = 18 */\n          dup2\n          jump\t// out\n            /* \"DISNEY/ERC20.sol\":2676:2797  function balanceOf(address tokenOwner) public override view returns (uint256){... */\n        tag_44:\n            /* \"DISNEY/ERC20.sol\":2745:2752  uint256 */\n          0x00\n            /* \"DISNEY/ERC20.sol\":2770:2778  balances */\n          dup1\n            /* \"DISNEY/ERC20.sol\":2770:2790  balances[tokenOwner] */\n          0x00\n            /* \"DISNEY/ERC20.sol\":2779:2789  tokenOwner */\n          dup4\n            /* \"DISNEY/ERC20.sol\":2770:2790  balances[tokenOwner] */\n          0xffffffffffffffffffffffffffffffffffffffff\n          and\n          0xffffffffffffffffffffffffffffffffffffffff\n          and\n          dup2\n          mstore\n          0x20\n          add\n          swap1\n          dup2\n          mstore\n          0x20\n          add\n          0x00\n          keccak256\n          sload\n            /* \"DISNEY/ERC20.sol\":2763:2790  return balances[tokenOwner] */\n          swap1\n          pop\n            /* \"DISNEY/ERC20.sol\":2676:2797  function balanceOf(address tokenOwner) public override view returns (uint256){... */\n          swap2\n          swap1\n          pop\n          jump\t// out\n            /* \"DISNEY/ERC20.sol\":1864:1901  string public constant symbol = \"ERC\" */\n        tag_47:\n          mload(0x40)\n          dup1\n          0x40\n          add\n          0x40\n          mstore\n          dup1\n          0x03\n          dup2\n          mstore\n          0x20\n          add\n          0x4552430000000000000000000000000000000000000000000000000000000000\n          dup2\n          mstore\n          pop\n          dup2\n          jump\t// out\n            /* \"DISNEY/ERC20.sol\":2947:3304  function transfer(address recipient, uint256 numTokens) public override returns (bool){... */\n        tag_51:\n            /* \"DISNEY/ERC20.sol\":3028:3032  bool */\n          0x00\n            /* \"DISNEY/ERC20.sol\":3064:3072  balances */\n          dup1\n            /* \"DISNEY/ERC20.sol\":3064:3084  balances[msg.sender] */\n          0x00\n            /* \"DISNEY/ERC20.sol\":3073:3083  msg.sender */\n          caller\n            /* \"DISNEY/ERC20.sol\":3064:3084  balances[msg.sender] */\n          0xffffffffffffffffffffffffffffffffffffffff\n          and\n          0xffffffffffffffffffffffffffffffffffffffff\n          and\n          dup2\n          mstore\n          0x20\n          add\n          swap1\n          dup2\n          mstore\n          0x20\n          add\n          0x00\n          keccak256\n          sload\n            /* \"DISNEY/ERC20.sol\":3051:3060  numTokens */\n          dup3\n            /* \"DISNEY/ERC20.sol\":3051:3084  numTokens <= balances[msg.sender] */\n          gt\n          iszero\n            /* \"DISNEY/ERC20.sol\":3043:3085  require(numTokens <= balances[msg.sender]) */\n          tag_73\n          jumpi\n            /* \"--CODEGEN--\":12:13   */\n          0x00\n            /* \"--CODEGEN--\":9:10   */\n          dup1\n            /* \"--CODEGEN--\":2:14   */\n          revert\n            /* \"DISNEY/ERC20.sol\":3043:3085  require(numTokens <= balances[msg.sender]) */\n        tag_73:\n            /* \"DISNEY/ERC20.sol\":3118:3153  balances[msg.sender].sub(numTokens) */\n          tag_74\n            /* \"DISNEY/ERC20.sol\":3143:3152  numTokens */\n          dup3\n            /* \"DISNEY/ERC20.sol\":3118:3126  balances */\n          0x00\n            /* \"DISNEY/ERC20.sol\":3118:3138  balances[msg.sender] */\n          dup1\n            /* \"DISNEY/ERC20.sol\":3127:3137  msg.sender */\n          caller\n            /* \"DISNEY/ERC20.sol\":3118:3138  balances[msg.sender] */\n          0xffffffffffffffffffffffffffffffffffffffff\n          and\n          0xffffffffffffffffffffffffffffffffffffffff\n          and\n          dup2\n          mstore\n          0x20\n          add\n          swap1\n          dup2\n          mstore\n          0x20\n          add\n          0x00\n          keccak256\n          sload\n            /* \"DISNEY/ERC20.sol\":3118:3142  balances[msg.sender].sub */\n          tag_66\n          swap1\n            /* \"DISNEY/ERC20.sol\":3118:3153  balances[msg.sender].sub(numTokens) */\n          swap2\n          swap1\n          0xffffffff\n          and\n          jump\t// in\n        tag_74:\n            /* \"DISNEY/ERC20.sol\":3095:3103  balances */\n          0x00\n            /* \"DISNEY/ERC20.sol\":3095:3115  balances[msg.sender] */\n          dup1\n            /* \"DISNEY/ERC20.sol\":3104:3114  msg.sender */\n          caller\n            /* \"DISNEY/ERC20.sol\":3095:3115  balances[msg.sender] */\n          0xffffffffffffffffffffffffffffffffffffffff\n          and\n          0xffffffffffffffffffffffffffffffffffffffff\n          and\n          dup2\n          mstore\n          0x20\n          add\n          swap1\n          dup2\n          mstore\n          0x20\n          add\n          0x00\n          keccak256\n            /* \"DISNEY/ERC20.sol\":3095:3153  balances[msg.sender] = balances[msg.sender].sub(numTokens) */\n          dup2\n          swap1\n          sstore\n          pop\n            /* \"DISNEY/ERC20.sol\":3185:3219  balances[recipient].add(numTokens) */\n          tag_75\n            /* \"DISNEY/ERC20.sol\":3209:3218  numTokens */\n          dup3\n            /* \"DISNEY/ERC20.sol\":3185:3193  balances */\n          0x00\n            /* \"DISNEY/ERC20.sol\":3185:3204  balances[recipient] */\n          dup1\n            /* \"DISNEY/ERC20.sol\":3194:3203  recipient */\n          dup7\n            /* \"DISNEY/ERC20.sol\":3185:3204  balances[recipient] */\n          0xffffffffffffffffffffffffffffffffffffffff\n          and\n          0xffffffffffffffffffffffffffffffffffffffff\n          and\n          dup2\n          mstore\n          0x20\n          add\n          swap1\n          dup2\n          mstore\n          0x20\n          add\n          0x00\n          keccak256\n          sload\n            /* \"DISNEY/ERC20.sol\":3185:3208  balances[recipient].add */\n          tag_69\n          swap1\n            /* \"DISNEY/ERC20.sol\":3185:3219  balances[recipient].add(numTokens) */\n          swap2\n          swap1\n          0xffffffff\n          and\n          jump\t// in\n        tag_75:\n            /* \"DISNEY/ERC20.sol\":3163:3171  balances */\n          0x00\n            /* \"DISNEY/ERC20.sol\":3163:3182  balances[recipient] */\n          dup1\n            /* \"DISNEY/ERC20.sol\":3172:3181  recipient */\n          dup6\n            /* \"DISNEY/ERC20.sol\":3163:3182  balances[recipient] */\n          0xffffffffffffffffffffffffffffffffffffffff\n          and\n          0xffffffffffffffffffffffffffffffffffffffff\n          and\n          dup2\n          mstore\n          0x20\n          add\n          swap1\n          dup2\n          mstore\n          0x20\n          add\n          0x00\n          keccak256\n            /* \"DISNEY/ERC20.sol\":3163:3219  balances[recipient] = balances[recipient].add(numTokens) */\n          dup2\n          swap1\n          sstore\n          pop\n            /* \"DISNEY/ERC20.sol\":3255:3264  recipient */\n          dup3\n            /* \"DISNEY/ERC20.sol\":3234:3276  Transfer(msg.sender, recipient, numTokens) */\n          0xffffffffffffffffffffffffffffffffffffffff\n          and\n            /* \"DISNEY/ERC20.sol\":3243:3253  msg.sender */\n          caller\n            /* \"DISNEY/ERC20.sol\":3234:3276  Transfer(msg.sender, recipient, numTokens) */\n          0xffffffffffffffffffffffffffffffffffffffff\n          and\n          0xddf252ad1be2c89b69c2b068fc378daa952ba7f163c4a11628f55a4df523b3ef\n            /* \"DISNEY/ERC20.sol\":3266:3275  numTokens */\n          dup5\n            /* \"DISNEY/ERC20.sol\":3234:3276  Transfer(msg.sender, recipient, numTokens) */\n          mload(0x40)\n          tag_76\n          swap2\n          swap1\n          jump(tag_27)\n        tag_76:\n          mload(0x40)\n          dup1\n          swap2\n          sub\n          swap1\n          log3\n            /* \"DISNEY/ERC20.sol\":3293:3297  true */\n          0x01\n            /* \"DISNEY/ERC20.sol\":3286:3297  return true */\n          swap1\n          pop\n            /* \"DISNEY/ERC20.sol\":2947:3304  function transfer(address recipient, uint256 numTokens) public override returns (bool){... */\n          swap3\n          swap2\n          pop\n          pop\n          jump\t// out\n            /* \"DISNEY/ERC20.sol\":2803:2941  function allowance(address owner, address delegate) public override view returns (uint256){... */\n        tag_56:\n            /* \"DISNEY/ERC20.sol\":2885:2892  uint256 */\n          0x00\n            /* \"DISNEY/ERC20.sol\":2910:2917  allowed */\n          0x01\n            /* \"DISNEY/ERC20.sol\":2910:2924  allowed[owner] */\n          0x00\n            /* \"DISNEY/ERC20.sol\":2918:2923  owner */\n          dup5\n            /* \"DISNEY/ERC20.sol\":2910:2924  allowed[owner] */\n          0xffffffffffffffffffffffffffffffffffffffff\n          and\n          0xffffffffffffffffffffffffffffffffffffffff\n          and\n          dup2\n          mstore\n          0x20\n          add\n          swap1\n          dup2\n          mstore\n          0x20\n          add\n          0x00\n          keccak256\n            /* \"DISNEY/ERC20.sol\":2910:2934  allowed[owner][delegate] */\n          0x00\n            /* \"DISNEY/ERC20.sol\":2925:2933  delegate */\n          dup4\n            /* \"DISNEY/ERC20.sol\":2910:2934  allowed[owner][delegate] */\n          0xffffffffffffffffffffffffffffffffffffffff\n          and\n          0xffffffffffffffffffffffffffffffffffffffff\n          and\n          dup2\n          mstore\n          0x20\n          add\n          swap1\n          dup2\n          mstore\n          0x20\n          add\n          0x00\n          keccak256\n          sload\n            /* \"DISNEY/ERC20.sol\":2903:2934  return allowed[owner][delegate] */\n          swap1\n          pop\n            /* \"DISNEY/ERC20.sol\":2803:2941  function allowance(address owner, address delegate) public override view returns (uint256){... */\n          swap3\n          swap2\n          pop\n          pop\n          jump\t// out\n            /* \"DISNEY/SafeMath.sol\":308:424  function sub(uint256 a, uint256 b) internal pure returns (uint256) {... */\n        tag_66:\n            /* \"DISNEY/SafeMath.sol\":366:373  uint256 */\n          0x00\n            /* \"DISNEY/SafeMath.sol\":395:396  a */\n          dup3\n            /* \"DISNEY/SafeMath.sol\":390:391  b */\n          dup3\n            /* \"DISNEY/SafeMath.sol\":390:396  b <= a */\n          gt\n          iszero\n            /* \"DISNEY/SafeMath.sol\":383:397  assert(b <= a) */\n          tag_79\n          jumpi\n          invalid\n        tag_79:\n            /* \"DISNEY/SafeMath.sol\":416:417  b */\n          dup2\n            /* \"DISNEY/SafeMath.sol\":412:413  a */\n          dup4\n            /* \"DISNEY/SafeMath.sol\":412:417  a - b */\n          sub\n            /* \"DISNEY/SafeMath.sol\":405:417  return a - b */\n          swap1\n          pop\n            /* \"DISNEY/SafeMath.sol\":308:424  function sub(uint256 a, uint256 b) internal pure returns (uint256) {... */\n          swap3\n          swap2\n          pop\n          pop\n          jump\t// out\n            /* \"DISNEY/SafeMath.sol\":447:584  function add(uint256 a, uint256 b) internal pure returns (uint256) {... */\n        tag_69:\n            /* \"DISNEY/SafeMath.sol\":505:512  uint256 */\n          0x00\n            /* \"DISNEY/SafeMath.sol\":522:531  uint256 c */\n          dup1\n            /* \"DISNEY/SafeMath.sol\":538:539  b */\n          dup3\n            /* \"DISNEY/SafeMath.sol\":534:535  a */\n          dup5\n            /* \"DISNEY/SafeMath.sol\":534:539  a + b */\n          add\n            /* \"DISNEY/SafeMath.sol\":522:539  uint256 c = a + b */\n          swap1\n          pop\n            /* \"DISNEY/SafeMath.sol\":559:560  a */\n          dup4\n            /* \"DISNEY/SafeMath.sol\":554:555  c */\n          dup2\n            /* \"DISNEY/SafeMath.sol\":554:560  c >= a */\n          lt\n          iszero\n            /* \"DISNEY/SafeMath.sol\":547:561  assert(c >= a) */\n          tag_81\n          jumpi\n          invalid\n        tag_81:\n            /* \"DISNEY/SafeMath.sol\":576:577  c */\n          dup1\n            /* \"DISNEY/SafeMath.sol\":569:577  return c */\n          swap2\n          pop\n          pop\n            /* \"DISNEY/SafeMath.sol\":447:584  function add(uint256 a, uint256 b) internal pure returns (uint256) {... */\n          swap3\n          swap2\n          pop\n          pop\n          jump\t// out\n            /* \"--CODEGEN--\":5:135   */\n        tag_83:\n          0x00\n            /* \"--CODEGEN--\":85:91   */\n          dup2\n            /* \"--CODEGEN--\":72:92   */\n          calldataload\n            /* \"--CODEGEN--\":63:92   */\n          swap1\n          pop\n            /* \"--CODEGEN--\":97:130   */\n          tag_85\n            /* \"--CODEGEN--\":124:129   */\n          dup2\n            /* \"--CODEGEN--\":97:130   */\n          jump(tag_86)\n        tag_85:\n            /* \"--CODEGEN--\":57:135   */\n          swap3\n          swap2\n          pop\n          pop\n          jump\n            /* \"--CODEGEN--\":142:272   */\n        tag_87:\n          0x00\n            /* \"--CODEGEN--\":222:228   */\n          dup2\n            /* \"--CODEGEN--\":209:229   */\n          calldataload\n            /* \"--CODEGEN--\":200:229   */\n          swap1\n          pop\n            /* \"--CODEGEN--\":234:267   */\n          tag_89\n            /* \"--CODEGEN--\":261:266   */\n          dup2\n            /* \"--CODEGEN--\":234:267   */\n          jump(tag_90)\n        tag_89:\n            /* \"--CODEGEN--\":194:272   */\n          swap3\n          swap2\n          pop\n          pop\n          jump\n            /* \"--CODEGEN--\":279:520   */\n        tag_43:\n          0x00\n            /* \"--CODEGEN--\":383:385   */\n          0x20\n            /* \"--CODEGEN--\":371:380   */\n          dup3\n            /* \"--CODEGEN--\":362:369   */\n          dup5\n            /* \"--CODEGEN--\":358:381   */\n          sub\n            /* \"--CODEGEN--\":354:386   */\n          slt\n            /* \"--CODEGEN--\":351:353   */\n          iszero\n          tag_92\n          jumpi\n            /* \"--CODEGEN--\":399:400   */\n          0x00\n            /* \"--CODEGEN--\":396:397   */\n          dup1\n            /* \"--CODEGEN--\":389:401   */\n          revert\n            /* \"--CODEGEN--\":351:353   */\n        tag_92:\n            /* \"--CODEGEN--\":434:435   */\n          0x00\n            /* \"--CODEGEN--\":451:504   */\n          tag_93\n            /* \"--CODEGEN--\":496:503   */\n          dup5\n            /* \"--CODEGEN--\":487:493   */\n          dup3\n            /* \"--CODEGEN--\":476:485   */\n          dup6\n            /* \"--CODEGEN--\":472:494   */\n          add\n            /* \"--CODEGEN--\":451:504   */\n          jump(tag_83)\n        tag_93:\n            /* \"--CODEGEN--\":441:504   */\n          swap2\n          pop\n            /* \"--CODEGEN--\":413:510   */\n          pop\n            /* \"--CODEGEN--\":345:520   */\n          swap3\n          swap2\n          pop\n          pop\n          jump\n            /* \"--CODEGEN--\":527:893   */\n        tag_55:\n          0x00\n          dup1\n            /* \"--CODEGEN--\":648:650   */\n          0x40\n            /* \"--CODEGEN--\":636:645   */\n          dup4\n            /* \"--CODEGEN--\":627:634   */\n          dup6\n            /* \"--CODEGEN--\":623:646   */\n          sub\n            /* \"--CODEGEN--\":619:651   */\n          slt\n            /* \"--CODEGEN--\":616:618   */\n          iszero\n          tag_95\n          jumpi\n            /* \"--CODEGEN--\":664:665   */\n          0x00\n            /* \"--CODEGEN--\":661:662   */\n          dup1\n            /* \"--CODEGEN--\":654:666   */\n          revert\n            /* \"--CODEGEN--\":616:618   */\n        tag_95:\n            /* \"--CODEGEN--\":699:700   */\n          0x00\n            /* \"--CODEGEN--\":716:769   */\n          tag_96\n            /* \"--CODEGEN--\":761:768   */\n          dup6\n            /* \"--CODEGEN--\":752:758   */\n          dup3\n            /* \"--CODEGEN--\":741:750   */\n          dup7\n            /* \"--CODEGEN--\":737:759   */\n          add\n            /* \"--CODEGEN--\":716:769   */\n          jump(tag_83)\n        tag_96:\n            /* \"--CODEGEN--\":706:769   */\n          swap3\n          pop\n            /* \"--CODEGEN--\":678:775   */\n          pop\n            /* \"--CODEGEN--\":806:808   */\n          0x20\n            /* \"--CODEGEN--\":824:877   */\n          tag_97\n            /* \"--CODEGEN--\":869:876   */\n          dup6\n            /* \"--CODEGEN--\":860:866   */\n          dup3\n            /* \"--CODEGEN--\":849:858   */\n          dup7\n            /* \"--CODEGEN--\":845:867   */\n          add\n            /* \"--CODEGEN--\":824:877   */\n          jump(tag_83)\n        tag_97:\n            /* \"--CODEGEN--\":814:877   */\n          swap2\n          pop\n            /* \"--CODEGEN--\":785:883   */\n          pop\n            /* \"--CODEGEN--\":610:893   */\n          swap3\n          pop\n          swap3\n          swap1\n          pop\n          jump\n            /* \"--CODEGEN--\":900:1391   */\n        tag_34:\n          0x00\n          dup1\n          0x00\n            /* \"--CODEGEN--\":1038:1040   */\n          0x60\n            /* \"--CODEGEN--\":1026:1035   */\n          dup5\n            /* \"--CODEGEN--\":1017:1024   */\n          dup7\n            /* \"--CODEGEN--\":1013:1036   */\n          sub\n            /* \"--CODEGEN--\":1009:1041   */\n          slt\n            /* \"--CODEGEN--\":1006:1008   */\n          iszero\n          tag_99\n          jumpi\n            /* \"--CODEGEN--\":1054:1055   */\n          0x00\n            /* \"--CODEGEN--\":1051:1052   */\n          dup1\n            /* \"--CODEGEN--\":1044:1056   */\n          revert\n            /* \"--CODEGEN--\":1006:1008   */\n        tag_99:\n            /* \"--CODEGEN--\":1089:1090   */\n          0x00\n            /* \"--CODEGEN--\":1106:1159   */\n          tag_100\n            /* \"--CODEGEN--\":1151:1158   */\n          dup7\n            /* \"--CODEGEN--\":1142:1148   */\n          dup3\n            /* \"--CODEGEN--\":1131:1140   */\n          dup8\n            /* \"--CODEGEN--\":1127:1149   */\n          add\n            /* \"--CODEGEN--\":1106:1159   */\n          jump(tag_83)\n        tag_100:\n            /* \"--CODEGEN--\":1096:1159   */\n          swap4\n          pop\n            /* \"--CODEGEN--\":1068:1165   */\n          pop\n            /* \"--CODEGEN--\":1196:1198   */\n          0x20\n            /* \"--CODEGEN--\":1214:1267   */\n          tag_101\n            /* \"--CODEGEN--\":1259:1266   */\n          dup7\n            /* \"--CODEGEN--\":1250:1256   */\n          dup3\n            /* \"--CODEGEN--\":1239:1248   */\n          dup8\n            /* \"--CODEGEN--\":1235:1257   */\n          add\n            /* \"--CODEGEN--\":1214:1267   */\n          jump(tag_83)\n        tag_101:\n            /* \"--CODEGEN--\":1204:1267   */\n          swap3\n          pop\n            /* \"--CODEGEN--\":1175:1273   */\n          pop\n            /* \"--CODEGEN--\":1304:1306   */\n          0x40\n            /* \"--CODEGEN--\":1322:1375   */\n          tag_102\n            /* \"--CODEGEN--\":1367:1374   */\n          dup7\n            /* \"--CODEGEN--\":1358:1364   */\n          dup3\n            /* \"--CODEGEN--\":1347:1356   */\n          dup8\n            /* \"--CODEGEN--\":1343:1365   */\n          add\n            /* \"--CODEGEN--\":1322:1375   */\n          jump(tag_87)\n        tag_102:\n            /* \"--CODEGEN--\":1312:1375   */\n          swap2\n          pop\n            /* \"--CODEGEN--\":1283:1381   */\n          pop\n            /* \"--CODEGEN--\":1000:1391   */\n          swap3\n          pop\n          swap3\n          pop\n          swap3\n          jump\n            /* \"--CODEGEN--\":1398:1764   */\n        tag_20:\n          0x00\n          dup1\n            /* \"--CODEGEN--\":1519:1521   */\n          0x40\n            /* \"--CODEGEN--\":1507:1516   */\n          dup4\n            /* \"--CODEGEN--\":1498:1505   */\n          dup6\n            /* \"--CODEGEN--\":1494:1517   */\n          sub\n            /* \"--CODEGEN--\":1490:1522   */\n          slt\n            /* \"--CODEGEN--\":1487:1489   */\n          iszero\n          tag_104\n          jumpi\n            /* \"--CODEGEN--\":1535:1536   */\n          0x00\n            /* \"--CODEGEN--\":1532:1533   */\n          dup1\n            /* \"--CODEGEN--\":1525:1537   */\n          revert\n            /* \"--CODEGEN--\":1487:1489   */\n        tag_104:\n            /* \"--CODEGEN--\":1570:1571   */\n          0x00\n            /* \"--CODEGEN--\":1587:1640   */\n          tag_105\n            /* \"--CODEGEN--\":1632:1639   */\n          dup6\n            /* \"--CODEGEN--\":1623:1629   */\n          dup3\n            /* \"--CODEGEN--\":1612:1621   */\n          dup7\n            /* \"--CODEGEN--\":1608:1630   */\n          add\n            /* \"--CODEGEN--\":1587:1640   */\n          jump(tag_83)\n        tag_105:\n            /* \"--CODEGEN--\":1577:1640   */\n          swap3\n          pop\n            /* \"--CODEGEN--\":1549:1646   */\n          pop\n            /* \"--CODEGEN--\":1677:1679   */\n          0x20\n            /* \"--CODEGEN--\":1695:1748   */\n          tag_106\n            /* \"--CODEGEN--\":1740:1747   */\n          dup6\n            /* \"--CODEGEN--\":1731:1737   */\n          dup3\n            /* \"--CODEGEN--\":1720:1729   */\n          dup7\n            /* \"--CODEGEN--\":1716:1738   */\n          add\n            /* \"--CODEGEN--\":1695:1748   */\n          jump(tag_87)\n        tag_106:\n            /* \"--CODEGEN--\":1685:1748   */\n          swap2\n          pop\n            /* \"--CODEGEN--\":1656:1754   */\n          pop\n            /* \"--CODEGEN--\":1481:1764   */\n          swap3\n          pop\n          swap3\n          swap1\n          pop\n          jump\n            /* \"--CODEGEN--\":1771:2012   */\n        tag_30:\n          0x00\n            /* \"--CODEGEN--\":1875:1877   */\n          0x20\n            /* \"--CODEGEN--\":1863:1872   */\n          dup3\n            /* \"--CODEGEN--\":1854:1861   */\n          dup5\n            /* \"--CODEGEN--\":1850:1873   */\n          sub\n            /* \"--CODEGEN--\":1846:1878   */\n          slt\n            /* \"--CODEGEN--\":1843:1845   */\n          iszero\n          tag_108\n          jumpi\n            /* \"--CODEGEN--\":1891:1892   */\n          0x00\n            /* \"--CODEGEN--\":1888:1889   */\n          dup1\n            /* \"--CODEGEN--\":1881:1893   */\n          revert\n            /* \"--CODEGEN--\":1843:1845   */\n        tag_108:\n            /* \"--CODEGEN--\":1926:1927   */\n          0x00\n            /* \"--CODEGEN--\":1943:1996   */\n          tag_109\n            /* \"--CODEGEN--\":1988:1995   */\n          dup5\n            /* \"--CODEGEN--\":1979:1985   */\n          dup3\n            /* \"--CODEGEN--\":1968:1977   */\n          dup6\n            /* \"--CODEGEN--\":1964:1986   */\n          add\n            /* \"--CODEGEN--\":1943:1996   */\n          jump(tag_87)\n        tag_109:\n            /* \"--CODEGEN--\":1933:1996   */\n          swap2\n          pop\n            /* \"--CODEGEN--\":1905:2002   */\n          pop\n            /* \"--CODEGEN--\":1837:2012   */\n          swap3\n          swap2\n          pop\n          pop\n          jump\n            /* \"--CODEGEN--\":2019:2123   */\n        tag_110:\n            /* \"--CODEGEN--\":2096:2117   */\n          tag_112\n            /* \"--CODEGEN--\":2111:2116   */\n          dup2\n            /* \"--CODEGEN--\":2096:2117   */\n          jump(tag_113)\n        tag_112:\n            /* \"--CODEGEN--\":2091:2094   */\n          dup3\n            /* \"--CODEGEN--\":2084:2118   */\n          mstore\n            /* \"--CODEGEN--\":2078:2123   */\n          pop\n          pop\n          jump\n            /* \"--CODEGEN--\":2130:2477   */\n        tag_114:\n          0x00\n            /* \"--CODEGEN--\":2242:2281   */\n          tag_116\n            /* \"--CODEGEN--\":2275:2280   */\n          dup3\n            /* \"--CODEGEN--\":2242:2281   */\n          jump(tag_117)\n        tag_116:\n            /* \"--CODEGEN--\":2293:2364   */\n          tag_118\n            /* \"--CODEGEN--\":2357:2363   */\n          dup2\n            /* \"--CODEGEN--\":2352:2355   */\n          dup6\n            /* \"--CODEGEN--\":2293:2364   */\n          jump(tag_119)\n        tag_118:\n            /* \"--CODEGEN--\":2286:2364   */\n          swap4\n          pop\n            /* \"--CODEGEN--\":2369:2421   */\n          tag_120\n            /* \"--CODEGEN--\":2414:2420   */\n          dup2\n            /* \"--CODEGEN--\":2409:2412   */\n          dup6\n            /* \"--CODEGEN--\":2402:2406   */\n          0x20\n            /* \"--CODEGEN--\":2395:2400   */\n          dup7\n            /* \"--CODEGEN--\":2391:2407   */\n          add\n            /* \"--CODEGEN--\":2369:2421   */\n          jump(tag_121)\n        tag_120:\n            /* \"--CODEGEN--\":2442:2471   */\n          tag_122\n            /* \"--CODEGEN--\":2464:2470   */\n          dup2\n            /* \"--CODEGEN--\":2442:2471   */\n          jump(tag_123)\n        tag_122:\n            /* \"--CODEGEN--\":2437:2440   */\n          dup5\n            /* \"--CODEGEN--\":2433:2472   */\n          add\n            /* \"--CODEGEN--\":2426:2472   */\n          swap2\n          pop\n            /* \"--CODEGEN--\":2222:2477   */\n          pop\n          swap3\n          swap2\n          pop\n          pop\n          jump\n            /* \"--CODEGEN--\":2484:2597   */\n        tag_124:\n            /* \"--CODEGEN--\":2567:2591   */\n          tag_126\n            /* \"--CODEGEN--\":2585:2590   */\n          dup2\n            /* \"--CODEGEN--\":2567:2591   */\n          jump(tag_127)\n        tag_126:\n            /* \"--CODEGEN--\":2562:2565   */\n          dup3\n            /* \"--CODEGEN--\":2555:2592   */\n          mstore\n            /* \"--CODEGEN--\":2549:2597   */\n          pop\n          pop\n          jump\n            /* \"--CODEGEN--\":2604:2711   */\n        tag_128:\n            /* \"--CODEGEN--\":2683:2705   */\n          tag_130\n            /* \"--CODEGEN--\":2699:2704   */\n          dup2\n            /* \"--CODEGEN--\":2683:2705   */\n          jump(tag_131)\n        tag_130:\n            /* \"--CODEGEN--\":2678:2681   */\n          dup3\n            /* \"--CODEGEN--\":2671:2706   */\n          mstore\n            /* \"--CODEGEN--\":2665:2711   */\n          pop\n          pop\n          jump\n            /* \"--CODEGEN--\":2718:2919   */\n        tag_23:\n          0x00\n            /* \"--CODEGEN--\":2830:2832   */\n          0x20\n            /* \"--CODEGEN--\":2819:2828   */\n          dup3\n            /* \"--CODEGEN--\":2815:2833   */\n          add\n            /* \"--CODEGEN--\":2807:2833   */\n          swap1\n          pop\n            /* \"--CODEGEN--\":2844:2909   */\n          tag_133\n            /* \"--CODEGEN--\":2906:2907   */\n          0x00\n            /* \"--CODEGEN--\":2895:2904   */\n          dup4\n            /* \"--CODEGEN--\":2891:2908   */\n          add\n            /* \"--CODEGEN--\":2882:2888   */\n          dup5\n            /* \"--CODEGEN--\":2844:2909   */\n          jump(tag_110)\n        tag_133:\n            /* \"--CODEGEN--\":2801:2919   */\n          swap3\n          swap2\n          pop\n          pop\n          jump\n            /* \"--CODEGEN--\":2926:3227   */\n        tag_17:\n          0x00\n            /* \"--CODEGEN--\":3064:3066   */\n          0x20\n            /* \"--CODEGEN--\":3053:3062   */\n          dup3\n            /* \"--CODEGEN--\":3049:3067   */\n          add\n            /* \"--CODEGEN--\":3041:3067   */\n          swap1\n          pop\n            /* \"--CODEGEN--\":3114:3123   */\n          dup2\n            /* \"--CODEGEN--\":3108:3112   */\n          dup2\n            /* \"--CODEGEN--\":3104:3124   */\n          sub\n            /* \"--CODEGEN--\":3100:3101   */\n          0x00\n            /* \"--CODEGEN--\":3089:3098   */\n          dup4\n            /* \"--CODEGEN--\":3085:3102   */\n          add\n            /* \"--CODEGEN--\":3078:3125   */\n          mstore\n            /* \"--CODEGEN--\":3139:3217   */\n          tag_135\n            /* \"--CODEGEN--\":3212:3216   */\n          dup2\n            /* \"--CODEGEN--\":3203:3209   */\n          dup5\n            /* \"--CODEGEN--\":3139:3217   */\n          jump(tag_114)\n        tag_135:\n            /* \"--CODEGEN--\":3131:3217   */\n          swap1\n          pop\n            /* \"--CODEGEN--\":3035:3227   */\n          swap3\n          swap2\n          pop\n          pop\n          jump\n            /* \"--CODEGEN--\":3234:3447   */\n        tag_27:\n          0x00\n            /* \"--CODEGEN--\":3352:3354   */\n          0x20\n            /* \"--CODEGEN--\":3341:3350   */\n          dup3\n            /* \"--CODEGEN--\":3337:3355   */\n          add\n            /* \"--CODEGEN--\":3329:3355   */\n          swap1\n          pop\n            /* \"--CODEGEN--\":3366:3437   */\n          tag_137\n            /* \"--CODEGEN--\":3434:3435   */\n          0x00\n            /* \"--CODEGEN--\":3423:3432   */\n          dup4\n            /* \"--CODEGEN--\":3419:3436   */\n          add\n            /* \"--CODEGEN--\":3410:3416   */\n          dup5\n            /* \"--CODEGEN--\":3366:3437   */\n          jump(tag_124)\n        tag_137:\n            /* \"--CODEGEN--\":3323:3447   */\n          swap3\n          swap2\n          pop\n          pop\n          jump\n            /* \"--CODEGEN--\":3454:3659   */\n        tag_40:\n          0x00\n            /* \"--CODEGEN--\":3568:3570   */\n          0x20\n            /* \"--CODEGEN--\":3557:3566   */\n          dup3\n            /* \"--CODEGEN--\":3553:3571   */\n          add\n            /* \"--CODEGEN--\":3545:3571   */\n          swap1\n          pop\n            /* \"--CODEGEN--\":3582:3649   */\n          tag_139\n            /* \"--CODEGEN--\":3646:3647   */\n          0x00\n            /* \"--CODEGEN--\":3635:3644   */\n          dup4\n            /* \"--CODEGEN--\":3631:3648   */\n          add\n            /* \"--CODEGEN--\":3622:3628   */\n          dup5\n            /* \"--CODEGEN--\":3582:3649   */\n          jump(tag_128)\n        tag_139:\n            /* \"--CODEGEN--\":3539:3659   */\n          swap3\n          swap2\n          pop\n          pop\n          jump\n            /* \"--CODEGEN--\":3666:3788   */\n        tag_117:\n          0x00\n            /* \"--CODEGEN--\":3760:3765   */\n          dup2\n            /* \"--CODEGEN--\":3754:3766   */\n          mload\n            /* \"--CODEGEN--\":3744:3766   */\n          swap1\n          pop\n            /* \"--CODEGEN--\":3725:3788   */\n          swap2\n          swap1\n          pop\n          jump\n            /* \"--CODEGEN--\":3796:3959   */\n        tag_119:\n          0x00\n            /* \"--CODEGEN--\":3911:3917   */\n          dup3\n            /* \"--CODEGEN--\":3906:3909   */\n          dup3\n            /* \"--CODEGEN--\":3899:3918   */\n          mstore\n            /* \"--CODEGEN--\":3948:3952   */\n          0x20\n            /* \"--CODEGEN--\":3943:3946   */\n          dup3\n            /* \"--CODEGEN--\":3939:3953   */\n          add\n            /* \"--CODEGEN--\":3924:3953   */\n          swap1\n          pop\n            /* \"--CODEGEN--\":3892:3959   */\n          swap3\n          swap2\n          pop\n          pop\n          jump\n            /* \"--CODEGEN--\":3967:4058   */\n        tag_142:\n          0x00\n            /* \"--CODEGEN--\":4029:4053   */\n          tag_144\n            /* \"--CODEGEN--\":4047:4052   */\n          dup3\n            /* \"--CODEGEN--\":4029:4053   */\n          jump(tag_145)\n        tag_144:\n            /* \"--CODEGEN--\":4018:4053   */\n          swap1\n          pop\n            /* \"--CODEGEN--\":4012:4058   */\n          swap2\n          swap1\n          pop\n          jump\n            /* \"--CODEGEN--\":4065:4150   */\n        tag_113:\n          0x00\n            /* \"--CODEGEN--\":4138:4143   */\n          dup2\n            /* \"--CODEGEN--\":4131:4144   */\n          iszero\n            /* \"--CODEGEN--\":4124:4145   */\n          iszero\n            /* \"--CODEGEN--\":4113:4145   */\n          swap1\n          pop\n            /* \"--CODEGEN--\":4107:4150   */\n          swap2\n          swap1\n          pop\n          jump\n            /* \"--CODEGEN--\":4157:4278   */\n        tag_145:\n          0x00\n            /* \"--CODEGEN--\":4230:4272   */\n          0xffffffffffffffffffffffffffffffffffffffff\n            /* \"--CODEGEN--\":4223:4228   */\n          dup3\n            /* \"--CODEGEN--\":4219:4273   */\n          and\n            /* \"--CODEGEN--\":4208:4273   */\n          swap1\n          pop\n            /* \"--CODEGEN--\":4202:4278   */\n          swap2\n          swap1\n          pop\n          jump\n            /* \"--CODEGEN--\":4285:4357   */\n        tag_127:\n          0x00\n            /* \"--CODEGEN--\":4347:4352   */\n          dup2\n            /* \"--CODEGEN--\":4336:4352   */\n          swap1\n          pop\n            /* \"--CODEGEN--\":4330:4357   */\n          swap2\n          swap1\n          pop\n          jump\n            /* \"--CODEGEN--\":4364:4445   */\n        tag_131:\n          0x00\n            /* \"--CODEGEN--\":4435:4439   */\n          0xff\n            /* \"--CODEGEN--\":4428:4433   */\n          dup3\n            /* \"--CODEGEN--\":4424:4440   */\n          and\n            /* \"--CODEGEN--\":4413:4440   */\n          swap1\n          pop\n            /* \"--CODEGEN--\":4407:4445   */\n          swap2\n          swap1\n          pop\n          jump\n            /* \"--CODEGEN--\":4453:4721   */\n        tag_121:\n            /* \"--CODEGEN--\":4518:4519   */\n          0x00\n            /* \"--CODEGEN--\":4525:4626   */\n        tag_151:\n            /* \"--CODEGEN--\":4539:4545   */\n          dup4\n            /* \"--CODEGEN--\":4536:4537   */\n          dup2\n            /* \"--CODEGEN--\":4533:4546   */\n          lt\n            /* \"--CODEGEN--\":4525:4626   */\n          iszero\n          tag_153\n          jumpi\n            /* \"--CODEGEN--\":4615:4616   */\n          dup1\n            /* \"--CODEGEN--\":4610:4613   */\n          dup3\n            /* \"--CODEGEN--\":4606:4617   */\n          add\n            /* \"--CODEGEN--\":4600:4618   */\n          mload\n            /* \"--CODEGEN--\":4596:4597   */\n          dup2\n            /* \"--CODEGEN--\":4591:4594   */\n          dup5\n            /* \"--CODEGEN--\":4587:4598   */\n          add\n            /* \"--CODEGEN--\":4580:4619   */\n          mstore\n            /* \"--CODEGEN--\":4561:4563   */\n          0x20\n            /* \"--CODEGEN--\":4558:4559   */\n          dup2\n            /* \"--CODEGEN--\":4554:4564   */\n          add\n            /* \"--CODEGEN--\":4549:4564   */\n          swap1\n          pop\n            /* \"--CODEGEN--\":4525:4626   */\n          jump(tag_151)\n        tag_153:\n            /* \"--CODEGEN--\":4641:4647   */\n          dup4\n            /* \"--CODEGEN--\":4638:4639   */\n          dup2\n            /* \"--CODEGEN--\":4635:4648   */\n          gt\n            /* \"--CODEGEN--\":4632:4634   */\n          iszero\n          tag_154\n          jumpi\n            /* \"--CODEGEN--\":4706:4707   */\n          0x00\n            /* \"--CODEGEN--\":4697:4703   */\n          dup5\n            /* \"--CODEGEN--\":4692:4695   */\n          dup5\n            /* \"--CODEGEN--\":4688:4704   */\n          add\n            /* \"--CODEGEN--\":4681:4708   */\n          mstore\n            /* \"--CODEGEN--\":4632:4634   */\n        tag_154:\n            /* \"--CODEGEN--\":4502:4721   */\n          pop\n          pop\n          pop\n          pop\n          jump\n            /* \"--CODEGEN--\":4729:4826   */\n        tag_123:\n          0x00\n            /* \"--CODEGEN--\":4817:4819   */\n          0x1f\n            /* \"--CODEGEN--\":4813:4820   */\n          not\n            /* \"--CODEGEN--\":4808:4810   */\n          0x1f\n            /* \"--CODEGEN--\":4801:4806   */\n          dup4\n            /* \"--CODEGEN--\":4797:4811   */\n          add\n            /* \"--CODEGEN--\":4793:4821   */\n          and\n            /* \"--CODEGEN--\":4783:4821   */\n          swap1\n          pop\n            /* \"--CODEGEN--\":4777:4826   */\n          swap2\n          swap1\n          pop\n          jump\n            /* \"--CODEGEN--\":4834:4951   */\n        tag_86:\n            /* \"--CODEGEN--\":4903:4927   */\n          tag_157\n            /* \"--CODEGEN--\":4921:4926   */\n          dup2\n            /* \"--CODEGEN--\":4903:4927   */\n          jump(tag_142)\n        tag_157:\n            /* \"--CODEGEN--\":4896:4901   */\n          dup2\n            /* \"--CODEGEN--\":4893:4928   */\n          eq\n            /* \"--CODEGEN--\":4883:4885   */\n          tag_158\n          jumpi\n            /* \"--CODEGEN--\":4942:4943   */\n          0x00\n            /* \"--CODEGEN--\":4939:4940   */\n          dup1\n            /* \"--CODEGEN--\":4932:4944   */\n          revert\n            /* \"--CODEGEN--\":4883:4885   */\n        tag_158:\n            /* \"--CODEGEN--\":4877:4951   */\n          pop\n          jump\n            /* \"--CODEGEN--\":4958:5075   */\n        tag_90:\n            /* \"--CODEGEN--\":5027:5051   */\n          tag_160\n            /* \"--CODEGEN--\":5045:5050   */\n          dup2\n            /* \"--CODEGEN--\":5027:5051   */\n          jump(tag_127)\n        tag_160:\n            /* \"--CODEGEN--\":5020:5025   */\n          dup2\n            /* \"--CODEGEN--\":5017:5052   */\n          eq\n            /* \"--CODEGEN--\":5007:5009   */\n          tag_161\n          jumpi\n            /* \"--CODEGEN--\":5066:5067   */\n          0x00\n            /* \"--CODEGEN--\":5063:5064   */\n          dup1\n            /* \"--CODEGEN--\":5056:5068   */\n          revert\n            /* \"--CODEGEN--\":5007:5009   */\n        tag_161:\n            /* \"--CODEGEN--\":5001:5075   */\n          pop\n          jump\n\n        auxdata: 0xa2646970667358221220f48d0e283ae81509f88b7d48d6126e5a2a7f752e9c95b8bc53c98f6bb2ae698364736f6c63430006060033\n    }\n}\n",
				"bytecode": {
					"linkReferences": {},
					"object": "60806040523480156200001157600080fd5b506127106040516200002390620000d3565b6200002f9190620000f2565b604051809103906000f0801580156200004c573d6000803e3d6000fd5b506000806101000a81548173ffffffffffffffffffffffffffffffffffffffff021916908373ffffffffffffffffffffffffffffffffffffffff16021790555033600160006101000a81548173ffffffffffffffffffffffffffffffffffffffff021916908373ffffffffffffffffffffffffffffffffffffffff1602179055506200012d565b610e7f80620015b383390190565b620000ec8162000119565b82525050565b6000602082019050620001096000830184620000e1565b92915050565b6000819050919050565b600062000126826200010f565b9050919050565b611476806200013d6000396000f3fe6080604052600436106100915760003560e01c8063c66dca4011610059578063c66dca4014610169578063ce8f2f3814610192578063d00df296146101cf578063e33f34a01461020e578063f77740911461023957610091565b80631246f6e2146100965780631fccb33c146100bf5780632076b56c146100ea578063722713f7146101135780638da5cb5b1461013e575b600080fd5b3480156100a257600080fd5b506100bd60048036038101906100b89190610dbb565b610255565b005b3480156100cb57600080fd5b506100d4610376565b6040516100e19190611121565b60405180910390f35b3480156100f657600080fd5b50610111600480360381019061010c9190610d67565b61045f565b005b34801561011f57600080fd5b506101286105f0565b6040516101359190611233565b60405180910390f35b34801561014a57600080fd5b506101536106a1565b60405161016091906110dd565b60405180910390f35b34801561017557600080fd5b50610190600480360381019061018b9190610d26565b6106c7565b005b34801561019e57600080fd5b506101b960048036038101906101b49190610cd4565b6107cd565b6040516101c69190611233565b60405180910390f35b3480156101db57600080fd5b506101f660048036038101906101f19190610d26565b6107eb565b60405161020593929190611195565b60405180910390f35b34801561021a57600080fd5b506102236108d0565b6040516102309190611233565b60405180910390f35b610253600480360381019061024e9190610dbb565b610981565b005b33600160009054906101000a900473ffffffffffffffffffffffffffffffffffffffff1673ffffffffffffffffffffffffffffffffffffffff168173ffffffffffffffffffffffffffffffffffffffff16146102e6576040517f08c379a00000000000000000000000000000000000000000000000000000000081526004016102dd906111d3565b60405180910390fd5b6000809054906101000a900473ffffffffffffffffffffffffffffffffffffffff1673ffffffffffffffffffffffffffffffffffffffff16631d43cc98836040518263ffffffff1660e01b81526004016103409190611233565b600060405180830381600087803b15801561035a57600080fd5b505af115801561036e573d6000803e3d6000fd5b505050505050565b60606004805480602002602001604051908101604052809291908181526020016000905b82821015610456578382906000526020600020018054600181600116156101000203166002900480601f0160208091040260200160405190810160405280929190818152602001828054600181600116156101000203166002900480156104425780601f1061041757610100808354040283529160200191610442565b820191906000526020600020905b81548152906001019060200180831161042557829003601f168201915b50505050508152602001906001019061039a565b50505050905090565b33600160009054906101000a900473ffffffffffffffffffffffffffffffffffffffff1673ffffffffffffffffffffffffffffffffffffffff168173ffffffffffffffffffffffffffffffffffffffff16146104f0576040517f08c379a00000000000000000000000000000000000000000000000000000000081526004016104e7906111d3565b60405180910390fd5b60405180606001604052808481526020018381526020016001151581525060038460405161051e9190611090565b90815260200160405180910390206000820151816000019080519060200190610548929190610b87565b506020820151816001015560408201518160020160006101000a81548160ff0219169083151502179055509050506004839080600181540180825580915050600190039060005260206000200160009091909190915090805190602001906105b1929190610b87565b507fef69c38fe63a06c66bf59a6eedc8716eba333ed78488e0b767455a9cf2eecbb383836040516105e3929190611165565b60405180910390a1505050565b60008060009054906101000a900473ffffffffffffffffffffffffffffffffffffffff1673ffffffffffffffffffffffffffffffffffffffff166370a08231306040518263ffffffff1660e01b815260040161064c91906110a7565b60206040518083038186803b15801561066457600080fd5b505afa158015610678573d6000803e3d6000fd5b505050506040513d601f19601f8201168201806040525081019061069c9190610de4565b905090565b600160009054906101000a900473ffffffffffffffffffffffffffffffffffffffff1681565b33600160009054906101000a900473ffffffffffffffffffffffffffffffffffffffff1673ffffffffffffffffffffffffffffffffffffffff168173ffffffffffffffffffffffffffffffffffffffff1614610758576040517f08c379a000000000000000000000000000000000000000000000000000000000815260040161074f906111d3565b60405180910390fd5b600060038360405161076a9190611090565b908152602001604051809103902060020160006101000a81548160ff0219169083151502179055507f24ba6c881728980191398db8dcfd8ed4f6aeb1c08df349d63f3b85075f3e86dd826040516107c19190611143565b60405180910390a15050565b60026020528060005260406000206000915090508060000154905081565b600381805160208101820180518482526020830160208501208183528095505050505050600091509050806000018054600181600116156101000203166002900480601f0160208091040260200160405190810160405280929190818152602001828054600181600116156101000203166002900480156108ad5780601f10610882576101008083540402835291602001916108ad565b820191906000526020600020905b81548152906001019060200180831161089057829003601f168201915b5050505050908060010154908060020160009054906101000a900460ff16905083565b60008060009054906101000a900473ffffffffffffffffffffffffffffffffffffffff1673ffffffffffffffffffffffffffffffffffffffff166370a08231336040518263ffffffff1660e01b815260040161092c91906110c2565b60206040518083038186803b15801561094457600080fd5b505afa158015610958573d6000803e3d6000fd5b505050506040513d601f19601f8201168201806040525081019061097c9190610de4565b905090565b600061098c82610b73565b9050803410156109d1576040517f08c379a00000000000000000000000000000000000000000000000000000000081526004016109c8906111f3565b60405180910390fd5b600081340390503373ffffffffffffffffffffffffffffffffffffffff166108fc829081150290604051600060405180830381858888f19350505050158015610a1e573d6000803e3d6000fd5b506000610a296105f0565b905080841115610a6e576040517f08c379a0000000000000000000000000000000000000000000000000000000008152600401610a6590611213565b60405180910390fd5b6000809054906101000a900473ffffffffffffffffffffffffffffffffffffffff1673ffffffffffffffffffffffffffffffffffffffff1663a9059cbb33866040518363ffffffff1660e01b8152600401610aca9291906110f8565b602060405180830381600087803b158015610ae457600080fd5b505af1158015610af8573d6000803e3d6000fd5b505050506040513d601f19601f82011682018060405250810190610b1c9190610cfd565b5083600260003373ffffffffffffffffffffffffffffffffffffffff1673ffffffffffffffffffffffffffffffffffffffff1681526020019081526020016000206000016000828254019250508190555050505050565b600067016345785d8a000082029050919050565b828054600181600116156101000203166002900490600052602060002090601f016020900481019282601f10610bc857805160ff1916838001178555610bf6565b82800160010185558215610bf6579182015b82811115610bf5578251825591602001919060010190610bda565b5b509050610c039190610c07565b5090565b610c2991905b80821115610c25576000816000905550600101610c0d565b5090565b90565b600081359050610c3b816113fb565b92915050565b600081519050610c5081611412565b92915050565b600082601f830112610c6757600080fd5b8135610c7a610c758261127b565b61124e565b91508082526020830160208301858383011115610c9657600080fd5b610ca18382846113a8565b50505092915050565b600081359050610cb981611429565b92915050565b600081519050610cce81611429565b92915050565b600060208284031215610ce657600080fd5b6000610cf484828501610c2c565b91505092915050565b600060208284031215610d0f57600080fd5b6000610d1d84828501610c41565b91505092915050565b600060208284031215610d3857600080fd5b600082013567ffffffffffffffff811115610d5257600080fd5b610d5e84828501610c56565b91505092915050565b60008060408385031215610d7a57600080fd5b600083013567ffffffffffffffff811115610d9457600080fd5b610da085828601610c56565b9250506020610db185828601610caa565b9150509250929050565b600060208284031215610dcd57600080fd5b6000610ddb84828501610caa565b91505092915050565b600060208284031215610df657600080fd5b6000610e0484828501610cbf565b91505092915050565b6000610e198383610ed2565b905092915050565b610e2a81611372565b82525050565b610e398161132a565b82525050565b610e4881611318565b82525050565b6000610e59826112b7565b610e6381856112da565b935083602082028501610e75856112a7565b8060005b85811015610eb15784840389528151610e928582610e0d565b9450610e9d836112cd565b925060208a01995050600181019050610e79565b50829750879550505050505092915050565b610ecc8161133c565b82525050565b6000610edd826112c2565b610ee781856112eb565b9350610ef78185602086016113b7565b610f00816113ea565b840191505092915050565b6000610f16826112c2565b610f2081856112fc565b9350610f308185602086016113b7565b610f39816113ea565b840191505092915050565b6000610f4f826112c2565b610f59818561130d565b9350610f698185602086016113b7565b80840191505092915050565b6000610f82602e836112fc565b91507f4e6f207469656e6573207065726d69736f73207061726120656a65637574617260008301527f20657374612066756e63696f6e2e0000000000000000000000000000000000006020830152604082019050919050565b6000610fe8602a836112fc565b91507f436f6d707261206d656e6f7320546f6b656e73206f207061676120636f6e206d60008301527f6173206574686572732e000000000000000000000000000000000000000000006020830152604082019050919050565b600061104e6020836112fc565b91507f436f6d70726120756e206e756d65726f206d656e6f7220646520546f6b656e736000830152602082019050919050565b61108a81611368565b82525050565b600061109c8284610f44565b915081905092915050565b60006020820190506110bc6000830184610e3f565b92915050565b60006020820190506110d76000830184610e21565b92915050565b60006020820190506110f26000830184610e30565b92915050565b600060408201905061110d6000830185610e21565b61111a6020830184611081565b9392505050565b6000602082019050818103600083015261113b8184610e4e565b905092915050565b6000602082019050818103600083015261115d8184610f0b565b905092915050565b6000604082019050818103600083015261117f8185610f0b565b905061118e6020830184611081565b9392505050565b600060608201905081810360008301526111af8186610f0b565b90506111be6020830185611081565b6111cb6040830184610ec3565b949350505050565b600060208201905081810360008301526111ec81610f75565b9050919050565b6000602082019050818103600083015261120c81610fdb565b9050919050565b6000602082019050818103600083015261122c81611041565b9050919050565b60006020820190506112486000830184611081565b92915050565b6000604051905081810181811067ffffffffffffffff8211171561127157600080fd5b8060405250919050565b600067ffffffffffffffff82111561129257600080fd5b601f19601f8301169050602081019050919050565b6000819050602082019050919050565b600081519050919050565b600081519050919050565b6000602082019050919050565b600082825260208201905092915050565b600082825260208201905092915050565b600082825260208201905092915050565b600081905092915050565b600061132382611348565b9050919050565b600061133582611348565b9050919050565b60008115159050919050565b600073ffffffffffffffffffffffffffffffffffffffff82169050919050565b6000819050919050565b600061137d82611384565b9050919050565b600061138f82611396565b9050919050565b60006113a182611348565b9050919050565b82818337600083830152505050565b60005b838110156113d55780820151818401526020810190506113ba565b838111156113e4576000848401525b50505050565b6000601f19601f8301169050919050565b61140481611318565b811461140f57600080fd5b50565b61141b8161133c565b811461142657600080fd5b50565b61143281611368565b811461143d57600080fd5b5056fea264697066735822122052b2abafa1c12e69ae95015328aa33c02cdb4d631f19628c63887852f8b733ce64736f6c63430006060033608060405234801561001057600080fd5b50604051610e7f380380610e7f83398181016040528101906100329190610099565b806002819055506002546000803373ffffffffffffffffffffffffffffffffffffffff1673ffffffffffffffffffffffffffffffffffffffff16815260200190815260200160002081905550506100e3565b600081519050610093816100cc565b92915050565b6000602082840312156100ab57600080fd5b60006100b984828501610084565b91505092915050565b6000819050919050565b6100d5816100c2565b81146100e057600080fd5b50565b610d8d806100f26000396000f3fe608060405234801561001057600080fd5b506004361061009e5760003560e01c8063313ce56711610066578063313ce5671461015b57806370a082311461017957806395d89b41146101a9578063a9059cbb146101c7578063dd62ed3e146101f75761009e565b806306fdde03146100a3578063095ea7b3146100c157806318160ddd146100f15780631d43cc981461010f57806323b872dd1461012b575b600080fd5b6100ab610227565b6040516100b89190610c1c565b60405180910390f35b6100db60048036038101906100d69190610b36565b610260565b6040516100e89190610c01565b60405180910390f35b6100f9610352565b6040516101069190610c3e565b60405180910390f35b61012960048036038101906101249190610b72565b61035c565b005b61014560048036038101906101409190610ae7565b6103bb565b6040516101529190610c01565b60405180910390f35b610163610736565b6040516101709190610c59565b60405180910390f35b610193600480360381019061018e9190610a82565b61073b565b6040516101a09190610c3e565b60405180910390f35b6101b1610783565b6040516101be9190610c1c565b60405180910390f35b6101e160048036038101906101dc9190610b36565b6107bc565b6040516101ee9190610c01565b60405180910390f35b610211600480360381019061020c9190610aab565b61099e565b60405161021e9190610c3e565b60405180910390f35b6040518060400160405280601181526020017f4552433230426c6f636b636861696e415a00000000000000000000000000000081525081565b600081600160003373ffffffffffffffffffffffffffffffffffffffff1673ffffffffffffffffffffffffffffffffffffffff16815260200190815260200160002060008573ffffffffffffffffffffffffffffffffffffffff1673ffffffffffffffffffffffffffffffffffffffff168152602001908152602001600020819055508273ffffffffffffffffffffffffffffffffffffffff163373ffffffffffffffffffffffffffffffffffffffff167f8c5be1e5ebec7d5bd14f71427d1e84f3dd0314c0f7b2291e5b200ac8c7c3b925846040516103409190610c3e565b60405180910390a36001905092915050565b6000600254905090565b80600260008282540192505081905550806000803373ffffffffffffffffffffffffffffffffffffffff1673ffffffffffffffffffffffffffffffffffffffff1681526020019081526020016000206000828254019250508190555050565b60008060008573ffffffffffffffffffffffffffffffffffffffff1673ffffffffffffffffffffffffffffffffffffffff1681526020019081526020016000205482111561040857600080fd5b600160008573ffffffffffffffffffffffffffffffffffffffff1673ffffffffffffffffffffffffffffffffffffffff16815260200190815260200160002060003373ffffffffffffffffffffffffffffffffffffffff1673ffffffffffffffffffffffffffffffffffffffff1681526020019081526020016000205482111561049157600080fd5b6104e2826000808773ffffffffffffffffffffffffffffffffffffffff1673ffffffffffffffffffffffffffffffffffffffff16815260200190815260200160002054610a2590919063ffffffff16565b6000808673ffffffffffffffffffffffffffffffffffffffff1673ffffffffffffffffffffffffffffffffffffffff168152602001908152602001600020819055506105b382600160008773ffffffffffffffffffffffffffffffffffffffff1673ffffffffffffffffffffffffffffffffffffffff16815260200190815260200160002060003373ffffffffffffffffffffffffffffffffffffffff1673ffffffffffffffffffffffffffffffffffffffff16815260200190815260200160002054610a2590919063ffffffff16565b600160008673ffffffffffffffffffffffffffffffffffffffff1673ffffffffffffffffffffffffffffffffffffffff16815260200190815260200160002060003373ffffffffffffffffffffffffffffffffffffffff1673ffffffffffffffffffffffffffffffffffffffff16815260200190815260200160002081905550610684826000808673ffffffffffffffffffffffffffffffffffffffff1673ffffffffffffffffffffffffffffffffffffffff16815260200190815260200160002054610a3c90919063ffffffff16565b6000808573ffffffffffffffffffffffffffffffffffffffff1673ffffffffffffffffffffffffffffffffffffffff168152602001908152602001600020819055508273ffffffffffffffffffffffffffffffffffffffff168473ffffffffffffffffffffffffffffffffffffffff167fddf252ad1be2c89b69c2b068fc378daa952ba7f163c4a11628f55a4df523b3ef846040516107239190610c3e565b60405180910390a3600190509392505050565b601281565b60008060008373ffffffffffffffffffffffffffffffffffffffff1673ffffffffffffffffffffffffffffffffffffffff168152602001908152602001600020549050919050565b6040518060400160405280600381526020017f455243000000000000000000000000000000000000000000000000000000000081525081565b60008060003373ffffffffffffffffffffffffffffffffffffffff1673ffffffffffffffffffffffffffffffffffffffff1681526020019081526020016000205482111561080957600080fd5b61085a826000803373ffffffffffffffffffffffffffffffffffffffff1673ffffffffffffffffffffffffffffffffffffffff16815260200190815260200160002054610a2590919063ffffffff16565b6000803373ffffffffffffffffffffffffffffffffffffffff1673ffffffffffffffffffffffffffffffffffffffff168152602001908152602001600020819055506108ed826000808673ffffffffffffffffffffffffffffffffffffffff1673ffffffffffffffffffffffffffffffffffffffff16815260200190815260200160002054610a3c90919063ffffffff16565b6000808573ffffffffffffffffffffffffffffffffffffffff1673ffffffffffffffffffffffffffffffffffffffff168152602001908152602001600020819055508273ffffffffffffffffffffffffffffffffffffffff163373ffffffffffffffffffffffffffffffffffffffff167fddf252ad1be2c89b69c2b068fc378daa952ba7f163c4a11628f55a4df523b3ef8460405161098c9190610c3e565b60405180910390a36001905092915050565b6000600160008473ffffffffffffffffffffffffffffffffffffffff1673ffffffffffffffffffffffffffffffffffffffff16815260200190815260200160002060008373ffffffffffffffffffffffffffffffffffffffff1673ffffffffffffffffffffffffffffffffffffffff16815260200190815260200160002054905092915050565b600082821115610a3157fe5b818303905092915050565b600080828401905083811015610a4e57fe5b8091505092915050565b600081359050610a6781610d29565b92915050565b600081359050610a7c81610d40565b92915050565b600060208284031215610a9457600080fd5b6000610aa284828501610a58565b91505092915050565b60008060408385031215610abe57600080fd5b6000610acc85828601610a58565b9250506020610add85828601610a58565b9150509250929050565b600080600060608486031215610afc57600080fd5b6000610b0a86828701610a58565b9350506020610b1b86828701610a58565b9250506040610b2c86828701610a6d565b9150509250925092565b60008060408385031215610b4957600080fd5b6000610b5785828601610a58565b9250506020610b6885828601610a6d565b9150509250929050565b600060208284031215610b8457600080fd5b6000610b9284828501610a6d565b91505092915050565b610ba481610ca2565b82525050565b6000610bb582610c74565b610bbf8185610c7f565b9350610bcf818560208601610ce5565b610bd881610d18565b840191505092915050565b610bec81610cce565b82525050565b610bfb81610cd8565b82525050565b6000602082019050610c166000830184610b9b565b92915050565b60006020820190508181036000830152610c368184610baa565b905092915050565b6000602082019050610c536000830184610be3565b92915050565b6000602082019050610c6e6000830184610bf2565b92915050565b600081519050919050565b600082825260208201905092915050565b6000610c9b82610cae565b9050919050565b60008115159050919050565b600073ffffffffffffffffffffffffffffffffffffffff82169050919050565b6000819050919050565b600060ff82169050919050565b60005b83811015610d03578082015181840152602081019050610ce8565b83811115610d12576000848401525b50505050565b6000601f19601f8301169050919050565b610d3281610c90565b8114610d3d57600080fd5b50565b610d4981610cce565b8114610d5457600080fd5b5056fea2646970667358221220f48d0e283ae81509f88b7d48d6126e5a2a7f752e9c95b8bc53c98f6bb2ae698364736f6c63430006060033",
					"opcodes": "PUSH1 0x80 PUSH1 0x40 MSTORE CALLVALUE DUP1 ISZERO PUSH3 0x11 JUMPI PUSH1 0x0 DUP1 REVERT JUMPDEST POP PUSH2 0x2710 PUSH1 0x40 MLOAD PUSH3 0x23 SWAP1 PUSH3 0xD3 JUMP JUMPDEST PUSH3 0x2F SWAP2 SWAP1 PUSH3 0xF2 JUMP JUMPDEST PUSH1 0x40 MLOAD DUP1 SWAP2 SUB SWAP1 PUSH1 0x0 CREATE DUP1 ISZERO DUP1 ISZERO PUSH3 0x4C JUMPI RETURNDATASIZE PUSH1 0x0 DUP1 RETURNDATACOPY RETURNDATASIZE PUSH1 0x0 REVERT JUMPDEST POP PUSH1 0x0 DUP1 PUSH2 0x100 EXP DUP2 SLOAD DUP2 PUSH20 0xFFFFFFFFFFFFFFFFFFFFFFFFFFFFFFFFFFFFFFFF MUL NOT AND SWAP1 DUP4 PUSH20 0xFFFFFFFFFFFFFFFFFFFFFFFFFFFFFFFFFFFFFFFF AND MUL OR SWAP1 SSTORE POP CALLER PUSH1 0x1 PUSH1 0x0 PUSH2 0x100 EXP DUP2 SLOAD DUP2 PUSH20 0xFFFFFFFFFFFFFFFFFFFFFFFFFFFFFFFFFFFFFFFF MUL NOT AND SWAP1 DUP4 PUSH20 0xFFFFFFFFFFFFFFFFFFFFFFFFFFFFFFFFFFFFFFFF AND MUL OR SWAP1 SSTORE POP PUSH3 0x12D JUMP JUMPDEST PUSH2 0xE7F DUP1 PUSH3 0x15B3 DUP4 CODECOPY ADD SWAP1 JUMP JUMPDEST PUSH3 0xEC DUP2 PUSH3 0x119 JUMP JUMPDEST DUP3 MSTORE POP POP JUMP JUMPDEST PUSH1 0x0 PUSH1 0x20 DUP3 ADD SWAP1 POP PUSH3 0x109 PUSH1 0x0 DUP4 ADD DUP5 PUSH3 0xE1 JUMP JUMPDEST SWAP3 SWAP2 POP POP JUMP JUMPDEST PUSH1 0x0 DUP2 SWAP1 POP SWAP2 SWAP1 POP JUMP JUMPDEST PUSH1 0x0 PUSH3 0x126 DUP3 PUSH3 0x10F JUMP JUMPDEST SWAP1 POP SWAP2 SWAP1 POP JUMP JUMPDEST PUSH2 0x1476 DUP1 PUSH3 0x13D PUSH1 0x0 CODECOPY PUSH1 0x0 RETURN INVALID PUSH1 0x80 PUSH1 0x40 MSTORE PUSH1 0x4 CALLDATASIZE LT PUSH2 0x91 JUMPI PUSH1 0x0 CALLDATALOAD PUSH1 0xE0 SHR DUP1 PUSH4 0xC66DCA40 GT PUSH2 0x59 JUMPI DUP1 PUSH4 0xC66DCA40 EQ PUSH2 0x169 JUMPI DUP1 PUSH4 0xCE8F2F38 EQ PUSH2 0x192 JUMPI DUP1 PUSH4 0xD00DF296 EQ PUSH2 0x1CF JUMPI DUP1 PUSH4 0xE33F34A0 EQ PUSH2 0x20E JUMPI DUP1 PUSH4 0xF7774091 EQ PUSH2 0x239 JUMPI PUSH2 0x91 JUMP JUMPDEST DUP1 PUSH4 0x1246F6E2 EQ PUSH2 0x96 JUMPI DUP1 PUSH4 0x1FCCB33C EQ PUSH2 0xBF JUMPI DUP1 PUSH4 0x2076B56C EQ PUSH2 0xEA JUMPI DUP1 PUSH4 0x722713F7 EQ PUSH2 0x113 JUMPI DUP1 PUSH4 0x8DA5CB5B EQ PUSH2 0x13E JUMPI JUMPDEST PUSH1 0x0 DUP1 REVERT JUMPDEST CALLVALUE DUP1 ISZERO PUSH2 0xA2 JUMPI PUSH1 0x0 DUP1 REVERT JUMPDEST POP PUSH2 0xBD PUSH1 0x4 DUP1 CALLDATASIZE SUB DUP2 ADD SWAP1 PUSH2 0xB8 SWAP2 SWAP1 PUSH2 0xDBB JUMP JUMPDEST PUSH2 0x255 JUMP JUMPDEST STOP JUMPDEST CALLVALUE DUP1 ISZERO PUSH2 0xCB JUMPI PUSH1 0x0 DUP1 REVERT JUMPDEST POP PUSH2 0xD4 PUSH2 0x376 JUMP JUMPDEST PUSH1 0x40 MLOAD PUSH2 0xE1 SWAP2 SWAP1 PUSH2 0x1121 JUMP JUMPDEST PUSH1 0x40 MLOAD DUP1 SWAP2 SUB SWAP1 RETURN JUMPDEST CALLVALUE DUP1 ISZERO PUSH2 0xF6 JUMPI PUSH1 0x0 DUP1 REVERT JUMPDEST POP PUSH2 0x111 PUSH1 0x4 DUP1 CALLDATASIZE SUB DUP2 ADD SWAP1 PUSH2 0x10C SWAP2 SWAP1 PUSH2 0xD67 JUMP JUMPDEST PUSH2 0x45F JUMP JUMPDEST STOP JUMPDEST CALLVALUE DUP1 ISZERO PUSH2 0x11F JUMPI PUSH1 0x0 DUP1 REVERT JUMPDEST POP PUSH2 0x128 PUSH2 0x5F0 JUMP JUMPDEST PUSH1 0x40 MLOAD PUSH2 0x135 SWAP2 SWAP1 PUSH2 0x1233 JUMP JUMPDEST PUSH1 0x40 MLOAD DUP1 SWAP2 SUB SWAP1 RETURN JUMPDEST CALLVALUE DUP1 ISZERO PUSH2 0x14A JUMPI PUSH1 0x0 DUP1 REVERT JUMPDEST POP PUSH2 0x153 PUSH2 0x6A1 JUMP JUMPDEST PUSH1 0x40 MLOAD PUSH2 0x160 SWAP2 SWAP1 PUSH2 0x10DD JUMP JUMPDEST PUSH1 0x40 MLOAD DUP1 SWAP2 SUB SWAP1 RETURN JUMPDEST CALLVALUE DUP1 ISZERO PUSH2 0x175 JUMPI PUSH1 0x0 DUP1 REVERT JUMPDEST POP PUSH2 0x190 PUSH1 0x4 DUP1 CALLDATASIZE SUB DUP2 ADD SWAP1 PUSH2 0x18B SWAP2 SWAP1 PUSH2 0xD26 JUMP JUMPDEST PUSH2 0x6C7 JUMP JUMPDEST STOP JUMPDEST CALLVALUE DUP1 ISZERO PUSH2 0x19E JUMPI PUSH1 0x0 DUP1 REVERT JUMPDEST POP PUSH2 0x1B9 PUSH1 0x4 DUP1 CALLDATASIZE SUB DUP2 ADD SWAP1 PUSH2 0x1B4 SWAP2 SWAP1 PUSH2 0xCD4 JUMP JUMPDEST PUSH2 0x7CD JUMP JUMPDEST PUSH1 0x40 MLOAD PUSH2 0x1C6 SWAP2 SWAP1 PUSH2 0x1233 JUMP JUMPDEST PUSH1 0x40 MLOAD DUP1 SWAP2 SUB SWAP1 RETURN JUMPDEST CALLVALUE DUP1 ISZERO PUSH2 0x1DB JUMPI PUSH1 0x0 DUP1 REVERT JUMPDEST POP PUSH2 0x1F6 PUSH1 0x4 DUP1 CALLDATASIZE SUB DUP2 ADD SWAP1 PUSH2 0x1F1 SWAP2 SWAP1 PUSH2 0xD26 JUMP JUMPDEST PUSH2 0x7EB JUMP JUMPDEST PUSH1 0x40 MLOAD PUSH2 0x205 SWAP4 SWAP3 SWAP2 SWAP1 PUSH2 0x1195 JUMP JUMPDEST PUSH1 0x40 MLOAD DUP1 SWAP2 SUB SWAP1 RETURN JUMPDEST CALLVALUE DUP1 ISZERO PUSH2 0x21A JUMPI PUSH1 0x0 DUP1 REVERT JUMPDEST POP PUSH2 0x223 PUSH2 0x8D0 JUMP JUMPDEST PUSH1 0x40 MLOAD PUSH2 0x230 SWAP2 SWAP1 PUSH2 0x1233 JUMP JUMPDEST PUSH1 0x40 MLOAD DUP1 SWAP2 SUB SWAP1 RETURN JUMPDEST PUSH2 0x253 PUSH1 0x4 DUP1 CALLDATASIZE SUB DUP2 ADD SWAP1 PUSH2 0x24E SWAP2 SWAP1 PUSH2 0xDBB JUMP JUMPDEST PUSH2 0x981 JUMP JUMPDEST STOP JUMPDEST CALLER PUSH1 0x1 PUSH1 0x0 SWAP1 SLOAD SWAP1 PUSH2 0x100 EXP SWAP1 DIV PUSH20 0xFFFFFFFFFFFFFFFFFFFFFFFFFFFFFFFFFFFFFFFF AND PUSH20 0xFFFFFFFFFFFFFFFFFFFFFFFFFFFFFFFFFFFFFFFF AND DUP2 PUSH20 0xFFFFFFFFFFFFFFFFFFFFFFFFFFFFFFFFFFFFFFFF AND EQ PUSH2 0x2E6 JUMPI PUSH1 0x40 MLOAD PUSH32 0x8C379A000000000000000000000000000000000000000000000000000000000 DUP2 MSTORE PUSH1 0x4 ADD PUSH2 0x2DD SWAP1 PUSH2 0x11D3 JUMP JUMPDEST PUSH1 0x40 MLOAD DUP1 SWAP2 SUB SWAP1 REVERT JUMPDEST PUSH1 0x0 DUP1 SWAP1 SLOAD SWAP1 PUSH2 0x100 EXP SWAP1 DIV PUSH20 0xFFFFFFFFFFFFFFFFFFFFFFFFFFFFFFFFFFFFFFFF AND PUSH20 0xFFFFFFFFFFFFFFFFFFFFFFFFFFFFFFFFFFFFFFFF AND PUSH4 0x1D43CC98 DUP4 PUSH1 0x40 MLOAD DUP3 PUSH4 0xFFFFFFFF AND PUSH1 0xE0 SHL DUP2 MSTORE PUSH1 0x4 ADD PUSH2 0x340 SWAP2 SWAP1 PUSH2 0x1233 JUMP JUMPDEST PUSH1 0x0 PUSH1 0x40 MLOAD DUP1 DUP4 SUB DUP2 PUSH1 0x0 DUP8 DUP1 EXTCODESIZE ISZERO DUP1 ISZERO PUSH2 0x35A JUMPI PUSH1 0x0 DUP1 REVERT JUMPDEST POP GAS CALL ISZERO DUP1 ISZERO PUSH2 0x36E JUMPI RETURNDATASIZE PUSH1 0x0 DUP1 RETURNDATACOPY RETURNDATASIZE PUSH1 0x0 REVERT JUMPDEST POP POP POP POP POP POP JUMP JUMPDEST PUSH1 0x60 PUSH1 0x4 DUP1 SLOAD DUP1 PUSH1 0x20 MUL PUSH1 0x20 ADD PUSH1 0x40 MLOAD SWAP1 DUP2 ADD PUSH1 0x40 MSTORE DUP1 SWAP3 SWAP2 SWAP1 DUP2 DUP2 MSTORE PUSH1 0x20 ADD PUSH1 0x0 SWAP1 JUMPDEST DUP3 DUP3 LT ISZERO PUSH2 0x456 JUMPI DUP4 DUP3 SWAP1 PUSH1 0x0 MSTORE PUSH1 0x20 PUSH1 0x0 KECCAK256 ADD DUP1 SLOAD PUSH1 0x1 DUP2 PUSH1 0x1 AND ISZERO PUSH2 0x100 MUL SUB AND PUSH1 0x2 SWAP1 DIV DUP1 PUSH1 0x1F ADD PUSH1 0x20 DUP1 SWAP2 DIV MUL PUSH1 0x20 ADD PUSH1 0x40 MLOAD SWAP1 DUP2 ADD PUSH1 0x40 MSTORE DUP1 SWAP3 SWAP2 SWAP1 DUP2 DUP2 MSTORE PUSH1 0x20 ADD DUP3 DUP1 SLOAD PUSH1 0x1 DUP2 PUSH1 0x1 AND ISZERO PUSH2 0x100 MUL SUB AND PUSH1 0x2 SWAP1 DIV DUP1 ISZERO PUSH2 0x442 JUMPI DUP1 PUSH1 0x1F LT PUSH2 0x417 JUMPI PUSH2 0x100 DUP1 DUP4 SLOAD DIV MUL DUP4 MSTORE SWAP2 PUSH1 0x20 ADD SWAP2 PUSH2 0x442 JUMP JUMPDEST DUP3 ADD SWAP2 SWAP1 PUSH1 0x0 MSTORE PUSH1 0x20 PUSH1 0x0 KECCAK256 SWAP1 JUMPDEST DUP2 SLOAD DUP2 MSTORE SWAP1 PUSH1 0x1 ADD SWAP1 PUSH1 0x20 ADD DUP1 DUP4 GT PUSH2 0x425 JUMPI DUP3 SWAP1 SUB PUSH1 0x1F AND DUP3 ADD SWAP2 JUMPDEST POP POP POP POP POP DUP2 MSTORE PUSH1 0x20 ADD SWAP1 PUSH1 0x1 ADD SWAP1 PUSH2 0x39A JUMP JUMPDEST POP POP POP POP SWAP1 POP SWAP1 JUMP JUMPDEST CALLER PUSH1 0x1 PUSH1 0x0 SWAP1 SLOAD SWAP1 PUSH2 0x100 EXP SWAP1 DIV PUSH20 0xFFFFFFFFFFFFFFFFFFFFFFFFFFFFFFFFFFFFFFFF AND PUSH20 0xFFFFFFFFFFFFFFFFFFFFFFFFFFFFFFFFFFFFFFFF AND DUP2 PUSH20 0xFFFFFFFFFFFFFFFFFFFFFFFFFFFFFFFFFFFFFFFF AND EQ PUSH2 0x4F0 JUMPI PUSH1 0x40 MLOAD PUSH32 0x8C379A000000000000000000000000000000000000000000000000000000000 DUP2 MSTORE PUSH1 0x4 ADD PUSH2 0x4E7 SWAP1 PUSH2 0x11D3 JUMP JUMPDEST PUSH1 0x40 MLOAD DUP1 SWAP2 SUB SWAP1 REVERT JUMPDEST PUSH1 0x40 MLOAD DUP1 PUSH1 0x60 ADD PUSH1 0x40 MSTORE DUP1 DUP5 DUP2 MSTORE PUSH1 0x20 ADD DUP4 DUP2 MSTORE PUSH1 0x20 ADD PUSH1 0x1 ISZERO ISZERO DUP2 MSTORE POP PUSH1 0x3 DUP5 PUSH1 0x40 MLOAD PUSH2 0x51E SWAP2 SWAP1 PUSH2 0x1090 JUMP JUMPDEST SWAP1 DUP2 MSTORE PUSH1 0x20 ADD PUSH1 0x40 MLOAD DUP1 SWAP2 SUB SWAP1 KECCAK256 PUSH1 0x0 DUP3 ADD MLOAD DUP2 PUSH1 0x0 ADD SWAP1 DUP1 MLOAD SWAP1 PUSH1 0x20 ADD SWAP1 PUSH2 0x548 SWAP3 SWAP2 SWAP1 PUSH2 0xB87 JUMP JUMPDEST POP PUSH1 0x20 DUP3 ADD MLOAD DUP2 PUSH1 0x1 ADD SSTORE PUSH1 0x40 DUP3 ADD MLOAD DUP2 PUSH1 0x2 ADD PUSH1 0x0 PUSH2 0x100 EXP DUP2 SLOAD DUP2 PUSH1 0xFF MUL NOT AND SWAP1 DUP4 ISZERO ISZERO MUL OR SWAP1 SSTORE POP SWAP1 POP POP PUSH1 0x4 DUP4 SWAP1 DUP1 PUSH1 0x1 DUP2 SLOAD ADD DUP1 DUP3 SSTORE DUP1 SWAP2 POP POP PUSH1 0x1 SWAP1 SUB SWAP1 PUSH1 0x0 MSTORE PUSH1 0x20 PUSH1 0x0 KECCAK256 ADD PUSH1 0x0 SWAP1 SWAP2 SWAP1 SWAP2 SWAP1 SWAP2 POP SWAP1 DUP1 MLOAD SWAP1 PUSH1 0x20 ADD SWAP1 PUSH2 0x5B1 SWAP3 SWAP2 SWAP1 PUSH2 0xB87 JUMP JUMPDEST POP PUSH32 0xEF69C38FE63A06C66BF59A6EEDC8716EBA333ED78488E0B767455A9CF2EECBB3 DUP4 DUP4 PUSH1 0x40 MLOAD PUSH2 0x5E3 SWAP3 SWAP2 SWAP1 PUSH2 0x1165 JUMP JUMPDEST PUSH1 0x40 MLOAD DUP1 SWAP2 SUB SWAP1 LOG1 POP POP POP JUMP JUMPDEST PUSH1 0x0 DUP1 PUSH1 0x0 SWAP1 SLOAD SWAP1 PUSH2 0x100 EXP SWAP1 DIV PUSH20 0xFFFFFFFFFFFFFFFFFFFFFFFFFFFFFFFFFFFFFFFF AND PUSH20 0xFFFFFFFFFFFFFFFFFFFFFFFFFFFFFFFFFFFFFFFF AND PUSH4 0x70A08231 ADDRESS PUSH1 0x40 MLOAD DUP3 PUSH4 0xFFFFFFFF AND PUSH1 0xE0 SHL DUP2 MSTORE PUSH1 0x4 ADD PUSH2 0x64C SWAP2 SWAP1 PUSH2 0x10A7 JUMP JUMPDEST PUSH1 0x20 PUSH1 0x40 MLOAD DUP1 DUP4 SUB DUP2 DUP7 DUP1 EXTCODESIZE ISZERO DUP1 ISZERO PUSH2 0x664 JUMPI PUSH1 0x0 DUP1 REVERT JUMPDEST POP GAS STATICCALL ISZERO DUP1 ISZERO PUSH2 0x678 JUMPI RETURNDATASIZE PUSH1 0x0 DUP1 RETURNDATACOPY RETURNDATASIZE PUSH1 0x0 REVERT JUMPDEST POP POP POP POP PUSH1 0x40 MLOAD RETURNDATASIZE PUSH1 0x1F NOT PUSH1 0x1F DUP3 ADD AND DUP3 ADD DUP1 PUSH1 0x40 MSTORE POP DUP2 ADD SWAP1 PUSH2 0x69C SWAP2 SWAP1 PUSH2 0xDE4 JUMP JUMPDEST SWAP1 POP SWAP1 JUMP JUMPDEST PUSH1 0x1 PUSH1 0x0 SWAP1 SLOAD SWAP1 PUSH2 0x100 EXP SWAP1 DIV PUSH20 0xFFFFFFFFFFFFFFFFFFFFFFFFFFFFFFFFFFFFFFFF AND DUP2 JUMP JUMPDEST CALLER PUSH1 0x1 PUSH1 0x0 SWAP1 SLOAD SWAP1 PUSH2 0x100 EXP SWAP1 DIV PUSH20 0xFFFFFFFFFFFFFFFFFFFFFFFFFFFFFFFFFFFFFFFF AND PUSH20 0xFFFFFFFFFFFFFFFFFFFFFFFFFFFFFFFFFFFFFFFF AND DUP2 PUSH20 0xFFFFFFFFFFFFFFFFFFFFFFFFFFFFFFFFFFFFFFFF AND EQ PUSH2 0x758 JUMPI PUSH1 0x40 MLOAD PUSH32 0x8C379A000000000000000000000000000000000000000000000000000000000 DUP2 MSTORE PUSH1 0x4 ADD PUSH2 0x74F SWAP1 PUSH2 0x11D3 JUMP JUMPDEST PUSH1 0x40 MLOAD DUP1 SWAP2 SUB SWAP1 REVERT JUMPDEST PUSH1 0x0 PUSH1 0x3 DUP4 PUSH1 0x40 MLOAD PUSH2 0x76A SWAP2 SWAP1 PUSH2 0x1090 JUMP JUMPDEST SWAP1 DUP2 MSTORE PUSH1 0x20 ADD PUSH1 0x40 MLOAD DUP1 SWAP2 SUB SWAP1 KECCAK256 PUSH1 0x2 ADD PUSH1 0x0 PUSH2 0x100 EXP DUP2 SLOAD DUP2 PUSH1 0xFF MUL NOT AND SWAP1 DUP4 ISZERO ISZERO MUL OR SWAP1 SSTORE POP PUSH32 0x24BA6C881728980191398DB8DCFD8ED4F6AEB1C08DF349D63F3B85075F3E86DD DUP3 PUSH1 0x40 MLOAD PUSH2 0x7C1 SWAP2 SWAP1 PUSH2 0x1143 JUMP JUMPDEST PUSH1 0x40 MLOAD DUP1 SWAP2 SUB SWAP1 LOG1 POP POP JUMP JUMPDEST PUSH1 0x2 PUSH1 0x20 MSTORE DUP1 PUSH1 0x0 MSTORE PUSH1 0x40 PUSH1 0x0 KECCAK256 PUSH1 0x0 SWAP2 POP SWAP1 POP DUP1 PUSH1 0x0 ADD SLOAD SWAP1 POP DUP2 JUMP JUMPDEST PUSH1 0x3 DUP2 DUP1 MLOAD PUSH1 0x20 DUP2 ADD DUP3 ADD DUP1 MLOAD DUP5 DUP3 MSTORE PUSH1 0x20 DUP4 ADD PUSH1 0x20 DUP6 ADD KECCAK256 DUP2 DUP4 MSTORE DUP1 SWAP6 POP POP POP POP POP POP PUSH1 0x0 SWAP2 POP SWAP1 POP DUP1 PUSH1 0x0 ADD DUP1 SLOAD PUSH1 0x1 DUP2 PUSH1 0x1 AND ISZERO PUSH2 0x100 MUL SUB AND PUSH1 0x2 SWAP1 DIV DUP1 PUSH1 0x1F ADD PUSH1 0x20 DUP1 SWAP2 DIV MUL PUSH1 0x20 ADD PUSH1 0x40 MLOAD SWAP1 DUP2 ADD PUSH1 0x40 MSTORE DUP1 SWAP3 SWAP2 SWAP1 DUP2 DUP2 MSTORE PUSH1 0x20 ADD DUP3 DUP1 SLOAD PUSH1 0x1 DUP2 PUSH1 0x1 AND ISZERO PUSH2 0x100 MUL SUB AND PUSH1 0x2 SWAP1 DIV DUP1 ISZERO PUSH2 0x8AD JUMPI DUP1 PUSH1 0x1F LT PUSH2 0x882 JUMPI PUSH2 0x100 DUP1 DUP4 SLOAD DIV MUL DUP4 MSTORE SWAP2 PUSH1 0x20 ADD SWAP2 PUSH2 0x8AD JUMP JUMPDEST DUP3 ADD SWAP2 SWAP1 PUSH1 0x0 MSTORE PUSH1 0x20 PUSH1 0x0 KECCAK256 SWAP1 JUMPDEST DUP2 SLOAD DUP2 MSTORE SWAP1 PUSH1 0x1 ADD SWAP1 PUSH1 0x20 ADD DUP1 DUP4 GT PUSH2 0x890 JUMPI DUP3 SWAP1 SUB PUSH1 0x1F AND DUP3 ADD SWAP2 JUMPDEST POP POP POP POP POP SWAP1 DUP1 PUSH1 0x1 ADD SLOAD SWAP1 DUP1 PUSH1 0x2 ADD PUSH1 0x0 SWAP1 SLOAD SWAP1 PUSH2 0x100 EXP SWAP1 DIV PUSH1 0xFF AND SWAP1 POP DUP4 JUMP JUMPDEST PUSH1 0x0 DUP1 PUSH1 0x0 SWAP1 SLOAD SWAP1 PUSH2 0x100 EXP SWAP1 DIV PUSH20 0xFFFFFFFFFFFFFFFFFFFFFFFFFFFFFFFFFFFFFFFF AND PUSH20 0xFFFFFFFFFFFFFFFFFFFFFFFFFFFFFFFFFFFFFFFF AND PUSH4 0x70A08231 CALLER PUSH1 0x40 MLOAD DUP3 PUSH4 0xFFFFFFFF AND PUSH1 0xE0 SHL DUP2 MSTORE PUSH1 0x4 ADD PUSH2 0x92C SWAP2 SWAP1 PUSH2 0x10C2 JUMP JUMPDEST PUSH1 0x20 PUSH1 0x40 MLOAD DUP1 DUP4 SUB DUP2 DUP7 DUP1 EXTCODESIZE ISZERO DUP1 ISZERO PUSH2 0x944 JUMPI PUSH1 0x0 DUP1 REVERT JUMPDEST POP GAS STATICCALL ISZERO DUP1 ISZERO PUSH2 0x958 JUMPI RETURNDATASIZE PUSH1 0x0 DUP1 RETURNDATACOPY RETURNDATASIZE PUSH1 0x0 REVERT JUMPDEST POP POP POP POP PUSH1 0x40 MLOAD RETURNDATASIZE PUSH1 0x1F NOT PUSH1 0x1F DUP3 ADD AND DUP3 ADD DUP1 PUSH1 0x40 MSTORE POP DUP2 ADD SWAP1 PUSH2 0x97C SWAP2 SWAP1 PUSH2 0xDE4 JUMP JUMPDEST SWAP1 POP SWAP1 JUMP JUMPDEST PUSH1 0x0 PUSH2 0x98C DUP3 PUSH2 0xB73 JUMP JUMPDEST SWAP1 POP DUP1 CALLVALUE LT ISZERO PUSH2 0x9D1 JUMPI PUSH1 0x40 MLOAD PUSH32 0x8C379A000000000000000000000000000000000000000000000000000000000 DUP2 MSTORE PUSH1 0x4 ADD PUSH2 0x9C8 SWAP1 PUSH2 0x11F3 JUMP JUMPDEST PUSH1 0x40 MLOAD DUP1 SWAP2 SUB SWAP1 REVERT JUMPDEST PUSH1 0x0 DUP2 CALLVALUE SUB SWAP1 POP CALLER PUSH20 0xFFFFFFFFFFFFFFFFFFFFFFFFFFFFFFFFFFFFFFFF AND PUSH2 0x8FC DUP3 SWAP1 DUP2 ISZERO MUL SWAP1 PUSH1 0x40 MLOAD PUSH1 0x0 PUSH1 0x40 MLOAD DUP1 DUP4 SUB DUP2 DUP6 DUP9 DUP9 CALL SWAP4 POP POP POP POP ISZERO DUP1 ISZERO PUSH2 0xA1E JUMPI RETURNDATASIZE PUSH1 0x0 DUP1 RETURNDATACOPY RETURNDATASIZE PUSH1 0x0 REVERT JUMPDEST POP PUSH1 0x0 PUSH2 0xA29 PUSH2 0x5F0 JUMP JUMPDEST SWAP1 POP DUP1 DUP5 GT ISZERO PUSH2 0xA6E JUMPI PUSH1 0x40 MLOAD PUSH32 0x8C379A000000000000000000000000000000000000000000000000000000000 DUP2 MSTORE PUSH1 0x4 ADD PUSH2 0xA65 SWAP1 PUSH2 0x1213 JUMP JUMPDEST PUSH1 0x40 MLOAD DUP1 SWAP2 SUB SWAP1 REVERT JUMPDEST PUSH1 0x0 DUP1 SWAP1 SLOAD SWAP1 PUSH2 0x100 EXP SWAP1 DIV PUSH20 0xFFFFFFFFFFFFFFFFFFFFFFFFFFFFFFFFFFFFFFFF AND PUSH20 0xFFFFFFFFFFFFFFFFFFFFFFFFFFFFFFFFFFFFFFFF AND PUSH4 0xA9059CBB CALLER DUP7 PUSH1 0x40 MLOAD DUP4 PUSH4 0xFFFFFFFF AND PUSH1 0xE0 SHL DUP2 MSTORE PUSH1 0x4 ADD PUSH2 0xACA SWAP3 SWAP2 SWAP1 PUSH2 0x10F8 JUMP JUMPDEST PUSH1 0x20 PUSH1 0x40 MLOAD DUP1 DUP4 SUB DUP2 PUSH1 0x0 DUP8 DUP1 EXTCODESIZE ISZERO DUP1 ISZERO PUSH2 0xAE4 JUMPI PUSH1 0x0 DUP1 REVERT JUMPDEST POP GAS CALL ISZERO DUP1 ISZERO PUSH2 0xAF8 JUMPI RETURNDATASIZE PUSH1 0x0 DUP1 RETURNDATACOPY RETURNDATASIZE PUSH1 0x0 REVERT JUMPDEST POP POP POP POP PUSH1 0x40 MLOAD RETURNDATASIZE PUSH1 0x1F NOT PUSH1 0x1F DUP3 ADD AND DUP3 ADD DUP1 PUSH1 0x40 MSTORE POP DUP2 ADD SWAP1 PUSH2 0xB1C SWAP2 SWAP1 PUSH2 0xCFD JUMP JUMPDEST POP DUP4 PUSH1 0x2 PUSH1 0x0 CALLER PUSH20 0xFFFFFFFFFFFFFFFFFFFFFFFFFFFFFFFFFFFFFFFF AND PUSH20 0xFFFFFFFFFFFFFFFFFFFFFFFFFFFFFFFFFFFFFFFF AND DUP2 MSTORE PUSH1 0x20 ADD SWAP1 DUP2 MSTORE PUSH1 0x20 ADD PUSH1 0x0 KECCAK256 PUSH1 0x0 ADD PUSH1 0x0 DUP3 DUP3 SLOAD ADD SWAP3 POP POP DUP2 SWAP1 SSTORE POP POP POP POP POP JUMP JUMPDEST PUSH1 0x0 PUSH8 0x16345785D8A0000 DUP3 MUL SWAP1 POP SWAP2 SWAP1 POP JUMP JUMPDEST DUP3 DUP1 SLOAD PUSH1 0x1 DUP2 PUSH1 0x1 AND ISZERO PUSH2 0x100 MUL SUB AND PUSH1 0x2 SWAP1 DIV SWAP1 PUSH1 0x0 MSTORE PUSH1 0x20 PUSH1 0x0 KECCAK256 SWAP1 PUSH1 0x1F ADD PUSH1 0x20 SWAP1 DIV DUP2 ADD SWAP3 DUP3 PUSH1 0x1F LT PUSH2 0xBC8 JUMPI DUP1 MLOAD PUSH1 0xFF NOT AND DUP4 DUP1 ADD OR DUP6 SSTORE PUSH2 0xBF6 JUMP JUMPDEST DUP3 DUP1 ADD PUSH1 0x1 ADD DUP6 SSTORE DUP3 ISZERO PUSH2 0xBF6 JUMPI SWAP2 DUP3 ADD JUMPDEST DUP3 DUP2 GT ISZERO PUSH2 0xBF5 JUMPI DUP3 MLOAD DUP3 SSTORE SWAP2 PUSH1 0x20 ADD SWAP2 SWAP1 PUSH1 0x1 ADD SWAP1 PUSH2 0xBDA JUMP JUMPDEST JUMPDEST POP SWAP1 POP PUSH2 0xC03 SWAP2 SWAP1 PUSH2 0xC07 JUMP JUMPDEST POP SWAP1 JUMP JUMPDEST PUSH2 0xC29 SWAP2 SWAP1 JUMPDEST DUP1 DUP3 GT ISZERO PUSH2 0xC25 JUMPI PUSH1 0x0 DUP2 PUSH1 0x0 SWAP1 SSTORE POP PUSH1 0x1 ADD PUSH2 0xC0D JUMP JUMPDEST POP SWAP1 JUMP JUMPDEST SWAP1 JUMP JUMPDEST PUSH1 0x0 DUP2 CALLDATALOAD SWAP1 POP PUSH2 0xC3B DUP2 PUSH2 0x13FB JUMP JUMPDEST SWAP3 SWAP2 POP POP JUMP JUMPDEST PUSH1 0x0 DUP2 MLOAD SWAP1 POP PUSH2 0xC50 DUP2 PUSH2 0x1412 JUMP JUMPDEST SWAP3 SWAP2 POP POP JUMP JUMPDEST PUSH1 0x0 DUP3 PUSH1 0x1F DUP4 ADD SLT PUSH2 0xC67 JUMPI PUSH1 0x0 DUP1 REVERT JUMPDEST DUP2 CALLDATALOAD PUSH2 0xC7A PUSH2 0xC75 DUP3 PUSH2 0x127B JUMP JUMPDEST PUSH2 0x124E JUMP JUMPDEST SWAP2 POP DUP1 DUP3 MSTORE PUSH1 0x20 DUP4 ADD PUSH1 0x20 DUP4 ADD DUP6 DUP4 DUP4 ADD GT ISZERO PUSH2 0xC96 JUMPI PUSH1 0x0 DUP1 REVERT JUMPDEST PUSH2 0xCA1 DUP4 DUP3 DUP5 PUSH2 0x13A8 JUMP JUMPDEST POP POP POP SWAP3 SWAP2 POP POP JUMP JUMPDEST PUSH1 0x0 DUP2 CALLDATALOAD SWAP1 POP PUSH2 0xCB9 DUP2 PUSH2 0x1429 JUMP JUMPDEST SWAP3 SWAP2 POP POP JUMP JUMPDEST PUSH1 0x0 DUP2 MLOAD SWAP1 POP PUSH2 0xCCE DUP2 PUSH2 0x1429 JUMP JUMPDEST SWAP3 SWAP2 POP POP JUMP JUMPDEST PUSH1 0x0 PUSH1 0x20 DUP3 DUP5 SUB SLT ISZERO PUSH2 0xCE6 JUMPI PUSH1 0x0 DUP1 REVERT JUMPDEST PUSH1 0x0 PUSH2 0xCF4 DUP5 DUP3 DUP6 ADD PUSH2 0xC2C JUMP JUMPDEST SWAP2 POP POP SWAP3 SWAP2 POP POP JUMP JUMPDEST PUSH1 0x0 PUSH1 0x20 DUP3 DUP5 SUB SLT ISZERO PUSH2 0xD0F JUMPI PUSH1 0x0 DUP1 REVERT JUMPDEST PUSH1 0x0 PUSH2 0xD1D DUP5 DUP3 DUP6 ADD PUSH2 0xC41 JUMP JUMPDEST SWAP2 POP POP SWAP3 SWAP2 POP POP JUMP JUMPDEST PUSH1 0x0 PUSH1 0x20 DUP3 DUP5 SUB SLT ISZERO PUSH2 0xD38 JUMPI PUSH1 0x0 DUP1 REVERT JUMPDEST PUSH1 0x0 DUP3 ADD CALLDATALOAD PUSH8 0xFFFFFFFFFFFFFFFF DUP2 GT ISZERO PUSH2 0xD52 JUMPI PUSH1 0x0 DUP1 REVERT JUMPDEST PUSH2 0xD5E DUP5 DUP3 DUP6 ADD PUSH2 0xC56 JUMP JUMPDEST SWAP2 POP POP SWAP3 SWAP2 POP POP JUMP JUMPDEST PUSH1 0x0 DUP1 PUSH1 0x40 DUP4 DUP6 SUB SLT ISZERO PUSH2 0xD7A JUMPI PUSH1 0x0 DUP1 REVERT JUMPDEST PUSH1 0x0 DUP4 ADD CALLDATALOAD PUSH8 0xFFFFFFFFFFFFFFFF DUP2 GT ISZERO PUSH2 0xD94 JUMPI PUSH1 0x0 DUP1 REVERT JUMPDEST PUSH2 0xDA0 DUP6 DUP3 DUP7 ADD PUSH2 0xC56 JUMP JUMPDEST SWAP3 POP POP PUSH1 0x20 PUSH2 0xDB1 DUP6 DUP3 DUP7 ADD PUSH2 0xCAA JUMP JUMPDEST SWAP2 POP POP SWAP3 POP SWAP3 SWAP1 POP JUMP JUMPDEST PUSH1 0x0 PUSH1 0x20 DUP3 DUP5 SUB SLT ISZERO PUSH2 0xDCD JUMPI PUSH1 0x0 DUP1 REVERT JUMPDEST PUSH1 0x0 PUSH2 0xDDB DUP5 DUP3 DUP6 ADD PUSH2 0xCAA JUMP JUMPDEST SWAP2 POP POP SWAP3 SWAP2 POP POP JUMP JUMPDEST PUSH1 0x0 PUSH1 0x20 DUP3 DUP5 SUB SLT ISZERO PUSH2 0xDF6 JUMPI PUSH1 0x0 DUP1 REVERT JUMPDEST PUSH1 0x0 PUSH2 0xE04 DUP5 DUP3 DUP6 ADD PUSH2 0xCBF JUMP JUMPDEST SWAP2 POP POP SWAP3 SWAP2 POP POP JUMP JUMPDEST PUSH1 0x0 PUSH2 0xE19 DUP4 DUP4 PUSH2 0xED2 JUMP JUMPDEST SWAP1 POP SWAP3 SWAP2 POP POP JUMP JUMPDEST PUSH2 0xE2A DUP2 PUSH2 0x1372 JUMP JUMPDEST DUP3 MSTORE POP POP JUMP JUMPDEST PUSH2 0xE39 DUP2 PUSH2 0x132A JUMP JUMPDEST DUP3 MSTORE POP POP JUMP JUMPDEST PUSH2 0xE48 DUP2 PUSH2 0x1318 JUMP JUMPDEST DUP3 MSTORE POP POP JUMP JUMPDEST PUSH1 0x0 PUSH2 0xE59 DUP3 PUSH2 0x12B7 JUMP JUMPDEST PUSH2 0xE63 DUP2 DUP6 PUSH2 0x12DA JUMP JUMPDEST SWAP4 POP DUP4 PUSH1 0x20 DUP3 MUL DUP6 ADD PUSH2 0xE75 DUP6 PUSH2 0x12A7 JUMP JUMPDEST DUP1 PUSH1 0x0 JUMPDEST DUP6 DUP2 LT ISZERO PUSH2 0xEB1 JUMPI DUP5 DUP5 SUB DUP10 MSTORE DUP2 MLOAD PUSH2 0xE92 DUP6 DUP3 PUSH2 0xE0D JUMP JUMPDEST SWAP5 POP PUSH2 0xE9D DUP4 PUSH2 0x12CD JUMP JUMPDEST SWAP3 POP PUSH1 0x20 DUP11 ADD SWAP10 POP POP PUSH1 0x1 DUP2 ADD SWAP1 POP PUSH2 0xE79 JUMP JUMPDEST POP DUP3 SWAP8 POP DUP8 SWAP6 POP POP POP POP POP POP SWAP3 SWAP2 POP POP JUMP JUMPDEST PUSH2 0xECC DUP2 PUSH2 0x133C JUMP JUMPDEST DUP3 MSTORE POP POP JUMP JUMPDEST PUSH1 0x0 PUSH2 0xEDD DUP3 PUSH2 0x12C2 JUMP JUMPDEST PUSH2 0xEE7 DUP2 DUP6 PUSH2 0x12EB JUMP JUMPDEST SWAP4 POP PUSH2 0xEF7 DUP2 DUP6 PUSH1 0x20 DUP7 ADD PUSH2 0x13B7 JUMP JUMPDEST PUSH2 0xF00 DUP2 PUSH2 0x13EA JUMP JUMPDEST DUP5 ADD SWAP2 POP POP SWAP3 SWAP2 POP POP JUMP JUMPDEST PUSH1 0x0 PUSH2 0xF16 DUP3 PUSH2 0x12C2 JUMP JUMPDEST PUSH2 0xF20 DUP2 DUP6 PUSH2 0x12FC JUMP JUMPDEST SWAP4 POP PUSH2 0xF30 DUP2 DUP6 PUSH1 0x20 DUP7 ADD PUSH2 0x13B7 JUMP JUMPDEST PUSH2 0xF39 DUP2 PUSH2 0x13EA JUMP JUMPDEST DUP5 ADD SWAP2 POP POP SWAP3 SWAP2 POP POP JUMP JUMPDEST PUSH1 0x0 PUSH2 0xF4F DUP3 PUSH2 0x12C2 JUMP JUMPDEST PUSH2 0xF59 DUP2 DUP6 PUSH2 0x130D JUMP JUMPDEST SWAP4 POP PUSH2 0xF69 DUP2 DUP6 PUSH1 0x20 DUP7 ADD PUSH2 0x13B7 JUMP JUMPDEST DUP1 DUP5 ADD SWAP2 POP POP SWAP3 SWAP2 POP POP JUMP JUMPDEST PUSH1 0x0 PUSH2 0xF82 PUSH1 0x2E DUP4 PUSH2 0x12FC JUMP JUMPDEST SWAP2 POP PUSH32 0x4E6F207469656E6573207065726D69736F73207061726120656A656375746172 PUSH1 0x0 DUP4 ADD MSTORE PUSH32 0x20657374612066756E63696F6E2E000000000000000000000000000000000000 PUSH1 0x20 DUP4 ADD MSTORE PUSH1 0x40 DUP3 ADD SWAP1 POP SWAP2 SWAP1 POP JUMP JUMPDEST PUSH1 0x0 PUSH2 0xFE8 PUSH1 0x2A DUP4 PUSH2 0x12FC JUMP JUMPDEST SWAP2 POP PUSH32 0x436F6D707261206D656E6F7320546F6B656E73206F207061676120636F6E206D PUSH1 0x0 DUP4 ADD MSTORE PUSH32 0x6173206574686572732E00000000000000000000000000000000000000000000 PUSH1 0x20 DUP4 ADD MSTORE PUSH1 0x40 DUP3 ADD SWAP1 POP SWAP2 SWAP1 POP JUMP JUMPDEST PUSH1 0x0 PUSH2 0x104E PUSH1 0x20 DUP4 PUSH2 0x12FC JUMP JUMPDEST SWAP2 POP PUSH32 0x436F6D70726120756E206E756D65726F206D656E6F7220646520546F6B656E73 PUSH1 0x0 DUP4 ADD MSTORE PUSH1 0x20 DUP3 ADD SWAP1 POP SWAP2 SWAP1 POP JUMP JUMPDEST PUSH2 0x108A DUP2 PUSH2 0x1368 JUMP JUMPDEST DUP3 MSTORE POP POP JUMP JUMPDEST PUSH1 0x0 PUSH2 0x109C DUP3 DUP5 PUSH2 0xF44 JUMP JUMPDEST SWAP2 POP DUP2 SWAP1 POP SWAP3 SWAP2 POP POP JUMP JUMPDEST PUSH1 0x0 PUSH1 0x20 DUP3 ADD SWAP1 POP PUSH2 0x10BC PUSH1 0x0 DUP4 ADD DUP5 PUSH2 0xE3F JUMP JUMPDEST SWAP3 SWAP2 POP POP JUMP JUMPDEST PUSH1 0x0 PUSH1 0x20 DUP3 ADD SWAP1 POP PUSH2 0x10D7 PUSH1 0x0 DUP4 ADD DUP5 PUSH2 0xE21 JUMP JUMPDEST SWAP3 SWAP2 POP POP JUMP JUMPDEST PUSH1 0x0 PUSH1 0x20 DUP3 ADD SWAP1 POP PUSH2 0x10F2 PUSH1 0x0 DUP4 ADD DUP5 PUSH2 0xE30 JUMP JUMPDEST SWAP3 SWAP2 POP POP JUMP JUMPDEST PUSH1 0x0 PUSH1 0x40 DUP3 ADD SWAP1 POP PUSH2 0x110D PUSH1 0x0 DUP4 ADD DUP6 PUSH2 0xE21 JUMP JUMPDEST PUSH2 0x111A PUSH1 0x20 DUP4 ADD DUP5 PUSH2 0x1081 JUMP JUMPDEST SWAP4 SWAP3 POP POP POP JUMP JUMPDEST PUSH1 0x0 PUSH1 0x20 DUP3 ADD SWAP1 POP DUP2 DUP2 SUB PUSH1 0x0 DUP4 ADD MSTORE PUSH2 0x113B DUP2 DUP5 PUSH2 0xE4E JUMP JUMPDEST SWAP1 POP SWAP3 SWAP2 POP POP JUMP JUMPDEST PUSH1 0x0 PUSH1 0x20 DUP3 ADD SWAP1 POP DUP2 DUP2 SUB PUSH1 0x0 DUP4 ADD MSTORE PUSH2 0x115D DUP2 DUP5 PUSH2 0xF0B JUMP JUMPDEST SWAP1 POP SWAP3 SWAP2 POP POP JUMP JUMPDEST PUSH1 0x0 PUSH1 0x40 DUP3 ADD SWAP1 POP DUP2 DUP2 SUB PUSH1 0x0 DUP4 ADD MSTORE PUSH2 0x117F DUP2 DUP6 PUSH2 0xF0B JUMP JUMPDEST SWAP1 POP PUSH2 0x118E PUSH1 0x20 DUP4 ADD DUP5 PUSH2 0x1081 JUMP JUMPDEST SWAP4 SWAP3 POP POP POP JUMP JUMPDEST PUSH1 0x0 PUSH1 0x60 DUP3 ADD SWAP1 POP DUP2 DUP2 SUB PUSH1 0x0 DUP4 ADD MSTORE PUSH2 0x11AF DUP2 DUP7 PUSH2 0xF0B JUMP JUMPDEST SWAP1 POP PUSH2 0x11BE PUSH1 0x20 DUP4 ADD DUP6 PUSH2 0x1081 JUMP JUMPDEST PUSH2 0x11CB PUSH1 0x40 DUP4 ADD DUP5 PUSH2 0xEC3 JUMP JUMPDEST SWAP5 SWAP4 POP POP POP POP JUMP JUMPDEST PUSH1 0x0 PUSH1 0x20 DUP3 ADD SWAP1 POP DUP2 DUP2 SUB PUSH1 0x0 DUP4 ADD MSTORE PUSH2 0x11EC DUP2 PUSH2 0xF75 JUMP JUMPDEST SWAP1 POP SWAP2 SWAP1 POP JUMP JUMPDEST PUSH1 0x0 PUSH1 0x20 DUP3 ADD SWAP1 POP DUP2 DUP2 SUB PUSH1 0x0 DUP4 ADD MSTORE PUSH2 0x120C DUP2 PUSH2 0xFDB JUMP JUMPDEST SWAP1 POP SWAP2 SWAP1 POP JUMP JUMPDEST PUSH1 0x0 PUSH1 0x20 DUP3 ADD SWAP1 POP DUP2 DUP2 SUB PUSH1 0x0 DUP4 ADD MSTORE PUSH2 0x122C DUP2 PUSH2 0x1041 JUMP JUMPDEST SWAP1 POP SWAP2 SWAP1 POP JUMP JUMPDEST PUSH1 0x0 PUSH1 0x20 DUP3 ADD SWAP1 POP PUSH2 0x1248 PUSH1 0x0 DUP4 ADD DUP5 PUSH2 0x1081 JUMP JUMPDEST SWAP3 SWAP2 POP POP JUMP JUMPDEST PUSH1 0x0 PUSH1 0x40 MLOAD SWAP1 POP DUP2 DUP2 ADD DUP2 DUP2 LT PUSH8 0xFFFFFFFFFFFFFFFF DUP3 GT OR ISZERO PUSH2 0x1271 JUMPI PUSH1 0x0 DUP1 REVERT JUMPDEST DUP1 PUSH1 0x40 MSTORE POP SWAP2 SWAP1 POP JUMP JUMPDEST PUSH1 0x0 PUSH8 0xFFFFFFFFFFFFFFFF DUP3 GT ISZERO PUSH2 0x1292 JUMPI PUSH1 0x0 DUP1 REVERT JUMPDEST PUSH1 0x1F NOT PUSH1 0x1F DUP4 ADD AND SWAP1 POP PUSH1 0x20 DUP2 ADD SWAP1 POP SWAP2 SWAP1 POP JUMP JUMPDEST PUSH1 0x0 DUP2 SWAP1 POP PUSH1 0x20 DUP3 ADD SWAP1 POP SWAP2 SWAP1 POP JUMP JUMPDEST PUSH1 0x0 DUP2 MLOAD SWAP1 POP SWAP2 SWAP1 POP JUMP JUMPDEST PUSH1 0x0 DUP2 MLOAD SWAP1 POP SWAP2 SWAP1 POP JUMP JUMPDEST PUSH1 0x0 PUSH1 0x20 DUP3 ADD SWAP1 POP SWAP2 SWAP1 POP JUMP JUMPDEST PUSH1 0x0 DUP3 DUP3 MSTORE PUSH1 0x20 DUP3 ADD SWAP1 POP SWAP3 SWAP2 POP POP JUMP JUMPDEST PUSH1 0x0 DUP3 DUP3 MSTORE PUSH1 0x20 DUP3 ADD SWAP1 POP SWAP3 SWAP2 POP POP JUMP JUMPDEST PUSH1 0x0 DUP3 DUP3 MSTORE PUSH1 0x20 DUP3 ADD SWAP1 POP SWAP3 SWAP2 POP POP JUMP JUMPDEST PUSH1 0x0 DUP2 SWAP1 POP SWAP3 SWAP2 POP POP JUMP JUMPDEST PUSH1 0x0 PUSH2 0x1323 DUP3 PUSH2 0x1348 JUMP JUMPDEST SWAP1 POP SWAP2 SWAP1 POP JUMP JUMPDEST PUSH1 0x0 PUSH2 0x1335 DUP3 PUSH2 0x1348 JUMP JUMPDEST SWAP1 POP SWAP2 SWAP1 POP JUMP JUMPDEST PUSH1 0x0 DUP2 ISZERO ISZERO SWAP1 POP SWAP2 SWAP1 POP JUMP JUMPDEST PUSH1 0x0 PUSH20 0xFFFFFFFFFFFFFFFFFFFFFFFFFFFFFFFFFFFFFFFF DUP3 AND SWAP1 POP SWAP2 SWAP1 POP JUMP JUMPDEST PUSH1 0x0 DUP2 SWAP1 POP SWAP2 SWAP1 POP JUMP JUMPDEST PUSH1 0x0 PUSH2 0x137D DUP3 PUSH2 0x1384 JUMP JUMPDEST SWAP1 POP SWAP2 SWAP1 POP JUMP JUMPDEST PUSH1 0x0 PUSH2 0x138F DUP3 PUSH2 0x1396 JUMP JUMPDEST SWAP1 POP SWAP2 SWAP1 POP JUMP JUMPDEST PUSH1 0x0 PUSH2 0x13A1 DUP3 PUSH2 0x1348 JUMP JUMPDEST SWAP1 POP SWAP2 SWAP1 POP JUMP JUMPDEST DUP3 DUP2 DUP4 CALLDATACOPY PUSH1 0x0 DUP4 DUP4 ADD MSTORE POP POP POP JUMP JUMPDEST PUSH1 0x0 JUMPDEST DUP4 DUP2 LT ISZERO PUSH2 0x13D5 JUMPI DUP1 DUP3 ADD MLOAD DUP2 DUP5 ADD MSTORE PUSH1 0x20 DUP2 ADD SWAP1 POP PUSH2 0x13BA JUMP JUMPDEST DUP4 DUP2 GT ISZERO PUSH2 0x13E4 JUMPI PUSH1 0x0 DUP5 DUP5 ADD MSTORE JUMPDEST POP POP POP POP JUMP JUMPDEST PUSH1 0x0 PUSH1 0x1F NOT PUSH1 0x1F DUP4 ADD AND SWAP1 POP SWAP2 SWAP1 POP JUMP JUMPDEST PUSH2 0x1404 DUP2 PUSH2 0x1318 JUMP JUMPDEST DUP2 EQ PUSH2 0x140F JUMPI PUSH1 0x0 DUP1 REVERT JUMPDEST POP JUMP JUMPDEST PUSH2 0x141B DUP2 PUSH2 0x133C JUMP JUMPDEST DUP2 EQ PUSH2 0x1426 JUMPI PUSH1 0x0 DUP1 REVERT JUMPDEST POP JUMP JUMPDEST PUSH2 0x1432 DUP2 PUSH2 0x1368 JUMP JUMPDEST DUP2 EQ PUSH2 0x143D JUMPI PUSH1 0x0 DUP1 REVERT JUMPDEST POP JUMP INVALID LOG2 PUSH5 0x6970667358 0x22 SLT KECCAK256 MSTORE 0xB2 0xAB 0xAF LOG1 0xC1 0x2E PUSH10 0xAE95015328AA33C02CDB 0x4D PUSH4 0x1F19628C PUSH4 0x887852F8 0xB7 CALLER 0xCE PUSH5 0x736F6C6343 STOP MOD MOD STOP CALLER PUSH1 0x80 PUSH1 0x40 MSTORE CALLVALUE DUP1 ISZERO PUSH2 0x10 JUMPI PUSH1 0x0 DUP1 REVERT JUMPDEST POP PUSH1 0x40 MLOAD PUSH2 0xE7F CODESIZE SUB DUP1 PUSH2 0xE7F DUP4 CODECOPY DUP2 DUP2 ADD PUSH1 0x40 MSTORE DUP2 ADD SWAP1 PUSH2 0x32 SWAP2 SWAP1 PUSH2 0x99 JUMP JUMPDEST DUP1 PUSH1 0x2 DUP2 SWAP1 SSTORE POP PUSH1 0x2 SLOAD PUSH1 0x0 DUP1 CALLER PUSH20 0xFFFFFFFFFFFFFFFFFFFFFFFFFFFFFFFFFFFFFFFF AND PUSH20 0xFFFFFFFFFFFFFFFFFFFFFFFFFFFFFFFFFFFFFFFF AND DUP2 MSTORE PUSH1 0x20 ADD SWAP1 DUP2 MSTORE PUSH1 0x20 ADD PUSH1 0x0 KECCAK256 DUP2 SWAP1 SSTORE POP POP PUSH2 0xE3 JUMP JUMPDEST PUSH1 0x0 DUP2 MLOAD SWAP1 POP PUSH2 0x93 DUP2 PUSH2 0xCC JUMP JUMPDEST SWAP3 SWAP2 POP POP JUMP JUMPDEST PUSH1 0x0 PUSH1 0x20 DUP3 DUP5 SUB SLT ISZERO PUSH2 0xAB JUMPI PUSH1 0x0 DUP1 REVERT JUMPDEST PUSH1 0x0 PUSH2 0xB9 DUP5 DUP3 DUP6 ADD PUSH2 0x84 JUMP JUMPDEST SWAP2 POP POP SWAP3 SWAP2 POP POP JUMP JUMPDEST PUSH1 0x0 DUP2 SWAP1 POP SWAP2 SWAP1 POP JUMP JUMPDEST PUSH2 0xD5 DUP2 PUSH2 0xC2 JUMP JUMPDEST DUP2 EQ PUSH2 0xE0 JUMPI PUSH1 0x0 DUP1 REVERT JUMPDEST POP JUMP JUMPDEST PUSH2 0xD8D DUP1 PUSH2 0xF2 PUSH1 0x0 CODECOPY PUSH1 0x0 RETURN INVALID PUSH1 0x80 PUSH1 0x40 MSTORE CALLVALUE DUP1 ISZERO PUSH2 0x10 JUMPI PUSH1 0x0 DUP1 REVERT JUMPDEST POP PUSH1 0x4 CALLDATASIZE LT PUSH2 0x9E JUMPI PUSH1 0x0 CALLDATALOAD PUSH1 0xE0 SHR DUP1 PUSH4 0x313CE567 GT PUSH2 0x66 JUMPI DUP1 PUSH4 0x313CE567 EQ PUSH2 0x15B JUMPI DUP1 PUSH4 0x70A08231 EQ PUSH2 0x179 JUMPI DUP1 PUSH4 0x95D89B41 EQ PUSH2 0x1A9 JUMPI DUP1 PUSH4 0xA9059CBB EQ PUSH2 0x1C7 JUMPI DUP1 PUSH4 0xDD62ED3E EQ PUSH2 0x1F7 JUMPI PUSH2 0x9E JUMP JUMPDEST DUP1 PUSH4 0x6FDDE03 EQ PUSH2 0xA3 JUMPI DUP1 PUSH4 0x95EA7B3 EQ PUSH2 0xC1 JUMPI DUP1 PUSH4 0x18160DDD EQ PUSH2 0xF1 JUMPI DUP1 PUSH4 0x1D43CC98 EQ PUSH2 0x10F JUMPI DUP1 PUSH4 0x23B872DD EQ PUSH2 0x12B JUMPI JUMPDEST PUSH1 0x0 DUP1 REVERT JUMPDEST PUSH2 0xAB PUSH2 0x227 JUMP JUMPDEST PUSH1 0x40 MLOAD PUSH2 0xB8 SWAP2 SWAP1 PUSH2 0xC1C JUMP JUMPDEST PUSH1 0x40 MLOAD DUP1 SWAP2 SUB SWAP1 RETURN JUMPDEST PUSH2 0xDB PUSH1 0x4 DUP1 CALLDATASIZE SUB DUP2 ADD SWAP1 PUSH2 0xD6 SWAP2 SWAP1 PUSH2 0xB36 JUMP JUMPDEST PUSH2 0x260 JUMP JUMPDEST PUSH1 0x40 MLOAD PUSH2 0xE8 SWAP2 SWAP1 PUSH2 0xC01 JUMP JUMPDEST PUSH1 0x40 MLOAD DUP1 SWAP2 SUB SWAP1 RETURN JUMPDEST PUSH2 0xF9 PUSH2 0x352 JUMP JUMPDEST PUSH1 0x40 MLOAD PUSH2 0x106 SWAP2 SWAP1 PUSH2 0xC3E JUMP JUMPDEST PUSH1 0x40 MLOAD DUP1 SWAP2 SUB SWAP1 RETURN JUMPDEST PUSH2 0x129 PUSH1 0x4 DUP1 CALLDATASIZE SUB DUP2 ADD SWAP1 PUSH2 0x124 SWAP2 SWAP1 PUSH2 0xB72 JUMP JUMPDEST PUSH2 0x35C JUMP JUMPDEST STOP JUMPDEST PUSH2 0x145 PUSH1 0x4 DUP1 CALLDATASIZE SUB DUP2 ADD SWAP1 PUSH2 0x140 SWAP2 SWAP1 PUSH2 0xAE7 JUMP JUMPDEST PUSH2 0x3BB JUMP JUMPDEST PUSH1 0x40 MLOAD PUSH2 0x152 SWAP2 SWAP1 PUSH2 0xC01 JUMP JUMPDEST PUSH1 0x40 MLOAD DUP1 SWAP2 SUB SWAP1 RETURN JUMPDEST PUSH2 0x163 PUSH2 0x736 JUMP JUMPDEST PUSH1 0x40 MLOAD PUSH2 0x170 SWAP2 SWAP1 PUSH2 0xC59 JUMP JUMPDEST PUSH1 0x40 MLOAD DUP1 SWAP2 SUB SWAP1 RETURN JUMPDEST PUSH2 0x193 PUSH1 0x4 DUP1 CALLDATASIZE SUB DUP2 ADD SWAP1 PUSH2 0x18E SWAP2 SWAP1 PUSH2 0xA82 JUMP JUMPDEST PUSH2 0x73B JUMP JUMPDEST PUSH1 0x40 MLOAD PUSH2 0x1A0 SWAP2 SWAP1 PUSH2 0xC3E JUMP JUMPDEST PUSH1 0x40 MLOAD DUP1 SWAP2 SUB SWAP1 RETURN JUMPDEST PUSH2 0x1B1 PUSH2 0x783 JUMP JUMPDEST PUSH1 0x40 MLOAD PUSH2 0x1BE SWAP2 SWAP1 PUSH2 0xC1C JUMP JUMPDEST PUSH1 0x40 MLOAD DUP1 SWAP2 SUB SWAP1 RETURN JUMPDEST PUSH2 0x1E1 PUSH1 0x4 DUP1 CALLDATASIZE SUB DUP2 ADD SWAP1 PUSH2 0x1DC SWAP2 SWAP1 PUSH2 0xB36 JUMP JUMPDEST PUSH2 0x7BC JUMP JUMPDEST PUSH1 0x40 MLOAD PUSH2 0x1EE SWAP2 SWAP1 PUSH2 0xC01 JUMP JUMPDEST PUSH1 0x40 MLOAD DUP1 SWAP2 SUB SWAP1 RETURN JUMPDEST PUSH2 0x211 PUSH1 0x4 DUP1 CALLDATASIZE SUB DUP2 ADD SWAP1 PUSH2 0x20C SWAP2 SWAP1 PUSH2 0xAAB JUMP JUMPDEST PUSH2 0x99E JUMP JUMPDEST PUSH1 0x40 MLOAD PUSH2 0x21E SWAP2 SWAP1 PUSH2 0xC3E JUMP JUMPDEST PUSH1 0x40 MLOAD DUP1 SWAP2 SUB SWAP1 RETURN JUMPDEST PUSH1 0x40 MLOAD DUP1 PUSH1 0x40 ADD PUSH1 0x40 MSTORE DUP1 PUSH1 0x11 DUP2 MSTORE PUSH1 0x20 ADD PUSH32 0x4552433230426C6F636B636861696E415A000000000000000000000000000000 DUP2 MSTORE POP DUP2 JUMP JUMPDEST PUSH1 0x0 DUP2 PUSH1 0x1 PUSH1 0x0 CALLER PUSH20 0xFFFFFFFFFFFFFFFFFFFFFFFFFFFFFFFFFFFFFFFF AND PUSH20 0xFFFFFFFFFFFFFFFFFFFFFFFFFFFFFFFFFFFFFFFF AND DUP2 MSTORE PUSH1 0x20 ADD SWAP1 DUP2 MSTORE PUSH1 0x20 ADD PUSH1 0x0 KECCAK256 PUSH1 0x0 DUP6 PUSH20 0xFFFFFFFFFFFFFFFFFFFFFFFFFFFFFFFFFFFFFFFF AND PUSH20 0xFFFFFFFFFFFFFFFFFFFFFFFFFFFFFFFFFFFFFFFF AND DUP2 MSTORE PUSH1 0x20 ADD SWAP1 DUP2 MSTORE PUSH1 0x20 ADD PUSH1 0x0 KECCAK256 DUP2 SWAP1 SSTORE POP DUP3 PUSH20 0xFFFFFFFFFFFFFFFFFFFFFFFFFFFFFFFFFFFFFFFF AND CALLER PUSH20 0xFFFFFFFFFFFFFFFFFFFFFFFFFFFFFFFFFFFFFFFF AND PUSH32 0x8C5BE1E5EBEC7D5BD14F71427D1E84F3DD0314C0F7B2291E5B200AC8C7C3B925 DUP5 PUSH1 0x40 MLOAD PUSH2 0x340 SWAP2 SWAP1 PUSH2 0xC3E JUMP JUMPDEST PUSH1 0x40 MLOAD DUP1 SWAP2 SUB SWAP1 LOG3 PUSH1 0x1 SWAP1 POP SWAP3 SWAP2 POP POP JUMP JUMPDEST PUSH1 0x0 PUSH1 0x2 SLOAD SWAP1 POP SWAP1 JUMP JUMPDEST DUP1 PUSH1 0x2 PUSH1 0x0 DUP3 DUP3 SLOAD ADD SWAP3 POP POP DUP2 SWAP1 SSTORE POP DUP1 PUSH1 0x0 DUP1 CALLER PUSH20 0xFFFFFFFFFFFFFFFFFFFFFFFFFFFFFFFFFFFFFFFF AND PUSH20 0xFFFFFFFFFFFFFFFFFFFFFFFFFFFFFFFFFFFFFFFF AND DUP2 MSTORE PUSH1 0x20 ADD SWAP1 DUP2 MSTORE PUSH1 0x20 ADD PUSH1 0x0 KECCAK256 PUSH1 0x0 DUP3 DUP3 SLOAD ADD SWAP3 POP POP DUP2 SWAP1 SSTORE POP POP JUMP JUMPDEST PUSH1 0x0 DUP1 PUSH1 0x0 DUP6 PUSH20 0xFFFFFFFFFFFFFFFFFFFFFFFFFFFFFFFFFFFFFFFF AND PUSH20 0xFFFFFFFFFFFFFFFFFFFFFFFFFFFFFFFFFFFFFFFF AND DUP2 MSTORE PUSH1 0x20 ADD SWAP1 DUP2 MSTORE PUSH1 0x20 ADD PUSH1 0x0 KECCAK256 SLOAD DUP3 GT ISZERO PUSH2 0x408 JUMPI PUSH1 0x0 DUP1 REVERT JUMPDEST PUSH1 0x1 PUSH1 0x0 DUP6 PUSH20 0xFFFFFFFFFFFFFFFFFFFFFFFFFFFFFFFFFFFFFFFF AND PUSH20 0xFFFFFFFFFFFFFFFFFFFFFFFFFFFFFFFFFFFFFFFF AND DUP2 MSTORE PUSH1 0x20 ADD SWAP1 DUP2 MSTORE PUSH1 0x20 ADD PUSH1 0x0 KECCAK256 PUSH1 0x0 CALLER PUSH20 0xFFFFFFFFFFFFFFFFFFFFFFFFFFFFFFFFFFFFFFFF AND PUSH20 0xFFFFFFFFFFFFFFFFFFFFFFFFFFFFFFFFFFFFFFFF AND DUP2 MSTORE PUSH1 0x20 ADD SWAP1 DUP2 MSTORE PUSH1 0x20 ADD PUSH1 0x0 KECCAK256 SLOAD DUP3 GT ISZERO PUSH2 0x491 JUMPI PUSH1 0x0 DUP1 REVERT JUMPDEST PUSH2 0x4E2 DUP3 PUSH1 0x0 DUP1 DUP8 PUSH20 0xFFFFFFFFFFFFFFFFFFFFFFFFFFFFFFFFFFFFFFFF AND PUSH20 0xFFFFFFFFFFFFFFFFFFFFFFFFFFFFFFFFFFFFFFFF AND DUP2 MSTORE PUSH1 0x20 ADD SWAP1 DUP2 MSTORE PUSH1 0x20 ADD PUSH1 0x0 KECCAK256 SLOAD PUSH2 0xA25 SWAP1 SWAP2 SWAP1 PUSH4 0xFFFFFFFF AND JUMP JUMPDEST PUSH1 0x0 DUP1 DUP7 PUSH20 0xFFFFFFFFFFFFFFFFFFFFFFFFFFFFFFFFFFFFFFFF AND PUSH20 0xFFFFFFFFFFFFFFFFFFFFFFFFFFFFFFFFFFFFFFFF AND DUP2 MSTORE PUSH1 0x20 ADD SWAP1 DUP2 MSTORE PUSH1 0x20 ADD PUSH1 0x0 KECCAK256 DUP2 SWAP1 SSTORE POP PUSH2 0x5B3 DUP3 PUSH1 0x1 PUSH1 0x0 DUP8 PUSH20 0xFFFFFFFFFFFFFFFFFFFFFFFFFFFFFFFFFFFFFFFF AND PUSH20 0xFFFFFFFFFFFFFFFFFFFFFFFFFFFFFFFFFFFFFFFF AND DUP2 MSTORE PUSH1 0x20 ADD SWAP1 DUP2 MSTORE PUSH1 0x20 ADD PUSH1 0x0 KECCAK256 PUSH1 0x0 CALLER PUSH20 0xFFFFFFFFFFFFFFFFFFFFFFFFFFFFFFFFFFFFFFFF AND PUSH20 0xFFFFFFFFFFFFFFFFFFFFFFFFFFFFFFFFFFFFFFFF AND DUP2 MSTORE PUSH1 0x20 ADD SWAP1 DUP2 MSTORE PUSH1 0x20 ADD PUSH1 0x0 KECCAK256 SLOAD PUSH2 0xA25 SWAP1 SWAP2 SWAP1 PUSH4 0xFFFFFFFF AND JUMP JUMPDEST PUSH1 0x1 PUSH1 0x0 DUP7 PUSH20 0xFFFFFFFFFFFFFFFFFFFFFFFFFFFFFFFFFFFFFFFF AND PUSH20 0xFFFFFFFFFFFFFFFFFFFFFFFFFFFFFFFFFFFFFFFF AND DUP2 MSTORE PUSH1 0x20 ADD SWAP1 DUP2 MSTORE PUSH1 0x20 ADD PUSH1 0x0 KECCAK256 PUSH1 0x0 CALLER PUSH20 0xFFFFFFFFFFFFFFFFFFFFFFFFFFFFFFFFFFFFFFFF AND PUSH20 0xFFFFFFFFFFFFFFFFFFFFFFFFFFFFFFFFFFFFFFFF AND DUP2 MSTORE PUSH1 0x20 ADD SWAP1 DUP2 MSTORE PUSH1 0x20 ADD PUSH1 0x0 KECCAK256 DUP2 SWAP1 SSTORE POP PUSH2 0x684 DUP3 PUSH1 0x0 DUP1 DUP7 PUSH20 0xFFFFFFFFFFFFFFFFFFFFFFFFFFFFFFFFFFFFFFFF AND PUSH20 0xFFFFFFFFFFFFFFFFFFFFFFFFFFFFFFFFFFFFFFFF AND DUP2 MSTORE PUSH1 0x20 ADD SWAP1 DUP2 MSTORE PUSH1 0x20 ADD PUSH1 0x0 KECCAK256 SLOAD PUSH2 0xA3C SWAP1 SWAP2 SWAP1 PUSH4 0xFFFFFFFF AND JUMP JUMPDEST PUSH1 0x0 DUP1 DUP6 PUSH20 0xFFFFFFFFFFFFFFFFFFFFFFFFFFFFFFFFFFFFFFFF AND PUSH20 0xFFFFFFFFFFFFFFFFFFFFFFFFFFFFFFFFFFFFFFFF AND DUP2 MSTORE PUSH1 0x20 ADD SWAP1 DUP2 MSTORE PUSH1 0x20 ADD PUSH1 0x0 KECCAK256 DUP2 SWAP1 SSTORE POP DUP3 PUSH20 0xFFFFFFFFFFFFFFFFFFFFFFFFFFFFFFFFFFFFFFFF AND DUP5 PUSH20 0xFFFFFFFFFFFFFFFFFFFFFFFFFFFFFFFFFFFFFFFF AND PUSH32 0xDDF252AD1BE2C89B69C2B068FC378DAA952BA7F163C4A11628F55A4DF523B3EF DUP5 PUSH1 0x40 MLOAD PUSH2 0x723 SWAP2 SWAP1 PUSH2 0xC3E JUMP JUMPDEST PUSH1 0x40 MLOAD DUP1 SWAP2 SUB SWAP1 LOG3 PUSH1 0x1 SWAP1 POP SWAP4 SWAP3 POP POP POP JUMP JUMPDEST PUSH1 0x12 DUP2 JUMP JUMPDEST PUSH1 0x0 DUP1 PUSH1 0x0 DUP4 PUSH20 0xFFFFFFFFFFFFFFFFFFFFFFFFFFFFFFFFFFFFFFFF AND PUSH20 0xFFFFFFFFFFFFFFFFFFFFFFFFFFFFFFFFFFFFFFFF AND DUP2 MSTORE PUSH1 0x20 ADD SWAP1 DUP2 MSTORE PUSH1 0x20 ADD PUSH1 0x0 KECCAK256 SLOAD SWAP1 POP SWAP2 SWAP1 POP JUMP JUMPDEST PUSH1 0x40 MLOAD DUP1 PUSH1 0x40 ADD PUSH1 0x40 MSTORE DUP1 PUSH1 0x3 DUP2 MSTORE PUSH1 0x20 ADD PUSH32 0x4552430000000000000000000000000000000000000000000000000000000000 DUP2 MSTORE POP DUP2 JUMP JUMPDEST PUSH1 0x0 DUP1 PUSH1 0x0 CALLER PUSH20 0xFFFFFFFFFFFFFFFFFFFFFFFFFFFFFFFFFFFFFFFF AND PUSH20 0xFFFFFFFFFFFFFFFFFFFFFFFFFFFFFFFFFFFFFFFF AND DUP2 MSTORE PUSH1 0x20 ADD SWAP1 DUP2 MSTORE PUSH1 0x20 ADD PUSH1 0x0 KECCAK256 SLOAD DUP3 GT ISZERO PUSH2 0x809 JUMPI PUSH1 0x0 DUP1 REVERT JUMPDEST PUSH2 0x85A DUP3 PUSH1 0x0 DUP1 CALLER PUSH20 0xFFFFFFFFFFFFFFFFFFFFFFFFFFFFFFFFFFFFFFFF AND PUSH20 0xFFFFFFFFFFFFFFFFFFFFFFFFFFFFFFFFFFFFFFFF AND DUP2 MSTORE PUSH1 0x20 ADD SWAP1 DUP2 MSTORE PUSH1 0x20 ADD PUSH1 0x0 KECCAK256 SLOAD PUSH2 0xA25 SWAP1 SWAP2 SWAP1 PUSH4 0xFFFFFFFF AND JUMP JUMPDEST PUSH1 0x0 DUP1 CALLER PUSH20 0xFFFFFFFFFFFFFFFFFFFFFFFFFFFFFFFFFFFFFFFF AND PUSH20 0xFFFFFFFFFFFFFFFFFFFFFFFFFFFFFFFFFFFFFFFF AND DUP2 MSTORE PUSH1 0x20 ADD SWAP1 DUP2 MSTORE PUSH1 0x20 ADD PUSH1 0x0 KECCAK256 DUP2 SWAP1 SSTORE POP PUSH2 0x8ED DUP3 PUSH1 0x0 DUP1 DUP7 PUSH20 0xFFFFFFFFFFFFFFFFFFFFFFFFFFFFFFFFFFFFFFFF AND PUSH20 0xFFFFFFFFFFFFFFFFFFFFFFFFFFFFFFFFFFFFFFFF AND DUP2 MSTORE PUSH1 0x20 ADD SWAP1 DUP2 MSTORE PUSH1 0x20 ADD PUSH1 0x0 KECCAK256 SLOAD PUSH2 0xA3C SWAP1 SWAP2 SWAP1 PUSH4 0xFFFFFFFF AND JUMP JUMPDEST PUSH1 0x0 DUP1 DUP6 PUSH20 0xFFFFFFFFFFFFFFFFFFFFFFFFFFFFFFFFFFFFFFFF AND PUSH20 0xFFFFFFFFFFFFFFFFFFFFFFFFFFFFFFFFFFFFFFFF AND DUP2 MSTORE PUSH1 0x20 ADD SWAP1 DUP2 MSTORE PUSH1 0x20 ADD PUSH1 0x0 KECCAK256 DUP2 SWAP1 SSTORE POP DUP3 PUSH20 0xFFFFFFFFFFFFFFFFFFFFFFFFFFFFFFFFFFFFFFFF AND CALLER PUSH20 0xFFFFFFFFFFFFFFFFFFFFFFFFFFFFFFFFFFFFFFFF AND PUSH32 0xDDF252AD1BE2C89B69C2B068FC378DAA952BA7F163C4A11628F55A4DF523B3EF DUP5 PUSH1 0x40 MLOAD PUSH2 0x98C SWAP2 SWAP1 PUSH2 0xC3E JUMP JUMPDEST PUSH1 0x40 MLOAD DUP1 SWAP2 SUB SWAP1 LOG3 PUSH1 0x1 SWAP1 POP SWAP3 SWAP2 POP POP JUMP JUMPDEST PUSH1 0x0 PUSH1 0x1 PUSH1 0x0 DUP5 PUSH20 0xFFFFFFFFFFFFFFFFFFFFFFFFFFFFFFFFFFFFFFFF AND PUSH20 0xFFFFFFFFFFFFFFFFFFFFFFFFFFFFFFFFFFFFFFFF AND DUP2 MSTORE PUSH1 0x20 ADD SWAP1 DUP2 MSTORE PUSH1 0x20 ADD PUSH1 0x0 KECCAK256 PUSH1 0x0 DUP4 PUSH20 0xFFFFFFFFFFFFFFFFFFFFFFFFFFFFFFFFFFFFFFFF AND PUSH20 0xFFFFFFFFFFFFFFFFFFFFFFFFFFFFFFFFFFFFFFFF AND DUP2 MSTORE PUSH1 0x20 ADD SWAP1 DUP2 MSTORE PUSH1 0x20 ADD PUSH1 0x0 KECCAK256 SLOAD SWAP1 POP SWAP3 SWAP2 POP POP JUMP JUMPDEST PUSH1 0x0 DUP3 DUP3 GT ISZERO PUSH2 0xA31 JUMPI INVALID JUMPDEST DUP2 DUP4 SUB SWAP1 POP SWAP3 SWAP2 POP POP JUMP JUMPDEST PUSH1 0x0 DUP1 DUP3 DUP5 ADD SWAP1 POP DUP4 DUP2 LT ISZERO PUSH2 0xA4E JUMPI INVALID JUMPDEST DUP1 SWAP2 POP POP SWAP3 SWAP2 POP POP JUMP JUMPDEST PUSH1 0x0 DUP2 CALLDATALOAD SWAP1 POP PUSH2 0xA67 DUP2 PUSH2 0xD29 JUMP JUMPDEST SWAP3 SWAP2 POP POP JUMP JUMPDEST PUSH1 0x0 DUP2 CALLDATALOAD SWAP1 POP PUSH2 0xA7C DUP2 PUSH2 0xD40 JUMP JUMPDEST SWAP3 SWAP2 POP POP JUMP JUMPDEST PUSH1 0x0 PUSH1 0x20 DUP3 DUP5 SUB SLT ISZERO PUSH2 0xA94 JUMPI PUSH1 0x0 DUP1 REVERT JUMPDEST PUSH1 0x0 PUSH2 0xAA2 DUP5 DUP3 DUP6 ADD PUSH2 0xA58 JUMP JUMPDEST SWAP2 POP POP SWAP3 SWAP2 POP POP JUMP JUMPDEST PUSH1 0x0 DUP1 PUSH1 0x40 DUP4 DUP6 SUB SLT ISZERO PUSH2 0xABE JUMPI PUSH1 0x0 DUP1 REVERT JUMPDEST PUSH1 0x0 PUSH2 0xACC DUP6 DUP3 DUP7 ADD PUSH2 0xA58 JUMP JUMPDEST SWAP3 POP POP PUSH1 0x20 PUSH2 0xADD DUP6 DUP3 DUP7 ADD PUSH2 0xA58 JUMP JUMPDEST SWAP2 POP POP SWAP3 POP SWAP3 SWAP1 POP JUMP JUMPDEST PUSH1 0x0 DUP1 PUSH1 0x0 PUSH1 0x60 DUP5 DUP7 SUB SLT ISZERO PUSH2 0xAFC JUMPI PUSH1 0x0 DUP1 REVERT JUMPDEST PUSH1 0x0 PUSH2 0xB0A DUP7 DUP3 DUP8 ADD PUSH2 0xA58 JUMP JUMPDEST SWAP4 POP POP PUSH1 0x20 PUSH2 0xB1B DUP7 DUP3 DUP8 ADD PUSH2 0xA58 JUMP JUMPDEST SWAP3 POP POP PUSH1 0x40 PUSH2 0xB2C DUP7 DUP3 DUP8 ADD PUSH2 0xA6D JUMP JUMPDEST SWAP2 POP POP SWAP3 POP SWAP3 POP SWAP3 JUMP JUMPDEST PUSH1 0x0 DUP1 PUSH1 0x40 DUP4 DUP6 SUB SLT ISZERO PUSH2 0xB49 JUMPI PUSH1 0x0 DUP1 REVERT JUMPDEST PUSH1 0x0 PUSH2 0xB57 DUP6 DUP3 DUP7 ADD PUSH2 0xA58 JUMP JUMPDEST SWAP3 POP POP PUSH1 0x20 PUSH2 0xB68 DUP6 DUP3 DUP7 ADD PUSH2 0xA6D JUMP JUMPDEST SWAP2 POP POP SWAP3 POP SWAP3 SWAP1 POP JUMP JUMPDEST PUSH1 0x0 PUSH1 0x20 DUP3 DUP5 SUB SLT ISZERO PUSH2 0xB84 JUMPI PUSH1 0x0 DUP1 REVERT JUMPDEST PUSH1 0x0 PUSH2 0xB92 DUP5 DUP3 DUP6 ADD PUSH2 0xA6D JUMP JUMPDEST SWAP2 POP POP SWAP3 SWAP2 POP POP JUMP JUMPDEST PUSH2 0xBA4 DUP2 PUSH2 0xCA2 JUMP JUMPDEST DUP3 MSTORE POP POP JUMP JUMPDEST PUSH1 0x0 PUSH2 0xBB5 DUP3 PUSH2 0xC74 JUMP JUMPDEST PUSH2 0xBBF DUP2 DUP6 PUSH2 0xC7F JUMP JUMPDEST SWAP4 POP PUSH2 0xBCF DUP2 DUP6 PUSH1 0x20 DUP7 ADD PUSH2 0xCE5 JUMP JUMPDEST PUSH2 0xBD8 DUP2 PUSH2 0xD18 JUMP JUMPDEST DUP5 ADD SWAP2 POP POP SWAP3 SWAP2 POP POP JUMP JUMPDEST PUSH2 0xBEC DUP2 PUSH2 0xCCE JUMP JUMPDEST DUP3 MSTORE POP POP JUMP JUMPDEST PUSH2 0xBFB DUP2 PUSH2 0xCD8 JUMP JUMPDEST DUP3 MSTORE POP POP JUMP JUMPDEST PUSH1 0x0 PUSH1 0x20 DUP3 ADD SWAP1 POP PUSH2 0xC16 PUSH1 0x0 DUP4 ADD DUP5 PUSH2 0xB9B JUMP JUMPDEST SWAP3 SWAP2 POP POP JUMP JUMPDEST PUSH1 0x0 PUSH1 0x20 DUP3 ADD SWAP1 POP DUP2 DUP2 SUB PUSH1 0x0 DUP4 ADD MSTORE PUSH2 0xC36 DUP2 DUP5 PUSH2 0xBAA JUMP JUMPDEST SWAP1 POP SWAP3 SWAP2 POP POP JUMP JUMPDEST PUSH1 0x0 PUSH1 0x20 DUP3 ADD SWAP1 POP PUSH2 0xC53 PUSH1 0x0 DUP4 ADD DUP5 PUSH2 0xBE3 JUMP JUMPDEST SWAP3 SWAP2 POP POP JUMP JUMPDEST PUSH1 0x0 PUSH1 0x20 DUP3 ADD SWAP1 POP PUSH2 0xC6E PUSH1 0x0 DUP4 ADD DUP5 PUSH2 0xBF2 JUMP JUMPDEST SWAP3 SWAP2 POP POP JUMP JUMPDEST PUSH1 0x0 DUP2 MLOAD SWAP1 POP SWAP2 SWAP1 POP JUMP JUMPDEST PUSH1 0x0 DUP3 DUP3 MSTORE PUSH1 0x20 DUP3 ADD SWAP1 POP SWAP3 SWAP2 POP POP JUMP JUMPDEST PUSH1 0x0 PUSH2 0xC9B DUP3 PUSH2 0xCAE JUMP JUMPDEST SWAP1 POP SWAP2 SWAP1 POP JUMP JUMPDEST PUSH1 0x0 DUP2 ISZERO ISZERO SWAP1 POP SWAP2 SWAP1 POP JUMP JUMPDEST PUSH1 0x0 PUSH20 0xFFFFFFFFFFFFFFFFFFFFFFFFFFFFFFFFFFFFFFFF DUP3 AND SWAP1 POP SWAP2 SWAP1 POP JUMP JUMPDEST PUSH1 0x0 DUP2 SWAP1 POP SWAP2 SWAP1 POP JUMP JUMPDEST PUSH1 0x0 PUSH1 0xFF DUP3 AND SWAP1 POP SWAP2 SWAP1 POP JUMP JUMPDEST PUSH1 0x0 JUMPDEST DUP4 DUP2 LT ISZERO PUSH2 0xD03 JUMPI DUP1 DUP3 ADD MLOAD DUP2 DUP5 ADD MSTORE PUSH1 0x20 DUP2 ADD SWAP1 POP PUSH2 0xCE8 JUMP JUMPDEST DUP4 DUP2 GT ISZERO PUSH2 0xD12 JUMPI PUSH1 0x0 DUP5 DUP5 ADD MSTORE JUMPDEST POP POP POP POP JUMP JUMPDEST PUSH1 0x0 PUSH1 0x1F NOT PUSH1 0x1F DUP4 ADD AND SWAP1 POP SWAP2 SWAP1 POP JUMP JUMPDEST PUSH2 0xD32 DUP2 PUSH2 0xC90 JUMP JUMPDEST DUP2 EQ PUSH2 0xD3D JUMPI PUSH1 0x0 DUP1 REVERT JUMPDEST POP JUMP JUMPDEST PUSH2 0xD49 DUP2 PUSH2 0xCCE JUMP JUMPDEST DUP2 EQ PUSH2 0xD54 JUMPI PUSH1 0x0 DUP1 REVERT JUMPDEST POP JUMP INVALID LOG2 PUSH5 0x6970667358 0x22 SLT KECCAK256 DELEGATECALL DUP14 0xE 0x28 GASPRICE 0xE8 ISZERO MULMOD 0xF8 DUP12 PUSH30 0x48D6126E5A2A7F752E9C95B8BC53C98F6BB2AE698364736F6C6343000606 STOP CALLER "
				},
				"gasEstimates": {
					"creation": {
						"codeDepositCost": "1047600",
						"executionCost": "infinite",
						"totalCost": "infinite"
					},
					"external": {
						"AtraccionesDisponibles()": "infinite",
						"BajaAtraccion(string)": "infinite",
						"Clientes(address)": "1550",
						"CompraTokens(uint256)": "infinite",
						"GeneraTokens(uint256)": "infinite",
						"MappingAtracciones(string)": "infinite",
						"MisTokens()": "infinite",
						"NuevaAtraccion(string,uint256)": "infinite",
						"balanceOf()": "infinite",
						"owner()": "1303"
					},
					"internal": {
						"PrecioTokens(uint256)": "36"
					}
				},
				"methodIdentifiers": {
					"AtraccionesDisponibles()": "1fccb33c",
					"BajaAtraccion(string)": "c66dca40",
					"Clientes(address)": "ce8f2f38",
					"CompraTokens(uint256)": "f7774091",
					"GeneraTokens(uint256)": "1246f6e2",
					"MappingAtracciones(string)": "d00df296",
					"MisTokens()": "e33f34a0",
					"NuevaAtraccion(string,uint256)": "2076b56c",
					"balanceOf()": "722713f7",
					"owner()": "8da5cb5b"
				}
			},
			"storageLayout": {
				"storage": [
					{
						"astId": 435,
						"contract": "DISNEY/disney.sol:Disney",
						"label": "token",
						"offset": 0,
						"slot": "0",
						"type": "t_contract(ERC20Basic)347"
					},
					{
						"astId": 437,
						"contract": "DISNEY/disney.sol:Disney",
						"label": "owner",
						"offset": 0,
						"slot": "1",
						"type": "t_address_payable"
					},
					{
						"astId": 463,
						"contract": "DISNEY/disney.sol:Disney",
						"label": "Clientes",
						"offset": 0,
						"slot": "2",
						"type": "t_mapping(t_address,t_struct(cliente)459_storage)"
					},
					{
						"astId": 618,
						"contract": "DISNEY/disney.sol:Disney",
						"label": "MappingAtracciones",
						"offset": 0,
						"slot": "3",
						"type": "t_mapping(t_string_memory_ptr,t_struct(atraccion)614_storage)"
					},
					{
						"astId": 621,
						"contract": "DISNEY/disney.sol:Disney",
						"label": "Atracciones",
						"offset": 0,
						"slot": "4",
						"type": "t_array(t_string_storage)dyn_storage"
					},
					{
						"astId": 626,
						"contract": "DISNEY/disney.sol:Disney",
						"label": "HistorialAtracciones",
						"offset": 0,
						"slot": "5",
						"type": "t_mapping(t_address,t_array(t_string_storage)dyn_storage)"
					}
				],
				"types": {
					"t_address": {
						"encoding": "inplace",
						"label": "address",
						"numberOfBytes": "20"
					},
					"t_address_payable": {
						"encoding": "inplace",
						"label": "address payable",
						"numberOfBytes": "20"
					},
					"t_array(t_string_storage)dyn_storage": {
						"base": "t_string_storage",
						"encoding": "dynamic_array",
						"label": "string[]",
						"numberOfBytes": "32"
					},
					"t_bool": {
						"encoding": "inplace",
						"label": "bool",
						"numberOfBytes": "1"
					},
					"t_contract(ERC20Basic)347": {
						"encoding": "inplace",
						"label": "contract ERC20Basic",
						"numberOfBytes": "20"
					},
					"t_mapping(t_address,t_array(t_string_storage)dyn_storage)": {
						"encoding": "mapping",
						"key": "t_address",
						"label": "mapping(address => string[])",
						"numberOfBytes": "32",
						"value": "t_array(t_string_storage)dyn_storage"
					},
					"t_mapping(t_address,t_struct(cliente)459_storage)": {
						"encoding": "mapping",
						"key": "t_address",
						"label": "mapping(address => struct Disney.cliente)",
						"numberOfBytes": "32",
						"value": "t_struct(cliente)459_storage"
					},
					"t_mapping(t_string_memory_ptr,t_struct(atraccion)614_storage)": {
						"encoding": "mapping",
						"key": "t_string_memory_ptr",
						"label": "mapping(string => struct Disney.atraccion)",
						"numberOfBytes": "32",
						"value": "t_struct(atraccion)614_storage"
					},
					"t_string_memory_ptr": {
						"encoding": "bytes",
						"label": "string",
						"numberOfBytes": "32"
					},
					"t_string_storage": {
						"encoding": "bytes",
						"label": "string",
						"numberOfBytes": "32"
					},
					"t_struct(atraccion)614_storage": {
						"encoding": "inplace",
						"label": "struct Disney.atraccion",
						"members": [
							{
								"astId": 609,
								"contract": "DISNEY/disney.sol:Disney",
								"label": "nombre_atraccion",
								"offset": 0,
								"slot": "0",
								"type": "t_string_storage"
							},
							{
								"astId": 611,
								"contract": "DISNEY/disney.sol:Disney",
								"label": "precio_atraccion",
								"offset": 0,
								"slot": "1",
								"type": "t_uint256"
							},
							{
								"astId": 613,
								"contract": "DISNEY/disney.sol:Disney",
								"label": "estado_atraccion",
								"offset": 0,
								"slot": "2",
								"type": "t_bool"
							}
						],
						"numberOfBytes": "96"
					},
					"t_struct(cliente)459_storage": {
						"encoding": "inplace",
						"label": "struct Disney.cliente",
						"members": [
							{
								"astId": 455,
								"contract": "DISNEY/disney.sol:Disney",
								"label": "tokens_comprados",
								"offset": 0,
								"slot": "0",
								"type": "t_uint256"
							},
							{
								"astId": 458,
								"contract": "DISNEY/disney.sol:Disney",
								"label": "atracciones_disfrutadas",
								"offset": 0,
								"slot": "1",
								"type": "t_array(t_string_storage)dyn_storage"
							}
						],
						"numberOfBytes": "64"
					},
					"t_uint256": {
						"encoding": "inplace",
						"label": "uint256",
						"numberOfBytes": "32"
					}
				}
			},
			"userdoc": {
				"methods": {}
			}
		}
	}
}