{
	"DISNEY/disney.sol": {
		"Disney": {
			"abi": [
				{
					"inputs": [],
					"stateMutability": "nonpayable",
					"type": "constructor"
				},
				{
					"anonymous": false,
					"inputs": [
						{
							"indexed": false,
							"internalType": "string",
							"name": "",
							"type": "string"
						},
						{
							"indexed": false,
							"internalType": "uint256",
							"name": "",
							"type": "uint256"
						}
					],
					"name": "alta_atraccion",
					"type": "event"
				},
				{
					"anonymous": false,
					"inputs": [
						{
							"indexed": false,
							"internalType": "string",
							"name": "",
							"type": "string"
						},
						{
							"indexed": false,
							"internalType": "uint256",
							"name": "",
							"type": "uint256"
						}
					],
					"name": "alta_comida",
					"type": "event"
				},
				{
					"anonymous": false,
					"inputs": [
						{
							"indexed": false,
							"internalType": "string",
							"name": "",
							"type": "string"
						}
					],
					"name": "baja_atraccion",
					"type": "event"
				},
				{
					"anonymous": false,
					"inputs": [
						{
							"indexed": false,
							"internalType": "string",
							"name": "",
							"type": "string"
						}
					],
					"name": "baja_comida",
					"type": "event"
				},
				{
					"anonymous": false,
					"inputs": [
						{
							"indexed": false,
							"internalType": "string",
							"name": "",
							"type": "string"
						},
						{
							"indexed": false,
							"internalType": "uint256",
							"name": "",
							"type": "uint256"
						}
					],
					"name": "compra_comida",
					"type": "event"
				},
				{
					"anonymous": false,
					"inputs": [
						{
							"indexed": false,
							"internalType": "string",
							"name": "",
							"type": "string"
						},
						{
							"indexed": false,
							"internalType": "uint256",
							"name": "",
							"type": "uint256"
						},
						{
							"indexed": false,
							"internalType": "address",
							"name": "",
							"type": "address"
						}
					],
					"name": "disfruta_atraccion",
					"type": "event"
				},
				{
					"inputs": [
						{
							"internalType": "string",
							"name": "_nombreAtraccion",
							"type": "string"
						},
						{
							"internalType": "uint256",
							"name": "_precio",
							"type": "uint256"
						}
					],
					"name": "AltaAtraccion",
					"outputs": [],
					"stateMutability": "nonpayable",
					"type": "function"
				},
				{
					"inputs": [
						{
							"internalType": "string",
							"name": "_nombreComida",
							"type": "string"
						},
						{
							"internalType": "uint256",
							"name": "_precio",
							"type": "uint256"
						}
					],
					"name": "AltaComida",
					"outputs": [],
					"stateMutability": "nonpayable",
					"type": "function"
				},
				{
					"inputs": [],
					"name": "AtraccionesDisponibles",
					"outputs": [
						{
							"internalType": "string[]",
							"name": "",
							"type": "string[]"
						}
					],
					"stateMutability": "view",
					"type": "function"
				},
				{
					"inputs": [
						{
							"internalType": "string",
							"name": "_nombreAtraccion",
							"type": "string"
						}
					],
					"name": "BajaAtraccion",
					"outputs": [],
					"stateMutability": "nonpayable",
					"type": "function"
				},
				{
					"inputs": [
						{
							"internalType": "string",
							"name": "_nombreComida",
							"type": "string"
						}
					],
					"name": "BajaComida",
					"outputs": [],
					"stateMutability": "nonpayable",
					"type": "function"
				},
				{
					"inputs": [
						{
							"internalType": "address",
							"name": "",
							"type": "address"
						}
					],
					"name": "Clientes",
					"outputs": [
						{
							"internalType": "uint256",
							"name": "tokens_comprados",
							"type": "uint256"
						}
					],
					"stateMutability": "view",
					"type": "function"
				},
				{
					"inputs": [],
					"name": "ComidasDisponibles",
					"outputs": [
						{
							"internalType": "string[]",
							"name": "",
							"type": "string[]"
						}
					],
					"stateMutability": "view",
					"type": "function"
				},
				{
					"inputs": [
						{
							"internalType": "uint256",
							"name": "_numTokens",
							"type": "uint256"
						}
					],
					"name": "CompraTokens",
					"outputs": [],
					"stateMutability": "payable",
					"type": "function"
				},
				{
					"inputs": [],
					"name": "ConsultaHistorial",
					"outputs": [
						{
							"internalType": "string[]",
							"name": "",
							"type": "string[]"
						}
					],
					"stateMutability": "view",
					"type": "function"
				},
				{
					"inputs": [
						{
							"internalType": "uint256",
							"name": "_numTokens",
							"type": "uint256"
						}
					],
					"name": "DevolverTokens",
					"outputs": [],
					"stateMutability": "payable",
					"type": "function"
				},
				{
					"inputs": [
						{
							"internalType": "uint256",
							"name": "_numTokens",
							"type": "uint256"
						}
					],
					"name": "GeneraTokens",
					"outputs": [],
					"stateMutability": "nonpayable",
					"type": "function"
				},
				{
					"inputs": [
						{
							"internalType": "string",
							"name": "",
							"type": "string"
						}
					],
					"name": "MappingAtracciones",
					"outputs": [
						{
							"internalType": "string",
							"name": "nombre_atraccion",
							"type": "string"
						},
						{
							"internalType": "uint256",
							"name": "precio_atraccion",
							"type": "uint256"
						},
						{
							"internalType": "bool",
							"name": "estado_atraccion",
							"type": "bool"
						}
					],
					"stateMutability": "view",
					"type": "function"
				},
				{
					"inputs": [
						{
							"internalType": "string",
							"name": "",
							"type": "string"
						}
					],
					"name": "MappingComida",
					"outputs": [
						{
							"internalType": "string",
							"name": "nombre_comida",
							"type": "string"
						},
						{
							"internalType": "uint256",
							"name": "precio_precio",
							"type": "uint256"
						},
						{
							"internalType": "bool",
							"name": "stock_comida",
							"type": "bool"
						}
					],
					"stateMutability": "view",
					"type": "function"
				},
				{
					"inputs": [],
					"name": "MisTokens",
					"outputs": [
						{
							"internalType": "uint256",
							"name": "",
							"type": "uint256"
						}
					],
					"stateMutability": "view",
					"type": "function"
				},
				{
					"inputs": [
						{
							"internalType": "string",
							"name": "_nombreAtraccion",
							"type": "string"
						}
					],
					"name": "SubirseAtraccion",
					"outputs": [],
					"stateMutability": "nonpayable",
					"type": "function"
				},
				{
					"inputs": [],
					"name": "TotalBalance",
					"outputs": [
						{
							"internalType": "uint256",
							"name": "",
							"type": "uint256"
						}
					],
					"stateMutability": "view",
					"type": "function"
				},
				{
					"inputs": [],
					"name": "owner",
					"outputs": [
						{
							"internalType": "address payable",
							"name": "",
							"type": "address"
						}
					],
					"stateMutability": "view",
					"type": "function"
				}
			],
			"devdoc": {
				"methods": {}
			},
			"evm": {
				"assembly": "    /* \"DISNEY/disney.sol\":89:8920  contract Disney {... */\n  mstore(0x40, 0x80)\n    /* \"DISNEY/disney.sol\":366:568  constructor () public {... */\n  callvalue\n    /* \"--CODEGEN--\":5:14   */\n  dup1\n    /* \"--CODEGEN--\":2:4   */\n  iszero\n  tag_1\n  jumpi\n    /* \"--CODEGEN--\":27:28   */\n  0x00\n    /* \"--CODEGEN--\":24:25   */\n  dup1\n    /* \"--CODEGEN--\":17:29   */\n  revert\n    /* \"--CODEGEN--\":2:4   */\ntag_1:\n    /* \"DISNEY/disney.sol\":366:568  constructor () public {... */\n  pop\n    /* \"DISNEY/disney.sol\":421:426  10000 */\n  0x2710\n    /* \"DISNEY/disney.sol\":406:427  new ERC20Basic(10000) */\n  mload(0x40)\n  tag_4\n  swap1\n  tag_5\n  jump\t// in\ntag_4:\n  tag_6\n  swap2\n  swap1\n  jump(tag_7)\ntag_6:\n  mload(0x40)\n  dup1\n  swap2\n  sub\n  swap1\n  0x00\n  create\n  dup1\n  iszero\n    /* \"--CODEGEN--\":8:17   */\n  dup1\n    /* \"--CODEGEN--\":5:7   */\n  iszero\n  tag_8\n  jumpi\n    /* \"--CODEGEN--\":45:61   */\n  returndatasize\n    /* \"--CODEGEN--\":42:43   */\n  0x00\n    /* \"--CODEGEN--\":39:40   */\n  dup1\n    /* \"--CODEGEN--\":24:62   */\n  returndatacopy\n    /* \"--CODEGEN--\":77:93   */\n  returndatasize\n    /* \"--CODEGEN--\":74:75   */\n  0x00\n    /* \"--CODEGEN--\":67:94   */\n  revert\n    /* \"--CODEGEN--\":5:7   */\ntag_8:\n    /* \"DISNEY/disney.sol\":406:427  new ERC20Basic(10000) */\n  pop\n    /* \"DISNEY/disney.sol\":398:403  token */\n  0x00\n  dup1\n    /* \"DISNEY/disney.sol\":398:427  token = new ERC20Basic(10000) */\n  0x0100\n  exp\n  dup2\n  sload\n  dup2\n  0xffffffffffffffffffffffffffffffffffffffff\n  mul\n  not\n  and\n  swap1\n  dup4\n  0xffffffffffffffffffffffffffffffffffffffff\n  and\n  mul\n  or\n  swap1\n  sstore\n  pop\n    /* \"DISNEY/disney.sol\":494:504  msg.sender */\n  caller\n    /* \"DISNEY/disney.sol\":486:491  owner */\n  0x01\n  0x00\n    /* \"DISNEY/disney.sol\":486:504  owner = msg.sender */\n  0x0100\n  exp\n  dup2\n  sload\n  dup2\n  0xffffffffffffffffffffffffffffffffffffffff\n  mul\n  not\n  and\n  swap1\n  dup4\n  0xffffffffffffffffffffffffffffffffffffffff\n  and\n  mul\n  or\n  swap1\n  sstore\n  pop\n    /* \"DISNEY/disney.sol\":89:8920  contract Disney {... */\n  jump(tag_9)\ntag_5:\n  dataSize(sub_1)\n  dup1\n  dataOffset(sub_1)\n  dup4\n  codecopy\n  add\n  swap1\n  jump\t// out\n    /* \"--CODEGEN--\":5:155   */\ntag_11:\n    /* \"--CODEGEN--\":100:149   */\n  tag_13\n    /* \"--CODEGEN--\":143:148   */\n  dup2\n    /* \"--CODEGEN--\":100:149   */\n  jump(tag_14)\ntag_13:\n    /* \"--CODEGEN--\":95:98   */\n  dup3\n    /* \"--CODEGEN--\":88:150   */\n  mstore\n    /* \"--CODEGEN--\":82:155   */\n  pop\n  pop\n  jump\n    /* \"--CODEGEN--\":162:399   */\ntag_7:\n  0x00\n    /* \"--CODEGEN--\":292:294   */\n  0x20\n    /* \"--CODEGEN--\":281:290   */\n  dup3\n    /* \"--CODEGEN--\":277:295   */\n  add\n    /* \"--CODEGEN--\":269:295   */\n  swap1\n  pop\n    /* \"--CODEGEN--\":306:389   */\n  tag_16\n    /* \"--CODEGEN--\":386:387   */\n  0x00\n    /* \"--CODEGEN--\":375:384   */\n  dup4\n    /* \"--CODEGEN--\":371:388   */\n  add\n    /* \"--CODEGEN--\":362:368   */\n  dup5\n    /* \"--CODEGEN--\":306:389   */\n  jump(tag_11)\ntag_16:\n    /* \"--CODEGEN--\":263:399   */\n  swap3\n  swap2\n  pop\n  pop\n  jump\n    /* \"--CODEGEN--\":406:478   */\ntag_17:\n  0x00\n    /* \"--CODEGEN--\":468:473   */\n  dup2\n    /* \"--CODEGEN--\":457:473   */\n  swap1\n  pop\n    /* \"--CODEGEN--\":451:478   */\n  swap2\n  swap1\n  pop\n  jump\n    /* \"--CODEGEN--\":485:605   */\ntag_14:\n  0x00\n    /* \"--CODEGEN--\":576:600   */\n  tag_20\n    /* \"--CODEGEN--\":594:599   */\n  dup3\n    /* \"--CODEGEN--\":576:600   */\n  jump(tag_17)\ntag_20:\n    /* \"--CODEGEN--\":563:600   */\n  swap1\n  pop\n    /* \"--CODEGEN--\":557:605   */\n  swap2\n  swap1\n  pop\n  jump\n    /* \"DISNEY/disney.sol\":89:8920  contract Disney {... */\ntag_9:\n  dataSize(sub_0)\n  dup1\n  dataOffset(sub_0)\n  0x00\n  codecopy\n  0x00\n  return\nstop\n\nsub_0: assembly {\n        /* \"DISNEY/disney.sol\":89:8920  contract Disney {... */\n      mstore(0x40, 0x80)\n      jumpi(tag_1, lt(calldatasize, 0x04))\n      shr(0xe0, calldataload(0x00))\n      dup1\n      0x8da5cb5b\n      gt\n      tag_19\n      jumpi\n      dup1\n      0xd00df296\n      gt\n      tag_20\n      jumpi\n      dup1\n      0xd00df296\n      eq\n      tag_14\n      jumpi\n      dup1\n      0xd203c15b\n      eq\n      tag_15\n      jumpi\n      dup1\n      0xdbbdc421\n      eq\n      tag_16\n      jumpi\n      dup1\n      0xe33f34a0\n      eq\n      tag_17\n      jumpi\n      dup1\n      0xf7774091\n      eq\n      tag_18\n      jumpi\n      jump(tag_1)\n    tag_20:\n      dup1\n      0x8da5cb5b\n      eq\n      tag_10\n      jumpi\n      dup1\n      0xc03d2acc\n      eq\n      tag_11\n      jumpi\n      dup1\n      0xc66dca40\n      eq\n      tag_12\n      jumpi\n      dup1\n      0xce8f2f38\n      eq\n      tag_13\n      jumpi\n      jump(tag_1)\n    tag_19:\n      dup1\n      0x1deecf3b\n      gt\n      tag_21\n      jumpi\n      dup1\n      0x1deecf3b\n      eq\n      tag_6\n      jumpi\n      dup1\n      0x1f7705d2\n      eq\n      tag_7\n      jumpi\n      dup1\n      0x1fccb33c\n      eq\n      tag_8\n      jumpi\n      dup1\n      0x39050065\n      eq\n      tag_9\n      jumpi\n      jump(tag_1)\n    tag_21:\n      dup1\n      0x0c4397\n      eq\n      tag_2\n      jumpi\n      dup1\n      0x1246f6e2\n      eq\n      tag_3\n      jumpi\n      dup1\n      0x12b91846\n      eq\n      tag_4\n      jumpi\n      dup1\n      0x1890154c\n      eq\n      tag_5\n      jumpi\n    tag_1:\n        /* \"--CODEGEN--\":12:13   */\n      0x00\n        /* \"--CODEGEN--\":9:10   */\n      dup1\n        /* \"--CODEGEN--\":2:14   */\n      revert\n        /* \"DISNEY/disney.sol\":2151:2256  function TotalBalance() public view returns (uint) {... */\n    tag_2:\n      callvalue\n        /* \"--CODEGEN--\":5:14   */\n      dup1\n        /* \"--CODEGEN--\":2:4   */\n      iszero\n      tag_22\n      jumpi\n        /* \"--CODEGEN--\":27:28   */\n      0x00\n        /* \"--CODEGEN--\":24:25   */\n      dup1\n        /* \"--CODEGEN--\":17:29   */\n      revert\n        /* \"--CODEGEN--\":2:4   */\n    tag_22:\n        /* \"DISNEY/disney.sol\":2151:2256  function TotalBalance() public view returns (uint) {... */\n      pop\n      tag_23\n      tag_24\n      jump\t// in\n    tag_23:\n      mload(0x40)\n      tag_25\n      swap2\n      swap1\n      jump(tag_26)\n    tag_25:\n      mload(0x40)\n      dup1\n      swap2\n      sub\n      swap1\n      return\n        /* \"DISNEY/disney.sol\":2469:2598  function GeneraTokens(uint _numTokens) public Unicamente(msg.sender){... */\n    tag_3:\n      callvalue\n        /* \"--CODEGEN--\":5:14   */\n      dup1\n        /* \"--CODEGEN--\":2:4   */\n      iszero\n      tag_27\n      jumpi\n        /* \"--CODEGEN--\":27:28   */\n      0x00\n        /* \"--CODEGEN--\":24:25   */\n      dup1\n        /* \"--CODEGEN--\":17:29   */\n      revert\n        /* \"--CODEGEN--\":2:4   */\n    tag_27:\n        /* \"DISNEY/disney.sol\":2469:2598  function GeneraTokens(uint _numTokens) public Unicamente(msg.sender){... */\n      pop\n      tag_28\n      0x04\n      dup1\n      calldatasize\n      sub\n      dup2\n      add\n      swap1\n      tag_29\n      swap2\n      swap1\n      jump(tag_30)\n    tag_29:\n      tag_31\n      jump\t// in\n    tag_28:\n      stop\n        /* \"DISNEY/disney.sol\":5500:6958  function SubirseAtraccion (string memory _nombreAtraccion) public {... */\n    tag_4:\n      callvalue\n        /* \"--CODEGEN--\":5:14   */\n      dup1\n        /* \"--CODEGEN--\":2:4   */\n      iszero\n      tag_32\n      jumpi\n        /* \"--CODEGEN--\":27:28   */\n      0x00\n        /* \"--CODEGEN--\":24:25   */\n      dup1\n        /* \"--CODEGEN--\":17:29   */\n      revert\n        /* \"--CODEGEN--\":2:4   */\n    tag_32:\n        /* \"DISNEY/disney.sol\":5500:6958  function SubirseAtraccion (string memory _nombreAtraccion) public {... */\n      pop\n      tag_33\n      0x04\n      dup1\n      calldatasize\n      sub\n      dup2\n      add\n      swap1\n      tag_34\n      swap2\n      swap1\n      jump(tag_35)\n    tag_34:\n      tag_36\n      jump\t// in\n    tag_33:\n      stop\n        /* \"DISNEY/disney.sol\":8319:8918  function DevolverTokens (uint _numTokens) public payable {... */\n    tag_5:\n      tag_37\n      0x04\n      dup1\n      calldatasize\n      sub\n      dup2\n      add\n      swap1\n      tag_38\n      swap2\n      swap1\n      jump(tag_30)\n    tag_38:\n      tag_39\n      jump\t// in\n    tag_37:\n      stop\n        /* \"DISNEY/disney.sol\":7250:7684  function AltaComida(string memory _nombreComida, uint _precio) public Unicamente (msg.sender) {... */\n    tag_6:\n      callvalue\n        /* \"--CODEGEN--\":5:14   */\n      dup1\n        /* \"--CODEGEN--\":2:4   */\n      iszero\n      tag_40\n      jumpi\n        /* \"--CODEGEN--\":27:28   */\n      0x00\n        /* \"--CODEGEN--\":24:25   */\n      dup1\n        /* \"--CODEGEN--\":17:29   */\n      revert\n        /* \"--CODEGEN--\":2:4   */\n    tag_40:\n        /* \"DISNEY/disney.sol\":7250:7684  function AltaComida(string memory _nombreComida, uint _precio) public Unicamente (msg.sender) {... */\n      pop\n      tag_41\n      0x04\n      dup1\n      calldatasize\n      sub\n      dup2\n      add\n      swap1\n      tag_42\n      swap2\n      swap1\n      jump(tag_43)\n    tag_42:\n      tag_44\n      jump\t// in\n    tag_41:\n      stop\n        /* \"DISNEY/disney.sol\":7032:7156  function ConsultaHistorial() public view returns (string [] memory) {... */\n    tag_7:\n      callvalue\n        /* \"--CODEGEN--\":5:14   */\n      dup1\n        /* \"--CODEGEN--\":2:4   */\n      iszero\n      tag_45\n      jumpi\n        /* \"--CODEGEN--\":27:28   */\n      0x00\n        /* \"--CODEGEN--\":24:25   */\n      dup1\n        /* \"--CODEGEN--\":17:29   */\n      revert\n        /* \"--CODEGEN--\":2:4   */\n    tag_45:\n        /* \"DISNEY/disney.sol\":7032:7156  function ConsultaHistorial() public view returns (string [] memory) {... */\n      pop\n      tag_46\n      tag_47\n      jump\t// in\n    tag_46:\n      mload(0x40)\n      tag_48\n      swap2\n      swap1\n      jump(tag_49)\n    tag_48:\n      mload(0x40)\n      dup1\n      swap2\n      sub\n      swap1\n      return\n        /* \"DISNEY/disney.sol\":5316:5424  function AtraccionesDisponibles() public view returns (string [] memory) {... */\n    tag_8:\n      callvalue\n        /* \"--CODEGEN--\":5:14   */\n      dup1\n        /* \"--CODEGEN--\":2:4   */\n      iszero\n      tag_50\n      jumpi\n        /* \"--CODEGEN--\":27:28   */\n      0x00\n        /* \"--CODEGEN--\":24:25   */\n      dup1\n        /* \"--CODEGEN--\":17:29   */\n      revert\n        /* \"--CODEGEN--\":2:4   */\n    tag_50:\n        /* \"DISNEY/disney.sol\":5316:5424  function AtraccionesDisponibles() public view returns (string [] memory) {... */\n      pop\n      tag_51\n      tag_52\n      jump\t// in\n    tag_51:\n      mload(0x40)\n      tag_53\n      swap2\n      swap1\n      jump(tag_49)\n    tag_53:\n      mload(0x40)\n      dup1\n      swap2\n      sub\n      swap1\n      return\n        /* \"DISNEY/disney.sol\":4365:4835  function AltaAtraccion(string memory _nombreAtraccion, uint _precio) public Unicamente (msg.sender) {... */\n    tag_9:\n      callvalue\n        /* \"--CODEGEN--\":5:14   */\n      dup1\n        /* \"--CODEGEN--\":2:4   */\n      iszero\n      tag_54\n      jumpi\n        /* \"--CODEGEN--\":27:28   */\n      0x00\n        /* \"--CODEGEN--\":24:25   */\n      dup1\n        /* \"--CODEGEN--\":17:29   */\n      revert\n        /* \"--CODEGEN--\":2:4   */\n    tag_54:\n        /* \"DISNEY/disney.sol\":4365:4835  function AltaAtraccion(string memory _nombreAtraccion, uint _precio) public Unicamente (msg.sender) {... */\n      pop\n      tag_55\n      0x04\n      dup1\n      calldatasize\n      sub\n      dup2\n      add\n      swap1\n      tag_56\n      swap2\n      swap1\n      jump(tag_43)\n    tag_56:\n      tag_57\n      jump\t// in\n    tag_55:\n      stop\n        /* \"DISNEY/disney.sol\":311:339  address payable public owner */\n    tag_10:\n      callvalue\n        /* \"--CODEGEN--\":5:14   */\n      dup1\n        /* \"--CODEGEN--\":2:4   */\n      iszero\n      tag_58\n      jumpi\n        /* \"--CODEGEN--\":27:28   */\n      0x00\n        /* \"--CODEGEN--\":24:25   */\n      dup1\n        /* \"--CODEGEN--\":17:29   */\n      revert\n        /* \"--CODEGEN--\":2:4   */\n    tag_58:\n        /* \"DISNEY/disney.sol\":311:339  address payable public owner */\n      pop\n      tag_59\n      tag_60\n      jump\t// in\n    tag_59:\n      mload(0x40)\n      tag_61\n      swap2\n      swap1\n      jump(tag_62)\n    tag_61:\n      mload(0x40)\n      dup1\n      swap2\n      sub\n      swap1\n      return\n        /* \"DISNEY/disney.sol\":8138:8238  function ComidasDisponibles() public view returns (string [] memory) {... */\n    tag_11:\n      callvalue\n        /* \"--CODEGEN--\":5:14   */\n      dup1\n        /* \"--CODEGEN--\":2:4   */\n      iszero\n      tag_63\n      jumpi\n        /* \"--CODEGEN--\":27:28   */\n      0x00\n        /* \"--CODEGEN--\":24:25   */\n      dup1\n        /* \"--CODEGEN--\":17:29   */\n      revert\n        /* \"--CODEGEN--\":2:4   */\n    tag_63:\n        /* \"DISNEY/disney.sol\":8138:8238  function ComidasDisponibles() public view returns (string [] memory) {... */\n      pop\n      tag_64\n      tag_65\n      jump\t// in\n    tag_64:\n      mload(0x40)\n      tag_66\n      swap2\n      swap1\n      jump(tag_49)\n    tag_66:\n      mload(0x40)\n      dup1\n      swap2\n      sub\n      swap1\n      return\n        /* \"DISNEY/disney.sol\":4915:5253  function BajaAtraccion(string memory _nombreAtraccion) public Unicamente (msg.sender) {... */\n    tag_12:\n      callvalue\n        /* \"--CODEGEN--\":5:14   */\n      dup1\n        /* \"--CODEGEN--\":2:4   */\n      iszero\n      tag_67\n      jumpi\n        /* \"--CODEGEN--\":27:28   */\n      0x00\n        /* \"--CODEGEN--\":24:25   */\n      dup1\n        /* \"--CODEGEN--\":17:29   */\n      revert\n        /* \"--CODEGEN--\":2:4   */\n    tag_67:\n        /* \"DISNEY/disney.sol\":4915:5253  function BajaAtraccion(string memory _nombreAtraccion) public Unicamente (msg.sender) {... */\n      pop\n      tag_68\n      0x04\n      dup1\n      calldatasize\n      sub\n      dup2\n      add\n      swap1\n      tag_69\n      swap2\n      swap1\n      jump(tag_35)\n    tag_69:\n      tag_70\n      jump\t// in\n    tag_68:\n      stop\n        /* \"DISNEY/disney.sol\":784:828  mapping (address => cliente) public Clientes */\n    tag_13:\n      callvalue\n        /* \"--CODEGEN--\":5:14   */\n      dup1\n        /* \"--CODEGEN--\":2:4   */\n      iszero\n      tag_71\n      jumpi\n        /* \"--CODEGEN--\":27:28   */\n      0x00\n        /* \"--CODEGEN--\":24:25   */\n      dup1\n        /* \"--CODEGEN--\":17:29   */\n      revert\n        /* \"--CODEGEN--\":2:4   */\n    tag_71:\n        /* \"DISNEY/disney.sol\":784:828  mapping (address => cliente) public Clientes */\n      pop\n      tag_72\n      0x04\n      dup1\n      calldatasize\n      sub\n      dup2\n      add\n      swap1\n      tag_73\n      swap2\n      swap1\n      jump(tag_74)\n    tag_73:\n      tag_75\n      jump\t// in\n    tag_72:\n      mload(0x40)\n      tag_76\n      swap2\n      swap1\n      jump(tag_26)\n    tag_76:\n      mload(0x40)\n      dup1\n      swap2\n      sub\n      swap1\n      return\n        /* \"DISNEY/disney.sol\":3644:3699  mapping (string => atraccion) public MappingAtracciones */\n    tag_14:\n      callvalue\n        /* \"--CODEGEN--\":5:14   */\n      dup1\n        /* \"--CODEGEN--\":2:4   */\n      iszero\n      tag_77\n      jumpi\n        /* \"--CODEGEN--\":27:28   */\n      0x00\n        /* \"--CODEGEN--\":24:25   */\n      dup1\n        /* \"--CODEGEN--\":17:29   */\n      revert\n        /* \"--CODEGEN--\":2:4   */\n    tag_77:\n        /* \"DISNEY/disney.sol\":3644:3699  mapping (string => atraccion) public MappingAtracciones */\n      pop\n      tag_78\n      0x04\n      dup1\n      calldatasize\n      sub\n      dup2\n      add\n      swap1\n      tag_79\n      swap2\n      swap1\n      jump(tag_35)\n    tag_79:\n      tag_80\n      jump\t// in\n    tag_78:\n      mload(0x40)\n      tag_81\n      swap4\n      swap3\n      swap2\n      swap1\n      jump(tag_82)\n    tag_81:\n      mload(0x40)\n      dup1\n      swap2\n      sub\n      swap1\n      return\n        /* \"DISNEY/disney.sol\":4008:4055  mapping (string => comida) public MappingComida */\n    tag_15:\n      callvalue\n        /* \"--CODEGEN--\":5:14   */\n      dup1\n        /* \"--CODEGEN--\":2:4   */\n      iszero\n      tag_83\n      jumpi\n        /* \"--CODEGEN--\":27:28   */\n      0x00\n        /* \"--CODEGEN--\":24:25   */\n      dup1\n        /* \"--CODEGEN--\":17:29   */\n      revert\n        /* \"--CODEGEN--\":2:4   */\n    tag_83:\n        /* \"DISNEY/disney.sol\":4008:4055  mapping (string => comida) public MappingComida */\n      pop\n      tag_84\n      0x04\n      dup1\n      calldatasize\n      sub\n      dup2\n      add\n      swap1\n      tag_85\n      swap2\n      swap1\n      jump(tag_35)\n    tag_85:\n      tag_86\n      jump\t// in\n    tag_84:\n      mload(0x40)\n      tag_87\n      swap4\n      swap3\n      swap2\n      swap1\n      jump(tag_82)\n    tag_87:\n      mload(0x40)\n      dup1\n      swap2\n      sub\n      swap1\n      return\n        /* \"DISNEY/disney.sol\":7765:8079  function BajaComida(string memory _nombreComida) public Unicamente (msg.sender) {... */\n    tag_16:\n      callvalue\n        /* \"--CODEGEN--\":5:14   */\n      dup1\n        /* \"--CODEGEN--\":2:4   */\n      iszero\n      tag_88\n      jumpi\n        /* \"--CODEGEN--\":27:28   */\n      0x00\n        /* \"--CODEGEN--\":24:25   */\n      dup1\n        /* \"--CODEGEN--\":17:29   */\n      revert\n        /* \"--CODEGEN--\":2:4   */\n    tag_88:\n        /* \"DISNEY/disney.sol\":7765:8079  function BajaComida(string memory _nombreComida) public Unicamente (msg.sender) {... */\n      pop\n      tag_89\n      0x04\n      dup1\n      calldatasize\n      sub\n      dup2\n      add\n      swap1\n      tag_90\n      swap2\n      swap1\n      jump(tag_35)\n    tag_90:\n      tag_91\n      jump\t// in\n    tag_89:\n      stop\n        /* \"DISNEY/disney.sol\":2324:2423  function MisTokens() public view returns (uint) {... */\n    tag_17:\n      callvalue\n        /* \"--CODEGEN--\":5:14   */\n      dup1\n        /* \"--CODEGEN--\":2:4   */\n      iszero\n      tag_92\n      jumpi\n        /* \"--CODEGEN--\":27:28   */\n      0x00\n        /* \"--CODEGEN--\":24:25   */\n      dup1\n        /* \"--CODEGEN--\":17:29   */\n      revert\n        /* \"--CODEGEN--\":2:4   */\n    tag_92:\n        /* \"DISNEY/disney.sol\":2324:2423  function MisTokens() public view returns (uint) {... */\n      pop\n      tag_93\n      tag_94\n      jump\t// in\n    tag_93:\n      mload(0x40)\n      tag_95\n      swap2\n      swap1\n      jump(tag_26)\n    tag_95:\n      mload(0x40)\n      dup1\n      swap2\n      sub\n      swap1\n      return\n        /* \"DISNEY/disney.sol\":1214:2100  function CompraTokens(uint _numTokens) public payable {... */\n    tag_18:\n      tag_96\n      0x04\n      dup1\n      calldatasize\n      sub\n      dup2\n      add\n      swap1\n      tag_97\n      swap2\n      swap1\n      jump(tag_30)\n    tag_97:\n      tag_98\n      jump\t// in\n    tag_96:\n      stop\n        /* \"DISNEY/disney.sol\":2151:2256  function TotalBalance() public view returns (uint) {... */\n    tag_24:\n        /* \"DISNEY/disney.sol\":2196:2200  uint */\n      0x00\n        /* \"DISNEY/disney.sol\":2219:2224  token */\n      dup1\n      0x00\n      swap1\n      sload\n      swap1\n      0x0100\n      exp\n      swap1\n      div\n      0xffffffffffffffffffffffffffffffffffffffff\n      and\n        /* \"DISNEY/disney.sol\":2219:2234  token.balanceOf */\n      0xffffffffffffffffffffffffffffffffffffffff\n      and\n      0x70a08231\n        /* \"DISNEY/disney.sol\":2243:2247  this */\n      address\n        /* \"DISNEY/disney.sol\":2219:2249  token.balanceOf(address(this)) */\n      mload(0x40)\n      dup3\n      0xffffffff\n      and\n      0xe0\n      shl\n      dup2\n      mstore\n      0x04\n      add\n      tag_100\n      swap2\n      swap1\n      jump(tag_101)\n    tag_100:\n      0x20\n      mload(0x40)\n      dup1\n      dup4\n      sub\n      dup2\n      dup7\n      dup1\n      extcodesize\n      iszero\n        /* \"--CODEGEN--\":5:14   */\n      dup1\n        /* \"--CODEGEN--\":2:4   */\n      iszero\n      tag_102\n      jumpi\n        /* \"--CODEGEN--\":27:28   */\n      0x00\n        /* \"--CODEGEN--\":24:25   */\n      dup1\n        /* \"--CODEGEN--\":17:29   */\n      revert\n        /* \"--CODEGEN--\":2:4   */\n    tag_102:\n        /* \"DISNEY/disney.sol\":2219:2249  token.balanceOf(address(this)) */\n      pop\n      gas\n      staticcall\n      iszero\n        /* \"--CODEGEN--\":8:17   */\n      dup1\n        /* \"--CODEGEN--\":5:7   */\n      iszero\n      tag_104\n      jumpi\n        /* \"--CODEGEN--\":45:61   */\n      returndatasize\n        /* \"--CODEGEN--\":42:43   */\n      0x00\n        /* \"--CODEGEN--\":39:40   */\n      dup1\n        /* \"--CODEGEN--\":24:62   */\n      returndatacopy\n        /* \"--CODEGEN--\":77:93   */\n      returndatasize\n        /* \"--CODEGEN--\":74:75   */\n      0x00\n        /* \"--CODEGEN--\":67:94   */\n      revert\n        /* \"--CODEGEN--\":5:7   */\n    tag_104:\n        /* \"DISNEY/disney.sol\":2219:2249  token.balanceOf(address(this)) */\n      pop\n      pop\n      pop\n      pop\n      mload(0x40)\n      returndatasize\n        /* \"--CODEGEN--\":101:105   */\n      0x1f\n        /* \"--CODEGEN--\":97:106   */\n      not\n        /* \"--CODEGEN--\":90:94   */\n      0x1f\n        /* \"--CODEGEN--\":84:88   */\n      dup3\n        /* \"--CODEGEN--\":80:95   */\n      add\n        /* \"--CODEGEN--\":76:107   */\n      and\n        /* \"--CODEGEN--\":69:74   */\n      dup3\n        /* \"--CODEGEN--\":65:108   */\n      add\n        /* \"--CODEGEN--\":126:132   */\n      dup1\n        /* \"--CODEGEN--\":120:124   */\n      0x40\n        /* \"--CODEGEN--\":113:133   */\n      mstore\n        /* \"--CODEGEN--\":0:138   */\n      pop\n        /* \"DISNEY/disney.sol\":2219:2249  token.balanceOf(address(this)) */\n      dup2\n      add\n      swap1\n      tag_105\n      swap2\n      swap1\n      jump(tag_106)\n    tag_105:\n        /* \"DISNEY/disney.sol\":2212:2249  return token.balanceOf(address(this)) */\n      swap1\n      pop\n        /* \"DISNEY/disney.sol\":2151:2256  function TotalBalance() public view returns (uint) {... */\n      swap1\n      jump\t// out\n        /* \"DISNEY/disney.sol\":2469:2598  function GeneraTokens(uint _numTokens) public Unicamente(msg.sender){... */\n    tag_31:\n        /* \"DISNEY/disney.sol\":2526:2536  msg.sender */\n      caller\n        /* \"DISNEY/disney.sol\":2747:2752  owner */\n      0x01\n      0x00\n      swap1\n      sload\n      swap1\n      0x0100\n      exp\n      swap1\n      div\n      0xffffffffffffffffffffffffffffffffffffffff\n      and\n        /* \"DISNEY/disney.sol\":2733:2752  _direccion == owner */\n      0xffffffffffffffffffffffffffffffffffffffff\n      and\n        /* \"DISNEY/disney.sol\":2733:2743  _direccion */\n      dup2\n        /* \"DISNEY/disney.sol\":2733:2752  _direccion == owner */\n      0xffffffffffffffffffffffffffffffffffffffff\n      and\n      eq\n        /* \"DISNEY/disney.sol\":2725:2803  require(_direccion == owner, \"No tienes permisos para ejecutar esta funcion.\") */\n      tag_108\n      jumpi\n      mload(0x40)\n      0x08c379a000000000000000000000000000000000000000000000000000000000\n      dup2\n      mstore\n      0x04\n      add\n      tag_109\n      swap1\n      jump(tag_110)\n    tag_109:\n      mload(0x40)\n      dup1\n      swap2\n      sub\n      swap1\n      revert\n    tag_108:\n        /* \"DISNEY/disney.sol\":2554:2559  token */\n      0x00\n      dup1\n      swap1\n      sload\n      swap1\n      0x0100\n      exp\n      swap1\n      div\n      0xffffffffffffffffffffffffffffffffffffffff\n      and\n        /* \"DISNEY/disney.sol\":2554:2579  token.increaseTotalSupply */\n      0xffffffffffffffffffffffffffffffffffffffff\n      and\n      0x1d43cc98\n        /* \"DISNEY/disney.sol\":2580:2590  _numTokens */\n      dup4\n        /* \"DISNEY/disney.sol\":2554:2591  token.increaseTotalSupply(_numTokens) */\n      mload(0x40)\n      dup3\n      0xffffffff\n      and\n      0xe0\n      shl\n      dup2\n      mstore\n      0x04\n      add\n      tag_112\n      swap2\n      swap1\n      jump(tag_26)\n    tag_112:\n      0x00\n      mload(0x40)\n      dup1\n      dup4\n      sub\n      dup2\n      0x00\n      dup8\n      dup1\n      extcodesize\n      iszero\n        /* \"--CODEGEN--\":5:14   */\n      dup1\n        /* \"--CODEGEN--\":2:4   */\n      iszero\n      tag_113\n      jumpi\n        /* \"--CODEGEN--\":27:28   */\n      0x00\n        /* \"--CODEGEN--\":24:25   */\n      dup1\n        /* \"--CODEGEN--\":17:29   */\n      revert\n        /* \"--CODEGEN--\":2:4   */\n    tag_113:\n        /* \"DISNEY/disney.sol\":2554:2591  token.increaseTotalSupply(_numTokens) */\n      pop\n      gas\n      call\n      iszero\n        /* \"--CODEGEN--\":8:17   */\n      dup1\n        /* \"--CODEGEN--\":5:7   */\n      iszero\n      tag_115\n      jumpi\n        /* \"--CODEGEN--\":45:61   */\n      returndatasize\n        /* \"--CODEGEN--\":42:43   */\n      0x00\n        /* \"--CODEGEN--\":39:40   */\n      dup1\n        /* \"--CODEGEN--\":24:62   */\n      returndatacopy\n        /* \"--CODEGEN--\":77:93   */\n      returndatasize\n        /* \"--CODEGEN--\":74:75   */\n      0x00\n        /* \"--CODEGEN--\":67:94   */\n      revert\n        /* \"--CODEGEN--\":5:7   */\n    tag_115:\n        /* \"DISNEY/disney.sol\":2554:2591  token.increaseTotalSupply(_numTokens) */\n      pop\n      pop\n      pop\n      pop\n        /* \"DISNEY/disney.sol\":2469:2598  function GeneraTokens(uint _numTokens) public Unicamente(msg.sender){... */\n      pop\n      pop\n      jump\t// out\n        /* \"DISNEY/disney.sol\":5500:6958  function SubirseAtraccion (string memory _nombreAtraccion) public {... */\n    tag_36:\n        /* \"DISNEY/disney.sol\":5622:5643  uint tokens_atraccion */\n      0x00\n        /* \"DISNEY/disney.sol\":5646:5664  MappingAtracciones */\n      0x03\n        /* \"DISNEY/disney.sol\":5665:5681  _nombreAtraccion */\n      dup3\n        /* \"DISNEY/disney.sol\":5646:5682  MappingAtracciones[_nombreAtraccion] */\n      mload(0x40)\n      tag_117\n      swap2\n      swap1\n      jump(tag_118)\n    tag_117:\n      swap1\n      dup2\n      mstore\n      0x20\n      add\n      mload(0x40)\n      dup1\n      swap2\n      sub\n      swap1\n      keccak256\n        /* \"DISNEY/disney.sol\":5646:5699  MappingAtracciones[_nombreAtraccion].precio_atraccion */\n      0x01\n      add\n      sload\n        /* \"DISNEY/disney.sol\":5622:5699  uint tokens_atraccion = MappingAtracciones[_nombreAtraccion].precio_atraccion */\n      swap1\n      pop\n        /* \"DISNEY/disney.sol\":5854:5858  true */\n      0x01\n        /* \"DISNEY/disney.sol\":5797:5858  MappingAtracciones[_nombreAtraccion].estado_atraccion == true */\n      iszero\n      iszero\n        /* \"DISNEY/disney.sol\":5797:5815  MappingAtracciones */\n      0x03\n        /* \"DISNEY/disney.sol\":5816:5832  _nombreAtraccion */\n      dup4\n        /* \"DISNEY/disney.sol\":5797:5833  MappingAtracciones[_nombreAtraccion] */\n      mload(0x40)\n      tag_119\n      swap2\n      swap1\n      jump(tag_118)\n    tag_119:\n      swap1\n      dup2\n      mstore\n      0x20\n      add\n      mload(0x40)\n      dup1\n      swap2\n      sub\n      swap1\n      keccak256\n        /* \"DISNEY/disney.sol\":5797:5850  MappingAtracciones[_nombreAtraccion].estado_atraccion */\n      0x02\n      add\n      0x00\n      swap1\n      sload\n      swap1\n      0x0100\n      exp\n      swap1\n      div\n      0xff\n      and\n        /* \"DISNEY/disney.sol\":5797:5858  MappingAtracciones[_nombreAtraccion].estado_atraccion == true */\n      iszero\n      iszero\n      eq\n        /* \"DISNEY/disney.sol\":5789:5929  require(MappingAtracciones[_nombreAtraccion].estado_atraccion == true,... */\n      tag_120\n      jumpi\n      mload(0x40)\n      0x08c379a000000000000000000000000000000000000000000000000000000000\n      dup2\n      mstore\n      0x04\n      add\n      tag_121\n      swap1\n      jump(tag_122)\n    tag_121:\n      mload(0x40)\n      dup1\n      swap2\n      sub\n      swap1\n      revert\n    tag_120:\n        /* \"DISNEY/disney.sol\":6057:6068  MisTokens() */\n      tag_123\n        /* \"DISNEY/disney.sol\":6057:6066  MisTokens */\n      tag_94\n        /* \"DISNEY/disney.sol\":6057:6068  MisTokens() */\n      jump\t// in\n    tag_123:\n        /* \"DISNEY/disney.sol\":6037:6053  tokens_atraccion */\n      dup2\n        /* \"DISNEY/disney.sol\":6037:6068  tokens_atraccion <= MisTokens() */\n      gt\n      iszero\n        /* \"DISNEY/disney.sol\":6029:6141  require(tokens_atraccion <= MisTokens(),... */\n      tag_124\n      jumpi\n      mload(0x40)\n      0x08c379a000000000000000000000000000000000000000000000000000000000\n      dup2\n      mstore\n      0x04\n      add\n      tag_125\n      swap1\n      jump(tag_126)\n    tag_125:\n      mload(0x40)\n      dup1\n      swap2\n      sub\n      swap1\n      revert\n    tag_124:\n        /* \"DISNEY/disney.sol\":6605:6610  token */\n      0x00\n      dup1\n      swap1\n      sload\n      swap1\n      0x0100\n      exp\n      swap1\n      div\n      0xffffffffffffffffffffffffffffffffffffffff\n      and\n        /* \"DISNEY/disney.sol\":6605:6631  token.transferencia_disney */\n      0xffffffffffffffffffffffffffffffffffffffff\n      and\n      0xf490a351\n        /* \"DISNEY/disney.sol\":6632:6642  msg.sender */\n      caller\n        /* \"DISNEY/disney.sol\":6653:6657  this */\n      address\n        /* \"DISNEY/disney.sol\":6660:6676  tokens_atraccion */\n      dup5\n        /* \"DISNEY/disney.sol\":6605:6677  token.transferencia_disney(msg.sender,  address(this), tokens_atraccion) */\n      mload(0x40)\n      dup5\n      0xffffffff\n      and\n      0xe0\n      shl\n      dup2\n      mstore\n      0x04\n      add\n      tag_127\n      swap4\n      swap3\n      swap2\n      swap1\n      jump(tag_128)\n    tag_127:\n      0x20\n      mload(0x40)\n      dup1\n      dup4\n      sub\n      dup2\n      0x00\n      dup8\n      dup1\n      extcodesize\n      iszero\n        /* \"--CODEGEN--\":5:14   */\n      dup1\n        /* \"--CODEGEN--\":2:4   */\n      iszero\n      tag_129\n      jumpi\n        /* \"--CODEGEN--\":27:28   */\n      0x00\n        /* \"--CODEGEN--\":24:25   */\n      dup1\n        /* \"--CODEGEN--\":17:29   */\n      revert\n        /* \"--CODEGEN--\":2:4   */\n    tag_129:\n        /* \"DISNEY/disney.sol\":6605:6677  token.transferencia_disney(msg.sender,  address(this), tokens_atraccion) */\n      pop\n      gas\n      call\n      iszero\n        /* \"--CODEGEN--\":8:17   */\n      dup1\n        /* \"--CODEGEN--\":5:7   */\n      iszero\n      tag_131\n      jumpi\n        /* \"--CODEGEN--\":45:61   */\n      returndatasize\n        /* \"--CODEGEN--\":42:43   */\n      0x00\n        /* \"--CODEGEN--\":39:40   */\n      dup1\n        /* \"--CODEGEN--\":24:62   */\n      returndatacopy\n        /* \"--CODEGEN--\":77:93   */\n      returndatasize\n        /* \"--CODEGEN--\":74:75   */\n      0x00\n        /* \"--CODEGEN--\":67:94   */\n      revert\n        /* \"--CODEGEN--\":5:7   */\n    tag_131:\n        /* \"DISNEY/disney.sol\":6605:6677  token.transferencia_disney(msg.sender,  address(this), tokens_atraccion) */\n      pop\n      pop\n      pop\n      pop\n      mload(0x40)\n      returndatasize\n        /* \"--CODEGEN--\":101:105   */\n      0x1f\n        /* \"--CODEGEN--\":97:106   */\n      not\n        /* \"--CODEGEN--\":90:94   */\n      0x1f\n        /* \"--CODEGEN--\":84:88   */\n      dup3\n        /* \"--CODEGEN--\":80:95   */\n      add\n        /* \"--CODEGEN--\":76:107   */\n      and\n        /* \"--CODEGEN--\":69:74   */\n      dup3\n        /* \"--CODEGEN--\":65:108   */\n      add\n        /* \"--CODEGEN--\":126:132   */\n      dup1\n        /* \"--CODEGEN--\":120:124   */\n      0x40\n        /* \"--CODEGEN--\":113:133   */\n      mstore\n        /* \"--CODEGEN--\":0:138   */\n      pop\n        /* \"DISNEY/disney.sol\":6605:6677  token.transferencia_disney(msg.sender,  address(this), tokens_atraccion) */\n      dup2\n      add\n      swap1\n      tag_132\n      swap2\n      swap1\n      jump(tag_133)\n    tag_132:\n      pop\n        /* \"DISNEY/disney.sol\":6756:6776  HistorialAtracciones */\n      0x05\n        /* \"DISNEY/disney.sol\":6756:6788  HistorialAtracciones[msg.sender] */\n      0x00\n        /* \"DISNEY/disney.sol\":6777:6787  msg.sender */\n      caller\n        /* \"DISNEY/disney.sol\":6756:6788  HistorialAtracciones[msg.sender] */\n      0xffffffffffffffffffffffffffffffffffffffff\n      and\n      0xffffffffffffffffffffffffffffffffffffffff\n      and\n      dup2\n      mstore\n      0x20\n      add\n      swap1\n      dup2\n      mstore\n      0x20\n      add\n      0x00\n      keccak256\n        /* \"DISNEY/disney.sol\":6794:6810  _nombreAtraccion */\n      dup3\n        /* \"DISNEY/disney.sol\":6756:6811  HistorialAtracciones[msg.sender].push(_nombreAtraccion) */\n      swap1\n      dup1\n        /* \"--CODEGEN--\":39:40   */\n      0x01\n        /* \"--CODEGEN--\":33:36   */\n      dup2\n        /* \"--CODEGEN--\":27:37   */\n      sload\n        /* \"--CODEGEN--\":23:41   */\n      add\n        /* \"--CODEGEN--\":57:67   */\n      dup1\n        /* \"--CODEGEN--\":52:55   */\n      dup3\n        /* \"--CODEGEN--\":45:68   */\n      sstore\n        /* \"--CODEGEN--\":79:89   */\n      dup1\n        /* \"--CODEGEN--\":72:89   */\n      swap2\n      pop\n        /* \"--CODEGEN--\":0:93   */\n      pop\n        /* \"DISNEY/disney.sol\":6756:6811  HistorialAtracciones[msg.sender].push(_nombreAtraccion) */\n      0x01\n      swap1\n      sub\n      swap1\n      0x00\n      mstore\n      keccak256(0x00, 0x20)\n      add\n      0x00\n      swap1\n      swap2\n      swap1\n      swap2\n      swap1\n      swap2\n      pop\n      swap1\n      dup1\n      mload\n      swap1\n      0x20\n      add\n      swap1\n      tag_135\n      swap3\n      swap2\n      swap1\n      tag_136\n      jump\t// in\n    tag_135:\n      pop\n        /* \"DISNEY/disney.sol\":6885:6951  disfruta_atraccion(_nombreAtraccion, tokens_atraccion, msg.sender) */\n      0x7246a03edf415ab10aa2e7868f4768980d024a3a86ab68f98fcc21567c2f26d7\n        /* \"DISNEY/disney.sol\":6904:6920  _nombreAtraccion */\n      dup3\n        /* \"DISNEY/disney.sol\":6922:6938  tokens_atraccion */\n      dup3\n        /* \"DISNEY/disney.sol\":6940:6950  msg.sender */\n      caller\n        /* \"DISNEY/disney.sol\":6885:6951  disfruta_atraccion(_nombreAtraccion, tokens_atraccion, msg.sender) */\n      mload(0x40)\n      tag_137\n      swap4\n      swap3\n      swap2\n      swap1\n      jump(tag_138)\n    tag_137:\n      mload(0x40)\n      dup1\n      swap2\n      sub\n      swap1\n      log1\n        /* \"DISNEY/disney.sol\":5500:6958  function SubirseAtraccion (string memory _nombreAtraccion) public {... */\n      pop\n      pop\n      jump\t// out\n        /* \"DISNEY/disney.sol\":8319:8918  function DevolverTokens (uint _numTokens) public payable {... */\n    tag_39:\n        /* \"DISNEY/disney.sol\":8475:8476  0 */\n      0x00\n        /* \"DISNEY/disney.sol\":8462:8472  _numTokens */\n      dup2\n        /* \"DISNEY/disney.sol\":8462:8476  _numTokens > 0 */\n      gt\n        /* \"DISNEY/disney.sol\":8454:8532  require(_numTokens > 0, \"Necesitas devolver una cantidad positiva de Tokens.\") */\n      tag_140\n      jumpi\n      mload(0x40)\n      0x08c379a000000000000000000000000000000000000000000000000000000000\n      dup2\n      mstore\n      0x04\n      add\n      tag_141\n      swap1\n      jump(tag_142)\n    tag_141:\n      mload(0x40)\n      dup1\n      swap2\n      sub\n      swap1\n      revert\n    tag_140:\n        /* \"DISNEY/disney.sol\":8636:8647  MisTokens() */\n      tag_143\n        /* \"DISNEY/disney.sol\":8636:8645  MisTokens */\n      tag_94\n        /* \"DISNEY/disney.sol\":8636:8647  MisTokens() */\n      jump\t// in\n    tag_143:\n        /* \"DISNEY/disney.sol\":8622:8632  _numTokens */\n      dup2\n        /* \"DISNEY/disney.sol\":8622:8647  _numTokens <= MisTokens() */\n      gt\n      iszero\n        /* \"DISNEY/disney.sol\":8614:8692  require(_numTokens <= MisTokens(), \"No tiene los Tokens que deseas devolver.\") */\n      tag_144\n      jumpi\n      mload(0x40)\n      0x08c379a000000000000000000000000000000000000000000000000000000000\n      dup2\n      mstore\n      0x04\n      add\n      tag_145\n      swap1\n      jump(tag_146)\n    tag_145:\n      mload(0x40)\n      dup1\n      swap2\n      sub\n      swap1\n      revert\n    tag_144:\n        /* \"DISNEY/disney.sol\":8744:8749  token */\n      0x00\n      dup1\n      swap1\n      sload\n      swap1\n      0x0100\n      exp\n      swap1\n      div\n      0xffffffffffffffffffffffffffffffffffffffff\n      and\n        /* \"DISNEY/disney.sol\":8744:8770  token.transferencia_disney */\n      0xffffffffffffffffffffffffffffffffffffffff\n      and\n      0xf490a351\n        /* \"DISNEY/disney.sol\":8771:8781  msg.sender */\n      caller\n        /* \"DISNEY/disney.sol\":8791:8795  this */\n      address\n        /* \"DISNEY/disney.sol\":8798:8808  _numTokens */\n      dup5\n        /* \"DISNEY/disney.sol\":8744:8809  token.transferencia_disney(msg.sender, address(this), _numTokens) */\n      mload(0x40)\n      dup5\n      0xffffffff\n      and\n      0xe0\n      shl\n      dup2\n      mstore\n      0x04\n      add\n      tag_147\n      swap4\n      swap3\n      swap2\n      swap1\n      jump(tag_128)\n    tag_147:\n      0x20\n      mload(0x40)\n      dup1\n      dup4\n      sub\n      dup2\n      0x00\n      dup8\n      dup1\n      extcodesize\n      iszero\n        /* \"--CODEGEN--\":5:14   */\n      dup1\n        /* \"--CODEGEN--\":2:4   */\n      iszero\n      tag_148\n      jumpi\n        /* \"--CODEGEN--\":27:28   */\n      0x00\n        /* \"--CODEGEN--\":24:25   */\n      dup1\n        /* \"--CODEGEN--\":17:29   */\n      revert\n        /* \"--CODEGEN--\":2:4   */\n    tag_148:\n        /* \"DISNEY/disney.sol\":8744:8809  token.transferencia_disney(msg.sender, address(this), _numTokens) */\n      pop\n      gas\n      call\n      iszero\n        /* \"--CODEGEN--\":8:17   */\n      dup1\n        /* \"--CODEGEN--\":5:7   */\n      iszero\n      tag_150\n      jumpi\n        /* \"--CODEGEN--\":45:61   */\n      returndatasize\n        /* \"--CODEGEN--\":42:43   */\n      0x00\n        /* \"--CODEGEN--\":39:40   */\n      dup1\n        /* \"--CODEGEN--\":24:62   */\n      returndatacopy\n        /* \"--CODEGEN--\":77:93   */\n      returndatasize\n        /* \"--CODEGEN--\":74:75   */\n      0x00\n        /* \"--CODEGEN--\":67:94   */\n      revert\n        /* \"--CODEGEN--\":5:7   */\n    tag_150:\n        /* \"DISNEY/disney.sol\":8744:8809  token.transferencia_disney(msg.sender, address(this), _numTokens) */\n      pop\n      pop\n      pop\n      pop\n      mload(0x40)\n      returndatasize\n        /* \"--CODEGEN--\":101:105   */\n      0x1f\n        /* \"--CODEGEN--\":97:106   */\n      not\n        /* \"--CODEGEN--\":90:94   */\n      0x1f\n        /* \"--CODEGEN--\":84:88   */\n      dup3\n        /* \"--CODEGEN--\":80:95   */\n      add\n        /* \"--CODEGEN--\":76:107   */\n      and\n        /* \"--CODEGEN--\":69:74   */\n      dup3\n        /* \"--CODEGEN--\":65:108   */\n      add\n        /* \"--CODEGEN--\":126:132   */\n      dup1\n        /* \"--CODEGEN--\":120:124   */\n      0x40\n        /* \"--CODEGEN--\":113:133   */\n      mstore\n        /* \"--CODEGEN--\":0:138   */\n      pop\n        /* \"DISNEY/disney.sol\":8744:8809  token.transferencia_disney(msg.sender, address(this), _numTokens) */\n      dup2\n      add\n      swap1\n      tag_151\n      swap2\n      swap1\n      jump(tag_133)\n    tag_151:\n      pop\n        /* \"DISNEY/disney.sol\":8866:8876  msg.sender */\n      caller\n        /* \"DISNEY/disney.sol\":8866:8885  msg.sender.transfer */\n      0xffffffffffffffffffffffffffffffffffffffff\n      and\n        /* \"DISNEY/disney.sol\":8866:8911  msg.sender.transfer(PrecioTokens(_numTokens)) */\n      0x08fc\n        /* \"DISNEY/disney.sol\":8886:8910  PrecioTokens(_numTokens) */\n      tag_152\n        /* \"DISNEY/disney.sol\":8899:8909  _numTokens */\n      dup4\n        /* \"DISNEY/disney.sol\":8886:8898  PrecioTokens */\n      tag_153\n        /* \"DISNEY/disney.sol\":8886:8910  PrecioTokens(_numTokens) */\n      jump\t// in\n    tag_152:\n        /* \"DISNEY/disney.sol\":8866:8911  msg.sender.transfer(PrecioTokens(_numTokens)) */\n      swap1\n      dup2\n      iszero\n      mul\n      swap1\n      mload(0x40)\n      0x00\n      mload(0x40)\n      dup1\n      dup4\n      sub\n      dup2\n      dup6\n      dup9\n      dup9\n      call\n      swap4\n      pop\n      pop\n      pop\n      pop\n      iszero\n        /* \"--CODEGEN--\":8:17   */\n      dup1\n        /* \"--CODEGEN--\":5:7   */\n      iszero\n      tag_155\n      jumpi\n        /* \"--CODEGEN--\":45:61   */\n      returndatasize\n        /* \"--CODEGEN--\":42:43   */\n      0x00\n        /* \"--CODEGEN--\":39:40   */\n      dup1\n        /* \"--CODEGEN--\":24:62   */\n      returndatacopy\n        /* \"--CODEGEN--\":77:93   */\n      returndatasize\n        /* \"--CODEGEN--\":74:75   */\n      0x00\n        /* \"--CODEGEN--\":67:94   */\n      revert\n        /* \"--CODEGEN--\":5:7   */\n    tag_155:\n        /* \"DISNEY/disney.sol\":8866:8911  msg.sender.transfer(PrecioTokens(_numTokens)) */\n      pop\n        /* \"DISNEY/disney.sol\":8319:8918  function DevolverTokens (uint _numTokens) public payable {... */\n      pop\n      jump\t// out\n        /* \"DISNEY/disney.sol\":7250:7684  function AltaComida(string memory _nombreComida, uint _precio) public Unicamente (msg.sender) {... */\n    tag_44:\n        /* \"DISNEY/disney.sol\":7332:7342  msg.sender */\n      caller\n        /* \"DISNEY/disney.sol\":2747:2752  owner */\n      0x01\n      0x00\n      swap1\n      sload\n      swap1\n      0x0100\n      exp\n      swap1\n      div\n      0xffffffffffffffffffffffffffffffffffffffff\n      and\n        /* \"DISNEY/disney.sol\":2733:2752  _direccion == owner */\n      0xffffffffffffffffffffffffffffffffffffffff\n      and\n        /* \"DISNEY/disney.sol\":2733:2743  _direccion */\n      dup2\n        /* \"DISNEY/disney.sol\":2733:2752  _direccion == owner */\n      0xffffffffffffffffffffffffffffffffffffffff\n      and\n      eq\n        /* \"DISNEY/disney.sol\":2725:2803  require(_direccion == owner, \"No tienes permisos para ejecutar esta funcion.\") */\n      tag_157\n      jumpi\n      mload(0x40)\n      0x08c379a000000000000000000000000000000000000000000000000000000000\n      dup2\n      mstore\n      0x04\n      add\n      tag_158\n      swap1\n      jump(tag_110)\n    tag_158:\n      mload(0x40)\n      dup1\n      swap2\n      sub\n      swap1\n      revert\n    tag_157:\n        /* \"DISNEY/disney.sol\":7429:7465  comida(_nombreComida, _precio, true) */\n      mload(0x40)\n      dup1\n      0x60\n      add\n      0x40\n      mstore\n      dup1\n        /* \"DISNEY/disney.sol\":7436:7449  _nombreComida */\n      dup5\n        /* \"DISNEY/disney.sol\":7429:7465  comida(_nombreComida, _precio, true) */\n      dup2\n      mstore\n      0x20\n      add\n        /* \"DISNEY/disney.sol\":7451:7458  _precio */\n      dup4\n        /* \"DISNEY/disney.sol\":7429:7465  comida(_nombreComida, _precio, true) */\n      dup2\n      mstore\n      0x20\n      add\n        /* \"DISNEY/disney.sol\":7460:7464  true */\n      0x01\n        /* \"DISNEY/disney.sol\":7429:7465  comida(_nombreComida, _precio, true) */\n      iszero\n      iszero\n      dup2\n      mstore\n      pop\n        /* \"DISNEY/disney.sol\":7398:7411  MappingComida */\n      0x06\n        /* \"DISNEY/disney.sol\":7412:7425  _nombreComida */\n      dup5\n        /* \"DISNEY/disney.sol\":7398:7426  MappingComida[_nombreComida] */\n      mload(0x40)\n      tag_160\n      swap2\n      swap1\n      jump(tag_118)\n    tag_160:\n      swap1\n      dup2\n      mstore\n      0x20\n      add\n      mload(0x40)\n      dup1\n      swap2\n      sub\n      swap1\n      keccak256\n        /* \"DISNEY/disney.sol\":7398:7465  MappingComida[_nombreComida] = comida(_nombreComida, _precio, true) */\n      0x00\n      dup3\n      add\n      mload\n      dup2\n      0x00\n      add\n      swap1\n      dup1\n      mload\n      swap1\n      0x20\n      add\n      swap1\n      tag_161\n      swap3\n      swap2\n      swap1\n      tag_136\n      jump\t// in\n    tag_161:\n      pop\n      0x20\n      dup3\n      add\n      mload\n      dup2\n      0x01\n      add\n      sstore\n      0x40\n      dup3\n      add\n      mload\n      dup2\n      0x02\n      add\n      exp(0x0100, 0x00)\n      dup2\n      sload\n      dup2\n      0xff\n      mul\n      not\n      and\n      swap1\n      dup4\n      iszero\n      iszero\n      mul\n      or\n      swap1\n      sstore\n      pop\n      swap1\n      pop\n      pop\n        /* \"DISNEY/disney.sol\":7541:7548  Comidas */\n      0x07\n        /* \"DISNEY/disney.sol\":7554:7567  _nombreComida */\n      dup4\n        /* \"DISNEY/disney.sol\":7541:7568  Comidas.push(_nombreComida) */\n      swap1\n      dup1\n        /* \"--CODEGEN--\":39:40   */\n      0x01\n        /* \"--CODEGEN--\":33:36   */\n      dup2\n        /* \"--CODEGEN--\":27:37   */\n      sload\n        /* \"--CODEGEN--\":23:41   */\n      add\n        /* \"--CODEGEN--\":57:67   */\n      dup1\n        /* \"--CODEGEN--\":52:55   */\n      dup3\n        /* \"--CODEGEN--\":45:68   */\n      sstore\n        /* \"--CODEGEN--\":79:89   */\n      dup1\n        /* \"--CODEGEN--\":72:89   */\n      swap2\n      pop\n        /* \"--CODEGEN--\":0:93   */\n      pop\n        /* \"DISNEY/disney.sol\":7541:7568  Comidas.push(_nombreComida) */\n      0x01\n      swap1\n      sub\n      swap1\n      0x00\n      mstore\n      keccak256(0x00, 0x20)\n      add\n      0x00\n      swap1\n      swap2\n      swap1\n      swap2\n      swap1\n      swap2\n      pop\n      swap1\n      dup1\n      mload\n      swap1\n      0x20\n      add\n      swap1\n      tag_163\n      swap3\n      swap2\n      swap1\n      tag_136\n      jump\t// in\n    tag_163:\n      pop\n        /* \"DISNEY/disney.sol\":7642:7677  alta_comida(_nombreComida, _precio) */\n      0x4822082a8fc27e02f7551bba1d63c9aa17637aa764b17878bac1197ddd4c6028\n        /* \"DISNEY/disney.sol\":7654:7667  _nombreComida */\n      dup4\n        /* \"DISNEY/disney.sol\":7669:7676  _precio */\n      dup4\n        /* \"DISNEY/disney.sol\":7642:7677  alta_comida(_nombreComida, _precio) */\n      mload(0x40)\n      tag_164\n      swap3\n      swap2\n      swap1\n      jump(tag_165)\n    tag_164:\n      mload(0x40)\n      dup1\n      swap2\n      sub\n      swap1\n      log1\n        /* \"DISNEY/disney.sol\":7250:7684  function AltaComida(string memory _nombreComida, uint _precio) public Unicamente (msg.sender) {... */\n      pop\n      pop\n      pop\n      jump\t// out\n        /* \"DISNEY/disney.sol\":7032:7156  function ConsultaHistorial() public view returns (string [] memory) {... */\n    tag_47:\n        /* \"DISNEY/disney.sol\":7082:7098  string [] memory */\n      0x60\n        /* \"DISNEY/disney.sol\":7117:7137  HistorialAtracciones */\n      0x05\n        /* \"DISNEY/disney.sol\":7117:7149  HistorialAtracciones[msg.sender] */\n      0x00\n        /* \"DISNEY/disney.sol\":7138:7148  msg.sender */\n      caller\n        /* \"DISNEY/disney.sol\":7117:7149  HistorialAtracciones[msg.sender] */\n      0xffffffffffffffffffffffffffffffffffffffff\n      and\n      0xffffffffffffffffffffffffffffffffffffffff\n      and\n      dup2\n      mstore\n      0x20\n      add\n      swap1\n      dup2\n      mstore\n      0x20\n      add\n      0x00\n      keccak256\n        /* \"DISNEY/disney.sol\":7110:7149  return HistorialAtracciones[msg.sender] */\n      dup1\n      sload\n      dup1\n      0x20\n      mul\n      0x20\n      add\n      mload(0x40)\n      swap1\n      dup2\n      add\n      0x40\n      mstore\n      dup1\n      swap3\n      swap2\n      swap1\n      dup2\n      dup2\n      mstore\n      0x20\n      add\n      0x00\n      swap1\n    tag_167:\n      dup3\n      dup3\n      lt\n      iszero\n      tag_168\n      jumpi\n      dup4\n      dup3\n      swap1\n      0x00\n      mstore\n      keccak256(0x00, 0x20)\n      add\n      dup1\n      sload\n      0x01\n      dup2\n      0x01\n      and\n      iszero\n      0x0100\n      mul\n      sub\n      and\n      0x02\n      swap1\n      div\n      dup1\n      0x1f\n      add\n      0x20\n      dup1\n      swap2\n      div\n      mul\n      0x20\n      add\n      mload(0x40)\n      swap1\n      dup2\n      add\n      0x40\n      mstore\n      dup1\n      swap3\n      swap2\n      swap1\n      dup2\n      dup2\n      mstore\n      0x20\n      add\n      dup3\n      dup1\n      sload\n      0x01\n      dup2\n      0x01\n      and\n      iszero\n      0x0100\n      mul\n      sub\n      and\n      0x02\n      swap1\n      div\n      dup1\n      iszero\n      tag_170\n      jumpi\n      dup1\n      0x1f\n      lt\n      tag_171\n      jumpi\n      0x0100\n      dup1\n      dup4\n      sload\n      div\n      mul\n      dup4\n      mstore\n      swap2\n      0x20\n      add\n      swap2\n      jump(tag_170)\n    tag_171:\n      dup3\n      add\n      swap2\n      swap1\n      0x00\n      mstore\n      keccak256(0x00, 0x20)\n      swap1\n    tag_172:\n      dup2\n      sload\n      dup2\n      mstore\n      swap1\n      0x01\n      add\n      swap1\n      0x20\n      add\n      dup1\n      dup4\n      gt\n      tag_172\n      jumpi\n      dup3\n      swap1\n      sub\n      0x1f\n      and\n      dup3\n      add\n      swap2\n    tag_170:\n      pop\n      pop\n      pop\n      pop\n      pop\n      dup2\n      mstore\n      0x20\n      add\n      swap1\n      0x01\n      add\n      swap1\n      jump(tag_167)\n    tag_168:\n      pop\n      pop\n      pop\n      pop\n      swap1\n      pop\n        /* \"DISNEY/disney.sol\":7032:7156  function ConsultaHistorial() public view returns (string [] memory) {... */\n      swap1\n      jump\t// out\n        /* \"DISNEY/disney.sol\":5316:5424  function AtraccionesDisponibles() public view returns (string [] memory) {... */\n    tag_52:\n        /* \"DISNEY/disney.sol\":5371:5387  string [] memory */\n      0x60\n        /* \"DISNEY/disney.sol\":5406:5417  Atracciones */\n      0x04\n        /* \"DISNEY/disney.sol\":5399:5417  return Atracciones */\n      dup1\n      sload\n      dup1\n      0x20\n      mul\n      0x20\n      add\n      mload(0x40)\n      swap1\n      dup2\n      add\n      0x40\n      mstore\n      dup1\n      swap3\n      swap2\n      swap1\n      dup2\n      dup2\n      mstore\n      0x20\n      add\n      0x00\n      swap1\n    tag_174:\n      dup3\n      dup3\n      lt\n      iszero\n      tag_175\n      jumpi\n      dup4\n      dup3\n      swap1\n      0x00\n      mstore\n      keccak256(0x00, 0x20)\n      add\n      dup1\n      sload\n      0x01\n      dup2\n      0x01\n      and\n      iszero\n      0x0100\n      mul\n      sub\n      and\n      0x02\n      swap1\n      div\n      dup1\n      0x1f\n      add\n      0x20\n      dup1\n      swap2\n      div\n      mul\n      0x20\n      add\n      mload(0x40)\n      swap1\n      dup2\n      add\n      0x40\n      mstore\n      dup1\n      swap3\n      swap2\n      swap1\n      dup2\n      dup2\n      mstore\n      0x20\n      add\n      dup3\n      dup1\n      sload\n      0x01\n      dup2\n      0x01\n      and\n      iszero\n      0x0100\n      mul\n      sub\n      and\n      0x02\n      swap1\n      div\n      dup1\n      iszero\n      tag_177\n      jumpi\n      dup1\n      0x1f\n      lt\n      tag_178\n      jumpi\n      0x0100\n      dup1\n      dup4\n      sload\n      div\n      mul\n      dup4\n      mstore\n      swap2\n      0x20\n      add\n      swap2\n      jump(tag_177)\n    tag_178:\n      dup3\n      add\n      swap2\n      swap1\n      0x00\n      mstore\n      keccak256(0x00, 0x20)\n      swap1\n    tag_179:\n      dup2\n      sload\n      dup2\n      mstore\n      swap1\n      0x01\n      add\n      swap1\n      0x20\n      add\n      dup1\n      dup4\n      gt\n      tag_179\n      jumpi\n      dup3\n      swap1\n      sub\n      0x1f\n      and\n      dup3\n      add\n      swap2\n    tag_177:\n      pop\n      pop\n      pop\n      pop\n      pop\n      dup2\n      mstore\n      0x20\n      add\n      swap1\n      0x01\n      add\n      swap1\n      jump(tag_174)\n    tag_175:\n      pop\n      pop\n      pop\n      pop\n      swap1\n      pop\n        /* \"DISNEY/disney.sol\":5316:5424  function AtraccionesDisponibles() public view returns (string [] memory) {... */\n      swap1\n      jump\t// out\n        /* \"DISNEY/disney.sol\":4365:4835  function AltaAtraccion(string memory _nombreAtraccion, uint _precio) public Unicamente (msg.sender) {... */\n    tag_57:\n        /* \"DISNEY/disney.sol\":4453:4463  msg.sender */\n      caller\n        /* \"DISNEY/disney.sol\":2747:2752  owner */\n      0x01\n      0x00\n      swap1\n      sload\n      swap1\n      0x0100\n      exp\n      swap1\n      div\n      0xffffffffffffffffffffffffffffffffffffffff\n      and\n        /* \"DISNEY/disney.sol\":2733:2752  _direccion == owner */\n      0xffffffffffffffffffffffffffffffffffffffff\n      and\n        /* \"DISNEY/disney.sol\":2733:2743  _direccion */\n      dup2\n        /* \"DISNEY/disney.sol\":2733:2752  _direccion == owner */\n      0xffffffffffffffffffffffffffffffffffffffff\n      and\n      eq\n        /* \"DISNEY/disney.sol\":2725:2803  require(_direccion == owner, \"No tienes permisos para ejecutar esta funcion.\") */\n      tag_181\n      jumpi\n      mload(0x40)\n      0x08c379a000000000000000000000000000000000000000000000000000000000\n      dup2\n      mstore\n      0x04\n      add\n      tag_182\n      swap1\n      jump(tag_110)\n    tag_182:\n      mload(0x40)\n      dup1\n      swap2\n      sub\n      swap1\n      revert\n    tag_181:\n        /* \"DISNEY/disney.sol\":4561:4603  atraccion(_nombreAtraccion, _precio, true) */\n      mload(0x40)\n      dup1\n      0x60\n      add\n      0x40\n      mstore\n      dup1\n        /* \"DISNEY/disney.sol\":4571:4587  _nombreAtraccion */\n      dup5\n        /* \"DISNEY/disney.sol\":4561:4603  atraccion(_nombreAtraccion, _precio, true) */\n      dup2\n      mstore\n      0x20\n      add\n        /* \"DISNEY/disney.sol\":4589:4596  _precio */\n      dup4\n        /* \"DISNEY/disney.sol\":4561:4603  atraccion(_nombreAtraccion, _precio, true) */\n      dup2\n      mstore\n      0x20\n      add\n        /* \"DISNEY/disney.sol\":4598:4602  true */\n      0x01\n        /* \"DISNEY/disney.sol\":4561:4603  atraccion(_nombreAtraccion, _precio, true) */\n      iszero\n      iszero\n      dup2\n      mstore\n      pop\n        /* \"DISNEY/disney.sol\":4522:4540  MappingAtracciones */\n      0x03\n        /* \"DISNEY/disney.sol\":4541:4557  _nombreAtraccion */\n      dup5\n        /* \"DISNEY/disney.sol\":4522:4558  MappingAtracciones[_nombreAtraccion] */\n      mload(0x40)\n      tag_184\n      swap2\n      swap1\n      jump(tag_118)\n    tag_184:\n      swap1\n      dup2\n      mstore\n      0x20\n      add\n      mload(0x40)\n      dup1\n      swap2\n      sub\n      swap1\n      keccak256\n        /* \"DISNEY/disney.sol\":4522:4603  MappingAtracciones[_nombreAtraccion] = atraccion(_nombreAtraccion, _precio, true) */\n      0x00\n      dup3\n      add\n      mload\n      dup2\n      0x00\n      add\n      swap1\n      dup1\n      mload\n      swap1\n      0x20\n      add\n      swap1\n      tag_185\n      swap3\n      swap2\n      swap1\n      tag_136\n      jump\t// in\n    tag_185:\n      pop\n      0x20\n      dup3\n      add\n      mload\n      dup2\n      0x01\n      add\n      sstore\n      0x40\n      dup3\n      add\n      mload\n      dup2\n      0x02\n      add\n      exp(0x0100, 0x00)\n      dup2\n      sload\n      dup2\n      0xff\n      mul\n      not\n      and\n      swap1\n      dup4\n      iszero\n      iszero\n      mul\n      or\n      swap1\n      sstore\n      pop\n      swap1\n      pop\n      pop\n        /* \"DISNEY/disney.sol\":4679:4690  Atracciones */\n      0x04\n        /* \"DISNEY/disney.sol\":4696:4712  _nombreAtraccion */\n      dup4\n        /* \"DISNEY/disney.sol\":4679:4713  Atracciones.push(_nombreAtraccion) */\n      swap1\n      dup1\n        /* \"--CODEGEN--\":39:40   */\n      0x01\n        /* \"--CODEGEN--\":33:36   */\n      dup2\n        /* \"--CODEGEN--\":27:37   */\n      sload\n        /* \"--CODEGEN--\":23:41   */\n      add\n        /* \"--CODEGEN--\":57:67   */\n      dup1\n        /* \"--CODEGEN--\":52:55   */\n      dup3\n        /* \"--CODEGEN--\":45:68   */\n      sstore\n        /* \"--CODEGEN--\":79:89   */\n      dup1\n        /* \"--CODEGEN--\":72:89   */\n      swap2\n      pop\n        /* \"--CODEGEN--\":0:93   */\n      pop\n        /* \"DISNEY/disney.sol\":4679:4713  Atracciones.push(_nombreAtraccion) */\n      0x01\n      swap1\n      sub\n      swap1\n      0x00\n      mstore\n      keccak256(0x00, 0x20)\n      add\n      0x00\n      swap1\n      swap2\n      swap1\n      swap2\n      swap1\n      swap2\n      pop\n      swap1\n      dup1\n      mload\n      swap1\n      0x20\n      add\n      swap1\n      tag_187\n      swap3\n      swap2\n      swap1\n      tag_136\n      jump\t// in\n    tag_187:\n      pop\n        /* \"DISNEY/disney.sol\":4787:4828  alta_atraccion(_nombreAtraccion, _precio) */\n      0xef69c38fe63a06c66bf59a6eedc8716eba333ed78488e0b767455a9cf2eecbb3\n        /* \"DISNEY/disney.sol\":4802:4818  _nombreAtraccion */\n      dup4\n        /* \"DISNEY/disney.sol\":4820:4827  _precio */\n      dup4\n        /* \"DISNEY/disney.sol\":4787:4828  alta_atraccion(_nombreAtraccion, _precio) */\n      mload(0x40)\n      tag_188\n      swap3\n      swap2\n      swap1\n      jump(tag_165)\n    tag_188:\n      mload(0x40)\n      dup1\n      swap2\n      sub\n      swap1\n      log1\n        /* \"DISNEY/disney.sol\":4365:4835  function AltaAtraccion(string memory _nombreAtraccion, uint _precio) public Unicamente (msg.sender) {... */\n      pop\n      pop\n      pop\n      jump\t// out\n        /* \"DISNEY/disney.sol\":311:339  address payable public owner */\n    tag_60:\n      0x01\n      0x00\n      swap1\n      sload\n      swap1\n      0x0100\n      exp\n      swap1\n      div\n      0xffffffffffffffffffffffffffffffffffffffff\n      and\n      dup2\n      jump\t// out\n        /* \"DISNEY/disney.sol\":8138:8238  function ComidasDisponibles() public view returns (string [] memory) {... */\n    tag_65:\n        /* \"DISNEY/disney.sol\":8189:8205  string [] memory */\n      0x60\n        /* \"DISNEY/disney.sol\":8224:8231  Comidas */\n      0x07\n        /* \"DISNEY/disney.sol\":8217:8231  return Comidas */\n      dup1\n      sload\n      dup1\n      0x20\n      mul\n      0x20\n      add\n      mload(0x40)\n      swap1\n      dup2\n      add\n      0x40\n      mstore\n      dup1\n      swap3\n      swap2\n      swap1\n      dup2\n      dup2\n      mstore\n      0x20\n      add\n      0x00\n      swap1\n    tag_190:\n      dup3\n      dup3\n      lt\n      iszero\n      tag_191\n      jumpi\n      dup4\n      dup3\n      swap1\n      0x00\n      mstore\n      keccak256(0x00, 0x20)\n      add\n      dup1\n      sload\n      0x01\n      dup2\n      0x01\n      and\n      iszero\n      0x0100\n      mul\n      sub\n      and\n      0x02\n      swap1\n      div\n      dup1\n      0x1f\n      add\n      0x20\n      dup1\n      swap2\n      div\n      mul\n      0x20\n      add\n      mload(0x40)\n      swap1\n      dup2\n      add\n      0x40\n      mstore\n      dup1\n      swap3\n      swap2\n      swap1\n      dup2\n      dup2\n      mstore\n      0x20\n      add\n      dup3\n      dup1\n      sload\n      0x01\n      dup2\n      0x01\n      and\n      iszero\n      0x0100\n      mul\n      sub\n      and\n      0x02\n      swap1\n      div\n      dup1\n      iszero\n      tag_193\n      jumpi\n      dup1\n      0x1f\n      lt\n      tag_194\n      jumpi\n      0x0100\n      dup1\n      dup4\n      sload\n      div\n      mul\n      dup4\n      mstore\n      swap2\n      0x20\n      add\n      swap2\n      jump(tag_193)\n    tag_194:\n      dup3\n      add\n      swap2\n      swap1\n      0x00\n      mstore\n      keccak256(0x00, 0x20)\n      swap1\n    tag_195:\n      dup2\n      sload\n      dup2\n      mstore\n      swap1\n      0x01\n      add\n      swap1\n      0x20\n      add\n      dup1\n      dup4\n      gt\n      tag_195\n      jumpi\n      dup3\n      swap1\n      sub\n      0x1f\n      and\n      dup3\n      add\n      swap2\n    tag_193:\n      pop\n      pop\n      pop\n      pop\n      pop\n      dup2\n      mstore\n      0x20\n      add\n      swap1\n      0x01\n      add\n      swap1\n      jump(tag_190)\n    tag_191:\n      pop\n      pop\n      pop\n      pop\n      swap1\n      pop\n        /* \"DISNEY/disney.sol\":8138:8238  function ComidasDisponibles() public view returns (string [] memory) {... */\n      swap1\n      jump\t// out\n        /* \"DISNEY/disney.sol\":4915:5253  function BajaAtraccion(string memory _nombreAtraccion) public Unicamente (msg.sender) {... */\n    tag_70:\n        /* \"DISNEY/disney.sol\":4989:4999  msg.sender */\n      caller\n        /* \"DISNEY/disney.sol\":2747:2752  owner */\n      0x01\n      0x00\n      swap1\n      sload\n      swap1\n      0x0100\n      exp\n      swap1\n      div\n      0xffffffffffffffffffffffffffffffffffffffff\n      and\n        /* \"DISNEY/disney.sol\":2733:2752  _direccion == owner */\n      0xffffffffffffffffffffffffffffffffffffffff\n      and\n        /* \"DISNEY/disney.sol\":2733:2743  _direccion */\n      dup2\n        /* \"DISNEY/disney.sol\":2733:2752  _direccion == owner */\n      0xffffffffffffffffffffffffffffffffffffffff\n      and\n      eq\n        /* \"DISNEY/disney.sol\":2725:2803  require(_direccion == owner, \"No tienes permisos para ejecutar esta funcion.\") */\n      tag_197\n      jumpi\n      mload(0x40)\n      0x08c379a000000000000000000000000000000000000000000000000000000000\n      dup2\n      mstore\n      0x04\n      add\n      tag_198\n      swap1\n      jump(tag_110)\n    tag_198:\n      mload(0x40)\n      dup1\n      swap2\n      sub\n      swap1\n      revert\n    tag_197:\n        /* \"DISNEY/disney.sol\":5135:5140  false */\n      0x00\n        /* \"DISNEY/disney.sol\":5079:5097  MappingAtracciones */\n      0x03\n        /* \"DISNEY/disney.sol\":5098:5114  _nombreAtraccion */\n      dup4\n        /* \"DISNEY/disney.sol\":5079:5115  MappingAtracciones[_nombreAtraccion] */\n      mload(0x40)\n      tag_200\n      swap2\n      swap1\n      jump(tag_118)\n    tag_200:\n      swap1\n      dup2\n      mstore\n      0x20\n      add\n      mload(0x40)\n      dup1\n      swap2\n      sub\n      swap1\n      keccak256\n        /* \"DISNEY/disney.sol\":5079:5132  MappingAtracciones[_nombreAtraccion].estado_atraccion */\n      0x02\n      add\n      0x00\n        /* \"DISNEY/disney.sol\":5079:5140  MappingAtracciones[_nombreAtraccion].estado_atraccion = false */\n      0x0100\n      exp\n      dup2\n      sload\n      dup2\n      0xff\n      mul\n      not\n      and\n      swap1\n      dup4\n      iszero\n      iszero\n      mul\n      or\n      swap1\n      sstore\n      pop\n        /* \"DISNEY/disney.sol\":5214:5246  baja_atraccion(_nombreAtraccion) */\n      0x24ba6c881728980191398db8dcfd8ed4f6aeb1c08df349d63f3b85075f3e86dd\n        /* \"DISNEY/disney.sol\":5229:5245  _nombreAtraccion */\n      dup3\n        /* \"DISNEY/disney.sol\":5214:5246  baja_atraccion(_nombreAtraccion) */\n      mload(0x40)\n      tag_201\n      swap2\n      swap1\n      jump(tag_202)\n    tag_201:\n      mload(0x40)\n      dup1\n      swap2\n      sub\n      swap1\n      log1\n        /* \"DISNEY/disney.sol\":4915:5253  function BajaAtraccion(string memory _nombreAtraccion) public Unicamente (msg.sender) {... */\n      pop\n      pop\n      jump\t// out\n        /* \"DISNEY/disney.sol\":784:828  mapping (address => cliente) public Clientes */\n    tag_75:\n      mstore(0x20, 0x02)\n      dup1\n      0x00\n      mstore\n      keccak256(0x00, 0x40)\n      0x00\n      swap2\n      pop\n      swap1\n      pop\n      dup1\n      0x00\n      add\n      sload\n      swap1\n      pop\n      dup2\n      jump\t// out\n        /* \"DISNEY/disney.sol\":3644:3699  mapping (string => atraccion) public MappingAtracciones */\n    tag_80:\n      0x03\n      dup2\n        /* \"--CODEGEN--\":28:35   */\n      dup1\n        /* \"--CODEGEN--\":22:36   */\n      mload\n        /* \"--CODEGEN--\":169:173   */\n      0x20\n        /* \"--CODEGEN--\":160:167   */\n      dup2\n        /* \"--CODEGEN--\":156:174   */\n      add\n        /* \"--CODEGEN--\":147:154   */\n      dup3\n        /* \"--CODEGEN--\":143:175   */\n      add\n        /* \"--CODEGEN--\":204:217   */\n      dup1\n        /* \"--CODEGEN--\":198:218   */\n      mload\n        /* \"--CODEGEN--\":246:254   */\n      dup5\n        /* \"--CODEGEN--\":231:244   */\n      dup3\n        /* \"--CODEGEN--\":224:255   */\n      mstore\n        /* \"--CODEGEN--\":316:320   */\n      0x20\n        /* \"--CODEGEN--\":307:314   */\n      dup4\n        /* \"--CODEGEN--\":303:321   */\n      add\n        /* \"--CODEGEN--\":296:300   */\n      0x20\n        /* \"--CODEGEN--\":287:294   */\n      dup6\n        /* \"--CODEGEN--\":283:301   */\n      add\n        /* \"--CODEGEN--\":273:322   */\n      keccak256\n        /* \"--CODEGEN--\":350:359   */\n      dup2\n        /* \"--CODEGEN--\":335:348   */\n      dup4\n        /* \"--CODEGEN--\":328:360   */\n      mstore\n        /* \"--CODEGEN--\":378:382   */\n      dup1\n        /* \"--CODEGEN--\":366:382   */\n      swap6\n      pop\n        /* \"--CODEGEN--\":0:388   */\n      pop\n      pop\n      pop\n      pop\n        /* \"DISNEY/disney.sol\":3644:3699  mapping (string => atraccion) public MappingAtracciones */\n      pop\n      0x00\n      swap2\n      pop\n      swap1\n      pop\n      dup1\n      0x00\n      add\n      dup1\n      sload\n      0x01\n      dup2\n      0x01\n      and\n      iszero\n      0x0100\n      mul\n      sub\n      and\n      0x02\n      swap1\n      div\n      dup1\n      0x1f\n      add\n      0x20\n      dup1\n      swap2\n      div\n      mul\n      0x20\n      add\n      mload(0x40)\n      swap1\n      dup2\n      add\n      0x40\n      mstore\n      dup1\n      swap3\n      swap2\n      swap1\n      dup2\n      dup2\n      mstore\n      0x20\n      add\n      dup3\n      dup1\n      sload\n      0x01\n      dup2\n      0x01\n      and\n      iszero\n      0x0100\n      mul\n      sub\n      and\n      0x02\n      swap1\n      div\n      dup1\n      iszero\n      tag_203\n      jumpi\n      dup1\n      0x1f\n      lt\n      tag_204\n      jumpi\n      0x0100\n      dup1\n      dup4\n      sload\n      div\n      mul\n      dup4\n      mstore\n      swap2\n      0x20\n      add\n      swap2\n      jump(tag_203)\n    tag_204:\n      dup3\n      add\n      swap2\n      swap1\n      0x00\n      mstore\n      keccak256(0x00, 0x20)\n      swap1\n    tag_205:\n      dup2\n      sload\n      dup2\n      mstore\n      swap1\n      0x01\n      add\n      swap1\n      0x20\n      add\n      dup1\n      dup4\n      gt\n      tag_205\n      jumpi\n      dup3\n      swap1\n      sub\n      0x1f\n      and\n      dup3\n      add\n      swap2\n    tag_203:\n      pop\n      pop\n      pop\n      pop\n      pop\n      swap1\n      dup1\n      0x01\n      add\n      sload\n      swap1\n      dup1\n      0x02\n      add\n      0x00\n      swap1\n      sload\n      swap1\n      0x0100\n      exp\n      swap1\n      div\n      0xff\n      and\n      swap1\n      pop\n      dup4\n      jump\t// out\n        /* \"DISNEY/disney.sol\":4008:4055  mapping (string => comida) public MappingComida */\n    tag_86:\n      0x06\n      dup2\n        /* \"--CODEGEN--\":28:35   */\n      dup1\n        /* \"--CODEGEN--\":22:36   */\n      mload\n        /* \"--CODEGEN--\":169:173   */\n      0x20\n        /* \"--CODEGEN--\":160:167   */\n      dup2\n        /* \"--CODEGEN--\":156:174   */\n      add\n        /* \"--CODEGEN--\":147:154   */\n      dup3\n        /* \"--CODEGEN--\":143:175   */\n      add\n        /* \"--CODEGEN--\":204:217   */\n      dup1\n        /* \"--CODEGEN--\":198:218   */\n      mload\n        /* \"--CODEGEN--\":246:254   */\n      dup5\n        /* \"--CODEGEN--\":231:244   */\n      dup3\n        /* \"--CODEGEN--\":224:255   */\n      mstore\n        /* \"--CODEGEN--\":316:320   */\n      0x20\n        /* \"--CODEGEN--\":307:314   */\n      dup4\n        /* \"--CODEGEN--\":303:321   */\n      add\n        /* \"--CODEGEN--\":296:300   */\n      0x20\n        /* \"--CODEGEN--\":287:294   */\n      dup6\n        /* \"--CODEGEN--\":283:301   */\n      add\n        /* \"--CODEGEN--\":273:322   */\n      keccak256\n        /* \"--CODEGEN--\":350:359   */\n      dup2\n        /* \"--CODEGEN--\":335:348   */\n      dup4\n        /* \"--CODEGEN--\":328:360   */\n      mstore\n        /* \"--CODEGEN--\":378:382   */\n      dup1\n        /* \"--CODEGEN--\":366:382   */\n      swap6\n      pop\n        /* \"--CODEGEN--\":0:388   */\n      pop\n      pop\n      pop\n      pop\n        /* \"DISNEY/disney.sol\":4008:4055  mapping (string => comida) public MappingComida */\n      pop\n      0x00\n      swap2\n      pop\n      swap1\n      pop\n      dup1\n      0x00\n      add\n      dup1\n      sload\n      0x01\n      dup2\n      0x01\n      and\n      iszero\n      0x0100\n      mul\n      sub\n      and\n      0x02\n      swap1\n      div\n      dup1\n      0x1f\n      add\n      0x20\n      dup1\n      swap2\n      div\n      mul\n      0x20\n      add\n      mload(0x40)\n      swap1\n      dup2\n      add\n      0x40\n      mstore\n      dup1\n      swap3\n      swap2\n      swap1\n      dup2\n      dup2\n      mstore\n      0x20\n      add\n      dup3\n      dup1\n      sload\n      0x01\n      dup2\n      0x01\n      and\n      iszero\n      0x0100\n      mul\n      sub\n      and\n      0x02\n      swap1\n      div\n      dup1\n      iszero\n      tag_206\n      jumpi\n      dup1\n      0x1f\n      lt\n      tag_207\n      jumpi\n      0x0100\n      dup1\n      dup4\n      sload\n      div\n      mul\n      dup4\n      mstore\n      swap2\n      0x20\n      add\n      swap2\n      jump(tag_206)\n    tag_207:\n      dup3\n      add\n      swap2\n      swap1\n      0x00\n      mstore\n      keccak256(0x00, 0x20)\n      swap1\n    tag_208:\n      dup2\n      sload\n      dup2\n      mstore\n      swap1\n      0x01\n      add\n      swap1\n      0x20\n      add\n      dup1\n      dup4\n      gt\n      tag_208\n      jumpi\n      dup3\n      swap1\n      sub\n      0x1f\n      and\n      dup3\n      add\n      swap2\n    tag_206:\n      pop\n      pop\n      pop\n      pop\n      pop\n      swap1\n      dup1\n      0x01\n      add\n      sload\n      swap1\n      dup1\n      0x02\n      add\n      0x00\n      swap1\n      sload\n      swap1\n      0x0100\n      exp\n      swap1\n      div\n      0xff\n      and\n      swap1\n      pop\n      dup4\n      jump\t// out\n        /* \"DISNEY/disney.sol\":7765:8079  function BajaComida(string memory _nombreComida) public Unicamente (msg.sender) {... */\n    tag_91:\n        /* \"DISNEY/disney.sol\":7833:7843  msg.sender */\n      caller\n        /* \"DISNEY/disney.sol\":2747:2752  owner */\n      0x01\n      0x00\n      swap1\n      sload\n      swap1\n      0x0100\n      exp\n      swap1\n      div\n      0xffffffffffffffffffffffffffffffffffffffff\n      and\n        /* \"DISNEY/disney.sol\":2733:2752  _direccion == owner */\n      0xffffffffffffffffffffffffffffffffffffffff\n      and\n        /* \"DISNEY/disney.sol\":2733:2743  _direccion */\n      dup2\n        /* \"DISNEY/disney.sol\":2733:2752  _direccion == owner */\n      0xffffffffffffffffffffffffffffffffffffffff\n      and\n      eq\n        /* \"DISNEY/disney.sol\":2725:2803  require(_direccion == owner, \"No tienes permisos para ejecutar esta funcion.\") */\n      tag_210\n      jumpi\n      mload(0x40)\n      0x08c379a000000000000000000000000000000000000000000000000000000000\n      dup2\n      mstore\n      0x04\n      add\n      tag_211\n      swap1\n      jump(tag_110)\n    tag_211:\n      mload(0x40)\n      dup1\n      swap2\n      sub\n      swap1\n      revert\n    tag_210:\n        /* \"DISNEY/disney.sol\":7967:7972  false */\n      0x00\n        /* \"DISNEY/disney.sol\":7923:7936  MappingComida */\n      0x06\n        /* \"DISNEY/disney.sol\":7937:7950  _nombreComida */\n      dup4\n        /* \"DISNEY/disney.sol\":7923:7951  MappingComida[_nombreComida] */\n      mload(0x40)\n      tag_213\n      swap2\n      swap1\n      jump(tag_118)\n    tag_213:\n      swap1\n      dup2\n      mstore\n      0x20\n      add\n      mload(0x40)\n      dup1\n      swap2\n      sub\n      swap1\n      keccak256\n        /* \"DISNEY/disney.sol\":7923:7964  MappingComida[_nombreComida].stock_comida */\n      0x02\n      add\n      0x00\n        /* \"DISNEY/disney.sol\":7923:7972  MappingComida[_nombreComida].stock_comida = false */\n      0x0100\n      exp\n      dup2\n      sload\n      dup2\n      0xff\n      mul\n      not\n      and\n      swap1\n      dup4\n      iszero\n      iszero\n      mul\n      or\n      swap1\n      sstore\n      pop\n        /* \"DISNEY/disney.sol\":8046:8072  baja_comida(_nombreComida) */\n      0xc08b02ec29b10837b03ba712be7196ccd02824c57a727dbd6c9718051c9437c6\n        /* \"DISNEY/disney.sol\":8058:8071  _nombreComida */\n      dup3\n        /* \"DISNEY/disney.sol\":8046:8072  baja_comida(_nombreComida) */\n      mload(0x40)\n      tag_214\n      swap2\n      swap1\n      jump(tag_202)\n    tag_214:\n      mload(0x40)\n      dup1\n      swap2\n      sub\n      swap1\n      log1\n        /* \"DISNEY/disney.sol\":7765:8079  function BajaComida(string memory _nombreComida) public Unicamente (msg.sender) {... */\n      pop\n      pop\n      jump\t// out\n        /* \"DISNEY/disney.sol\":2324:2423  function MisTokens() public view returns (uint) {... */\n    tag_94:\n        /* \"DISNEY/disney.sol\":2366:2370  uint */\n      0x00\n        /* \"DISNEY/disney.sol\":2389:2394  token */\n      dup1\n      0x00\n      swap1\n      sload\n      swap1\n      0x0100\n      exp\n      swap1\n      div\n      0xffffffffffffffffffffffffffffffffffffffff\n      and\n        /* \"DISNEY/disney.sol\":2389:2404  token.balanceOf */\n      0xffffffffffffffffffffffffffffffffffffffff\n      and\n      0x70a08231\n        /* \"DISNEY/disney.sol\":2405:2415  msg.sender */\n      caller\n        /* \"DISNEY/disney.sol\":2389:2416  token.balanceOf(msg.sender) */\n      mload(0x40)\n      dup3\n      0xffffffff\n      and\n      0xe0\n      shl\n      dup2\n      mstore\n      0x04\n      add\n      tag_216\n      swap2\n      swap1\n      jump(tag_217)\n    tag_216:\n      0x20\n      mload(0x40)\n      dup1\n      dup4\n      sub\n      dup2\n      dup7\n      dup1\n      extcodesize\n      iszero\n        /* \"--CODEGEN--\":5:14   */\n      dup1\n        /* \"--CODEGEN--\":2:4   */\n      iszero\n      tag_218\n      jumpi\n        /* \"--CODEGEN--\":27:28   */\n      0x00\n        /* \"--CODEGEN--\":24:25   */\n      dup1\n        /* \"--CODEGEN--\":17:29   */\n      revert\n        /* \"--CODEGEN--\":2:4   */\n    tag_218:\n        /* \"DISNEY/disney.sol\":2389:2416  token.balanceOf(msg.sender) */\n      pop\n      gas\n      staticcall\n      iszero\n        /* \"--CODEGEN--\":8:17   */\n      dup1\n        /* \"--CODEGEN--\":5:7   */\n      iszero\n      tag_220\n      jumpi\n        /* \"--CODEGEN--\":45:61   */\n      returndatasize\n        /* \"--CODEGEN--\":42:43   */\n      0x00\n        /* \"--CODEGEN--\":39:40   */\n      dup1\n        /* \"--CODEGEN--\":24:62   */\n      returndatacopy\n        /* \"--CODEGEN--\":77:93   */\n      returndatasize\n        /* \"--CODEGEN--\":74:75   */\n      0x00\n        /* \"--CODEGEN--\":67:94   */\n      revert\n        /* \"--CODEGEN--\":5:7   */\n    tag_220:\n        /* \"DISNEY/disney.sol\":2389:2416  token.balanceOf(msg.sender) */\n      pop\n      pop\n      pop\n      pop\n      mload(0x40)\n      returndatasize\n        /* \"--CODEGEN--\":101:105   */\n      0x1f\n        /* \"--CODEGEN--\":97:106   */\n      not\n        /* \"--CODEGEN--\":90:94   */\n      0x1f\n        /* \"--CODEGEN--\":84:88   */\n      dup3\n        /* \"--CODEGEN--\":80:95   */\n      add\n        /* \"--CODEGEN--\":76:107   */\n      and\n        /* \"--CODEGEN--\":69:74   */\n      dup3\n        /* \"--CODEGEN--\":65:108   */\n      add\n        /* \"--CODEGEN--\":126:132   */\n      dup1\n        /* \"--CODEGEN--\":120:124   */\n      0x40\n        /* \"--CODEGEN--\":113:133   */\n      mstore\n        /* \"--CODEGEN--\":0:138   */\n      pop\n        /* \"DISNEY/disney.sol\":2389:2416  token.balanceOf(msg.sender) */\n      dup2\n      add\n      swap1\n      tag_221\n      swap2\n      swap1\n      jump(tag_106)\n    tag_221:\n        /* \"DISNEY/disney.sol\":2382:2416  return token.balanceOf(msg.sender) */\n      swap1\n      pop\n        /* \"DISNEY/disney.sol\":2324:2423  function MisTokens() public view returns (uint) {... */\n      swap1\n      jump\t// out\n        /* \"DISNEY/disney.sol\":1214:2100  function CompraTokens(uint _numTokens) public payable {... */\n    tag_98:\n        /* \"DISNEY/disney.sol\":1324:1334  uint coste */\n      0x00\n        /* \"DISNEY/disney.sol\":1337:1361  PrecioTokens(_numTokens) */\n      tag_223\n        /* \"DISNEY/disney.sol\":1350:1360  _numTokens */\n      dup3\n        /* \"DISNEY/disney.sol\":1337:1349  PrecioTokens */\n      tag_153\n        /* \"DISNEY/disney.sol\":1337:1361  PrecioTokens(_numTokens) */\n      jump\t// in\n    tag_223:\n        /* \"DISNEY/disney.sol\":1324:1361  uint coste = PrecioTokens(_numTokens) */\n      swap1\n      pop\n        /* \"DISNEY/disney.sol\":1464:1469  coste */\n      dup1\n        /* \"DISNEY/disney.sol\":1451:1460  msg.value */\n      callvalue\n        /* \"DISNEY/disney.sol\":1451:1469  msg.value >= coste */\n      lt\n      iszero\n        /* \"DISNEY/disney.sol\":1442:1516  require (msg.value >= coste, \"Compra menos Tokens o paga con mas ethers.\") */\n      tag_224\n      jumpi\n      mload(0x40)\n      0x08c379a000000000000000000000000000000000000000000000000000000000\n      dup2\n      mstore\n      0x04\n      add\n      tag_225\n      swap1\n      jump(tag_226)\n    tag_225:\n      mload(0x40)\n      dup1\n      swap2\n      sub\n      swap1\n      revert\n    tag_224:\n        /* \"DISNEY/disney.sol\":1583:1599  uint returnValue */\n      0x00\n        /* \"DISNEY/disney.sol\":1614:1619  coste */\n      dup2\n        /* \"DISNEY/disney.sol\":1602:1611  msg.value */\n      callvalue\n        /* \"DISNEY/disney.sol\":1602:1619  msg.value - coste */\n      sub\n        /* \"DISNEY/disney.sol\":1583:1619  uint returnValue = msg.value - coste */\n      swap1\n      pop\n        /* \"DISNEY/disney.sol\":1688:1698  msg.sender */\n      caller\n        /* \"DISNEY/disney.sol\":1688:1707  msg.sender.transfer */\n      0xffffffffffffffffffffffffffffffffffffffff\n      and\n        /* \"DISNEY/disney.sol\":1688:1720  msg.sender.transfer(returnValue) */\n      0x08fc\n        /* \"DISNEY/disney.sol\":1708:1719  returnValue */\n      dup3\n        /* \"DISNEY/disney.sol\":1688:1720  msg.sender.transfer(returnValue) */\n      swap1\n      dup2\n      iszero\n      mul\n      swap1\n      mload(0x40)\n      0x00\n      mload(0x40)\n      dup1\n      dup4\n      sub\n      dup2\n      dup6\n      dup9\n      dup9\n      call\n      swap4\n      pop\n      pop\n      pop\n      pop\n      iszero\n        /* \"--CODEGEN--\":8:17   */\n      dup1\n        /* \"--CODEGEN--\":5:7   */\n      iszero\n      tag_228\n      jumpi\n        /* \"--CODEGEN--\":45:61   */\n      returndatasize\n        /* \"--CODEGEN--\":42:43   */\n      0x00\n        /* \"--CODEGEN--\":39:40   */\n      dup1\n        /* \"--CODEGEN--\":24:62   */\n      returndatacopy\n        /* \"--CODEGEN--\":77:93   */\n      returndatasize\n        /* \"--CODEGEN--\":74:75   */\n      0x00\n        /* \"--CODEGEN--\":67:94   */\n      revert\n        /* \"--CODEGEN--\":5:7   */\n    tag_228:\n        /* \"DISNEY/disney.sol\":1688:1720  msg.sender.transfer(returnValue) */\n      pop\n        /* \"DISNEY/disney.sol\":1784:1796  uint Balance */\n      0x00\n        /* \"DISNEY/disney.sol\":1799:1813  TotalBalance() */\n      tag_229\n        /* \"DISNEY/disney.sol\":1799:1811  TotalBalance */\n      tag_24\n        /* \"DISNEY/disney.sol\":1799:1813  TotalBalance() */\n      jump\t// in\n    tag_229:\n        /* \"DISNEY/disney.sol\":1784:1813  uint Balance = TotalBalance() */\n      swap1\n      pop\n        /* \"DISNEY/disney.sol\":1845:1852  Balance */\n      dup1\n        /* \"DISNEY/disney.sol\":1831:1841  _numTokens */\n      dup5\n        /* \"DISNEY/disney.sol\":1831:1852  _numTokens <= Balance */\n      gt\n      iszero\n        /* \"DISNEY/disney.sol\":1823:1889  require(_numTokens <= Balance, \"Compra un numero menor de Tokens\") */\n      tag_230\n      jumpi\n      mload(0x40)\n      0x08c379a000000000000000000000000000000000000000000000000000000000\n      dup2\n      mstore\n      0x04\n      add\n      tag_231\n      swap1\n      jump(tag_232)\n    tag_231:\n      mload(0x40)\n      dup1\n      swap2\n      sub\n      swap1\n      revert\n    tag_230:\n        /* \"DISNEY/disney.sol\":1954:1959  token */\n      0x00\n      dup1\n      swap1\n      sload\n      swap1\n      0x0100\n      exp\n      swap1\n      div\n      0xffffffffffffffffffffffffffffffffffffffff\n      and\n        /* \"DISNEY/disney.sol\":1954:1968  token.transfer */\n      0xffffffffffffffffffffffffffffffffffffffff\n      and\n      0xa9059cbb\n        /* \"DISNEY/disney.sol\":1969:1979  msg.sender */\n      caller\n        /* \"DISNEY/disney.sol\":1981:1991  _numTokens */\n      dup7\n        /* \"DISNEY/disney.sol\":1954:1992  token.transfer(msg.sender, _numTokens) */\n      mload(0x40)\n      dup4\n      0xffffffff\n      and\n      0xe0\n      shl\n      dup2\n      mstore\n      0x04\n      add\n      tag_233\n      swap3\n      swap2\n      swap1\n      jump(tag_234)\n    tag_233:\n      0x20\n      mload(0x40)\n      dup1\n      dup4\n      sub\n      dup2\n      0x00\n      dup8\n      dup1\n      extcodesize\n      iszero\n        /* \"--CODEGEN--\":5:14   */\n      dup1\n        /* \"--CODEGEN--\":2:4   */\n      iszero\n      tag_235\n      jumpi\n        /* \"--CODEGEN--\":27:28   */\n      0x00\n        /* \"--CODEGEN--\":24:25   */\n      dup1\n        /* \"--CODEGEN--\":17:29   */\n      revert\n        /* \"--CODEGEN--\":2:4   */\n    tag_235:\n        /* \"DISNEY/disney.sol\":1954:1992  token.transfer(msg.sender, _numTokens) */\n      pop\n      gas\n      call\n      iszero\n        /* \"--CODEGEN--\":8:17   */\n      dup1\n        /* \"--CODEGEN--\":5:7   */\n      iszero\n      tag_237\n      jumpi\n        /* \"--CODEGEN--\":45:61   */\n      returndatasize\n        /* \"--CODEGEN--\":42:43   */\n      0x00\n        /* \"--CODEGEN--\":39:40   */\n      dup1\n        /* \"--CODEGEN--\":24:62   */\n      returndatacopy\n        /* \"--CODEGEN--\":77:93   */\n      returndatasize\n        /* \"--CODEGEN--\":74:75   */\n      0x00\n        /* \"--CODEGEN--\":67:94   */\n      revert\n        /* \"--CODEGEN--\":5:7   */\n    tag_237:\n        /* \"DISNEY/disney.sol\":1954:1992  token.transfer(msg.sender, _numTokens) */\n      pop\n      pop\n      pop\n      pop\n      mload(0x40)\n      returndatasize\n        /* \"--CODEGEN--\":101:105   */\n      0x1f\n        /* \"--CODEGEN--\":97:106   */\n      not\n        /* \"--CODEGEN--\":90:94   */\n      0x1f\n        /* \"--CODEGEN--\":84:88   */\n      dup3\n        /* \"--CODEGEN--\":80:95   */\n      add\n        /* \"--CODEGEN--\":76:107   */\n      and\n        /* \"--CODEGEN--\":69:74   */\n      dup3\n        /* \"--CODEGEN--\":65:108   */\n      add\n        /* \"--CODEGEN--\":126:132   */\n      dup1\n        /* \"--CODEGEN--\":120:124   */\n      0x40\n        /* \"--CODEGEN--\":113:133   */\n      mstore\n        /* \"--CODEGEN--\":0:138   */\n      pop\n        /* \"DISNEY/disney.sol\":1954:1992  token.transfer(msg.sender, _numTokens) */\n      dup2\n      add\n      swap1\n      tag_238\n      swap2\n      swap1\n      jump(tag_133)\n    tag_238:\n      pop\n        /* \"DISNEY/disney.sol\":2083:2093  _numTokens */\n      dup4\n        /* \"DISNEY/disney.sol\":2042:2050  Clientes */\n      0x02\n        /* \"DISNEY/disney.sol\":2042:2062  Clientes[msg.sender] */\n      0x00\n        /* \"DISNEY/disney.sol\":2051:2061  msg.sender */\n      caller\n        /* \"DISNEY/disney.sol\":2042:2062  Clientes[msg.sender] */\n      0xffffffffffffffffffffffffffffffffffffffff\n      and\n      0xffffffffffffffffffffffffffffffffffffffff\n      and\n      dup2\n      mstore\n      0x20\n      add\n      swap1\n      dup2\n      mstore\n      0x20\n      add\n      0x00\n      keccak256\n        /* \"DISNEY/disney.sol\":2042:2079  Clientes[msg.sender].tokens_comprados */\n      0x00\n      add\n      0x00\n        /* \"DISNEY/disney.sol\":2042:2093  Clientes[msg.sender].tokens_comprados += _numTokens */\n      dup3\n      dup3\n      sload\n      add\n      swap3\n      pop\n      pop\n      dup2\n      swap1\n      sstore\n      pop\n        /* \"DISNEY/disney.sol\":1214:2100  function CompraTokens(uint _numTokens) public payable {... */\n      pop\n      pop\n      pop\n      pop\n      jump\t// out\n        /* \"DISNEY/disney.sol\":979:1155  function PrecioTokens(uint _numTokens) internal pure returns (uint) {... */\n    tag_153:\n        /* \"DISNEY/disney.sol\":1041:1045  uint */\n      0x00\n        /* \"DISNEY/disney.sol\":1138:1147  0.1 ether */\n      0x016345785d8a0000\n        /* \"DISNEY/disney.sol\":1126:1136  _numTokens */\n      dup3\n        /* \"DISNEY/disney.sol\":1126:1148  _numTokens*(0.1 ether) */\n      mul\n        /* \"DISNEY/disney.sol\":1119:1148  return _numTokens*(0.1 ether) */\n      swap1\n      pop\n        /* \"DISNEY/disney.sol\":979:1155  function PrecioTokens(uint _numTokens) internal pure returns (uint) {... */\n      swap2\n      swap1\n      pop\n      jump\t// out\n        /* \"DISNEY/disney.sol\":89:8920  contract Disney {... */\n    tag_136:\n      dup3\n      dup1\n      sload\n      0x01\n      dup2\n      0x01\n      and\n      iszero\n      0x0100\n      mul\n      sub\n      and\n      0x02\n      swap1\n      div\n      swap1\n      0x00\n      mstore\n      keccak256(0x00, 0x20)\n      swap1\n      0x1f\n      add\n      0x20\n      swap1\n      div\n      dup2\n      add\n      swap3\n      dup3\n      0x1f\n      lt\n      tag_241\n      jumpi\n      dup1\n      mload\n      not(0xff)\n      and\n      dup4\n      dup1\n      add\n      or\n      dup6\n      sstore\n      jump(tag_240)\n    tag_241:\n      dup3\n      dup1\n      add\n      0x01\n      add\n      dup6\n      sstore\n      dup3\n      iszero\n      tag_240\n      jumpi\n      swap2\n      dup3\n      add\n    tag_242:\n      dup3\n      dup2\n      gt\n      iszero\n      tag_243\n      jumpi\n      dup3\n      mload\n      dup3\n      sstore\n      swap2\n      0x20\n      add\n      swap2\n      swap1\n      0x01\n      add\n      swap1\n      jump(tag_242)\n    tag_243:\n    tag_240:\n      pop\n      swap1\n      pop\n      tag_244\n      swap2\n      swap1\n      tag_245\n      jump\t// in\n    tag_244:\n      pop\n      swap1\n      jump\t// out\n    tag_245:\n      tag_246\n      swap2\n      swap1\n    tag_247:\n      dup1\n      dup3\n      gt\n      iszero\n      tag_248\n      jumpi\n      0x00\n      dup2\n      0x00\n      swap1\n      sstore\n      pop\n      0x01\n      add\n      jump(tag_247)\n    tag_248:\n      pop\n      swap1\n      jump\n    tag_246:\n      swap1\n      jump\t// out\n        /* \"--CODEGEN--\":5:135   */\n    tag_250:\n      0x00\n        /* \"--CODEGEN--\":85:91   */\n      dup2\n        /* \"--CODEGEN--\":72:92   */\n      calldataload\n        /* \"--CODEGEN--\":63:92   */\n      swap1\n      pop\n        /* \"--CODEGEN--\":97:130   */\n      tag_252\n        /* \"--CODEGEN--\":124:129   */\n      dup2\n        /* \"--CODEGEN--\":97:130   */\n      jump(tag_253)\n    tag_252:\n        /* \"--CODEGEN--\":57:135   */\n      swap3\n      swap2\n      pop\n      pop\n      jump\n        /* \"--CODEGEN--\":142:270   */\n    tag_254:\n      0x00\n        /* \"--CODEGEN--\":223:229   */\n      dup2\n        /* \"--CODEGEN--\":217:230   */\n      mload\n        /* \"--CODEGEN--\":208:230   */\n      swap1\n      pop\n        /* \"--CODEGEN--\":235:265   */\n      tag_256\n        /* \"--CODEGEN--\":259:264   */\n      dup2\n        /* \"--CODEGEN--\":235:265   */\n      jump(tag_257)\n    tag_256:\n        /* \"--CODEGEN--\":202:270   */\n      swap3\n      swap2\n      pop\n      pop\n      jump\n        /* \"--CODEGEN--\":278:720   */\n    tag_258:\n      0x00\n        /* \"--CODEGEN--\":380:383   */\n      dup3\n        /* \"--CODEGEN--\":373:377   */\n      0x1f\n        /* \"--CODEGEN--\":365:371   */\n      dup4\n        /* \"--CODEGEN--\":361:378   */\n      add\n        /* \"--CODEGEN--\":357:384   */\n      slt\n        /* \"--CODEGEN--\":347:349   */\n      tag_260\n      jumpi\n        /* \"--CODEGEN--\":398:399   */\n      0x00\n        /* \"--CODEGEN--\":395:396   */\n      dup1\n        /* \"--CODEGEN--\":388:400   */\n      revert\n        /* \"--CODEGEN--\":347:349   */\n    tag_260:\n        /* \"--CODEGEN--\":435:441   */\n      dup2\n        /* \"--CODEGEN--\":422:442   */\n      calldataload\n        /* \"--CODEGEN--\":457:522   */\n      tag_261\n        /* \"--CODEGEN--\":472:521   */\n      tag_262\n        /* \"--CODEGEN--\":514:520   */\n      dup3\n        /* \"--CODEGEN--\":472:521   */\n      jump(tag_263)\n    tag_262:\n        /* \"--CODEGEN--\":457:522   */\n      jump(tag_264)\n    tag_261:\n        /* \"--CODEGEN--\":448:522   */\n      swap2\n      pop\n        /* \"--CODEGEN--\":542:548   */\n      dup1\n        /* \"--CODEGEN--\":535:540   */\n      dup3\n        /* \"--CODEGEN--\":528:549   */\n      mstore\n        /* \"--CODEGEN--\":578:582   */\n      0x20\n        /* \"--CODEGEN--\":570:576   */\n      dup4\n        /* \"--CODEGEN--\":566:583   */\n      add\n        /* \"--CODEGEN--\":611:615   */\n      0x20\n        /* \"--CODEGEN--\":604:609   */\n      dup4\n        /* \"--CODEGEN--\":600:616   */\n      add\n        /* \"--CODEGEN--\":646:649   */\n      dup6\n        /* \"--CODEGEN--\":637:643   */\n      dup4\n        /* \"--CODEGEN--\":632:635   */\n      dup4\n        /* \"--CODEGEN--\":628:644   */\n      add\n        /* \"--CODEGEN--\":625:650   */\n      gt\n        /* \"--CODEGEN--\":622:624   */\n      iszero\n      tag_265\n      jumpi\n        /* \"--CODEGEN--\":663:664   */\n      0x00\n        /* \"--CODEGEN--\":660:661   */\n      dup1\n        /* \"--CODEGEN--\":653:665   */\n      revert\n        /* \"--CODEGEN--\":622:624   */\n    tag_265:\n        /* \"--CODEGEN--\":673:714   */\n      tag_266\n        /* \"--CODEGEN--\":707:713   */\n      dup4\n        /* \"--CODEGEN--\":702:705   */\n      dup3\n        /* \"--CODEGEN--\":697:700   */\n      dup5\n        /* \"--CODEGEN--\":673:714   */\n      jump(tag_267)\n    tag_266:\n        /* \"--CODEGEN--\":340:720   */\n      pop\n      pop\n      pop\n      swap3\n      swap2\n      pop\n      pop\n      jump\n        /* \"--CODEGEN--\":728:858   */\n    tag_268:\n      0x00\n        /* \"--CODEGEN--\":808:814   */\n      dup2\n        /* \"--CODEGEN--\":795:815   */\n      calldataload\n        /* \"--CODEGEN--\":786:815   */\n      swap1\n      pop\n        /* \"--CODEGEN--\":820:853   */\n      tag_270\n        /* \"--CODEGEN--\":847:852   */\n      dup2\n        /* \"--CODEGEN--\":820:853   */\n      jump(tag_271)\n    tag_270:\n        /* \"--CODEGEN--\":780:858   */\n      swap3\n      swap2\n      pop\n      pop\n      jump\n        /* \"--CODEGEN--\":865:999   */\n    tag_272:\n      0x00\n        /* \"--CODEGEN--\":949:955   */\n      dup2\n        /* \"--CODEGEN--\":943:956   */\n      mload\n        /* \"--CODEGEN--\":934:956   */\n      swap1\n      pop\n        /* \"--CODEGEN--\":961:994   */\n      tag_274\n        /* \"--CODEGEN--\":988:993   */\n      dup2\n        /* \"--CODEGEN--\":961:994   */\n      jump(tag_271)\n    tag_274:\n        /* \"--CODEGEN--\":928:999   */\n      swap3\n      swap2\n      pop\n      pop\n      jump\n        /* \"--CODEGEN--\":1006:1247   */\n    tag_74:\n      0x00\n        /* \"--CODEGEN--\":1110:1112   */\n      0x20\n        /* \"--CODEGEN--\":1098:1107   */\n      dup3\n        /* \"--CODEGEN--\":1089:1096   */\n      dup5\n        /* \"--CODEGEN--\":1085:1108   */\n      sub\n        /* \"--CODEGEN--\":1081:1113   */\n      slt\n        /* \"--CODEGEN--\":1078:1080   */\n      iszero\n      tag_276\n      jumpi\n        /* \"--CODEGEN--\":1126:1127   */\n      0x00\n        /* \"--CODEGEN--\":1123:1124   */\n      dup1\n        /* \"--CODEGEN--\":1116:1128   */\n      revert\n        /* \"--CODEGEN--\":1078:1080   */\n    tag_276:\n        /* \"--CODEGEN--\":1161:1162   */\n      0x00\n        /* \"--CODEGEN--\":1178:1231   */\n      tag_277\n        /* \"--CODEGEN--\":1223:1230   */\n      dup5\n        /* \"--CODEGEN--\":1214:1220   */\n      dup3\n        /* \"--CODEGEN--\":1203:1212   */\n      dup6\n        /* \"--CODEGEN--\":1199:1221   */\n      add\n        /* \"--CODEGEN--\":1178:1231   */\n      jump(tag_250)\n    tag_277:\n        /* \"--CODEGEN--\":1168:1231   */\n      swap2\n      pop\n        /* \"--CODEGEN--\":1140:1237   */\n      pop\n        /* \"--CODEGEN--\":1072:1247   */\n      swap3\n      swap2\n      pop\n      pop\n      jump\n        /* \"--CODEGEN--\":1254:1511   */\n    tag_133:\n      0x00\n        /* \"--CODEGEN--\":1366:1368   */\n      0x20\n        /* \"--CODEGEN--\":1354:1363   */\n      dup3\n        /* \"--CODEGEN--\":1345:1352   */\n      dup5\n        /* \"--CODEGEN--\":1341:1364   */\n      sub\n        /* \"--CODEGEN--\":1337:1369   */\n      slt\n        /* \"--CODEGEN--\":1334:1336   */\n      iszero\n      tag_279\n      jumpi\n        /* \"--CODEGEN--\":1382:1383   */\n      0x00\n        /* \"--CODEGEN--\":1379:1380   */\n      dup1\n        /* \"--CODEGEN--\":1372:1384   */\n      revert\n        /* \"--CODEGEN--\":1334:1336   */\n    tag_279:\n        /* \"--CODEGEN--\":1417:1418   */\n      0x00\n        /* \"--CODEGEN--\":1434:1495   */\n      tag_280\n        /* \"--CODEGEN--\":1487:1494   */\n      dup5\n        /* \"--CODEGEN--\":1478:1484   */\n      dup3\n        /* \"--CODEGEN--\":1467:1476   */\n      dup6\n        /* \"--CODEGEN--\":1463:1485   */\n      add\n        /* \"--CODEGEN--\":1434:1495   */\n      jump(tag_254)\n    tag_280:\n        /* \"--CODEGEN--\":1424:1495   */\n      swap2\n      pop\n        /* \"--CODEGEN--\":1396:1501   */\n      pop\n        /* \"--CODEGEN--\":1328:1511   */\n      swap3\n      swap2\n      pop\n      pop\n      jump\n        /* \"--CODEGEN--\":1518:1865   */\n    tag_35:\n      0x00\n        /* \"--CODEGEN--\":1632:1634   */\n      0x20\n        /* \"--CODEGEN--\":1620:1629   */\n      dup3\n        /* \"--CODEGEN--\":1611:1618   */\n      dup5\n        /* \"--CODEGEN--\":1607:1630   */\n      sub\n        /* \"--CODEGEN--\":1603:1635   */\n      slt\n        /* \"--CODEGEN--\":1600:1602   */\n      iszero\n      tag_282\n      jumpi\n        /* \"--CODEGEN--\":1648:1649   */\n      0x00\n        /* \"--CODEGEN--\":1645:1646   */\n      dup1\n        /* \"--CODEGEN--\":1638:1650   */\n      revert\n        /* \"--CODEGEN--\":1600:1602   */\n    tag_282:\n        /* \"--CODEGEN--\":1711:1712   */\n      0x00\n        /* \"--CODEGEN--\":1700:1709   */\n      dup3\n        /* \"--CODEGEN--\":1696:1713   */\n      add\n        /* \"--CODEGEN--\":1683:1714   */\n      calldataload\n        /* \"--CODEGEN--\":1734:1752   */\n      0xffffffffffffffff\n        /* \"--CODEGEN--\":1726:1732   */\n      dup2\n        /* \"--CODEGEN--\":1723:1753   */\n      gt\n        /* \"--CODEGEN--\":1720:1722   */\n      iszero\n      tag_283\n      jumpi\n        /* \"--CODEGEN--\":1766:1767   */\n      0x00\n        /* \"--CODEGEN--\":1763:1764   */\n      dup1\n        /* \"--CODEGEN--\":1756:1768   */\n      revert\n        /* \"--CODEGEN--\":1720:1722   */\n    tag_283:\n        /* \"--CODEGEN--\":1786:1849   */\n      tag_284\n        /* \"--CODEGEN--\":1841:1848   */\n      dup5\n        /* \"--CODEGEN--\":1832:1838   */\n      dup3\n        /* \"--CODEGEN--\":1821:1830   */\n      dup6\n        /* \"--CODEGEN--\":1817:1839   */\n      add\n        /* \"--CODEGEN--\":1786:1849   */\n      jump(tag_258)\n    tag_284:\n        /* \"--CODEGEN--\":1776:1849   */\n      swap2\n      pop\n        /* \"--CODEGEN--\":1662:1855   */\n      pop\n        /* \"--CODEGEN--\":1594:1865   */\n      swap3\n      swap2\n      pop\n      pop\n      jump\n        /* \"--CODEGEN--\":1872:2344   */\n    tag_43:\n      0x00\n      dup1\n        /* \"--CODEGEN--\":2003:2005   */\n      0x40\n        /* \"--CODEGEN--\":1991:2000   */\n      dup4\n        /* \"--CODEGEN--\":1982:1989   */\n      dup6\n        /* \"--CODEGEN--\":1978:2001   */\n      sub\n        /* \"--CODEGEN--\":1974:2006   */\n      slt\n        /* \"--CODEGEN--\":1971:1973   */\n      iszero\n      tag_286\n      jumpi\n        /* \"--CODEGEN--\":2019:2020   */\n      0x00\n        /* \"--CODEGEN--\":2016:2017   */\n      dup1\n        /* \"--CODEGEN--\":2009:2021   */\n      revert\n        /* \"--CODEGEN--\":1971:1973   */\n    tag_286:\n        /* \"--CODEGEN--\":2082:2083   */\n      0x00\n        /* \"--CODEGEN--\":2071:2080   */\n      dup4\n        /* \"--CODEGEN--\":2067:2084   */\n      add\n        /* \"--CODEGEN--\":2054:2085   */\n      calldataload\n        /* \"--CODEGEN--\":2105:2123   */\n      0xffffffffffffffff\n        /* \"--CODEGEN--\":2097:2103   */\n      dup2\n        /* \"--CODEGEN--\":2094:2124   */\n      gt\n        /* \"--CODEGEN--\":2091:2093   */\n      iszero\n      tag_287\n      jumpi\n        /* \"--CODEGEN--\":2137:2138   */\n      0x00\n        /* \"--CODEGEN--\":2134:2135   */\n      dup1\n        /* \"--CODEGEN--\":2127:2139   */\n      revert\n        /* \"--CODEGEN--\":2091:2093   */\n    tag_287:\n        /* \"--CODEGEN--\":2157:2220   */\n      tag_288\n        /* \"--CODEGEN--\":2212:2219   */\n      dup6\n        /* \"--CODEGEN--\":2203:2209   */\n      dup3\n        /* \"--CODEGEN--\":2192:2201   */\n      dup7\n        /* \"--CODEGEN--\":2188:2210   */\n      add\n        /* \"--CODEGEN--\":2157:2220   */\n      jump(tag_258)\n    tag_288:\n        /* \"--CODEGEN--\":2147:2220   */\n      swap3\n      pop\n        /* \"--CODEGEN--\":2033:2226   */\n      pop\n        /* \"--CODEGEN--\":2257:2259   */\n      0x20\n        /* \"--CODEGEN--\":2275:2328   */\n      tag_289\n        /* \"--CODEGEN--\":2320:2327   */\n      dup6\n        /* \"--CODEGEN--\":2311:2317   */\n      dup3\n        /* \"--CODEGEN--\":2300:2309   */\n      dup7\n        /* \"--CODEGEN--\":2296:2318   */\n      add\n        /* \"--CODEGEN--\":2275:2328   */\n      jump(tag_268)\n    tag_289:\n        /* \"--CODEGEN--\":2265:2328   */\n      swap2\n      pop\n        /* \"--CODEGEN--\":2236:2334   */\n      pop\n        /* \"--CODEGEN--\":1965:2344   */\n      swap3\n      pop\n      swap3\n      swap1\n      pop\n      jump\n        /* \"--CODEGEN--\":2351:2592   */\n    tag_30:\n      0x00\n        /* \"--CODEGEN--\":2455:2457   */\n      0x20\n        /* \"--CODEGEN--\":2443:2452   */\n      dup3\n        /* \"--CODEGEN--\":2434:2441   */\n      dup5\n        /* \"--CODEGEN--\":2430:2453   */\n      sub\n        /* \"--CODEGEN--\":2426:2458   */\n      slt\n        /* \"--CODEGEN--\":2423:2425   */\n      iszero\n      tag_291\n      jumpi\n        /* \"--CODEGEN--\":2471:2472   */\n      0x00\n        /* \"--CODEGEN--\":2468:2469   */\n      dup1\n        /* \"--CODEGEN--\":2461:2473   */\n      revert\n        /* \"--CODEGEN--\":2423:2425   */\n    tag_291:\n        /* \"--CODEGEN--\":2506:2507   */\n      0x00\n        /* \"--CODEGEN--\":2523:2576   */\n      tag_292\n        /* \"--CODEGEN--\":2568:2575   */\n      dup5\n        /* \"--CODEGEN--\":2559:2565   */\n      dup3\n        /* \"--CODEGEN--\":2548:2557   */\n      dup6\n        /* \"--CODEGEN--\":2544:2566   */\n      add\n        /* \"--CODEGEN--\":2523:2576   */\n      jump(tag_268)\n    tag_292:\n        /* \"--CODEGEN--\":2513:2576   */\n      swap2\n      pop\n        /* \"--CODEGEN--\":2485:2582   */\n      pop\n        /* \"--CODEGEN--\":2417:2592   */\n      swap3\n      swap2\n      pop\n      pop\n      jump\n        /* \"--CODEGEN--\":2599:2862   */\n    tag_106:\n      0x00\n        /* \"--CODEGEN--\":2714:2716   */\n      0x20\n        /* \"--CODEGEN--\":2702:2711   */\n      dup3\n        /* \"--CODEGEN--\":2693:2700   */\n      dup5\n        /* \"--CODEGEN--\":2689:2712   */\n      sub\n        /* \"--CODEGEN--\":2685:2717   */\n      slt\n        /* \"--CODEGEN--\":2682:2684   */\n      iszero\n      tag_294\n      jumpi\n        /* \"--CODEGEN--\":2730:2731   */\n      0x00\n        /* \"--CODEGEN--\":2727:2728   */\n      dup1\n        /* \"--CODEGEN--\":2720:2732   */\n      revert\n        /* \"--CODEGEN--\":2682:2684   */\n    tag_294:\n        /* \"--CODEGEN--\":2765:2766   */\n      0x00\n        /* \"--CODEGEN--\":2782:2846   */\n      tag_295\n        /* \"--CODEGEN--\":2838:2845   */\n      dup5\n        /* \"--CODEGEN--\":2829:2835   */\n      dup3\n        /* \"--CODEGEN--\":2818:2827   */\n      dup6\n        /* \"--CODEGEN--\":2814:2836   */\n      add\n        /* \"--CODEGEN--\":2782:2846   */\n      jump(tag_272)\n    tag_295:\n        /* \"--CODEGEN--\":2772:2846   */\n      swap2\n      pop\n        /* \"--CODEGEN--\":2744:2852   */\n      pop\n        /* \"--CODEGEN--\":2676:2862   */\n      swap3\n      swap2\n      pop\n      pop\n      jump\n        /* \"--CODEGEN--\":2870:3063   */\n    tag_296:\n      0x00\n        /* \"--CODEGEN--\":2991:3057   */\n      tag_298\n        /* \"--CODEGEN--\":3053:3056   */\n      dup4\n        /* \"--CODEGEN--\":3045:3051   */\n      dup4\n        /* \"--CODEGEN--\":2991:3057   */\n      jump(tag_299)\n    tag_298:\n        /* \"--CODEGEN--\":2977:3057   */\n      swap1\n      pop\n        /* \"--CODEGEN--\":2970:3063   */\n      swap3\n      swap2\n      pop\n      pop\n      jump\n        /* \"--CODEGEN--\":3071:3213   */\n    tag_300:\n        /* \"--CODEGEN--\":3162:3207   */\n      tag_302\n        /* \"--CODEGEN--\":3201:3206   */\n      dup2\n        /* \"--CODEGEN--\":3162:3207   */\n      jump(tag_303)\n    tag_302:\n        /* \"--CODEGEN--\":3157:3160   */\n      dup3\n        /* \"--CODEGEN--\":3150:3208   */\n      mstore\n        /* \"--CODEGEN--\":3144:3213   */\n      pop\n      pop\n      jump\n        /* \"--CODEGEN--\":3220:3357   */\n    tag_304:\n        /* \"--CODEGEN--\":3319:3351   */\n      tag_306\n        /* \"--CODEGEN--\":3345:3350   */\n      dup2\n        /* \"--CODEGEN--\":3319:3351   */\n      jump(tag_307)\n    tag_306:\n        /* \"--CODEGEN--\":3314:3317   */\n      dup3\n        /* \"--CODEGEN--\":3307:3352   */\n      mstore\n        /* \"--CODEGEN--\":3301:3357   */\n      pop\n      pop\n      jump\n        /* \"--CODEGEN--\":3364:3477   */\n    tag_308:\n        /* \"--CODEGEN--\":3447:3471   */\n      tag_310\n        /* \"--CODEGEN--\":3465:3470   */\n      dup2\n        /* \"--CODEGEN--\":3447:3471   */\n      jump(tag_311)\n    tag_310:\n        /* \"--CODEGEN--\":3442:3445   */\n      dup3\n        /* \"--CODEGEN--\":3435:3472   */\n      mstore\n        /* \"--CODEGEN--\":3429:3477   */\n      pop\n      pop\n      jump\n        /* \"--CODEGEN--\":3513:4441   */\n    tag_312:\n      0x00\n        /* \"--CODEGEN--\":3678:3742   */\n      tag_314\n        /* \"--CODEGEN--\":3736:3741   */\n      dup3\n        /* \"--CODEGEN--\":3678:3742   */\n      jump(tag_315)\n    tag_314:\n        /* \"--CODEGEN--\":3755:3851   */\n      tag_316\n        /* \"--CODEGEN--\":3844:3850   */\n      dup2\n        /* \"--CODEGEN--\":3839:3842   */\n      dup6\n        /* \"--CODEGEN--\":3755:3851   */\n      jump(tag_317)\n    tag_316:\n        /* \"--CODEGEN--\":3748:3851   */\n      swap4\n      pop\n        /* \"--CODEGEN--\":3874:3877   */\n      dup4\n        /* \"--CODEGEN--\":3916:3920   */\n      0x20\n        /* \"--CODEGEN--\":3908:3914   */\n      dup3\n        /* \"--CODEGEN--\":3904:3921   */\n      mul\n        /* \"--CODEGEN--\":3899:3902   */\n      dup6\n        /* \"--CODEGEN--\":3895:3922   */\n      add\n        /* \"--CODEGEN--\":3943:4009   */\n      tag_318\n        /* \"--CODEGEN--\":4003:4008   */\n      dup6\n        /* \"--CODEGEN--\":3943:4009   */\n      jump(tag_319)\n    tag_318:\n        /* \"--CODEGEN--\":4029:4036   */\n      dup1\n        /* \"--CODEGEN--\":4057:4058   */\n      0x00\n        /* \"--CODEGEN--\":4042:4402   */\n    tag_320:\n        /* \"--CODEGEN--\":4067:4073   */\n      dup6\n        /* \"--CODEGEN--\":4064:4065   */\n      dup2\n        /* \"--CODEGEN--\":4061:4074   */\n      lt\n        /* \"--CODEGEN--\":4042:4402   */\n      iszero\n      tag_322\n      jumpi\n        /* \"--CODEGEN--\":4129:4138   */\n      dup5\n        /* \"--CODEGEN--\":4123:4127   */\n      dup5\n        /* \"--CODEGEN--\":4119:4139   */\n      sub\n        /* \"--CODEGEN--\":4114:4117   */\n      dup10\n        /* \"--CODEGEN--\":4107:4140   */\n      mstore\n        /* \"--CODEGEN--\":4174:4180   */\n      dup2\n        /* \"--CODEGEN--\":4168:4181   */\n      mload\n        /* \"--CODEGEN--\":4196:4280   */\n      tag_323\n        /* \"--CODEGEN--\":4275:4279   */\n      dup6\n        /* \"--CODEGEN--\":4260:4273   */\n      dup3\n        /* \"--CODEGEN--\":4196:4280   */\n      jump(tag_296)\n    tag_323:\n        /* \"--CODEGEN--\":4188:4280   */\n      swap5\n      pop\n        /* \"--CODEGEN--\":4297:4367   */\n      tag_324\n        /* \"--CODEGEN--\":4360:4366   */\n      dup4\n        /* \"--CODEGEN--\":4297:4367   */\n      jump(tag_325)\n    tag_324:\n        /* \"--CODEGEN--\":4287:4367   */\n      swap3\n      pop\n        /* \"--CODEGEN--\":4390:4394   */\n      0x20\n        /* \"--CODEGEN--\":4385:4388   */\n      dup11\n        /* \"--CODEGEN--\":4381:4395   */\n      add\n        /* \"--CODEGEN--\":4374:4395   */\n      swap10\n      pop\n        /* \"--CODEGEN--\":4099:4402   */\n      pop\n        /* \"--CODEGEN--\":4089:4090   */\n      0x01\n        /* \"--CODEGEN--\":4086:4087   */\n      dup2\n        /* \"--CODEGEN--\":4082:4091   */\n      add\n        /* \"--CODEGEN--\":4077:4091   */\n      swap1\n      pop\n        /* \"--CODEGEN--\":4042:4402   */\n      jump(tag_320)\n    tag_322:\n        /* \"--CODEGEN--\":4046:4060   */\n      pop\n        /* \"--CODEGEN--\":4415:4419   */\n      dup3\n        /* \"--CODEGEN--\":4408:4419   */\n      swap8\n      pop\n        /* \"--CODEGEN--\":4432:4435   */\n      dup8\n        /* \"--CODEGEN--\":4425:4435   */\n      swap6\n      pop\n        /* \"--CODEGEN--\":3657:4441   */\n      pop\n      pop\n      pop\n      pop\n      pop\n      swap3\n      swap2\n      pop\n      pop\n      jump\n        /* \"--CODEGEN--\":4449:4553   */\n    tag_326:\n        /* \"--CODEGEN--\":4526:4547   */\n      tag_328\n        /* \"--CODEGEN--\":4541:4546   */\n      dup2\n        /* \"--CODEGEN--\":4526:4547   */\n      jump(tag_329)\n    tag_328:\n        /* \"--CODEGEN--\":4521:4524   */\n      dup3\n        /* \"--CODEGEN--\":4514:4548   */\n      mstore\n        /* \"--CODEGEN--\":4508:4553   */\n      pop\n      pop\n      jump\n        /* \"--CODEGEN--\":4560:4887   */\n    tag_299:\n      0x00\n        /* \"--CODEGEN--\":4662:4701   */\n      tag_331\n        /* \"--CODEGEN--\":4695:4700   */\n      dup3\n        /* \"--CODEGEN--\":4662:4701   */\n      jump(tag_332)\n    tag_331:\n        /* \"--CODEGEN--\":4713:4774   */\n      tag_333\n        /* \"--CODEGEN--\":4767:4773   */\n      dup2\n        /* \"--CODEGEN--\":4762:4765   */\n      dup6\n        /* \"--CODEGEN--\":4713:4774   */\n      jump(tag_334)\n    tag_333:\n        /* \"--CODEGEN--\":4706:4774   */\n      swap4\n      pop\n        /* \"--CODEGEN--\":4779:4831   */\n      tag_335\n        /* \"--CODEGEN--\":4824:4830   */\n      dup2\n        /* \"--CODEGEN--\":4819:4822   */\n      dup6\n        /* \"--CODEGEN--\":4812:4816   */\n      0x20\n        /* \"--CODEGEN--\":4805:4810   */\n      dup7\n        /* \"--CODEGEN--\":4801:4817   */\n      add\n        /* \"--CODEGEN--\":4779:4831   */\n      jump(tag_336)\n    tag_335:\n        /* \"--CODEGEN--\":4852:4881   */\n      tag_337\n        /* \"--CODEGEN--\":4874:4880   */\n      dup2\n        /* \"--CODEGEN--\":4852:4881   */\n      jump(tag_338)\n    tag_337:\n        /* \"--CODEGEN--\":4847:4850   */\n      dup5\n        /* \"--CODEGEN--\":4843:4882   */\n      add\n        /* \"--CODEGEN--\":4836:4882   */\n      swap2\n      pop\n        /* \"--CODEGEN--\":4642:4887   */\n      pop\n      swap3\n      swap2\n      pop\n      pop\n      jump\n        /* \"--CODEGEN--\":4894:5241   */\n    tag_339:\n      0x00\n        /* \"--CODEGEN--\":5006:5045   */\n      tag_341\n        /* \"--CODEGEN--\":5039:5044   */\n      dup3\n        /* \"--CODEGEN--\":5006:5045   */\n      jump(tag_332)\n    tag_341:\n        /* \"--CODEGEN--\":5057:5128   */\n      tag_342\n        /* \"--CODEGEN--\":5121:5127   */\n      dup2\n        /* \"--CODEGEN--\":5116:5119   */\n      dup6\n        /* \"--CODEGEN--\":5057:5128   */\n      jump(tag_343)\n    tag_342:\n        /* \"--CODEGEN--\":5050:5128   */\n      swap4\n      pop\n        /* \"--CODEGEN--\":5133:5185   */\n      tag_344\n        /* \"--CODEGEN--\":5178:5184   */\n      dup2\n        /* \"--CODEGEN--\":5173:5176   */\n      dup6\n        /* \"--CODEGEN--\":5166:5170   */\n      0x20\n        /* \"--CODEGEN--\":5159:5164   */\n      dup7\n        /* \"--CODEGEN--\":5155:5171   */\n      add\n        /* \"--CODEGEN--\":5133:5185   */\n      jump(tag_336)\n    tag_344:\n        /* \"--CODEGEN--\":5206:5235   */\n      tag_345\n        /* \"--CODEGEN--\":5228:5234   */\n      dup2\n        /* \"--CODEGEN--\":5206:5235   */\n      jump(tag_338)\n    tag_345:\n        /* \"--CODEGEN--\":5201:5204   */\n      dup5\n        /* \"--CODEGEN--\":5197:5236   */\n      add\n        /* \"--CODEGEN--\":5190:5236   */\n      swap2\n      pop\n        /* \"--CODEGEN--\":4986:5241   */\n      pop\n      swap3\n      swap2\n      pop\n      pop\n      jump\n        /* \"--CODEGEN--\":5248:5608   */\n    tag_346:\n      0x00\n        /* \"--CODEGEN--\":5378:5417   */\n      tag_348\n        /* \"--CODEGEN--\":5411:5416   */\n      dup3\n        /* \"--CODEGEN--\":5378:5417   */\n      jump(tag_332)\n    tag_348:\n        /* \"--CODEGEN--\":5429:5518   */\n      tag_349\n        /* \"--CODEGEN--\":5511:5517   */\n      dup2\n        /* \"--CODEGEN--\":5506:5509   */\n      dup6\n        /* \"--CODEGEN--\":5429:5518   */\n      jump(tag_350)\n    tag_349:\n        /* \"--CODEGEN--\":5422:5518   */\n      swap4\n      pop\n        /* \"--CODEGEN--\":5523:5575   */\n      tag_351\n        /* \"--CODEGEN--\":5568:5574   */\n      dup2\n        /* \"--CODEGEN--\":5563:5566   */\n      dup6\n        /* \"--CODEGEN--\":5556:5560   */\n      0x20\n        /* \"--CODEGEN--\":5549:5554   */\n      dup7\n        /* \"--CODEGEN--\":5545:5561   */\n      add\n        /* \"--CODEGEN--\":5523:5575   */\n      jump(tag_336)\n    tag_351:\n        /* \"--CODEGEN--\":5596:5602   */\n      dup1\n        /* \"--CODEGEN--\":5591:5594   */\n      dup5\n        /* \"--CODEGEN--\":5587:5603   */\n      add\n        /* \"--CODEGEN--\":5580:5603   */\n      swap2\n      pop\n        /* \"--CODEGEN--\":5358:5608   */\n      pop\n      swap3\n      swap2\n      pop\n      pop\n      jump\n        /* \"--CODEGEN--\":5616:6003   */\n    tag_352:\n      0x00\n        /* \"--CODEGEN--\":5776:5843   */\n      tag_354\n        /* \"--CODEGEN--\":5840:5842   */\n      0x32\n        /* \"--CODEGEN--\":5835:5838   */\n      dup4\n        /* \"--CODEGEN--\":5776:5843   */\n      jump(tag_343)\n    tag_354:\n        /* \"--CODEGEN--\":5769:5843   */\n      swap2\n      pop\n        /* \"--CODEGEN--\":5876:5910   */\n      0x4c6120617472616363696f6e206e6f206573746120646973706f6e69626c6520\n        /* \"--CODEGEN--\":5872:5873   */\n      0x00\n        /* \"--CODEGEN--\":5867:5870   */\n      dup4\n        /* \"--CODEGEN--\":5863:5874   */\n      add\n        /* \"--CODEGEN--\":5856:5911   */\n      mstore\n        /* \"--CODEGEN--\":5945:5965   */\n      0x656e206573746f73206d6f6d656e746f732e0000000000000000000000000000\n        /* \"--CODEGEN--\":5940:5942   */\n      0x20\n        /* \"--CODEGEN--\":5935:5938   */\n      dup4\n        /* \"--CODEGEN--\":5931:5943   */\n      add\n        /* \"--CODEGEN--\":5924:5966   */\n      mstore\n        /* \"--CODEGEN--\":5994:5996   */\n      0x40\n        /* \"--CODEGEN--\":5989:5992   */\n      dup3\n        /* \"--CODEGEN--\":5985:5997   */\n      add\n        /* \"--CODEGEN--\":5978:5997   */\n      swap1\n      pop\n        /* \"--CODEGEN--\":5762:6003   */\n      swap2\n      swap1\n      pop\n      jump\n        /* \"--CODEGEN--\":6012:6401   */\n    tag_355:\n      0x00\n        /* \"--CODEGEN--\":6172:6239   */\n      tag_357\n        /* \"--CODEGEN--\":6236:6238   */\n      0x34\n        /* \"--CODEGEN--\":6231:6234   */\n      dup4\n        /* \"--CODEGEN--\":6172:6239   */\n      jump(tag_343)\n    tag_357:\n        /* \"--CODEGEN--\":6165:6239   */\n      swap2\n      pop\n        /* \"--CODEGEN--\":6272:6306   */\n      0x4e6563657369746173206d617320546f6b656e73207061726120737562696572\n        /* \"--CODEGEN--\":6268:6269   */\n      0x00\n        /* \"--CODEGEN--\":6263:6266   */\n      dup4\n        /* \"--CODEGEN--\":6259:6270   */\n      add\n        /* \"--CODEGEN--\":6252:6307   */\n      mstore\n        /* \"--CODEGEN--\":6341:6363   */\n      0x74652061206573746120617472616363696f6e2e000000000000000000000000\n        /* \"--CODEGEN--\":6336:6338   */\n      0x20\n        /* \"--CODEGEN--\":6331:6334   */\n      dup4\n        /* \"--CODEGEN--\":6327:6339   */\n      add\n        /* \"--CODEGEN--\":6320:6364   */\n      mstore\n        /* \"--CODEGEN--\":6392:6394   */\n      0x40\n        /* \"--CODEGEN--\":6387:6390   */\n      dup3\n        /* \"--CODEGEN--\":6383:6395   */\n      add\n        /* \"--CODEGEN--\":6376:6395   */\n      swap1\n      pop\n        /* \"--CODEGEN--\":6158:6401   */\n      swap2\n      swap1\n      pop\n      jump\n        /* \"--CODEGEN--\":6410:6793   */\n    tag_358:\n      0x00\n        /* \"--CODEGEN--\":6570:6637   */\n      tag_360\n        /* \"--CODEGEN--\":6634:6636   */\n      0x2e\n        /* \"--CODEGEN--\":6629:6632   */\n      dup4\n        /* \"--CODEGEN--\":6570:6637   */\n      jump(tag_343)\n    tag_360:\n        /* \"--CODEGEN--\":6563:6637   */\n      swap2\n      pop\n        /* \"--CODEGEN--\":6670:6704   */\n      0x4e6f207469656e6573207065726d69736f73207061726120656a656375746172\n        /* \"--CODEGEN--\":6666:6667   */\n      0x00\n        /* \"--CODEGEN--\":6661:6664   */\n      dup4\n        /* \"--CODEGEN--\":6657:6668   */\n      add\n        /* \"--CODEGEN--\":6650:6705   */\n      mstore\n        /* \"--CODEGEN--\":6739:6755   */\n      0x20657374612066756e63696f6e2e000000000000000000000000000000000000\n        /* \"--CODEGEN--\":6734:6736   */\n      0x20\n        /* \"--CODEGEN--\":6729:6732   */\n      dup4\n        /* \"--CODEGEN--\":6725:6737   */\n      add\n        /* \"--CODEGEN--\":6718:6756   */\n      mstore\n        /* \"--CODEGEN--\":6784:6786   */\n      0x40\n        /* \"--CODEGEN--\":6779:6782   */\n      dup3\n        /* \"--CODEGEN--\":6775:6787   */\n      add\n        /* \"--CODEGEN--\":6768:6787   */\n      swap1\n      pop\n        /* \"--CODEGEN--\":6556:6793   */\n      swap2\n      swap1\n      pop\n      jump\n        /* \"--CODEGEN--\":6802:7190   */\n    tag_361:\n      0x00\n        /* \"--CODEGEN--\":6962:7029   */\n      tag_363\n        /* \"--CODEGEN--\":7026:7028   */\n      0x33\n        /* \"--CODEGEN--\":7021:7024   */\n      dup4\n        /* \"--CODEGEN--\":6962:7029   */\n      jump(tag_343)\n    tag_363:\n        /* \"--CODEGEN--\":6955:7029   */\n      swap2\n      pop\n        /* \"--CODEGEN--\":7062:7096   */\n      0x4e6563657369746173206465766f6c76657220756e612063616e746964616420\n        /* \"--CODEGEN--\":7058:7059   */\n      0x00\n        /* \"--CODEGEN--\":7053:7056   */\n      dup4\n        /* \"--CODEGEN--\":7049:7060   */\n      add\n        /* \"--CODEGEN--\":7042:7097   */\n      mstore\n        /* \"--CODEGEN--\":7131:7152   */\n      0x706f73697469766120646520546f6b656e732e00000000000000000000000000\n        /* \"--CODEGEN--\":7126:7128   */\n      0x20\n        /* \"--CODEGEN--\":7121:7124   */\n      dup4\n        /* \"--CODEGEN--\":7117:7129   */\n      add\n        /* \"--CODEGEN--\":7110:7153   */\n      mstore\n        /* \"--CODEGEN--\":7181:7183   */\n      0x40\n        /* \"--CODEGEN--\":7176:7179   */\n      dup3\n        /* \"--CODEGEN--\":7172:7184   */\n      add\n        /* \"--CODEGEN--\":7165:7184   */\n      swap1\n      pop\n        /* \"--CODEGEN--\":6948:7190   */\n      swap2\n      swap1\n      pop\n      jump\n        /* \"--CODEGEN--\":7199:7578   */\n    tag_364:\n      0x00\n        /* \"--CODEGEN--\":7359:7426   */\n      tag_366\n        /* \"--CODEGEN--\":7423:7425   */\n      0x2a\n        /* \"--CODEGEN--\":7418:7421   */\n      dup4\n        /* \"--CODEGEN--\":7359:7426   */\n      jump(tag_343)\n    tag_366:\n        /* \"--CODEGEN--\":7352:7426   */\n      swap2\n      pop\n        /* \"--CODEGEN--\":7459:7493   */\n      0x436f6d707261206d656e6f7320546f6b656e73206f207061676120636f6e206d\n        /* \"--CODEGEN--\":7455:7456   */\n      0x00\n        /* \"--CODEGEN--\":7450:7453   */\n      dup4\n        /* \"--CODEGEN--\":7446:7457   */\n      add\n        /* \"--CODEGEN--\":7439:7494   */\n      mstore\n        /* \"--CODEGEN--\":7528:7540   */\n      0x6173206574686572732e00000000000000000000000000000000000000000000\n        /* \"--CODEGEN--\":7523:7525   */\n      0x20\n        /* \"--CODEGEN--\":7518:7521   */\n      dup4\n        /* \"--CODEGEN--\":7514:7526   */\n      add\n        /* \"--CODEGEN--\":7507:7541   */\n      mstore\n        /* \"--CODEGEN--\":7569:7571   */\n      0x40\n        /* \"--CODEGEN--\":7564:7567   */\n      dup3\n        /* \"--CODEGEN--\":7560:7572   */\n      add\n        /* \"--CODEGEN--\":7553:7572   */\n      swap1\n      pop\n        /* \"--CODEGEN--\":7345:7578   */\n      swap2\n      swap1\n      pop\n      jump\n        /* \"--CODEGEN--\":7587:7919   */\n    tag_367:\n      0x00\n        /* \"--CODEGEN--\":7747:7814   */\n      tag_369\n        /* \"--CODEGEN--\":7811:7813   */\n      0x20\n        /* \"--CODEGEN--\":7806:7809   */\n      dup4\n        /* \"--CODEGEN--\":7747:7814   */\n      jump(tag_343)\n    tag_369:\n        /* \"--CODEGEN--\":7740:7814   */\n      swap2\n      pop\n        /* \"--CODEGEN--\":7847:7881   */\n      0x436f6d70726120756e206e756d65726f206d656e6f7220646520546f6b656e73\n        /* \"--CODEGEN--\":7843:7844   */\n      0x00\n        /* \"--CODEGEN--\":7838:7841   */\n      dup4\n        /* \"--CODEGEN--\":7834:7845   */\n      add\n        /* \"--CODEGEN--\":7827:7882   */\n      mstore\n        /* \"--CODEGEN--\":7910:7912   */\n      0x20\n        /* \"--CODEGEN--\":7905:7908   */\n      dup3\n        /* \"--CODEGEN--\":7901:7913   */\n      add\n        /* \"--CODEGEN--\":7894:7913   */\n      swap1\n      pop\n        /* \"--CODEGEN--\":7733:7919   */\n      swap2\n      swap1\n      pop\n      jump\n        /* \"--CODEGEN--\":7928:8305   */\n    tag_370:\n      0x00\n        /* \"--CODEGEN--\":8088:8155   */\n      tag_372\n        /* \"--CODEGEN--\":8152:8154   */\n      0x28\n        /* \"--CODEGEN--\":8147:8150   */\n      dup4\n        /* \"--CODEGEN--\":8088:8155   */\n      jump(tag_343)\n    tag_372:\n        /* \"--CODEGEN--\":8081:8155   */\n      swap2\n      pop\n        /* \"--CODEGEN--\":8188:8222   */\n      0x4e6f207469656e65206c6f7320546f6b656e7320717565206465736561732064\n        /* \"--CODEGEN--\":8184:8185   */\n      0x00\n        /* \"--CODEGEN--\":8179:8182   */\n      dup4\n        /* \"--CODEGEN--\":8175:8186   */\n      add\n        /* \"--CODEGEN--\":8168:8223   */\n      mstore\n        /* \"--CODEGEN--\":8257:8267   */\n      0x65766f6c7665722e000000000000000000000000000000000000000000000000\n        /* \"--CODEGEN--\":8252:8254   */\n      0x20\n        /* \"--CODEGEN--\":8247:8250   */\n      dup4\n        /* \"--CODEGEN--\":8243:8255   */\n      add\n        /* \"--CODEGEN--\":8236:8268   */\n      mstore\n        /* \"--CODEGEN--\":8296:8298   */\n      0x40\n        /* \"--CODEGEN--\":8291:8294   */\n      dup3\n        /* \"--CODEGEN--\":8287:8299   */\n      add\n        /* \"--CODEGEN--\":8280:8299   */\n      swap1\n      pop\n        /* \"--CODEGEN--\":8074:8305   */\n      swap2\n      swap1\n      pop\n      jump\n        /* \"--CODEGEN--\":8313:8426   */\n    tag_373:\n        /* \"--CODEGEN--\":8396:8420   */\n      tag_375\n        /* \"--CODEGEN--\":8414:8419   */\n      dup2\n        /* \"--CODEGEN--\":8396:8420   */\n      jump(tag_376)\n    tag_375:\n        /* \"--CODEGEN--\":8391:8394   */\n      dup3\n        /* \"--CODEGEN--\":8384:8421   */\n      mstore\n        /* \"--CODEGEN--\":8378:8426   */\n      pop\n      pop\n      jump\n        /* \"--CODEGEN--\":8433:8699   */\n    tag_118:\n      0x00\n        /* \"--CODEGEN--\":8579:8674   */\n      tag_378\n        /* \"--CODEGEN--\":8670:8673   */\n      dup3\n        /* \"--CODEGEN--\":8661:8667   */\n      dup5\n        /* \"--CODEGEN--\":8579:8674   */\n      jump(tag_346)\n    tag_378:\n        /* \"--CODEGEN--\":8572:8674   */\n      swap2\n      pop\n        /* \"--CODEGEN--\":8691:8694   */\n      dup2\n        /* \"--CODEGEN--\":8684:8694   */\n      swap1\n      pop\n        /* \"--CODEGEN--\":8560:8699   */\n      swap3\n      swap2\n      pop\n      pop\n      jump\n        /* \"--CODEGEN--\":8706:8919   */\n    tag_101:\n      0x00\n        /* \"--CODEGEN--\":8824:8826   */\n      0x20\n        /* \"--CODEGEN--\":8813:8822   */\n      dup3\n        /* \"--CODEGEN--\":8809:8827   */\n      add\n        /* \"--CODEGEN--\":8801:8827   */\n      swap1\n      pop\n        /* \"--CODEGEN--\":8838:8909   */\n      tag_380\n        /* \"--CODEGEN--\":8906:8907   */\n      0x00\n        /* \"--CODEGEN--\":8895:8904   */\n      dup4\n        /* \"--CODEGEN--\":8891:8908   */\n      add\n        /* \"--CODEGEN--\":8882:8888   */\n      dup5\n        /* \"--CODEGEN--\":8838:8909   */\n      jump(tag_308)\n    tag_380:\n        /* \"--CODEGEN--\":8795:8919   */\n      swap3\n      swap2\n      pop\n      pop\n      jump\n        /* \"--CODEGEN--\":8926:9155   */\n    tag_217:\n      0x00\n        /* \"--CODEGEN--\":9052:9054   */\n      0x20\n        /* \"--CODEGEN--\":9041:9050   */\n      dup3\n        /* \"--CODEGEN--\":9037:9055   */\n      add\n        /* \"--CODEGEN--\":9029:9055   */\n      swap1\n      pop\n        /* \"--CODEGEN--\":9066:9145   */\n      tag_382\n        /* \"--CODEGEN--\":9142:9143   */\n      0x00\n        /* \"--CODEGEN--\":9131:9140   */\n      dup4\n        /* \"--CODEGEN--\":9127:9144   */\n      add\n        /* \"--CODEGEN--\":9118:9124   */\n      dup5\n        /* \"--CODEGEN--\":9066:9145   */\n      jump(tag_300)\n    tag_382:\n        /* \"--CODEGEN--\":9023:9155   */\n      swap3\n      swap2\n      pop\n      pop\n      jump\n        /* \"--CODEGEN--\":9162:9407   */\n    tag_62:\n      0x00\n        /* \"--CODEGEN--\":9296:9298   */\n      0x20\n        /* \"--CODEGEN--\":9285:9294   */\n      dup3\n        /* \"--CODEGEN--\":9281:9299   */\n      add\n        /* \"--CODEGEN--\":9273:9299   */\n      swap1\n      pop\n        /* \"--CODEGEN--\":9310:9397   */\n      tag_384\n        /* \"--CODEGEN--\":9394:9395   */\n      0x00\n        /* \"--CODEGEN--\":9383:9392   */\n      dup4\n        /* \"--CODEGEN--\":9379:9396   */\n      add\n        /* \"--CODEGEN--\":9370:9376   */\n      dup5\n        /* \"--CODEGEN--\":9310:9397   */\n      jump(tag_304)\n    tag_384:\n        /* \"--CODEGEN--\":9267:9407   */\n      swap3\n      swap2\n      pop\n      pop\n      jump\n        /* \"--CODEGEN--\":9414:9865   */\n    tag_128:\n      0x00\n        /* \"--CODEGEN--\":9596:9598   */\n      0x60\n        /* \"--CODEGEN--\":9585:9594   */\n      dup3\n        /* \"--CODEGEN--\":9581:9599   */\n      add\n        /* \"--CODEGEN--\":9573:9599   */\n      swap1\n      pop\n        /* \"--CODEGEN--\":9610:9689   */\n      tag_386\n        /* \"--CODEGEN--\":9686:9687   */\n      0x00\n        /* \"--CODEGEN--\":9675:9684   */\n      dup4\n        /* \"--CODEGEN--\":9671:9688   */\n      add\n        /* \"--CODEGEN--\":9662:9668   */\n      dup7\n        /* \"--CODEGEN--\":9610:9689   */\n      jump(tag_300)\n    tag_386:\n        /* \"--CODEGEN--\":9700:9772   */\n      tag_387\n        /* \"--CODEGEN--\":9768:9770   */\n      0x20\n        /* \"--CODEGEN--\":9757:9766   */\n      dup4\n        /* \"--CODEGEN--\":9753:9771   */\n      add\n        /* \"--CODEGEN--\":9744:9750   */\n      dup6\n        /* \"--CODEGEN--\":9700:9772   */\n      jump(tag_308)\n    tag_387:\n        /* \"--CODEGEN--\":9783:9855   */\n      tag_388\n        /* \"--CODEGEN--\":9851:9853   */\n      0x40\n        /* \"--CODEGEN--\":9840:9849   */\n      dup4\n        /* \"--CODEGEN--\":9836:9854   */\n      add\n        /* \"--CODEGEN--\":9827:9833   */\n      dup5\n        /* \"--CODEGEN--\":9783:9855   */\n      jump(tag_373)\n    tag_388:\n        /* \"--CODEGEN--\":9567:9865   */\n      swap5\n      swap4\n      pop\n      pop\n      pop\n      pop\n      jump\n        /* \"--CODEGEN--\":9872:10212   */\n    tag_234:\n      0x00\n        /* \"--CODEGEN--\":10026:10028   */\n      0x40\n        /* \"--CODEGEN--\":10015:10024   */\n      dup3\n        /* \"--CODEGEN--\":10011:10029   */\n      add\n        /* \"--CODEGEN--\":10003:10029   */\n      swap1\n      pop\n        /* \"--CODEGEN--\":10040:10119   */\n      tag_390\n        /* \"--CODEGEN--\":10116:10117   */\n      0x00\n        /* \"--CODEGEN--\":10105:10114   */\n      dup4\n        /* \"--CODEGEN--\":10101:10118   */\n      add\n        /* \"--CODEGEN--\":10092:10098   */\n      dup6\n        /* \"--CODEGEN--\":10040:10119   */\n      jump(tag_300)\n    tag_390:\n        /* \"--CODEGEN--\":10130:10202   */\n      tag_391\n        /* \"--CODEGEN--\":10198:10200   */\n      0x20\n        /* \"--CODEGEN--\":10187:10196   */\n      dup4\n        /* \"--CODEGEN--\":10183:10201   */\n      add\n        /* \"--CODEGEN--\":10174:10180   */\n      dup5\n        /* \"--CODEGEN--\":10130:10202   */\n      jump(tag_373)\n    tag_391:\n        /* \"--CODEGEN--\":9997:10212   */\n      swap4\n      swap3\n      pop\n      pop\n      pop\n      jump\n        /* \"--CODEGEN--\":10219:10620   */\n    tag_49:\n      0x00\n        /* \"--CODEGEN--\":10407:10409   */\n      0x20\n        /* \"--CODEGEN--\":10396:10405   */\n      dup3\n        /* \"--CODEGEN--\":10392:10410   */\n      add\n        /* \"--CODEGEN--\":10384:10410   */\n      swap1\n      pop\n        /* \"--CODEGEN--\":10457:10466   */\n      dup2\n        /* \"--CODEGEN--\":10451:10455   */\n      dup2\n        /* \"--CODEGEN--\":10447:10467   */\n      sub\n        /* \"--CODEGEN--\":10443:10444   */\n      0x00\n        /* \"--CODEGEN--\":10432:10441   */\n      dup4\n        /* \"--CODEGEN--\":10428:10445   */\n      add\n        /* \"--CODEGEN--\":10421:10468   */\n      mstore\n        /* \"--CODEGEN--\":10482:10610   */\n      tag_393\n        /* \"--CODEGEN--\":10605:10609   */\n      dup2\n        /* \"--CODEGEN--\":10596:10602   */\n      dup5\n        /* \"--CODEGEN--\":10482:10610   */\n      jump(tag_312)\n    tag_393:\n        /* \"--CODEGEN--\":10474:10610   */\n      swap1\n      pop\n        /* \"--CODEGEN--\":10378:10620   */\n      swap3\n      swap2\n      pop\n      pop\n      jump\n        /* \"--CODEGEN--\":10627:10928   */\n    tag_202:\n      0x00\n        /* \"--CODEGEN--\":10765:10767   */\n      0x20\n        /* \"--CODEGEN--\":10754:10763   */\n      dup3\n        /* \"--CODEGEN--\":10750:10768   */\n      add\n        /* \"--CODEGEN--\":10742:10768   */\n      swap1\n      pop\n        /* \"--CODEGEN--\":10815:10824   */\n      dup2\n        /* \"--CODEGEN--\":10809:10813   */\n      dup2\n        /* \"--CODEGEN--\":10805:10825   */\n      sub\n        /* \"--CODEGEN--\":10801:10802   */\n      0x00\n        /* \"--CODEGEN--\":10790:10799   */\n      dup4\n        /* \"--CODEGEN--\":10786:10803   */\n      add\n        /* \"--CODEGEN--\":10779:10826   */\n      mstore\n        /* \"--CODEGEN--\":10840:10918   */\n      tag_395\n        /* \"--CODEGEN--\":10913:10917   */\n      dup2\n        /* \"--CODEGEN--\":10904:10910   */\n      dup5\n        /* \"--CODEGEN--\":10840:10918   */\n      jump(tag_339)\n    tag_395:\n        /* \"--CODEGEN--\":10832:10918   */\n      swap1\n      pop\n        /* \"--CODEGEN--\":10736:10928   */\n      swap3\n      swap2\n      pop\n      pop\n      jump\n        /* \"--CODEGEN--\":10935:11347   */\n    tag_165:\n      0x00\n        /* \"--CODEGEN--\":11101:11103   */\n      0x40\n        /* \"--CODEGEN--\":11090:11099   */\n      dup3\n        /* \"--CODEGEN--\":11086:11104   */\n      add\n        /* \"--CODEGEN--\":11078:11104   */\n      swap1\n      pop\n        /* \"--CODEGEN--\":11151:11160   */\n      dup2\n        /* \"--CODEGEN--\":11145:11149   */\n      dup2\n        /* \"--CODEGEN--\":11141:11161   */\n      sub\n        /* \"--CODEGEN--\":11137:11138   */\n      0x00\n        /* \"--CODEGEN--\":11126:11135   */\n      dup4\n        /* \"--CODEGEN--\":11122:11139   */\n      add\n        /* \"--CODEGEN--\":11115:11162   */\n      mstore\n        /* \"--CODEGEN--\":11176:11254   */\n      tag_397\n        /* \"--CODEGEN--\":11249:11253   */\n      dup2\n        /* \"--CODEGEN--\":11240:11246   */\n      dup6\n        /* \"--CODEGEN--\":11176:11254   */\n      jump(tag_339)\n    tag_397:\n        /* \"--CODEGEN--\":11168:11254   */\n      swap1\n      pop\n        /* \"--CODEGEN--\":11265:11337   */\n      tag_398\n        /* \"--CODEGEN--\":11333:11335   */\n      0x20\n        /* \"--CODEGEN--\":11322:11331   */\n      dup4\n        /* \"--CODEGEN--\":11318:11336   */\n      add\n        /* \"--CODEGEN--\":11309:11315   */\n      dup5\n        /* \"--CODEGEN--\":11265:11337   */\n      jump(tag_373)\n    tag_398:\n        /* \"--CODEGEN--\":11072:11347   */\n      swap4\n      swap3\n      pop\n      pop\n      pop\n      jump\n        /* \"--CODEGEN--\":11354:11893   */\n    tag_138:\n      0x00\n        /* \"--CODEGEN--\":11556:11558   */\n      0x60\n        /* \"--CODEGEN--\":11545:11554   */\n      dup3\n        /* \"--CODEGEN--\":11541:11559   */\n      add\n        /* \"--CODEGEN--\":11533:11559   */\n      swap1\n      pop\n        /* \"--CODEGEN--\":11606:11615   */\n      dup2\n        /* \"--CODEGEN--\":11600:11604   */\n      dup2\n        /* \"--CODEGEN--\":11596:11616   */\n      sub\n        /* \"--CODEGEN--\":11592:11593   */\n      0x00\n        /* \"--CODEGEN--\":11581:11590   */\n      dup4\n        /* \"--CODEGEN--\":11577:11594   */\n      add\n        /* \"--CODEGEN--\":11570:11617   */\n      mstore\n        /* \"--CODEGEN--\":11631:11709   */\n      tag_400\n        /* \"--CODEGEN--\":11704:11708   */\n      dup2\n        /* \"--CODEGEN--\":11695:11701   */\n      dup7\n        /* \"--CODEGEN--\":11631:11709   */\n      jump(tag_339)\n    tag_400:\n        /* \"--CODEGEN--\":11623:11709   */\n      swap1\n      pop\n        /* \"--CODEGEN--\":11720:11792   */\n      tag_401\n        /* \"--CODEGEN--\":11788:11790   */\n      0x20\n        /* \"--CODEGEN--\":11777:11786   */\n      dup4\n        /* \"--CODEGEN--\":11773:11791   */\n      add\n        /* \"--CODEGEN--\":11764:11770   */\n      dup6\n        /* \"--CODEGEN--\":11720:11792   */\n      jump(tag_373)\n    tag_401:\n        /* \"--CODEGEN--\":11803:11883   */\n      tag_402\n        /* \"--CODEGEN--\":11879:11881   */\n      0x40\n        /* \"--CODEGEN--\":11868:11877   */\n      dup4\n        /* \"--CODEGEN--\":11864:11882   */\n      add\n        /* \"--CODEGEN--\":11855:11861   */\n      dup5\n        /* \"--CODEGEN--\":11803:11883   */\n      jump(tag_300)\n    tag_402:\n        /* \"--CODEGEN--\":11527:11893   */\n      swap5\n      swap4\n      pop\n      pop\n      pop\n      pop\n      jump\n        /* \"--CODEGEN--\":11900:12411   */\n    tag_82:\n      0x00\n        /* \"--CODEGEN--\":12088:12090   */\n      0x60\n        /* \"--CODEGEN--\":12077:12086   */\n      dup3\n        /* \"--CODEGEN--\":12073:12091   */\n      add\n        /* \"--CODEGEN--\":12065:12091   */\n      swap1\n      pop\n        /* \"--CODEGEN--\":12138:12147   */\n      dup2\n        /* \"--CODEGEN--\":12132:12136   */\n      dup2\n        /* \"--CODEGEN--\":12128:12148   */\n      sub\n        /* \"--CODEGEN--\":12124:12125   */\n      0x00\n        /* \"--CODEGEN--\":12113:12122   */\n      dup4\n        /* \"--CODEGEN--\":12109:12126   */\n      add\n        /* \"--CODEGEN--\":12102:12149   */\n      mstore\n        /* \"--CODEGEN--\":12163:12241   */\n      tag_404\n        /* \"--CODEGEN--\":12236:12240   */\n      dup2\n        /* \"--CODEGEN--\":12227:12233   */\n      dup7\n        /* \"--CODEGEN--\":12163:12241   */\n      jump(tag_339)\n    tag_404:\n        /* \"--CODEGEN--\":12155:12241   */\n      swap1\n      pop\n        /* \"--CODEGEN--\":12252:12324   */\n      tag_405\n        /* \"--CODEGEN--\":12320:12322   */\n      0x20\n        /* \"--CODEGEN--\":12309:12318   */\n      dup4\n        /* \"--CODEGEN--\":12305:12323   */\n      add\n        /* \"--CODEGEN--\":12296:12302   */\n      dup6\n        /* \"--CODEGEN--\":12252:12324   */\n      jump(tag_373)\n    tag_405:\n        /* \"--CODEGEN--\":12335:12401   */\n      tag_406\n        /* \"--CODEGEN--\":12397:12399   */\n      0x40\n        /* \"--CODEGEN--\":12386:12395   */\n      dup4\n        /* \"--CODEGEN--\":12382:12400   */\n      add\n        /* \"--CODEGEN--\":12373:12379   */\n      dup5\n        /* \"--CODEGEN--\":12335:12401   */\n      jump(tag_326)\n    tag_406:\n        /* \"--CODEGEN--\":12059:12411   */\n      swap5\n      swap4\n      pop\n      pop\n      pop\n      pop\n      jump\n        /* \"--CODEGEN--\":12418:12825   */\n    tag_122:\n      0x00\n        /* \"--CODEGEN--\":12609:12611   */\n      0x20\n        /* \"--CODEGEN--\":12598:12607   */\n      dup3\n        /* \"--CODEGEN--\":12594:12612   */\n      add\n        /* \"--CODEGEN--\":12586:12612   */\n      swap1\n      pop\n        /* \"--CODEGEN--\":12659:12668   */\n      dup2\n        /* \"--CODEGEN--\":12653:12657   */\n      dup2\n        /* \"--CODEGEN--\":12649:12669   */\n      sub\n        /* \"--CODEGEN--\":12645:12646   */\n      0x00\n        /* \"--CODEGEN--\":12634:12643   */\n      dup4\n        /* \"--CODEGEN--\":12630:12647   */\n      add\n        /* \"--CODEGEN--\":12623:12670   */\n      mstore\n        /* \"--CODEGEN--\":12684:12815   */\n      tag_408\n        /* \"--CODEGEN--\":12810:12814   */\n      dup2\n        /* \"--CODEGEN--\":12684:12815   */\n      jump(tag_352)\n    tag_408:\n        /* \"--CODEGEN--\":12676:12815   */\n      swap1\n      pop\n        /* \"--CODEGEN--\":12580:12825   */\n      swap2\n      swap1\n      pop\n      jump\n        /* \"--CODEGEN--\":12832:13239   */\n    tag_126:\n      0x00\n        /* \"--CODEGEN--\":13023:13025   */\n      0x20\n        /* \"--CODEGEN--\":13012:13021   */\n      dup3\n        /* \"--CODEGEN--\":13008:13026   */\n      add\n        /* \"--CODEGEN--\":13000:13026   */\n      swap1\n      pop\n        /* \"--CODEGEN--\":13073:13082   */\n      dup2\n        /* \"--CODEGEN--\":13067:13071   */\n      dup2\n        /* \"--CODEGEN--\":13063:13083   */\n      sub\n        /* \"--CODEGEN--\":13059:13060   */\n      0x00\n        /* \"--CODEGEN--\":13048:13057   */\n      dup4\n        /* \"--CODEGEN--\":13044:13061   */\n      add\n        /* \"--CODEGEN--\":13037:13084   */\n      mstore\n        /* \"--CODEGEN--\":13098:13229   */\n      tag_410\n        /* \"--CODEGEN--\":13224:13228   */\n      dup2\n        /* \"--CODEGEN--\":13098:13229   */\n      jump(tag_355)\n    tag_410:\n        /* \"--CODEGEN--\":13090:13229   */\n      swap1\n      pop\n        /* \"--CODEGEN--\":12994:13239   */\n      swap2\n      swap1\n      pop\n      jump\n        /* \"--CODEGEN--\":13246:13653   */\n    tag_110:\n      0x00\n        /* \"--CODEGEN--\":13437:13439   */\n      0x20\n        /* \"--CODEGEN--\":13426:13435   */\n      dup3\n        /* \"--CODEGEN--\":13422:13440   */\n      add\n        /* \"--CODEGEN--\":13414:13440   */\n      swap1\n      pop\n        /* \"--CODEGEN--\":13487:13496   */\n      dup2\n        /* \"--CODEGEN--\":13481:13485   */\n      dup2\n        /* \"--CODEGEN--\":13477:13497   */\n      sub\n        /* \"--CODEGEN--\":13473:13474   */\n      0x00\n        /* \"--CODEGEN--\":13462:13471   */\n      dup4\n        /* \"--CODEGEN--\":13458:13475   */\n      add\n        /* \"--CODEGEN--\":13451:13498   */\n      mstore\n        /* \"--CODEGEN--\":13512:13643   */\n      tag_412\n        /* \"--CODEGEN--\":13638:13642   */\n      dup2\n        /* \"--CODEGEN--\":13512:13643   */\n      jump(tag_358)\n    tag_412:\n        /* \"--CODEGEN--\":13504:13643   */\n      swap1\n      pop\n        /* \"--CODEGEN--\":13408:13653   */\n      swap2\n      swap1\n      pop\n      jump\n        /* \"--CODEGEN--\":13660:14067   */\n    tag_142:\n      0x00\n        /* \"--CODEGEN--\":13851:13853   */\n      0x20\n        /* \"--CODEGEN--\":13840:13849   */\n      dup3\n        /* \"--CODEGEN--\":13836:13854   */\n      add\n        /* \"--CODEGEN--\":13828:13854   */\n      swap1\n      pop\n        /* \"--CODEGEN--\":13901:13910   */\n      dup2\n        /* \"--CODEGEN--\":13895:13899   */\n      dup2\n        /* \"--CODEGEN--\":13891:13911   */\n      sub\n        /* \"--CODEGEN--\":13887:13888   */\n      0x00\n        /* \"--CODEGEN--\":13876:13885   */\n      dup4\n        /* \"--CODEGEN--\":13872:13889   */\n      add\n        /* \"--CODEGEN--\":13865:13912   */\n      mstore\n        /* \"--CODEGEN--\":13926:14057   */\n      tag_414\n        /* \"--CODEGEN--\":14052:14056   */\n      dup2\n        /* \"--CODEGEN--\":13926:14057   */\n      jump(tag_361)\n    tag_414:\n        /* \"--CODEGEN--\":13918:14057   */\n      swap1\n      pop\n        /* \"--CODEGEN--\":13822:14067   */\n      swap2\n      swap1\n      pop\n      jump\n        /* \"--CODEGEN--\":14074:14481   */\n    tag_226:\n      0x00\n        /* \"--CODEGEN--\":14265:14267   */\n      0x20\n        /* \"--CODEGEN--\":14254:14263   */\n      dup3\n        /* \"--CODEGEN--\":14250:14268   */\n      add\n        /* \"--CODEGEN--\":14242:14268   */\n      swap1\n      pop\n        /* \"--CODEGEN--\":14315:14324   */\n      dup2\n        /* \"--CODEGEN--\":14309:14313   */\n      dup2\n        /* \"--CODEGEN--\":14305:14325   */\n      sub\n        /* \"--CODEGEN--\":14301:14302   */\n      0x00\n        /* \"--CODEGEN--\":14290:14299   */\n      dup4\n        /* \"--CODEGEN--\":14286:14303   */\n      add\n        /* \"--CODEGEN--\":14279:14326   */\n      mstore\n        /* \"--CODEGEN--\":14340:14471   */\n      tag_416\n        /* \"--CODEGEN--\":14466:14470   */\n      dup2\n        /* \"--CODEGEN--\":14340:14471   */\n      jump(tag_364)\n    tag_416:\n        /* \"--CODEGEN--\":14332:14471   */\n      swap1\n      pop\n        /* \"--CODEGEN--\":14236:14481   */\n      swap2\n      swap1\n      pop\n      jump\n        /* \"--CODEGEN--\":14488:14895   */\n    tag_232:\n      0x00\n        /* \"--CODEGEN--\":14679:14681   */\n      0x20\n        /* \"--CODEGEN--\":14668:14677   */\n      dup3\n        /* \"--CODEGEN--\":14664:14682   */\n      add\n        /* \"--CODEGEN--\":14656:14682   */\n      swap1\n      pop\n        /* \"--CODEGEN--\":14729:14738   */\n      dup2\n        /* \"--CODEGEN--\":14723:14727   */\n      dup2\n        /* \"--CODEGEN--\":14719:14739   */\n      sub\n        /* \"--CODEGEN--\":14715:14716   */\n      0x00\n        /* \"--CODEGEN--\":14704:14713   */\n      dup4\n        /* \"--CODEGEN--\":14700:14717   */\n      add\n        /* \"--CODEGEN--\":14693:14740   */\n      mstore\n        /* \"--CODEGEN--\":14754:14885   */\n      tag_418\n        /* \"--CODEGEN--\":14880:14884   */\n      dup2\n        /* \"--CODEGEN--\":14754:14885   */\n      jump(tag_367)\n    tag_418:\n        /* \"--CODEGEN--\":14746:14885   */\n      swap1\n      pop\n        /* \"--CODEGEN--\":14650:14895   */\n      swap2\n      swap1\n      pop\n      jump\n        /* \"--CODEGEN--\":14902:15309   */\n    tag_146:\n      0x00\n        /* \"--CODEGEN--\":15093:15095   */\n      0x20\n        /* \"--CODEGEN--\":15082:15091   */\n      dup3\n        /* \"--CODEGEN--\":15078:15096   */\n      add\n        /* \"--CODEGEN--\":15070:15096   */\n      swap1\n      pop\n        /* \"--CODEGEN--\":15143:15152   */\n      dup2\n        /* \"--CODEGEN--\":15137:15141   */\n      dup2\n        /* \"--CODEGEN--\":15133:15153   */\n      sub\n        /* \"--CODEGEN--\":15129:15130   */\n      0x00\n        /* \"--CODEGEN--\":15118:15127   */\n      dup4\n        /* \"--CODEGEN--\":15114:15131   */\n      add\n        /* \"--CODEGEN--\":15107:15154   */\n      mstore\n        /* \"--CODEGEN--\":15168:15299   */\n      tag_420\n        /* \"--CODEGEN--\":15294:15298   */\n      dup2\n        /* \"--CODEGEN--\":15168:15299   */\n      jump(tag_370)\n    tag_420:\n        /* \"--CODEGEN--\":15160:15299   */\n      swap1\n      pop\n        /* \"--CODEGEN--\":15064:15309   */\n      swap2\n      swap1\n      pop\n      jump\n        /* \"--CODEGEN--\":15316:15529   */\n    tag_26:\n      0x00\n        /* \"--CODEGEN--\":15434:15436   */\n      0x20\n        /* \"--CODEGEN--\":15423:15432   */\n      dup3\n        /* \"--CODEGEN--\":15419:15437   */\n      add\n        /* \"--CODEGEN--\":15411:15437   */\n      swap1\n      pop\n        /* \"--CODEGEN--\":15448:15519   */\n      tag_422\n        /* \"--CODEGEN--\":15516:15517   */\n      0x00\n        /* \"--CODEGEN--\":15505:15514   */\n      dup4\n        /* \"--CODEGEN--\":15501:15518   */\n      add\n        /* \"--CODEGEN--\":15492:15498   */\n      dup5\n        /* \"--CODEGEN--\":15448:15519   */\n      jump(tag_373)\n    tag_422:\n        /* \"--CODEGEN--\":15405:15529   */\n      swap3\n      swap2\n      pop\n      pop\n      jump\n        /* \"--CODEGEN--\":15536:15792   */\n    tag_264:\n      0x00\n        /* \"--CODEGEN--\":15598:15600   */\n      0x40\n        /* \"--CODEGEN--\":15592:15601   */\n      mload\n        /* \"--CODEGEN--\":15582:15601   */\n      swap1\n      pop\n        /* \"--CODEGEN--\":15636:15640   */\n      dup2\n        /* \"--CODEGEN--\":15628:15634   */\n      dup2\n        /* \"--CODEGEN--\":15624:15641   */\n      add\n        /* \"--CODEGEN--\":15735:15741   */\n      dup2\n        /* \"--CODEGEN--\":15723:15733   */\n      dup2\n        /* \"--CODEGEN--\":15720:15742   */\n      lt\n        /* \"--CODEGEN--\":15699:15717   */\n      0xffffffffffffffff\n        /* \"--CODEGEN--\":15687:15697   */\n      dup3\n        /* \"--CODEGEN--\":15684:15718   */\n      gt\n        /* \"--CODEGEN--\":15681:15743   */\n      or\n        /* \"--CODEGEN--\":15678:15680   */\n      iszero\n      tag_424\n      jumpi\n        /* \"--CODEGEN--\":15756:15757   */\n      0x00\n        /* \"--CODEGEN--\":15753:15754   */\n      dup1\n        /* \"--CODEGEN--\":15746:15758   */\n      revert\n        /* \"--CODEGEN--\":15678:15680   */\n    tag_424:\n        /* \"--CODEGEN--\":15776:15786   */\n      dup1\n        /* \"--CODEGEN--\":15772:15774   */\n      0x40\n        /* \"--CODEGEN--\":15765:15787   */\n      mstore\n        /* \"--CODEGEN--\":15576:15792   */\n      pop\n      swap2\n      swap1\n      pop\n      jump\n        /* \"--CODEGEN--\":15799:16121   */\n    tag_263:\n      0x00\n        /* \"--CODEGEN--\":15943:15961   */\n      0xffffffffffffffff\n        /* \"--CODEGEN--\":15935:15941   */\n      dup3\n        /* \"--CODEGEN--\":15932:15962   */\n      gt\n        /* \"--CODEGEN--\":15929:15931   */\n      iszero\n      tag_426\n      jumpi\n        /* \"--CODEGEN--\":15975:15976   */\n      0x00\n        /* \"--CODEGEN--\":15972:15973   */\n      dup1\n        /* \"--CODEGEN--\":15965:15977   */\n      revert\n        /* \"--CODEGEN--\":15929:15931   */\n    tag_426:\n        /* \"--CODEGEN--\":16042:16046   */\n      0x1f\n        /* \"--CODEGEN--\":16038:16047   */\n      not\n        /* \"--CODEGEN--\":16031:16035   */\n      0x1f\n        /* \"--CODEGEN--\":16023:16029   */\n      dup4\n        /* \"--CODEGEN--\":16019:16036   */\n      add\n        /* \"--CODEGEN--\":16015:16048   */\n      and\n        /* \"--CODEGEN--\":16007:16048   */\n      swap1\n      pop\n        /* \"--CODEGEN--\":16106:16110   */\n      0x20\n        /* \"--CODEGEN--\":16100:16104   */\n      dup2\n        /* \"--CODEGEN--\":16096:16111   */\n      add\n        /* \"--CODEGEN--\":16088:16111   */\n      swap1\n      pop\n        /* \"--CODEGEN--\":15866:16121   */\n      swap2\n      swap1\n      pop\n      jump\n        /* \"--CODEGEN--\":16128:16289   */\n    tag_319:\n      0x00\n        /* \"--CODEGEN--\":16224:16227   */\n      dup2\n        /* \"--CODEGEN--\":16216:16227   */\n      swap1\n      pop\n        /* \"--CODEGEN--\":16262:16266   */\n      0x20\n        /* \"--CODEGEN--\":16257:16260   */\n      dup3\n        /* \"--CODEGEN--\":16253:16267   */\n      add\n        /* \"--CODEGEN--\":16245:16267   */\n      swap1\n      pop\n        /* \"--CODEGEN--\":16210:16289   */\n      swap2\n      swap1\n      pop\n      jump\n        /* \"--CODEGEN--\":16296:16443   */\n    tag_315:\n      0x00\n        /* \"--CODEGEN--\":16415:16420   */\n      dup2\n        /* \"--CODEGEN--\":16409:16421   */\n      mload\n        /* \"--CODEGEN--\":16399:16421   */\n      swap1\n      pop\n        /* \"--CODEGEN--\":16380:16443   */\n      swap2\n      swap1\n      pop\n      jump\n        /* \"--CODEGEN--\":16450:16572   */\n    tag_332:\n      0x00\n        /* \"--CODEGEN--\":16544:16549   */\n      dup2\n        /* \"--CODEGEN--\":16538:16550   */\n      mload\n        /* \"--CODEGEN--\":16528:16550   */\n      swap1\n      pop\n        /* \"--CODEGEN--\":16509:16572   */\n      swap2\n      swap1\n      pop\n      jump\n        /* \"--CODEGEN--\":16579:16697   */\n    tag_325:\n      0x00\n        /* \"--CODEGEN--\":16687:16691   */\n      0x20\n        /* \"--CODEGEN--\":16682:16685   */\n      dup3\n        /* \"--CODEGEN--\":16678:16692   */\n      add\n        /* \"--CODEGEN--\":16670:16692   */\n      swap1\n      pop\n        /* \"--CODEGEN--\":16664:16697   */\n      swap2\n      swap1\n      pop\n      jump\n        /* \"--CODEGEN--\":16705:16893   */\n    tag_317:\n      0x00\n        /* \"--CODEGEN--\":16845:16851   */\n      dup3\n        /* \"--CODEGEN--\":16840:16843   */\n      dup3\n        /* \"--CODEGEN--\":16833:16852   */\n      mstore\n        /* \"--CODEGEN--\":16882:16886   */\n      0x20\n        /* \"--CODEGEN--\":16877:16880   */\n      dup3\n        /* \"--CODEGEN--\":16873:16887   */\n      add\n        /* \"--CODEGEN--\":16858:16887   */\n      swap1\n      pop\n        /* \"--CODEGEN--\":16826:16893   */\n      swap3\n      swap2\n      pop\n      pop\n      jump\n        /* \"--CODEGEN--\":16902:17055   */\n    tag_334:\n      0x00\n        /* \"--CODEGEN--\":17007:17013   */\n      dup3\n        /* \"--CODEGEN--\":17002:17005   */\n      dup3\n        /* \"--CODEGEN--\":16995:17014   */\n      mstore\n        /* \"--CODEGEN--\":17044:17048   */\n      0x20\n        /* \"--CODEGEN--\":17039:17042   */\n      dup3\n        /* \"--CODEGEN--\":17035:17049   */\n      add\n        /* \"--CODEGEN--\":17020:17049   */\n      swap1\n      pop\n        /* \"--CODEGEN--\":16988:17055   */\n      swap3\n      swap2\n      pop\n      pop\n      jump\n        /* \"--CODEGEN--\":17064:17227   */\n    tag_343:\n      0x00\n        /* \"--CODEGEN--\":17179:17185   */\n      dup3\n        /* \"--CODEGEN--\":17174:17177   */\n      dup3\n        /* \"--CODEGEN--\":17167:17186   */\n      mstore\n        /* \"--CODEGEN--\":17216:17220   */\n      0x20\n        /* \"--CODEGEN--\":17211:17214   */\n      dup3\n        /* \"--CODEGEN--\":17207:17221   */\n      add\n        /* \"--CODEGEN--\":17192:17221   */\n      swap1\n      pop\n        /* \"--CODEGEN--\":17160:17227   */\n      swap3\n      swap2\n      pop\n      pop\n      jump\n        /* \"--CODEGEN--\":17236:17381   */\n    tag_350:\n      0x00\n        /* \"--CODEGEN--\":17372:17375   */\n      dup2\n        /* \"--CODEGEN--\":17357:17375   */\n      swap1\n      pop\n        /* \"--CODEGEN--\":17350:17381   */\n      swap3\n      swap2\n      pop\n      pop\n      jump\n        /* \"--CODEGEN--\":17389:17480   */\n    tag_311:\n      0x00\n        /* \"--CODEGEN--\":17451:17475   */\n      tag_436\n        /* \"--CODEGEN--\":17469:17474   */\n      dup3\n        /* \"--CODEGEN--\":17451:17475   */\n      jump(tag_437)\n    tag_436:\n        /* \"--CODEGEN--\":17440:17475   */\n      swap1\n      pop\n        /* \"--CODEGEN--\":17434:17480   */\n      swap2\n      swap1\n      pop\n      jump\n        /* \"--CODEGEN--\":17487:17586   */\n    tag_307:\n      0x00\n        /* \"--CODEGEN--\":17557:17581   */\n      tag_439\n        /* \"--CODEGEN--\":17575:17580   */\n      dup3\n        /* \"--CODEGEN--\":17557:17581   */\n      jump(tag_437)\n    tag_439:\n        /* \"--CODEGEN--\":17546:17581   */\n      swap1\n      pop\n        /* \"--CODEGEN--\":17540:17586   */\n      swap2\n      swap1\n      pop\n      jump\n        /* \"--CODEGEN--\":17593:17678   */\n    tag_329:\n      0x00\n        /* \"--CODEGEN--\":17666:17671   */\n      dup2\n        /* \"--CODEGEN--\":17659:17672   */\n      iszero\n        /* \"--CODEGEN--\":17652:17673   */\n      iszero\n        /* \"--CODEGEN--\":17641:17673   */\n      swap1\n      pop\n        /* \"--CODEGEN--\":17635:17678   */\n      swap2\n      swap1\n      pop\n      jump\n        /* \"--CODEGEN--\":17685:17806   */\n    tag_437:\n      0x00\n        /* \"--CODEGEN--\":17758:17800   */\n      0xffffffffffffffffffffffffffffffffffffffff\n        /* \"--CODEGEN--\":17751:17756   */\n      dup3\n        /* \"--CODEGEN--\":17747:17801   */\n      and\n        /* \"--CODEGEN--\":17736:17801   */\n      swap1\n      pop\n        /* \"--CODEGEN--\":17730:17806   */\n      swap2\n      swap1\n      pop\n      jump\n        /* \"--CODEGEN--\":17813:17885   */\n    tag_376:\n      0x00\n        /* \"--CODEGEN--\":17875:17880   */\n      dup2\n        /* \"--CODEGEN--\":17864:17880   */\n      swap1\n      pop\n        /* \"--CODEGEN--\":17858:17885   */\n      swap2\n      swap1\n      pop\n      jump\n        /* \"--CODEGEN--\":17892:18021   */\n    tag_303:\n      0x00\n        /* \"--CODEGEN--\":17979:18016   */\n      tag_444\n        /* \"--CODEGEN--\":18010:18015   */\n      dup3\n        /* \"--CODEGEN--\":17979:18016   */\n      jump(tag_445)\n    tag_444:\n        /* \"--CODEGEN--\":17966:18016   */\n      swap1\n      pop\n        /* \"--CODEGEN--\":17960:18021   */\n      swap2\n      swap1\n      pop\n      jump\n        /* \"--CODEGEN--\":18028:18149   */\n    tag_445:\n      0x00\n        /* \"--CODEGEN--\":18107:18144   */\n      tag_447\n        /* \"--CODEGEN--\":18138:18143   */\n      dup3\n        /* \"--CODEGEN--\":18107:18144   */\n      jump(tag_448)\n    tag_447:\n        /* \"--CODEGEN--\":18094:18144   */\n      swap1\n      pop\n        /* \"--CODEGEN--\":18088:18149   */\n      swap2\n      swap1\n      pop\n      jump\n        /* \"--CODEGEN--\":18156:18264   */\n    tag_448:\n      0x00\n        /* \"--CODEGEN--\":18235:18259   */\n      tag_450\n        /* \"--CODEGEN--\":18253:18258   */\n      dup3\n        /* \"--CODEGEN--\":18235:18259   */\n      jump(tag_437)\n    tag_450:\n        /* \"--CODEGEN--\":18222:18259   */\n      swap1\n      pop\n        /* \"--CODEGEN--\":18216:18264   */\n      swap2\n      swap1\n      pop\n      jump\n        /* \"--CODEGEN--\":18272:18417   */\n    tag_267:\n        /* \"--CODEGEN--\":18353:18359   */\n      dup3\n        /* \"--CODEGEN--\":18348:18351   */\n      dup2\n        /* \"--CODEGEN--\":18343:18346   */\n      dup4\n        /* \"--CODEGEN--\":18330:18360   */\n      calldatacopy\n        /* \"--CODEGEN--\":18409:18410   */\n      0x00\n        /* \"--CODEGEN--\":18400:18406   */\n      dup4\n        /* \"--CODEGEN--\":18395:18398   */\n      dup4\n        /* \"--CODEGEN--\":18391:18407   */\n      add\n        /* \"--CODEGEN--\":18384:18411   */\n      mstore\n        /* \"--CODEGEN--\":18323:18417   */\n      pop\n      pop\n      pop\n      jump\n        /* \"--CODEGEN--\":18426:18694   */\n    tag_336:\n        /* \"--CODEGEN--\":18491:18492   */\n      0x00\n        /* \"--CODEGEN--\":18498:18599   */\n    tag_453:\n        /* \"--CODEGEN--\":18512:18518   */\n      dup4\n        /* \"--CODEGEN--\":18509:18510   */\n      dup2\n        /* \"--CODEGEN--\":18506:18519   */\n      lt\n        /* \"--CODEGEN--\":18498:18599   */\n      iszero\n      tag_455\n      jumpi\n        /* \"--CODEGEN--\":18588:18589   */\n      dup1\n        /* \"--CODEGEN--\":18583:18586   */\n      dup3\n        /* \"--CODEGEN--\":18579:18590   */\n      add\n        /* \"--CODEGEN--\":18573:18591   */\n      mload\n        /* \"--CODEGEN--\":18569:18570   */\n      dup2\n        /* \"--CODEGEN--\":18564:18567   */\n      dup5\n        /* \"--CODEGEN--\":18560:18571   */\n      add\n        /* \"--CODEGEN--\":18553:18592   */\n      mstore\n        /* \"--CODEGEN--\":18534:18536   */\n      0x20\n        /* \"--CODEGEN--\":18531:18532   */\n      dup2\n        /* \"--CODEGEN--\":18527:18537   */\n      add\n        /* \"--CODEGEN--\":18522:18537   */\n      swap1\n      pop\n        /* \"--CODEGEN--\":18498:18599   */\n      jump(tag_453)\n    tag_455:\n        /* \"--CODEGEN--\":18614:18620   */\n      dup4\n        /* \"--CODEGEN--\":18611:18612   */\n      dup2\n        /* \"--CODEGEN--\":18608:18621   */\n      gt\n        /* \"--CODEGEN--\":18605:18607   */\n      iszero\n      tag_456\n      jumpi\n        /* \"--CODEGEN--\":18679:18680   */\n      0x00\n        /* \"--CODEGEN--\":18670:18676   */\n      dup5\n        /* \"--CODEGEN--\":18665:18668   */\n      dup5\n        /* \"--CODEGEN--\":18661:18677   */\n      add\n        /* \"--CODEGEN--\":18654:18681   */\n      mstore\n        /* \"--CODEGEN--\":18605:18607   */\n    tag_456:\n        /* \"--CODEGEN--\":18475:18694   */\n      pop\n      pop\n      pop\n      pop\n      jump\n        /* \"--CODEGEN--\":18702:18799   */\n    tag_338:\n      0x00\n        /* \"--CODEGEN--\":18790:18792   */\n      0x1f\n        /* \"--CODEGEN--\":18786:18793   */\n      not\n        /* \"--CODEGEN--\":18781:18783   */\n      0x1f\n        /* \"--CODEGEN--\":18774:18779   */\n      dup4\n        /* \"--CODEGEN--\":18770:18784   */\n      add\n        /* \"--CODEGEN--\":18766:18794   */\n      and\n        /* \"--CODEGEN--\":18756:18794   */\n      swap1\n      pop\n        /* \"--CODEGEN--\":18750:18799   */\n      swap2\n      swap1\n      pop\n      jump\n        /* \"--CODEGEN--\":18807:18924   */\n    tag_253:\n        /* \"--CODEGEN--\":18876:18900   */\n      tag_459\n        /* \"--CODEGEN--\":18894:18899   */\n      dup2\n        /* \"--CODEGEN--\":18876:18900   */\n      jump(tag_311)\n    tag_459:\n        /* \"--CODEGEN--\":18869:18874   */\n      dup2\n        /* \"--CODEGEN--\":18866:18901   */\n      eq\n        /* \"--CODEGEN--\":18856:18858   */\n      tag_460\n      jumpi\n        /* \"--CODEGEN--\":18915:18916   */\n      0x00\n        /* \"--CODEGEN--\":18912:18913   */\n      dup1\n        /* \"--CODEGEN--\":18905:18917   */\n      revert\n        /* \"--CODEGEN--\":18856:18858   */\n    tag_460:\n        /* \"--CODEGEN--\":18850:18924   */\n      pop\n      jump\n        /* \"--CODEGEN--\":18931:19042   */\n    tag_257:\n        /* \"--CODEGEN--\":18997:19018   */\n      tag_462\n        /* \"--CODEGEN--\":19012:19017   */\n      dup2\n        /* \"--CODEGEN--\":18997:19018   */\n      jump(tag_329)\n    tag_462:\n        /* \"--CODEGEN--\":18990:18995   */\n      dup2\n        /* \"--CODEGEN--\":18987:19019   */\n      eq\n        /* \"--CODEGEN--\":18977:18979   */\n      tag_463\n      jumpi\n        /* \"--CODEGEN--\":19033:19034   */\n      0x00\n        /* \"--CODEGEN--\":19030:19031   */\n      dup1\n        /* \"--CODEGEN--\":19023:19035   */\n      revert\n        /* \"--CODEGEN--\":18977:18979   */\n    tag_463:\n        /* \"--CODEGEN--\":18971:19042   */\n      pop\n      jump\n        /* \"--CODEGEN--\":19049:19166   */\n    tag_271:\n        /* \"--CODEGEN--\":19118:19142   */\n      tag_465\n        /* \"--CODEGEN--\":19136:19141   */\n      dup2\n        /* \"--CODEGEN--\":19118:19142   */\n      jump(tag_376)\n    tag_465:\n        /* \"--CODEGEN--\":19111:19116   */\n      dup2\n        /* \"--CODEGEN--\":19108:19143   */\n      eq\n        /* \"--CODEGEN--\":19098:19100   */\n      tag_466\n      jumpi\n        /* \"--CODEGEN--\":19157:19158   */\n      0x00\n        /* \"--CODEGEN--\":19154:19155   */\n      dup1\n        /* \"--CODEGEN--\":19147:19159   */\n      revert\n        /* \"--CODEGEN--\":19098:19100   */\n    tag_466:\n        /* \"--CODEGEN--\":19092:19166   */\n      pop\n      jump\n\n    auxdata: 0xa2646970667358221220f3f257eeebb9ca6aeba8e83eca10c58cbcfb0840df60397fbf7b1683e932217564736f6c63430006060033\n}\n\nsub_1: assembly {\n        /* \"DISNEY/ERC20.sol\":1955:4579  contract ERC20Basic is IERC20{... */\n      mstore(0x40, 0x80)\n        /* \"DISNEY/ERC20.sol\":2455:2587  constructor (uint256 initialSupply) public{... */\n      callvalue\n        /* \"--CODEGEN--\":5:14   */\n      dup1\n        /* \"--CODEGEN--\":2:4   */\n      iszero\n      tag_1\n      jumpi\n        /* \"--CODEGEN--\":27:28   */\n      0x00\n        /* \"--CODEGEN--\":24:25   */\n      dup1\n        /* \"--CODEGEN--\":17:29   */\n      revert\n        /* \"--CODEGEN--\":2:4   */\n    tag_1:\n        /* \"DISNEY/ERC20.sol\":2455:2587  constructor (uint256 initialSupply) public{... */\n      pop\n      mload(0x40)\n      sub(codesize, bytecodeSize)\n      dup1\n      bytecodeSize\n      dup4\n      codecopy\n      dup2\n      dup2\n      add\n      0x40\n      mstore\n      dup2\n      add\n      swap1\n      tag_2\n      swap2\n      swap1\n      jump(tag_3)\n    tag_2:\n        /* \"DISNEY/ERC20.sol\":2522:2535  initialSupply */\n      dup1\n        /* \"DISNEY/ERC20.sol\":2507:2519  totalSupply_ */\n      0x02\n        /* \"DISNEY/ERC20.sol\":2507:2535  totalSupply_ = initialSupply */\n      dup2\n      swap1\n      sstore\n      pop\n        /* \"DISNEY/ERC20.sol\":2568:2580  totalSupply_ */\n      sload(0x02)\n        /* \"DISNEY/ERC20.sol\":2545:2553  balances */\n      0x00\n        /* \"DISNEY/ERC20.sol\":2545:2565  balances[msg.sender] */\n      dup1\n        /* \"DISNEY/ERC20.sol\":2554:2564  msg.sender */\n      caller\n        /* \"DISNEY/ERC20.sol\":2545:2565  balances[msg.sender] */\n      0xffffffffffffffffffffffffffffffffffffffff\n      and\n      0xffffffffffffffffffffffffffffffffffffffff\n      and\n      dup2\n      mstore\n      0x20\n      add\n      swap1\n      dup2\n      mstore\n      0x20\n      add\n      0x00\n      keccak256\n        /* \"DISNEY/ERC20.sol\":2545:2580  balances[msg.sender] = totalSupply_ */\n      dup2\n      swap1\n      sstore\n      pop\n        /* \"DISNEY/ERC20.sol\":2455:2587  constructor (uint256 initialSupply) public{... */\n      pop\n        /* \"DISNEY/ERC20.sol\":1955:4579  contract ERC20Basic is IERC20{... */\n      jump(tag_6)\n        /* \"--CODEGEN--\":5:139   */\n    tag_8:\n      0x00\n        /* \"--CODEGEN--\":89:95   */\n      dup2\n        /* \"--CODEGEN--\":83:96   */\n      mload\n        /* \"--CODEGEN--\":74:96   */\n      swap1\n      pop\n        /* \"--CODEGEN--\":101:134   */\n      tag_10\n        /* \"--CODEGEN--\":128:133   */\n      dup2\n        /* \"--CODEGEN--\":101:134   */\n      jump(tag_11)\n    tag_10:\n        /* \"--CODEGEN--\":68:139   */\n      swap3\n      swap2\n      pop\n      pop\n      jump\n        /* \"--CODEGEN--\":146:409   */\n    tag_3:\n      0x00\n        /* \"--CODEGEN--\":261:263   */\n      0x20\n        /* \"--CODEGEN--\":249:258   */\n      dup3\n        /* \"--CODEGEN--\":240:247   */\n      dup5\n        /* \"--CODEGEN--\":236:259   */\n      sub\n        /* \"--CODEGEN--\":232:264   */\n      slt\n        /* \"--CODEGEN--\":229:231   */\n      iszero\n      tag_13\n      jumpi\n        /* \"--CODEGEN--\":277:278   */\n      0x00\n        /* \"--CODEGEN--\":274:275   */\n      dup1\n        /* \"--CODEGEN--\":267:279   */\n      revert\n        /* \"--CODEGEN--\":229:231   */\n    tag_13:\n        /* \"--CODEGEN--\":312:313   */\n      0x00\n        /* \"--CODEGEN--\":329:393   */\n      tag_14\n        /* \"--CODEGEN--\":385:392   */\n      dup5\n        /* \"--CODEGEN--\":376:382   */\n      dup3\n        /* \"--CODEGEN--\":365:374   */\n      dup6\n        /* \"--CODEGEN--\":361:383   */\n      add\n        /* \"--CODEGEN--\":329:393   */\n      jump(tag_8)\n    tag_14:\n        /* \"--CODEGEN--\":319:393   */\n      swap2\n      pop\n        /* \"--CODEGEN--\":291:399   */\n      pop\n        /* \"--CODEGEN--\":223:409   */\n      swap3\n      swap2\n      pop\n      pop\n      jump\n        /* \"--CODEGEN--\":416:488   */\n    tag_15:\n      0x00\n        /* \"--CODEGEN--\":478:483   */\n      dup2\n        /* \"--CODEGEN--\":467:483   */\n      swap1\n      pop\n        /* \"--CODEGEN--\":461:488   */\n      swap2\n      swap1\n      pop\n      jump\n        /* \"--CODEGEN--\":495:612   */\n    tag_11:\n        /* \"--CODEGEN--\":564:588   */\n      tag_18\n        /* \"--CODEGEN--\":582:587   */\n      dup2\n        /* \"--CODEGEN--\":564:588   */\n      jump(tag_15)\n    tag_18:\n        /* \"--CODEGEN--\":557:562   */\n      dup2\n        /* \"--CODEGEN--\":554:589   */\n      eq\n        /* \"--CODEGEN--\":544:546   */\n      tag_19\n      jumpi\n        /* \"--CODEGEN--\":603:604   */\n      0x00\n        /* \"--CODEGEN--\":600:601   */\n      dup1\n        /* \"--CODEGEN--\":593:605   */\n      revert\n        /* \"--CODEGEN--\":544:546   */\n    tag_19:\n        /* \"--CODEGEN--\":538:612   */\n      pop\n      jump\n        /* \"DISNEY/ERC20.sol\":1955:4579  contract ERC20Basic is IERC20{... */\n    tag_6:\n      dataSize(sub_0)\n      dup1\n      dataOffset(sub_0)\n      0x00\n      codecopy\n      0x00\n      return\n    stop\n\n    sub_0: assembly {\n            /* \"DISNEY/ERC20.sol\":1955:4579  contract ERC20Basic is IERC20{... */\n          mstore(0x40, 0x80)\n          callvalue\n            /* \"--CODEGEN--\":5:14   */\n          dup1\n            /* \"--CODEGEN--\":2:4   */\n          iszero\n          tag_1\n          jumpi\n            /* \"--CODEGEN--\":27:28   */\n          0x00\n            /* \"--CODEGEN--\":24:25   */\n          dup1\n            /* \"--CODEGEN--\":17:29   */\n          revert\n            /* \"--CODEGEN--\":2:4   */\n        tag_1:\n            /* \"DISNEY/ERC20.sol\":1955:4579  contract ERC20Basic is IERC20{... */\n          pop\n          jumpi(tag_2, lt(calldatasize, 0x04))\n          shr(0xe0, calldataload(0x00))\n          dup1\n          0x313ce567\n          gt\n          tag_14\n          jumpi\n          dup1\n          0x313ce567\n          eq\n          tag_8\n          jumpi\n          dup1\n          0x70a08231\n          eq\n          tag_9\n          jumpi\n          dup1\n          0x95d89b41\n          eq\n          tag_10\n          jumpi\n          dup1\n          0xa9059cbb\n          eq\n          tag_11\n          jumpi\n          dup1\n          0xdd62ed3e\n          eq\n          tag_12\n          jumpi\n          dup1\n          0xf490a351\n          eq\n          tag_13\n          jumpi\n          jump(tag_2)\n        tag_14:\n          dup1\n          0x06fdde03\n          eq\n          tag_3\n          jumpi\n          dup1\n          0x095ea7b3\n          eq\n          tag_4\n          jumpi\n          dup1\n          0x18160ddd\n          eq\n          tag_5\n          jumpi\n          dup1\n          0x1d43cc98\n          eq\n          tag_6\n          jumpi\n          dup1\n          0x23b872dd\n          eq\n          tag_7\n          jumpi\n        tag_2:\n            /* \"--CODEGEN--\":12:13   */\n          0x00\n            /* \"--CODEGEN--\":9:10   */\n          dup1\n            /* \"--CODEGEN--\":2:14   */\n          revert\n            /* \"DISNEY/ERC20.sol\":1991:2040  string public constant name = \"ERC20BlockchainAZ\" */\n        tag_3:\n          tag_15\n          tag_16\n          jump\t// in\n        tag_15:\n          mload(0x40)\n          tag_17\n          swap2\n          swap1\n          jump(tag_18)\n        tag_17:\n          mload(0x40)\n          dup1\n          swap2\n          sub\n          swap1\n          return\n            /* \"DISNEY/ERC20.sol\":3873:4092  function approve(address delegate, uint256 numTokens) public override returns (bool){... */\n        tag_4:\n          tag_19\n          0x04\n          dup1\n          calldatasize\n          sub\n          dup2\n          add\n          swap1\n          tag_20\n          swap2\n          swap1\n          jump(tag_21)\n        tag_20:\n          tag_22\n          jump\t// in\n        tag_19:\n          mload(0x40)\n          tag_23\n          swap2\n          swap1\n          jump(tag_24)\n        tag_23:\n          mload(0x40)\n          dup1\n          swap2\n          sub\n          swap1\n          return\n            /* \"DISNEY/ERC20.sol\":2594:2691  function totalSupply() public override view returns (uint256){... */\n        tag_5:\n          tag_25\n          tag_26\n          jump\t// in\n        tag_25:\n          mload(0x40)\n          tag_27\n          swap2\n          swap1\n          jump(tag_28)\n        tag_27:\n          mload(0x40)\n          dup1\n          swap2\n          sub\n          swap1\n          return\n            /* \"DISNEY/ERC20.sol\":2697:2852  function increaseTotalSupply(uint newTokensAmount) public {... */\n        tag_6:\n          tag_29\n          0x04\n          dup1\n          calldatasize\n          sub\n          dup2\n          add\n          swap1\n          tag_30\n          swap2\n          swap1\n          jump(tag_31)\n        tag_30:\n          tag_32\n          jump\t// in\n        tag_29:\n          stop\n            /* \"DISNEY/ERC20.sol\":4098:4577  function transferFrom(address owner, address buyer, uint256 numTokens) public override returns (bool){... */\n        tag_7:\n          tag_33\n          0x04\n          dup1\n          calldatasize\n          sub\n          dup2\n          add\n          swap1\n          tag_34\n          swap2\n          swap1\n          jump(tag_35)\n        tag_34:\n          tag_36\n          jump\t// in\n        tag_33:\n          mload(0x40)\n          tag_37\n          swap2\n          swap1\n          jump(tag_24)\n        tag_37:\n          mload(0x40)\n          dup1\n          swap2\n          sub\n          swap1\n          return\n            /* \"DISNEY/ERC20.sol\":2089:2124  uint8 public constant decimals = 18 */\n        tag_8:\n          tag_38\n          tag_39\n          jump\t// in\n        tag_38:\n          mload(0x40)\n          tag_40\n          swap2\n          swap1\n          jump(tag_41)\n        tag_40:\n          mload(0x40)\n          dup1\n          swap2\n          sub\n          swap1\n          return\n            /* \"DISNEY/ERC20.sol\":2858:2979  function balanceOf(address tokenOwner) public override view returns (uint256){... */\n        tag_9:\n          tag_42\n          0x04\n          dup1\n          calldatasize\n          sub\n          dup2\n          add\n          swap1\n          tag_43\n          swap2\n          swap1\n          jump(tag_44)\n        tag_43:\n          tag_45\n          jump\t// in\n        tag_42:\n          mload(0x40)\n          tag_46\n          swap2\n          swap1\n          jump(tag_28)\n        tag_46:\n          mload(0x40)\n          dup1\n          swap2\n          sub\n          swap1\n          return\n            /* \"DISNEY/ERC20.sol\":2046:2083  string public constant symbol = \"ERC\" */\n        tag_10:\n          tag_47\n          tag_48\n          jump\t// in\n        tag_47:\n          mload(0x40)\n          tag_49\n          swap2\n          swap1\n          jump(tag_18)\n        tag_49:\n          mload(0x40)\n          dup1\n          swap2\n          sub\n          swap1\n          return\n            /* \"DISNEY/ERC20.sol\":3129:3486  function transfer(address recipient, uint256 numTokens) public override returns (bool){... */\n        tag_11:\n          tag_50\n          0x04\n          dup1\n          calldatasize\n          sub\n          dup2\n          add\n          swap1\n          tag_51\n          swap2\n          swap1\n          jump(tag_21)\n        tag_51:\n          tag_52\n          jump\t// in\n        tag_50:\n          mload(0x40)\n          tag_53\n          swap2\n          swap1\n          jump(tag_24)\n        tag_53:\n          mload(0x40)\n          dup1\n          swap2\n          sub\n          swap1\n          return\n            /* \"DISNEY/ERC20.sol\":2985:3123  function allowance(address owner, address delegate) public override view returns (uint256){... */\n        tag_12:\n          tag_54\n          0x04\n          dup1\n          calldatasize\n          sub\n          dup2\n          add\n          swap1\n          tag_55\n          swap2\n          swap1\n          jump(tag_56)\n        tag_55:\n          tag_57\n          jump\t// in\n        tag_54:\n          mload(0x40)\n          tag_58\n          swap2\n          swap1\n          jump(tag_28)\n        tag_58:\n          mload(0x40)\n          dup1\n          swap2\n          sub\n          swap1\n          return\n            /* \"DISNEY/ERC20.sol\":3492:3867  function transferencia_disney(address _cliente, address receiver, uint256 numTokens) public override returns (bool){... */\n        tag_13:\n          tag_59\n          0x04\n          dup1\n          calldatasize\n          sub\n          dup2\n          add\n          swap1\n          tag_60\n          swap2\n          swap1\n          jump(tag_35)\n        tag_60:\n          tag_61\n          jump\t// in\n        tag_59:\n          mload(0x40)\n          tag_62\n          swap2\n          swap1\n          jump(tag_24)\n        tag_62:\n          mload(0x40)\n          dup1\n          swap2\n          sub\n          swap1\n          return\n            /* \"DISNEY/ERC20.sol\":1991:2040  string public constant name = \"ERC20BlockchainAZ\" */\n        tag_16:\n          mload(0x40)\n          dup1\n          0x40\n          add\n          0x40\n          mstore\n          dup1\n          0x11\n          dup2\n          mstore\n          0x20\n          add\n          0x4552433230426c6f636b636861696e415a000000000000000000000000000000\n          dup2\n          mstore\n          pop\n          dup2\n          jump\t// out\n            /* \"DISNEY/ERC20.sol\":3873:4092  function approve(address delegate, uint256 numTokens) public override returns (bool){... */\n        tag_22:\n            /* \"DISNEY/ERC20.sol\":3952:3956  bool */\n          0x00\n            /* \"DISNEY/ERC20.sol\":3999:4008  numTokens */\n          dup2\n            /* \"DISNEY/ERC20.sol\":3967:3974  allowed */\n          0x01\n            /* \"DISNEY/ERC20.sol\":3967:3986  allowed[msg.sender] */\n          0x00\n            /* \"DISNEY/ERC20.sol\":3975:3985  msg.sender */\n          caller\n            /* \"DISNEY/ERC20.sol\":3967:3986  allowed[msg.sender] */\n          0xffffffffffffffffffffffffffffffffffffffff\n          and\n          0xffffffffffffffffffffffffffffffffffffffff\n          and\n          dup2\n          mstore\n          0x20\n          add\n          swap1\n          dup2\n          mstore\n          0x20\n          add\n          0x00\n          keccak256\n            /* \"DISNEY/ERC20.sol\":3967:3996  allowed[msg.sender][delegate] */\n          0x00\n            /* \"DISNEY/ERC20.sol\":3987:3995  delegate */\n          dup6\n            /* \"DISNEY/ERC20.sol\":3967:3996  allowed[msg.sender][delegate] */\n          0xffffffffffffffffffffffffffffffffffffffff\n          and\n          0xffffffffffffffffffffffffffffffffffffffff\n          and\n          dup2\n          mstore\n          0x20\n          add\n          swap1\n          dup2\n          mstore\n          0x20\n          add\n          0x00\n          keccak256\n            /* \"DISNEY/ERC20.sol\":3967:4008  allowed[msg.sender][delegate] = numTokens */\n          dup2\n          swap1\n          sstore\n          pop\n            /* \"DISNEY/ERC20.sol\":4044:4052  delegate */\n          dup3\n            /* \"DISNEY/ERC20.sol\":4023:4064  Approval(msg.sender, delegate, numTokens) */\n          0xffffffffffffffffffffffffffffffffffffffff\n          and\n            /* \"DISNEY/ERC20.sol\":4032:4042  msg.sender */\n          caller\n            /* \"DISNEY/ERC20.sol\":4023:4064  Approval(msg.sender, delegate, numTokens) */\n          0xffffffffffffffffffffffffffffffffffffffff\n          and\n          0x8c5be1e5ebec7d5bd14f71427d1e84f3dd0314c0f7b2291e5b200ac8c7c3b925\n            /* \"DISNEY/ERC20.sol\":4054:4063  numTokens */\n          dup5\n            /* \"DISNEY/ERC20.sol\":4023:4064  Approval(msg.sender, delegate, numTokens) */\n          mload(0x40)\n          tag_64\n          swap2\n          swap1\n          jump(tag_28)\n        tag_64:\n          mload(0x40)\n          dup1\n          swap2\n          sub\n          swap1\n          log3\n            /* \"DISNEY/ERC20.sol\":4081:4085  true */\n          0x01\n            /* \"DISNEY/ERC20.sol\":4074:4085  return true */\n          swap1\n          pop\n            /* \"DISNEY/ERC20.sol\":3873:4092  function approve(address delegate, uint256 numTokens) public override returns (bool){... */\n          swap3\n          swap2\n          pop\n          pop\n          jump\t// out\n            /* \"DISNEY/ERC20.sol\":2594:2691  function totalSupply() public override view returns (uint256){... */\n        tag_26:\n            /* \"DISNEY/ERC20.sol\":2647:2654  uint256 */\n          0x00\n            /* \"DISNEY/ERC20.sol\":2672:2684  totalSupply_ */\n          sload(0x02)\n            /* \"DISNEY/ERC20.sol\":2665:2684  return totalSupply_ */\n          swap1\n          pop\n            /* \"DISNEY/ERC20.sol\":2594:2691  function totalSupply() public override view returns (uint256){... */\n          swap1\n          jump\t// out\n            /* \"DISNEY/ERC20.sol\":2697:2852  function increaseTotalSupply(uint newTokensAmount) public {... */\n        tag_32:\n            /* \"DISNEY/ERC20.sol\":2781:2796  newTokensAmount */\n          dup1\n            /* \"DISNEY/ERC20.sol\":2765:2777  totalSupply_ */\n          0x02\n          0x00\n            /* \"DISNEY/ERC20.sol\":2765:2796  totalSupply_ += newTokensAmount */\n          dup3\n          dup3\n          sload\n          add\n          swap3\n          pop\n          pop\n          dup2\n          swap1\n          sstore\n          pop\n            /* \"DISNEY/ERC20.sol\":2830:2845  newTokensAmount */\n          dup1\n            /* \"DISNEY/ERC20.sol\":2806:2814  balances */\n          0x00\n            /* \"DISNEY/ERC20.sol\":2806:2826  balances[msg.sender] */\n          dup1\n            /* \"DISNEY/ERC20.sol\":2815:2825  msg.sender */\n          caller\n            /* \"DISNEY/ERC20.sol\":2806:2826  balances[msg.sender] */\n          0xffffffffffffffffffffffffffffffffffffffff\n          and\n          0xffffffffffffffffffffffffffffffffffffffff\n          and\n          dup2\n          mstore\n          0x20\n          add\n          swap1\n          dup2\n          mstore\n          0x20\n          add\n          0x00\n          keccak256\n          0x00\n            /* \"DISNEY/ERC20.sol\":2806:2845  balances[msg.sender] += newTokensAmount */\n          dup3\n          dup3\n          sload\n          add\n          swap3\n          pop\n          pop\n          dup2\n          swap1\n          sstore\n          pop\n            /* \"DISNEY/ERC20.sol\":2697:2852  function increaseTotalSupply(uint newTokensAmount) public {... */\n          pop\n          jump\t// out\n            /* \"DISNEY/ERC20.sol\":4098:4577  function transferFrom(address owner, address buyer, uint256 numTokens) public override returns (bool){... */\n        tag_36:\n            /* \"DISNEY/ERC20.sol\":4194:4198  bool */\n          0x00\n            /* \"DISNEY/ERC20.sol\":4230:4238  balances */\n          dup1\n            /* \"DISNEY/ERC20.sol\":4230:4245  balances[owner] */\n          0x00\n            /* \"DISNEY/ERC20.sol\":4239:4244  owner */\n          dup6\n            /* \"DISNEY/ERC20.sol\":4230:4245  balances[owner] */\n          0xffffffffffffffffffffffffffffffffffffffff\n          and\n          0xffffffffffffffffffffffffffffffffffffffff\n          and\n          dup2\n          mstore\n          0x20\n          add\n          swap1\n          dup2\n          mstore\n          0x20\n          add\n          0x00\n          keccak256\n          sload\n            /* \"DISNEY/ERC20.sol\":4217:4226  numTokens */\n          dup3\n            /* \"DISNEY/ERC20.sol\":4217:4245  numTokens <= balances[owner] */\n          gt\n          iszero\n            /* \"DISNEY/ERC20.sol\":4209:4246  require(numTokens <= balances[owner]) */\n          tag_68\n          jumpi\n            /* \"--CODEGEN--\":12:13   */\n          0x00\n            /* \"--CODEGEN--\":9:10   */\n          dup1\n            /* \"--CODEGEN--\":2:14   */\n          revert\n            /* \"DISNEY/ERC20.sol\":4209:4246  require(numTokens <= balances[owner]) */\n        tag_68:\n            /* \"DISNEY/ERC20.sol\":4277:4284  allowed */\n          0x01\n            /* \"DISNEY/ERC20.sol\":4277:4291  allowed[owner] */\n          0x00\n            /* \"DISNEY/ERC20.sol\":4285:4290  owner */\n          dup6\n            /* \"DISNEY/ERC20.sol\":4277:4291  allowed[owner] */\n          0xffffffffffffffffffffffffffffffffffffffff\n          and\n          0xffffffffffffffffffffffffffffffffffffffff\n          and\n          dup2\n          mstore\n          0x20\n          add\n          swap1\n          dup2\n          mstore\n          0x20\n          add\n          0x00\n          keccak256\n            /* \"DISNEY/ERC20.sol\":4277:4303  allowed[owner][msg.sender] */\n          0x00\n            /* \"DISNEY/ERC20.sol\":4292:4302  msg.sender */\n          caller\n            /* \"DISNEY/ERC20.sol\":4277:4303  allowed[owner][msg.sender] */\n          0xffffffffffffffffffffffffffffffffffffffff\n          and\n          0xffffffffffffffffffffffffffffffffffffffff\n          and\n          dup2\n          mstore\n          0x20\n          add\n          swap1\n          dup2\n          mstore\n          0x20\n          add\n          0x00\n          keccak256\n          sload\n            /* \"DISNEY/ERC20.sol\":4264:4273  numTokens */\n          dup3\n            /* \"DISNEY/ERC20.sol\":4264:4303  numTokens <= allowed[owner][msg.sender] */\n          gt\n          iszero\n            /* \"DISNEY/ERC20.sol\":4256:4304  require(numTokens <= allowed[owner][msg.sender]) */\n          tag_69\n          jumpi\n            /* \"--CODEGEN--\":12:13   */\n          0x00\n            /* \"--CODEGEN--\":9:10   */\n          dup1\n            /* \"--CODEGEN--\":2:14   */\n          revert\n            /* \"DISNEY/ERC20.sol\":4256:4304  require(numTokens <= allowed[owner][msg.sender]) */\n        tag_69:\n            /* \"DISNEY/ERC20.sol\":4333:4363  balances[owner].sub(numTokens) */\n          tag_70\n            /* \"DISNEY/ERC20.sol\":4353:4362  numTokens */\n          dup3\n            /* \"DISNEY/ERC20.sol\":4333:4341  balances */\n          0x00\n            /* \"DISNEY/ERC20.sol\":4333:4348  balances[owner] */\n          dup1\n            /* \"DISNEY/ERC20.sol\":4342:4347  owner */\n          dup8\n            /* \"DISNEY/ERC20.sol\":4333:4348  balances[owner] */\n          0xffffffffffffffffffffffffffffffffffffffff\n          and\n          0xffffffffffffffffffffffffffffffffffffffff\n          and\n          dup2\n          mstore\n          0x20\n          add\n          swap1\n          dup2\n          mstore\n          0x20\n          add\n          0x00\n          keccak256\n          sload\n            /* \"DISNEY/ERC20.sol\":4333:4352  balances[owner].sub */\n          tag_71\n          swap1\n            /* \"DISNEY/ERC20.sol\":4333:4363  balances[owner].sub(numTokens) */\n          swap2\n          swap1\n          0xffffffff\n          and\n          jump\t// in\n        tag_70:\n            /* \"DISNEY/ERC20.sol\":4315:4323  balances */\n          0x00\n            /* \"DISNEY/ERC20.sol\":4315:4330  balances[owner] */\n          dup1\n            /* \"DISNEY/ERC20.sol\":4324:4329  owner */\n          dup7\n            /* \"DISNEY/ERC20.sol\":4315:4330  balances[owner] */\n          0xffffffffffffffffffffffffffffffffffffffff\n          and\n          0xffffffffffffffffffffffffffffffffffffffff\n          and\n          dup2\n          mstore\n          0x20\n          add\n          swap1\n          dup2\n          mstore\n          0x20\n          add\n          0x00\n          keccak256\n            /* \"DISNEY/ERC20.sol\":4315:4363  balances[owner] = balances[owner].sub(numTokens) */\n          dup2\n          swap1\n          sstore\n          pop\n            /* \"DISNEY/ERC20.sol\":4402:4443  allowed[owner][msg.sender].sub(numTokens) */\n          tag_72\n            /* \"DISNEY/ERC20.sol\":4433:4442  numTokens */\n          dup3\n            /* \"DISNEY/ERC20.sol\":4402:4409  allowed */\n          0x01\n            /* \"DISNEY/ERC20.sol\":4402:4416  allowed[owner] */\n          0x00\n            /* \"DISNEY/ERC20.sol\":4410:4415  owner */\n          dup8\n            /* \"DISNEY/ERC20.sol\":4402:4416  allowed[owner] */\n          0xffffffffffffffffffffffffffffffffffffffff\n          and\n          0xffffffffffffffffffffffffffffffffffffffff\n          and\n          dup2\n          mstore\n          0x20\n          add\n          swap1\n          dup2\n          mstore\n          0x20\n          add\n          0x00\n          keccak256\n            /* \"DISNEY/ERC20.sol\":4402:4428  allowed[owner][msg.sender] */\n          0x00\n            /* \"DISNEY/ERC20.sol\":4417:4427  msg.sender */\n          caller\n            /* \"DISNEY/ERC20.sol\":4402:4428  allowed[owner][msg.sender] */\n          0xffffffffffffffffffffffffffffffffffffffff\n          and\n          0xffffffffffffffffffffffffffffffffffffffff\n          and\n          dup2\n          mstore\n          0x20\n          add\n          swap1\n          dup2\n          mstore\n          0x20\n          add\n          0x00\n          keccak256\n          sload\n            /* \"DISNEY/ERC20.sol\":4402:4432  allowed[owner][msg.sender].sub */\n          tag_71\n          swap1\n            /* \"DISNEY/ERC20.sol\":4402:4443  allowed[owner][msg.sender].sub(numTokens) */\n          swap2\n          swap1\n          0xffffffff\n          and\n          jump\t// in\n        tag_72:\n            /* \"DISNEY/ERC20.sol\":4373:4380  allowed */\n          0x01\n            /* \"DISNEY/ERC20.sol\":4373:4387  allowed[owner] */\n          0x00\n            /* \"DISNEY/ERC20.sol\":4381:4386  owner */\n          dup7\n            /* \"DISNEY/ERC20.sol\":4373:4387  allowed[owner] */\n          0xffffffffffffffffffffffffffffffffffffffff\n          and\n          0xffffffffffffffffffffffffffffffffffffffff\n          and\n          dup2\n          mstore\n          0x20\n          add\n          swap1\n          dup2\n          mstore\n          0x20\n          add\n          0x00\n          keccak256\n            /* \"DISNEY/ERC20.sol\":4373:4399  allowed[owner][msg.sender] */\n          0x00\n            /* \"DISNEY/ERC20.sol\":4388:4398  msg.sender */\n          caller\n            /* \"DISNEY/ERC20.sol\":4373:4399  allowed[owner][msg.sender] */\n          0xffffffffffffffffffffffffffffffffffffffff\n          and\n          0xffffffffffffffffffffffffffffffffffffffff\n          and\n          dup2\n          mstore\n          0x20\n          add\n          swap1\n          dup2\n          mstore\n          0x20\n          add\n          0x00\n          keccak256\n            /* \"DISNEY/ERC20.sol\":4373:4443  allowed[owner][msg.sender] = allowed[owner][msg.sender].sub(numTokens) */\n          dup2\n          swap1\n          sstore\n          pop\n            /* \"DISNEY/ERC20.sol\":4471:4501  balances[buyer].add(numTokens) */\n          tag_73\n            /* \"DISNEY/ERC20.sol\":4491:4500  numTokens */\n          dup3\n            /* \"DISNEY/ERC20.sol\":4471:4479  balances */\n          0x00\n            /* \"DISNEY/ERC20.sol\":4471:4486  balances[buyer] */\n          dup1\n            /* \"DISNEY/ERC20.sol\":4480:4485  buyer */\n          dup7\n            /* \"DISNEY/ERC20.sol\":4471:4486  balances[buyer] */\n          0xffffffffffffffffffffffffffffffffffffffff\n          and\n          0xffffffffffffffffffffffffffffffffffffffff\n          and\n          dup2\n          mstore\n          0x20\n          add\n          swap1\n          dup2\n          mstore\n          0x20\n          add\n          0x00\n          keccak256\n          sload\n            /* \"DISNEY/ERC20.sol\":4471:4490  balances[buyer].add */\n          tag_74\n          swap1\n            /* \"DISNEY/ERC20.sol\":4471:4501  balances[buyer].add(numTokens) */\n          swap2\n          swap1\n          0xffffffff\n          and\n          jump\t// in\n        tag_73:\n            /* \"DISNEY/ERC20.sol\":4453:4461  balances */\n          0x00\n            /* \"DISNEY/ERC20.sol\":4453:4468  balances[buyer] */\n          dup1\n            /* \"DISNEY/ERC20.sol\":4462:4467  buyer */\n          dup6\n            /* \"DISNEY/ERC20.sol\":4453:4468  balances[buyer] */\n          0xffffffffffffffffffffffffffffffffffffffff\n          and\n          0xffffffffffffffffffffffffffffffffffffffff\n          and\n          dup2\n          mstore\n          0x20\n          add\n          swap1\n          dup2\n          mstore\n          0x20\n          add\n          0x00\n          keccak256\n            /* \"DISNEY/ERC20.sol\":4453:4501  balances[buyer] = balances[buyer].add(numTokens) */\n          dup2\n          swap1\n          sstore\n          pop\n            /* \"DISNEY/ERC20.sol\":4532:4537  buyer */\n          dup3\n            /* \"DISNEY/ERC20.sol\":4516:4549  Transfer(owner, buyer, numTokens) */\n          0xffffffffffffffffffffffffffffffffffffffff\n          and\n            /* \"DISNEY/ERC20.sol\":4525:4530  owner */\n          dup5\n            /* \"DISNEY/ERC20.sol\":4516:4549  Transfer(owner, buyer, numTokens) */\n          0xffffffffffffffffffffffffffffffffffffffff\n          and\n          0xddf252ad1be2c89b69c2b068fc378daa952ba7f163c4a11628f55a4df523b3ef\n            /* \"DISNEY/ERC20.sol\":4539:4548  numTokens */\n          dup5\n            /* \"DISNEY/ERC20.sol\":4516:4549  Transfer(owner, buyer, numTokens) */\n          mload(0x40)\n          tag_75\n          swap2\n          swap1\n          jump(tag_28)\n        tag_75:\n          mload(0x40)\n          dup1\n          swap2\n          sub\n          swap1\n          log3\n            /* \"DISNEY/ERC20.sol\":4566:4570  true */\n          0x01\n            /* \"DISNEY/ERC20.sol\":4559:4570  return true */\n          swap1\n          pop\n            /* \"DISNEY/ERC20.sol\":4098:4577  function transferFrom(address owner, address buyer, uint256 numTokens) public override returns (bool){... */\n          swap4\n          swap3\n          pop\n          pop\n          pop\n          jump\t// out\n            /* \"DISNEY/ERC20.sol\":2089:2124  uint8 public constant decimals = 18 */\n        tag_39:\n            /* \"DISNEY/ERC20.sol\":2122:2124  18 */\n          0x12\n            /* \"DISNEY/ERC20.sol\":2089:2124  uint8 public constant decimals = 18 */\n          dup2\n          jump\t// out\n            /* \"DISNEY/ERC20.sol\":2858:2979  function balanceOf(address tokenOwner) public override view returns (uint256){... */\n        tag_45:\n            /* \"DISNEY/ERC20.sol\":2927:2934  uint256 */\n          0x00\n            /* \"DISNEY/ERC20.sol\":2952:2960  balances */\n          dup1\n            /* \"DISNEY/ERC20.sol\":2952:2972  balances[tokenOwner] */\n          0x00\n            /* \"DISNEY/ERC20.sol\":2961:2971  tokenOwner */\n          dup4\n            /* \"DISNEY/ERC20.sol\":2952:2972  balances[tokenOwner] */\n          0xffffffffffffffffffffffffffffffffffffffff\n          and\n          0xffffffffffffffffffffffffffffffffffffffff\n          and\n          dup2\n          mstore\n          0x20\n          add\n          swap1\n          dup2\n          mstore\n          0x20\n          add\n          0x00\n          keccak256\n          sload\n            /* \"DISNEY/ERC20.sol\":2945:2972  return balances[tokenOwner] */\n          swap1\n          pop\n            /* \"DISNEY/ERC20.sol\":2858:2979  function balanceOf(address tokenOwner) public override view returns (uint256){... */\n          swap2\n          swap1\n          pop\n          jump\t// out\n            /* \"DISNEY/ERC20.sol\":2046:2083  string public constant symbol = \"ERC\" */\n        tag_48:\n          mload(0x40)\n          dup1\n          0x40\n          add\n          0x40\n          mstore\n          dup1\n          0x03\n          dup2\n          mstore\n          0x20\n          add\n          0x4552430000000000000000000000000000000000000000000000000000000000\n          dup2\n          mstore\n          pop\n          dup2\n          jump\t// out\n            /* \"DISNEY/ERC20.sol\":3129:3486  function transfer(address recipient, uint256 numTokens) public override returns (bool){... */\n        tag_52:\n            /* \"DISNEY/ERC20.sol\":3210:3214  bool */\n          0x00\n            /* \"DISNEY/ERC20.sol\":3246:3254  balances */\n          dup1\n            /* \"DISNEY/ERC20.sol\":3246:3266  balances[msg.sender] */\n          0x00\n            /* \"DISNEY/ERC20.sol\":3255:3265  msg.sender */\n          caller\n            /* \"DISNEY/ERC20.sol\":3246:3266  balances[msg.sender] */\n          0xffffffffffffffffffffffffffffffffffffffff\n          and\n          0xffffffffffffffffffffffffffffffffffffffff\n          and\n          dup2\n          mstore\n          0x20\n          add\n          swap1\n          dup2\n          mstore\n          0x20\n          add\n          0x00\n          keccak256\n          sload\n            /* \"DISNEY/ERC20.sol\":3233:3242  numTokens */\n          dup3\n            /* \"DISNEY/ERC20.sol\":3233:3266  numTokens <= balances[msg.sender] */\n          gt\n          iszero\n            /* \"DISNEY/ERC20.sol\":3225:3267  require(numTokens <= balances[msg.sender]) */\n          tag_78\n          jumpi\n            /* \"--CODEGEN--\":12:13   */\n          0x00\n            /* \"--CODEGEN--\":9:10   */\n          dup1\n            /* \"--CODEGEN--\":2:14   */\n          revert\n            /* \"DISNEY/ERC20.sol\":3225:3267  require(numTokens <= balances[msg.sender]) */\n        tag_78:\n            /* \"DISNEY/ERC20.sol\":3300:3335  balances[msg.sender].sub(numTokens) */\n          tag_79\n            /* \"DISNEY/ERC20.sol\":3325:3334  numTokens */\n          dup3\n            /* \"DISNEY/ERC20.sol\":3300:3308  balances */\n          0x00\n            /* \"DISNEY/ERC20.sol\":3300:3320  balances[msg.sender] */\n          dup1\n            /* \"DISNEY/ERC20.sol\":3309:3319  msg.sender */\n          caller\n            /* \"DISNEY/ERC20.sol\":3300:3320  balances[msg.sender] */\n          0xffffffffffffffffffffffffffffffffffffffff\n          and\n          0xffffffffffffffffffffffffffffffffffffffff\n          and\n          dup2\n          mstore\n          0x20\n          add\n          swap1\n          dup2\n          mstore\n          0x20\n          add\n          0x00\n          keccak256\n          sload\n            /* \"DISNEY/ERC20.sol\":3300:3324  balances[msg.sender].sub */\n          tag_71\n          swap1\n            /* \"DISNEY/ERC20.sol\":3300:3335  balances[msg.sender].sub(numTokens) */\n          swap2\n          swap1\n          0xffffffff\n          and\n          jump\t// in\n        tag_79:\n            /* \"DISNEY/ERC20.sol\":3277:3285  balances */\n          0x00\n            /* \"DISNEY/ERC20.sol\":3277:3297  balances[msg.sender] */\n          dup1\n            /* \"DISNEY/ERC20.sol\":3286:3296  msg.sender */\n          caller\n            /* \"DISNEY/ERC20.sol\":3277:3297  balances[msg.sender] */\n          0xffffffffffffffffffffffffffffffffffffffff\n          and\n          0xffffffffffffffffffffffffffffffffffffffff\n          and\n          dup2\n          mstore\n          0x20\n          add\n          swap1\n          dup2\n          mstore\n          0x20\n          add\n          0x00\n          keccak256\n            /* \"DISNEY/ERC20.sol\":3277:3335  balances[msg.sender] = balances[msg.sender].sub(numTokens) */\n          dup2\n          swap1\n          sstore\n          pop\n            /* \"DISNEY/ERC20.sol\":3367:3401  balances[recipient].add(numTokens) */\n          tag_80\n            /* \"DISNEY/ERC20.sol\":3391:3400  numTokens */\n          dup3\n            /* \"DISNEY/ERC20.sol\":3367:3375  balances */\n          0x00\n            /* \"DISNEY/ERC20.sol\":3367:3386  balances[recipient] */\n          dup1\n            /* \"DISNEY/ERC20.sol\":3376:3385  recipient */\n          dup7\n            /* \"DISNEY/ERC20.sol\":3367:3386  balances[recipient] */\n          0xffffffffffffffffffffffffffffffffffffffff\n          and\n          0xffffffffffffffffffffffffffffffffffffffff\n          and\n          dup2\n          mstore\n          0x20\n          add\n          swap1\n          dup2\n          mstore\n          0x20\n          add\n          0x00\n          keccak256\n          sload\n            /* \"DISNEY/ERC20.sol\":3367:3390  balances[recipient].add */\n          tag_74\n          swap1\n            /* \"DISNEY/ERC20.sol\":3367:3401  balances[recipient].add(numTokens) */\n          swap2\n          swap1\n          0xffffffff\n          and\n          jump\t// in\n        tag_80:\n            /* \"DISNEY/ERC20.sol\":3345:3353  balances */\n          0x00\n            /* \"DISNEY/ERC20.sol\":3345:3364  balances[recipient] */\n          dup1\n            /* \"DISNEY/ERC20.sol\":3354:3363  recipient */\n          dup6\n            /* \"DISNEY/ERC20.sol\":3345:3364  balances[recipient] */\n          0xffffffffffffffffffffffffffffffffffffffff\n          and\n          0xffffffffffffffffffffffffffffffffffffffff\n          and\n          dup2\n          mstore\n          0x20\n          add\n          swap1\n          dup2\n          mstore\n          0x20\n          add\n          0x00\n          keccak256\n            /* \"DISNEY/ERC20.sol\":3345:3401  balances[recipient] = balances[recipient].add(numTokens) */\n          dup2\n          swap1\n          sstore\n          pop\n            /* \"DISNEY/ERC20.sol\":3437:3446  recipient */\n          dup3\n            /* \"DISNEY/ERC20.sol\":3416:3458  Transfer(msg.sender, recipient, numTokens) */\n          0xffffffffffffffffffffffffffffffffffffffff\n          and\n            /* \"DISNEY/ERC20.sol\":3425:3435  msg.sender */\n          caller\n            /* \"DISNEY/ERC20.sol\":3416:3458  Transfer(msg.sender, recipient, numTokens) */\n          0xffffffffffffffffffffffffffffffffffffffff\n          and\n          0xddf252ad1be2c89b69c2b068fc378daa952ba7f163c4a11628f55a4df523b3ef\n            /* \"DISNEY/ERC20.sol\":3448:3457  numTokens */\n          dup5\n            /* \"DISNEY/ERC20.sol\":3416:3458  Transfer(msg.sender, recipient, numTokens) */\n          mload(0x40)\n          tag_81\n          swap2\n          swap1\n          jump(tag_28)\n        tag_81:\n          mload(0x40)\n          dup1\n          swap2\n          sub\n          swap1\n          log3\n            /* \"DISNEY/ERC20.sol\":3475:3479  true */\n          0x01\n            /* \"DISNEY/ERC20.sol\":3468:3479  return true */\n          swap1\n          pop\n            /* \"DISNEY/ERC20.sol\":3129:3486  function transfer(address recipient, uint256 numTokens) public override returns (bool){... */\n          swap3\n          swap2\n          pop\n          pop\n          jump\t// out\n            /* \"DISNEY/ERC20.sol\":2985:3123  function allowance(address owner, address delegate) public override view returns (uint256){... */\n        tag_57:\n            /* \"DISNEY/ERC20.sol\":3067:3074  uint256 */\n          0x00\n            /* \"DISNEY/ERC20.sol\":3092:3099  allowed */\n          0x01\n            /* \"DISNEY/ERC20.sol\":3092:3106  allowed[owner] */\n          0x00\n            /* \"DISNEY/ERC20.sol\":3100:3105  owner */\n          dup5\n            /* \"DISNEY/ERC20.sol\":3092:3106  allowed[owner] */\n          0xffffffffffffffffffffffffffffffffffffffff\n          and\n          0xffffffffffffffffffffffffffffffffffffffff\n          and\n          dup2\n          mstore\n          0x20\n          add\n          swap1\n          dup2\n          mstore\n          0x20\n          add\n          0x00\n          keccak256\n            /* \"DISNEY/ERC20.sol\":3092:3116  allowed[owner][delegate] */\n          0x00\n            /* \"DISNEY/ERC20.sol\":3107:3115  delegate */\n          dup4\n            /* \"DISNEY/ERC20.sol\":3092:3116  allowed[owner][delegate] */\n          0xffffffffffffffffffffffffffffffffffffffff\n          and\n          0xffffffffffffffffffffffffffffffffffffffff\n          and\n          dup2\n          mstore\n          0x20\n          add\n          swap1\n          dup2\n          mstore\n          0x20\n          add\n          0x00\n          keccak256\n          sload\n            /* \"DISNEY/ERC20.sol\":3085:3116  return allowed[owner][delegate] */\n          swap1\n          pop\n            /* \"DISNEY/ERC20.sol\":2985:3123  function allowance(address owner, address delegate) public override view returns (uint256){... */\n          swap3\n          swap2\n          pop\n          pop\n          jump\t// out\n            /* \"DISNEY/ERC20.sol\":3492:3867  function transferencia_disney(address _cliente, address receiver, uint256 numTokens) public override returns (bool){... */\n        tag_61:\n            /* \"DISNEY/ERC20.sol\":3602:3606  bool */\n          0x00\n            /* \"DISNEY/ERC20.sol\":3638:3646  balances */\n          dup1\n            /* \"DISNEY/ERC20.sol\":3638:3656  balances[_cliente] */\n          0x00\n            /* \"DISNEY/ERC20.sol\":3647:3655  _cliente */\n          dup6\n            /* \"DISNEY/ERC20.sol\":3638:3656  balances[_cliente] */\n          0xffffffffffffffffffffffffffffffffffffffff\n          and\n          0xffffffffffffffffffffffffffffffffffffffff\n          and\n          dup2\n          mstore\n          0x20\n          add\n          swap1\n          dup2\n          mstore\n          0x20\n          add\n          0x00\n          keccak256\n          sload\n            /* \"DISNEY/ERC20.sol\":3625:3634  numTokens */\n          dup3\n            /* \"DISNEY/ERC20.sol\":3625:3656  numTokens <= balances[_cliente] */\n          gt\n          iszero\n            /* \"DISNEY/ERC20.sol\":3617:3657  require(numTokens <= balances[_cliente]) */\n          tag_84\n          jumpi\n            /* \"--CODEGEN--\":12:13   */\n          0x00\n            /* \"--CODEGEN--\":9:10   */\n          dup1\n            /* \"--CODEGEN--\":2:14   */\n          revert\n            /* \"DISNEY/ERC20.sol\":3617:3657  require(numTokens <= balances[_cliente]) */\n        tag_84:\n            /* \"DISNEY/ERC20.sol\":3688:3721  balances[_cliente].sub(numTokens) */\n          tag_85\n            /* \"DISNEY/ERC20.sol\":3711:3720  numTokens */\n          dup3\n            /* \"DISNEY/ERC20.sol\":3688:3696  balances */\n          0x00\n            /* \"DISNEY/ERC20.sol\":3688:3706  balances[_cliente] */\n          dup1\n            /* \"DISNEY/ERC20.sol\":3697:3705  _cliente */\n          dup8\n            /* \"DISNEY/ERC20.sol\":3688:3706  balances[_cliente] */\n          0xffffffffffffffffffffffffffffffffffffffff\n          and\n          0xffffffffffffffffffffffffffffffffffffffff\n          and\n          dup2\n          mstore\n          0x20\n          add\n          swap1\n          dup2\n          mstore\n          0x20\n          add\n          0x00\n          keccak256\n          sload\n            /* \"DISNEY/ERC20.sol\":3688:3710  balances[_cliente].sub */\n          tag_71\n          swap1\n            /* \"DISNEY/ERC20.sol\":3688:3721  balances[_cliente].sub(numTokens) */\n          swap2\n          swap1\n          0xffffffff\n          and\n          jump\t// in\n        tag_85:\n            /* \"DISNEY/ERC20.sol\":3667:3675  balances */\n          0x00\n            /* \"DISNEY/ERC20.sol\":3667:3685  balances[_cliente] */\n          dup1\n            /* \"DISNEY/ERC20.sol\":3676:3684  _cliente */\n          dup7\n            /* \"DISNEY/ERC20.sol\":3667:3685  balances[_cliente] */\n          0xffffffffffffffffffffffffffffffffffffffff\n          and\n          0xffffffffffffffffffffffffffffffffffffffff\n          and\n          dup2\n          mstore\n          0x20\n          add\n          swap1\n          dup2\n          mstore\n          0x20\n          add\n          0x00\n          keccak256\n            /* \"DISNEY/ERC20.sol\":3667:3721  balances[_cliente] = balances[_cliente].sub(numTokens) */\n          dup2\n          swap1\n          sstore\n          pop\n            /* \"DISNEY/ERC20.sol\":3752:3785  balances[receiver].add(numTokens) */\n          tag_86\n            /* \"DISNEY/ERC20.sol\":3775:3784  numTokens */\n          dup3\n            /* \"DISNEY/ERC20.sol\":3752:3760  balances */\n          0x00\n            /* \"DISNEY/ERC20.sol\":3752:3770  balances[receiver] */\n          dup1\n            /* \"DISNEY/ERC20.sol\":3761:3769  receiver */\n          dup7\n            /* \"DISNEY/ERC20.sol\":3752:3770  balances[receiver] */\n          0xffffffffffffffffffffffffffffffffffffffff\n          and\n          0xffffffffffffffffffffffffffffffffffffffff\n          and\n          dup2\n          mstore\n          0x20\n          add\n          swap1\n          dup2\n          mstore\n          0x20\n          add\n          0x00\n          keccak256\n          sload\n            /* \"DISNEY/ERC20.sol\":3752:3774  balances[receiver].add */\n          tag_74\n          swap1\n            /* \"DISNEY/ERC20.sol\":3752:3785  balances[receiver].add(numTokens) */\n          swap2\n          swap1\n          0xffffffff\n          and\n          jump\t// in\n        tag_86:\n            /* \"DISNEY/ERC20.sol\":3731:3739  balances */\n          0x00\n            /* \"DISNEY/ERC20.sol\":3731:3749  balances[receiver] */\n          dup1\n            /* \"DISNEY/ERC20.sol\":3740:3748  receiver */\n          dup6\n            /* \"DISNEY/ERC20.sol\":3731:3749  balances[receiver] */\n          0xffffffffffffffffffffffffffffffffffffffff\n          and\n          0xffffffffffffffffffffffffffffffffffffffff\n          and\n          dup2\n          mstore\n          0x20\n          add\n          swap1\n          dup2\n          mstore\n          0x20\n          add\n          0x00\n          keccak256\n            /* \"DISNEY/ERC20.sol\":3731:3785  balances[receiver] = balances[receiver].add(numTokens) */\n          dup2\n          swap1\n          sstore\n          pop\n            /* \"DISNEY/ERC20.sol\":3819:3827  receiver */\n          dup3\n            /* \"DISNEY/ERC20.sol\":3800:3839  Transfer(_cliente, receiver, numTokens) */\n          0xffffffffffffffffffffffffffffffffffffffff\n          and\n            /* \"DISNEY/ERC20.sol\":3809:3817  _cliente */\n          dup5\n            /* \"DISNEY/ERC20.sol\":3800:3839  Transfer(_cliente, receiver, numTokens) */\n          0xffffffffffffffffffffffffffffffffffffffff\n          and\n          0xddf252ad1be2c89b69c2b068fc378daa952ba7f163c4a11628f55a4df523b3ef\n            /* \"DISNEY/ERC20.sol\":3829:3838  numTokens */\n          dup5\n            /* \"DISNEY/ERC20.sol\":3800:3839  Transfer(_cliente, receiver, numTokens) */\n          mload(0x40)\n          tag_87\n          swap2\n          swap1\n          jump(tag_28)\n        tag_87:\n          mload(0x40)\n          dup1\n          swap2\n          sub\n          swap1\n          log3\n            /* \"DISNEY/ERC20.sol\":3856:3860  true */\n          0x01\n            /* \"DISNEY/ERC20.sol\":3849:3860  return true */\n          swap1\n          pop\n            /* \"DISNEY/ERC20.sol\":3492:3867  function transferencia_disney(address _cliente, address receiver, uint256 numTokens) public override returns (bool){... */\n          swap4\n          swap3\n          pop\n          pop\n          pop\n          jump\t// out\n            /* \"DISNEY/SafeMath.sol\":308:424  function sub(uint256 a, uint256 b) internal pure returns (uint256) {... */\n        tag_71:\n            /* \"DISNEY/SafeMath.sol\":366:373  uint256 */\n          0x00\n            /* \"DISNEY/SafeMath.sol\":395:396  a */\n          dup3\n            /* \"DISNEY/SafeMath.sol\":390:391  b */\n          dup3\n            /* \"DISNEY/SafeMath.sol\":390:396  b <= a */\n          gt\n          iszero\n            /* \"DISNEY/SafeMath.sol\":383:397  assert(b <= a) */\n          tag_89\n          jumpi\n          invalid\n        tag_89:\n            /* \"DISNEY/SafeMath.sol\":416:417  b */\n          dup2\n            /* \"DISNEY/SafeMath.sol\":412:413  a */\n          dup4\n            /* \"DISNEY/SafeMath.sol\":412:417  a - b */\n          sub\n            /* \"DISNEY/SafeMath.sol\":405:417  return a - b */\n          swap1\n          pop\n            /* \"DISNEY/SafeMath.sol\":308:424  function sub(uint256 a, uint256 b) internal pure returns (uint256) {... */\n          swap3\n          swap2\n          pop\n          pop\n          jump\t// out\n            /* \"DISNEY/SafeMath.sol\":447:584  function add(uint256 a, uint256 b) internal pure returns (uint256) {... */\n        tag_74:\n            /* \"DISNEY/SafeMath.sol\":505:512  uint256 */\n          0x00\n            /* \"DISNEY/SafeMath.sol\":522:531  uint256 c */\n          dup1\n            /* \"DISNEY/SafeMath.sol\":538:539  b */\n          dup3\n            /* \"DISNEY/SafeMath.sol\":534:535  a */\n          dup5\n            /* \"DISNEY/SafeMath.sol\":534:539  a + b */\n          add\n            /* \"DISNEY/SafeMath.sol\":522:539  uint256 c = a + b */\n          swap1\n          pop\n            /* \"DISNEY/SafeMath.sol\":559:560  a */\n          dup4\n            /* \"DISNEY/SafeMath.sol\":554:555  c */\n          dup2\n            /* \"DISNEY/SafeMath.sol\":554:560  c >= a */\n          lt\n          iszero\n            /* \"DISNEY/SafeMath.sol\":547:561  assert(c >= a) */\n          tag_91\n          jumpi\n          invalid\n        tag_91:\n            /* \"DISNEY/SafeMath.sol\":576:577  c */\n          dup1\n            /* \"DISNEY/SafeMath.sol\":569:577  return c */\n          swap2\n          pop\n          pop\n            /* \"DISNEY/SafeMath.sol\":447:584  function add(uint256 a, uint256 b) internal pure returns (uint256) {... */\n          swap3\n          swap2\n          pop\n          pop\n          jump\t// out\n            /* \"--CODEGEN--\":5:135   */\n        tag_93:\n          0x00\n            /* \"--CODEGEN--\":85:91   */\n          dup2\n            /* \"--CODEGEN--\":72:92   */\n          calldataload\n            /* \"--CODEGEN--\":63:92   */\n          swap1\n          pop\n            /* \"--CODEGEN--\":97:130   */\n          tag_95\n            /* \"--CODEGEN--\":124:129   */\n          dup2\n            /* \"--CODEGEN--\":97:130   */\n          jump(tag_96)\n        tag_95:\n            /* \"--CODEGEN--\":57:135   */\n          swap3\n          swap2\n          pop\n          pop\n          jump\n            /* \"--CODEGEN--\":142:272   */\n        tag_97:\n          0x00\n            /* \"--CODEGEN--\":222:228   */\n          dup2\n            /* \"--CODEGEN--\":209:229   */\n          calldataload\n            /* \"--CODEGEN--\":200:229   */\n          swap1\n          pop\n            /* \"--CODEGEN--\":234:267   */\n          tag_99\n            /* \"--CODEGEN--\":261:266   */\n          dup2\n            /* \"--CODEGEN--\":234:267   */\n          jump(tag_100)\n        tag_99:\n            /* \"--CODEGEN--\":194:272   */\n          swap3\n          swap2\n          pop\n          pop\n          jump\n            /* \"--CODEGEN--\":279:520   */\n        tag_44:\n          0x00\n            /* \"--CODEGEN--\":383:385   */\n          0x20\n            /* \"--CODEGEN--\":371:380   */\n          dup3\n            /* \"--CODEGEN--\":362:369   */\n          dup5\n            /* \"--CODEGEN--\":358:381   */\n          sub\n            /* \"--CODEGEN--\":354:386   */\n          slt\n            /* \"--CODEGEN--\":351:353   */\n          iszero\n          tag_102\n          jumpi\n            /* \"--CODEGEN--\":399:400   */\n          0x00\n            /* \"--CODEGEN--\":396:397   */\n          dup1\n            /* \"--CODEGEN--\":389:401   */\n          revert\n            /* \"--CODEGEN--\":351:353   */\n        tag_102:\n            /* \"--CODEGEN--\":434:435   */\n          0x00\n            /* \"--CODEGEN--\":451:504   */\n          tag_103\n            /* \"--CODEGEN--\":496:503   */\n          dup5\n            /* \"--CODEGEN--\":487:493   */\n          dup3\n            /* \"--CODEGEN--\":476:485   */\n          dup6\n            /* \"--CODEGEN--\":472:494   */\n          add\n            /* \"--CODEGEN--\":451:504   */\n          jump(tag_93)\n        tag_103:\n            /* \"--CODEGEN--\":441:504   */\n          swap2\n          pop\n            /* \"--CODEGEN--\":413:510   */\n          pop\n            /* \"--CODEGEN--\":345:520   */\n          swap3\n          swap2\n          pop\n          pop\n          jump\n            /* \"--CODEGEN--\":527:893   */\n        tag_56:\n          0x00\n          dup1\n            /* \"--CODEGEN--\":648:650   */\n          0x40\n            /* \"--CODEGEN--\":636:645   */\n          dup4\n            /* \"--CODEGEN--\":627:634   */\n          dup6\n            /* \"--CODEGEN--\":623:646   */\n          sub\n            /* \"--CODEGEN--\":619:651   */\n          slt\n            /* \"--CODEGEN--\":616:618   */\n          iszero\n          tag_105\n          jumpi\n            /* \"--CODEGEN--\":664:665   */\n          0x00\n            /* \"--CODEGEN--\":661:662   */\n          dup1\n            /* \"--CODEGEN--\":654:666   */\n          revert\n            /* \"--CODEGEN--\":616:618   */\n        tag_105:\n            /* \"--CODEGEN--\":699:700   */\n          0x00\n            /* \"--CODEGEN--\":716:769   */\n          tag_106\n            /* \"--CODEGEN--\":761:768   */\n          dup6\n            /* \"--CODEGEN--\":752:758   */\n          dup3\n            /* \"--CODEGEN--\":741:750   */\n          dup7\n            /* \"--CODEGEN--\":737:759   */\n          add\n            /* \"--CODEGEN--\":716:769   */\n          jump(tag_93)\n        tag_106:\n            /* \"--CODEGEN--\":706:769   */\n          swap3\n          pop\n            /* \"--CODEGEN--\":678:775   */\n          pop\n            /* \"--CODEGEN--\":806:808   */\n          0x20\n            /* \"--CODEGEN--\":824:877   */\n          tag_107\n            /* \"--CODEGEN--\":869:876   */\n          dup6\n            /* \"--CODEGEN--\":860:866   */\n          dup3\n            /* \"--CODEGEN--\":849:858   */\n          dup7\n            /* \"--CODEGEN--\":845:867   */\n          add\n            /* \"--CODEGEN--\":824:877   */\n          jump(tag_93)\n        tag_107:\n            /* \"--CODEGEN--\":814:877   */\n          swap2\n          pop\n            /* \"--CODEGEN--\":785:883   */\n          pop\n            /* \"--CODEGEN--\":610:893   */\n          swap3\n          pop\n          swap3\n          swap1\n          pop\n          jump\n            /* \"--CODEGEN--\":900:1391   */\n        tag_35:\n          0x00\n          dup1\n          0x00\n            /* \"--CODEGEN--\":1038:1040   */\n          0x60\n            /* \"--CODEGEN--\":1026:1035   */\n          dup5\n            /* \"--CODEGEN--\":1017:1024   */\n          dup7\n            /* \"--CODEGEN--\":1013:1036   */\n          sub\n            /* \"--CODEGEN--\":1009:1041   */\n          slt\n            /* \"--CODEGEN--\":1006:1008   */\n          iszero\n          tag_109\n          jumpi\n            /* \"--CODEGEN--\":1054:1055   */\n          0x00\n            /* \"--CODEGEN--\":1051:1052   */\n          dup1\n            /* \"--CODEGEN--\":1044:1056   */\n          revert\n            /* \"--CODEGEN--\":1006:1008   */\n        tag_109:\n            /* \"--CODEGEN--\":1089:1090   */\n          0x00\n            /* \"--CODEGEN--\":1106:1159   */\n          tag_110\n            /* \"--CODEGEN--\":1151:1158   */\n          dup7\n            /* \"--CODEGEN--\":1142:1148   */\n          dup3\n            /* \"--CODEGEN--\":1131:1140   */\n          dup8\n            /* \"--CODEGEN--\":1127:1149   */\n          add\n            /* \"--CODEGEN--\":1106:1159   */\n          jump(tag_93)\n        tag_110:\n            /* \"--CODEGEN--\":1096:1159   */\n          swap4\n          pop\n            /* \"--CODEGEN--\":1068:1165   */\n          pop\n            /* \"--CODEGEN--\":1196:1198   */\n          0x20\n            /* \"--CODEGEN--\":1214:1267   */\n          tag_111\n            /* \"--CODEGEN--\":1259:1266   */\n          dup7\n            /* \"--CODEGEN--\":1250:1256   */\n          dup3\n            /* \"--CODEGEN--\":1239:1248   */\n          dup8\n            /* \"--CODEGEN--\":1235:1257   */\n          add\n            /* \"--CODEGEN--\":1214:1267   */\n          jump(tag_93)\n        tag_111:\n            /* \"--CODEGEN--\":1204:1267   */\n          swap3\n          pop\n            /* \"--CODEGEN--\":1175:1273   */\n          pop\n            /* \"--CODEGEN--\":1304:1306   */\n          0x40\n            /* \"--CODEGEN--\":1322:1375   */\n          tag_112\n            /* \"--CODEGEN--\":1367:1374   */\n          dup7\n            /* \"--CODEGEN--\":1358:1364   */\n          dup3\n            /* \"--CODEGEN--\":1347:1356   */\n          dup8\n            /* \"--CODEGEN--\":1343:1365   */\n          add\n            /* \"--CODEGEN--\":1322:1375   */\n          jump(tag_97)\n        tag_112:\n            /* \"--CODEGEN--\":1312:1375   */\n          swap2\n          pop\n            /* \"--CODEGEN--\":1283:1381   */\n          pop\n            /* \"--CODEGEN--\":1000:1391   */\n          swap3\n          pop\n          swap3\n          pop\n          swap3\n          jump\n            /* \"--CODEGEN--\":1398:1764   */\n        tag_21:\n          0x00\n          dup1\n            /* \"--CODEGEN--\":1519:1521   */\n          0x40\n            /* \"--CODEGEN--\":1507:1516   */\n          dup4\n            /* \"--CODEGEN--\":1498:1505   */\n          dup6\n            /* \"--CODEGEN--\":1494:1517   */\n          sub\n            /* \"--CODEGEN--\":1490:1522   */\n          slt\n            /* \"--CODEGEN--\":1487:1489   */\n          iszero\n          tag_114\n          jumpi\n            /* \"--CODEGEN--\":1535:1536   */\n          0x00\n            /* \"--CODEGEN--\":1532:1533   */\n          dup1\n            /* \"--CODEGEN--\":1525:1537   */\n          revert\n            /* \"--CODEGEN--\":1487:1489   */\n        tag_114:\n            /* \"--CODEGEN--\":1570:1571   */\n          0x00\n            /* \"--CODEGEN--\":1587:1640   */\n          tag_115\n            /* \"--CODEGEN--\":1632:1639   */\n          dup6\n            /* \"--CODEGEN--\":1623:1629   */\n          dup3\n            /* \"--CODEGEN--\":1612:1621   */\n          dup7\n            /* \"--CODEGEN--\":1608:1630   */\n          add\n            /* \"--CODEGEN--\":1587:1640   */\n          jump(tag_93)\n        tag_115:\n            /* \"--CODEGEN--\":1577:1640   */\n          swap3\n          pop\n            /* \"--CODEGEN--\":1549:1646   */\n          pop\n            /* \"--CODEGEN--\":1677:1679   */\n          0x20\n            /* \"--CODEGEN--\":1695:1748   */\n          tag_116\n            /* \"--CODEGEN--\":1740:1747   */\n          dup6\n            /* \"--CODEGEN--\":1731:1737   */\n          dup3\n            /* \"--CODEGEN--\":1720:1729   */\n          dup7\n            /* \"--CODEGEN--\":1716:1738   */\n          add\n            /* \"--CODEGEN--\":1695:1748   */\n          jump(tag_97)\n        tag_116:\n            /* \"--CODEGEN--\":1685:1748   */\n          swap2\n          pop\n            /* \"--CODEGEN--\":1656:1754   */\n          pop\n            /* \"--CODEGEN--\":1481:1764   */\n          swap3\n          pop\n          swap3\n          swap1\n          pop\n          jump\n            /* \"--CODEGEN--\":1771:2012   */\n        tag_31:\n          0x00\n            /* \"--CODEGEN--\":1875:1877   */\n          0x20\n            /* \"--CODEGEN--\":1863:1872   */\n          dup3\n            /* \"--CODEGEN--\":1854:1861   */\n          dup5\n            /* \"--CODEGEN--\":1850:1873   */\n          sub\n            /* \"--CODEGEN--\":1846:1878   */\n          slt\n            /* \"--CODEGEN--\":1843:1845   */\n          iszero\n          tag_118\n          jumpi\n            /* \"--CODEGEN--\":1891:1892   */\n          0x00\n            /* \"--CODEGEN--\":1888:1889   */\n          dup1\n            /* \"--CODEGEN--\":1881:1893   */\n          revert\n            /* \"--CODEGEN--\":1843:1845   */\n        tag_118:\n            /* \"--CODEGEN--\":1926:1927   */\n          0x00\n            /* \"--CODEGEN--\":1943:1996   */\n          tag_119\n            /* \"--CODEGEN--\":1988:1995   */\n          dup5\n            /* \"--CODEGEN--\":1979:1985   */\n          dup3\n            /* \"--CODEGEN--\":1968:1977   */\n          dup6\n            /* \"--CODEGEN--\":1964:1986   */\n          add\n            /* \"--CODEGEN--\":1943:1996   */\n          jump(tag_97)\n        tag_119:\n            /* \"--CODEGEN--\":1933:1996   */\n          swap2\n          pop\n            /* \"--CODEGEN--\":1905:2002   */\n          pop\n            /* \"--CODEGEN--\":1837:2012   */\n          swap3\n          swap2\n          pop\n          pop\n          jump\n            /* \"--CODEGEN--\":2019:2123   */\n        tag_120:\n            /* \"--CODEGEN--\":2096:2117   */\n          tag_122\n            /* \"--CODEGEN--\":2111:2116   */\n          dup2\n            /* \"--CODEGEN--\":2096:2117   */\n          jump(tag_123)\n        tag_122:\n            /* \"--CODEGEN--\":2091:2094   */\n          dup3\n            /* \"--CODEGEN--\":2084:2118   */\n          mstore\n            /* \"--CODEGEN--\":2078:2123   */\n          pop\n          pop\n          jump\n            /* \"--CODEGEN--\":2130:2477   */\n        tag_124:\n          0x00\n            /* \"--CODEGEN--\":2242:2281   */\n          tag_126\n            /* \"--CODEGEN--\":2275:2280   */\n          dup3\n            /* \"--CODEGEN--\":2242:2281   */\n          jump(tag_127)\n        tag_126:\n            /* \"--CODEGEN--\":2293:2364   */\n          tag_128\n            /* \"--CODEGEN--\":2357:2363   */\n          dup2\n            /* \"--CODEGEN--\":2352:2355   */\n          dup6\n            /* \"--CODEGEN--\":2293:2364   */\n          jump(tag_129)\n        tag_128:\n            /* \"--CODEGEN--\":2286:2364   */\n          swap4\n          pop\n            /* \"--CODEGEN--\":2369:2421   */\n          tag_130\n            /* \"--CODEGEN--\":2414:2420   */\n          dup2\n            /* \"--CODEGEN--\":2409:2412   */\n          dup6\n            /* \"--CODEGEN--\":2402:2406   */\n          0x20\n            /* \"--CODEGEN--\":2395:2400   */\n          dup7\n            /* \"--CODEGEN--\":2391:2407   */\n          add\n            /* \"--CODEGEN--\":2369:2421   */\n          jump(tag_131)\n        tag_130:\n            /* \"--CODEGEN--\":2442:2471   */\n          tag_132\n            /* \"--CODEGEN--\":2464:2470   */\n          dup2\n            /* \"--CODEGEN--\":2442:2471   */\n          jump(tag_133)\n        tag_132:\n            /* \"--CODEGEN--\":2437:2440   */\n          dup5\n            /* \"--CODEGEN--\":2433:2472   */\n          add\n            /* \"--CODEGEN--\":2426:2472   */\n          swap2\n          pop\n            /* \"--CODEGEN--\":2222:2477   */\n          pop\n          swap3\n          swap2\n          pop\n          pop\n          jump\n            /* \"--CODEGEN--\":2484:2597   */\n        tag_134:\n            /* \"--CODEGEN--\":2567:2591   */\n          tag_136\n            /* \"--CODEGEN--\":2585:2590   */\n          dup2\n            /* \"--CODEGEN--\":2567:2591   */\n          jump(tag_137)\n        tag_136:\n            /* \"--CODEGEN--\":2562:2565   */\n          dup3\n            /* \"--CODEGEN--\":2555:2592   */\n          mstore\n            /* \"--CODEGEN--\":2549:2597   */\n          pop\n          pop\n          jump\n            /* \"--CODEGEN--\":2604:2711   */\n        tag_138:\n            /* \"--CODEGEN--\":2683:2705   */\n          tag_140\n            /* \"--CODEGEN--\":2699:2704   */\n          dup2\n            /* \"--CODEGEN--\":2683:2705   */\n          jump(tag_141)\n        tag_140:\n            /* \"--CODEGEN--\":2678:2681   */\n          dup3\n            /* \"--CODEGEN--\":2671:2706   */\n          mstore\n            /* \"--CODEGEN--\":2665:2711   */\n          pop\n          pop\n          jump\n            /* \"--CODEGEN--\":2718:2919   */\n        tag_24:\n          0x00\n            /* \"--CODEGEN--\":2830:2832   */\n          0x20\n            /* \"--CODEGEN--\":2819:2828   */\n          dup3\n            /* \"--CODEGEN--\":2815:2833   */\n          add\n            /* \"--CODEGEN--\":2807:2833   */\n          swap1\n          pop\n            /* \"--CODEGEN--\":2844:2909   */\n          tag_143\n            /* \"--CODEGEN--\":2906:2907   */\n          0x00\n            /* \"--CODEGEN--\":2895:2904   */\n          dup4\n            /* \"--CODEGEN--\":2891:2908   */\n          add\n            /* \"--CODEGEN--\":2882:2888   */\n          dup5\n            /* \"--CODEGEN--\":2844:2909   */\n          jump(tag_120)\n        tag_143:\n            /* \"--CODEGEN--\":2801:2919   */\n          swap3\n          swap2\n          pop\n          pop\n          jump\n            /* \"--CODEGEN--\":2926:3227   */\n        tag_18:\n          0x00\n            /* \"--CODEGEN--\":3064:3066   */\n          0x20\n            /* \"--CODEGEN--\":3053:3062   */\n          dup3\n            /* \"--CODEGEN--\":3049:3067   */\n          add\n            /* \"--CODEGEN--\":3041:3067   */\n          swap1\n          pop\n            /* \"--CODEGEN--\":3114:3123   */\n          dup2\n            /* \"--CODEGEN--\":3108:3112   */\n          dup2\n            /* \"--CODEGEN--\":3104:3124   */\n          sub\n            /* \"--CODEGEN--\":3100:3101   */\n          0x00\n            /* \"--CODEGEN--\":3089:3098   */\n          dup4\n            /* \"--CODEGEN--\":3085:3102   */\n          add\n            /* \"--CODEGEN--\":3078:3125   */\n          mstore\n            /* \"--CODEGEN--\":3139:3217   */\n          tag_145\n            /* \"--CODEGEN--\":3212:3216   */\n          dup2\n            /* \"--CODEGEN--\":3203:3209   */\n          dup5\n            /* \"--CODEGEN--\":3139:3217   */\n          jump(tag_124)\n        tag_145:\n            /* \"--CODEGEN--\":3131:3217   */\n          swap1\n          pop\n            /* \"--CODEGEN--\":3035:3227   */\n          swap3\n          swap2\n          pop\n          pop\n          jump\n            /* \"--CODEGEN--\":3234:3447   */\n        tag_28:\n          0x00\n            /* \"--CODEGEN--\":3352:3354   */\n          0x20\n            /* \"--CODEGEN--\":3341:3350   */\n          dup3\n            /* \"--CODEGEN--\":3337:3355   */\n          add\n            /* \"--CODEGEN--\":3329:3355   */\n          swap1\n          pop\n            /* \"--CODEGEN--\":3366:3437   */\n          tag_147\n            /* \"--CODEGEN--\":3434:3435   */\n          0x00\n            /* \"--CODEGEN--\":3423:3432   */\n          dup4\n            /* \"--CODEGEN--\":3419:3436   */\n          add\n            /* \"--CODEGEN--\":3410:3416   */\n          dup5\n            /* \"--CODEGEN--\":3366:3437   */\n          jump(tag_134)\n        tag_147:\n            /* \"--CODEGEN--\":3323:3447   */\n          swap3\n          swap2\n          pop\n          pop\n          jump\n            /* \"--CODEGEN--\":3454:3659   */\n        tag_41:\n          0x00\n            /* \"--CODEGEN--\":3568:3570   */\n          0x20\n            /* \"--CODEGEN--\":3557:3566   */\n          dup3\n            /* \"--CODEGEN--\":3553:3571   */\n          add\n            /* \"--CODEGEN--\":3545:3571   */\n          swap1\n          pop\n            /* \"--CODEGEN--\":3582:3649   */\n          tag_149\n            /* \"--CODEGEN--\":3646:3647   */\n          0x00\n            /* \"--CODEGEN--\":3635:3644   */\n          dup4\n            /* \"--CODEGEN--\":3631:3648   */\n          add\n            /* \"--CODEGEN--\":3622:3628   */\n          dup5\n            /* \"--CODEGEN--\":3582:3649   */\n          jump(tag_138)\n        tag_149:\n            /* \"--CODEGEN--\":3539:3659   */\n          swap3\n          swap2\n          pop\n          pop\n          jump\n            /* \"--CODEGEN--\":3666:3788   */\n        tag_127:\n          0x00\n            /* \"--CODEGEN--\":3760:3765   */\n          dup2\n            /* \"--CODEGEN--\":3754:3766   */\n          mload\n            /* \"--CODEGEN--\":3744:3766   */\n          swap1\n          pop\n            /* \"--CODEGEN--\":3725:3788   */\n          swap2\n          swap1\n          pop\n          jump\n            /* \"--CODEGEN--\":3796:3959   */\n        tag_129:\n          0x00\n            /* \"--CODEGEN--\":3911:3917   */\n          dup3\n            /* \"--CODEGEN--\":3906:3909   */\n          dup3\n            /* \"--CODEGEN--\":3899:3918   */\n          mstore\n            /* \"--CODEGEN--\":3948:3952   */\n          0x20\n            /* \"--CODEGEN--\":3943:3946   */\n          dup3\n            /* \"--CODEGEN--\":3939:3953   */\n          add\n            /* \"--CODEGEN--\":3924:3953   */\n          swap1\n          pop\n            /* \"--CODEGEN--\":3892:3959   */\n          swap3\n          swap2\n          pop\n          pop\n          jump\n            /* \"--CODEGEN--\":3967:4058   */\n        tag_152:\n          0x00\n            /* \"--CODEGEN--\":4029:4053   */\n          tag_154\n            /* \"--CODEGEN--\":4047:4052   */\n          dup3\n            /* \"--CODEGEN--\":4029:4053   */\n          jump(tag_155)\n        tag_154:\n            /* \"--CODEGEN--\":4018:4053   */\n          swap1\n          pop\n            /* \"--CODEGEN--\":4012:4058   */\n          swap2\n          swap1\n          pop\n          jump\n            /* \"--CODEGEN--\":4065:4150   */\n        tag_123:\n          0x00\n            /* \"--CODEGEN--\":4138:4143   */\n          dup2\n            /* \"--CODEGEN--\":4131:4144   */\n          iszero\n            /* \"--CODEGEN--\":4124:4145   */\n          iszero\n            /* \"--CODEGEN--\":4113:4145   */\n          swap1\n          pop\n            /* \"--CODEGEN--\":4107:4150   */\n          swap2\n          swap1\n          pop\n          jump\n            /* \"--CODEGEN--\":4157:4278   */\n        tag_155:\n          0x00\n            /* \"--CODEGEN--\":4230:4272   */\n          0xffffffffffffffffffffffffffffffffffffffff\n            /* \"--CODEGEN--\":4223:4228   */\n          dup3\n            /* \"--CODEGEN--\":4219:4273   */\n          and\n            /* \"--CODEGEN--\":4208:4273   */\n          swap1\n          pop\n            /* \"--CODEGEN--\":4202:4278   */\n          swap2\n          swap1\n          pop\n          jump\n            /* \"--CODEGEN--\":4285:4357   */\n        tag_137:\n          0x00\n            /* \"--CODEGEN--\":4347:4352   */\n          dup2\n            /* \"--CODEGEN--\":4336:4352   */\n          swap1\n          pop\n            /* \"--CODEGEN--\":4330:4357   */\n          swap2\n          swap1\n          pop\n          jump\n            /* \"--CODEGEN--\":4364:4445   */\n        tag_141:\n          0x00\n            /* \"--CODEGEN--\":4435:4439   */\n          0xff\n            /* \"--CODEGEN--\":4428:4433   */\n          dup3\n            /* \"--CODEGEN--\":4424:4440   */\n          and\n            /* \"--CODEGEN--\":4413:4440   */\n          swap1\n          pop\n            /* \"--CODEGEN--\":4407:4445   */\n          swap2\n          swap1\n          pop\n          jump\n            /* \"--CODEGEN--\":4453:4721   */\n        tag_131:\n            /* \"--CODEGEN--\":4518:4519   */\n          0x00\n            /* \"--CODEGEN--\":4525:4626   */\n        tag_161:\n            /* \"--CODEGEN--\":4539:4545   */\n          dup4\n            /* \"--CODEGEN--\":4536:4537   */\n          dup2\n            /* \"--CODEGEN--\":4533:4546   */\n          lt\n            /* \"--CODEGEN--\":4525:4626   */\n          iszero\n          tag_163\n          jumpi\n            /* \"--CODEGEN--\":4615:4616   */\n          dup1\n            /* \"--CODEGEN--\":4610:4613   */\n          dup3\n            /* \"--CODEGEN--\":4606:4617   */\n          add\n            /* \"--CODEGEN--\":4600:4618   */\n          mload\n            /* \"--CODEGEN--\":4596:4597   */\n          dup2\n            /* \"--CODEGEN--\":4591:4594   */\n          dup5\n            /* \"--CODEGEN--\":4587:4598   */\n          add\n            /* \"--CODEGEN--\":4580:4619   */\n          mstore\n            /* \"--CODEGEN--\":4561:4563   */\n          0x20\n            /* \"--CODEGEN--\":4558:4559   */\n          dup2\n            /* \"--CODEGEN--\":4554:4564   */\n          add\n            /* \"--CODEGEN--\":4549:4564   */\n          swap1\n          pop\n            /* \"--CODEGEN--\":4525:4626   */\n          jump(tag_161)\n        tag_163:\n            /* \"--CODEGEN--\":4641:4647   */\n          dup4\n            /* \"--CODEGEN--\":4638:4639   */\n          dup2\n            /* \"--CODEGEN--\":4635:4648   */\n          gt\n            /* \"--CODEGEN--\":4632:4634   */\n          iszero\n          tag_164\n          jumpi\n            /* \"--CODEGEN--\":4706:4707   */\n          0x00\n            /* \"--CODEGEN--\":4697:4703   */\n          dup5\n            /* \"--CODEGEN--\":4692:4695   */\n          dup5\n            /* \"--CODEGEN--\":4688:4704   */\n          add\n            /* \"--CODEGEN--\":4681:4708   */\n          mstore\n            /* \"--CODEGEN--\":4632:4634   */\n        tag_164:\n            /* \"--CODEGEN--\":4502:4721   */\n          pop\n          pop\n          pop\n          pop\n          jump\n            /* \"--CODEGEN--\":4729:4826   */\n        tag_133:\n          0x00\n            /* \"--CODEGEN--\":4817:4819   */\n          0x1f\n            /* \"--CODEGEN--\":4813:4820   */\n          not\n            /* \"--CODEGEN--\":4808:4810   */\n          0x1f\n            /* \"--CODEGEN--\":4801:4806   */\n          dup4\n            /* \"--CODEGEN--\":4797:4811   */\n          add\n            /* \"--CODEGEN--\":4793:4821   */\n          and\n            /* \"--CODEGEN--\":4783:4821   */\n          swap1\n          pop\n            /* \"--CODEGEN--\":4777:4826   */\n          swap2\n          swap1\n          pop\n          jump\n            /* \"--CODEGEN--\":4834:4951   */\n        tag_96:\n            /* \"--CODEGEN--\":4903:4927   */\n          tag_167\n            /* \"--CODEGEN--\":4921:4926   */\n          dup2\n            /* \"--CODEGEN--\":4903:4927   */\n          jump(tag_152)\n        tag_167:\n            /* \"--CODEGEN--\":4896:4901   */\n          dup2\n            /* \"--CODEGEN--\":4893:4928   */\n          eq\n            /* \"--CODEGEN--\":4883:4885   */\n          tag_168\n          jumpi\n            /* \"--CODEGEN--\":4942:4943   */\n          0x00\n            /* \"--CODEGEN--\":4939:4940   */\n          dup1\n            /* \"--CODEGEN--\":4932:4944   */\n          revert\n            /* \"--CODEGEN--\":4883:4885   */\n        tag_168:\n            /* \"--CODEGEN--\":4877:4951   */\n          pop\n          jump\n            /* \"--CODEGEN--\":4958:5075   */\n        tag_100:\n            /* \"--CODEGEN--\":5027:5051   */\n          tag_170\n            /* \"--CODEGEN--\":5045:5050   */\n          dup2\n            /* \"--CODEGEN--\":5027:5051   */\n          jump(tag_137)\n        tag_170:\n            /* \"--CODEGEN--\":5020:5025   */\n          dup2\n            /* \"--CODEGEN--\":5017:5052   */\n          eq\n            /* \"--CODEGEN--\":5007:5009   */\n          tag_171\n          jumpi\n            /* \"--CODEGEN--\":5066:5067   */\n          0x00\n            /* \"--CODEGEN--\":5063:5064   */\n          dup1\n            /* \"--CODEGEN--\":5056:5068   */\n          revert\n            /* \"--CODEGEN--\":5007:5009   */\n        tag_171:\n            /* \"--CODEGEN--\":5001:5075   */\n          pop\n          jump\n\n        auxdata: 0xa2646970667358221220f1be10a6e8027594a815c9fe44e50e330a0d3f135c9a6316756b70c01cbbc7bc64736f6c63430006060033\n    }\n}\n",
				"bytecode": {
					"linkReferences": {},
					"object": "60806040523480156200001157600080fd5b506127106040516200002390620000d3565b6200002f9190620000f2565b604051809103906000f0801580156200004c573d6000803e3d6000fd5b506000806101000a81548173ffffffffffffffffffffffffffffffffffffffff021916908373ffffffffffffffffffffffffffffffffffffffff16021790555033600160006101000a81548173ffffffffffffffffffffffffffffffffffffffff021916908373ffffffffffffffffffffffffffffffffffffffff1602179055506200012d565b61109d806200234183390190565b620000ec8162000119565b82525050565b6000602082019050620001096000830184620000e1565b92915050565b6000819050919050565b600062000126826200010f565b9050919050565b612204806200013d6000396000f3fe6080604052600436106100fd5760003560e01c80638da5cb5b11610095578063d00df29611610064578063d00df296146102ff578063d203c15b1461033e578063dbbdc4211461037d578063e33f34a0146103a6578063f7774091146103d1576100fd565b80638da5cb5b14610243578063c03d2acc1461026e578063c66dca4014610299578063ce8f2f38146102c2576100fd565b80631deecf3b116100d15780631deecf3b1461019b5780631f7705d2146101c45780631fccb33c146101ef578063390500651461021a576100fd565b80620c4397146101025780631246f6e21461012d57806312b91846146101565780631890154c1461017f575b600080fd5b34801561010e57600080fd5b506101176103ed565b6040516101249190611fc1565b60405180910390f35b34801561013957600080fd5b50610154600480360381019061014f91906118bc565b61049e565b005b34801561016257600080fd5b5061017d60048036038101906101789190611827565b6105bf565b005b610199600480360381019061019491906118bc565b61080d565b005b3480156101a757600080fd5b506101c260048036038101906101bd9190611868565b61099d565b005b3480156101d057600080fd5b506101d9610b2e565b6040516101e69190611df1565b60405180910390f35b3480156101fb57600080fd5b50610204610c54565b6040516102119190611df1565b60405180910390f35b34801561022657600080fd5b50610241600480360381019061023c9190611868565b610d3d565b005b34801561024f57600080fd5b50610258610ece565b6040516102659190611d76565b60405180910390f35b34801561027a57600080fd5b50610283610ef4565b6040516102909190611df1565b60405180910390f35b3480156102a557600080fd5b506102c060048036038101906102bb9190611827565b610fdd565b005b3480156102ce57600080fd5b506102e960048036038101906102e491906117d5565b6110e3565b6040516102f69190611fc1565b60405180910390f35b34801561030b57600080fd5b5061032660048036038101906103219190611827565b611101565b60405161033593929190611ea3565b60405180910390f35b34801561034a57600080fd5b5061036560048036038101906103609190611827565b6111e6565b60405161037493929190611ea3565b60405180910390f35b34801561038957600080fd5b506103a4600480360381019061039f9190611827565b6112cb565b005b3480156103b257600080fd5b506103bb6113d1565b6040516103c89190611fc1565b60405180910390f35b6103eb60048036038101906103e691906118bc565b611482565b005b60008060009054906101000a900473ffffffffffffffffffffffffffffffffffffffff1673ffffffffffffffffffffffffffffffffffffffff166370a08231306040518263ffffffff1660e01b81526004016104499190611d40565b60206040518083038186803b15801561046157600080fd5b505afa158015610475573d6000803e3d6000fd5b505050506040513d601f19601f8201168201806040525081019061049991906118e5565b905090565b33600160009054906101000a900473ffffffffffffffffffffffffffffffffffffffff1673ffffffffffffffffffffffffffffffffffffffff168173ffffffffffffffffffffffffffffffffffffffff161461052f576040517f08c379a000000000000000000000000000000000000000000000000000000000815260040161052690611f21565b60405180910390fd5b6000809054906101000a900473ffffffffffffffffffffffffffffffffffffffff1673ffffffffffffffffffffffffffffffffffffffff16631d43cc98836040518263ffffffff1660e01b81526004016105899190611fc1565b600060405180830381600087803b1580156105a357600080fd5b505af11580156105b7573d6000803e3d6000fd5b505050505050565b60006003826040516105d19190611d29565b9081526020016040518091039020600101549050600115156003836040516105f99190611d29565b908152602001604051809103902060020160009054906101000a900460ff1615151461065a576040517f08c379a000000000000000000000000000000000000000000000000000000000815260040161065190611ee1565b60405180910390fd5b6106626113d1565b8111156106a4576040517f08c379a000000000000000000000000000000000000000000000000000000000815260040161069b90611f01565b60405180910390fd5b6000809054906101000a900473ffffffffffffffffffffffffffffffffffffffff1673ffffffffffffffffffffffffffffffffffffffff1663f490a3513330846040518463ffffffff1660e01b815260040161070293929190611d91565b602060405180830381600087803b15801561071c57600080fd5b505af1158015610730573d6000803e3d6000fd5b505050506040513d601f19601f8201168201806040525081019061075491906117fe565b50600560003373ffffffffffffffffffffffffffffffffffffffff1673ffffffffffffffffffffffffffffffffffffffff168152602001908152602001600020829080600181540180825580915050600190039060005260206000200160009091909190915090805190602001906107cd929190611688565b507f7246a03edf415ab10aa2e7868f4768980d024a3a86ab68f98fcc21567c2f26d782823360405161080193929190611e65565b60405180910390a15050565b60008111610850576040517f08c379a000000000000000000000000000000000000000000000000000000000815260040161084790611f41565b60405180910390fd5b6108586113d1565b81111561089a576040517f08c379a000000000000000000000000000000000000000000000000000000000815260040161089190611fa1565b60405180910390fd5b6000809054906101000a900473ffffffffffffffffffffffffffffffffffffffff1673ffffffffffffffffffffffffffffffffffffffff1663f490a3513330846040518463ffffffff1660e01b81526004016108f893929190611d91565b602060405180830381600087803b15801561091257600080fd5b505af1158015610926573d6000803e3d6000fd5b505050506040513d601f19601f8201168201806040525081019061094a91906117fe565b503373ffffffffffffffffffffffffffffffffffffffff166108fc61096e83611674565b9081150290604051600060405180830381858888f19350505050158015610999573d6000803e3d6000fd5b5050565b33600160009054906101000a900473ffffffffffffffffffffffffffffffffffffffff1673ffffffffffffffffffffffffffffffffffffffff168173ffffffffffffffffffffffffffffffffffffffff1614610a2e576040517f08c379a0000000000000000000000000000000000000000000000000000000008152600401610a2590611f21565b60405180910390fd5b604051806060016040528084815260200183815260200160011515815250600684604051610a5c9190611d29565b90815260200160405180910390206000820151816000019080519060200190610a86929190611688565b506020820151816001015560408201518160020160006101000a81548160ff021916908315150217905550905050600783908060018154018082558091505060019003906000526020600020016000909190919091509080519060200190610aef929190611688565b507f4822082a8fc27e02f7551bba1d63c9aa17637aa764b17878bac1197ddd4c60288383604051610b21929190611e35565b60405180910390a1505050565b6060600560003373ffffffffffffffffffffffffffffffffffffffff1673ffffffffffffffffffffffffffffffffffffffff168152602001908152602001600020805480602002602001604051908101604052809291908181526020016000905b82821015610c4b578382906000526020600020018054600181600116156101000203166002900480601f016020809104026020016040519081016040528092919081815260200182805460018160011615610100020316600290048015610c375780601f10610c0c57610100808354040283529160200191610c37565b820191906000526020600020905b815481529060010190602001808311610c1a57829003601f168201915b505050505081526020019060010190610b8f565b50505050905090565b60606004805480602002602001604051908101604052809291908181526020016000905b82821015610d34578382906000526020600020018054600181600116156101000203166002900480601f016020809104026020016040519081016040528092919081815260200182805460018160011615610100020316600290048015610d205780601f10610cf557610100808354040283529160200191610d20565b820191906000526020600020905b815481529060010190602001808311610d0357829003601f168201915b505050505081526020019060010190610c78565b50505050905090565b33600160009054906101000a900473ffffffffffffffffffffffffffffffffffffffff1673ffffffffffffffffffffffffffffffffffffffff168173ffffffffffffffffffffffffffffffffffffffff1614610dce576040517f08c379a0000000000000000000000000000000000000000000000000000000008152600401610dc590611f21565b60405180910390fd5b604051806060016040528084815260200183815260200160011515815250600384604051610dfc9190611d29565b90815260200160405180910390206000820151816000019080519060200190610e26929190611688565b506020820151816001015560408201518160020160006101000a81548160ff021916908315150217905550905050600483908060018154018082558091505060019003906000526020600020016000909190919091509080519060200190610e8f929190611688565b507fef69c38fe63a06c66bf59a6eedc8716eba333ed78488e0b767455a9cf2eecbb38383604051610ec1929190611e35565b60405180910390a1505050565b600160009054906101000a900473ffffffffffffffffffffffffffffffffffffffff1681565b60606007805480602002602001604051908101604052809291908181526020016000905b82821015610fd4578382906000526020600020018054600181600116156101000203166002900480601f016020809104026020016040519081016040528092919081815260200182805460018160011615610100020316600290048015610fc05780601f10610f9557610100808354040283529160200191610fc0565b820191906000526020600020905b815481529060010190602001808311610fa357829003601f168201915b505050505081526020019060010190610f18565b50505050905090565b33600160009054906101000a900473ffffffffffffffffffffffffffffffffffffffff1673ffffffffffffffffffffffffffffffffffffffff168173ffffffffffffffffffffffffffffffffffffffff161461106e576040517f08c379a000000000000000000000000000000000000000000000000000000000815260040161106590611f21565b60405180910390fd5b60006003836040516110809190611d29565b908152602001604051809103902060020160006101000a81548160ff0219169083151502179055507f24ba6c881728980191398db8dcfd8ed4f6aeb1c08df349d63f3b85075f3e86dd826040516110d79190611e13565b60405180910390a15050565b60026020528060005260406000206000915090508060000154905081565b600381805160208101820180518482526020830160208501208183528095505050505050600091509050806000018054600181600116156101000203166002900480601f0160208091040260200160405190810160405280929190818152602001828054600181600116156101000203166002900480156111c35780601f10611198576101008083540402835291602001916111c3565b820191906000526020600020905b8154815290600101906020018083116111a657829003601f168201915b5050505050908060010154908060020160009054906101000a900460ff16905083565b600681805160208101820180518482526020830160208501208183528095505050505050600091509050806000018054600181600116156101000203166002900480601f0160208091040260200160405190810160405280929190818152602001828054600181600116156101000203166002900480156112a85780601f1061127d576101008083540402835291602001916112a8565b820191906000526020600020905b81548152906001019060200180831161128b57829003601f168201915b5050505050908060010154908060020160009054906101000a900460ff16905083565b33600160009054906101000a900473ffffffffffffffffffffffffffffffffffffffff1673ffffffffffffffffffffffffffffffffffffffff168173ffffffffffffffffffffffffffffffffffffffff161461135c576040517f08c379a000000000000000000000000000000000000000000000000000000000815260040161135390611f21565b60405180910390fd5b600060068360405161136e9190611d29565b908152602001604051809103902060020160006101000a81548160ff0219169083151502179055507fc08b02ec29b10837b03ba712be7196ccd02824c57a727dbd6c9718051c9437c6826040516113c59190611e13565b60405180910390a15050565b60008060009054906101000a900473ffffffffffffffffffffffffffffffffffffffff1673ffffffffffffffffffffffffffffffffffffffff166370a08231336040518263ffffffff1660e01b815260040161142d9190611d5b565b60206040518083038186803b15801561144557600080fd5b505afa158015611459573d6000803e3d6000fd5b505050506040513d601f19601f8201168201806040525081019061147d91906118e5565b905090565b600061148d82611674565b9050803410156114d2576040517f08c379a00000000000000000000000000000000000000000000000000000000081526004016114c990611f61565b60405180910390fd5b600081340390503373ffffffffffffffffffffffffffffffffffffffff166108fc829081150290604051600060405180830381858888f1935050505015801561151f573d6000803e3d6000fd5b50600061152a6103ed565b90508084111561156f576040517f08c379a000000000000000000000000000000000000000000000000000000000815260040161156690611f81565b60405180910390fd5b6000809054906101000a900473ffffffffffffffffffffffffffffffffffffffff1673ffffffffffffffffffffffffffffffffffffffff1663a9059cbb33866040518363ffffffff1660e01b81526004016115cb929190611dc8565b602060405180830381600087803b1580156115e557600080fd5b505af11580156115f9573d6000803e3d6000fd5b505050506040513d601f19601f8201168201806040525081019061161d91906117fe565b5083600260003373ffffffffffffffffffffffffffffffffffffffff1673ffffffffffffffffffffffffffffffffffffffff1681526020019081526020016000206000016000828254019250508190555050505050565b600067016345785d8a000082029050919050565b828054600181600116156101000203166002900490600052602060002090601f016020900481019282601f106116c957805160ff19168380011785556116f7565b828001600101855582156116f7579182015b828111156116f65782518255916020019190600101906116db565b5b5090506117049190611708565b5090565b61172a91905b8082111561172657600081600090555060010161170e565b5090565b90565b60008135905061173c81612189565b92915050565b600081519050611751816121a0565b92915050565b600082601f83011261176857600080fd5b813561177b61177682612009565b611fdc565b9150808252602083016020830185838301111561179757600080fd5b6117a2838284612136565b50505092915050565b6000813590506117ba816121b7565b92915050565b6000815190506117cf816121b7565b92915050565b6000602082840312156117e757600080fd5b60006117f58482850161172d565b91505092915050565b60006020828403121561181057600080fd5b600061181e84828501611742565b91505092915050565b60006020828403121561183957600080fd5b600082013567ffffffffffffffff81111561185357600080fd5b61185f84828501611757565b91505092915050565b6000806040838503121561187b57600080fd5b600083013567ffffffffffffffff81111561189557600080fd5b6118a185828601611757565b92505060206118b2858286016117ab565b9150509250929050565b6000602082840312156118ce57600080fd5b60006118dc848285016117ab565b91505092915050565b6000602082840312156118f757600080fd5b6000611905848285016117c0565b91505092915050565b600061191a83836119d3565b905092915050565b61192b81612100565b82525050565b61193a816120b8565b82525050565b611949816120a6565b82525050565b600061195a82612045565b6119648185612068565b93508360208202850161197685612035565b8060005b858110156119b25784840389528151611993858261190e565b945061199e8361205b565b925060208a0199505060018101905061197a565b50829750879550505050505092915050565b6119cd816120ca565b82525050565b60006119de82612050565b6119e88185612079565b93506119f8818560208601612145565b611a0181612178565b840191505092915050565b6000611a1782612050565b611a21818561208a565b9350611a31818560208601612145565b611a3a81612178565b840191505092915050565b6000611a5082612050565b611a5a818561209b565b9350611a6a818560208601612145565b80840191505092915050565b6000611a8360328361208a565b91507f4c6120617472616363696f6e206e6f206573746120646973706f6e69626c652060008301527f656e206573746f73206d6f6d656e746f732e00000000000000000000000000006020830152604082019050919050565b6000611ae960348361208a565b91507f4e6563657369746173206d617320546f6b656e7320706172612073756269657260008301527f74652061206573746120617472616363696f6e2e0000000000000000000000006020830152604082019050919050565b6000611b4f602e8361208a565b91507f4e6f207469656e6573207065726d69736f73207061726120656a65637574617260008301527f20657374612066756e63696f6e2e0000000000000000000000000000000000006020830152604082019050919050565b6000611bb560338361208a565b91507f4e6563657369746173206465766f6c76657220756e612063616e74696461642060008301527f706f73697469766120646520546f6b656e732e000000000000000000000000006020830152604082019050919050565b6000611c1b602a8361208a565b91507f436f6d707261206d656e6f7320546f6b656e73206f207061676120636f6e206d60008301527f6173206574686572732e000000000000000000000000000000000000000000006020830152604082019050919050565b6000611c8160208361208a565b91507f436f6d70726120756e206e756d65726f206d656e6f7220646520546f6b656e736000830152602082019050919050565b6000611cc160288361208a565b91507f4e6f207469656e65206c6f7320546f6b656e732071756520646573656173206460008301527f65766f6c7665722e0000000000000000000000000000000000000000000000006020830152604082019050919050565b611d23816120f6565b82525050565b6000611d358284611a45565b915081905092915050565b6000602082019050611d556000830184611940565b92915050565b6000602082019050611d706000830184611922565b92915050565b6000602082019050611d8b6000830184611931565b92915050565b6000606082019050611da66000830186611922565b611db36020830185611940565b611dc06040830184611d1a565b949350505050565b6000604082019050611ddd6000830185611922565b611dea6020830184611d1a565b9392505050565b60006020820190508181036000830152611e0b818461194f565b905092915050565b60006020820190508181036000830152611e2d8184611a0c565b905092915050565b60006040820190508181036000830152611e4f8185611a0c565b9050611e5e6020830184611d1a565b9392505050565b60006060820190508181036000830152611e7f8186611a0c565b9050611e8e6020830185611d1a565b611e9b6040830184611922565b949350505050565b60006060820190508181036000830152611ebd8186611a0c565b9050611ecc6020830185611d1a565b611ed960408301846119c4565b949350505050565b60006020820190508181036000830152611efa81611a76565b9050919050565b60006020820190508181036000830152611f1a81611adc565b9050919050565b60006020820190508181036000830152611f3a81611b42565b9050919050565b60006020820190508181036000830152611f5a81611ba8565b9050919050565b60006020820190508181036000830152611f7a81611c0e565b9050919050565b60006020820190508181036000830152611f9a81611c74565b9050919050565b60006020820190508181036000830152611fba81611cb4565b9050919050565b6000602082019050611fd66000830184611d1a565b92915050565b6000604051905081810181811067ffffffffffffffff82111715611fff57600080fd5b8060405250919050565b600067ffffffffffffffff82111561202057600080fd5b601f19601f8301169050602081019050919050565b6000819050602082019050919050565b600081519050919050565b600081519050919050565b6000602082019050919050565b600082825260208201905092915050565b600082825260208201905092915050565b600082825260208201905092915050565b600081905092915050565b60006120b1826120d6565b9050919050565b60006120c3826120d6565b9050919050565b60008115159050919050565b600073ffffffffffffffffffffffffffffffffffffffff82169050919050565b6000819050919050565b600061210b82612112565b9050919050565b600061211d82612124565b9050919050565b600061212f826120d6565b9050919050565b82818337600083830152505050565b60005b83811015612163578082015181840152602081019050612148565b83811115612172576000848401525b50505050565b6000601f19601f8301169050919050565b612192816120a6565b811461219d57600080fd5b50565b6121a9816120ca565b81146121b457600080fd5b50565b6121c0816120f6565b81146121cb57600080fd5b5056fea2646970667358221220f3f257eeebb9ca6aeba8e83eca10c58cbcfb0840df60397fbf7b1683e932217564736f6c63430006060033608060405234801561001057600080fd5b5060405161109d38038061109d83398181016040528101906100329190610099565b806002819055506002546000803373ffffffffffffffffffffffffffffffffffffffff1673ffffffffffffffffffffffffffffffffffffffff16815260200190815260200160002081905550506100e3565b600081519050610093816100cc565b92915050565b6000602082840312156100ab57600080fd5b60006100b984828501610084565b91505092915050565b6000819050919050565b6100d5816100c2565b81146100e057600080fd5b50565b610fab806100f26000396000f3fe608060405234801561001057600080fd5b50600436106100a95760003560e01c8063313ce56711610071578063313ce5671461016657806370a082311461018457806395d89b41146101b4578063a9059cbb146101d2578063dd62ed3e14610202578063f490a35114610232576100a9565b806306fdde03146100ae578063095ea7b3146100cc57806318160ddd146100fc5780631d43cc981461011a57806323b872dd14610136575b600080fd5b6100b6610262565b6040516100c39190610e3a565b60405180910390f35b6100e660048036038101906100e19190610d54565b61029b565b6040516100f39190610e1f565b60405180910390f35b61010461038d565b6040516101119190610e5c565b60405180910390f35b610134600480360381019061012f9190610d90565b610397565b005b610150600480360381019061014b9190610d05565b6103f6565b60405161015d9190610e1f565b60405180910390f35b61016e610771565b60405161017b9190610e77565b60405180910390f35b61019e60048036038101906101999190610ca0565b610776565b6040516101ab9190610e5c565b60405180910390f35b6101bc6107be565b6040516101c99190610e3a565b60405180910390f35b6101ec60048036038101906101e79190610d54565b6107f7565b6040516101f99190610e1f565b60405180910390f35b61021c60048036038101906102179190610cc9565b6109d9565b6040516102299190610e5c565b60405180910390f35b61024c60048036038101906102479190610d05565b610a60565b6040516102599190610e1f565b60405180910390f35b6040518060400160405280601181526020017f4552433230426c6f636b636861696e415a00000000000000000000000000000081525081565b600081600160003373ffffffffffffffffffffffffffffffffffffffff1673ffffffffffffffffffffffffffffffffffffffff16815260200190815260200160002060008573ffffffffffffffffffffffffffffffffffffffff1673ffffffffffffffffffffffffffffffffffffffff168152602001908152602001600020819055508273ffffffffffffffffffffffffffffffffffffffff163373ffffffffffffffffffffffffffffffffffffffff167f8c5be1e5ebec7d5bd14f71427d1e84f3dd0314c0f7b2291e5b200ac8c7c3b9258460405161037b9190610e5c565b60405180910390a36001905092915050565b6000600254905090565b80600260008282540192505081905550806000803373ffffffffffffffffffffffffffffffffffffffff1673ffffffffffffffffffffffffffffffffffffffff1681526020019081526020016000206000828254019250508190555050565b60008060008573ffffffffffffffffffffffffffffffffffffffff1673ffffffffffffffffffffffffffffffffffffffff1681526020019081526020016000205482111561044357600080fd5b600160008573ffffffffffffffffffffffffffffffffffffffff1673ffffffffffffffffffffffffffffffffffffffff16815260200190815260200160002060003373ffffffffffffffffffffffffffffffffffffffff1673ffffffffffffffffffffffffffffffffffffffff168152602001908152602001600020548211156104cc57600080fd5b61051d826000808773ffffffffffffffffffffffffffffffffffffffff1673ffffffffffffffffffffffffffffffffffffffff16815260200190815260200160002054610c4390919063ffffffff16565b6000808673ffffffffffffffffffffffffffffffffffffffff1673ffffffffffffffffffffffffffffffffffffffff168152602001908152602001600020819055506105ee82600160008773ffffffffffffffffffffffffffffffffffffffff1673ffffffffffffffffffffffffffffffffffffffff16815260200190815260200160002060003373ffffffffffffffffffffffffffffffffffffffff1673ffffffffffffffffffffffffffffffffffffffff16815260200190815260200160002054610c4390919063ffffffff16565b600160008673ffffffffffffffffffffffffffffffffffffffff1673ffffffffffffffffffffffffffffffffffffffff16815260200190815260200160002060003373ffffffffffffffffffffffffffffffffffffffff1673ffffffffffffffffffffffffffffffffffffffff168152602001908152602001600020819055506106bf826000808673ffffffffffffffffffffffffffffffffffffffff1673ffffffffffffffffffffffffffffffffffffffff16815260200190815260200160002054610c5a90919063ffffffff16565b6000808573ffffffffffffffffffffffffffffffffffffffff1673ffffffffffffffffffffffffffffffffffffffff168152602001908152602001600020819055508273ffffffffffffffffffffffffffffffffffffffff168473ffffffffffffffffffffffffffffffffffffffff167fddf252ad1be2c89b69c2b068fc378daa952ba7f163c4a11628f55a4df523b3ef8460405161075e9190610e5c565b60405180910390a3600190509392505050565b601281565b60008060008373ffffffffffffffffffffffffffffffffffffffff1673ffffffffffffffffffffffffffffffffffffffff168152602001908152602001600020549050919050565b6040518060400160405280600381526020017f455243000000000000000000000000000000000000000000000000000000000081525081565b60008060003373ffffffffffffffffffffffffffffffffffffffff1673ffffffffffffffffffffffffffffffffffffffff1681526020019081526020016000205482111561084457600080fd5b610895826000803373ffffffffffffffffffffffffffffffffffffffff1673ffffffffffffffffffffffffffffffffffffffff16815260200190815260200160002054610c4390919063ffffffff16565b6000803373ffffffffffffffffffffffffffffffffffffffff1673ffffffffffffffffffffffffffffffffffffffff16815260200190815260200160002081905550610928826000808673ffffffffffffffffffffffffffffffffffffffff1673ffffffffffffffffffffffffffffffffffffffff16815260200190815260200160002054610c5a90919063ffffffff16565b6000808573ffffffffffffffffffffffffffffffffffffffff1673ffffffffffffffffffffffffffffffffffffffff168152602001908152602001600020819055508273ffffffffffffffffffffffffffffffffffffffff163373ffffffffffffffffffffffffffffffffffffffff167fddf252ad1be2c89b69c2b068fc378daa952ba7f163c4a11628f55a4df523b3ef846040516109c79190610e5c565b60405180910390a36001905092915050565b6000600160008473ffffffffffffffffffffffffffffffffffffffff1673ffffffffffffffffffffffffffffffffffffffff16815260200190815260200160002060008373ffffffffffffffffffffffffffffffffffffffff1673ffffffffffffffffffffffffffffffffffffffff16815260200190815260200160002054905092915050565b60008060008573ffffffffffffffffffffffffffffffffffffffff1673ffffffffffffffffffffffffffffffffffffffff16815260200190815260200160002054821115610aad57600080fd5b610afe826000808773ffffffffffffffffffffffffffffffffffffffff1673ffffffffffffffffffffffffffffffffffffffff16815260200190815260200160002054610c4390919063ffffffff16565b6000808673ffffffffffffffffffffffffffffffffffffffff1673ffffffffffffffffffffffffffffffffffffffff16815260200190815260200160002081905550610b91826000808673ffffffffffffffffffffffffffffffffffffffff1673ffffffffffffffffffffffffffffffffffffffff16815260200190815260200160002054610c5a90919063ffffffff16565b6000808573ffffffffffffffffffffffffffffffffffffffff1673ffffffffffffffffffffffffffffffffffffffff168152602001908152602001600020819055508273ffffffffffffffffffffffffffffffffffffffff168473ffffffffffffffffffffffffffffffffffffffff167fddf252ad1be2c89b69c2b068fc378daa952ba7f163c4a11628f55a4df523b3ef84604051610c309190610e5c565b60405180910390a3600190509392505050565b600082821115610c4f57fe5b818303905092915050565b600080828401905083811015610c6c57fe5b8091505092915050565b600081359050610c8581610f47565b92915050565b600081359050610c9a81610f5e565b92915050565b600060208284031215610cb257600080fd5b6000610cc084828501610c76565b91505092915050565b60008060408385031215610cdc57600080fd5b6000610cea85828601610c76565b9250506020610cfb85828601610c76565b9150509250929050565b600080600060608486031215610d1a57600080fd5b6000610d2886828701610c76565b9350506020610d3986828701610c76565b9250506040610d4a86828701610c8b565b9150509250925092565b60008060408385031215610d6757600080fd5b6000610d7585828601610c76565b9250506020610d8685828601610c8b565b9150509250929050565b600060208284031215610da257600080fd5b6000610db084828501610c8b565b91505092915050565b610dc281610ec0565b82525050565b6000610dd382610e92565b610ddd8185610e9d565b9350610ded818560208601610f03565b610df681610f36565b840191505092915050565b610e0a81610eec565b82525050565b610e1981610ef6565b82525050565b6000602082019050610e346000830184610db9565b92915050565b60006020820190508181036000830152610e548184610dc8565b905092915050565b6000602082019050610e716000830184610e01565b92915050565b6000602082019050610e8c6000830184610e10565b92915050565b600081519050919050565b600082825260208201905092915050565b6000610eb982610ecc565b9050919050565b60008115159050919050565b600073ffffffffffffffffffffffffffffffffffffffff82169050919050565b6000819050919050565b600060ff82169050919050565b60005b83811015610f21578082015181840152602081019050610f06565b83811115610f30576000848401525b50505050565b6000601f19601f8301169050919050565b610f5081610eae565b8114610f5b57600080fd5b50565b610f6781610eec565b8114610f7257600080fd5b5056fea2646970667358221220f1be10a6e8027594a815c9fe44e50e330a0d3f135c9a6316756b70c01cbbc7bc64736f6c63430006060033",
					"opcodes": "PUSH1 0x80 PUSH1 0x40 MSTORE CALLVALUE DUP1 ISZERO PUSH3 0x11 JUMPI PUSH1 0x0 DUP1 REVERT JUMPDEST POP PUSH2 0x2710 PUSH1 0x40 MLOAD PUSH3 0x23 SWAP1 PUSH3 0xD3 JUMP JUMPDEST PUSH3 0x2F SWAP2 SWAP1 PUSH3 0xF2 JUMP JUMPDEST PUSH1 0x40 MLOAD DUP1 SWAP2 SUB SWAP1 PUSH1 0x0 CREATE DUP1 ISZERO DUP1 ISZERO PUSH3 0x4C JUMPI RETURNDATASIZE PUSH1 0x0 DUP1 RETURNDATACOPY RETURNDATASIZE PUSH1 0x0 REVERT JUMPDEST POP PUSH1 0x0 DUP1 PUSH2 0x100 EXP DUP2 SLOAD DUP2 PUSH20 0xFFFFFFFFFFFFFFFFFFFFFFFFFFFFFFFFFFFFFFFF MUL NOT AND SWAP1 DUP4 PUSH20 0xFFFFFFFFFFFFFFFFFFFFFFFFFFFFFFFFFFFFFFFF AND MUL OR SWAP1 SSTORE POP CALLER PUSH1 0x1 PUSH1 0x0 PUSH2 0x100 EXP DUP2 SLOAD DUP2 PUSH20 0xFFFFFFFFFFFFFFFFFFFFFFFFFFFFFFFFFFFFFFFF MUL NOT AND SWAP1 DUP4 PUSH20 0xFFFFFFFFFFFFFFFFFFFFFFFFFFFFFFFFFFFFFFFF AND MUL OR SWAP1 SSTORE POP PUSH3 0x12D JUMP JUMPDEST PUSH2 0x109D DUP1 PUSH3 0x2341 DUP4 CODECOPY ADD SWAP1 JUMP JUMPDEST PUSH3 0xEC DUP2 PUSH3 0x119 JUMP JUMPDEST DUP3 MSTORE POP POP JUMP JUMPDEST PUSH1 0x0 PUSH1 0x20 DUP3 ADD SWAP1 POP PUSH3 0x109 PUSH1 0x0 DUP4 ADD DUP5 PUSH3 0xE1 JUMP JUMPDEST SWAP3 SWAP2 POP POP JUMP JUMPDEST PUSH1 0x0 DUP2 SWAP1 POP SWAP2 SWAP1 POP JUMP JUMPDEST PUSH1 0x0 PUSH3 0x126 DUP3 PUSH3 0x10F JUMP JUMPDEST SWAP1 POP SWAP2 SWAP1 POP JUMP JUMPDEST PUSH2 0x2204 DUP1 PUSH3 0x13D PUSH1 0x0 CODECOPY PUSH1 0x0 RETURN INVALID PUSH1 0x80 PUSH1 0x40 MSTORE PUSH1 0x4 CALLDATASIZE LT PUSH2 0xFD JUMPI PUSH1 0x0 CALLDATALOAD PUSH1 0xE0 SHR DUP1 PUSH4 0x8DA5CB5B GT PUSH2 0x95 JUMPI DUP1 PUSH4 0xD00DF296 GT PUSH2 0x64 JUMPI DUP1 PUSH4 0xD00DF296 EQ PUSH2 0x2FF JUMPI DUP1 PUSH4 0xD203C15B EQ PUSH2 0x33E JUMPI DUP1 PUSH4 0xDBBDC421 EQ PUSH2 0x37D JUMPI DUP1 PUSH4 0xE33F34A0 EQ PUSH2 0x3A6 JUMPI DUP1 PUSH4 0xF7774091 EQ PUSH2 0x3D1 JUMPI PUSH2 0xFD JUMP JUMPDEST DUP1 PUSH4 0x8DA5CB5B EQ PUSH2 0x243 JUMPI DUP1 PUSH4 0xC03D2ACC EQ PUSH2 0x26E JUMPI DUP1 PUSH4 0xC66DCA40 EQ PUSH2 0x299 JUMPI DUP1 PUSH4 0xCE8F2F38 EQ PUSH2 0x2C2 JUMPI PUSH2 0xFD JUMP JUMPDEST DUP1 PUSH4 0x1DEECF3B GT PUSH2 0xD1 JUMPI DUP1 PUSH4 0x1DEECF3B EQ PUSH2 0x19B JUMPI DUP1 PUSH4 0x1F7705D2 EQ PUSH2 0x1C4 JUMPI DUP1 PUSH4 0x1FCCB33C EQ PUSH2 0x1EF JUMPI DUP1 PUSH4 0x39050065 EQ PUSH2 0x21A JUMPI PUSH2 0xFD JUMP JUMPDEST DUP1 PUSH3 0xC4397 EQ PUSH2 0x102 JUMPI DUP1 PUSH4 0x1246F6E2 EQ PUSH2 0x12D JUMPI DUP1 PUSH4 0x12B91846 EQ PUSH2 0x156 JUMPI DUP1 PUSH4 0x1890154C EQ PUSH2 0x17F JUMPI JUMPDEST PUSH1 0x0 DUP1 REVERT JUMPDEST CALLVALUE DUP1 ISZERO PUSH2 0x10E JUMPI PUSH1 0x0 DUP1 REVERT JUMPDEST POP PUSH2 0x117 PUSH2 0x3ED JUMP JUMPDEST PUSH1 0x40 MLOAD PUSH2 0x124 SWAP2 SWAP1 PUSH2 0x1FC1 JUMP JUMPDEST PUSH1 0x40 MLOAD DUP1 SWAP2 SUB SWAP1 RETURN JUMPDEST CALLVALUE DUP1 ISZERO PUSH2 0x139 JUMPI PUSH1 0x0 DUP1 REVERT JUMPDEST POP PUSH2 0x154 PUSH1 0x4 DUP1 CALLDATASIZE SUB DUP2 ADD SWAP1 PUSH2 0x14F SWAP2 SWAP1 PUSH2 0x18BC JUMP JUMPDEST PUSH2 0x49E JUMP JUMPDEST STOP JUMPDEST CALLVALUE DUP1 ISZERO PUSH2 0x162 JUMPI PUSH1 0x0 DUP1 REVERT JUMPDEST POP PUSH2 0x17D PUSH1 0x4 DUP1 CALLDATASIZE SUB DUP2 ADD SWAP1 PUSH2 0x178 SWAP2 SWAP1 PUSH2 0x1827 JUMP JUMPDEST PUSH2 0x5BF JUMP JUMPDEST STOP JUMPDEST PUSH2 0x199 PUSH1 0x4 DUP1 CALLDATASIZE SUB DUP2 ADD SWAP1 PUSH2 0x194 SWAP2 SWAP1 PUSH2 0x18BC JUMP JUMPDEST PUSH2 0x80D JUMP JUMPDEST STOP JUMPDEST CALLVALUE DUP1 ISZERO PUSH2 0x1A7 JUMPI PUSH1 0x0 DUP1 REVERT JUMPDEST POP PUSH2 0x1C2 PUSH1 0x4 DUP1 CALLDATASIZE SUB DUP2 ADD SWAP1 PUSH2 0x1BD SWAP2 SWAP1 PUSH2 0x1868 JUMP JUMPDEST PUSH2 0x99D JUMP JUMPDEST STOP JUMPDEST CALLVALUE DUP1 ISZERO PUSH2 0x1D0 JUMPI PUSH1 0x0 DUP1 REVERT JUMPDEST POP PUSH2 0x1D9 PUSH2 0xB2E JUMP JUMPDEST PUSH1 0x40 MLOAD PUSH2 0x1E6 SWAP2 SWAP1 PUSH2 0x1DF1 JUMP JUMPDEST PUSH1 0x40 MLOAD DUP1 SWAP2 SUB SWAP1 RETURN JUMPDEST CALLVALUE DUP1 ISZERO PUSH2 0x1FB JUMPI PUSH1 0x0 DUP1 REVERT JUMPDEST POP PUSH2 0x204 PUSH2 0xC54 JUMP JUMPDEST PUSH1 0x40 MLOAD PUSH2 0x211 SWAP2 SWAP1 PUSH2 0x1DF1 JUMP JUMPDEST PUSH1 0x40 MLOAD DUP1 SWAP2 SUB SWAP1 RETURN JUMPDEST CALLVALUE DUP1 ISZERO PUSH2 0x226 JUMPI PUSH1 0x0 DUP1 REVERT JUMPDEST POP PUSH2 0x241 PUSH1 0x4 DUP1 CALLDATASIZE SUB DUP2 ADD SWAP1 PUSH2 0x23C SWAP2 SWAP1 PUSH2 0x1868 JUMP JUMPDEST PUSH2 0xD3D JUMP JUMPDEST STOP JUMPDEST CALLVALUE DUP1 ISZERO PUSH2 0x24F JUMPI PUSH1 0x0 DUP1 REVERT JUMPDEST POP PUSH2 0x258 PUSH2 0xECE JUMP JUMPDEST PUSH1 0x40 MLOAD PUSH2 0x265 SWAP2 SWAP1 PUSH2 0x1D76 JUMP JUMPDEST PUSH1 0x40 MLOAD DUP1 SWAP2 SUB SWAP1 RETURN JUMPDEST CALLVALUE DUP1 ISZERO PUSH2 0x27A JUMPI PUSH1 0x0 DUP1 REVERT JUMPDEST POP PUSH2 0x283 PUSH2 0xEF4 JUMP JUMPDEST PUSH1 0x40 MLOAD PUSH2 0x290 SWAP2 SWAP1 PUSH2 0x1DF1 JUMP JUMPDEST PUSH1 0x40 MLOAD DUP1 SWAP2 SUB SWAP1 RETURN JUMPDEST CALLVALUE DUP1 ISZERO PUSH2 0x2A5 JUMPI PUSH1 0x0 DUP1 REVERT JUMPDEST POP PUSH2 0x2C0 PUSH1 0x4 DUP1 CALLDATASIZE SUB DUP2 ADD SWAP1 PUSH2 0x2BB SWAP2 SWAP1 PUSH2 0x1827 JUMP JUMPDEST PUSH2 0xFDD JUMP JUMPDEST STOP JUMPDEST CALLVALUE DUP1 ISZERO PUSH2 0x2CE JUMPI PUSH1 0x0 DUP1 REVERT JUMPDEST POP PUSH2 0x2E9 PUSH1 0x4 DUP1 CALLDATASIZE SUB DUP2 ADD SWAP1 PUSH2 0x2E4 SWAP2 SWAP1 PUSH2 0x17D5 JUMP JUMPDEST PUSH2 0x10E3 JUMP JUMPDEST PUSH1 0x40 MLOAD PUSH2 0x2F6 SWAP2 SWAP1 PUSH2 0x1FC1 JUMP JUMPDEST PUSH1 0x40 MLOAD DUP1 SWAP2 SUB SWAP1 RETURN JUMPDEST CALLVALUE DUP1 ISZERO PUSH2 0x30B JUMPI PUSH1 0x0 DUP1 REVERT JUMPDEST POP PUSH2 0x326 PUSH1 0x4 DUP1 CALLDATASIZE SUB DUP2 ADD SWAP1 PUSH2 0x321 SWAP2 SWAP1 PUSH2 0x1827 JUMP JUMPDEST PUSH2 0x1101 JUMP JUMPDEST PUSH1 0x40 MLOAD PUSH2 0x335 SWAP4 SWAP3 SWAP2 SWAP1 PUSH2 0x1EA3 JUMP JUMPDEST PUSH1 0x40 MLOAD DUP1 SWAP2 SUB SWAP1 RETURN JUMPDEST CALLVALUE DUP1 ISZERO PUSH2 0x34A JUMPI PUSH1 0x0 DUP1 REVERT JUMPDEST POP PUSH2 0x365 PUSH1 0x4 DUP1 CALLDATASIZE SUB DUP2 ADD SWAP1 PUSH2 0x360 SWAP2 SWAP1 PUSH2 0x1827 JUMP JUMPDEST PUSH2 0x11E6 JUMP JUMPDEST PUSH1 0x40 MLOAD PUSH2 0x374 SWAP4 SWAP3 SWAP2 SWAP1 PUSH2 0x1EA3 JUMP JUMPDEST PUSH1 0x40 MLOAD DUP1 SWAP2 SUB SWAP1 RETURN JUMPDEST CALLVALUE DUP1 ISZERO PUSH2 0x389 JUMPI PUSH1 0x0 DUP1 REVERT JUMPDEST POP PUSH2 0x3A4 PUSH1 0x4 DUP1 CALLDATASIZE SUB DUP2 ADD SWAP1 PUSH2 0x39F SWAP2 SWAP1 PUSH2 0x1827 JUMP JUMPDEST PUSH2 0x12CB JUMP JUMPDEST STOP JUMPDEST CALLVALUE DUP1 ISZERO PUSH2 0x3B2 JUMPI PUSH1 0x0 DUP1 REVERT JUMPDEST POP PUSH2 0x3BB PUSH2 0x13D1 JUMP JUMPDEST PUSH1 0x40 MLOAD PUSH2 0x3C8 SWAP2 SWAP1 PUSH2 0x1FC1 JUMP JUMPDEST PUSH1 0x40 MLOAD DUP1 SWAP2 SUB SWAP1 RETURN JUMPDEST PUSH2 0x3EB PUSH1 0x4 DUP1 CALLDATASIZE SUB DUP2 ADD SWAP1 PUSH2 0x3E6 SWAP2 SWAP1 PUSH2 0x18BC JUMP JUMPDEST PUSH2 0x1482 JUMP JUMPDEST STOP JUMPDEST PUSH1 0x0 DUP1 PUSH1 0x0 SWAP1 SLOAD SWAP1 PUSH2 0x100 EXP SWAP1 DIV PUSH20 0xFFFFFFFFFFFFFFFFFFFFFFFFFFFFFFFFFFFFFFFF AND PUSH20 0xFFFFFFFFFFFFFFFFFFFFFFFFFFFFFFFFFFFFFFFF AND PUSH4 0x70A08231 ADDRESS PUSH1 0x40 MLOAD DUP3 PUSH4 0xFFFFFFFF AND PUSH1 0xE0 SHL DUP2 MSTORE PUSH1 0x4 ADD PUSH2 0x449 SWAP2 SWAP1 PUSH2 0x1D40 JUMP JUMPDEST PUSH1 0x20 PUSH1 0x40 MLOAD DUP1 DUP4 SUB DUP2 DUP7 DUP1 EXTCODESIZE ISZERO DUP1 ISZERO PUSH2 0x461 JUMPI PUSH1 0x0 DUP1 REVERT JUMPDEST POP GAS STATICCALL ISZERO DUP1 ISZERO PUSH2 0x475 JUMPI RETURNDATASIZE PUSH1 0x0 DUP1 RETURNDATACOPY RETURNDATASIZE PUSH1 0x0 REVERT JUMPDEST POP POP POP POP PUSH1 0x40 MLOAD RETURNDATASIZE PUSH1 0x1F NOT PUSH1 0x1F DUP3 ADD AND DUP3 ADD DUP1 PUSH1 0x40 MSTORE POP DUP2 ADD SWAP1 PUSH2 0x499 SWAP2 SWAP1 PUSH2 0x18E5 JUMP JUMPDEST SWAP1 POP SWAP1 JUMP JUMPDEST CALLER PUSH1 0x1 PUSH1 0x0 SWAP1 SLOAD SWAP1 PUSH2 0x100 EXP SWAP1 DIV PUSH20 0xFFFFFFFFFFFFFFFFFFFFFFFFFFFFFFFFFFFFFFFF AND PUSH20 0xFFFFFFFFFFFFFFFFFFFFFFFFFFFFFFFFFFFFFFFF AND DUP2 PUSH20 0xFFFFFFFFFFFFFFFFFFFFFFFFFFFFFFFFFFFFFFFF AND EQ PUSH2 0x52F JUMPI PUSH1 0x40 MLOAD PUSH32 0x8C379A000000000000000000000000000000000000000000000000000000000 DUP2 MSTORE PUSH1 0x4 ADD PUSH2 0x526 SWAP1 PUSH2 0x1F21 JUMP JUMPDEST PUSH1 0x40 MLOAD DUP1 SWAP2 SUB SWAP1 REVERT JUMPDEST PUSH1 0x0 DUP1 SWAP1 SLOAD SWAP1 PUSH2 0x100 EXP SWAP1 DIV PUSH20 0xFFFFFFFFFFFFFFFFFFFFFFFFFFFFFFFFFFFFFFFF AND PUSH20 0xFFFFFFFFFFFFFFFFFFFFFFFFFFFFFFFFFFFFFFFF AND PUSH4 0x1D43CC98 DUP4 PUSH1 0x40 MLOAD DUP3 PUSH4 0xFFFFFFFF AND PUSH1 0xE0 SHL DUP2 MSTORE PUSH1 0x4 ADD PUSH2 0x589 SWAP2 SWAP1 PUSH2 0x1FC1 JUMP JUMPDEST PUSH1 0x0 PUSH1 0x40 MLOAD DUP1 DUP4 SUB DUP2 PUSH1 0x0 DUP8 DUP1 EXTCODESIZE ISZERO DUP1 ISZERO PUSH2 0x5A3 JUMPI PUSH1 0x0 DUP1 REVERT JUMPDEST POP GAS CALL ISZERO DUP1 ISZERO PUSH2 0x5B7 JUMPI RETURNDATASIZE PUSH1 0x0 DUP1 RETURNDATACOPY RETURNDATASIZE PUSH1 0x0 REVERT JUMPDEST POP POP POP POP POP POP JUMP JUMPDEST PUSH1 0x0 PUSH1 0x3 DUP3 PUSH1 0x40 MLOAD PUSH2 0x5D1 SWAP2 SWAP1 PUSH2 0x1D29 JUMP JUMPDEST SWAP1 DUP2 MSTORE PUSH1 0x20 ADD PUSH1 0x40 MLOAD DUP1 SWAP2 SUB SWAP1 KECCAK256 PUSH1 0x1 ADD SLOAD SWAP1 POP PUSH1 0x1 ISZERO ISZERO PUSH1 0x3 DUP4 PUSH1 0x40 MLOAD PUSH2 0x5F9 SWAP2 SWAP1 PUSH2 0x1D29 JUMP JUMPDEST SWAP1 DUP2 MSTORE PUSH1 0x20 ADD PUSH1 0x40 MLOAD DUP1 SWAP2 SUB SWAP1 KECCAK256 PUSH1 0x2 ADD PUSH1 0x0 SWAP1 SLOAD SWAP1 PUSH2 0x100 EXP SWAP1 DIV PUSH1 0xFF AND ISZERO ISZERO EQ PUSH2 0x65A JUMPI PUSH1 0x40 MLOAD PUSH32 0x8C379A000000000000000000000000000000000000000000000000000000000 DUP2 MSTORE PUSH1 0x4 ADD PUSH2 0x651 SWAP1 PUSH2 0x1EE1 JUMP JUMPDEST PUSH1 0x40 MLOAD DUP1 SWAP2 SUB SWAP1 REVERT JUMPDEST PUSH2 0x662 PUSH2 0x13D1 JUMP JUMPDEST DUP2 GT ISZERO PUSH2 0x6A4 JUMPI PUSH1 0x40 MLOAD PUSH32 0x8C379A000000000000000000000000000000000000000000000000000000000 DUP2 MSTORE PUSH1 0x4 ADD PUSH2 0x69B SWAP1 PUSH2 0x1F01 JUMP JUMPDEST PUSH1 0x40 MLOAD DUP1 SWAP2 SUB SWAP1 REVERT JUMPDEST PUSH1 0x0 DUP1 SWAP1 SLOAD SWAP1 PUSH2 0x100 EXP SWAP1 DIV PUSH20 0xFFFFFFFFFFFFFFFFFFFFFFFFFFFFFFFFFFFFFFFF AND PUSH20 0xFFFFFFFFFFFFFFFFFFFFFFFFFFFFFFFFFFFFFFFF AND PUSH4 0xF490A351 CALLER ADDRESS DUP5 PUSH1 0x40 MLOAD DUP5 PUSH4 0xFFFFFFFF AND PUSH1 0xE0 SHL DUP2 MSTORE PUSH1 0x4 ADD PUSH2 0x702 SWAP4 SWAP3 SWAP2 SWAP1 PUSH2 0x1D91 JUMP JUMPDEST PUSH1 0x20 PUSH1 0x40 MLOAD DUP1 DUP4 SUB DUP2 PUSH1 0x0 DUP8 DUP1 EXTCODESIZE ISZERO DUP1 ISZERO PUSH2 0x71C JUMPI PUSH1 0x0 DUP1 REVERT JUMPDEST POP GAS CALL ISZERO DUP1 ISZERO PUSH2 0x730 JUMPI RETURNDATASIZE PUSH1 0x0 DUP1 RETURNDATACOPY RETURNDATASIZE PUSH1 0x0 REVERT JUMPDEST POP POP POP POP PUSH1 0x40 MLOAD RETURNDATASIZE PUSH1 0x1F NOT PUSH1 0x1F DUP3 ADD AND DUP3 ADD DUP1 PUSH1 0x40 MSTORE POP DUP2 ADD SWAP1 PUSH2 0x754 SWAP2 SWAP1 PUSH2 0x17FE JUMP JUMPDEST POP PUSH1 0x5 PUSH1 0x0 CALLER PUSH20 0xFFFFFFFFFFFFFFFFFFFFFFFFFFFFFFFFFFFFFFFF AND PUSH20 0xFFFFFFFFFFFFFFFFFFFFFFFFFFFFFFFFFFFFFFFF AND DUP2 MSTORE PUSH1 0x20 ADD SWAP1 DUP2 MSTORE PUSH1 0x20 ADD PUSH1 0x0 KECCAK256 DUP3 SWAP1 DUP1 PUSH1 0x1 DUP2 SLOAD ADD DUP1 DUP3 SSTORE DUP1 SWAP2 POP POP PUSH1 0x1 SWAP1 SUB SWAP1 PUSH1 0x0 MSTORE PUSH1 0x20 PUSH1 0x0 KECCAK256 ADD PUSH1 0x0 SWAP1 SWAP2 SWAP1 SWAP2 SWAP1 SWAP2 POP SWAP1 DUP1 MLOAD SWAP1 PUSH1 0x20 ADD SWAP1 PUSH2 0x7CD SWAP3 SWAP2 SWAP1 PUSH2 0x1688 JUMP JUMPDEST POP PUSH32 0x7246A03EDF415AB10AA2E7868F4768980D024A3A86AB68F98FCC21567C2F26D7 DUP3 DUP3 CALLER PUSH1 0x40 MLOAD PUSH2 0x801 SWAP4 SWAP3 SWAP2 SWAP1 PUSH2 0x1E65 JUMP JUMPDEST PUSH1 0x40 MLOAD DUP1 SWAP2 SUB SWAP1 LOG1 POP POP JUMP JUMPDEST PUSH1 0x0 DUP2 GT PUSH2 0x850 JUMPI PUSH1 0x40 MLOAD PUSH32 0x8C379A000000000000000000000000000000000000000000000000000000000 DUP2 MSTORE PUSH1 0x4 ADD PUSH2 0x847 SWAP1 PUSH2 0x1F41 JUMP JUMPDEST PUSH1 0x40 MLOAD DUP1 SWAP2 SUB SWAP1 REVERT JUMPDEST PUSH2 0x858 PUSH2 0x13D1 JUMP JUMPDEST DUP2 GT ISZERO PUSH2 0x89A JUMPI PUSH1 0x40 MLOAD PUSH32 0x8C379A000000000000000000000000000000000000000000000000000000000 DUP2 MSTORE PUSH1 0x4 ADD PUSH2 0x891 SWAP1 PUSH2 0x1FA1 JUMP JUMPDEST PUSH1 0x40 MLOAD DUP1 SWAP2 SUB SWAP1 REVERT JUMPDEST PUSH1 0x0 DUP1 SWAP1 SLOAD SWAP1 PUSH2 0x100 EXP SWAP1 DIV PUSH20 0xFFFFFFFFFFFFFFFFFFFFFFFFFFFFFFFFFFFFFFFF AND PUSH20 0xFFFFFFFFFFFFFFFFFFFFFFFFFFFFFFFFFFFFFFFF AND PUSH4 0xF490A351 CALLER ADDRESS DUP5 PUSH1 0x40 MLOAD DUP5 PUSH4 0xFFFFFFFF AND PUSH1 0xE0 SHL DUP2 MSTORE PUSH1 0x4 ADD PUSH2 0x8F8 SWAP4 SWAP3 SWAP2 SWAP1 PUSH2 0x1D91 JUMP JUMPDEST PUSH1 0x20 PUSH1 0x40 MLOAD DUP1 DUP4 SUB DUP2 PUSH1 0x0 DUP8 DUP1 EXTCODESIZE ISZERO DUP1 ISZERO PUSH2 0x912 JUMPI PUSH1 0x0 DUP1 REVERT JUMPDEST POP GAS CALL ISZERO DUP1 ISZERO PUSH2 0x926 JUMPI RETURNDATASIZE PUSH1 0x0 DUP1 RETURNDATACOPY RETURNDATASIZE PUSH1 0x0 REVERT JUMPDEST POP POP POP POP PUSH1 0x40 MLOAD RETURNDATASIZE PUSH1 0x1F NOT PUSH1 0x1F DUP3 ADD AND DUP3 ADD DUP1 PUSH1 0x40 MSTORE POP DUP2 ADD SWAP1 PUSH2 0x94A SWAP2 SWAP1 PUSH2 0x17FE JUMP JUMPDEST POP CALLER PUSH20 0xFFFFFFFFFFFFFFFFFFFFFFFFFFFFFFFFFFFFFFFF AND PUSH2 0x8FC PUSH2 0x96E DUP4 PUSH2 0x1674 JUMP JUMPDEST SWAP1 DUP2 ISZERO MUL SWAP1 PUSH1 0x40 MLOAD PUSH1 0x0 PUSH1 0x40 MLOAD DUP1 DUP4 SUB DUP2 DUP6 DUP9 DUP9 CALL SWAP4 POP POP POP POP ISZERO DUP1 ISZERO PUSH2 0x999 JUMPI RETURNDATASIZE PUSH1 0x0 DUP1 RETURNDATACOPY RETURNDATASIZE PUSH1 0x0 REVERT JUMPDEST POP POP JUMP JUMPDEST CALLER PUSH1 0x1 PUSH1 0x0 SWAP1 SLOAD SWAP1 PUSH2 0x100 EXP SWAP1 DIV PUSH20 0xFFFFFFFFFFFFFFFFFFFFFFFFFFFFFFFFFFFFFFFF AND PUSH20 0xFFFFFFFFFFFFFFFFFFFFFFFFFFFFFFFFFFFFFFFF AND DUP2 PUSH20 0xFFFFFFFFFFFFFFFFFFFFFFFFFFFFFFFFFFFFFFFF AND EQ PUSH2 0xA2E JUMPI PUSH1 0x40 MLOAD PUSH32 0x8C379A000000000000000000000000000000000000000000000000000000000 DUP2 MSTORE PUSH1 0x4 ADD PUSH2 0xA25 SWAP1 PUSH2 0x1F21 JUMP JUMPDEST PUSH1 0x40 MLOAD DUP1 SWAP2 SUB SWAP1 REVERT JUMPDEST PUSH1 0x40 MLOAD DUP1 PUSH1 0x60 ADD PUSH1 0x40 MSTORE DUP1 DUP5 DUP2 MSTORE PUSH1 0x20 ADD DUP4 DUP2 MSTORE PUSH1 0x20 ADD PUSH1 0x1 ISZERO ISZERO DUP2 MSTORE POP PUSH1 0x6 DUP5 PUSH1 0x40 MLOAD PUSH2 0xA5C SWAP2 SWAP1 PUSH2 0x1D29 JUMP JUMPDEST SWAP1 DUP2 MSTORE PUSH1 0x20 ADD PUSH1 0x40 MLOAD DUP1 SWAP2 SUB SWAP1 KECCAK256 PUSH1 0x0 DUP3 ADD MLOAD DUP2 PUSH1 0x0 ADD SWAP1 DUP1 MLOAD SWAP1 PUSH1 0x20 ADD SWAP1 PUSH2 0xA86 SWAP3 SWAP2 SWAP1 PUSH2 0x1688 JUMP JUMPDEST POP PUSH1 0x20 DUP3 ADD MLOAD DUP2 PUSH1 0x1 ADD SSTORE PUSH1 0x40 DUP3 ADD MLOAD DUP2 PUSH1 0x2 ADD PUSH1 0x0 PUSH2 0x100 EXP DUP2 SLOAD DUP2 PUSH1 0xFF MUL NOT AND SWAP1 DUP4 ISZERO ISZERO MUL OR SWAP1 SSTORE POP SWAP1 POP POP PUSH1 0x7 DUP4 SWAP1 DUP1 PUSH1 0x1 DUP2 SLOAD ADD DUP1 DUP3 SSTORE DUP1 SWAP2 POP POP PUSH1 0x1 SWAP1 SUB SWAP1 PUSH1 0x0 MSTORE PUSH1 0x20 PUSH1 0x0 KECCAK256 ADD PUSH1 0x0 SWAP1 SWAP2 SWAP1 SWAP2 SWAP1 SWAP2 POP SWAP1 DUP1 MLOAD SWAP1 PUSH1 0x20 ADD SWAP1 PUSH2 0xAEF SWAP3 SWAP2 SWAP1 PUSH2 0x1688 JUMP JUMPDEST POP PUSH32 0x4822082A8FC27E02F7551BBA1D63C9AA17637AA764B17878BAC1197DDD4C6028 DUP4 DUP4 PUSH1 0x40 MLOAD PUSH2 0xB21 SWAP3 SWAP2 SWAP1 PUSH2 0x1E35 JUMP JUMPDEST PUSH1 0x40 MLOAD DUP1 SWAP2 SUB SWAP1 LOG1 POP POP POP JUMP JUMPDEST PUSH1 0x60 PUSH1 0x5 PUSH1 0x0 CALLER PUSH20 0xFFFFFFFFFFFFFFFFFFFFFFFFFFFFFFFFFFFFFFFF AND PUSH20 0xFFFFFFFFFFFFFFFFFFFFFFFFFFFFFFFFFFFFFFFF AND DUP2 MSTORE PUSH1 0x20 ADD SWAP1 DUP2 MSTORE PUSH1 0x20 ADD PUSH1 0x0 KECCAK256 DUP1 SLOAD DUP1 PUSH1 0x20 MUL PUSH1 0x20 ADD PUSH1 0x40 MLOAD SWAP1 DUP2 ADD PUSH1 0x40 MSTORE DUP1 SWAP3 SWAP2 SWAP1 DUP2 DUP2 MSTORE PUSH1 0x20 ADD PUSH1 0x0 SWAP1 JUMPDEST DUP3 DUP3 LT ISZERO PUSH2 0xC4B JUMPI DUP4 DUP3 SWAP1 PUSH1 0x0 MSTORE PUSH1 0x20 PUSH1 0x0 KECCAK256 ADD DUP1 SLOAD PUSH1 0x1 DUP2 PUSH1 0x1 AND ISZERO PUSH2 0x100 MUL SUB AND PUSH1 0x2 SWAP1 DIV DUP1 PUSH1 0x1F ADD PUSH1 0x20 DUP1 SWAP2 DIV MUL PUSH1 0x20 ADD PUSH1 0x40 MLOAD SWAP1 DUP2 ADD PUSH1 0x40 MSTORE DUP1 SWAP3 SWAP2 SWAP1 DUP2 DUP2 MSTORE PUSH1 0x20 ADD DUP3 DUP1 SLOAD PUSH1 0x1 DUP2 PUSH1 0x1 AND ISZERO PUSH2 0x100 MUL SUB AND PUSH1 0x2 SWAP1 DIV DUP1 ISZERO PUSH2 0xC37 JUMPI DUP1 PUSH1 0x1F LT PUSH2 0xC0C JUMPI PUSH2 0x100 DUP1 DUP4 SLOAD DIV MUL DUP4 MSTORE SWAP2 PUSH1 0x20 ADD SWAP2 PUSH2 0xC37 JUMP JUMPDEST DUP3 ADD SWAP2 SWAP1 PUSH1 0x0 MSTORE PUSH1 0x20 PUSH1 0x0 KECCAK256 SWAP1 JUMPDEST DUP2 SLOAD DUP2 MSTORE SWAP1 PUSH1 0x1 ADD SWAP1 PUSH1 0x20 ADD DUP1 DUP4 GT PUSH2 0xC1A JUMPI DUP3 SWAP1 SUB PUSH1 0x1F AND DUP3 ADD SWAP2 JUMPDEST POP POP POP POP POP DUP2 MSTORE PUSH1 0x20 ADD SWAP1 PUSH1 0x1 ADD SWAP1 PUSH2 0xB8F JUMP JUMPDEST POP POP POP POP SWAP1 POP SWAP1 JUMP JUMPDEST PUSH1 0x60 PUSH1 0x4 DUP1 SLOAD DUP1 PUSH1 0x20 MUL PUSH1 0x20 ADD PUSH1 0x40 MLOAD SWAP1 DUP2 ADD PUSH1 0x40 MSTORE DUP1 SWAP3 SWAP2 SWAP1 DUP2 DUP2 MSTORE PUSH1 0x20 ADD PUSH1 0x0 SWAP1 JUMPDEST DUP3 DUP3 LT ISZERO PUSH2 0xD34 JUMPI DUP4 DUP3 SWAP1 PUSH1 0x0 MSTORE PUSH1 0x20 PUSH1 0x0 KECCAK256 ADD DUP1 SLOAD PUSH1 0x1 DUP2 PUSH1 0x1 AND ISZERO PUSH2 0x100 MUL SUB AND PUSH1 0x2 SWAP1 DIV DUP1 PUSH1 0x1F ADD PUSH1 0x20 DUP1 SWAP2 DIV MUL PUSH1 0x20 ADD PUSH1 0x40 MLOAD SWAP1 DUP2 ADD PUSH1 0x40 MSTORE DUP1 SWAP3 SWAP2 SWAP1 DUP2 DUP2 MSTORE PUSH1 0x20 ADD DUP3 DUP1 SLOAD PUSH1 0x1 DUP2 PUSH1 0x1 AND ISZERO PUSH2 0x100 MUL SUB AND PUSH1 0x2 SWAP1 DIV DUP1 ISZERO PUSH2 0xD20 JUMPI DUP1 PUSH1 0x1F LT PUSH2 0xCF5 JUMPI PUSH2 0x100 DUP1 DUP4 SLOAD DIV MUL DUP4 MSTORE SWAP2 PUSH1 0x20 ADD SWAP2 PUSH2 0xD20 JUMP JUMPDEST DUP3 ADD SWAP2 SWAP1 PUSH1 0x0 MSTORE PUSH1 0x20 PUSH1 0x0 KECCAK256 SWAP1 JUMPDEST DUP2 SLOAD DUP2 MSTORE SWAP1 PUSH1 0x1 ADD SWAP1 PUSH1 0x20 ADD DUP1 DUP4 GT PUSH2 0xD03 JUMPI DUP3 SWAP1 SUB PUSH1 0x1F AND DUP3 ADD SWAP2 JUMPDEST POP POP POP POP POP DUP2 MSTORE PUSH1 0x20 ADD SWAP1 PUSH1 0x1 ADD SWAP1 PUSH2 0xC78 JUMP JUMPDEST POP POP POP POP SWAP1 POP SWAP1 JUMP JUMPDEST CALLER PUSH1 0x1 PUSH1 0x0 SWAP1 SLOAD SWAP1 PUSH2 0x100 EXP SWAP1 DIV PUSH20 0xFFFFFFFFFFFFFFFFFFFFFFFFFFFFFFFFFFFFFFFF AND PUSH20 0xFFFFFFFFFFFFFFFFFFFFFFFFFFFFFFFFFFFFFFFF AND DUP2 PUSH20 0xFFFFFFFFFFFFFFFFFFFFFFFFFFFFFFFFFFFFFFFF AND EQ PUSH2 0xDCE JUMPI PUSH1 0x40 MLOAD PUSH32 0x8C379A000000000000000000000000000000000000000000000000000000000 DUP2 MSTORE PUSH1 0x4 ADD PUSH2 0xDC5 SWAP1 PUSH2 0x1F21 JUMP JUMPDEST PUSH1 0x40 MLOAD DUP1 SWAP2 SUB SWAP1 REVERT JUMPDEST PUSH1 0x40 MLOAD DUP1 PUSH1 0x60 ADD PUSH1 0x40 MSTORE DUP1 DUP5 DUP2 MSTORE PUSH1 0x20 ADD DUP4 DUP2 MSTORE PUSH1 0x20 ADD PUSH1 0x1 ISZERO ISZERO DUP2 MSTORE POP PUSH1 0x3 DUP5 PUSH1 0x40 MLOAD PUSH2 0xDFC SWAP2 SWAP1 PUSH2 0x1D29 JUMP JUMPDEST SWAP1 DUP2 MSTORE PUSH1 0x20 ADD PUSH1 0x40 MLOAD DUP1 SWAP2 SUB SWAP1 KECCAK256 PUSH1 0x0 DUP3 ADD MLOAD DUP2 PUSH1 0x0 ADD SWAP1 DUP1 MLOAD SWAP1 PUSH1 0x20 ADD SWAP1 PUSH2 0xE26 SWAP3 SWAP2 SWAP1 PUSH2 0x1688 JUMP JUMPDEST POP PUSH1 0x20 DUP3 ADD MLOAD DUP2 PUSH1 0x1 ADD SSTORE PUSH1 0x40 DUP3 ADD MLOAD DUP2 PUSH1 0x2 ADD PUSH1 0x0 PUSH2 0x100 EXP DUP2 SLOAD DUP2 PUSH1 0xFF MUL NOT AND SWAP1 DUP4 ISZERO ISZERO MUL OR SWAP1 SSTORE POP SWAP1 POP POP PUSH1 0x4 DUP4 SWAP1 DUP1 PUSH1 0x1 DUP2 SLOAD ADD DUP1 DUP3 SSTORE DUP1 SWAP2 POP POP PUSH1 0x1 SWAP1 SUB SWAP1 PUSH1 0x0 MSTORE PUSH1 0x20 PUSH1 0x0 KECCAK256 ADD PUSH1 0x0 SWAP1 SWAP2 SWAP1 SWAP2 SWAP1 SWAP2 POP SWAP1 DUP1 MLOAD SWAP1 PUSH1 0x20 ADD SWAP1 PUSH2 0xE8F SWAP3 SWAP2 SWAP1 PUSH2 0x1688 JUMP JUMPDEST POP PUSH32 0xEF69C38FE63A06C66BF59A6EEDC8716EBA333ED78488E0B767455A9CF2EECBB3 DUP4 DUP4 PUSH1 0x40 MLOAD PUSH2 0xEC1 SWAP3 SWAP2 SWAP1 PUSH2 0x1E35 JUMP JUMPDEST PUSH1 0x40 MLOAD DUP1 SWAP2 SUB SWAP1 LOG1 POP POP POP JUMP JUMPDEST PUSH1 0x1 PUSH1 0x0 SWAP1 SLOAD SWAP1 PUSH2 0x100 EXP SWAP1 DIV PUSH20 0xFFFFFFFFFFFFFFFFFFFFFFFFFFFFFFFFFFFFFFFF AND DUP2 JUMP JUMPDEST PUSH1 0x60 PUSH1 0x7 DUP1 SLOAD DUP1 PUSH1 0x20 MUL PUSH1 0x20 ADD PUSH1 0x40 MLOAD SWAP1 DUP2 ADD PUSH1 0x40 MSTORE DUP1 SWAP3 SWAP2 SWAP1 DUP2 DUP2 MSTORE PUSH1 0x20 ADD PUSH1 0x0 SWAP1 JUMPDEST DUP3 DUP3 LT ISZERO PUSH2 0xFD4 JUMPI DUP4 DUP3 SWAP1 PUSH1 0x0 MSTORE PUSH1 0x20 PUSH1 0x0 KECCAK256 ADD DUP1 SLOAD PUSH1 0x1 DUP2 PUSH1 0x1 AND ISZERO PUSH2 0x100 MUL SUB AND PUSH1 0x2 SWAP1 DIV DUP1 PUSH1 0x1F ADD PUSH1 0x20 DUP1 SWAP2 DIV MUL PUSH1 0x20 ADD PUSH1 0x40 MLOAD SWAP1 DUP2 ADD PUSH1 0x40 MSTORE DUP1 SWAP3 SWAP2 SWAP1 DUP2 DUP2 MSTORE PUSH1 0x20 ADD DUP3 DUP1 SLOAD PUSH1 0x1 DUP2 PUSH1 0x1 AND ISZERO PUSH2 0x100 MUL SUB AND PUSH1 0x2 SWAP1 DIV DUP1 ISZERO PUSH2 0xFC0 JUMPI DUP1 PUSH1 0x1F LT PUSH2 0xF95 JUMPI PUSH2 0x100 DUP1 DUP4 SLOAD DIV MUL DUP4 MSTORE SWAP2 PUSH1 0x20 ADD SWAP2 PUSH2 0xFC0 JUMP JUMPDEST DUP3 ADD SWAP2 SWAP1 PUSH1 0x0 MSTORE PUSH1 0x20 PUSH1 0x0 KECCAK256 SWAP1 JUMPDEST DUP2 SLOAD DUP2 MSTORE SWAP1 PUSH1 0x1 ADD SWAP1 PUSH1 0x20 ADD DUP1 DUP4 GT PUSH2 0xFA3 JUMPI DUP3 SWAP1 SUB PUSH1 0x1F AND DUP3 ADD SWAP2 JUMPDEST POP POP POP POP POP DUP2 MSTORE PUSH1 0x20 ADD SWAP1 PUSH1 0x1 ADD SWAP1 PUSH2 0xF18 JUMP JUMPDEST POP POP POP POP SWAP1 POP SWAP1 JUMP JUMPDEST CALLER PUSH1 0x1 PUSH1 0x0 SWAP1 SLOAD SWAP1 PUSH2 0x100 EXP SWAP1 DIV PUSH20 0xFFFFFFFFFFFFFFFFFFFFFFFFFFFFFFFFFFFFFFFF AND PUSH20 0xFFFFFFFFFFFFFFFFFFFFFFFFFFFFFFFFFFFFFFFF AND DUP2 PUSH20 0xFFFFFFFFFFFFFFFFFFFFFFFFFFFFFFFFFFFFFFFF AND EQ PUSH2 0x106E JUMPI PUSH1 0x40 MLOAD PUSH32 0x8C379A000000000000000000000000000000000000000000000000000000000 DUP2 MSTORE PUSH1 0x4 ADD PUSH2 0x1065 SWAP1 PUSH2 0x1F21 JUMP JUMPDEST PUSH1 0x40 MLOAD DUP1 SWAP2 SUB SWAP1 REVERT JUMPDEST PUSH1 0x0 PUSH1 0x3 DUP4 PUSH1 0x40 MLOAD PUSH2 0x1080 SWAP2 SWAP1 PUSH2 0x1D29 JUMP JUMPDEST SWAP1 DUP2 MSTORE PUSH1 0x20 ADD PUSH1 0x40 MLOAD DUP1 SWAP2 SUB SWAP1 KECCAK256 PUSH1 0x2 ADD PUSH1 0x0 PUSH2 0x100 EXP DUP2 SLOAD DUP2 PUSH1 0xFF MUL NOT AND SWAP1 DUP4 ISZERO ISZERO MUL OR SWAP1 SSTORE POP PUSH32 0x24BA6C881728980191398DB8DCFD8ED4F6AEB1C08DF349D63F3B85075F3E86DD DUP3 PUSH1 0x40 MLOAD PUSH2 0x10D7 SWAP2 SWAP1 PUSH2 0x1E13 JUMP JUMPDEST PUSH1 0x40 MLOAD DUP1 SWAP2 SUB SWAP1 LOG1 POP POP JUMP JUMPDEST PUSH1 0x2 PUSH1 0x20 MSTORE DUP1 PUSH1 0x0 MSTORE PUSH1 0x40 PUSH1 0x0 KECCAK256 PUSH1 0x0 SWAP2 POP SWAP1 POP DUP1 PUSH1 0x0 ADD SLOAD SWAP1 POP DUP2 JUMP JUMPDEST PUSH1 0x3 DUP2 DUP1 MLOAD PUSH1 0x20 DUP2 ADD DUP3 ADD DUP1 MLOAD DUP5 DUP3 MSTORE PUSH1 0x20 DUP4 ADD PUSH1 0x20 DUP6 ADD KECCAK256 DUP2 DUP4 MSTORE DUP1 SWAP6 POP POP POP POP POP POP PUSH1 0x0 SWAP2 POP SWAP1 POP DUP1 PUSH1 0x0 ADD DUP1 SLOAD PUSH1 0x1 DUP2 PUSH1 0x1 AND ISZERO PUSH2 0x100 MUL SUB AND PUSH1 0x2 SWAP1 DIV DUP1 PUSH1 0x1F ADD PUSH1 0x20 DUP1 SWAP2 DIV MUL PUSH1 0x20 ADD PUSH1 0x40 MLOAD SWAP1 DUP2 ADD PUSH1 0x40 MSTORE DUP1 SWAP3 SWAP2 SWAP1 DUP2 DUP2 MSTORE PUSH1 0x20 ADD DUP3 DUP1 SLOAD PUSH1 0x1 DUP2 PUSH1 0x1 AND ISZERO PUSH2 0x100 MUL SUB AND PUSH1 0x2 SWAP1 DIV DUP1 ISZERO PUSH2 0x11C3 JUMPI DUP1 PUSH1 0x1F LT PUSH2 0x1198 JUMPI PUSH2 0x100 DUP1 DUP4 SLOAD DIV MUL DUP4 MSTORE SWAP2 PUSH1 0x20 ADD SWAP2 PUSH2 0x11C3 JUMP JUMPDEST DUP3 ADD SWAP2 SWAP1 PUSH1 0x0 MSTORE PUSH1 0x20 PUSH1 0x0 KECCAK256 SWAP1 JUMPDEST DUP2 SLOAD DUP2 MSTORE SWAP1 PUSH1 0x1 ADD SWAP1 PUSH1 0x20 ADD DUP1 DUP4 GT PUSH2 0x11A6 JUMPI DUP3 SWAP1 SUB PUSH1 0x1F AND DUP3 ADD SWAP2 JUMPDEST POP POP POP POP POP SWAP1 DUP1 PUSH1 0x1 ADD SLOAD SWAP1 DUP1 PUSH1 0x2 ADD PUSH1 0x0 SWAP1 SLOAD SWAP1 PUSH2 0x100 EXP SWAP1 DIV PUSH1 0xFF AND SWAP1 POP DUP4 JUMP JUMPDEST PUSH1 0x6 DUP2 DUP1 MLOAD PUSH1 0x20 DUP2 ADD DUP3 ADD DUP1 MLOAD DUP5 DUP3 MSTORE PUSH1 0x20 DUP4 ADD PUSH1 0x20 DUP6 ADD KECCAK256 DUP2 DUP4 MSTORE DUP1 SWAP6 POP POP POP POP POP POP PUSH1 0x0 SWAP2 POP SWAP1 POP DUP1 PUSH1 0x0 ADD DUP1 SLOAD PUSH1 0x1 DUP2 PUSH1 0x1 AND ISZERO PUSH2 0x100 MUL SUB AND PUSH1 0x2 SWAP1 DIV DUP1 PUSH1 0x1F ADD PUSH1 0x20 DUP1 SWAP2 DIV MUL PUSH1 0x20 ADD PUSH1 0x40 MLOAD SWAP1 DUP2 ADD PUSH1 0x40 MSTORE DUP1 SWAP3 SWAP2 SWAP1 DUP2 DUP2 MSTORE PUSH1 0x20 ADD DUP3 DUP1 SLOAD PUSH1 0x1 DUP2 PUSH1 0x1 AND ISZERO PUSH2 0x100 MUL SUB AND PUSH1 0x2 SWAP1 DIV DUP1 ISZERO PUSH2 0x12A8 JUMPI DUP1 PUSH1 0x1F LT PUSH2 0x127D JUMPI PUSH2 0x100 DUP1 DUP4 SLOAD DIV MUL DUP4 MSTORE SWAP2 PUSH1 0x20 ADD SWAP2 PUSH2 0x12A8 JUMP JUMPDEST DUP3 ADD SWAP2 SWAP1 PUSH1 0x0 MSTORE PUSH1 0x20 PUSH1 0x0 KECCAK256 SWAP1 JUMPDEST DUP2 SLOAD DUP2 MSTORE SWAP1 PUSH1 0x1 ADD SWAP1 PUSH1 0x20 ADD DUP1 DUP4 GT PUSH2 0x128B JUMPI DUP3 SWAP1 SUB PUSH1 0x1F AND DUP3 ADD SWAP2 JUMPDEST POP POP POP POP POP SWAP1 DUP1 PUSH1 0x1 ADD SLOAD SWAP1 DUP1 PUSH1 0x2 ADD PUSH1 0x0 SWAP1 SLOAD SWAP1 PUSH2 0x100 EXP SWAP1 DIV PUSH1 0xFF AND SWAP1 POP DUP4 JUMP JUMPDEST CALLER PUSH1 0x1 PUSH1 0x0 SWAP1 SLOAD SWAP1 PUSH2 0x100 EXP SWAP1 DIV PUSH20 0xFFFFFFFFFFFFFFFFFFFFFFFFFFFFFFFFFFFFFFFF AND PUSH20 0xFFFFFFFFFFFFFFFFFFFFFFFFFFFFFFFFFFFFFFFF AND DUP2 PUSH20 0xFFFFFFFFFFFFFFFFFFFFFFFFFFFFFFFFFFFFFFFF AND EQ PUSH2 0x135C JUMPI PUSH1 0x40 MLOAD PUSH32 0x8C379A000000000000000000000000000000000000000000000000000000000 DUP2 MSTORE PUSH1 0x4 ADD PUSH2 0x1353 SWAP1 PUSH2 0x1F21 JUMP JUMPDEST PUSH1 0x40 MLOAD DUP1 SWAP2 SUB SWAP1 REVERT JUMPDEST PUSH1 0x0 PUSH1 0x6 DUP4 PUSH1 0x40 MLOAD PUSH2 0x136E SWAP2 SWAP1 PUSH2 0x1D29 JUMP JUMPDEST SWAP1 DUP2 MSTORE PUSH1 0x20 ADD PUSH1 0x40 MLOAD DUP1 SWAP2 SUB SWAP1 KECCAK256 PUSH1 0x2 ADD PUSH1 0x0 PUSH2 0x100 EXP DUP2 SLOAD DUP2 PUSH1 0xFF MUL NOT AND SWAP1 DUP4 ISZERO ISZERO MUL OR SWAP1 SSTORE POP PUSH32 0xC08B02EC29B10837B03BA712BE7196CCD02824C57A727DBD6C9718051C9437C6 DUP3 PUSH1 0x40 MLOAD PUSH2 0x13C5 SWAP2 SWAP1 PUSH2 0x1E13 JUMP JUMPDEST PUSH1 0x40 MLOAD DUP1 SWAP2 SUB SWAP1 LOG1 POP POP JUMP JUMPDEST PUSH1 0x0 DUP1 PUSH1 0x0 SWAP1 SLOAD SWAP1 PUSH2 0x100 EXP SWAP1 DIV PUSH20 0xFFFFFFFFFFFFFFFFFFFFFFFFFFFFFFFFFFFFFFFF AND PUSH20 0xFFFFFFFFFFFFFFFFFFFFFFFFFFFFFFFFFFFFFFFF AND PUSH4 0x70A08231 CALLER PUSH1 0x40 MLOAD DUP3 PUSH4 0xFFFFFFFF AND PUSH1 0xE0 SHL DUP2 MSTORE PUSH1 0x4 ADD PUSH2 0x142D SWAP2 SWAP1 PUSH2 0x1D5B JUMP JUMPDEST PUSH1 0x20 PUSH1 0x40 MLOAD DUP1 DUP4 SUB DUP2 DUP7 DUP1 EXTCODESIZE ISZERO DUP1 ISZERO PUSH2 0x1445 JUMPI PUSH1 0x0 DUP1 REVERT JUMPDEST POP GAS STATICCALL ISZERO DUP1 ISZERO PUSH2 0x1459 JUMPI RETURNDATASIZE PUSH1 0x0 DUP1 RETURNDATACOPY RETURNDATASIZE PUSH1 0x0 REVERT JUMPDEST POP POP POP POP PUSH1 0x40 MLOAD RETURNDATASIZE PUSH1 0x1F NOT PUSH1 0x1F DUP3 ADD AND DUP3 ADD DUP1 PUSH1 0x40 MSTORE POP DUP2 ADD SWAP1 PUSH2 0x147D SWAP2 SWAP1 PUSH2 0x18E5 JUMP JUMPDEST SWAP1 POP SWAP1 JUMP JUMPDEST PUSH1 0x0 PUSH2 0x148D DUP3 PUSH2 0x1674 JUMP JUMPDEST SWAP1 POP DUP1 CALLVALUE LT ISZERO PUSH2 0x14D2 JUMPI PUSH1 0x40 MLOAD PUSH32 0x8C379A000000000000000000000000000000000000000000000000000000000 DUP2 MSTORE PUSH1 0x4 ADD PUSH2 0x14C9 SWAP1 PUSH2 0x1F61 JUMP JUMPDEST PUSH1 0x40 MLOAD DUP1 SWAP2 SUB SWAP1 REVERT JUMPDEST PUSH1 0x0 DUP2 CALLVALUE SUB SWAP1 POP CALLER PUSH20 0xFFFFFFFFFFFFFFFFFFFFFFFFFFFFFFFFFFFFFFFF AND PUSH2 0x8FC DUP3 SWAP1 DUP2 ISZERO MUL SWAP1 PUSH1 0x40 MLOAD PUSH1 0x0 PUSH1 0x40 MLOAD DUP1 DUP4 SUB DUP2 DUP6 DUP9 DUP9 CALL SWAP4 POP POP POP POP ISZERO DUP1 ISZERO PUSH2 0x151F JUMPI RETURNDATASIZE PUSH1 0x0 DUP1 RETURNDATACOPY RETURNDATASIZE PUSH1 0x0 REVERT JUMPDEST POP PUSH1 0x0 PUSH2 0x152A PUSH2 0x3ED JUMP JUMPDEST SWAP1 POP DUP1 DUP5 GT ISZERO PUSH2 0x156F JUMPI PUSH1 0x40 MLOAD PUSH32 0x8C379A000000000000000000000000000000000000000000000000000000000 DUP2 MSTORE PUSH1 0x4 ADD PUSH2 0x1566 SWAP1 PUSH2 0x1F81 JUMP JUMPDEST PUSH1 0x40 MLOAD DUP1 SWAP2 SUB SWAP1 REVERT JUMPDEST PUSH1 0x0 DUP1 SWAP1 SLOAD SWAP1 PUSH2 0x100 EXP SWAP1 DIV PUSH20 0xFFFFFFFFFFFFFFFFFFFFFFFFFFFFFFFFFFFFFFFF AND PUSH20 0xFFFFFFFFFFFFFFFFFFFFFFFFFFFFFFFFFFFFFFFF AND PUSH4 0xA9059CBB CALLER DUP7 PUSH1 0x40 MLOAD DUP4 PUSH4 0xFFFFFFFF AND PUSH1 0xE0 SHL DUP2 MSTORE PUSH1 0x4 ADD PUSH2 0x15CB SWAP3 SWAP2 SWAP1 PUSH2 0x1DC8 JUMP JUMPDEST PUSH1 0x20 PUSH1 0x40 MLOAD DUP1 DUP4 SUB DUP2 PUSH1 0x0 DUP8 DUP1 EXTCODESIZE ISZERO DUP1 ISZERO PUSH2 0x15E5 JUMPI PUSH1 0x0 DUP1 REVERT JUMPDEST POP GAS CALL ISZERO DUP1 ISZERO PUSH2 0x15F9 JUMPI RETURNDATASIZE PUSH1 0x0 DUP1 RETURNDATACOPY RETURNDATASIZE PUSH1 0x0 REVERT JUMPDEST POP POP POP POP PUSH1 0x40 MLOAD RETURNDATASIZE PUSH1 0x1F NOT PUSH1 0x1F DUP3 ADD AND DUP3 ADD DUP1 PUSH1 0x40 MSTORE POP DUP2 ADD SWAP1 PUSH2 0x161D SWAP2 SWAP1 PUSH2 0x17FE JUMP JUMPDEST POP DUP4 PUSH1 0x2 PUSH1 0x0 CALLER PUSH20 0xFFFFFFFFFFFFFFFFFFFFFFFFFFFFFFFFFFFFFFFF AND PUSH20 0xFFFFFFFFFFFFFFFFFFFFFFFFFFFFFFFFFFFFFFFF AND DUP2 MSTORE PUSH1 0x20 ADD SWAP1 DUP2 MSTORE PUSH1 0x20 ADD PUSH1 0x0 KECCAK256 PUSH1 0x0 ADD PUSH1 0x0 DUP3 DUP3 SLOAD ADD SWAP3 POP POP DUP2 SWAP1 SSTORE POP POP POP POP POP JUMP JUMPDEST PUSH1 0x0 PUSH8 0x16345785D8A0000 DUP3 MUL SWAP1 POP SWAP2 SWAP1 POP JUMP JUMPDEST DUP3 DUP1 SLOAD PUSH1 0x1 DUP2 PUSH1 0x1 AND ISZERO PUSH2 0x100 MUL SUB AND PUSH1 0x2 SWAP1 DIV SWAP1 PUSH1 0x0 MSTORE PUSH1 0x20 PUSH1 0x0 KECCAK256 SWAP1 PUSH1 0x1F ADD PUSH1 0x20 SWAP1 DIV DUP2 ADD SWAP3 DUP3 PUSH1 0x1F LT PUSH2 0x16C9 JUMPI DUP1 MLOAD PUSH1 0xFF NOT AND DUP4 DUP1 ADD OR DUP6 SSTORE PUSH2 0x16F7 JUMP JUMPDEST DUP3 DUP1 ADD PUSH1 0x1 ADD DUP6 SSTORE DUP3 ISZERO PUSH2 0x16F7 JUMPI SWAP2 DUP3 ADD JUMPDEST DUP3 DUP2 GT ISZERO PUSH2 0x16F6 JUMPI DUP3 MLOAD DUP3 SSTORE SWAP2 PUSH1 0x20 ADD SWAP2 SWAP1 PUSH1 0x1 ADD SWAP1 PUSH2 0x16DB JUMP JUMPDEST JUMPDEST POP SWAP1 POP PUSH2 0x1704 SWAP2 SWAP1 PUSH2 0x1708 JUMP JUMPDEST POP SWAP1 JUMP JUMPDEST PUSH2 0x172A SWAP2 SWAP1 JUMPDEST DUP1 DUP3 GT ISZERO PUSH2 0x1726 JUMPI PUSH1 0x0 DUP2 PUSH1 0x0 SWAP1 SSTORE POP PUSH1 0x1 ADD PUSH2 0x170E JUMP JUMPDEST POP SWAP1 JUMP JUMPDEST SWAP1 JUMP JUMPDEST PUSH1 0x0 DUP2 CALLDATALOAD SWAP1 POP PUSH2 0x173C DUP2 PUSH2 0x2189 JUMP JUMPDEST SWAP3 SWAP2 POP POP JUMP JUMPDEST PUSH1 0x0 DUP2 MLOAD SWAP1 POP PUSH2 0x1751 DUP2 PUSH2 0x21A0 JUMP JUMPDEST SWAP3 SWAP2 POP POP JUMP JUMPDEST PUSH1 0x0 DUP3 PUSH1 0x1F DUP4 ADD SLT PUSH2 0x1768 JUMPI PUSH1 0x0 DUP1 REVERT JUMPDEST DUP2 CALLDATALOAD PUSH2 0x177B PUSH2 0x1776 DUP3 PUSH2 0x2009 JUMP JUMPDEST PUSH2 0x1FDC JUMP JUMPDEST SWAP2 POP DUP1 DUP3 MSTORE PUSH1 0x20 DUP4 ADD PUSH1 0x20 DUP4 ADD DUP6 DUP4 DUP4 ADD GT ISZERO PUSH2 0x1797 JUMPI PUSH1 0x0 DUP1 REVERT JUMPDEST PUSH2 0x17A2 DUP4 DUP3 DUP5 PUSH2 0x2136 JUMP JUMPDEST POP POP POP SWAP3 SWAP2 POP POP JUMP JUMPDEST PUSH1 0x0 DUP2 CALLDATALOAD SWAP1 POP PUSH2 0x17BA DUP2 PUSH2 0x21B7 JUMP JUMPDEST SWAP3 SWAP2 POP POP JUMP JUMPDEST PUSH1 0x0 DUP2 MLOAD SWAP1 POP PUSH2 0x17CF DUP2 PUSH2 0x21B7 JUMP JUMPDEST SWAP3 SWAP2 POP POP JUMP JUMPDEST PUSH1 0x0 PUSH1 0x20 DUP3 DUP5 SUB SLT ISZERO PUSH2 0x17E7 JUMPI PUSH1 0x0 DUP1 REVERT JUMPDEST PUSH1 0x0 PUSH2 0x17F5 DUP5 DUP3 DUP6 ADD PUSH2 0x172D JUMP JUMPDEST SWAP2 POP POP SWAP3 SWAP2 POP POP JUMP JUMPDEST PUSH1 0x0 PUSH1 0x20 DUP3 DUP5 SUB SLT ISZERO PUSH2 0x1810 JUMPI PUSH1 0x0 DUP1 REVERT JUMPDEST PUSH1 0x0 PUSH2 0x181E DUP5 DUP3 DUP6 ADD PUSH2 0x1742 JUMP JUMPDEST SWAP2 POP POP SWAP3 SWAP2 POP POP JUMP JUMPDEST PUSH1 0x0 PUSH1 0x20 DUP3 DUP5 SUB SLT ISZERO PUSH2 0x1839 JUMPI PUSH1 0x0 DUP1 REVERT JUMPDEST PUSH1 0x0 DUP3 ADD CALLDATALOAD PUSH8 0xFFFFFFFFFFFFFFFF DUP2 GT ISZERO PUSH2 0x1853 JUMPI PUSH1 0x0 DUP1 REVERT JUMPDEST PUSH2 0x185F DUP5 DUP3 DUP6 ADD PUSH2 0x1757 JUMP JUMPDEST SWAP2 POP POP SWAP3 SWAP2 POP POP JUMP JUMPDEST PUSH1 0x0 DUP1 PUSH1 0x40 DUP4 DUP6 SUB SLT ISZERO PUSH2 0x187B JUMPI PUSH1 0x0 DUP1 REVERT JUMPDEST PUSH1 0x0 DUP4 ADD CALLDATALOAD PUSH8 0xFFFFFFFFFFFFFFFF DUP2 GT ISZERO PUSH2 0x1895 JUMPI PUSH1 0x0 DUP1 REVERT JUMPDEST PUSH2 0x18A1 DUP6 DUP3 DUP7 ADD PUSH2 0x1757 JUMP JUMPDEST SWAP3 POP POP PUSH1 0x20 PUSH2 0x18B2 DUP6 DUP3 DUP7 ADD PUSH2 0x17AB JUMP JUMPDEST SWAP2 POP POP SWAP3 POP SWAP3 SWAP1 POP JUMP JUMPDEST PUSH1 0x0 PUSH1 0x20 DUP3 DUP5 SUB SLT ISZERO PUSH2 0x18CE JUMPI PUSH1 0x0 DUP1 REVERT JUMPDEST PUSH1 0x0 PUSH2 0x18DC DUP5 DUP3 DUP6 ADD PUSH2 0x17AB JUMP JUMPDEST SWAP2 POP POP SWAP3 SWAP2 POP POP JUMP JUMPDEST PUSH1 0x0 PUSH1 0x20 DUP3 DUP5 SUB SLT ISZERO PUSH2 0x18F7 JUMPI PUSH1 0x0 DUP1 REVERT JUMPDEST PUSH1 0x0 PUSH2 0x1905 DUP5 DUP3 DUP6 ADD PUSH2 0x17C0 JUMP JUMPDEST SWAP2 POP POP SWAP3 SWAP2 POP POP JUMP JUMPDEST PUSH1 0x0 PUSH2 0x191A DUP4 DUP4 PUSH2 0x19D3 JUMP JUMPDEST SWAP1 POP SWAP3 SWAP2 POP POP JUMP JUMPDEST PUSH2 0x192B DUP2 PUSH2 0x2100 JUMP JUMPDEST DUP3 MSTORE POP POP JUMP JUMPDEST PUSH2 0x193A DUP2 PUSH2 0x20B8 JUMP JUMPDEST DUP3 MSTORE POP POP JUMP JUMPDEST PUSH2 0x1949 DUP2 PUSH2 0x20A6 JUMP JUMPDEST DUP3 MSTORE POP POP JUMP JUMPDEST PUSH1 0x0 PUSH2 0x195A DUP3 PUSH2 0x2045 JUMP JUMPDEST PUSH2 0x1964 DUP2 DUP6 PUSH2 0x2068 JUMP JUMPDEST SWAP4 POP DUP4 PUSH1 0x20 DUP3 MUL DUP6 ADD PUSH2 0x1976 DUP6 PUSH2 0x2035 JUMP JUMPDEST DUP1 PUSH1 0x0 JUMPDEST DUP6 DUP2 LT ISZERO PUSH2 0x19B2 JUMPI DUP5 DUP5 SUB DUP10 MSTORE DUP2 MLOAD PUSH2 0x1993 DUP6 DUP3 PUSH2 0x190E JUMP JUMPDEST SWAP5 POP PUSH2 0x199E DUP4 PUSH2 0x205B JUMP JUMPDEST SWAP3 POP PUSH1 0x20 DUP11 ADD SWAP10 POP POP PUSH1 0x1 DUP2 ADD SWAP1 POP PUSH2 0x197A JUMP JUMPDEST POP DUP3 SWAP8 POP DUP8 SWAP6 POP POP POP POP POP POP SWAP3 SWAP2 POP POP JUMP JUMPDEST PUSH2 0x19CD DUP2 PUSH2 0x20CA JUMP JUMPDEST DUP3 MSTORE POP POP JUMP JUMPDEST PUSH1 0x0 PUSH2 0x19DE DUP3 PUSH2 0x2050 JUMP JUMPDEST PUSH2 0x19E8 DUP2 DUP6 PUSH2 0x2079 JUMP JUMPDEST SWAP4 POP PUSH2 0x19F8 DUP2 DUP6 PUSH1 0x20 DUP7 ADD PUSH2 0x2145 JUMP JUMPDEST PUSH2 0x1A01 DUP2 PUSH2 0x2178 JUMP JUMPDEST DUP5 ADD SWAP2 POP POP SWAP3 SWAP2 POP POP JUMP JUMPDEST PUSH1 0x0 PUSH2 0x1A17 DUP3 PUSH2 0x2050 JUMP JUMPDEST PUSH2 0x1A21 DUP2 DUP6 PUSH2 0x208A JUMP JUMPDEST SWAP4 POP PUSH2 0x1A31 DUP2 DUP6 PUSH1 0x20 DUP7 ADD PUSH2 0x2145 JUMP JUMPDEST PUSH2 0x1A3A DUP2 PUSH2 0x2178 JUMP JUMPDEST DUP5 ADD SWAP2 POP POP SWAP3 SWAP2 POP POP JUMP JUMPDEST PUSH1 0x0 PUSH2 0x1A50 DUP3 PUSH2 0x2050 JUMP JUMPDEST PUSH2 0x1A5A DUP2 DUP6 PUSH2 0x209B JUMP JUMPDEST SWAP4 POP PUSH2 0x1A6A DUP2 DUP6 PUSH1 0x20 DUP7 ADD PUSH2 0x2145 JUMP JUMPDEST DUP1 DUP5 ADD SWAP2 POP POP SWAP3 SWAP2 POP POP JUMP JUMPDEST PUSH1 0x0 PUSH2 0x1A83 PUSH1 0x32 DUP4 PUSH2 0x208A JUMP JUMPDEST SWAP2 POP PUSH32 0x4C6120617472616363696F6E206E6F206573746120646973706F6E69626C6520 PUSH1 0x0 DUP4 ADD MSTORE PUSH32 0x656E206573746F73206D6F6D656E746F732E0000000000000000000000000000 PUSH1 0x20 DUP4 ADD MSTORE PUSH1 0x40 DUP3 ADD SWAP1 POP SWAP2 SWAP1 POP JUMP JUMPDEST PUSH1 0x0 PUSH2 0x1AE9 PUSH1 0x34 DUP4 PUSH2 0x208A JUMP JUMPDEST SWAP2 POP PUSH32 0x4E6563657369746173206D617320546F6B656E73207061726120737562696572 PUSH1 0x0 DUP4 ADD MSTORE PUSH32 0x74652061206573746120617472616363696F6E2E000000000000000000000000 PUSH1 0x20 DUP4 ADD MSTORE PUSH1 0x40 DUP3 ADD SWAP1 POP SWAP2 SWAP1 POP JUMP JUMPDEST PUSH1 0x0 PUSH2 0x1B4F PUSH1 0x2E DUP4 PUSH2 0x208A JUMP JUMPDEST SWAP2 POP PUSH32 0x4E6F207469656E6573207065726D69736F73207061726120656A656375746172 PUSH1 0x0 DUP4 ADD MSTORE PUSH32 0x20657374612066756E63696F6E2E000000000000000000000000000000000000 PUSH1 0x20 DUP4 ADD MSTORE PUSH1 0x40 DUP3 ADD SWAP1 POP SWAP2 SWAP1 POP JUMP JUMPDEST PUSH1 0x0 PUSH2 0x1BB5 PUSH1 0x33 DUP4 PUSH2 0x208A JUMP JUMPDEST SWAP2 POP PUSH32 0x4E6563657369746173206465766F6C76657220756E612063616E746964616420 PUSH1 0x0 DUP4 ADD MSTORE PUSH32 0x706F73697469766120646520546F6B656E732E00000000000000000000000000 PUSH1 0x20 DUP4 ADD MSTORE PUSH1 0x40 DUP3 ADD SWAP1 POP SWAP2 SWAP1 POP JUMP JUMPDEST PUSH1 0x0 PUSH2 0x1C1B PUSH1 0x2A DUP4 PUSH2 0x208A JUMP JUMPDEST SWAP2 POP PUSH32 0x436F6D707261206D656E6F7320546F6B656E73206F207061676120636F6E206D PUSH1 0x0 DUP4 ADD MSTORE PUSH32 0x6173206574686572732E00000000000000000000000000000000000000000000 PUSH1 0x20 DUP4 ADD MSTORE PUSH1 0x40 DUP3 ADD SWAP1 POP SWAP2 SWAP1 POP JUMP JUMPDEST PUSH1 0x0 PUSH2 0x1C81 PUSH1 0x20 DUP4 PUSH2 0x208A JUMP JUMPDEST SWAP2 POP PUSH32 0x436F6D70726120756E206E756D65726F206D656E6F7220646520546F6B656E73 PUSH1 0x0 DUP4 ADD MSTORE PUSH1 0x20 DUP3 ADD SWAP1 POP SWAP2 SWAP1 POP JUMP JUMPDEST PUSH1 0x0 PUSH2 0x1CC1 PUSH1 0x28 DUP4 PUSH2 0x208A JUMP JUMPDEST SWAP2 POP PUSH32 0x4E6F207469656E65206C6F7320546F6B656E7320717565206465736561732064 PUSH1 0x0 DUP4 ADD MSTORE PUSH32 0x65766F6C7665722E000000000000000000000000000000000000000000000000 PUSH1 0x20 DUP4 ADD MSTORE PUSH1 0x40 DUP3 ADD SWAP1 POP SWAP2 SWAP1 POP JUMP JUMPDEST PUSH2 0x1D23 DUP2 PUSH2 0x20F6 JUMP JUMPDEST DUP3 MSTORE POP POP JUMP JUMPDEST PUSH1 0x0 PUSH2 0x1D35 DUP3 DUP5 PUSH2 0x1A45 JUMP JUMPDEST SWAP2 POP DUP2 SWAP1 POP SWAP3 SWAP2 POP POP JUMP JUMPDEST PUSH1 0x0 PUSH1 0x20 DUP3 ADD SWAP1 POP PUSH2 0x1D55 PUSH1 0x0 DUP4 ADD DUP5 PUSH2 0x1940 JUMP JUMPDEST SWAP3 SWAP2 POP POP JUMP JUMPDEST PUSH1 0x0 PUSH1 0x20 DUP3 ADD SWAP1 POP PUSH2 0x1D70 PUSH1 0x0 DUP4 ADD DUP5 PUSH2 0x1922 JUMP JUMPDEST SWAP3 SWAP2 POP POP JUMP JUMPDEST PUSH1 0x0 PUSH1 0x20 DUP3 ADD SWAP1 POP PUSH2 0x1D8B PUSH1 0x0 DUP4 ADD DUP5 PUSH2 0x1931 JUMP JUMPDEST SWAP3 SWAP2 POP POP JUMP JUMPDEST PUSH1 0x0 PUSH1 0x60 DUP3 ADD SWAP1 POP PUSH2 0x1DA6 PUSH1 0x0 DUP4 ADD DUP7 PUSH2 0x1922 JUMP JUMPDEST PUSH2 0x1DB3 PUSH1 0x20 DUP4 ADD DUP6 PUSH2 0x1940 JUMP JUMPDEST PUSH2 0x1DC0 PUSH1 0x40 DUP4 ADD DUP5 PUSH2 0x1D1A JUMP JUMPDEST SWAP5 SWAP4 POP POP POP POP JUMP JUMPDEST PUSH1 0x0 PUSH1 0x40 DUP3 ADD SWAP1 POP PUSH2 0x1DDD PUSH1 0x0 DUP4 ADD DUP6 PUSH2 0x1922 JUMP JUMPDEST PUSH2 0x1DEA PUSH1 0x20 DUP4 ADD DUP5 PUSH2 0x1D1A JUMP JUMPDEST SWAP4 SWAP3 POP POP POP JUMP JUMPDEST PUSH1 0x0 PUSH1 0x20 DUP3 ADD SWAP1 POP DUP2 DUP2 SUB PUSH1 0x0 DUP4 ADD MSTORE PUSH2 0x1E0B DUP2 DUP5 PUSH2 0x194F JUMP JUMPDEST SWAP1 POP SWAP3 SWAP2 POP POP JUMP JUMPDEST PUSH1 0x0 PUSH1 0x20 DUP3 ADD SWAP1 POP DUP2 DUP2 SUB PUSH1 0x0 DUP4 ADD MSTORE PUSH2 0x1E2D DUP2 DUP5 PUSH2 0x1A0C JUMP JUMPDEST SWAP1 POP SWAP3 SWAP2 POP POP JUMP JUMPDEST PUSH1 0x0 PUSH1 0x40 DUP3 ADD SWAP1 POP DUP2 DUP2 SUB PUSH1 0x0 DUP4 ADD MSTORE PUSH2 0x1E4F DUP2 DUP6 PUSH2 0x1A0C JUMP JUMPDEST SWAP1 POP PUSH2 0x1E5E PUSH1 0x20 DUP4 ADD DUP5 PUSH2 0x1D1A JUMP JUMPDEST SWAP4 SWAP3 POP POP POP JUMP JUMPDEST PUSH1 0x0 PUSH1 0x60 DUP3 ADD SWAP1 POP DUP2 DUP2 SUB PUSH1 0x0 DUP4 ADD MSTORE PUSH2 0x1E7F DUP2 DUP7 PUSH2 0x1A0C JUMP JUMPDEST SWAP1 POP PUSH2 0x1E8E PUSH1 0x20 DUP4 ADD DUP6 PUSH2 0x1D1A JUMP JUMPDEST PUSH2 0x1E9B PUSH1 0x40 DUP4 ADD DUP5 PUSH2 0x1922 JUMP JUMPDEST SWAP5 SWAP4 POP POP POP POP JUMP JUMPDEST PUSH1 0x0 PUSH1 0x60 DUP3 ADD SWAP1 POP DUP2 DUP2 SUB PUSH1 0x0 DUP4 ADD MSTORE PUSH2 0x1EBD DUP2 DUP7 PUSH2 0x1A0C JUMP JUMPDEST SWAP1 POP PUSH2 0x1ECC PUSH1 0x20 DUP4 ADD DUP6 PUSH2 0x1D1A JUMP JUMPDEST PUSH2 0x1ED9 PUSH1 0x40 DUP4 ADD DUP5 PUSH2 0x19C4 JUMP JUMPDEST SWAP5 SWAP4 POP POP POP POP JUMP JUMPDEST PUSH1 0x0 PUSH1 0x20 DUP3 ADD SWAP1 POP DUP2 DUP2 SUB PUSH1 0x0 DUP4 ADD MSTORE PUSH2 0x1EFA DUP2 PUSH2 0x1A76 JUMP JUMPDEST SWAP1 POP SWAP2 SWAP1 POP JUMP JUMPDEST PUSH1 0x0 PUSH1 0x20 DUP3 ADD SWAP1 POP DUP2 DUP2 SUB PUSH1 0x0 DUP4 ADD MSTORE PUSH2 0x1F1A DUP2 PUSH2 0x1ADC JUMP JUMPDEST SWAP1 POP SWAP2 SWAP1 POP JUMP JUMPDEST PUSH1 0x0 PUSH1 0x20 DUP3 ADD SWAP1 POP DUP2 DUP2 SUB PUSH1 0x0 DUP4 ADD MSTORE PUSH2 0x1F3A DUP2 PUSH2 0x1B42 JUMP JUMPDEST SWAP1 POP SWAP2 SWAP1 POP JUMP JUMPDEST PUSH1 0x0 PUSH1 0x20 DUP3 ADD SWAP1 POP DUP2 DUP2 SUB PUSH1 0x0 DUP4 ADD MSTORE PUSH2 0x1F5A DUP2 PUSH2 0x1BA8 JUMP JUMPDEST SWAP1 POP SWAP2 SWAP1 POP JUMP JUMPDEST PUSH1 0x0 PUSH1 0x20 DUP3 ADD SWAP1 POP DUP2 DUP2 SUB PUSH1 0x0 DUP4 ADD MSTORE PUSH2 0x1F7A DUP2 PUSH2 0x1C0E JUMP JUMPDEST SWAP1 POP SWAP2 SWAP1 POP JUMP JUMPDEST PUSH1 0x0 PUSH1 0x20 DUP3 ADD SWAP1 POP DUP2 DUP2 SUB PUSH1 0x0 DUP4 ADD MSTORE PUSH2 0x1F9A DUP2 PUSH2 0x1C74 JUMP JUMPDEST SWAP1 POP SWAP2 SWAP1 POP JUMP JUMPDEST PUSH1 0x0 PUSH1 0x20 DUP3 ADD SWAP1 POP DUP2 DUP2 SUB PUSH1 0x0 DUP4 ADD MSTORE PUSH2 0x1FBA DUP2 PUSH2 0x1CB4 JUMP JUMPDEST SWAP1 POP SWAP2 SWAP1 POP JUMP JUMPDEST PUSH1 0x0 PUSH1 0x20 DUP3 ADD SWAP1 POP PUSH2 0x1FD6 PUSH1 0x0 DUP4 ADD DUP5 PUSH2 0x1D1A JUMP JUMPDEST SWAP3 SWAP2 POP POP JUMP JUMPDEST PUSH1 0x0 PUSH1 0x40 MLOAD SWAP1 POP DUP2 DUP2 ADD DUP2 DUP2 LT PUSH8 0xFFFFFFFFFFFFFFFF DUP3 GT OR ISZERO PUSH2 0x1FFF JUMPI PUSH1 0x0 DUP1 REVERT JUMPDEST DUP1 PUSH1 0x40 MSTORE POP SWAP2 SWAP1 POP JUMP JUMPDEST PUSH1 0x0 PUSH8 0xFFFFFFFFFFFFFFFF DUP3 GT ISZERO PUSH2 0x2020 JUMPI PUSH1 0x0 DUP1 REVERT JUMPDEST PUSH1 0x1F NOT PUSH1 0x1F DUP4 ADD AND SWAP1 POP PUSH1 0x20 DUP2 ADD SWAP1 POP SWAP2 SWAP1 POP JUMP JUMPDEST PUSH1 0x0 DUP2 SWAP1 POP PUSH1 0x20 DUP3 ADD SWAP1 POP SWAP2 SWAP1 POP JUMP JUMPDEST PUSH1 0x0 DUP2 MLOAD SWAP1 POP SWAP2 SWAP1 POP JUMP JUMPDEST PUSH1 0x0 DUP2 MLOAD SWAP1 POP SWAP2 SWAP1 POP JUMP JUMPDEST PUSH1 0x0 PUSH1 0x20 DUP3 ADD SWAP1 POP SWAP2 SWAP1 POP JUMP JUMPDEST PUSH1 0x0 DUP3 DUP3 MSTORE PUSH1 0x20 DUP3 ADD SWAP1 POP SWAP3 SWAP2 POP POP JUMP JUMPDEST PUSH1 0x0 DUP3 DUP3 MSTORE PUSH1 0x20 DUP3 ADD SWAP1 POP SWAP3 SWAP2 POP POP JUMP JUMPDEST PUSH1 0x0 DUP3 DUP3 MSTORE PUSH1 0x20 DUP3 ADD SWAP1 POP SWAP3 SWAP2 POP POP JUMP JUMPDEST PUSH1 0x0 DUP2 SWAP1 POP SWAP3 SWAP2 POP POP JUMP JUMPDEST PUSH1 0x0 PUSH2 0x20B1 DUP3 PUSH2 0x20D6 JUMP JUMPDEST SWAP1 POP SWAP2 SWAP1 POP JUMP JUMPDEST PUSH1 0x0 PUSH2 0x20C3 DUP3 PUSH2 0x20D6 JUMP JUMPDEST SWAP1 POP SWAP2 SWAP1 POP JUMP JUMPDEST PUSH1 0x0 DUP2 ISZERO ISZERO SWAP1 POP SWAP2 SWAP1 POP JUMP JUMPDEST PUSH1 0x0 PUSH20 0xFFFFFFFFFFFFFFFFFFFFFFFFFFFFFFFFFFFFFFFF DUP3 AND SWAP1 POP SWAP2 SWAP1 POP JUMP JUMPDEST PUSH1 0x0 DUP2 SWAP1 POP SWAP2 SWAP1 POP JUMP JUMPDEST PUSH1 0x0 PUSH2 0x210B DUP3 PUSH2 0x2112 JUMP JUMPDEST SWAP1 POP SWAP2 SWAP1 POP JUMP JUMPDEST PUSH1 0x0 PUSH2 0x211D DUP3 PUSH2 0x2124 JUMP JUMPDEST SWAP1 POP SWAP2 SWAP1 POP JUMP JUMPDEST PUSH1 0x0 PUSH2 0x212F DUP3 PUSH2 0x20D6 JUMP JUMPDEST SWAP1 POP SWAP2 SWAP1 POP JUMP JUMPDEST DUP3 DUP2 DUP4 CALLDATACOPY PUSH1 0x0 DUP4 DUP4 ADD MSTORE POP POP POP JUMP JUMPDEST PUSH1 0x0 JUMPDEST DUP4 DUP2 LT ISZERO PUSH2 0x2163 JUMPI DUP1 DUP3 ADD MLOAD DUP2 DUP5 ADD MSTORE PUSH1 0x20 DUP2 ADD SWAP1 POP PUSH2 0x2148 JUMP JUMPDEST DUP4 DUP2 GT ISZERO PUSH2 0x2172 JUMPI PUSH1 0x0 DUP5 DUP5 ADD MSTORE JUMPDEST POP POP POP POP JUMP JUMPDEST PUSH1 0x0 PUSH1 0x1F NOT PUSH1 0x1F DUP4 ADD AND SWAP1 POP SWAP2 SWAP1 POP JUMP JUMPDEST PUSH2 0x2192 DUP2 PUSH2 0x20A6 JUMP JUMPDEST DUP2 EQ PUSH2 0x219D JUMPI PUSH1 0x0 DUP1 REVERT JUMPDEST POP JUMP JUMPDEST PUSH2 0x21A9 DUP2 PUSH2 0x20CA JUMP JUMPDEST DUP2 EQ PUSH2 0x21B4 JUMPI PUSH1 0x0 DUP1 REVERT JUMPDEST POP JUMP JUMPDEST PUSH2 0x21C0 DUP2 PUSH2 0x20F6 JUMP JUMPDEST DUP2 EQ PUSH2 0x21CB JUMPI PUSH1 0x0 DUP1 REVERT JUMPDEST POP JUMP INVALID LOG2 PUSH5 0x6970667358 0x22 SLT KECCAK256 RETURN CALLCODE JUMPI 0xEE 0xEB 0xB9 0xCA PUSH11 0xEBA8E83ECA10C58CBCFB08 BLOCKHASH 0xDF PUSH1 0x39 PUSH32 0xBF7B1683E932217564736F6C6343000606003360806040523480156100105760 STOP DUP1 REVERT JUMPDEST POP PUSH1 0x40 MLOAD PUSH2 0x109D CODESIZE SUB DUP1 PUSH2 0x109D DUP4 CODECOPY DUP2 DUP2 ADD PUSH1 0x40 MSTORE DUP2 ADD SWAP1 PUSH2 0x32 SWAP2 SWAP1 PUSH2 0x99 JUMP JUMPDEST DUP1 PUSH1 0x2 DUP2 SWAP1 SSTORE POP PUSH1 0x2 SLOAD PUSH1 0x0 DUP1 CALLER PUSH20 0xFFFFFFFFFFFFFFFFFFFFFFFFFFFFFFFFFFFFFFFF AND PUSH20 0xFFFFFFFFFFFFFFFFFFFFFFFFFFFFFFFFFFFFFFFF AND DUP2 MSTORE PUSH1 0x20 ADD SWAP1 DUP2 MSTORE PUSH1 0x20 ADD PUSH1 0x0 KECCAK256 DUP2 SWAP1 SSTORE POP POP PUSH2 0xE3 JUMP JUMPDEST PUSH1 0x0 DUP2 MLOAD SWAP1 POP PUSH2 0x93 DUP2 PUSH2 0xCC JUMP JUMPDEST SWAP3 SWAP2 POP POP JUMP JUMPDEST PUSH1 0x0 PUSH1 0x20 DUP3 DUP5 SUB SLT ISZERO PUSH2 0xAB JUMPI PUSH1 0x0 DUP1 REVERT JUMPDEST PUSH1 0x0 PUSH2 0xB9 DUP5 DUP3 DUP6 ADD PUSH2 0x84 JUMP JUMPDEST SWAP2 POP POP SWAP3 SWAP2 POP POP JUMP JUMPDEST PUSH1 0x0 DUP2 SWAP1 POP SWAP2 SWAP1 POP JUMP JUMPDEST PUSH2 0xD5 DUP2 PUSH2 0xC2 JUMP JUMPDEST DUP2 EQ PUSH2 0xE0 JUMPI PUSH1 0x0 DUP1 REVERT JUMPDEST POP JUMP JUMPDEST PUSH2 0xFAB DUP1 PUSH2 0xF2 PUSH1 0x0 CODECOPY PUSH1 0x0 RETURN INVALID PUSH1 0x80 PUSH1 0x40 MSTORE CALLVALUE DUP1 ISZERO PUSH2 0x10 JUMPI PUSH1 0x0 DUP1 REVERT JUMPDEST POP PUSH1 0x4 CALLDATASIZE LT PUSH2 0xA9 JUMPI PUSH1 0x0 CALLDATALOAD PUSH1 0xE0 SHR DUP1 PUSH4 0x313CE567 GT PUSH2 0x71 JUMPI DUP1 PUSH4 0x313CE567 EQ PUSH2 0x166 JUMPI DUP1 PUSH4 0x70A08231 EQ PUSH2 0x184 JUMPI DUP1 PUSH4 0x95D89B41 EQ PUSH2 0x1B4 JUMPI DUP1 PUSH4 0xA9059CBB EQ PUSH2 0x1D2 JUMPI DUP1 PUSH4 0xDD62ED3E EQ PUSH2 0x202 JUMPI DUP1 PUSH4 0xF490A351 EQ PUSH2 0x232 JUMPI PUSH2 0xA9 JUMP JUMPDEST DUP1 PUSH4 0x6FDDE03 EQ PUSH2 0xAE JUMPI DUP1 PUSH4 0x95EA7B3 EQ PUSH2 0xCC JUMPI DUP1 PUSH4 0x18160DDD EQ PUSH2 0xFC JUMPI DUP1 PUSH4 0x1D43CC98 EQ PUSH2 0x11A JUMPI DUP1 PUSH4 0x23B872DD EQ PUSH2 0x136 JUMPI JUMPDEST PUSH1 0x0 DUP1 REVERT JUMPDEST PUSH2 0xB6 PUSH2 0x262 JUMP JUMPDEST PUSH1 0x40 MLOAD PUSH2 0xC3 SWAP2 SWAP1 PUSH2 0xE3A JUMP JUMPDEST PUSH1 0x40 MLOAD DUP1 SWAP2 SUB SWAP1 RETURN JUMPDEST PUSH2 0xE6 PUSH1 0x4 DUP1 CALLDATASIZE SUB DUP2 ADD SWAP1 PUSH2 0xE1 SWAP2 SWAP1 PUSH2 0xD54 JUMP JUMPDEST PUSH2 0x29B JUMP JUMPDEST PUSH1 0x40 MLOAD PUSH2 0xF3 SWAP2 SWAP1 PUSH2 0xE1F JUMP JUMPDEST PUSH1 0x40 MLOAD DUP1 SWAP2 SUB SWAP1 RETURN JUMPDEST PUSH2 0x104 PUSH2 0x38D JUMP JUMPDEST PUSH1 0x40 MLOAD PUSH2 0x111 SWAP2 SWAP1 PUSH2 0xE5C JUMP JUMPDEST PUSH1 0x40 MLOAD DUP1 SWAP2 SUB SWAP1 RETURN JUMPDEST PUSH2 0x134 PUSH1 0x4 DUP1 CALLDATASIZE SUB DUP2 ADD SWAP1 PUSH2 0x12F SWAP2 SWAP1 PUSH2 0xD90 JUMP JUMPDEST PUSH2 0x397 JUMP JUMPDEST STOP JUMPDEST PUSH2 0x150 PUSH1 0x4 DUP1 CALLDATASIZE SUB DUP2 ADD SWAP1 PUSH2 0x14B SWAP2 SWAP1 PUSH2 0xD05 JUMP JUMPDEST PUSH2 0x3F6 JUMP JUMPDEST PUSH1 0x40 MLOAD PUSH2 0x15D SWAP2 SWAP1 PUSH2 0xE1F JUMP JUMPDEST PUSH1 0x40 MLOAD DUP1 SWAP2 SUB SWAP1 RETURN JUMPDEST PUSH2 0x16E PUSH2 0x771 JUMP JUMPDEST PUSH1 0x40 MLOAD PUSH2 0x17B SWAP2 SWAP1 PUSH2 0xE77 JUMP JUMPDEST PUSH1 0x40 MLOAD DUP1 SWAP2 SUB SWAP1 RETURN JUMPDEST PUSH2 0x19E PUSH1 0x4 DUP1 CALLDATASIZE SUB DUP2 ADD SWAP1 PUSH2 0x199 SWAP2 SWAP1 PUSH2 0xCA0 JUMP JUMPDEST PUSH2 0x776 JUMP JUMPDEST PUSH1 0x40 MLOAD PUSH2 0x1AB SWAP2 SWAP1 PUSH2 0xE5C JUMP JUMPDEST PUSH1 0x40 MLOAD DUP1 SWAP2 SUB SWAP1 RETURN JUMPDEST PUSH2 0x1BC PUSH2 0x7BE JUMP JUMPDEST PUSH1 0x40 MLOAD PUSH2 0x1C9 SWAP2 SWAP1 PUSH2 0xE3A JUMP JUMPDEST PUSH1 0x40 MLOAD DUP1 SWAP2 SUB SWAP1 RETURN JUMPDEST PUSH2 0x1EC PUSH1 0x4 DUP1 CALLDATASIZE SUB DUP2 ADD SWAP1 PUSH2 0x1E7 SWAP2 SWAP1 PUSH2 0xD54 JUMP JUMPDEST PUSH2 0x7F7 JUMP JUMPDEST PUSH1 0x40 MLOAD PUSH2 0x1F9 SWAP2 SWAP1 PUSH2 0xE1F JUMP JUMPDEST PUSH1 0x40 MLOAD DUP1 SWAP2 SUB SWAP1 RETURN JUMPDEST PUSH2 0x21C PUSH1 0x4 DUP1 CALLDATASIZE SUB DUP2 ADD SWAP1 PUSH2 0x217 SWAP2 SWAP1 PUSH2 0xCC9 JUMP JUMPDEST PUSH2 0x9D9 JUMP JUMPDEST PUSH1 0x40 MLOAD PUSH2 0x229 SWAP2 SWAP1 PUSH2 0xE5C JUMP JUMPDEST PUSH1 0x40 MLOAD DUP1 SWAP2 SUB SWAP1 RETURN JUMPDEST PUSH2 0x24C PUSH1 0x4 DUP1 CALLDATASIZE SUB DUP2 ADD SWAP1 PUSH2 0x247 SWAP2 SWAP1 PUSH2 0xD05 JUMP JUMPDEST PUSH2 0xA60 JUMP JUMPDEST PUSH1 0x40 MLOAD PUSH2 0x259 SWAP2 SWAP1 PUSH2 0xE1F JUMP JUMPDEST PUSH1 0x40 MLOAD DUP1 SWAP2 SUB SWAP1 RETURN JUMPDEST PUSH1 0x40 MLOAD DUP1 PUSH1 0x40 ADD PUSH1 0x40 MSTORE DUP1 PUSH1 0x11 DUP2 MSTORE PUSH1 0x20 ADD PUSH32 0x4552433230426C6F636B636861696E415A000000000000000000000000000000 DUP2 MSTORE POP DUP2 JUMP JUMPDEST PUSH1 0x0 DUP2 PUSH1 0x1 PUSH1 0x0 CALLER PUSH20 0xFFFFFFFFFFFFFFFFFFFFFFFFFFFFFFFFFFFFFFFF AND PUSH20 0xFFFFFFFFFFFFFFFFFFFFFFFFFFFFFFFFFFFFFFFF AND DUP2 MSTORE PUSH1 0x20 ADD SWAP1 DUP2 MSTORE PUSH1 0x20 ADD PUSH1 0x0 KECCAK256 PUSH1 0x0 DUP6 PUSH20 0xFFFFFFFFFFFFFFFFFFFFFFFFFFFFFFFFFFFFFFFF AND PUSH20 0xFFFFFFFFFFFFFFFFFFFFFFFFFFFFFFFFFFFFFFFF AND DUP2 MSTORE PUSH1 0x20 ADD SWAP1 DUP2 MSTORE PUSH1 0x20 ADD PUSH1 0x0 KECCAK256 DUP2 SWAP1 SSTORE POP DUP3 PUSH20 0xFFFFFFFFFFFFFFFFFFFFFFFFFFFFFFFFFFFFFFFF AND CALLER PUSH20 0xFFFFFFFFFFFFFFFFFFFFFFFFFFFFFFFFFFFFFFFF AND PUSH32 0x8C5BE1E5EBEC7D5BD14F71427D1E84F3DD0314C0F7B2291E5B200AC8C7C3B925 DUP5 PUSH1 0x40 MLOAD PUSH2 0x37B SWAP2 SWAP1 PUSH2 0xE5C JUMP JUMPDEST PUSH1 0x40 MLOAD DUP1 SWAP2 SUB SWAP1 LOG3 PUSH1 0x1 SWAP1 POP SWAP3 SWAP2 POP POP JUMP JUMPDEST PUSH1 0x0 PUSH1 0x2 SLOAD SWAP1 POP SWAP1 JUMP JUMPDEST DUP1 PUSH1 0x2 PUSH1 0x0 DUP3 DUP3 SLOAD ADD SWAP3 POP POP DUP2 SWAP1 SSTORE POP DUP1 PUSH1 0x0 DUP1 CALLER PUSH20 0xFFFFFFFFFFFFFFFFFFFFFFFFFFFFFFFFFFFFFFFF AND PUSH20 0xFFFFFFFFFFFFFFFFFFFFFFFFFFFFFFFFFFFFFFFF AND DUP2 MSTORE PUSH1 0x20 ADD SWAP1 DUP2 MSTORE PUSH1 0x20 ADD PUSH1 0x0 KECCAK256 PUSH1 0x0 DUP3 DUP3 SLOAD ADD SWAP3 POP POP DUP2 SWAP1 SSTORE POP POP JUMP JUMPDEST PUSH1 0x0 DUP1 PUSH1 0x0 DUP6 PUSH20 0xFFFFFFFFFFFFFFFFFFFFFFFFFFFFFFFFFFFFFFFF AND PUSH20 0xFFFFFFFFFFFFFFFFFFFFFFFFFFFFFFFFFFFFFFFF AND DUP2 MSTORE PUSH1 0x20 ADD SWAP1 DUP2 MSTORE PUSH1 0x20 ADD PUSH1 0x0 KECCAK256 SLOAD DUP3 GT ISZERO PUSH2 0x443 JUMPI PUSH1 0x0 DUP1 REVERT JUMPDEST PUSH1 0x1 PUSH1 0x0 DUP6 PUSH20 0xFFFFFFFFFFFFFFFFFFFFFFFFFFFFFFFFFFFFFFFF AND PUSH20 0xFFFFFFFFFFFFFFFFFFFFFFFFFFFFFFFFFFFFFFFF AND DUP2 MSTORE PUSH1 0x20 ADD SWAP1 DUP2 MSTORE PUSH1 0x20 ADD PUSH1 0x0 KECCAK256 PUSH1 0x0 CALLER PUSH20 0xFFFFFFFFFFFFFFFFFFFFFFFFFFFFFFFFFFFFFFFF AND PUSH20 0xFFFFFFFFFFFFFFFFFFFFFFFFFFFFFFFFFFFFFFFF AND DUP2 MSTORE PUSH1 0x20 ADD SWAP1 DUP2 MSTORE PUSH1 0x20 ADD PUSH1 0x0 KECCAK256 SLOAD DUP3 GT ISZERO PUSH2 0x4CC JUMPI PUSH1 0x0 DUP1 REVERT JUMPDEST PUSH2 0x51D DUP3 PUSH1 0x0 DUP1 DUP8 PUSH20 0xFFFFFFFFFFFFFFFFFFFFFFFFFFFFFFFFFFFFFFFF AND PUSH20 0xFFFFFFFFFFFFFFFFFFFFFFFFFFFFFFFFFFFFFFFF AND DUP2 MSTORE PUSH1 0x20 ADD SWAP1 DUP2 MSTORE PUSH1 0x20 ADD PUSH1 0x0 KECCAK256 SLOAD PUSH2 0xC43 SWAP1 SWAP2 SWAP1 PUSH4 0xFFFFFFFF AND JUMP JUMPDEST PUSH1 0x0 DUP1 DUP7 PUSH20 0xFFFFFFFFFFFFFFFFFFFFFFFFFFFFFFFFFFFFFFFF AND PUSH20 0xFFFFFFFFFFFFFFFFFFFFFFFFFFFFFFFFFFFFFFFF AND DUP2 MSTORE PUSH1 0x20 ADD SWAP1 DUP2 MSTORE PUSH1 0x20 ADD PUSH1 0x0 KECCAK256 DUP2 SWAP1 SSTORE POP PUSH2 0x5EE DUP3 PUSH1 0x1 PUSH1 0x0 DUP8 PUSH20 0xFFFFFFFFFFFFFFFFFFFFFFFFFFFFFFFFFFFFFFFF AND PUSH20 0xFFFFFFFFFFFFFFFFFFFFFFFFFFFFFFFFFFFFFFFF AND DUP2 MSTORE PUSH1 0x20 ADD SWAP1 DUP2 MSTORE PUSH1 0x20 ADD PUSH1 0x0 KECCAK256 PUSH1 0x0 CALLER PUSH20 0xFFFFFFFFFFFFFFFFFFFFFFFFFFFFFFFFFFFFFFFF AND PUSH20 0xFFFFFFFFFFFFFFFFFFFFFFFFFFFFFFFFFFFFFFFF AND DUP2 MSTORE PUSH1 0x20 ADD SWAP1 DUP2 MSTORE PUSH1 0x20 ADD PUSH1 0x0 KECCAK256 SLOAD PUSH2 0xC43 SWAP1 SWAP2 SWAP1 PUSH4 0xFFFFFFFF AND JUMP JUMPDEST PUSH1 0x1 PUSH1 0x0 DUP7 PUSH20 0xFFFFFFFFFFFFFFFFFFFFFFFFFFFFFFFFFFFFFFFF AND PUSH20 0xFFFFFFFFFFFFFFFFFFFFFFFFFFFFFFFFFFFFFFFF AND DUP2 MSTORE PUSH1 0x20 ADD SWAP1 DUP2 MSTORE PUSH1 0x20 ADD PUSH1 0x0 KECCAK256 PUSH1 0x0 CALLER PUSH20 0xFFFFFFFFFFFFFFFFFFFFFFFFFFFFFFFFFFFFFFFF AND PUSH20 0xFFFFFFFFFFFFFFFFFFFFFFFFFFFFFFFFFFFFFFFF AND DUP2 MSTORE PUSH1 0x20 ADD SWAP1 DUP2 MSTORE PUSH1 0x20 ADD PUSH1 0x0 KECCAK256 DUP2 SWAP1 SSTORE POP PUSH2 0x6BF DUP3 PUSH1 0x0 DUP1 DUP7 PUSH20 0xFFFFFFFFFFFFFFFFFFFFFFFFFFFFFFFFFFFFFFFF AND PUSH20 0xFFFFFFFFFFFFFFFFFFFFFFFFFFFFFFFFFFFFFFFF AND DUP2 MSTORE PUSH1 0x20 ADD SWAP1 DUP2 MSTORE PUSH1 0x20 ADD PUSH1 0x0 KECCAK256 SLOAD PUSH2 0xC5A SWAP1 SWAP2 SWAP1 PUSH4 0xFFFFFFFF AND JUMP JUMPDEST PUSH1 0x0 DUP1 DUP6 PUSH20 0xFFFFFFFFFFFFFFFFFFFFFFFFFFFFFFFFFFFFFFFF AND PUSH20 0xFFFFFFFFFFFFFFFFFFFFFFFFFFFFFFFFFFFFFFFF AND DUP2 MSTORE PUSH1 0x20 ADD SWAP1 DUP2 MSTORE PUSH1 0x20 ADD PUSH1 0x0 KECCAK256 DUP2 SWAP1 SSTORE POP DUP3 PUSH20 0xFFFFFFFFFFFFFFFFFFFFFFFFFFFFFFFFFFFFFFFF AND DUP5 PUSH20 0xFFFFFFFFFFFFFFFFFFFFFFFFFFFFFFFFFFFFFFFF AND PUSH32 0xDDF252AD1BE2C89B69C2B068FC378DAA952BA7F163C4A11628F55A4DF523B3EF DUP5 PUSH1 0x40 MLOAD PUSH2 0x75E SWAP2 SWAP1 PUSH2 0xE5C JUMP JUMPDEST PUSH1 0x40 MLOAD DUP1 SWAP2 SUB SWAP1 LOG3 PUSH1 0x1 SWAP1 POP SWAP4 SWAP3 POP POP POP JUMP JUMPDEST PUSH1 0x12 DUP2 JUMP JUMPDEST PUSH1 0x0 DUP1 PUSH1 0x0 DUP4 PUSH20 0xFFFFFFFFFFFFFFFFFFFFFFFFFFFFFFFFFFFFFFFF AND PUSH20 0xFFFFFFFFFFFFFFFFFFFFFFFFFFFFFFFFFFFFFFFF AND DUP2 MSTORE PUSH1 0x20 ADD SWAP1 DUP2 MSTORE PUSH1 0x20 ADD PUSH1 0x0 KECCAK256 SLOAD SWAP1 POP SWAP2 SWAP1 POP JUMP JUMPDEST PUSH1 0x40 MLOAD DUP1 PUSH1 0x40 ADD PUSH1 0x40 MSTORE DUP1 PUSH1 0x3 DUP2 MSTORE PUSH1 0x20 ADD PUSH32 0x4552430000000000000000000000000000000000000000000000000000000000 DUP2 MSTORE POP DUP2 JUMP JUMPDEST PUSH1 0x0 DUP1 PUSH1 0x0 CALLER PUSH20 0xFFFFFFFFFFFFFFFFFFFFFFFFFFFFFFFFFFFFFFFF AND PUSH20 0xFFFFFFFFFFFFFFFFFFFFFFFFFFFFFFFFFFFFFFFF AND DUP2 MSTORE PUSH1 0x20 ADD SWAP1 DUP2 MSTORE PUSH1 0x20 ADD PUSH1 0x0 KECCAK256 SLOAD DUP3 GT ISZERO PUSH2 0x844 JUMPI PUSH1 0x0 DUP1 REVERT JUMPDEST PUSH2 0x895 DUP3 PUSH1 0x0 DUP1 CALLER PUSH20 0xFFFFFFFFFFFFFFFFFFFFFFFFFFFFFFFFFFFFFFFF AND PUSH20 0xFFFFFFFFFFFFFFFFFFFFFFFFFFFFFFFFFFFFFFFF AND DUP2 MSTORE PUSH1 0x20 ADD SWAP1 DUP2 MSTORE PUSH1 0x20 ADD PUSH1 0x0 KECCAK256 SLOAD PUSH2 0xC43 SWAP1 SWAP2 SWAP1 PUSH4 0xFFFFFFFF AND JUMP JUMPDEST PUSH1 0x0 DUP1 CALLER PUSH20 0xFFFFFFFFFFFFFFFFFFFFFFFFFFFFFFFFFFFFFFFF AND PUSH20 0xFFFFFFFFFFFFFFFFFFFFFFFFFFFFFFFFFFFFFFFF AND DUP2 MSTORE PUSH1 0x20 ADD SWAP1 DUP2 MSTORE PUSH1 0x20 ADD PUSH1 0x0 KECCAK256 DUP2 SWAP1 SSTORE POP PUSH2 0x928 DUP3 PUSH1 0x0 DUP1 DUP7 PUSH20 0xFFFFFFFFFFFFFFFFFFFFFFFFFFFFFFFFFFFFFFFF AND PUSH20 0xFFFFFFFFFFFFFFFFFFFFFFFFFFFFFFFFFFFFFFFF AND DUP2 MSTORE PUSH1 0x20 ADD SWAP1 DUP2 MSTORE PUSH1 0x20 ADD PUSH1 0x0 KECCAK256 SLOAD PUSH2 0xC5A SWAP1 SWAP2 SWAP1 PUSH4 0xFFFFFFFF AND JUMP JUMPDEST PUSH1 0x0 DUP1 DUP6 PUSH20 0xFFFFFFFFFFFFFFFFFFFFFFFFFFFFFFFFFFFFFFFF AND PUSH20 0xFFFFFFFFFFFFFFFFFFFFFFFFFFFFFFFFFFFFFFFF AND DUP2 MSTORE PUSH1 0x20 ADD SWAP1 DUP2 MSTORE PUSH1 0x20 ADD PUSH1 0x0 KECCAK256 DUP2 SWAP1 SSTORE POP DUP3 PUSH20 0xFFFFFFFFFFFFFFFFFFFFFFFFFFFFFFFFFFFFFFFF AND CALLER PUSH20 0xFFFFFFFFFFFFFFFFFFFFFFFFFFFFFFFFFFFFFFFF AND PUSH32 0xDDF252AD1BE2C89B69C2B068FC378DAA952BA7F163C4A11628F55A4DF523B3EF DUP5 PUSH1 0x40 MLOAD PUSH2 0x9C7 SWAP2 SWAP1 PUSH2 0xE5C JUMP JUMPDEST PUSH1 0x40 MLOAD DUP1 SWAP2 SUB SWAP1 LOG3 PUSH1 0x1 SWAP1 POP SWAP3 SWAP2 POP POP JUMP JUMPDEST PUSH1 0x0 PUSH1 0x1 PUSH1 0x0 DUP5 PUSH20 0xFFFFFFFFFFFFFFFFFFFFFFFFFFFFFFFFFFFFFFFF AND PUSH20 0xFFFFFFFFFFFFFFFFFFFFFFFFFFFFFFFFFFFFFFFF AND DUP2 MSTORE PUSH1 0x20 ADD SWAP1 DUP2 MSTORE PUSH1 0x20 ADD PUSH1 0x0 KECCAK256 PUSH1 0x0 DUP4 PUSH20 0xFFFFFFFFFFFFFFFFFFFFFFFFFFFFFFFFFFFFFFFF AND PUSH20 0xFFFFFFFFFFFFFFFFFFFFFFFFFFFFFFFFFFFFFFFF AND DUP2 MSTORE PUSH1 0x20 ADD SWAP1 DUP2 MSTORE PUSH1 0x20 ADD PUSH1 0x0 KECCAK256 SLOAD SWAP1 POP SWAP3 SWAP2 POP POP JUMP JUMPDEST PUSH1 0x0 DUP1 PUSH1 0x0 DUP6 PUSH20 0xFFFFFFFFFFFFFFFFFFFFFFFFFFFFFFFFFFFFFFFF AND PUSH20 0xFFFFFFFFFFFFFFFFFFFFFFFFFFFFFFFFFFFFFFFF AND DUP2 MSTORE PUSH1 0x20 ADD SWAP1 DUP2 MSTORE PUSH1 0x20 ADD PUSH1 0x0 KECCAK256 SLOAD DUP3 GT ISZERO PUSH2 0xAAD JUMPI PUSH1 0x0 DUP1 REVERT JUMPDEST PUSH2 0xAFE DUP3 PUSH1 0x0 DUP1 DUP8 PUSH20 0xFFFFFFFFFFFFFFFFFFFFFFFFFFFFFFFFFFFFFFFF AND PUSH20 0xFFFFFFFFFFFFFFFFFFFFFFFFFFFFFFFFFFFFFFFF AND DUP2 MSTORE PUSH1 0x20 ADD SWAP1 DUP2 MSTORE PUSH1 0x20 ADD PUSH1 0x0 KECCAK256 SLOAD PUSH2 0xC43 SWAP1 SWAP2 SWAP1 PUSH4 0xFFFFFFFF AND JUMP JUMPDEST PUSH1 0x0 DUP1 DUP7 PUSH20 0xFFFFFFFFFFFFFFFFFFFFFFFFFFFFFFFFFFFFFFFF AND PUSH20 0xFFFFFFFFFFFFFFFFFFFFFFFFFFFFFFFFFFFFFFFF AND DUP2 MSTORE PUSH1 0x20 ADD SWAP1 DUP2 MSTORE PUSH1 0x20 ADD PUSH1 0x0 KECCAK256 DUP2 SWAP1 SSTORE POP PUSH2 0xB91 DUP3 PUSH1 0x0 DUP1 DUP7 PUSH20 0xFFFFFFFFFFFFFFFFFFFFFFFFFFFFFFFFFFFFFFFF AND PUSH20 0xFFFFFFFFFFFFFFFFFFFFFFFFFFFFFFFFFFFFFFFF AND DUP2 MSTORE PUSH1 0x20 ADD SWAP1 DUP2 MSTORE PUSH1 0x20 ADD PUSH1 0x0 KECCAK256 SLOAD PUSH2 0xC5A SWAP1 SWAP2 SWAP1 PUSH4 0xFFFFFFFF AND JUMP JUMPDEST PUSH1 0x0 DUP1 DUP6 PUSH20 0xFFFFFFFFFFFFFFFFFFFFFFFFFFFFFFFFFFFFFFFF AND PUSH20 0xFFFFFFFFFFFFFFFFFFFFFFFFFFFFFFFFFFFFFFFF AND DUP2 MSTORE PUSH1 0x20 ADD SWAP1 DUP2 MSTORE PUSH1 0x20 ADD PUSH1 0x0 KECCAK256 DUP2 SWAP1 SSTORE POP DUP3 PUSH20 0xFFFFFFFFFFFFFFFFFFFFFFFFFFFFFFFFFFFFFFFF AND DUP5 PUSH20 0xFFFFFFFFFFFFFFFFFFFFFFFFFFFFFFFFFFFFFFFF AND PUSH32 0xDDF252AD1BE2C89B69C2B068FC378DAA952BA7F163C4A11628F55A4DF523B3EF DUP5 PUSH1 0x40 MLOAD PUSH2 0xC30 SWAP2 SWAP1 PUSH2 0xE5C JUMP JUMPDEST PUSH1 0x40 MLOAD DUP1 SWAP2 SUB SWAP1 LOG3 PUSH1 0x1 SWAP1 POP SWAP4 SWAP3 POP POP POP JUMP JUMPDEST PUSH1 0x0 DUP3 DUP3 GT ISZERO PUSH2 0xC4F JUMPI INVALID JUMPDEST DUP2 DUP4 SUB SWAP1 POP SWAP3 SWAP2 POP POP JUMP JUMPDEST PUSH1 0x0 DUP1 DUP3 DUP5 ADD SWAP1 POP DUP4 DUP2 LT ISZERO PUSH2 0xC6C JUMPI INVALID JUMPDEST DUP1 SWAP2 POP POP SWAP3 SWAP2 POP POP JUMP JUMPDEST PUSH1 0x0 DUP2 CALLDATALOAD SWAP1 POP PUSH2 0xC85 DUP2 PUSH2 0xF47 JUMP JUMPDEST SWAP3 SWAP2 POP POP JUMP JUMPDEST PUSH1 0x0 DUP2 CALLDATALOAD SWAP1 POP PUSH2 0xC9A DUP2 PUSH2 0xF5E JUMP JUMPDEST SWAP3 SWAP2 POP POP JUMP JUMPDEST PUSH1 0x0 PUSH1 0x20 DUP3 DUP5 SUB SLT ISZERO PUSH2 0xCB2 JUMPI PUSH1 0x0 DUP1 REVERT JUMPDEST PUSH1 0x0 PUSH2 0xCC0 DUP5 DUP3 DUP6 ADD PUSH2 0xC76 JUMP JUMPDEST SWAP2 POP POP SWAP3 SWAP2 POP POP JUMP JUMPDEST PUSH1 0x0 DUP1 PUSH1 0x40 DUP4 DUP6 SUB SLT ISZERO PUSH2 0xCDC JUMPI PUSH1 0x0 DUP1 REVERT JUMPDEST PUSH1 0x0 PUSH2 0xCEA DUP6 DUP3 DUP7 ADD PUSH2 0xC76 JUMP JUMPDEST SWAP3 POP POP PUSH1 0x20 PUSH2 0xCFB DUP6 DUP3 DUP7 ADD PUSH2 0xC76 JUMP JUMPDEST SWAP2 POP POP SWAP3 POP SWAP3 SWAP1 POP JUMP JUMPDEST PUSH1 0x0 DUP1 PUSH1 0x0 PUSH1 0x60 DUP5 DUP7 SUB SLT ISZERO PUSH2 0xD1A JUMPI PUSH1 0x0 DUP1 REVERT JUMPDEST PUSH1 0x0 PUSH2 0xD28 DUP7 DUP3 DUP8 ADD PUSH2 0xC76 JUMP JUMPDEST SWAP4 POP POP PUSH1 0x20 PUSH2 0xD39 DUP7 DUP3 DUP8 ADD PUSH2 0xC76 JUMP JUMPDEST SWAP3 POP POP PUSH1 0x40 PUSH2 0xD4A DUP7 DUP3 DUP8 ADD PUSH2 0xC8B JUMP JUMPDEST SWAP2 POP POP SWAP3 POP SWAP3 POP SWAP3 JUMP JUMPDEST PUSH1 0x0 DUP1 PUSH1 0x40 DUP4 DUP6 SUB SLT ISZERO PUSH2 0xD67 JUMPI PUSH1 0x0 DUP1 REVERT JUMPDEST PUSH1 0x0 PUSH2 0xD75 DUP6 DUP3 DUP7 ADD PUSH2 0xC76 JUMP JUMPDEST SWAP3 POP POP PUSH1 0x20 PUSH2 0xD86 DUP6 DUP3 DUP7 ADD PUSH2 0xC8B JUMP JUMPDEST SWAP2 POP POP SWAP3 POP SWAP3 SWAP1 POP JUMP JUMPDEST PUSH1 0x0 PUSH1 0x20 DUP3 DUP5 SUB SLT ISZERO PUSH2 0xDA2 JUMPI PUSH1 0x0 DUP1 REVERT JUMPDEST PUSH1 0x0 PUSH2 0xDB0 DUP5 DUP3 DUP6 ADD PUSH2 0xC8B JUMP JUMPDEST SWAP2 POP POP SWAP3 SWAP2 POP POP JUMP JUMPDEST PUSH2 0xDC2 DUP2 PUSH2 0xEC0 JUMP JUMPDEST DUP3 MSTORE POP POP JUMP JUMPDEST PUSH1 0x0 PUSH2 0xDD3 DUP3 PUSH2 0xE92 JUMP JUMPDEST PUSH2 0xDDD DUP2 DUP6 PUSH2 0xE9D JUMP JUMPDEST SWAP4 POP PUSH2 0xDED DUP2 DUP6 PUSH1 0x20 DUP7 ADD PUSH2 0xF03 JUMP JUMPDEST PUSH2 0xDF6 DUP2 PUSH2 0xF36 JUMP JUMPDEST DUP5 ADD SWAP2 POP POP SWAP3 SWAP2 POP POP JUMP JUMPDEST PUSH2 0xE0A DUP2 PUSH2 0xEEC JUMP JUMPDEST DUP3 MSTORE POP POP JUMP JUMPDEST PUSH2 0xE19 DUP2 PUSH2 0xEF6 JUMP JUMPDEST DUP3 MSTORE POP POP JUMP JUMPDEST PUSH1 0x0 PUSH1 0x20 DUP3 ADD SWAP1 POP PUSH2 0xE34 PUSH1 0x0 DUP4 ADD DUP5 PUSH2 0xDB9 JUMP JUMPDEST SWAP3 SWAP2 POP POP JUMP JUMPDEST PUSH1 0x0 PUSH1 0x20 DUP3 ADD SWAP1 POP DUP2 DUP2 SUB PUSH1 0x0 DUP4 ADD MSTORE PUSH2 0xE54 DUP2 DUP5 PUSH2 0xDC8 JUMP JUMPDEST SWAP1 POP SWAP3 SWAP2 POP POP JUMP JUMPDEST PUSH1 0x0 PUSH1 0x20 DUP3 ADD SWAP1 POP PUSH2 0xE71 PUSH1 0x0 DUP4 ADD DUP5 PUSH2 0xE01 JUMP JUMPDEST SWAP3 SWAP2 POP POP JUMP JUMPDEST PUSH1 0x0 PUSH1 0x20 DUP3 ADD SWAP1 POP PUSH2 0xE8C PUSH1 0x0 DUP4 ADD DUP5 PUSH2 0xE10 JUMP JUMPDEST SWAP3 SWAP2 POP POP JUMP JUMPDEST PUSH1 0x0 DUP2 MLOAD SWAP1 POP SWAP2 SWAP1 POP JUMP JUMPDEST PUSH1 0x0 DUP3 DUP3 MSTORE PUSH1 0x20 DUP3 ADD SWAP1 POP SWAP3 SWAP2 POP POP JUMP JUMPDEST PUSH1 0x0 PUSH2 0xEB9 DUP3 PUSH2 0xECC JUMP JUMPDEST SWAP1 POP SWAP2 SWAP1 POP JUMP JUMPDEST PUSH1 0x0 DUP2 ISZERO ISZERO SWAP1 POP SWAP2 SWAP1 POP JUMP JUMPDEST PUSH1 0x0 PUSH20 0xFFFFFFFFFFFFFFFFFFFFFFFFFFFFFFFFFFFFFFFF DUP3 AND SWAP1 POP SWAP2 SWAP1 POP JUMP JUMPDEST PUSH1 0x0 DUP2 SWAP1 POP SWAP2 SWAP1 POP JUMP JUMPDEST PUSH1 0x0 PUSH1 0xFF DUP3 AND SWAP1 POP SWAP2 SWAP1 POP JUMP JUMPDEST PUSH1 0x0 JUMPDEST DUP4 DUP2 LT ISZERO PUSH2 0xF21 JUMPI DUP1 DUP3 ADD MLOAD DUP2 DUP5 ADD MSTORE PUSH1 0x20 DUP2 ADD SWAP1 POP PUSH2 0xF06 JUMP JUMPDEST DUP4 DUP2 GT ISZERO PUSH2 0xF30 JUMPI PUSH1 0x0 DUP5 DUP5 ADD MSTORE JUMPDEST POP POP POP POP JUMP JUMPDEST PUSH1 0x0 PUSH1 0x1F NOT PUSH1 0x1F DUP4 ADD AND SWAP1 POP SWAP2 SWAP1 POP JUMP JUMPDEST PUSH2 0xF50 DUP2 PUSH2 0xEAE JUMP JUMPDEST DUP2 EQ PUSH2 0xF5B JUMPI PUSH1 0x0 DUP1 REVERT JUMPDEST POP JUMP JUMPDEST PUSH2 0xF67 DUP2 PUSH2 0xEEC JUMP JUMPDEST DUP2 EQ PUSH2 0xF72 JUMPI PUSH1 0x0 DUP1 REVERT JUMPDEST POP JUMP INVALID LOG2 PUSH5 0x6970667358 0x22 SLT KECCAK256 CALL 0xBE LT 0xA6 0xE8 MUL PUSH22 0x94A815C9FE44E50E330A0D3F135C9A6316756B70C01C 0xBB 0xC7 0xBC PUSH5 0x736F6C6343 STOP MOD MOD STOP CALLER "
				},
				"gasEstimates": {
					"creation": {
						"codeDepositCost": "1741600",
						"executionCost": "infinite",
						"totalCost": "infinite"
					},
					"external": {
						"AltaAtraccion(string,uint256)": "infinite",
						"AltaComida(string,uint256)": "infinite",
						"AtraccionesDisponibles()": "infinite",
						"BajaAtraccion(string)": "infinite",
						"BajaComida(string)": "infinite",
						"Clientes(address)": "1617",
						"ComidasDisponibles()": "infinite",
						"CompraTokens(uint256)": "infinite",
						"ConsultaHistorial()": "infinite",
						"DevolverTokens(uint256)": "infinite",
						"GeneraTokens(uint256)": "infinite",
						"MappingAtracciones(string)": "infinite",
						"MappingComida(string)": "infinite",
						"MisTokens()": "infinite",
						"SubirseAtraccion(string)": "infinite",
						"TotalBalance()": "infinite",
						"owner()": "1237"
					},
					"internal": {
						"PrecioTokens(uint256)": "36"
					}
				},
				"methodIdentifiers": {
					"AltaAtraccion(string,uint256)": "39050065",
					"AltaComida(string,uint256)": "1deecf3b",
					"AtraccionesDisponibles()": "1fccb33c",
					"BajaAtraccion(string)": "c66dca40",
					"BajaComida(string)": "dbbdc421",
					"Clientes(address)": "ce8f2f38",
					"ComidasDisponibles()": "c03d2acc",
					"CompraTokens(uint256)": "f7774091",
					"ConsultaHistorial()": "1f7705d2",
					"DevolverTokens(uint256)": "1890154c",
					"GeneraTokens(uint256)": "1246f6e2",
					"MappingAtracciones(string)": "d00df296",
					"MappingComida(string)": "d203c15b",
					"MisTokens()": "e33f34a0",
					"SubirseAtraccion(string)": "12b91846",
					"TotalBalance()": "000c4397",
					"owner()": "8da5cb5b"
				}
			},
			"storageLayout": {
				"storage": [
					{
						"astId": 497,
						"contract": "DISNEY/disney.sol:Disney",
						"label": "token",
						"offset": 0,
						"slot": "0",
						"type": "t_contract(ERC20Basic)409"
					},
					{
						"astId": 499,
						"contract": "DISNEY/disney.sol:Disney",
						"label": "owner",
						"offset": 0,
						"slot": "1",
						"type": "t_address_payable"
					},
					{
						"astId": 525,
						"contract": "DISNEY/disney.sol:Disney",
						"label": "Clientes",
						"offset": 0,
						"slot": "2",
						"type": "t_mapping(t_address,t_struct(cliente)521_storage)"
					},
					{
						"astId": 707,
						"contract": "DISNEY/disney.sol:Disney",
						"label": "MappingAtracciones",
						"offset": 0,
						"slot": "3",
						"type": "t_mapping(t_string_memory_ptr,t_struct(atraccion)696_storage)"
					},
					{
						"astId": 710,
						"contract": "DISNEY/disney.sol:Disney",
						"label": "Atracciones",
						"offset": 0,
						"slot": "4",
						"type": "t_array(t_string_storage)dyn_storage"
					},
					{
						"astId": 715,
						"contract": "DISNEY/disney.sol:Disney",
						"label": "HistorialAtracciones",
						"offset": 0,
						"slot": "5",
						"type": "t_mapping(t_address,t_array(t_string_storage)dyn_storage)"
					},
					{
						"astId": 719,
						"contract": "DISNEY/disney.sol:Disney",
						"label": "MappingComida",
						"offset": 0,
						"slot": "6",
						"type": "t_mapping(t_string_memory_ptr,t_struct(comida)703_storage)"
					},
					{
						"astId": 722,
						"contract": "DISNEY/disney.sol:Disney",
						"label": "Comidas",
						"offset": 0,
						"slot": "7",
						"type": "t_array(t_string_storage)dyn_storage"
					},
					{
						"astId": 727,
						"contract": "DISNEY/disney.sol:Disney",
						"label": "HistorialComidas",
						"offset": 0,
						"slot": "8",
						"type": "t_mapping(t_address,t_array(t_string_storage)dyn_storage)"
					}
				],
				"types": {
					"t_address": {
						"encoding": "inplace",
						"label": "address",
						"numberOfBytes": "20"
					},
					"t_address_payable": {
						"encoding": "inplace",
						"label": "address payable",
						"numberOfBytes": "20"
					},
					"t_array(t_string_storage)dyn_storage": {
						"base": "t_string_storage",
						"encoding": "dynamic_array",
						"label": "string[]",
						"numberOfBytes": "32"
					},
					"t_bool": {
						"encoding": "inplace",
						"label": "bool",
						"numberOfBytes": "1"
					},
					"t_contract(ERC20Basic)409": {
						"encoding": "inplace",
						"label": "contract ERC20Basic",
						"numberOfBytes": "20"
					},
					"t_mapping(t_address,t_array(t_string_storage)dyn_storage)": {
						"encoding": "mapping",
						"key": "t_address",
						"label": "mapping(address => string[])",
						"numberOfBytes": "32",
						"value": "t_array(t_string_storage)dyn_storage"
					},
					"t_mapping(t_address,t_struct(cliente)521_storage)": {
						"encoding": "mapping",
						"key": "t_address",
						"label": "mapping(address => struct Disney.cliente)",
						"numberOfBytes": "32",
						"value": "t_struct(cliente)521_storage"
					},
					"t_mapping(t_string_memory_ptr,t_struct(atraccion)696_storage)": {
						"encoding": "mapping",
						"key": "t_string_memory_ptr",
						"label": "mapping(string => struct Disney.atraccion)",
						"numberOfBytes": "32",
						"value": "t_struct(atraccion)696_storage"
					},
					"t_mapping(t_string_memory_ptr,t_struct(comida)703_storage)": {
						"encoding": "mapping",
						"key": "t_string_memory_ptr",
						"label": "mapping(string => struct Disney.comida)",
						"numberOfBytes": "32",
						"value": "t_struct(comida)703_storage"
					},
					"t_string_memory_ptr": {
						"encoding": "bytes",
						"label": "string",
						"numberOfBytes": "32"
					},
					"t_string_storage": {
						"encoding": "bytes",
						"label": "string",
						"numberOfBytes": "32"
					},
					"t_struct(atraccion)696_storage": {
						"encoding": "inplace",
						"label": "struct Disney.atraccion",
						"members": [
							{
								"astId": 691,
								"contract": "DISNEY/disney.sol:Disney",
								"label": "nombre_atraccion",
								"offset": 0,
								"slot": "0",
								"type": "t_string_storage"
							},
							{
								"astId": 693,
								"contract": "DISNEY/disney.sol:Disney",
								"label": "precio_atraccion",
								"offset": 0,
								"slot": "1",
								"type": "t_uint256"
							},
							{
								"astId": 695,
								"contract": "DISNEY/disney.sol:Disney",
								"label": "estado_atraccion",
								"offset": 0,
								"slot": "2",
								"type": "t_bool"
							}
						],
						"numberOfBytes": "96"
					},
					"t_struct(cliente)521_storage": {
						"encoding": "inplace",
						"label": "struct Disney.cliente",
						"members": [
							{
								"astId": 517,
								"contract": "DISNEY/disney.sol:Disney",
								"label": "tokens_comprados",
								"offset": 0,
								"slot": "0",
								"type": "t_uint256"
							},
							{
								"astId": 520,
								"contract": "DISNEY/disney.sol:Disney",
								"label": "atracciones_disfrutadas",
								"offset": 0,
								"slot": "1",
								"type": "t_array(t_string_storage)dyn_storage"
							}
						],
						"numberOfBytes": "64"
					},
					"t_struct(comida)703_storage": {
						"encoding": "inplace",
						"label": "struct Disney.comida",
						"members": [
							{
								"astId": 698,
								"contract": "DISNEY/disney.sol:Disney",
								"label": "nombre_comida",
								"offset": 0,
								"slot": "0",
								"type": "t_string_storage"
							},
							{
								"astId": 700,
								"contract": "DISNEY/disney.sol:Disney",
								"label": "precio_precio",
								"offset": 0,
								"slot": "1",
								"type": "t_uint256"
							},
							{
								"astId": 702,
								"contract": "DISNEY/disney.sol:Disney",
								"label": "stock_comida",
								"offset": 0,
								"slot": "2",
								"type": "t_bool"
							}
						],
						"numberOfBytes": "96"
					},
					"t_uint256": {
						"encoding": "inplace",
						"label": "uint256",
						"numberOfBytes": "32"
					}
				}
			},
			"userdoc": {
				"methods": {}
			}
		}
	}
}